ARM GAS  C:\Users\SUZUKI~1\AppData\Local\Temp\ccwVFYOj.s 			page 1


   1              		.syntax unified
   2              		.cpu cortex-m3
   3              		.fpu softvfp
   4              		.eabi_attribute 20, 1
   5              		.eabi_attribute 21, 1
   6              		.eabi_attribute 23, 3
   7              		.eabi_attribute 24, 1
   8              		.eabi_attribute 25, 1
   9              		.eabi_attribute 26, 1
  10              		.eabi_attribute 30, 4
  11              		.eabi_attribute 18, 4
  12              		.thumb
  13              		.file	"CySpc.c"
  14              		.section	.debug_abbrev,"",%progbits
  15              	.Ldebug_abbrev0:
  16              		.section	.debug_info,"",%progbits
  17              	.Ldebug_info0:
  18              		.section	.debug_line,"",%progbits
  19              	.Ldebug_line0:
  20 0000 07020000 		.text
  20      02005E00 
  20      00000201 
  20      FB0E0D00 
  20      01010101 
  21              	.Ltext0:
  22              		.cfi_sections	.debug_frame
  23              		.section	.text.CySpcLoadMultiByte,"ax",%progbits
  24              		.align	1
  25              		.global	CySpcLoadMultiByte
  26              		.thumb
  27              		.thumb_func
  28              		.type	CySpcLoadMultiByte, %function
  29              	CySpcLoadMultiByte:
  30              	.LFB3:
  31              		.file 1 ".\\Generated_Source\\PSoC5\\CySpc.c"
   1:.\Generated_Source\PSoC5/CySpc.c **** /*******************************************************************************
   2:.\Generated_Source\PSoC5/CySpc.c **** * File Name: CySpc.c
   3:.\Generated_Source\PSoC5/CySpc.c **** * Version 3.10
   4:.\Generated_Source\PSoC5/CySpc.c **** *
   5:.\Generated_Source\PSoC5/CySpc.c **** *  Description:
   6:.\Generated_Source\PSoC5/CySpc.c **** *   Provides an API for the System Performance Component.
   7:.\Generated_Source\PSoC5/CySpc.c **** *   The SPC functions are not meant to be called directly by the user
   8:.\Generated_Source\PSoC5/CySpc.c **** *   application.
   9:.\Generated_Source\PSoC5/CySpc.c **** *
  10:.\Generated_Source\PSoC5/CySpc.c **** ********************************************************************************
  11:.\Generated_Source\PSoC5/CySpc.c **** * Copyright 2008-2012, Cypress Semiconductor Corporation.  All rights reserved.
  12:.\Generated_Source\PSoC5/CySpc.c **** * You may use this file only in accordance with the license, terms, conditions,
  13:.\Generated_Source\PSoC5/CySpc.c **** * disclaimers, and limitations in the end user license agreement accompanying
  14:.\Generated_Source\PSoC5/CySpc.c **** * the software package with which this file was provided.
  15:.\Generated_Source\PSoC5/CySpc.c **** *******************************************************************************/
  16:.\Generated_Source\PSoC5/CySpc.c **** 
  17:.\Generated_Source\PSoC5/CySpc.c **** #include "CySpc.h"
  18:.\Generated_Source\PSoC5/CySpc.c **** 
  19:.\Generated_Source\PSoC5/CySpc.c **** #define CY_SPC_KEY_ONE                      (0xB6u)
  20:.\Generated_Source\PSoC5/CySpc.c **** #define CY_SPC_KEY_TWO(x)                   ((uint8) (((uint16) 0xD3u) + ((uint16) (x))))
  21:.\Generated_Source\PSoC5/CySpc.c **** 
  22:.\Generated_Source\PSoC5/CySpc.c **** /* Command Codes */
ARM GAS  C:\Users\SUZUKI~1\AppData\Local\Temp\ccwVFYOj.s 			page 2


  23:.\Generated_Source\PSoC5/CySpc.c **** #define CY_SPC_CMD_LD_BYTE                  (0x00u)
  24:.\Generated_Source\PSoC5/CySpc.c **** #define CY_SPC_CMD_LD_MULTI_BYTE            (0x01u)
  25:.\Generated_Source\PSoC5/CySpc.c **** #define CY_SPC_CMD_LD_ROW                   (0x02u)
  26:.\Generated_Source\PSoC5/CySpc.c **** #define CY_SPC_CMD_RD_BYTE                  (0x03u)
  27:.\Generated_Source\PSoC5/CySpc.c **** #define CY_SPC_CMD_RD_MULTI_BYTE            (0x04u)
  28:.\Generated_Source\PSoC5/CySpc.c **** #define CY_SPC_CMD_WR_ROW                   (0x05u)
  29:.\Generated_Source\PSoC5/CySpc.c **** #define CY_SPC_CMD_WR_USER_NVL              (0x06u)
  30:.\Generated_Source\PSoC5/CySpc.c **** #define CY_SPC_CMD_PRG_ROW                  (0x07u)
  31:.\Generated_Source\PSoC5/CySpc.c **** #define CY_SPC_CMD_ER_SECTOR                (0x08u)
  32:.\Generated_Source\PSoC5/CySpc.c **** #define CY_SPC_CMD_ER_ALL                   (0x09u)
  33:.\Generated_Source\PSoC5/CySpc.c **** #define CY_SPC_CMD_RD_HIDDEN                (0x0Au)
  34:.\Generated_Source\PSoC5/CySpc.c **** #define CY_SPC_CMD_PRG_PROTECT              (0x0Bu)
  35:.\Generated_Source\PSoC5/CySpc.c **** #define CY_SPC_CMD_CHECKSUM                 (0x0Cu)
  36:.\Generated_Source\PSoC5/CySpc.c **** #define CY_SPC_CMD_DWNLD_ALGORITHM          (0x0Du)
  37:.\Generated_Source\PSoC5/CySpc.c **** #define CY_SPC_CMD_GET_TEMP                 (0x0Eu)
  38:.\Generated_Source\PSoC5/CySpc.c **** #define CY_SPC_CMD_GET_ADC                  (0x0Fu)
  39:.\Generated_Source\PSoC5/CySpc.c **** #define CY_SPC_CMD_RD_NVL_VOLATILE          (0x10u)
  40:.\Generated_Source\PSoC5/CySpc.c **** #define CY_SPC_CMD_SETUP_TS                 (0x11u)
  41:.\Generated_Source\PSoC5/CySpc.c **** #define CY_SPC_CMD_DISABLE_TS               (0x12u)
  42:.\Generated_Source\PSoC5/CySpc.c **** #define CY_SPC_CMD_ER_ROW                   (0x13u)
  43:.\Generated_Source\PSoC5/CySpc.c **** 
  44:.\Generated_Source\PSoC5/CySpc.c **** /* Enable bit in Active and Alternate Active mode templates */
  45:.\Generated_Source\PSoC5/CySpc.c **** #define PM_SPC_PM_EN                        (0x08u)
  46:.\Generated_Source\PSoC5/CySpc.c **** 
  47:.\Generated_Source\PSoC5/CySpc.c **** #define CY_SPC_FLASH_SECTOR_ADDRES(x)       (0xFF & (x))
  48:.\Generated_Source\PSoC5/CySpc.c **** #define CY_SPC_EEPROM_SECTOR_ADDRESS(x)     (0x7F & (x))
  49:.\Generated_Source\PSoC5/CySpc.c **** 
  50:.\Generated_Source\PSoC5/CySpc.c **** /* Gate calls to the SPC. */
  51:.\Generated_Source\PSoC5/CySpc.c **** uint8 SpcLockState = CY_SPC_UNLOCKED;
  52:.\Generated_Source\PSoC5/CySpc.c **** 
  53:.\Generated_Source\PSoC5/CySpc.c **** 
  54:.\Generated_Source\PSoC5/CySpc.c **** #if(CY_PSOC5LP)
  55:.\Generated_Source\PSoC5/CySpc.c **** 
  56:.\Generated_Source\PSoC5/CySpc.c ****     /***************************************************************************
  57:.\Generated_Source\PSoC5/CySpc.c ****     * The wait-state pipeline must be enabled prior to accessing the SPC
  58:.\Generated_Source\PSoC5/CySpc.c ****     * register interface regardless of CPU frequency. The CySpcLock() saves
  59:.\Generated_Source\PSoC5/CySpc.c ****     * current wait-state pipeline state and enables it. The CySpcUnlock()
  60:.\Generated_Source\PSoC5/CySpc.c ****     * function, which must be called after SPC transaction, restores original
  61:.\Generated_Source\PSoC5/CySpc.c ****     * state.
  62:.\Generated_Source\PSoC5/CySpc.c ****     ***************************************************************************/
  63:.\Generated_Source\PSoC5/CySpc.c ****     uint8 spcWaitPipeBypass = 0u;
  64:.\Generated_Source\PSoC5/CySpc.c **** 
  65:.\Generated_Source\PSoC5/CySpc.c **** #endif  /* (CY_PSOC5LP) */
  66:.\Generated_Source\PSoC5/CySpc.c **** 
  67:.\Generated_Source\PSoC5/CySpc.c **** 
  68:.\Generated_Source\PSoC5/CySpc.c **** /*******************************************************************************
  69:.\Generated_Source\PSoC5/CySpc.c **** * Function Name: CySpcStart
  70:.\Generated_Source\PSoC5/CySpc.c **** ********************************************************************************
  71:.\Generated_Source\PSoC5/CySpc.c **** * Summary:
  72:.\Generated_Source\PSoC5/CySpc.c **** *  Starts the SPC.
  73:.\Generated_Source\PSoC5/CySpc.c **** *
  74:.\Generated_Source\PSoC5/CySpc.c **** * Parameters:
  75:.\Generated_Source\PSoC5/CySpc.c **** *  None
  76:.\Generated_Source\PSoC5/CySpc.c **** *
  77:.\Generated_Source\PSoC5/CySpc.c **** * Return:
  78:.\Generated_Source\PSoC5/CySpc.c **** *  None
  79:.\Generated_Source\PSoC5/CySpc.c **** *
ARM GAS  C:\Users\SUZUKI~1\AppData\Local\Temp\ccwVFYOj.s 			page 3


  80:.\Generated_Source\PSoC5/CySpc.c **** *******************************************************************************/
  81:.\Generated_Source\PSoC5/CySpc.c **** void CySpcStart(void) 
  82:.\Generated_Source\PSoC5/CySpc.c **** {
  83:.\Generated_Source\PSoC5/CySpc.c ****     /* Save current global interrupt enable and disable it */
  84:.\Generated_Source\PSoC5/CySpc.c ****     uint8 interruptState = CyEnterCriticalSection();
  85:.\Generated_Source\PSoC5/CySpc.c **** 
  86:.\Generated_Source\PSoC5/CySpc.c ****     CY_SPC_PM_ACT_REG  |= PM_SPC_PM_EN;
  87:.\Generated_Source\PSoC5/CySpc.c ****     CY_SPC_PM_STBY_REG |= PM_SPC_PM_EN;
  88:.\Generated_Source\PSoC5/CySpc.c **** 
  89:.\Generated_Source\PSoC5/CySpc.c ****     /* Restore global interrupt enable state */
  90:.\Generated_Source\PSoC5/CySpc.c ****     CyExitCriticalSection(interruptState);
  91:.\Generated_Source\PSoC5/CySpc.c **** }
  92:.\Generated_Source\PSoC5/CySpc.c **** 
  93:.\Generated_Source\PSoC5/CySpc.c **** 
  94:.\Generated_Source\PSoC5/CySpc.c **** /*******************************************************************************
  95:.\Generated_Source\PSoC5/CySpc.c **** * Function Name: CySpcStop
  96:.\Generated_Source\PSoC5/CySpc.c **** ********************************************************************************
  97:.\Generated_Source\PSoC5/CySpc.c **** * Summary:
  98:.\Generated_Source\PSoC5/CySpc.c **** *  Stops the SPC.
  99:.\Generated_Source\PSoC5/CySpc.c **** *
 100:.\Generated_Source\PSoC5/CySpc.c **** * Parameters:
 101:.\Generated_Source\PSoC5/CySpc.c **** *  None
 102:.\Generated_Source\PSoC5/CySpc.c **** *
 103:.\Generated_Source\PSoC5/CySpc.c **** * Return:
 104:.\Generated_Source\PSoC5/CySpc.c **** *  None
 105:.\Generated_Source\PSoC5/CySpc.c **** *
 106:.\Generated_Source\PSoC5/CySpc.c **** *******************************************************************************/
 107:.\Generated_Source\PSoC5/CySpc.c **** void CySpcStop(void) 
 108:.\Generated_Source\PSoC5/CySpc.c **** {
 109:.\Generated_Source\PSoC5/CySpc.c ****     /* Save current global interrupt enable and disable it */
 110:.\Generated_Source\PSoC5/CySpc.c ****     uint8 interruptState = CyEnterCriticalSection();
 111:.\Generated_Source\PSoC5/CySpc.c **** 
 112:.\Generated_Source\PSoC5/CySpc.c ****     CY_SPC_PM_ACT_REG  &= ~PM_SPC_PM_EN;
 113:.\Generated_Source\PSoC5/CySpc.c ****     CY_SPC_PM_STBY_REG &= ~PM_SPC_PM_EN;
 114:.\Generated_Source\PSoC5/CySpc.c **** 
 115:.\Generated_Source\PSoC5/CySpc.c ****     /* Restore global interrupt enable state */
 116:.\Generated_Source\PSoC5/CySpc.c ****     CyExitCriticalSection(interruptState);
 117:.\Generated_Source\PSoC5/CySpc.c **** }
 118:.\Generated_Source\PSoC5/CySpc.c **** 
 119:.\Generated_Source\PSoC5/CySpc.c **** 
 120:.\Generated_Source\PSoC5/CySpc.c **** /*******************************************************************************
 121:.\Generated_Source\PSoC5/CySpc.c **** * Function Name: CySpcReadData
 122:.\Generated_Source\PSoC5/CySpc.c **** ********************************************************************************
 123:.\Generated_Source\PSoC5/CySpc.c **** * Summary:
 124:.\Generated_Source\PSoC5/CySpc.c **** *  Reads data from the SPC.
 125:.\Generated_Source\PSoC5/CySpc.c **** *
 126:.\Generated_Source\PSoC5/CySpc.c **** * Parameters:
 127:.\Generated_Source\PSoC5/CySpc.c **** *  uint8 buffer:
 128:.\Generated_Source\PSoC5/CySpc.c **** *   Address to store data read.
 129:.\Generated_Source\PSoC5/CySpc.c **** *
 130:.\Generated_Source\PSoC5/CySpc.c **** *  uint8 size:
 131:.\Generated_Source\PSoC5/CySpc.c **** *   Number of bytes to read from the SPC.
 132:.\Generated_Source\PSoC5/CySpc.c **** *
 133:.\Generated_Source\PSoC5/CySpc.c **** * Return:
 134:.\Generated_Source\PSoC5/CySpc.c **** *  uint8:
 135:.\Generated_Source\PSoC5/CySpc.c **** *   The number of bytes read from the SPC.
 136:.\Generated_Source\PSoC5/CySpc.c **** *
ARM GAS  C:\Users\SUZUKI~1\AppData\Local\Temp\ccwVFYOj.s 			page 4


 137:.\Generated_Source\PSoC5/CySpc.c **** *******************************************************************************/
 138:.\Generated_Source\PSoC5/CySpc.c **** uint8 CySpcReadData(uint8 *buffer, uint8 size) 
 139:.\Generated_Source\PSoC5/CySpc.c **** {
 140:.\Generated_Source\PSoC5/CySpc.c ****     uint8 i;
 141:.\Generated_Source\PSoC5/CySpc.c **** 
 142:.\Generated_Source\PSoC5/CySpc.c ****     for(i = 0u; i < size; i++)
 143:.\Generated_Source\PSoC5/CySpc.c ****     {
 144:.\Generated_Source\PSoC5/CySpc.c ****         while(!CY_SPC_DATA_READY)
 145:.\Generated_Source\PSoC5/CySpc.c ****         {
 146:.\Generated_Source\PSoC5/CySpc.c ****             CyDelayUs(1u);
 147:.\Generated_Source\PSoC5/CySpc.c ****         }
 148:.\Generated_Source\PSoC5/CySpc.c ****         buffer[i] = CY_SPC_CPU_DATA_REG;
 149:.\Generated_Source\PSoC5/CySpc.c ****     }
 150:.\Generated_Source\PSoC5/CySpc.c **** 
 151:.\Generated_Source\PSoC5/CySpc.c ****     return(i);
 152:.\Generated_Source\PSoC5/CySpc.c **** }
 153:.\Generated_Source\PSoC5/CySpc.c **** 
 154:.\Generated_Source\PSoC5/CySpc.c **** 
 155:.\Generated_Source\PSoC5/CySpc.c **** /*******************************************************************************
 156:.\Generated_Source\PSoC5/CySpc.c **** * Function Name: CySpcLoadMultiByte
 157:.\Generated_Source\PSoC5/CySpc.c **** ********************************************************************************
 158:.\Generated_Source\PSoC5/CySpc.c **** * Summary:
 159:.\Generated_Source\PSoC5/CySpc.c **** *  Loads 1 to 32 bytes of data into the row latch of a Flash/EEPROM array.
 160:.\Generated_Source\PSoC5/CySpc.c **** *
 161:.\Generated_Source\PSoC5/CySpc.c **** * Parameters:
 162:.\Generated_Source\PSoC5/CySpc.c **** *  uint8 array:
 163:.\Generated_Source\PSoC5/CySpc.c **** *   Id of the array.
 164:.\Generated_Source\PSoC5/CySpc.c **** *
 165:.\Generated_Source\PSoC5/CySpc.c **** *  uint16 address:
 166:.\Generated_Source\PSoC5/CySpc.c **** *   Flash/eeprom addrress
 167:.\Generated_Source\PSoC5/CySpc.c **** *
 168:.\Generated_Source\PSoC5/CySpc.c **** *  uint8* buffer:
 169:.\Generated_Source\PSoC5/CySpc.c **** *   Data to load to the row latch
 170:.\Generated_Source\PSoC5/CySpc.c **** *
 171:.\Generated_Source\PSoC5/CySpc.c **** *  uint16 number:
 172:.\Generated_Source\PSoC5/CySpc.c **** *   Number bytes to load.
 173:.\Generated_Source\PSoC5/CySpc.c **** *
 174:.\Generated_Source\PSoC5/CySpc.c **** * Return:
 175:.\Generated_Source\PSoC5/CySpc.c **** *  CYRET_STARTED
 176:.\Generated_Source\PSoC5/CySpc.c **** *  CYRET_CANCELED
 177:.\Generated_Source\PSoC5/CySpc.c **** *  CYRET_LOCKED
 178:.\Generated_Source\PSoC5/CySpc.c **** *  CYRET_BAD_PARAM
 179:.\Generated_Source\PSoC5/CySpc.c **** *
 180:.\Generated_Source\PSoC5/CySpc.c **** *******************************************************************************/
 181:.\Generated_Source\PSoC5/CySpc.c **** cystatus CySpcLoadMultiByte(uint8 array, uint16 address, const uint8* buffer, uint8 size) 
 182:.\Generated_Source\PSoC5/CySpc.c **** {
  32              		.loc 1 182 0
  33              		.cfi_startproc
  34              		@ args = 0, pretend = 0, frame = 0
  35              		@ frame_needed = 0, uses_anonymous_args = 0
  36              	.LVL0:
 183:.\Generated_Source\PSoC5/CySpc.c ****     cystatus status = CYRET_STARTED;
 184:.\Generated_Source\PSoC5/CySpc.c ****     uint8 i;
 185:.\Generated_Source\PSoC5/CySpc.c **** 
 186:.\Generated_Source\PSoC5/CySpc.c ****     /***************************************************************************
 187:.\Generated_Source\PSoC5/CySpc.c ****     * Check if number is correct for array. Number must be less than
 188:.\Generated_Source\PSoC5/CySpc.c ****     * 32 for Flash or less than 16 for EEPROM.
ARM GAS  C:\Users\SUZUKI~1\AppData\Local\Temp\ccwVFYOj.s 			page 5


 189:.\Generated_Source\PSoC5/CySpc.c ****     ***************************************************************************/
 190:.\Generated_Source\PSoC5/CySpc.c ****     if(((array < CY_SPC_LAST_FLASH_ARRAYID) && (size < 32)) ||
  37              		.loc 1 190 0
  38 0000 3E28     		cmp	r0, #62
  39              		.loc 1 182 0
  40 0002 30B5     		push	{r4, r5, lr}
  41              	.LCFI0:
  42              		.cfi_def_cfa_offset 12
  43              		.loc 1 190 0
  44 0004 01D8     		bhi	.L2
  45              		.cfi_offset 14, -4
  46              		.cfi_offset 5, -8
  47              		.cfi_offset 4, -12
  48 0006 1F2B     		cmp	r3, #31
  49 0008 02E0     		b	.L11
  50              	.L2:
  51 000a 3F28     		cmp	r0, #63
  52 000c 34D0     		beq	.L4
  53 000e 0F2B     		cmp	r3, #15
  54              	.L11:
  55 0010 32D8     		bhi	.L4
 191:.\Generated_Source\PSoC5/CySpc.c ****        ((array > CY_SPC_LAST_FLASH_ARRAYID) && (size < 16)))
 192:.\Generated_Source\PSoC5/CySpc.c ****     {
 193:.\Generated_Source\PSoC5/CySpc.c ****         if(CY_SPC_IDLE)
  56              		.loc 1 193 0
  57 0012 1A4D     		ldr	r5, .L13
  58 0014 95F800C0 		ldrb	ip, [r5, #0]	@ zero_extendqisi2
  59 0018 1CF0020F 		tst	ip, #2
  60 001c 01D1     		bne	.L5
  61 001e 0420     		movs	r0, #4
  62              	.LVL1:
  63 0020 30BD     		pop	{r4, r5, pc}
  64              	.LVL2:
  65              	.L5:
 194:.\Generated_Source\PSoC5/CySpc.c ****         {
 195:.\Generated_Source\PSoC5/CySpc.c ****             CY_SPC_CPU_DATA_REG = CY_SPC_KEY_ONE;
  66              		.loc 1 195 0
  67 0022 174C     		ldr	r4, .L13+4
  68 0024 6FF0490C 		mvn	ip, #73
  69 0028 84F800C0 		strb	ip, [r4, #0]
 196:.\Generated_Source\PSoC5/CySpc.c ****             CY_SPC_CPU_DATA_REG = CY_SPC_KEY_TWO(CY_SPC_CMD_LD_MULTI_BYTE);
  70              		.loc 1 196 0
  71 002c 0CF11E0C 		add	ip, ip, #30
  72 0030 84F800C0 		strb	ip, [r4, #0]
 197:.\Generated_Source\PSoC5/CySpc.c ****             CY_SPC_CPU_DATA_REG = CY_SPC_CMD_LD_MULTI_BYTE;
  73              		.loc 1 197 0
  74 0034 0CF12D0C 		add	ip, ip, #45
  75 0038 84F800C0 		strb	ip, [r4, #0]
 198:.\Generated_Source\PSoC5/CySpc.c **** 
 199:.\Generated_Source\PSoC5/CySpc.c ****             if(CY_SPC_BUSY)
  76              		.loc 1 199 0
  77 003c 95F800C0 		ldrb	ip, [r5, #0]	@ zero_extendqisi2
  78 0040 1CF0020C 		ands	ip, ip, #2
  79 0044 01D0     		beq	.L7
  80 0046 0920     		movs	r0, #9
  81              	.LVL3:
  82 0048 30BD     		pop	{r4, r5, pc}
ARM GAS  C:\Users\SUZUKI~1\AppData\Local\Temp\ccwVFYOj.s 			page 6


  83              	.LVL4:
  84              	.L7:
 200:.\Generated_Source\PSoC5/CySpc.c ****             {
 201:.\Generated_Source\PSoC5/CySpc.c ****                 CY_SPC_CPU_DATA_REG = array;
  85              		.loc 1 201 0
  86 004a 2070     		strb	r0, [r4, #0]
 202:.\Generated_Source\PSoC5/CySpc.c ****                 CY_SPC_CPU_DATA_REG = 1u & HI8(address);
  87              		.loc 1 202 0
  88 004c 080A     		lsrs	r0, r1, #8
  89              	.LVL5:
  90 004e 00F00100 		and	r0, r0, #1
 203:.\Generated_Source\PSoC5/CySpc.c ****                 CY_SPC_CPU_DATA_REG = LO8(address);
  91              		.loc 1 203 0
  92 0052 C9B2     		uxtb	r1, r1
  93              	.LVL6:
  94              		.loc 1 202 0
  95 0054 2070     		strb	r0, [r4, #0]
  96              		.loc 1 203 0
  97 0056 2170     		strb	r1, [r4, #0]
 204:.\Generated_Source\PSoC5/CySpc.c ****                 CY_SPC_CPU_DATA_REG = size - 1u;
  98              		.loc 1 204 0
  99 0058 591E     		subs	r1, r3, #1
 100 005a C9B2     		uxtb	r1, r1
 101 005c 2170     		strb	r1, [r4, #0]
 102 005e 6146     		mov	r1, ip
 205:.\Generated_Source\PSoC5/CySpc.c **** 
 206:.\Generated_Source\PSoC5/CySpc.c ****                 for(i = 0u; i < size; i++)
 103              		.loc 1 206 0
 104 0060 05E0     		b	.L8
 105              	.L9:
 207:.\Generated_Source\PSoC5/CySpc.c ****                 {
 208:.\Generated_Source\PSoC5/CySpc.c ****                     CY_SPC_CPU_DATA_REG = buffer[i];
 106              		.loc 1 208 0
 107 0062 12F801C0 		ldrb	ip, [r2, r1]	@ zero_extendqisi2
 108 0066 0648     		ldr	r0, .L13+4
 109 0068 0131     		adds	r1, r1, #1
 110 006a 80F800C0 		strb	ip, [r0, #0]
 111              	.L8:
 112              		.loc 1 206 0
 113 006e C8B2     		uxtb	r0, r1
 114 0070 9842     		cmp	r0, r3
 115 0072 F6D3     		bcc	.L9
 116 0074 0720     		movs	r0, #7
 117              	.LVL7:
 118 0076 30BD     		pop	{r4, r5, pc}
 119              	.LVL8:
 120              	.L4:
 121 0078 0120     		movs	r0, #1
 122              	.LVL9:
 123              	.LVL10:
 209:.\Generated_Source\PSoC5/CySpc.c ****                 }
 210:.\Generated_Source\PSoC5/CySpc.c ****             }
 211:.\Generated_Source\PSoC5/CySpc.c ****             else
 212:.\Generated_Source\PSoC5/CySpc.c ****             {
 213:.\Generated_Source\PSoC5/CySpc.c ****                 status = CYRET_CANCELED;
 214:.\Generated_Source\PSoC5/CySpc.c ****             }
 215:.\Generated_Source\PSoC5/CySpc.c ****         }
ARM GAS  C:\Users\SUZUKI~1\AppData\Local\Temp\ccwVFYOj.s 			page 7


 216:.\Generated_Source\PSoC5/CySpc.c ****         else
 217:.\Generated_Source\PSoC5/CySpc.c ****         {
 218:.\Generated_Source\PSoC5/CySpc.c ****             status = CYRET_LOCKED;
 219:.\Generated_Source\PSoC5/CySpc.c ****         }
 220:.\Generated_Source\PSoC5/CySpc.c ****     }
 221:.\Generated_Source\PSoC5/CySpc.c ****     else
 222:.\Generated_Source\PSoC5/CySpc.c ****     {
 223:.\Generated_Source\PSoC5/CySpc.c ****         status = CYRET_BAD_PARAM;
 224:.\Generated_Source\PSoC5/CySpc.c ****     }
 225:.\Generated_Source\PSoC5/CySpc.c **** 
 226:.\Generated_Source\PSoC5/CySpc.c ****     return(status);
 227:.\Generated_Source\PSoC5/CySpc.c **** }
 124              		.loc 1 227 0
 125 007a 30BD     		pop	{r4, r5, pc}
 126              	.L14:
 127              		.align	2
 128              	.L13:
 129 007c 22470040 		.word	1073760034
 130 0080 20470040 		.word	1073760032
 131              		.cfi_endproc
 132              	.LFE3:
 133              		.size	CySpcLoadMultiByte, .-CySpcLoadMultiByte
 134              		.section	.text.CySpcLoadRow,"ax",%progbits
 135              		.align	1
 136              		.global	CySpcLoadRow
 137              		.thumb
 138              		.thumb_func
 139              		.type	CySpcLoadRow, %function
 140              	CySpcLoadRow:
 141              	.LFB4:
 228:.\Generated_Source\PSoC5/CySpc.c **** 
 229:.\Generated_Source\PSoC5/CySpc.c **** 
 230:.\Generated_Source\PSoC5/CySpc.c **** /*******************************************************************************
 231:.\Generated_Source\PSoC5/CySpc.c **** * Function Name: CySpcLoadRow
 232:.\Generated_Source\PSoC5/CySpc.c **** ********************************************************************************
 233:.\Generated_Source\PSoC5/CySpc.c **** * Summary:
 234:.\Generated_Source\PSoC5/CySpc.c **** *  Loads a row of data into the row latch of a Flash/EEPROM array.
 235:.\Generated_Source\PSoC5/CySpc.c **** *
 236:.\Generated_Source\PSoC5/CySpc.c **** * Parameters:
 237:.\Generated_Source\PSoC5/CySpc.c **** *  uint8 array:
 238:.\Generated_Source\PSoC5/CySpc.c **** *   Id of the array.
 239:.\Generated_Source\PSoC5/CySpc.c **** *
 240:.\Generated_Source\PSoC5/CySpc.c **** *  uint8* buffer:
 241:.\Generated_Source\PSoC5/CySpc.c **** *   Data to be loaded to the row latch
 242:.\Generated_Source\PSoC5/CySpc.c **** *
 243:.\Generated_Source\PSoC5/CySpc.c **** *  uint8 size:
 244:.\Generated_Source\PSoC5/CySpc.c **** *   The number of data bytes that the SPC expects to be written. Depends on the
 245:.\Generated_Source\PSoC5/CySpc.c **** *   type of the array and, if the array is Flash, whether ECC is being enabled
 246:.\Generated_Source\PSoC5/CySpc.c **** *   or not. There are following values: flash row latch size with ECC enabled,
 247:.\Generated_Source\PSoC5/CySpc.c **** *   flash row latch size with ECC disabled and EEPROM row latch size.
 248:.\Generated_Source\PSoC5/CySpc.c **** *
 249:.\Generated_Source\PSoC5/CySpc.c **** * Return:
 250:.\Generated_Source\PSoC5/CySpc.c **** *  CYRET_STARTED
 251:.\Generated_Source\PSoC5/CySpc.c **** *  CYRET_CANCELED
 252:.\Generated_Source\PSoC5/CySpc.c **** *  CYRET_LOCKED
 253:.\Generated_Source\PSoC5/CySpc.c **** *
 254:.\Generated_Source\PSoC5/CySpc.c **** *******************************************************************************/
ARM GAS  C:\Users\SUZUKI~1\AppData\Local\Temp\ccwVFYOj.s 			page 8


 255:.\Generated_Source\PSoC5/CySpc.c **** cystatus CySpcLoadRow(uint8 array, const uint8* buffer, uint16 size)
 256:.\Generated_Source\PSoC5/CySpc.c **** {
 142              		.loc 1 256 0
 143              		.cfi_startproc
 144              		@ args = 0, pretend = 0, frame = 0
 145              		@ frame_needed = 0, uses_anonymous_args = 0
 146              	.LVL11:
 147 0000 10B5     		push	{r4, lr}
 148              	.LCFI1:
 149              		.cfi_def_cfa_offset 8
 257:.\Generated_Source\PSoC5/CySpc.c ****     cystatus status = CYRET_STARTED;
 258:.\Generated_Source\PSoC5/CySpc.c ****     uint16 i;
 259:.\Generated_Source\PSoC5/CySpc.c **** 
 260:.\Generated_Source\PSoC5/CySpc.c ****     /* Make sure the SPC is ready to accept command */
 261:.\Generated_Source\PSoC5/CySpc.c ****     if(CY_SPC_IDLE)
 150              		.loc 1 261 0
 151 0002 144B     		ldr	r3, .L22
 152 0004 93F800C0 		ldrb	ip, [r3, #0]	@ zero_extendqisi2
 153 0008 1CF0020F 		tst	ip, #2
 154 000c 01D1     		bne	.L16
 155              		.cfi_offset 14, -4
 156              		.cfi_offset 4, -8
 157 000e 0420     		movs	r0, #4
 158              	.LVL12:
 159 0010 10BD     		pop	{r4, pc}
 160              	.LVL13:
 161              	.L16:
 262:.\Generated_Source\PSoC5/CySpc.c ****     {
 263:.\Generated_Source\PSoC5/CySpc.c ****         CY_SPC_CPU_DATA_REG = CY_SPC_KEY_ONE;
 162              		.loc 1 263 0
 163 0012 114C     		ldr	r4, .L22+4
 164 0014 6FF0490C 		mvn	ip, #73
 165 0018 84F800C0 		strb	ip, [r4, #0]
 264:.\Generated_Source\PSoC5/CySpc.c ****         CY_SPC_CPU_DATA_REG = CY_SPC_KEY_TWO(CY_SPC_CMD_LD_ROW);
 166              		.loc 1 264 0
 167 001c 0CF11F0C 		add	ip, ip, #31
 168 0020 84F800C0 		strb	ip, [r4, #0]
 265:.\Generated_Source\PSoC5/CySpc.c ****         CY_SPC_CPU_DATA_REG = CY_SPC_CMD_LD_ROW;
 169              		.loc 1 265 0
 170 0024 0CF12D0C 		add	ip, ip, #45
 171 0028 84F800C0 		strb	ip, [r4, #0]
 266:.\Generated_Source\PSoC5/CySpc.c **** 
 267:.\Generated_Source\PSoC5/CySpc.c ****         /* Make sure the command was accepted */
 268:.\Generated_Source\PSoC5/CySpc.c ****         if(CY_SPC_BUSY)
 172              		.loc 1 268 0
 173 002c 1B78     		ldrb	r3, [r3, #0]	@ zero_extendqisi2
 174 002e 13EA0C03 		ands	r3, r3, ip
 175 0032 01D0     		beq	.L18
 176 0034 0920     		movs	r0, #9
 177              	.LVL14:
 178 0036 10BD     		pop	{r4, pc}
 179              	.LVL15:
 180              	.L18:
 269:.\Generated_Source\PSoC5/CySpc.c ****         {
 270:.\Generated_Source\PSoC5/CySpc.c ****             CY_SPC_CPU_DATA_REG = array;
 181              		.loc 1 270 0
 182 0038 2070     		strb	r0, [r4, #0]
ARM GAS  C:\Users\SUZUKI~1\AppData\Local\Temp\ccwVFYOj.s 			page 9


 271:.\Generated_Source\PSoC5/CySpc.c **** 
 272:.\Generated_Source\PSoC5/CySpc.c ****             for(i = 0u; i < size; i++)
 183              		.loc 1 272 0
 184 003a 05E0     		b	.L19
 185              	.LVL16:
 186              	.L20:
 273:.\Generated_Source\PSoC5/CySpc.c ****             {
 274:.\Generated_Source\PSoC5/CySpc.c ****                 CY_SPC_CPU_DATA_REG = buffer[i];
 187              		.loc 1 274 0
 188 003c 11F803C0 		ldrb	ip, [r1, r3]	@ zero_extendqisi2
 189 0040 0548     		ldr	r0, .L22+4
 190 0042 0133     		adds	r3, r3, #1
 191 0044 80F800C0 		strb	ip, [r0, #0]
 192              	.LVL17:
 193              	.L19:
 194              		.loc 1 272 0
 195 0048 98B2     		uxth	r0, r3
 196              	.LVL18:
 197 004a 9042     		cmp	r0, r2
 198 004c F6D3     		bcc	.L20
 199 004e 0720     		movs	r0, #7
 200              	.LVL19:
 201              	.LVL20:
 275:.\Generated_Source\PSoC5/CySpc.c ****             }
 276:.\Generated_Source\PSoC5/CySpc.c ****         }
 277:.\Generated_Source\PSoC5/CySpc.c ****         else
 278:.\Generated_Source\PSoC5/CySpc.c ****         {
 279:.\Generated_Source\PSoC5/CySpc.c ****             status = CYRET_CANCELED;
 280:.\Generated_Source\PSoC5/CySpc.c ****         }
 281:.\Generated_Source\PSoC5/CySpc.c ****     }
 282:.\Generated_Source\PSoC5/CySpc.c ****     else
 283:.\Generated_Source\PSoC5/CySpc.c ****     {
 284:.\Generated_Source\PSoC5/CySpc.c ****         status = CYRET_LOCKED;
 285:.\Generated_Source\PSoC5/CySpc.c ****     }
 286:.\Generated_Source\PSoC5/CySpc.c **** 
 287:.\Generated_Source\PSoC5/CySpc.c ****     return(status);
 288:.\Generated_Source\PSoC5/CySpc.c **** }
 202              		.loc 1 288 0
 203 0050 10BD     		pop	{r4, pc}
 204              	.L23:
 205 0052 00BF     		.align	2
 206              	.L22:
 207 0054 22470040 		.word	1073760034
 208 0058 20470040 		.word	1073760032
 209              		.cfi_endproc
 210              	.LFE4:
 211              		.size	CySpcLoadRow, .-CySpcLoadRow
 212              		.section	.text.CySpcReadMultiByte,"ax",%progbits
 213              		.align	1
 214              		.global	CySpcReadMultiByte
 215              		.thumb
 216              		.thumb_func
 217              		.type	CySpcReadMultiByte, %function
 218              	CySpcReadMultiByte:
 219              	.LFB5:
 289:.\Generated_Source\PSoC5/CySpc.c **** 
 290:.\Generated_Source\PSoC5/CySpc.c **** 
ARM GAS  C:\Users\SUZUKI~1\AppData\Local\Temp\ccwVFYOj.s 			page 10


 291:.\Generated_Source\PSoC5/CySpc.c **** /*******************************************************************************
 292:.\Generated_Source\PSoC5/CySpc.c **** * Function Name: CySpcReadMultiByte
 293:.\Generated_Source\PSoC5/CySpc.c **** ********************************************************************************
 294:.\Generated_Source\PSoC5/CySpc.c **** * Summary:
 295:.\Generated_Source\PSoC5/CySpc.c **** *  Returns 1 to 256 bytes from user space of Flash/EEPROM. Doesn't span row
 296:.\Generated_Source\PSoC5/CySpc.c **** *  boundaries.
 297:.\Generated_Source\PSoC5/CySpc.c **** *
 298:.\Generated_Source\PSoC5/CySpc.c **** * Parameters:
 299:.\Generated_Source\PSoC5/CySpc.c **** *  uint8 array:
 300:.\Generated_Source\PSoC5/CySpc.c **** *   Id of the array.
 301:.\Generated_Source\PSoC5/CySpc.c **** *
 302:.\Generated_Source\PSoC5/CySpc.c **** *  uint8 ecc:
 303:.\Generated_Source\PSoC5/CySpc.c **** *   0x80 if reading ecc data.
 304:.\Generated_Source\PSoC5/CySpc.c **** *   0x00 if user data.
 305:.\Generated_Source\PSoC5/CySpc.c **** *
 306:.\Generated_Source\PSoC5/CySpc.c **** *  uint16 address:
 307:.\Generated_Source\PSoC5/CySpc.c **** *   Flash addrress.
 308:.\Generated_Source\PSoC5/CySpc.c **** *
 309:.\Generated_Source\PSoC5/CySpc.c **** *  uint8 size:
 310:.\Generated_Source\PSoC5/CySpc.c **** *   Number bytes to load.
 311:.\Generated_Source\PSoC5/CySpc.c **** *
 312:.\Generated_Source\PSoC5/CySpc.c **** * Return:
 313:.\Generated_Source\PSoC5/CySpc.c **** *  CYRET_STARTED
 314:.\Generated_Source\PSoC5/CySpc.c **** *  CYRET_CANCELED
 315:.\Generated_Source\PSoC5/CySpc.c **** *  CYRET_LOCKED
 316:.\Generated_Source\PSoC5/CySpc.c **** *
 317:.\Generated_Source\PSoC5/CySpc.c **** *******************************************************************************/
 318:.\Generated_Source\PSoC5/CySpc.c **** cystatus CySpcReadMultiByte(uint8 array, uint8 ecc, uint16 address, uint8 size)
 319:.\Generated_Source\PSoC5/CySpc.c **** {
 220              		.loc 1 319 0
 221              		.cfi_startproc
 222              		@ args = 0, pretend = 0, frame = 0
 223              		@ frame_needed = 0, uses_anonymous_args = 0
 224              	.LVL21:
 225 0000 30B5     		push	{r4, r5, lr}
 226              	.LCFI2:
 227              		.cfi_def_cfa_offset 12
 320:.\Generated_Source\PSoC5/CySpc.c ****     cystatus status = CYRET_STARTED;
 321:.\Generated_Source\PSoC5/CySpc.c **** 
 322:.\Generated_Source\PSoC5/CySpc.c ****     /* Make sure the SPC is ready to accept command */
 323:.\Generated_Source\PSoC5/CySpc.c ****     if(CY_SPC_IDLE)
 228              		.loc 1 323 0
 229 0002 134D     		ldr	r5, .L29
 230              		.cfi_offset 14, -4
 231              		.cfi_offset 5, -8
 232              		.cfi_offset 4, -12
 233 0004 95F800C0 		ldrb	ip, [r5, #0]	@ zero_extendqisi2
 234 0008 1CF0020F 		tst	ip, #2
 235 000c 01D1     		bne	.L25
 236 000e 0420     		movs	r0, #4
 237              	.LVL22:
 238 0010 30BD     		pop	{r4, r5, pc}
 239              	.LVL23:
 240              	.L25:
 324:.\Generated_Source\PSoC5/CySpc.c ****     {
 325:.\Generated_Source\PSoC5/CySpc.c ****         CY_SPC_CPU_DATA_REG = CY_SPC_KEY_ONE;
 241              		.loc 1 325 0
ARM GAS  C:\Users\SUZUKI~1\AppData\Local\Temp\ccwVFYOj.s 			page 11


 242 0012 104C     		ldr	r4, .L29+4
 243 0014 6FF0490C 		mvn	ip, #73
 244 0018 84F800C0 		strb	ip, [r4, #0]
 326:.\Generated_Source\PSoC5/CySpc.c ****         CY_SPC_CPU_DATA_REG = CY_SPC_KEY_TWO(CY_SPC_CMD_RD_MULTI_BYTE);
 245              		.loc 1 326 0
 246 001c 0CF1210C 		add	ip, ip, #33
 247 0020 84F800C0 		strb	ip, [r4, #0]
 327:.\Generated_Source\PSoC5/CySpc.c ****         CY_SPC_CPU_DATA_REG = CY_SPC_CMD_RD_MULTI_BYTE;
 248              		.loc 1 327 0
 249 0024 0CF12D0C 		add	ip, ip, #45
 250 0028 84F800C0 		strb	ip, [r4, #0]
 328:.\Generated_Source\PSoC5/CySpc.c **** 
 329:.\Generated_Source\PSoC5/CySpc.c ****         /* Make sure the command was accepted */
 330:.\Generated_Source\PSoC5/CySpc.c ****         if(CY_SPC_BUSY)
 251              		.loc 1 330 0
 252 002c 95F800C0 		ldrb	ip, [r5, #0]	@ zero_extendqisi2
 253 0030 1CF0020F 		tst	ip, #2
 254 0034 01D0     		beq	.L27
 255 0036 0920     		movs	r0, #9
 256              	.LVL24:
 257 0038 30BD     		pop	{r4, r5, pc}
 258              	.LVL25:
 259              	.L27:
 331:.\Generated_Source\PSoC5/CySpc.c ****         {
 332:.\Generated_Source\PSoC5/CySpc.c ****             CY_SPC_CPU_DATA_REG = array;
 333:.\Generated_Source\PSoC5/CySpc.c ****             CY_SPC_CPU_DATA_REG = ecc;
 334:.\Generated_Source\PSoC5/CySpc.c ****             CY_SPC_CPU_DATA_REG = HI8(address);
 335:.\Generated_Source\PSoC5/CySpc.c ****             CY_SPC_CPU_DATA_REG = LO8(address);
 336:.\Generated_Source\PSoC5/CySpc.c ****             CY_SPC_CPU_DATA_REG = size - 1;
 260              		.loc 1 336 0
 261 003a 013B     		subs	r3, r3, #1
 262              	.LVL26:
 263              		.loc 1 332 0
 264 003c 2070     		strb	r0, [r4, #0]
 265              		.loc 1 336 0
 266 003e DBB2     		uxtb	r3, r3
 267              		.loc 1 333 0
 268 0040 2170     		strb	r1, [r4, #0]
 269              		.loc 1 334 0
 270 0042 110A     		lsrs	r1, r2, #8
 271              	.LVL27:
 272              		.loc 1 335 0
 273 0044 D2B2     		uxtb	r2, r2
 274              	.LVL28:
 275              		.loc 1 334 0
 276 0046 2170     		strb	r1, [r4, #0]
 277              		.loc 1 336 0
 278 0048 0720     		movs	r0, #7
 279              	.LVL29:
 280              		.loc 1 335 0
 281 004a 2270     		strb	r2, [r4, #0]
 282              		.loc 1 336 0
 283 004c 2370     		strb	r3, [r4, #0]
 284              	.LVL30:
 337:.\Generated_Source\PSoC5/CySpc.c ****         }
 338:.\Generated_Source\PSoC5/CySpc.c ****         else
 339:.\Generated_Source\PSoC5/CySpc.c ****         {
ARM GAS  C:\Users\SUZUKI~1\AppData\Local\Temp\ccwVFYOj.s 			page 12


 340:.\Generated_Source\PSoC5/CySpc.c ****             status = CYRET_CANCELED;
 341:.\Generated_Source\PSoC5/CySpc.c ****         }
 342:.\Generated_Source\PSoC5/CySpc.c ****     }
 343:.\Generated_Source\PSoC5/CySpc.c ****     else
 344:.\Generated_Source\PSoC5/CySpc.c ****     {
 345:.\Generated_Source\PSoC5/CySpc.c ****         status = CYRET_LOCKED;
 346:.\Generated_Source\PSoC5/CySpc.c ****     }
 347:.\Generated_Source\PSoC5/CySpc.c **** 
 348:.\Generated_Source\PSoC5/CySpc.c ****     return(status);
 349:.\Generated_Source\PSoC5/CySpc.c **** }
 285              		.loc 1 349 0
 286 004e 30BD     		pop	{r4, r5, pc}
 287              	.L30:
 288              		.align	2
 289              	.L29:
 290 0050 22470040 		.word	1073760034
 291 0054 20470040 		.word	1073760032
 292              		.cfi_endproc
 293              	.LFE5:
 294              		.size	CySpcReadMultiByte, .-CySpcReadMultiByte
 295              		.section	.text.CySpcWriteRow,"ax",%progbits
 296              		.align	1
 297              		.global	CySpcWriteRow
 298              		.thumb
 299              		.thumb_func
 300              		.type	CySpcWriteRow, %function
 301              	CySpcWriteRow:
 302              	.LFB6:
 350:.\Generated_Source\PSoC5/CySpc.c **** 
 351:.\Generated_Source\PSoC5/CySpc.c **** 
 352:.\Generated_Source\PSoC5/CySpc.c **** /*******************************************************************************
 353:.\Generated_Source\PSoC5/CySpc.c **** * Function Name: CySpcWriteRow
 354:.\Generated_Source\PSoC5/CySpc.c **** ********************************************************************************
 355:.\Generated_Source\PSoC5/CySpc.c **** * Summary:
 356:.\Generated_Source\PSoC5/CySpc.c **** *  Erases then programs a row in Flash/EEPROM with data in row latch.
 357:.\Generated_Source\PSoC5/CySpc.c **** *
 358:.\Generated_Source\PSoC5/CySpc.c **** * Parameters:
 359:.\Generated_Source\PSoC5/CySpc.c **** *  uint8 array:
 360:.\Generated_Source\PSoC5/CySpc.c **** *   Id of the array.
 361:.\Generated_Source\PSoC5/CySpc.c **** *
 362:.\Generated_Source\PSoC5/CySpc.c **** *  uint16 address:
 363:.\Generated_Source\PSoC5/CySpc.c **** *   flash/eeprom addrress
 364:.\Generated_Source\PSoC5/CySpc.c **** *
 365:.\Generated_Source\PSoC5/CySpc.c **** *  uint8 tempPolarity:
 366:.\Generated_Source\PSoC5/CySpc.c **** *   temperature polarity.
 367:.\Generated_Source\PSoC5/CySpc.c **** *   1: the Temp Magnitude is interpreted as a positive value
 368:.\Generated_Source\PSoC5/CySpc.c **** *   0: the Temp Magnitude is interpreted as a negative value
 369:.\Generated_Source\PSoC5/CySpc.c **** *
 370:.\Generated_Source\PSoC5/CySpc.c **** *  uint8 tempMagnitude:
 371:.\Generated_Source\PSoC5/CySpc.c **** *   temperature magnitude.
 372:.\Generated_Source\PSoC5/CySpc.c **** *
 373:.\Generated_Source\PSoC5/CySpc.c **** * Return:
 374:.\Generated_Source\PSoC5/CySpc.c **** *  CYRET_STARTED
 375:.\Generated_Source\PSoC5/CySpc.c **** *  CYRET_CANCELED
 376:.\Generated_Source\PSoC5/CySpc.c **** *  CYRET_LOCKED
 377:.\Generated_Source\PSoC5/CySpc.c **** *
 378:.\Generated_Source\PSoC5/CySpc.c **** *******************************************************************************/
ARM GAS  C:\Users\SUZUKI~1\AppData\Local\Temp\ccwVFYOj.s 			page 13


 379:.\Generated_Source\PSoC5/CySpc.c **** cystatus CySpcWriteRow(uint8 array, uint16 address, uint8 tempPolarity, uint8 tempMagnitude)
 380:.\Generated_Source\PSoC5/CySpc.c **** {
 303              		.loc 1 380 0
 304              		.cfi_startproc
 305              		@ args = 0, pretend = 0, frame = 0
 306              		@ frame_needed = 0, uses_anonymous_args = 0
 307              	.LVL31:
 308 0000 30B5     		push	{r4, r5, lr}
 309              	.LCFI3:
 310              		.cfi_def_cfa_offset 12
 381:.\Generated_Source\PSoC5/CySpc.c ****     cystatus status = CYRET_STARTED;
 382:.\Generated_Source\PSoC5/CySpc.c **** 
 383:.\Generated_Source\PSoC5/CySpc.c ****     /* Make sure the SPC is ready to accept command */
 384:.\Generated_Source\PSoC5/CySpc.c ****     if(CY_SPC_IDLE)
 311              		.loc 1 384 0
 312 0002 124D     		ldr	r5, .L36
 313              		.cfi_offset 14, -4
 314              		.cfi_offset 5, -8
 315              		.cfi_offset 4, -12
 316 0004 95F800C0 		ldrb	ip, [r5, #0]	@ zero_extendqisi2
 317 0008 1CF0020F 		tst	ip, #2
 318 000c 01D1     		bne	.L32
 319 000e 0420     		movs	r0, #4
 320              	.LVL32:
 321 0010 30BD     		pop	{r4, r5, pc}
 322              	.LVL33:
 323              	.L32:
 385:.\Generated_Source\PSoC5/CySpc.c ****     {
 386:.\Generated_Source\PSoC5/CySpc.c ****         CY_SPC_CPU_DATA_REG = CY_SPC_KEY_ONE;
 324              		.loc 1 386 0
 325 0012 0F4C     		ldr	r4, .L36+4
 326 0014 6FF0490C 		mvn	ip, #73
 327 0018 84F800C0 		strb	ip, [r4, #0]
 387:.\Generated_Source\PSoC5/CySpc.c ****         CY_SPC_CPU_DATA_REG = CY_SPC_KEY_TWO(CY_SPC_CMD_WR_ROW);
 328              		.loc 1 387 0
 329 001c 0CF1220C 		add	ip, ip, #34
 330 0020 84F800C0 		strb	ip, [r4, #0]
 388:.\Generated_Source\PSoC5/CySpc.c ****         CY_SPC_CPU_DATA_REG = CY_SPC_CMD_WR_ROW;
 331              		.loc 1 388 0
 332 0024 0CF12D0C 		add	ip, ip, #45
 333 0028 84F800C0 		strb	ip, [r4, #0]
 389:.\Generated_Source\PSoC5/CySpc.c **** 
 390:.\Generated_Source\PSoC5/CySpc.c ****         /* Make sure the command was accepted */
 391:.\Generated_Source\PSoC5/CySpc.c ****         if(CY_SPC_BUSY)
 334              		.loc 1 391 0
 335 002c 95F800C0 		ldrb	ip, [r5, #0]	@ zero_extendqisi2
 336 0030 1CF0020F 		tst	ip, #2
 337 0034 01D0     		beq	.L34
 338 0036 0920     		movs	r0, #9
 339              	.LVL34:
 340 0038 30BD     		pop	{r4, r5, pc}
 341              	.LVL35:
 342              	.L34:
 392:.\Generated_Source\PSoC5/CySpc.c ****         {
 393:.\Generated_Source\PSoC5/CySpc.c ****             CY_SPC_CPU_DATA_REG = array;
 343              		.loc 1 393 0
 344 003a 2070     		strb	r0, [r4, #0]
ARM GAS  C:\Users\SUZUKI~1\AppData\Local\Temp\ccwVFYOj.s 			page 14


 394:.\Generated_Source\PSoC5/CySpc.c ****             CY_SPC_CPU_DATA_REG = HI8(address);
 345              		.loc 1 394 0
 346 003c 080A     		lsrs	r0, r1, #8
 347              	.LVL36:
 395:.\Generated_Source\PSoC5/CySpc.c ****             CY_SPC_CPU_DATA_REG = LO8(address);
 348              		.loc 1 395 0
 349 003e C9B2     		uxtb	r1, r1
 350              	.LVL37:
 351              		.loc 1 394 0
 352 0040 2070     		strb	r0, [r4, #0]
 353              		.loc 1 395 0
 354 0042 2170     		strb	r1, [r4, #0]
 396:.\Generated_Source\PSoC5/CySpc.c ****             CY_SPC_CPU_DATA_REG = tempPolarity;
 397:.\Generated_Source\PSoC5/CySpc.c ****             CY_SPC_CPU_DATA_REG = tempMagnitude;
 355              		.loc 1 397 0
 356 0044 0720     		movs	r0, #7
 357              	.LVL38:
 358              		.loc 1 396 0
 359 0046 2270     		strb	r2, [r4, #0]
 360              		.loc 1 397 0
 361 0048 2370     		strb	r3, [r4, #0]
 362              	.LVL39:
 398:.\Generated_Source\PSoC5/CySpc.c ****         }
 399:.\Generated_Source\PSoC5/CySpc.c ****         else
 400:.\Generated_Source\PSoC5/CySpc.c ****         {
 401:.\Generated_Source\PSoC5/CySpc.c ****             status = CYRET_CANCELED;
 402:.\Generated_Source\PSoC5/CySpc.c ****         }
 403:.\Generated_Source\PSoC5/CySpc.c ****     }
 404:.\Generated_Source\PSoC5/CySpc.c ****     else
 405:.\Generated_Source\PSoC5/CySpc.c ****     {
 406:.\Generated_Source\PSoC5/CySpc.c ****         status = CYRET_LOCKED;
 407:.\Generated_Source\PSoC5/CySpc.c ****     }
 408:.\Generated_Source\PSoC5/CySpc.c **** 
 409:.\Generated_Source\PSoC5/CySpc.c ****     return(status);
 410:.\Generated_Source\PSoC5/CySpc.c **** }
 363              		.loc 1 410 0
 364 004a 30BD     		pop	{r4, r5, pc}
 365              	.L37:
 366              		.align	2
 367              	.L36:
 368 004c 22470040 		.word	1073760034
 369 0050 20470040 		.word	1073760032
 370              		.cfi_endproc
 371              	.LFE6:
 372              		.size	CySpcWriteRow, .-CySpcWriteRow
 373              		.section	.text.CySpcProgramRow,"ax",%progbits
 374              		.align	1
 375              		.global	CySpcProgramRow
 376              		.thumb
 377              		.thumb_func
 378              		.type	CySpcProgramRow, %function
 379              	CySpcProgramRow:
 380              	.LFB7:
 411:.\Generated_Source\PSoC5/CySpc.c **** 
 412:.\Generated_Source\PSoC5/CySpc.c **** 
 413:.\Generated_Source\PSoC5/CySpc.c **** /*******************************************************************************
 414:.\Generated_Source\PSoC5/CySpc.c **** * Function Name: CySpcProgramRow
ARM GAS  C:\Users\SUZUKI~1\AppData\Local\Temp\ccwVFYOj.s 			page 15


 415:.\Generated_Source\PSoC5/CySpc.c **** ********************************************************************************
 416:.\Generated_Source\PSoC5/CySpc.c **** * Summary:
 417:.\Generated_Source\PSoC5/CySpc.c **** *  Programs a row in Flash/EEPROM with the data in the row latch.
 418:.\Generated_Source\PSoC5/CySpc.c **** *
 419:.\Generated_Source\PSoC5/CySpc.c **** * Parameters:
 420:.\Generated_Source\PSoC5/CySpc.c **** *  uint8 array:
 421:.\Generated_Source\PSoC5/CySpc.c **** *   Id of the array.
 422:.\Generated_Source\PSoC5/CySpc.c **** *
 423:.\Generated_Source\PSoC5/CySpc.c **** *  uint16 address:
 424:.\Generated_Source\PSoC5/CySpc.c **** *   Flash/eeprom addrress
 425:.\Generated_Source\PSoC5/CySpc.c **** *
 426:.\Generated_Source\PSoC5/CySpc.c **** * Return:
 427:.\Generated_Source\PSoC5/CySpc.c **** *  CYRET_STARTED
 428:.\Generated_Source\PSoC5/CySpc.c **** *  CYRET_CANCELED
 429:.\Generated_Source\PSoC5/CySpc.c **** *  CYRET_LOCKED
 430:.\Generated_Source\PSoC5/CySpc.c **** *
 431:.\Generated_Source\PSoC5/CySpc.c **** *******************************************************************************/
 432:.\Generated_Source\PSoC5/CySpc.c **** cystatus CySpcProgramRow(uint8 array, uint16 address, uint8 tempPolarity, uint8 tempMagnitude)
 433:.\Generated_Source\PSoC5/CySpc.c **** {
 381              		.loc 1 433 0
 382              		.cfi_startproc
 383              		@ args = 0, pretend = 0, frame = 0
 384              		@ frame_needed = 0, uses_anonymous_args = 0
 385              	.LVL40:
 386 0000 30B5     		push	{r4, r5, lr}
 387              	.LCFI4:
 388              		.cfi_def_cfa_offset 12
 434:.\Generated_Source\PSoC5/CySpc.c ****     cystatus status = CYRET_STARTED;
 435:.\Generated_Source\PSoC5/CySpc.c **** 
 436:.\Generated_Source\PSoC5/CySpc.c ****     /* Make sure the SPC is ready to accept command */
 437:.\Generated_Source\PSoC5/CySpc.c ****     if(CY_SPC_IDLE)
 389              		.loc 1 437 0
 390 0002 124D     		ldr	r5, .L43
 391              		.cfi_offset 14, -4
 392              		.cfi_offset 5, -8
 393              		.cfi_offset 4, -12
 394 0004 95F800C0 		ldrb	ip, [r5, #0]	@ zero_extendqisi2
 395 0008 1CF0020F 		tst	ip, #2
 396 000c 01D1     		bne	.L39
 397 000e 0420     		movs	r0, #4
 398              	.LVL41:
 399 0010 30BD     		pop	{r4, r5, pc}
 400              	.LVL42:
 401              	.L39:
 438:.\Generated_Source\PSoC5/CySpc.c ****     {
 439:.\Generated_Source\PSoC5/CySpc.c ****         CY_SPC_CPU_DATA_REG = CY_SPC_KEY_ONE;
 402              		.loc 1 439 0
 403 0012 0F4C     		ldr	r4, .L43+4
 404 0014 6FF0490C 		mvn	ip, #73
 405 0018 84F800C0 		strb	ip, [r4, #0]
 440:.\Generated_Source\PSoC5/CySpc.c ****         CY_SPC_CPU_DATA_REG = CY_SPC_KEY_TWO(CY_SPC_CMD_PRG_ROW);
 406              		.loc 1 440 0
 407 001c 0CF1240C 		add	ip, ip, #36
 408 0020 84F800C0 		strb	ip, [r4, #0]
 441:.\Generated_Source\PSoC5/CySpc.c ****         CY_SPC_CPU_DATA_REG = CY_SPC_CMD_PRG_ROW;
 409              		.loc 1 441 0
 410 0024 0CF12D0C 		add	ip, ip, #45
ARM GAS  C:\Users\SUZUKI~1\AppData\Local\Temp\ccwVFYOj.s 			page 16


 411 0028 84F800C0 		strb	ip, [r4, #0]
 442:.\Generated_Source\PSoC5/CySpc.c **** 
 443:.\Generated_Source\PSoC5/CySpc.c ****         /* Make sure the command was accepted */
 444:.\Generated_Source\PSoC5/CySpc.c ****         if(CY_SPC_BUSY)
 412              		.loc 1 444 0
 413 002c 2D78     		ldrb	r5, [r5, #0]	@ zero_extendqisi2
 414 002e 15F0020F 		tst	r5, #2
 415 0032 01D0     		beq	.L41
 416 0034 0920     		movs	r0, #9
 417              	.LVL43:
 418 0036 30BD     		pop	{r4, r5, pc}
 419              	.LVL44:
 420              	.L41:
 445:.\Generated_Source\PSoC5/CySpc.c ****         {
 446:.\Generated_Source\PSoC5/CySpc.c ****             CY_SPC_CPU_DATA_REG = array;
 421              		.loc 1 446 0
 422 0038 2070     		strb	r0, [r4, #0]
 447:.\Generated_Source\PSoC5/CySpc.c ****             CY_SPC_CPU_DATA_REG = HI8(address);
 423              		.loc 1 447 0
 424 003a 080A     		lsrs	r0, r1, #8
 425              	.LVL45:
 448:.\Generated_Source\PSoC5/CySpc.c ****             CY_SPC_CPU_DATA_REG = LO8(address);
 426              		.loc 1 448 0
 427 003c C9B2     		uxtb	r1, r1
 428              	.LVL46:
 429              		.loc 1 447 0
 430 003e 2070     		strb	r0, [r4, #0]
 431              		.loc 1 448 0
 432 0040 2170     		strb	r1, [r4, #0]
 449:.\Generated_Source\PSoC5/CySpc.c ****             CY_SPC_CPU_DATA_REG = tempPolarity;
 450:.\Generated_Source\PSoC5/CySpc.c ****             CY_SPC_CPU_DATA_REG = tempMagnitude;
 433              		.loc 1 450 0
 434 0042 6046     		mov	r0, ip
 435              	.LVL47:
 436              		.loc 1 449 0
 437 0044 2270     		strb	r2, [r4, #0]
 438              		.loc 1 450 0
 439 0046 2370     		strb	r3, [r4, #0]
 440              	.LVL48:
 451:.\Generated_Source\PSoC5/CySpc.c ****         }
 452:.\Generated_Source\PSoC5/CySpc.c ****         else
 453:.\Generated_Source\PSoC5/CySpc.c ****         {
 454:.\Generated_Source\PSoC5/CySpc.c ****             status = CYRET_CANCELED;
 455:.\Generated_Source\PSoC5/CySpc.c ****         }
 456:.\Generated_Source\PSoC5/CySpc.c ****     }
 457:.\Generated_Source\PSoC5/CySpc.c ****     else
 458:.\Generated_Source\PSoC5/CySpc.c ****     {
 459:.\Generated_Source\PSoC5/CySpc.c ****         status = CYRET_LOCKED;
 460:.\Generated_Source\PSoC5/CySpc.c ****     }
 461:.\Generated_Source\PSoC5/CySpc.c **** 
 462:.\Generated_Source\PSoC5/CySpc.c ****     return(status);
 463:.\Generated_Source\PSoC5/CySpc.c **** }
 441              		.loc 1 463 0
 442 0048 30BD     		pop	{r4, r5, pc}
 443              	.L44:
 444 004a 00BF     		.align	2
 445              	.L43:
ARM GAS  C:\Users\SUZUKI~1\AppData\Local\Temp\ccwVFYOj.s 			page 17


 446 004c 22470040 		.word	1073760034
 447 0050 20470040 		.word	1073760032
 448              		.cfi_endproc
 449              	.LFE7:
 450              		.size	CySpcProgramRow, .-CySpcProgramRow
 451              		.section	.text.CySpcEraseSector,"ax",%progbits
 452              		.align	1
 453              		.global	CySpcEraseSector
 454              		.thumb
 455              		.thumb_func
 456              		.type	CySpcEraseSector, %function
 457              	CySpcEraseSector:
 458              	.LFB8:
 464:.\Generated_Source\PSoC5/CySpc.c **** 
 465:.\Generated_Source\PSoC5/CySpc.c **** 
 466:.\Generated_Source\PSoC5/CySpc.c **** /*******************************************************************************
 467:.\Generated_Source\PSoC5/CySpc.c **** * Function Name: CySpcEraseSector
 468:.\Generated_Source\PSoC5/CySpc.c **** ********************************************************************************
 469:.\Generated_Source\PSoC5/CySpc.c **** * Summary:
 470:.\Generated_Source\PSoC5/CySpc.c **** *  Erases all data in the addressed sector (block of 64 rows).
 471:.\Generated_Source\PSoC5/CySpc.c **** *
 472:.\Generated_Source\PSoC5/CySpc.c **** * Parameters:
 473:.\Generated_Source\PSoC5/CySpc.c **** *  uint8 array:
 474:.\Generated_Source\PSoC5/CySpc.c **** *   Id of the array.
 475:.\Generated_Source\PSoC5/CySpc.c **** *
 476:.\Generated_Source\PSoC5/CySpc.c **** *  uint16 address:
 477:.\Generated_Source\PSoC5/CySpc.c **** *   Flash/eeprom addrress
 478:.\Generated_Source\PSoC5/CySpc.c **** *
 479:.\Generated_Source\PSoC5/CySpc.c **** * Return:
 480:.\Generated_Source\PSoC5/CySpc.c **** *  CYRET_STARTED
 481:.\Generated_Source\PSoC5/CySpc.c **** *  CYRET_CANCELED
 482:.\Generated_Source\PSoC5/CySpc.c **** *  CYRET_LOCKED
 483:.\Generated_Source\PSoC5/CySpc.c **** *
 484:.\Generated_Source\PSoC5/CySpc.c **** *******************************************************************************/
 485:.\Generated_Source\PSoC5/CySpc.c **** cystatus CySpcEraseSector(uint8 array, uint16 address)
 486:.\Generated_Source\PSoC5/CySpc.c **** {
 459              		.loc 1 486 0
 460              		.cfi_startproc
 461              		@ args = 0, pretend = 0, frame = 0
 462              		@ frame_needed = 0, uses_anonymous_args = 0
 463              		@ link register save eliminated.
 464              	.LVL49:
 487:.\Generated_Source\PSoC5/CySpc.c ****     cystatus status = CYRET_STARTED;
 488:.\Generated_Source\PSoC5/CySpc.c **** 
 489:.\Generated_Source\PSoC5/CySpc.c ****     /* Make sure the SPC is ready to accept command */
 490:.\Generated_Source\PSoC5/CySpc.c ****     if(CY_SPC_IDLE)
 465              		.loc 1 490 0
 466 0000 124A     		ldr	r2, .L51
 467 0002 1378     		ldrb	r3, [r2, #0]	@ zero_extendqisi2
 468 0004 13F0020F 		tst	r3, #2
 469 0008 01D1     		bne	.L46
 470 000a 0420     		movs	r0, #4
 471              	.LVL50:
 472 000c 7047     		bx	lr
 473              	.LVL51:
 474              	.L46:
 491:.\Generated_Source\PSoC5/CySpc.c ****     {
ARM GAS  C:\Users\SUZUKI~1\AppData\Local\Temp\ccwVFYOj.s 			page 18


 492:.\Generated_Source\PSoC5/CySpc.c ****         CY_SPC_CPU_DATA_REG = CY_SPC_KEY_ONE;
 475              		.loc 1 492 0
 476 000e 104B     		ldr	r3, .L51+4
 477 0010 6FF0490C 		mvn	ip, #73
 478 0014 83F800C0 		strb	ip, [r3, #0]
 493:.\Generated_Source\PSoC5/CySpc.c ****         CY_SPC_CPU_DATA_REG = CY_SPC_KEY_TWO(CY_SPC_CMD_ER_SECTOR);
 479              		.loc 1 493 0
 480 0018 0CF1250C 		add	ip, ip, #37
 481 001c 83F800C0 		strb	ip, [r3, #0]
 494:.\Generated_Source\PSoC5/CySpc.c ****         CY_SPC_CPU_DATA_REG = CY_SPC_CMD_ER_SECTOR;
 482              		.loc 1 494 0
 483 0020 0CF12D0C 		add	ip, ip, #45
 484 0024 83F800C0 		strb	ip, [r3, #0]
 495:.\Generated_Source\PSoC5/CySpc.c **** 
 496:.\Generated_Source\PSoC5/CySpc.c ****         /* Make sure the command was accepted */
 497:.\Generated_Source\PSoC5/CySpc.c ****         if(CY_SPC_BUSY)
 485              		.loc 1 497 0
 486 0028 1278     		ldrb	r2, [r2, #0]	@ zero_extendqisi2
 487 002a 12F0020F 		tst	r2, #2
 488 002e 01D0     		beq	.L48
 489 0030 0920     		movs	r0, #9
 490              	.LVL52:
 491 0032 7047     		bx	lr
 492              	.LVL53:
 493              	.L48:
 498:.\Generated_Source\PSoC5/CySpc.c ****         {
 499:.\Generated_Source\PSoC5/CySpc.c ****             CY_SPC_CPU_DATA_REG = array;
 500:.\Generated_Source\PSoC5/CySpc.c **** 
 501:.\Generated_Source\PSoC5/CySpc.c ****             if(array < CY_SPC_LAST_FLASH_ARRAYID)
 494              		.loc 1 501 0
 495 0034 3E28     		cmp	r0, #62
 496              		.loc 1 499 0
 497 0036 1870     		strb	r0, [r3, #0]
 498 0038 C9B2     		uxtb	r1, r1
 499              	.LVL54:
 500              		.loc 1 501 0
 501 003a 02D8     		bhi	.L49
 502:.\Generated_Source\PSoC5/CySpc.c ****             {
 503:.\Generated_Source\PSoC5/CySpc.c ****                 CY_SPC_CPU_DATA_REG = CY_SPC_FLASH_SECTOR_ADDRES(address);
 502              		.loc 1 503 0
 503 003c 1970     		strb	r1, [r3, #0]
 504 003e 0720     		movs	r0, #7
 505              	.LVL55:
 506 0040 7047     		bx	lr
 507              	.LVL56:
 508              	.L49:
 504:.\Generated_Source\PSoC5/CySpc.c ****             }
 505:.\Generated_Source\PSoC5/CySpc.c ****             else
 506:.\Generated_Source\PSoC5/CySpc.c ****             {
 507:.\Generated_Source\PSoC5/CySpc.c ****                 CY_SPC_CPU_DATA_REG = CY_SPC_EEPROM_SECTOR_ADDRESS(address);
 509              		.loc 1 507 0
 510 0042 01F07F01 		and	r1, r1, #127
 511              	.LVL57:
 512 0046 1970     		strb	r1, [r3, #0]
 513 0048 0720     		movs	r0, #7
 514              	.LVL58:
 515              	.LVL59:
ARM GAS  C:\Users\SUZUKI~1\AppData\Local\Temp\ccwVFYOj.s 			page 19


 508:.\Generated_Source\PSoC5/CySpc.c ****             }
 509:.\Generated_Source\PSoC5/CySpc.c ****         }
 510:.\Generated_Source\PSoC5/CySpc.c ****         else
 511:.\Generated_Source\PSoC5/CySpc.c ****         {
 512:.\Generated_Source\PSoC5/CySpc.c ****             status = CYRET_CANCELED;
 513:.\Generated_Source\PSoC5/CySpc.c ****         }
 514:.\Generated_Source\PSoC5/CySpc.c ****     }
 515:.\Generated_Source\PSoC5/CySpc.c ****     else
 516:.\Generated_Source\PSoC5/CySpc.c ****     {
 517:.\Generated_Source\PSoC5/CySpc.c ****         status = CYRET_LOCKED;
 518:.\Generated_Source\PSoC5/CySpc.c ****     }
 519:.\Generated_Source\PSoC5/CySpc.c **** 
 520:.\Generated_Source\PSoC5/CySpc.c ****     return(status);
 521:.\Generated_Source\PSoC5/CySpc.c **** }
 516              		.loc 1 521 0
 517 004a 7047     		bx	lr
 518              	.L52:
 519              		.align	2
 520              	.L51:
 521 004c 22470040 		.word	1073760034
 522 0050 20470040 		.word	1073760032
 523              		.cfi_endproc
 524              	.LFE8:
 525              		.size	CySpcEraseSector, .-CySpcEraseSector
 526              		.section	.text.CySpcGetTemp,"ax",%progbits
 527              		.align	1
 528              		.global	CySpcGetTemp
 529              		.thumb
 530              		.thumb_func
 531              		.type	CySpcGetTemp, %function
 532              	CySpcGetTemp:
 533              	.LFB9:
 522:.\Generated_Source\PSoC5/CySpc.c **** 
 523:.\Generated_Source\PSoC5/CySpc.c **** 
 524:.\Generated_Source\PSoC5/CySpc.c **** /*******************************************************************************
 525:.\Generated_Source\PSoC5/CySpc.c **** * Function Name: CySpcGetTemp
 526:.\Generated_Source\PSoC5/CySpc.c **** ********************************************************************************
 527:.\Generated_Source\PSoC5/CySpc.c **** * Summary:
 528:.\Generated_Source\PSoC5/CySpc.c **** *  Returns the internal die temperature
 529:.\Generated_Source\PSoC5/CySpc.c **** *
 530:.\Generated_Source\PSoC5/CySpc.c **** * Parameters:
 531:.\Generated_Source\PSoC5/CySpc.c **** *  uint8 numSamples:
 532:.\Generated_Source\PSoC5/CySpc.c **** *   Number of samples. Valid values are 1-5, resulting in 2 - 32 samples
 533:.\Generated_Source\PSoC5/CySpc.c **** *   respectively.
 534:.\Generated_Source\PSoC5/CySpc.c **** *
 535:.\Generated_Source\PSoC5/CySpc.c **** * uint16 timerPeriod:
 536:.\Generated_Source\PSoC5/CySpc.c **** *   Number of ADC ACLK cycles. A valid 14 bit value is accepted, higher 2 bits
 537:.\Generated_Source\PSoC5/CySpc.c **** *   of 16 bit values are ignored.
 538:.\Generated_Source\PSoC5/CySpc.c **** *
 539:.\Generated_Source\PSoC5/CySpc.c **** * uint8 clkDivSelect:
 540:.\Generated_Source\PSoC5/CySpc.c **** *   ADC ACLK clock divide value. Valid values are 2 - 225.
 541:.\Generated_Source\PSoC5/CySpc.c **** *
 542:.\Generated_Source\PSoC5/CySpc.c **** * Return:
 543:.\Generated_Source\PSoC5/CySpc.c **** *  CYRET_STARTED
 544:.\Generated_Source\PSoC5/CySpc.c **** *  CYRET_CANCELED
 545:.\Generated_Source\PSoC5/CySpc.c **** *  CYRET_LOCKED
 546:.\Generated_Source\PSoC5/CySpc.c **** *
ARM GAS  C:\Users\SUZUKI~1\AppData\Local\Temp\ccwVFYOj.s 			page 20


 547:.\Generated_Source\PSoC5/CySpc.c **** *******************************************************************************/
 548:.\Generated_Source\PSoC5/CySpc.c **** #if(CY_PSOC5A)
 549:.\Generated_Source\PSoC5/CySpc.c **** cystatus CySpcGetTemp(uint8 numSamples, uint16 timerPeriod, uint8 clkDivSelect)
 550:.\Generated_Source\PSoC5/CySpc.c **** #else
 551:.\Generated_Source\PSoC5/CySpc.c **** cystatus CySpcGetTemp(uint8 numSamples)
 552:.\Generated_Source\PSoC5/CySpc.c **** #endif  /* (CY_PSOC5A) */
 553:.\Generated_Source\PSoC5/CySpc.c **** {
 534              		.loc 1 553 0
 535              		.cfi_startproc
 536              		@ args = 0, pretend = 0, frame = 0
 537              		@ frame_needed = 0, uses_anonymous_args = 0
 538              	.LVL60:
 539 0000 10B5     		push	{r4, lr}
 540              	.LCFI5:
 541              		.cfi_def_cfa_offset 8
 554:.\Generated_Source\PSoC5/CySpc.c ****     cystatus status = CYRET_STARTED;
 555:.\Generated_Source\PSoC5/CySpc.c **** 
 556:.\Generated_Source\PSoC5/CySpc.c ****     /* Make sure the SPC is ready to accept command */
 557:.\Generated_Source\PSoC5/CySpc.c ****     if(CY_SPC_IDLE)
 542              		.loc 1 557 0
 543 0002 114C     		ldr	r4, .L58
 544              		.cfi_offset 14, -4
 545              		.cfi_offset 4, -8
 546 0004 2378     		ldrb	r3, [r4, #0]	@ zero_extendqisi2
 547 0006 13F0020F 		tst	r3, #2
 548 000a 01D1     		bne	.L54
 549 000c 0420     		movs	r0, #4
 550              	.LVL61:
 551 000e 10BD     		pop	{r4, pc}
 552              	.LVL62:
 553              	.L54:
 558:.\Generated_Source\PSoC5/CySpc.c ****     {
 559:.\Generated_Source\PSoC5/CySpc.c ****         CY_SPC_CPU_DATA_REG = CY_SPC_KEY_ONE;
 554              		.loc 1 559 0
 555 0010 0E4B     		ldr	r3, .L58+4
 556 0012 6FF0490C 		mvn	ip, #73
 557 0016 83F800C0 		strb	ip, [r3, #0]
 560:.\Generated_Source\PSoC5/CySpc.c ****         CY_SPC_CPU_DATA_REG = CY_SPC_KEY_TWO(CY_SPC_CMD_GET_TEMP);
 558              		.loc 1 560 0
 559 001a 0CF12B0C 		add	ip, ip, #43
 560 001e 83F800C0 		strb	ip, [r3, #0]
 561:.\Generated_Source\PSoC5/CySpc.c ****         CY_SPC_CPU_DATA_REG = CY_SPC_CMD_GET_TEMP;
 561              		.loc 1 561 0
 562 0022 0CF12D0C 		add	ip, ip, #45
 563 0026 83F800C0 		strb	ip, [r3, #0]
 562:.\Generated_Source\PSoC5/CySpc.c **** 
 563:.\Generated_Source\PSoC5/CySpc.c ****         /* Make sure the command was accepted */
 564:.\Generated_Source\PSoC5/CySpc.c ****         if(CY_SPC_BUSY)
 564              		.loc 1 564 0
 565 002a 94F800C0 		ldrb	ip, [r4, #0]	@ zero_extendqisi2
 566 002e 1CF0020F 		tst	ip, #2
 567 0032 01D0     		beq	.L56
 568 0034 0920     		movs	r0, #9
 569              	.LVL63:
 570 0036 10BD     		pop	{r4, pc}
 571              	.LVL64:
 572              	.L56:
ARM GAS  C:\Users\SUZUKI~1\AppData\Local\Temp\ccwVFYOj.s 			page 21


 565:.\Generated_Source\PSoC5/CySpc.c ****         {
 566:.\Generated_Source\PSoC5/CySpc.c ****             CY_SPC_CPU_DATA_REG = numSamples;
 573              		.loc 1 566 0
 574 0038 1870     		strb	r0, [r3, #0]
 567:.\Generated_Source\PSoC5/CySpc.c **** 
 568:.\Generated_Source\PSoC5/CySpc.c ****             #if(CY_PSOC5A)
 569:.\Generated_Source\PSoC5/CySpc.c ****                 CY_SPC_CPU_DATA_REG = HI8(timerPeriod);
 575              		.loc 1 569 0
 576 003a 080A     		lsrs	r0, r1, #8
 577              	.LVL65:
 570:.\Generated_Source\PSoC5/CySpc.c ****                 CY_SPC_CPU_DATA_REG = LO8(timerPeriod);
 578              		.loc 1 570 0
 579 003c C9B2     		uxtb	r1, r1
 580              	.LVL66:
 581              		.loc 1 569 0
 582 003e 1870     		strb	r0, [r3, #0]
 583              		.loc 1 570 0
 584 0040 1970     		strb	r1, [r3, #0]
 571:.\Generated_Source\PSoC5/CySpc.c ****                 CY_SPC_CPU_DATA_REG = clkDivSelect;
 585              		.loc 1 571 0
 586 0042 0720     		movs	r0, #7
 587              	.LVL67:
 588 0044 1A70     		strb	r2, [r3, #0]
 589              	.LVL68:
 572:.\Generated_Source\PSoC5/CySpc.c ****             #endif  /* (CY_PSOC5A) */
 573:.\Generated_Source\PSoC5/CySpc.c ****         }
 574:.\Generated_Source\PSoC5/CySpc.c ****         else
 575:.\Generated_Source\PSoC5/CySpc.c ****         {
 576:.\Generated_Source\PSoC5/CySpc.c ****             status = CYRET_CANCELED;
 577:.\Generated_Source\PSoC5/CySpc.c ****         }
 578:.\Generated_Source\PSoC5/CySpc.c ****     }
 579:.\Generated_Source\PSoC5/CySpc.c ****     else
 580:.\Generated_Source\PSoC5/CySpc.c ****     {
 581:.\Generated_Source\PSoC5/CySpc.c ****         status = CYRET_LOCKED;
 582:.\Generated_Source\PSoC5/CySpc.c ****     }
 583:.\Generated_Source\PSoC5/CySpc.c **** 
 584:.\Generated_Source\PSoC5/CySpc.c ****     return(status);
 585:.\Generated_Source\PSoC5/CySpc.c **** }
 590              		.loc 1 585 0
 591 0046 10BD     		pop	{r4, pc}
 592              	.L59:
 593              		.align	2
 594              	.L58:
 595 0048 22470040 		.word	1073760034
 596 004c 20470040 		.word	1073760032
 597              		.cfi_endproc
 598              	.LFE9:
 599              		.size	CySpcGetTemp, .-CySpcGetTemp
 600              		.section	.text.CySpcSetupTs,"ax",%progbits
 601              		.align	1
 602              		.global	CySpcSetupTs
 603              		.thumb
 604              		.thumb_func
 605              		.type	CySpcSetupTs, %function
 606              	CySpcSetupTs:
 607              	.LFB10:
 586:.\Generated_Source\PSoC5/CySpc.c **** 
ARM GAS  C:\Users\SUZUKI~1\AppData\Local\Temp\ccwVFYOj.s 			page 22


 587:.\Generated_Source\PSoC5/CySpc.c **** 
 588:.\Generated_Source\PSoC5/CySpc.c **** /*******************************************************************************
 589:.\Generated_Source\PSoC5/CySpc.c **** * Function Name: CySpcSetupTs
 590:.\Generated_Source\PSoC5/CySpc.c **** ********************************************************************************
 591:.\Generated_Source\PSoC5/CySpc.c **** * Summary:
 592:.\Generated_Source\PSoC5/CySpc.c **** *  Sets up the temperature sensor to drive voltage to external resources.
 593:.\Generated_Source\PSoC5/CySpc.c **** *
 594:.\Generated_Source\PSoC5/CySpc.c **** * Parameters:
 595:.\Generated_Source\PSoC5/CySpc.c **** *  uint8 seqSelect:
 596:.\Generated_Source\PSoC5/CySpc.c **** *    Selection of current sources for the temperature diode.
 597:.\Generated_Source\PSoC5/CySpc.c **** *    0: Enables one current path at a time.
 598:.\Generated_Source\PSoC5/CySpc.c **** *    1: Enables multiple current paths at a time.
 599:.\Generated_Source\PSoC5/CySpc.c **** *
 600:.\Generated_Source\PSoC5/CySpc.c **** *  uint8 seqFreeze:
 601:.\Generated_Source\PSoC5/CySpc.c **** *    0: Sequencer is enabled, cycling through the set of current paths for the
 602:.\Generated_Source\PSoC5/CySpc.c **** *    temperature diode to average out the output voltage.
 603:.\Generated_Source\PSoC5/CySpc.c **** *    1: Sequencer is disabled and no cycling of the current paths occurs.
 604:.\Generated_Source\PSoC5/CySpc.c **** *
 605:.\Generated_Source\PSoC5/CySpc.c **** *  uint8 clkDivSel:
 606:.\Generated_Source\PSoC5/CySpc.c **** *    The divide ratio of the SPC Clock to be set in the ADC ACLK.
 607:.\Generated_Source\PSoC5/CySpc.c **** *
 608:.\Generated_Source\PSoC5/CySpc.c **** *  uint8CurvCompEnable:
 609:.\Generated_Source\PSoC5/CySpc.c **** *    Curvature compensation calculation enabling.
 610:.\Generated_Source\PSoC5/CySpc.c **** *    0: No curvature compensation is used.
 611:.\Generated_Source\PSoC5/CySpc.c **** *    1: Curvature compensation is enabled.
 612:.\Generated_Source\PSoC5/CySpc.c **** *
 613:.\Generated_Source\PSoC5/CySpc.c **** * Return:
 614:.\Generated_Source\PSoC5/CySpc.c **** *  CYRET_STARTED
 615:.\Generated_Source\PSoC5/CySpc.c **** *  CYRET_CANCELED
 616:.\Generated_Source\PSoC5/CySpc.c **** *  CYRET_LOCKED
 617:.\Generated_Source\PSoC5/CySpc.c **** *
 618:.\Generated_Source\PSoC5/CySpc.c **** *******************************************************************************/
 619:.\Generated_Source\PSoC5/CySpc.c **** cystatus CySpcSetupTs(uint8 seqSelect, uint8 seqFreeze, uint8 clkDivSel, uint8 curvCompEnable)
 620:.\Generated_Source\PSoC5/CySpc.c **** {
 608              		.loc 1 620 0
 609              		.cfi_startproc
 610              		@ args = 0, pretend = 0, frame = 0
 611              		@ frame_needed = 0, uses_anonymous_args = 0
 612              	.LVL69:
 613 0000 30B5     		push	{r4, r5, lr}
 614              	.LCFI6:
 615              		.cfi_def_cfa_offset 12
 621:.\Generated_Source\PSoC5/CySpc.c ****     cystatus status = CYRET_STARTED;
 622:.\Generated_Source\PSoC5/CySpc.c **** 
 623:.\Generated_Source\PSoC5/CySpc.c ****     /* Make sure the SPC is ready to accept command */
 624:.\Generated_Source\PSoC5/CySpc.c ****     if(CY_SPC_IDLE)
 616              		.loc 1 624 0
 617 0002 114D     		ldr	r5, .L65
 618              		.cfi_offset 14, -4
 619              		.cfi_offset 5, -8
 620              		.cfi_offset 4, -12
 621 0004 95F800C0 		ldrb	ip, [r5, #0]	@ zero_extendqisi2
 622 0008 1CF0020F 		tst	ip, #2
 623 000c 01D1     		bne	.L61
 624 000e 0420     		movs	r0, #4
 625              	.LVL70:
 626 0010 30BD     		pop	{r4, r5, pc}
ARM GAS  C:\Users\SUZUKI~1\AppData\Local\Temp\ccwVFYOj.s 			page 23


 627              	.LVL71:
 628              	.L61:
 625:.\Generated_Source\PSoC5/CySpc.c ****     {
 626:.\Generated_Source\PSoC5/CySpc.c ****         CY_SPC_CPU_DATA_REG = CY_SPC_KEY_ONE;
 629              		.loc 1 626 0
 630 0012 0E4C     		ldr	r4, .L65+4
 631 0014 6FF0490C 		mvn	ip, #73
 632 0018 84F800C0 		strb	ip, [r4, #0]
 627:.\Generated_Source\PSoC5/CySpc.c ****         CY_SPC_CPU_DATA_REG = CY_SPC_KEY_TWO(CY_SPC_CMD_SETUP_TS);
 633              		.loc 1 627 0
 634 001c 0CF12E0C 		add	ip, ip, #46
 635 0020 84F800C0 		strb	ip, [r4, #0]
 628:.\Generated_Source\PSoC5/CySpc.c ****         CY_SPC_CPU_DATA_REG = CY_SPC_CMD_SETUP_TS;
 636              		.loc 1 628 0
 637 0024 0CF12D0C 		add	ip, ip, #45
 638 0028 84F800C0 		strb	ip, [r4, #0]
 629:.\Generated_Source\PSoC5/CySpc.c **** 
 630:.\Generated_Source\PSoC5/CySpc.c ****         /* Make sure the command was accepted */
 631:.\Generated_Source\PSoC5/CySpc.c ****         if(CY_SPC_BUSY)
 639              		.loc 1 631 0
 640 002c 95F800C0 		ldrb	ip, [r5, #0]	@ zero_extendqisi2
 641 0030 1CF0020F 		tst	ip, #2
 642 0034 01D0     		beq	.L63
 643 0036 0920     		movs	r0, #9
 644              	.LVL72:
 645 0038 30BD     		pop	{r4, r5, pc}
 646              	.LVL73:
 647              	.L63:
 632:.\Generated_Source\PSoC5/CySpc.c ****         {
 633:.\Generated_Source\PSoC5/CySpc.c ****             CY_SPC_CPU_DATA_REG = seqSelect;
 648              		.loc 1 633 0
 649 003a 2070     		strb	r0, [r4, #0]
 634:.\Generated_Source\PSoC5/CySpc.c ****             CY_SPC_CPU_DATA_REG = seqFreeze;
 650              		.loc 1 634 0
 651 003c 2170     		strb	r1, [r4, #0]
 635:.\Generated_Source\PSoC5/CySpc.c ****             CY_SPC_CPU_DATA_REG = clkDivSel;
 636:.\Generated_Source\PSoC5/CySpc.c ****             CY_SPC_CPU_DATA_REG = curvCompEnable;
 652              		.loc 1 636 0
 653 003e 0720     		movs	r0, #7
 654              	.LVL74:
 655              		.loc 1 635 0
 656 0040 2270     		strb	r2, [r4, #0]
 657              		.loc 1 636 0
 658 0042 2370     		strb	r3, [r4, #0]
 659              	.LVL75:
 637:.\Generated_Source\PSoC5/CySpc.c ****         }
 638:.\Generated_Source\PSoC5/CySpc.c ****         else
 639:.\Generated_Source\PSoC5/CySpc.c ****         {
 640:.\Generated_Source\PSoC5/CySpc.c ****             status = CYRET_CANCELED;
 641:.\Generated_Source\PSoC5/CySpc.c ****         }
 642:.\Generated_Source\PSoC5/CySpc.c ****     }
 643:.\Generated_Source\PSoC5/CySpc.c ****     else
 644:.\Generated_Source\PSoC5/CySpc.c ****     {
 645:.\Generated_Source\PSoC5/CySpc.c ****         status = CYRET_LOCKED;
 646:.\Generated_Source\PSoC5/CySpc.c ****     }
 647:.\Generated_Source\PSoC5/CySpc.c **** 
 648:.\Generated_Source\PSoC5/CySpc.c ****     return(status);
ARM GAS  C:\Users\SUZUKI~1\AppData\Local\Temp\ccwVFYOj.s 			page 24


 649:.\Generated_Source\PSoC5/CySpc.c **** }
 660              		.loc 1 649 0
 661 0044 30BD     		pop	{r4, r5, pc}
 662              	.L66:
 663 0046 00BF     		.align	2
 664              	.L65:
 665 0048 22470040 		.word	1073760034
 666 004c 20470040 		.word	1073760032
 667              		.cfi_endproc
 668              	.LFE10:
 669              		.size	CySpcSetupTs, .-CySpcSetupTs
 670              		.section	.text.CySpcDisableTs,"ax",%progbits
 671              		.align	1
 672              		.global	CySpcDisableTs
 673              		.thumb
 674              		.thumb_func
 675              		.type	CySpcDisableTs, %function
 676              	CySpcDisableTs:
 677              	.LFB11:
 650:.\Generated_Source\PSoC5/CySpc.c **** 
 651:.\Generated_Source\PSoC5/CySpc.c **** 
 652:.\Generated_Source\PSoC5/CySpc.c **** /*******************************************************************************
 653:.\Generated_Source\PSoC5/CySpc.c **** * Function Name: CySpcDisableTs
 654:.\Generated_Source\PSoC5/CySpc.c **** ********************************************************************************
 655:.\Generated_Source\PSoC5/CySpc.c **** * Summary:
 656:.\Generated_Source\PSoC5/CySpc.c **** *  Disables the temperature sensor from driving its voltage to external
 657:.\Generated_Source\PSoC5/CySpc.c **** *  resources.
 658:.\Generated_Source\PSoC5/CySpc.c **** *
 659:.\Generated_Source\PSoC5/CySpc.c **** * Parameters:
 660:.\Generated_Source\PSoC5/CySpc.c **** *  None
 661:.\Generated_Source\PSoC5/CySpc.c **** *
 662:.\Generated_Source\PSoC5/CySpc.c **** * Return:
 663:.\Generated_Source\PSoC5/CySpc.c **** *  CYRET_STARTED
 664:.\Generated_Source\PSoC5/CySpc.c **** *  CYRET_LOCKED
 665:.\Generated_Source\PSoC5/CySpc.c **** *
 666:.\Generated_Source\PSoC5/CySpc.c **** *******************************************************************************/
 667:.\Generated_Source\PSoC5/CySpc.c **** cystatus CySpcDisableTs(void)
 668:.\Generated_Source\PSoC5/CySpc.c **** {
 678              		.loc 1 668 0
 679              		.cfi_startproc
 680              		@ args = 0, pretend = 0, frame = 0
 681              		@ frame_needed = 0, uses_anonymous_args = 0
 682              		@ link register save eliminated.
 669:.\Generated_Source\PSoC5/CySpc.c ****     cystatus status = CYRET_STARTED;
 670:.\Generated_Source\PSoC5/CySpc.c **** 
 671:.\Generated_Source\PSoC5/CySpc.c ****     /* Make sure the SPC is ready to accept command */
 672:.\Generated_Source\PSoC5/CySpc.c ****     if(CY_SPC_IDLE)
 683              		.loc 1 672 0
 684 0000 084B     		ldr	r3, .L71
 685 0002 1B78     		ldrb	r3, [r3, #0]	@ zero_extendqisi2
 686 0004 13F0020F 		tst	r3, #2
 687 0008 01D1     		bne	.L68
 688 000a 0420     		movs	r0, #4
 689              	.LVL76:
 690 000c 7047     		bx	lr
 691              	.LVL77:
 692              	.L68:
ARM GAS  C:\Users\SUZUKI~1\AppData\Local\Temp\ccwVFYOj.s 			page 25


 673:.\Generated_Source\PSoC5/CySpc.c ****     {
 674:.\Generated_Source\PSoC5/CySpc.c ****         CY_SPC_CPU_DATA_REG = CY_SPC_KEY_ONE;
 693              		.loc 1 674 0
 694 000e 064B     		ldr	r3, .L71+4
 695 0010 6FF04902 		mvn	r2, #73
 696 0014 1A70     		strb	r2, [r3, #0]
 675:.\Generated_Source\PSoC5/CySpc.c ****         CY_SPC_CPU_DATA_REG = CY_SPC_KEY_TWO(CY_SPC_CMD_DISABLE_TS);
 697              		.loc 1 675 0
 698 0016 2F32     		adds	r2, r2, #47
 699 0018 1A70     		strb	r2, [r3, #0]
 676:.\Generated_Source\PSoC5/CySpc.c ****         CY_SPC_CPU_DATA_REG = CY_SPC_CMD_DISABLE_TS;
 700              		.loc 1 676 0
 701 001a 2D32     		adds	r2, r2, #45
 702 001c 1A70     		strb	r2, [r3, #0]
 703 001e 0720     		movs	r0, #7
 704              	.LVL78:
 705              	.LVL79:
 677:.\Generated_Source\PSoC5/CySpc.c ****     }
 678:.\Generated_Source\PSoC5/CySpc.c ****     else
 679:.\Generated_Source\PSoC5/CySpc.c ****     {
 680:.\Generated_Source\PSoC5/CySpc.c ****         status = CYRET_LOCKED;
 681:.\Generated_Source\PSoC5/CySpc.c ****     }
 682:.\Generated_Source\PSoC5/CySpc.c **** 
 683:.\Generated_Source\PSoC5/CySpc.c ****     return(status);
 684:.\Generated_Source\PSoC5/CySpc.c **** }
 706              		.loc 1 684 0
 707 0020 7047     		bx	lr
 708              	.L72:
 709 0022 00BF     		.align	2
 710              	.L71:
 711 0024 22470040 		.word	1073760034
 712 0028 20470040 		.word	1073760032
 713              		.cfi_endproc
 714              	.LFE11:
 715              		.size	CySpcDisableTs, .-CySpcDisableTs
 716              		.section	.text.CySpcEraseRow,"ax",%progbits
 717              		.align	1
 718              		.global	CySpcEraseRow
 719              		.thumb
 720              		.thumb_func
 721              		.type	CySpcEraseRow, %function
 722              	CySpcEraseRow:
 723              	.LFB12:
 685:.\Generated_Source\PSoC5/CySpc.c **** 
 686:.\Generated_Source\PSoC5/CySpc.c **** 
 687:.\Generated_Source\PSoC5/CySpc.c **** /*******************************************************************************
 688:.\Generated_Source\PSoC5/CySpc.c **** * Function Name: CySpcEraseRow
 689:.\Generated_Source\PSoC5/CySpc.c **** ********************************************************************************
 690:.\Generated_Source\PSoC5/CySpc.c **** * Summary:
 691:.\Generated_Source\PSoC5/CySpc.c **** *  Erases a row in Flash/EEPROM.
 692:.\Generated_Source\PSoC5/CySpc.c **** *
 693:.\Generated_Source\PSoC5/CySpc.c **** * Parameters:
 694:.\Generated_Source\PSoC5/CySpc.c **** *  uint8 array:
 695:.\Generated_Source\PSoC5/CySpc.c **** *   Id of the array.
 696:.\Generated_Source\PSoC5/CySpc.c **** *
 697:.\Generated_Source\PSoC5/CySpc.c **** *  uint16 address:
 698:.\Generated_Source\PSoC5/CySpc.c **** *   Flash/eeprom addrress
ARM GAS  C:\Users\SUZUKI~1\AppData\Local\Temp\ccwVFYOj.s 			page 26


 699:.\Generated_Source\PSoC5/CySpc.c **** *
 700:.\Generated_Source\PSoC5/CySpc.c **** *  uint8 tempPolarity:
 701:.\Generated_Source\PSoC5/CySpc.c **** *   temperature polarity.
 702:.\Generated_Source\PSoC5/CySpc.c **** *    1: the Temp Magnitude is interpreted as a positive value
 703:.\Generated_Source\PSoC5/CySpc.c **** *    0: the Temp Magnitude is interpreted as a negative value
 704:.\Generated_Source\PSoC5/CySpc.c **** *
 705:.\Generated_Source\PSoC5/CySpc.c **** *  uint8 tempMagnitude:
 706:.\Generated_Source\PSoC5/CySpc.c **** *   Temperature magnitude.
 707:.\Generated_Source\PSoC5/CySpc.c **** *
 708:.\Generated_Source\PSoC5/CySpc.c **** * Return:
 709:.\Generated_Source\PSoC5/CySpc.c **** *  CYRET_STARTED
 710:.\Generated_Source\PSoC5/CySpc.c **** *  CYRET_CANCELED
 711:.\Generated_Source\PSoC5/CySpc.c **** *  CYRET_LOCKED
 712:.\Generated_Source\PSoC5/CySpc.c **** *
 713:.\Generated_Source\PSoC5/CySpc.c **** *******************************************************************************/
 714:.\Generated_Source\PSoC5/CySpc.c **** cystatus CySpcEraseRow(uint8 array, uint16 address, uint8 tempPolarity, uint8 tempMagnitude)
 715:.\Generated_Source\PSoC5/CySpc.c **** {
 724              		.loc 1 715 0
 725              		.cfi_startproc
 726              		@ args = 0, pretend = 0, frame = 0
 727              		@ frame_needed = 0, uses_anonymous_args = 0
 728              	.LVL80:
 729 0000 30B5     		push	{r4, r5, lr}
 730              	.LCFI7:
 731              		.cfi_def_cfa_offset 12
 716:.\Generated_Source\PSoC5/CySpc.c ****     cystatus status = CYRET_STARTED;
 717:.\Generated_Source\PSoC5/CySpc.c **** 
 718:.\Generated_Source\PSoC5/CySpc.c ****     /* Make sure the SPC is ready to accept command */
 719:.\Generated_Source\PSoC5/CySpc.c ****     if(CY_SPC_IDLE)
 732              		.loc 1 719 0
 733 0002 124D     		ldr	r5, .L78
 734              		.cfi_offset 14, -4
 735              		.cfi_offset 5, -8
 736              		.cfi_offset 4, -12
 737 0004 95F800C0 		ldrb	ip, [r5, #0]	@ zero_extendqisi2
 738 0008 1CF0020F 		tst	ip, #2
 739 000c 01D1     		bne	.L74
 740 000e 0420     		movs	r0, #4
 741              	.LVL81:
 742 0010 30BD     		pop	{r4, r5, pc}
 743              	.LVL82:
 744              	.L74:
 720:.\Generated_Source\PSoC5/CySpc.c ****     {
 721:.\Generated_Source\PSoC5/CySpc.c ****         CY_SPC_CPU_DATA_REG = CY_SPC_KEY_ONE;
 745              		.loc 1 721 0
 746 0012 0F4C     		ldr	r4, .L78+4
 747 0014 6FF0490C 		mvn	ip, #73
 748 0018 84F800C0 		strb	ip, [r4, #0]
 722:.\Generated_Source\PSoC5/CySpc.c ****         CY_SPC_CPU_DATA_REG = CY_SPC_KEY_TWO(CY_SPC_CMD_ER_ROW);
 749              		.loc 1 722 0
 750 001c 0CF1300C 		add	ip, ip, #48
 751 0020 84F800C0 		strb	ip, [r4, #0]
 723:.\Generated_Source\PSoC5/CySpc.c ****         CY_SPC_CPU_DATA_REG = CY_SPC_CMD_ER_ROW;
 752              		.loc 1 723 0
 753 0024 0CF12D0C 		add	ip, ip, #45
 754 0028 84F800C0 		strb	ip, [r4, #0]
 724:.\Generated_Source\PSoC5/CySpc.c **** 
ARM GAS  C:\Users\SUZUKI~1\AppData\Local\Temp\ccwVFYOj.s 			page 27


 725:.\Generated_Source\PSoC5/CySpc.c ****         /* Make sure the command was accepted */
 726:.\Generated_Source\PSoC5/CySpc.c ****         if(CY_SPC_BUSY)
 755              		.loc 1 726 0
 756 002c 95F800C0 		ldrb	ip, [r5, #0]	@ zero_extendqisi2
 757 0030 1CF0020F 		tst	ip, #2
 758 0034 01D0     		beq	.L76
 759 0036 0920     		movs	r0, #9
 760              	.LVL83:
 761 0038 30BD     		pop	{r4, r5, pc}
 762              	.LVL84:
 763              	.L76:
 727:.\Generated_Source\PSoC5/CySpc.c ****         {
 728:.\Generated_Source\PSoC5/CySpc.c ****             CY_SPC_CPU_DATA_REG = array;
 764              		.loc 1 728 0
 765 003a 2070     		strb	r0, [r4, #0]
 729:.\Generated_Source\PSoC5/CySpc.c ****             CY_SPC_CPU_DATA_REG = HI8(address);
 766              		.loc 1 729 0
 767 003c 080A     		lsrs	r0, r1, #8
 768              	.LVL85:
 730:.\Generated_Source\PSoC5/CySpc.c ****             CY_SPC_CPU_DATA_REG = LO8(address);
 769              		.loc 1 730 0
 770 003e C9B2     		uxtb	r1, r1
 771              	.LVL86:
 772              		.loc 1 729 0
 773 0040 2070     		strb	r0, [r4, #0]
 774              		.loc 1 730 0
 775 0042 2170     		strb	r1, [r4, #0]
 731:.\Generated_Source\PSoC5/CySpc.c ****             CY_SPC_CPU_DATA_REG = tempPolarity;
 732:.\Generated_Source\PSoC5/CySpc.c ****             CY_SPC_CPU_DATA_REG = tempMagnitude;
 776              		.loc 1 732 0
 777 0044 0720     		movs	r0, #7
 778              	.LVL87:
 779              		.loc 1 731 0
 780 0046 2270     		strb	r2, [r4, #0]
 781              		.loc 1 732 0
 782 0048 2370     		strb	r3, [r4, #0]
 783              	.LVL88:
 733:.\Generated_Source\PSoC5/CySpc.c ****         }
 734:.\Generated_Source\PSoC5/CySpc.c ****         else
 735:.\Generated_Source\PSoC5/CySpc.c ****         {
 736:.\Generated_Source\PSoC5/CySpc.c ****             status = CYRET_CANCELED;
 737:.\Generated_Source\PSoC5/CySpc.c ****         }
 738:.\Generated_Source\PSoC5/CySpc.c ****     }
 739:.\Generated_Source\PSoC5/CySpc.c ****     else
 740:.\Generated_Source\PSoC5/CySpc.c ****     {
 741:.\Generated_Source\PSoC5/CySpc.c ****         status = CYRET_LOCKED;
 742:.\Generated_Source\PSoC5/CySpc.c ****     }
 743:.\Generated_Source\PSoC5/CySpc.c **** 
 744:.\Generated_Source\PSoC5/CySpc.c ****     return(status);
 745:.\Generated_Source\PSoC5/CySpc.c **** }
 784              		.loc 1 745 0
 785 004a 30BD     		pop	{r4, r5, pc}
 786              	.L79:
 787              		.align	2
 788              	.L78:
 789 004c 22470040 		.word	1073760034
 790 0050 20470040 		.word	1073760032
ARM GAS  C:\Users\SUZUKI~1\AppData\Local\Temp\ccwVFYOj.s 			page 28


 791              		.cfi_endproc
 792              	.LFE12:
 793              		.size	CySpcEraseRow, .-CySpcEraseRow
 794              		.section	.text.CySpcUnlock,"ax",%progbits
 795              		.align	1
 796              		.global	CySpcUnlock
 797              		.thumb
 798              		.thumb_func
 799              		.type	CySpcUnlock, %function
 800              	CySpcUnlock:
 801              	.LFB14:
 746:.\Generated_Source\PSoC5/CySpc.c **** 
 747:.\Generated_Source\PSoC5/CySpc.c **** 
 748:.\Generated_Source\PSoC5/CySpc.c **** /*******************************************************************************
 749:.\Generated_Source\PSoC5/CySpc.c **** * Function Name: CySpcLock
 750:.\Generated_Source\PSoC5/CySpc.c **** ********************************************************************************
 751:.\Generated_Source\PSoC5/CySpc.c **** * Summary:
 752:.\Generated_Source\PSoC5/CySpc.c **** *  Locks the SPC so it can not be used by someone else:
 753:.\Generated_Source\PSoC5/CySpc.c **** *   - Saves wait-pipeline enable state and enable pipeline (PSoC5)
 754:.\Generated_Source\PSoC5/CySpc.c **** *
 755:.\Generated_Source\PSoC5/CySpc.c **** * Parameters:
 756:.\Generated_Source\PSoC5/CySpc.c **** *  Note
 757:.\Generated_Source\PSoC5/CySpc.c **** *
 758:.\Generated_Source\PSoC5/CySpc.c **** * Return:
 759:.\Generated_Source\PSoC5/CySpc.c **** *  CYRET_SUCCESS - if the resource was free.
 760:.\Generated_Source\PSoC5/CySpc.c **** *  CYRET_LOCKED  - if the SPC is in use.
 761:.\Generated_Source\PSoC5/CySpc.c **** *
 762:.\Generated_Source\PSoC5/CySpc.c **** *******************************************************************************/
 763:.\Generated_Source\PSoC5/CySpc.c **** cystatus CySpcLock(void)
 764:.\Generated_Source\PSoC5/CySpc.c **** {
 765:.\Generated_Source\PSoC5/CySpc.c ****     cystatus status = CYRET_LOCKED;
 766:.\Generated_Source\PSoC5/CySpc.c ****     uint8 interruptState;
 767:.\Generated_Source\PSoC5/CySpc.c **** 
 768:.\Generated_Source\PSoC5/CySpc.c ****     /* Enter critical section */
 769:.\Generated_Source\PSoC5/CySpc.c ****     interruptState = CyEnterCriticalSection();
 770:.\Generated_Source\PSoC5/CySpc.c **** 
 771:.\Generated_Source\PSoC5/CySpc.c ****     if(CY_SPC_UNLOCKED == SpcLockState)
 772:.\Generated_Source\PSoC5/CySpc.c ****     {
 773:.\Generated_Source\PSoC5/CySpc.c ****         SpcLockState = CY_SPC_LOCKED;
 774:.\Generated_Source\PSoC5/CySpc.c ****         status = CYRET_SUCCESS;
 775:.\Generated_Source\PSoC5/CySpc.c **** 
 776:.\Generated_Source\PSoC5/CySpc.c ****         #if(CY_PSOC5LP)
 777:.\Generated_Source\PSoC5/CySpc.c **** 
 778:.\Generated_Source\PSoC5/CySpc.c ****             if(0u != (CY_SPC_CPU_WAITPIPE_REG & CY_SPC_CPU_WAITPIPE_BYPASS))
 779:.\Generated_Source\PSoC5/CySpc.c ****             {
 780:.\Generated_Source\PSoC5/CySpc.c ****                 /* Enable pipeline registers */
 781:.\Generated_Source\PSoC5/CySpc.c ****                 CY_SPC_CPU_WAITPIPE_REG &= ~CY_SPC_CPU_WAITPIPE_BYPASS;
 782:.\Generated_Source\PSoC5/CySpc.c **** 
 783:.\Generated_Source\PSoC5/CySpc.c ****                 /* At least 2 NOP instructions are recommended */
 784:.\Generated_Source\PSoC5/CySpc.c ****                 CY_NOP;
 785:.\Generated_Source\PSoC5/CySpc.c ****                 CY_NOP;
 786:.\Generated_Source\PSoC5/CySpc.c ****                 CY_NOP;
 787:.\Generated_Source\PSoC5/CySpc.c **** 
 788:.\Generated_Source\PSoC5/CySpc.c ****                 spcWaitPipeBypass = CY_SPC_CPU_WAITPIPE_BYPASS;
 789:.\Generated_Source\PSoC5/CySpc.c ****             }
 790:.\Generated_Source\PSoC5/CySpc.c **** 
 791:.\Generated_Source\PSoC5/CySpc.c ****         #endif  /* (CY_PSOC5LP) */
ARM GAS  C:\Users\SUZUKI~1\AppData\Local\Temp\ccwVFYOj.s 			page 29


 792:.\Generated_Source\PSoC5/CySpc.c ****     }
 793:.\Generated_Source\PSoC5/CySpc.c **** 
 794:.\Generated_Source\PSoC5/CySpc.c ****     /* Exit critical section */
 795:.\Generated_Source\PSoC5/CySpc.c ****     CyExitCriticalSection(interruptState);
 796:.\Generated_Source\PSoC5/CySpc.c **** 
 797:.\Generated_Source\PSoC5/CySpc.c ****     return(status);
 798:.\Generated_Source\PSoC5/CySpc.c **** }
 799:.\Generated_Source\PSoC5/CySpc.c **** 
 800:.\Generated_Source\PSoC5/CySpc.c **** 
 801:.\Generated_Source\PSoC5/CySpc.c **** /*******************************************************************************
 802:.\Generated_Source\PSoC5/CySpc.c **** * Function Name: CySpcUnlock
 803:.\Generated_Source\PSoC5/CySpc.c **** ********************************************************************************
 804:.\Generated_Source\PSoC5/CySpc.c **** * Summary:
 805:.\Generated_Source\PSoC5/CySpc.c **** *  Unlocks the SPC so it can be used by someone else:
 806:.\Generated_Source\PSoC5/CySpc.c **** *   - Restores wait-pipeline enable state (PSoC5)
 807:.\Generated_Source\PSoC5/CySpc.c **** *
 808:.\Generated_Source\PSoC5/CySpc.c **** * Parameters:
 809:.\Generated_Source\PSoC5/CySpc.c **** *  None
 810:.\Generated_Source\PSoC5/CySpc.c **** *
 811:.\Generated_Source\PSoC5/CySpc.c **** * Return:
 812:.\Generated_Source\PSoC5/CySpc.c **** *  None
 813:.\Generated_Source\PSoC5/CySpc.c **** *
 814:.\Generated_Source\PSoC5/CySpc.c **** *******************************************************************************/
 815:.\Generated_Source\PSoC5/CySpc.c **** void CySpcUnlock(void)
 816:.\Generated_Source\PSoC5/CySpc.c **** {
 802              		.loc 1 816 0
 803              		.cfi_startproc
 804              		@ args = 0, pretend = 0, frame = 0
 805              		@ frame_needed = 0, uses_anonymous_args = 0
 806 0000 10B5     		push	{r4, lr}
 807              	.LCFI8:
 808              		.cfi_def_cfa_offset 8
 817:.\Generated_Source\PSoC5/CySpc.c ****     uint8 interruptState;
 818:.\Generated_Source\PSoC5/CySpc.c **** 
 819:.\Generated_Source\PSoC5/CySpc.c ****     /* Enter critical section */
 820:.\Generated_Source\PSoC5/CySpc.c ****     interruptState = CyEnterCriticalSection();
 809              		.loc 1 820 0
 810              		.cfi_offset 14, -4
 811              		.cfi_offset 4, -8
 812 0002 FFF7FEFF 		bl	CyEnterCriticalSection
 821:.\Generated_Source\PSoC5/CySpc.c **** 
 822:.\Generated_Source\PSoC5/CySpc.c ****     /* Release the SPC object */
 823:.\Generated_Source\PSoC5/CySpc.c ****     SpcLockState = CY_SPC_UNLOCKED;
 813              		.loc 1 823 0
 814 0006 034B     		ldr	r3, .L82
 815 0008 0022     		movs	r2, #0
 816 000a 1A70     		strb	r2, [r3, #0]
 824:.\Generated_Source\PSoC5/CySpc.c **** 
 825:.\Generated_Source\PSoC5/CySpc.c ****     #if(CY_PSOC5LP)
 826:.\Generated_Source\PSoC5/CySpc.c **** 
 827:.\Generated_Source\PSoC5/CySpc.c ****         if(CY_SPC_CPU_WAITPIPE_BYPASS == spcWaitPipeBypass)
 828:.\Generated_Source\PSoC5/CySpc.c ****         {
 829:.\Generated_Source\PSoC5/CySpc.c ****             /* Force to bypass pipeline registers */
 830:.\Generated_Source\PSoC5/CySpc.c ****             CY_SPC_CPU_WAITPIPE_REG |= CY_SPC_CPU_WAITPIPE_BYPASS;
 831:.\Generated_Source\PSoC5/CySpc.c **** 
 832:.\Generated_Source\PSoC5/CySpc.c ****             /* At least 2 NOP instructions are recommended */
 833:.\Generated_Source\PSoC5/CySpc.c ****             CY_NOP;
ARM GAS  C:\Users\SUZUKI~1\AppData\Local\Temp\ccwVFYOj.s 			page 30


 834:.\Generated_Source\PSoC5/CySpc.c ****             CY_NOP;
 835:.\Generated_Source\PSoC5/CySpc.c ****             CY_NOP;
 836:.\Generated_Source\PSoC5/CySpc.c **** 
 837:.\Generated_Source\PSoC5/CySpc.c ****             spcWaitPipeBypass = 0u;
 838:.\Generated_Source\PSoC5/CySpc.c ****         }
 839:.\Generated_Source\PSoC5/CySpc.c **** 
 840:.\Generated_Source\PSoC5/CySpc.c ****     #endif  /* (CY_PSOC5LP) */
 841:.\Generated_Source\PSoC5/CySpc.c **** 
 842:.\Generated_Source\PSoC5/CySpc.c ****     /* Exit critical section */
 843:.\Generated_Source\PSoC5/CySpc.c ****     CyExitCriticalSection(interruptState);
 844:.\Generated_Source\PSoC5/CySpc.c **** }
 817              		.loc 1 844 0
 818 000c BDE81040 		pop	{r4, lr}
 819              		.loc 1 843 0
 820 0010 FFF7FEBF 		b	CyExitCriticalSection
 821              	.L83:
 822              		.align	2
 823              	.L82:
 824 0014 00000000 		.word	.LANCHOR0
 825              		.cfi_endproc
 826              	.LFE14:
 827              		.size	CySpcUnlock, .-CySpcUnlock
 828              		.section	.text.CySpcLock,"ax",%progbits
 829              		.align	1
 830              		.global	CySpcLock
 831              		.thumb
 832              		.thumb_func
 833              		.type	CySpcLock, %function
 834              	CySpcLock:
 835              	.LFB13:
 836              		.loc 1 764 0
 837              		.cfi_startproc
 838              		@ args = 0, pretend = 0, frame = 0
 839              		@ frame_needed = 0, uses_anonymous_args = 0
 840 0000 10B5     		push	{r4, lr}
 841              	.LCFI9:
 842              		.cfi_def_cfa_offset 8
 843              		.loc 1 769 0
 844              		.cfi_offset 14, -4
 845              		.cfi_offset 4, -8
 846 0002 FFF7FEFF 		bl	CyEnterCriticalSection
 847              		.loc 1 771 0
 848 0006 054B     		ldr	r3, .L88
 849 0008 1C78     		ldrb	r4, [r3, #0]	@ zero_extendqisi2
 850 000a 0CB1     		cbz	r4, .L85
 851 000c 0424     		movs	r4, #4
 852              	.LVL89:
 853 000e 01E0     		b	.L86
 854              	.LVL90:
 855              	.L85:
 856              		.loc 1 773 0
 857 0010 0122     		movs	r2, #1
 858 0012 1A70     		strb	r2, [r3, #0]
 859              	.LVL91:
 860              	.L86:
 861              		.loc 1 795 0
 862 0014 FFF7FEFF 		bl	CyExitCriticalSection
ARM GAS  C:\Users\SUZUKI~1\AppData\Local\Temp\ccwVFYOj.s 			page 31


 863              		.loc 1 798 0
 864 0018 2046     		mov	r0, r4
 865 001a 10BD     		pop	{r4, pc}
 866              	.L89:
 867              		.align	2
 868              	.L88:
 869 001c 00000000 		.word	.LANCHOR0
 870              		.cfi_endproc
 871              	.LFE13:
 872              		.size	CySpcLock, .-CySpcLock
 873              		.section	.text.CySpcStop,"ax",%progbits
 874              		.align	1
 875              		.global	CySpcStop
 876              		.thumb
 877              		.thumb_func
 878              		.type	CySpcStop, %function
 879              	CySpcStop:
 880              	.LFB1:
 881              		.loc 1 108 0
 882              		.cfi_startproc
 883              		@ args = 0, pretend = 0, frame = 0
 884              		@ frame_needed = 0, uses_anonymous_args = 0
 885 0000 10B5     		push	{r4, lr}
 886              	.LCFI10:
 887              		.cfi_def_cfa_offset 8
 888              		.loc 1 110 0
 889              		.cfi_offset 14, -4
 890              		.cfi_offset 4, -8
 891 0002 FFF7FEFF 		bl	CyEnterCriticalSection
 892              		.loc 1 112 0
 893 0006 074B     		ldr	r3, .L92
 894 0008 1A78     		ldrb	r2, [r3, #0]	@ zero_extendqisi2
 895 000a 02F0F702 		and	r2, r2, #247
 896 000e 1A70     		strb	r2, [r3, #0]
 897              		.loc 1 113 0
 898 0010 1033     		adds	r3, r3, #16
 899 0012 1A78     		ldrb	r2, [r3, #0]	@ zero_extendqisi2
 900 0014 02F0F702 		and	r2, r2, #247
 901 0018 1A70     		strb	r2, [r3, #0]
 902              		.loc 1 117 0
 903 001a BDE81040 		pop	{r4, lr}
 904              		.loc 1 116 0
 905 001e FFF7FEBF 		b	CyExitCriticalSection
 906              	.L93:
 907 0022 00BF     		.align	2
 908              	.L92:
 909 0024 A0430040 		.word	1073759136
 910              		.cfi_endproc
 911              	.LFE1:
 912              		.size	CySpcStop, .-CySpcStop
 913              		.section	.text.CySpcStart,"ax",%progbits
 914              		.align	1
 915              		.global	CySpcStart
 916              		.thumb
 917              		.thumb_func
 918              		.type	CySpcStart, %function
 919              	CySpcStart:
ARM GAS  C:\Users\SUZUKI~1\AppData\Local\Temp\ccwVFYOj.s 			page 32


 920              	.LFB0:
 921              		.loc 1 82 0
 922              		.cfi_startproc
 923              		@ args = 0, pretend = 0, frame = 0
 924              		@ frame_needed = 0, uses_anonymous_args = 0
 925 0000 10B5     		push	{r4, lr}
 926              	.LCFI11:
 927              		.cfi_def_cfa_offset 8
 928              		.loc 1 84 0
 929              		.cfi_offset 14, -4
 930              		.cfi_offset 4, -8
 931 0002 FFF7FEFF 		bl	CyEnterCriticalSection
 932              		.loc 1 86 0
 933 0006 074B     		ldr	r3, .L96
 934 0008 1A78     		ldrb	r2, [r3, #0]	@ zero_extendqisi2
 935 000a 42F00802 		orr	r2, r2, #8
 936 000e 1A70     		strb	r2, [r3, #0]
 937              		.loc 1 87 0
 938 0010 1033     		adds	r3, r3, #16
 939 0012 1A78     		ldrb	r2, [r3, #0]	@ zero_extendqisi2
 940 0014 42F00802 		orr	r2, r2, #8
 941 0018 1A70     		strb	r2, [r3, #0]
 942              		.loc 1 91 0
 943 001a BDE81040 		pop	{r4, lr}
 944              		.loc 1 90 0
 945 001e FFF7FEBF 		b	CyExitCriticalSection
 946              	.L97:
 947 0022 00BF     		.align	2
 948              	.L96:
 949 0024 A0430040 		.word	1073759136
 950              		.cfi_endproc
 951              	.LFE0:
 952              		.size	CySpcStart, .-CySpcStart
 953              		.section	.text.CySpcReadData,"ax",%progbits
 954              		.align	1
 955              		.global	CySpcReadData
 956              		.thumb
 957              		.thumb_func
 958              		.type	CySpcReadData, %function
 959              	CySpcReadData:
 960              	.LFB2:
 961              		.loc 1 139 0
 962              		.cfi_startproc
 963              		@ args = 0, pretend = 0, frame = 0
 964              		@ frame_needed = 0, uses_anonymous_args = 0
 965              	.LVL92:
 966 0000 70B5     		push	{r4, r5, r6, lr}
 967              	.LCFI12:
 968              		.cfi_def_cfa_offset 16
 969              		.loc 1 139 0
 970 0002 0446     		mov	r4, r0
 971              		.cfi_offset 14, -4
 972              		.cfi_offset 6, -8
 973              		.cfi_offset 5, -12
 974              		.cfi_offset 4, -16
 975 0004 0E46     		mov	r6, r1
 976 0006 0025     		movs	r5, #0
ARM GAS  C:\Users\SUZUKI~1\AppData\Local\Temp\ccwVFYOj.s 			page 33


 977              		.loc 1 142 0
 978 0008 0BE0     		b	.L99
 979              	.LVL93:
 980              	.L100:
 981              		.loc 1 146 0
 982 000a 0120     		movs	r0, #1
 983 000c FFF7FEFF 		bl	CyDelayUs
 984              	.LVL94:
 985              	.L101:
 986              		.loc 1 144 0
 987 0010 064B     		ldr	r3, .L103
 988 0012 1B78     		ldrb	r3, [r3, #0]	@ zero_extendqisi2
 989 0014 13F0010F 		tst	r3, #1
 990 0018 F7D0     		beq	.L100
 991              		.loc 1 148 0
 992 001a 054B     		ldr	r3, .L103+4
 993 001c 1B78     		ldrb	r3, [r3, #0]	@ zero_extendqisi2
 994 001e 6355     		strb	r3, [r4, r5]
 995 0020 0135     		adds	r5, r5, #1
 996              	.L99:
 997              		.loc 1 142 0
 998 0022 EBB2     		uxtb	r3, r5
 999 0024 B342     		cmp	r3, r6
 1000 0026 F3D3     		bcc	.L101
 1001              		.loc 1 152 0
 1002 0028 3046     		mov	r0, r6
 1003 002a 70BD     		pop	{r4, r5, r6, pc}
 1004              	.L104:
 1005              		.align	2
 1006              	.L103:
 1007 002c 22470040 		.word	1073760034
 1008 0030 20470040 		.word	1073760032
 1009              		.cfi_endproc
 1010              	.LFE2:
 1011              		.size	CySpcReadData, .-CySpcReadData
 1012              		.global	SpcLockState
 1013              		.bss
 1014              		.set	.LANCHOR0,. + 0
 1015              		.type	SpcLockState, %object
 1016              		.size	SpcLockState, 1
 1017              	SpcLockState:
 1018 0000 00       		.space	1
 1019              		.text
 1020              	.Letext0:
