ARM GAS  C:\Users\SUZUKI~1\AppData\Local\Temp\ccxHwcvf.s 			page 1


   1              		.syntax unified
   2              		.cpu cortex-m3
   3              		.fpu softvfp
   4              		.eabi_attribute 20, 1
   5              		.eabi_attribute 21, 1
   6              		.eabi_attribute 23, 3
   7              		.eabi_attribute 24, 1
   8              		.eabi_attribute 25, 1
   9              		.eabi_attribute 26, 1
  10              		.eabi_attribute 30, 4
  11              		.eabi_attribute 18, 4
  12              		.thumb
  13              		.file	"ff.c"
  14              		.section	.debug_abbrev,"",%progbits
  15              	.Ldebug_abbrev0:
  16              		.section	.debug_info,"",%progbits
  17              	.Ldebug_info0:
  18              		.section	.debug_line,"",%progbits
  19              	.Ldebug_line0:
  20 0000 10070000 		.text
  20      0200CF00 
  20      00000201 
  20      FB0E0D00 
  20      01010101 
  21              	.Ltext0:
  22              		.cfi_sections	.debug_frame
  23              		.section	.text.mem_cpy,"ax",%progbits
  24              		.align	1
  25              		.thumb
  26              		.thumb_func
  27              		.type	mem_cpy, %function
  28              	mem_cpy:
  29              	.LFB0:
  30              		.file 1 ".\\sdc\\ff.c"
   1:.\sdc/ff.c    **** /*----------------------------------------------------------------------------/
   2:.\sdc/ff.c    **** /  FatFs - FAT file system module  R0.08a                 (C)ChaN, 2010
   3:.\sdc/ff.c    **** /-----------------------------------------------------------------------------/
   4:.\sdc/ff.c    **** / FatFs module is a generic FAT file system module for small embedded systems.
   5:.\sdc/ff.c    **** / This is a free software that opened for education, research and commercial
   6:.\sdc/ff.c    **** / developments under license policy of following terms.
   7:.\sdc/ff.c    **** /
   8:.\sdc/ff.c    **** /  Copyright (C) 2010, ChaN, all right reserved.
   9:.\sdc/ff.c    **** /
  10:.\sdc/ff.c    **** / * The FatFs module is a free software and there is NO WARRANTY.
  11:.\sdc/ff.c    **** / * No restriction on use. You can use, modify and redistribute it for
  12:.\sdc/ff.c    **** /   personal, non-profit or commercial products UNDER YOUR RESPONSIBILITY.
  13:.\sdc/ff.c    **** / * Redistributions of source code must retain the above copyright notice.
  14:.\sdc/ff.c    **** /
  15:.\sdc/ff.c    **** /-----------------------------------------------------------------------------/
  16:.\sdc/ff.c    **** / Feb 26,'06 R0.00  Prototype.
  17:.\sdc/ff.c    **** /
  18:.\sdc/ff.c    **** / Apr 29,'06 R0.01  First stable version.
  19:.\sdc/ff.c    **** /
  20:.\sdc/ff.c    **** / Jun 01,'06 R0.02  Added FAT12 support.
  21:.\sdc/ff.c    **** /                   Removed unbuffered mode.
  22:.\sdc/ff.c    **** /                   Fixed a problem on small (<32M) partition.
  23:.\sdc/ff.c    **** / Jun 10,'06 R0.02a Added a configuration option (_FS_MINIMUM).
ARM GAS  C:\Users\SUZUKI~1\AppData\Local\Temp\ccxHwcvf.s 			page 2


  24:.\sdc/ff.c    **** /
  25:.\sdc/ff.c    **** / Sep 22,'06 R0.03  Added f_rename().
  26:.\sdc/ff.c    **** /                   Changed option _FS_MINIMUM to _FS_MINIMIZE.
  27:.\sdc/ff.c    **** / Dec 11,'06 R0.03a Improved cluster scan algorithm to write files fast.
  28:.\sdc/ff.c    **** /                   Fixed f_mkdir() creates incorrect directory on FAT32.
  29:.\sdc/ff.c    **** /
  30:.\sdc/ff.c    **** / Feb 04,'07 R0.04  Supported multiple drive system.
  31:.\sdc/ff.c    **** /                   Changed some interfaces for multiple drive system.
  32:.\sdc/ff.c    **** /                   Changed f_mountdrv() to f_mount().
  33:.\sdc/ff.c    **** /                   Added f_mkfs().
  34:.\sdc/ff.c    **** / Apr 01,'07 R0.04a Supported multiple partitions on a physical drive.
  35:.\sdc/ff.c    **** /                   Added a capability of extending file size to f_lseek().
  36:.\sdc/ff.c    **** /                   Added minimization level 3.
  37:.\sdc/ff.c    **** /                   Fixed an endian sensitive code in f_mkfs().
  38:.\sdc/ff.c    **** / May 05,'07 R0.04b Added a configuration option _USE_NTFLAG.
  39:.\sdc/ff.c    **** /                   Added FSInfo support.
  40:.\sdc/ff.c    **** /                   Fixed DBCS name can result FR_INVALID_NAME.
  41:.\sdc/ff.c    **** /                   Fixed short seek (<= csize) collapses the file object.
  42:.\sdc/ff.c    **** /
  43:.\sdc/ff.c    **** / Aug 25,'07 R0.05  Changed arguments of f_read(), f_write() and f_mkfs().
  44:.\sdc/ff.c    **** /                   Fixed f_mkfs() on FAT32 creates incorrect FSInfo.
  45:.\sdc/ff.c    **** /                   Fixed f_mkdir() on FAT32 creates incorrect directory.
  46:.\sdc/ff.c    **** / Feb 03,'08 R0.05a Added f_truncate() and f_utime().
  47:.\sdc/ff.c    **** /                   Fixed off by one error at FAT sub-type determination.
  48:.\sdc/ff.c    **** /                   Fixed btr in f_read() can be mistruncated.
  49:.\sdc/ff.c    **** /                   Fixed cached sector is not flushed when create and close without write.
  50:.\sdc/ff.c    **** /
  51:.\sdc/ff.c    **** / Apr 01,'08 R0.06  Added fputc(), fputs(), fprintf() and fgets().
  52:.\sdc/ff.c    **** /                   Improved performance of f_lseek() on moving to the same or following cluster.
  53:.\sdc/ff.c    **** /
  54:.\sdc/ff.c    **** / Apr 01,'09 R0.07  Merged Tiny-FatFs as a buffer configuration option. (_FS_TINY)
  55:.\sdc/ff.c    **** /                   Added long file name support.
  56:.\sdc/ff.c    **** /                   Added multiple code page support.
  57:.\sdc/ff.c    **** /                   Added re-entrancy for multitask operation.
  58:.\sdc/ff.c    **** /                   Added auto cluster size selection to f_mkfs().
  59:.\sdc/ff.c    **** /                   Added rewind option to f_readdir().
  60:.\sdc/ff.c    **** /                   Changed result code of critical errors.
  61:.\sdc/ff.c    **** /                   Renamed string functions to avoid name collision.
  62:.\sdc/ff.c    **** / Apr 14,'09 R0.07a Separated out OS dependent code on reentrant cfg.
  63:.\sdc/ff.c    **** /                   Added multiple sector size support.
  64:.\sdc/ff.c    **** / Jun 21,'09 R0.07c Fixed f_unlink() can return FR_OK on error.
  65:.\sdc/ff.c    **** /                   Fixed wrong cache control in f_lseek().
  66:.\sdc/ff.c    **** /                   Added relative path feature.
  67:.\sdc/ff.c    **** /                   Added f_chdir() and f_chdrive().
  68:.\sdc/ff.c    **** /                   Added proper case conversion to extended char.
  69:.\sdc/ff.c    **** / Nov 03,'09 R0.07e Separated out configuration options from ff.h to ffconf.h.
  70:.\sdc/ff.c    **** /                   Fixed f_unlink() fails to remove a sub-dir on _FS_RPATH.
  71:.\sdc/ff.c    **** /                   Fixed name matching error on the 13 char boundary.
  72:.\sdc/ff.c    **** /                   Added a configuration option, _LFN_UNICODE.
  73:.\sdc/ff.c    **** /                   Changed f_readdir() to return the SFN with always upper case on non-LFN cfg.
  74:.\sdc/ff.c    **** /
  75:.\sdc/ff.c    **** / May 15,'10 R0.08  Added a memory configuration option. (_USE_LFN = 3)
  76:.\sdc/ff.c    **** /                   Added file lock feature. (_FS_SHARE)
  77:.\sdc/ff.c    **** /                   Added fast seek feature. (_USE_FASTSEEK)
  78:.\sdc/ff.c    **** /                   Changed some types on the API, XCHAR->TCHAR.
  79:.\sdc/ff.c    **** /                   Changed fname member in the FILINFO structure on Unicode cfg.
  80:.\sdc/ff.c    **** /                   String functions support UTF-8 encoding files on Unicode cfg.
ARM GAS  C:\Users\SUZUKI~1\AppData\Local\Temp\ccxHwcvf.s 			page 3


  81:.\sdc/ff.c    **** / Aug 16,'10 R0.08a Added f_getcwd(). (_FS_RPATH = 2)
  82:.\sdc/ff.c    **** /                   Added sector erase feature. (_USE_ERASE)
  83:.\sdc/ff.c    **** /                   Moved file lock semaphore table from fs object to the bss.
  84:.\sdc/ff.c    **** /                   Fixed a wrong directory entry is created on non-LFN cfg when the given name con
  85:.\sdc/ff.c    **** /                   Fixed f_mkfs() creates wrong FAT32 volume.
  86:.\sdc/ff.c    **** /---------------------------------------------------------------------------*/
  87:.\sdc/ff.c    **** 
  88:.\sdc/ff.c    **** #include "ff.h"			/* FatFs configurations and declarations */
  89:.\sdc/ff.c    **** #include "diskio.h"		/* Declarations of low level disk I/O functions */
  90:.\sdc/ff.c    **** 
  91:.\sdc/ff.c    **** 
  92:.\sdc/ff.c    **** /*--------------------------------------------------------------------------
  93:.\sdc/ff.c    **** 
  94:.\sdc/ff.c    ****    Module Private Definitions
  95:.\sdc/ff.c    **** 
  96:.\sdc/ff.c    **** ---------------------------------------------------------------------------*/
  97:.\sdc/ff.c    **** 
  98:.\sdc/ff.c    **** #if _FATFS != 8255
  99:.\sdc/ff.c    **** #error Wrong include file (ff.h).
 100:.\sdc/ff.c    **** #endif
 101:.\sdc/ff.c    **** 
 102:.\sdc/ff.c    **** 
 103:.\sdc/ff.c    **** /* Definitions on sector size */
 104:.\sdc/ff.c    **** #if _MAX_SS != 512 && _MAX_SS != 1024 && _MAX_SS != 2048 && _MAX_SS != 4096
 105:.\sdc/ff.c    **** #error Wrong sector size.
 106:.\sdc/ff.c    **** #endif
 107:.\sdc/ff.c    **** #if _MAX_SS != 512
 108:.\sdc/ff.c    **** #define	SS(fs)	((fs)->ssize)	/* Multiple sector size */
 109:.\sdc/ff.c    **** #else
 110:.\sdc/ff.c    **** #define	SS(fs)	512U			/* Fixed sector size */
 111:.\sdc/ff.c    **** #endif
 112:.\sdc/ff.c    **** 
 113:.\sdc/ff.c    **** 
 114:.\sdc/ff.c    **** /* Reentrancy related */
 115:.\sdc/ff.c    **** #if _FS_REENTRANT
 116:.\sdc/ff.c    **** #if _USE_LFN == 1
 117:.\sdc/ff.c    **** #error Static LFN work area must not be used in re-entrant configuration.
 118:.\sdc/ff.c    **** #endif
 119:.\sdc/ff.c    **** #define	ENTER_FF(fs)		{ if (!lock_fs(fs)) return FR_TIMEOUT; }
 120:.\sdc/ff.c    **** #define	LEAVE_FF(fs, res)	{ unlock_fs(fs, res); return res; }
 121:.\sdc/ff.c    **** #else
 122:.\sdc/ff.c    **** #define	ENTER_FF(fs)
 123:.\sdc/ff.c    **** #define LEAVE_FF(fs, res)	return res
 124:.\sdc/ff.c    **** #endif
 125:.\sdc/ff.c    **** 
 126:.\sdc/ff.c    **** #define	ABORT(fs, res)		{ fp->flag |= FA__ERROR; LEAVE_FF(fs, res); }
 127:.\sdc/ff.c    **** 
 128:.\sdc/ff.c    **** 
 129:.\sdc/ff.c    **** /* File shareing feature */
 130:.\sdc/ff.c    **** #if _FS_SHARE
 131:.\sdc/ff.c    **** #if _FS_READONLY
 132:.\sdc/ff.c    **** #error _FS_SHARE must be 0 on read-only cfg.
 133:.\sdc/ff.c    **** #endif
 134:.\sdc/ff.c    **** typedef struct {
 135:.\sdc/ff.c    **** 	FATFS *fs;				/* File ID 1, volume (NULL:blank entry) */
 136:.\sdc/ff.c    **** 	DWORD clu;				/* File ID 2, directory */
 137:.\sdc/ff.c    **** 	WORD idx;				/* File ID 3, directory index */
ARM GAS  C:\Users\SUZUKI~1\AppData\Local\Temp\ccxHwcvf.s 			page 4


 138:.\sdc/ff.c    **** 	WORD ctr;				/* File open counter, 0:none, 0x01..0xFF:read open count, 0x100:write mode */
 139:.\sdc/ff.c    **** } FILESEM;
 140:.\sdc/ff.c    **** #endif
 141:.\sdc/ff.c    **** 
 142:.\sdc/ff.c    **** 
 143:.\sdc/ff.c    **** /* Misc definitions */
 144:.\sdc/ff.c    **** #define LD_CLUST(dir)	(((DWORD)LD_WORD(dir+DIR_FstClusHI)<<16) | LD_WORD(dir+DIR_FstClusLO))
 145:.\sdc/ff.c    **** #define ST_CLUST(dir,cl) {ST_WORD(dir+DIR_FstClusLO, cl); ST_WORD(dir+DIR_FstClusHI, (DWORD)cl>>16)
 146:.\sdc/ff.c    **** 
 147:.\sdc/ff.c    **** 
 148:.\sdc/ff.c    **** /* Character code support macros */
 149:.\sdc/ff.c    **** #define IsUpper(c)	(((c)>='A')&&((c)<='Z'))
 150:.\sdc/ff.c    **** #define IsLower(c)	(((c)>='a')&&((c)<='z'))
 151:.\sdc/ff.c    **** #define IsDigit(c)	(((c)>='0')&&((c)<='9'))
 152:.\sdc/ff.c    **** 
 153:.\sdc/ff.c    **** #if _DF1S		/* Code page is DBCS */
 154:.\sdc/ff.c    **** 
 155:.\sdc/ff.c    **** #ifdef _DF2S	/* Two 1st byte areas */
 156:.\sdc/ff.c    **** #define IsDBCS1(c)	(((BYTE)(c) >= _DF1S && (BYTE)(c) <= _DF1E) || ((BYTE)(c) >= _DF2S && (BYTE)(c) 
 157:.\sdc/ff.c    **** #else			/* One 1st byte area */
 158:.\sdc/ff.c    **** #define IsDBCS1(c)	((BYTE)(c) >= _DF1S && (BYTE)(c) <= _DF1E)
 159:.\sdc/ff.c    **** #endif
 160:.\sdc/ff.c    **** 
 161:.\sdc/ff.c    **** #ifdef _DS3S	/* Three 2nd byte areas */
 162:.\sdc/ff.c    **** #define IsDBCS2(c)	(((BYTE)(c) >= _DS1S && (BYTE)(c) <= _DS1E) || ((BYTE)(c) >= _DS2S && (BYTE)(c) 
 163:.\sdc/ff.c    **** #else			/* Two 2nd byte areas */
 164:.\sdc/ff.c    **** #define IsDBCS2(c)	(((BYTE)(c) >= _DS1S && (BYTE)(c) <= _DS1E) || ((BYTE)(c) >= _DS2S && (BYTE)(c) 
 165:.\sdc/ff.c    **** #endif
 166:.\sdc/ff.c    **** 
 167:.\sdc/ff.c    **** #else			/* Code page is SBCS */
 168:.\sdc/ff.c    **** 
 169:.\sdc/ff.c    **** #define IsDBCS1(c)	0
 170:.\sdc/ff.c    **** #define IsDBCS2(c)	0
 171:.\sdc/ff.c    **** 
 172:.\sdc/ff.c    **** #endif /* _DF1S */
 173:.\sdc/ff.c    **** 
 174:.\sdc/ff.c    **** 
 175:.\sdc/ff.c    **** /* Name status flags */
 176:.\sdc/ff.c    **** #define NS			11		/* Offset of name status byte */
 177:.\sdc/ff.c    **** #define NS_LOSS		0x01	/* Out of 8.3 format */
 178:.\sdc/ff.c    **** #define NS_LFN		0x02	/* Force to create LFN entry */
 179:.\sdc/ff.c    **** #define NS_LAST		0x04	/* Last segment */
 180:.\sdc/ff.c    **** #define NS_BODY		0x08	/* Lower case flag (body) */
 181:.\sdc/ff.c    **** #define NS_EXT		0x10	/* Lower case flag (ext) */
 182:.\sdc/ff.c    **** #define NS_DOT		0x20	/* Dot entry */
 183:.\sdc/ff.c    **** 
 184:.\sdc/ff.c    **** 
 185:.\sdc/ff.c    **** /* FAT sub-type boundaries */
 186:.\sdc/ff.c    **** /* Note that the FAT spec by Microsoft says 4085 but Windows works with 4087! */
 187:.\sdc/ff.c    **** #define MIN_FAT16	4086	/* Minimum number of clusters for FAT16 */
 188:.\sdc/ff.c    **** #define	MIN_FAT32	65526	/* Minimum number of clusters for FAT32 */
 189:.\sdc/ff.c    **** 
 190:.\sdc/ff.c    **** 
 191:.\sdc/ff.c    **** /* FatFs refers the members in the FAT structures as byte array instead of
 192:.\sdc/ff.c    **** / structure member because there are incompatibility of the packing option
 193:.\sdc/ff.c    **** / between compilers. */
 194:.\sdc/ff.c    **** 
ARM GAS  C:\Users\SUZUKI~1\AppData\Local\Temp\ccxHwcvf.s 			page 5


 195:.\sdc/ff.c    **** #define BS_jmpBoot			0
 196:.\sdc/ff.c    **** #define BS_OEMName			3
 197:.\sdc/ff.c    **** #define BPB_BytsPerSec		11
 198:.\sdc/ff.c    **** #define BPB_SecPerClus		13
 199:.\sdc/ff.c    **** #define BPB_RsvdSecCnt		14
 200:.\sdc/ff.c    **** #define BPB_NumFATs			16
 201:.\sdc/ff.c    **** #define BPB_RootEntCnt		17
 202:.\sdc/ff.c    **** #define BPB_TotSec16		19
 203:.\sdc/ff.c    **** #define BPB_Media			21
 204:.\sdc/ff.c    **** #define BPB_FATSz16			22
 205:.\sdc/ff.c    **** #define BPB_SecPerTrk		24
 206:.\sdc/ff.c    **** #define BPB_NumHeads		26
 207:.\sdc/ff.c    **** #define BPB_HiddSec			28
 208:.\sdc/ff.c    **** #define BPB_TotSec32		32
 209:.\sdc/ff.c    **** #define BS_DrvNum			36
 210:.\sdc/ff.c    **** #define BS_BootSig			38
 211:.\sdc/ff.c    **** #define BS_VolID			39
 212:.\sdc/ff.c    **** #define BS_VolLab			43
 213:.\sdc/ff.c    **** #define BS_FilSysType		54
 214:.\sdc/ff.c    **** #define BPB_FATSz32			36
 215:.\sdc/ff.c    **** #define BPB_ExtFlags		40
 216:.\sdc/ff.c    **** #define BPB_FSVer			42
 217:.\sdc/ff.c    **** #define BPB_RootClus		44
 218:.\sdc/ff.c    **** #define BPB_FSInfo			48
 219:.\sdc/ff.c    **** #define BPB_BkBootSec		50
 220:.\sdc/ff.c    **** #define BS_DrvNum32			64
 221:.\sdc/ff.c    **** #define BS_BootSig32		66
 222:.\sdc/ff.c    **** #define BS_VolID32			67
 223:.\sdc/ff.c    **** #define BS_VolLab32			71
 224:.\sdc/ff.c    **** #define BS_FilSysType32		82
 225:.\sdc/ff.c    **** #define	FSI_LeadSig			0
 226:.\sdc/ff.c    **** #define	FSI_StrucSig		484
 227:.\sdc/ff.c    **** #define	FSI_Free_Count		488
 228:.\sdc/ff.c    **** #define	FSI_Nxt_Free		492
 229:.\sdc/ff.c    **** #define MBR_Table			446
 230:.\sdc/ff.c    **** #define BS_55AA				510
 231:.\sdc/ff.c    **** 
 232:.\sdc/ff.c    **** #define	DIR_Name			0
 233:.\sdc/ff.c    **** #define	DIR_Attr			11
 234:.\sdc/ff.c    **** #define	DIR_NTres			12
 235:.\sdc/ff.c    **** #define	DIR_CrtTime			14
 236:.\sdc/ff.c    **** #define	DIR_CrtDate			16
 237:.\sdc/ff.c    **** #define	DIR_FstClusHI		20
 238:.\sdc/ff.c    **** #define	DIR_WrtTime			22
 239:.\sdc/ff.c    **** #define	DIR_WrtDate			24
 240:.\sdc/ff.c    **** #define	DIR_FstClusLO		26
 241:.\sdc/ff.c    **** #define	DIR_FileSize		28
 242:.\sdc/ff.c    **** #define	LDIR_Ord			0
 243:.\sdc/ff.c    **** #define	LDIR_Attr			11
 244:.\sdc/ff.c    **** #define	LDIR_Type			12
 245:.\sdc/ff.c    **** #define	LDIR_Chksum			13
 246:.\sdc/ff.c    **** #define	LDIR_FstClusLO		26
 247:.\sdc/ff.c    **** 
 248:.\sdc/ff.c    **** 
 249:.\sdc/ff.c    **** 
 250:.\sdc/ff.c    **** /*------------------------------------------------------------*/
 251:.\sdc/ff.c    **** /* Work area                                                  */
ARM GAS  C:\Users\SUZUKI~1\AppData\Local\Temp\ccxHwcvf.s 			page 6


 252:.\sdc/ff.c    **** 
 253:.\sdc/ff.c    **** #if _VOLUMES
 254:.\sdc/ff.c    **** static
 255:.\sdc/ff.c    **** FATFS *FatFs[_VOLUMES];	/* Pointer to the file system objects (logical drives) */
 256:.\sdc/ff.c    **** #else
 257:.\sdc/ff.c    **** #error Number of drives must not be 0.
 258:.\sdc/ff.c    **** #endif
 259:.\sdc/ff.c    **** 
 260:.\sdc/ff.c    **** static
 261:.\sdc/ff.c    **** WORD Fsid;				/* File system mount ID */
 262:.\sdc/ff.c    **** 
 263:.\sdc/ff.c    **** #if _FS_RPATH
 264:.\sdc/ff.c    **** static
 265:.\sdc/ff.c    **** BYTE CurrVol;			/* Current drive */
 266:.\sdc/ff.c    **** #endif
 267:.\sdc/ff.c    **** 
 268:.\sdc/ff.c    **** #if _FS_SHARE
 269:.\sdc/ff.c    **** static
 270:.\sdc/ff.c    **** FILESEM	Files[_FS_SHARE];	/* File lock semaphores */
 271:.\sdc/ff.c    **** #endif
 272:.\sdc/ff.c    **** 
 273:.\sdc/ff.c    **** #if _USE_LFN == 0			/* No LFN */
 274:.\sdc/ff.c    **** #define	DEF_NAMEBUF			BYTE sfn[12]
 275:.\sdc/ff.c    **** #define INIT_BUF(dobj)		(dobj).fn = sfn
 276:.\sdc/ff.c    **** #define	FREE_BUF()
 277:.\sdc/ff.c    **** 
 278:.\sdc/ff.c    **** #elif _USE_LFN == 1			/* LFN with static LFN working buffer */
 279:.\sdc/ff.c    **** static WCHAR LfnBuf[_MAX_LFN+1];
 280:.\sdc/ff.c    **** #define	DEF_NAMEBUF			BYTE sfn[12]
 281:.\sdc/ff.c    **** #define INIT_BUF(dobj)		{ (dobj).fn = sfn; (dobj).lfn = LfnBuf; }
 282:.\sdc/ff.c    **** #define	FREE_BUF()
 283:.\sdc/ff.c    **** 
 284:.\sdc/ff.c    **** #elif _USE_LFN == 2 		/* LFN with dynamic LFN working buffer on the stack */
 285:.\sdc/ff.c    **** #define	DEF_NAMEBUF			BYTE sfn[12]; WCHAR lbuf[_MAX_LFN+1]
 286:.\sdc/ff.c    **** #define INIT_BUF(dobj)		{ (dobj).fn = sfn; (dobj).lfn = lbuf; }
 287:.\sdc/ff.c    **** #define	FREE_BUF()
 288:.\sdc/ff.c    **** 
 289:.\sdc/ff.c    **** #elif _USE_LFN == 3 		/* LFN with dynamic LFN working buffer on the heap */
 290:.\sdc/ff.c    **** #define	DEF_NAMEBUF			BYTE sfn[12]; WCHAR *lfn
 291:.\sdc/ff.c    **** #define INIT_BUF(dobj)		{ lfn = ff_memalloc((_MAX_LFN + 1) * 2); \
 292:.\sdc/ff.c    **** 							  if (!lfn) LEAVE_FF((dobj).fs, FR_NOT_ENOUGH_CORE); \
 293:.\sdc/ff.c    **** 							  (dobj).lfn = lfn;	(dobj).fn = sfn; }
 294:.\sdc/ff.c    **** #define	FREE_BUF()			ff_memfree(lfn)
 295:.\sdc/ff.c    **** 
 296:.\sdc/ff.c    **** #else
 297:.\sdc/ff.c    **** #error Wrong LFN configuration.
 298:.\sdc/ff.c    **** #endif
 299:.\sdc/ff.c    **** 
 300:.\sdc/ff.c    **** 
 301:.\sdc/ff.c    **** 
 302:.\sdc/ff.c    **** 
 303:.\sdc/ff.c    **** /*--------------------------------------------------------------------------
 304:.\sdc/ff.c    **** 
 305:.\sdc/ff.c    ****    Module Private Functions
 306:.\sdc/ff.c    **** 
 307:.\sdc/ff.c    **** ---------------------------------------------------------------------------*/
 308:.\sdc/ff.c    **** 
ARM GAS  C:\Users\SUZUKI~1\AppData\Local\Temp\ccxHwcvf.s 			page 7


 309:.\sdc/ff.c    **** 
 310:.\sdc/ff.c    **** /*-----------------------------------------------------------------------*/
 311:.\sdc/ff.c    **** /* String functions                                                      */
 312:.\sdc/ff.c    **** /*-----------------------------------------------------------------------*/
 313:.\sdc/ff.c    **** 
 314:.\sdc/ff.c    **** /* Copy memory to memory */
 315:.\sdc/ff.c    **** static
 316:.\sdc/ff.c    **** void mem_cpy (void* dst, const void* src, UINT cnt) {
  31              		.loc 1 316 0
  32              		.cfi_startproc
  33              		@ args = 0, pretend = 0, frame = 0
  34              		@ frame_needed = 0, uses_anonymous_args = 0
  35              		@ link register save eliminated.
  36              	.LVL0:
  37              		.loc 1 316 0
  38 0000 0023     		movs	r3, #0
 317:.\sdc/ff.c    **** 	BYTE *d = (BYTE*)dst;
 318:.\sdc/ff.c    **** 	const BYTE *s = (const BYTE*)src;
 319:.\sdc/ff.c    **** 
 320:.\sdc/ff.c    **** #if _WORD_ACCESS == 1
 321:.\sdc/ff.c    **** 	while (cnt >= sizeof(int)) {
 322:.\sdc/ff.c    **** 		*(int*)d = *(int*)s;
 323:.\sdc/ff.c    **** 		d += sizeof(int); s += sizeof(int);
 324:.\sdc/ff.c    **** 		cnt -= sizeof(int);
 325:.\sdc/ff.c    **** 	}
 326:.\sdc/ff.c    **** #endif
 327:.\sdc/ff.c    **** 	while (cnt--)
  39              		.loc 1 327 0
  40 0002 05E0     		b	.L2
  41              	.L3:
 328:.\sdc/ff.c    **** 		*d++ = *s++;
  42              		.loc 1 328 0
  43 0004 11F803C0 		ldrb	ip, [r1, r3]	@ zero_extendqisi2
  44 0008 013A     		subs	r2, r2, #1
  45              	.LVL1:
  46 000a 00F803C0 		strb	ip, [r0, r3]
  47 000e 0133     		adds	r3, r3, #1
  48              	.L2:
  49              		.loc 1 327 0
  50 0010 002A     		cmp	r2, #0
  51 0012 F7D1     		bne	.L3
 329:.\sdc/ff.c    **** }
  52              		.loc 1 329 0
  53 0014 7047     		bx	lr
  54              		.cfi_endproc
  55              	.LFE0:
  56              		.size	mem_cpy, .-mem_cpy
  57              		.section	.text.mem_set,"ax",%progbits
  58              		.align	1
  59              		.thumb
  60              		.thumb_func
  61              		.type	mem_set, %function
  62              	mem_set:
  63              	.LFB1:
 330:.\sdc/ff.c    **** 
 331:.\sdc/ff.c    **** /* Fill memory */
 332:.\sdc/ff.c    **** static
ARM GAS  C:\Users\SUZUKI~1\AppData\Local\Temp\ccxHwcvf.s 			page 8


 333:.\sdc/ff.c    **** void mem_set (void* dst, int val, UINT cnt) {
  64              		.loc 1 333 0
  65              		.cfi_startproc
  66              		@ args = 0, pretend = 0, frame = 0
  67              		@ frame_needed = 0, uses_anonymous_args = 0
  68              		@ link register save eliminated.
  69              	.LVL2:
  70              		.loc 1 333 0
  71 0000 0023     		movs	r3, #0
 334:.\sdc/ff.c    **** 	BYTE *d = (BYTE*)dst;
 335:.\sdc/ff.c    **** 
 336:.\sdc/ff.c    **** 	while (cnt--)
  72              		.loc 1 336 0
  73 0002 02E0     		b	.L7
  74              	.L8:
 337:.\sdc/ff.c    **** 		*d++ = (BYTE)val;
  75              		.loc 1 337 0
  76 0004 C154     		strb	r1, [r0, r3]
  77 0006 013A     		subs	r2, r2, #1
  78              	.LVL3:
  79 0008 0133     		adds	r3, r3, #1
  80              	.L7:
  81              		.loc 1 336 0
  82 000a 002A     		cmp	r2, #0
  83 000c FAD1     		bne	.L8
 338:.\sdc/ff.c    **** }
  84              		.loc 1 338 0
  85 000e 7047     		bx	lr
  86              		.cfi_endproc
  87              	.LFE1:
  88              		.size	mem_set, .-mem_set
  89              		.section	.text.clust2sect,"ax",%progbits
  90              		.align	1
  91              		.global	clust2sect
  92              		.thumb
  93              		.thumb_func
  94              		.type	clust2sect, %function
  95              	clust2sect:
  96              	.LFB6:
 339:.\sdc/ff.c    **** 
 340:.\sdc/ff.c    **** /* Compare memory to memory */
 341:.\sdc/ff.c    **** static
 342:.\sdc/ff.c    **** int mem_cmp (const void* dst, const void* src, UINT cnt) {
 343:.\sdc/ff.c    **** 	const BYTE *d = (const BYTE *)dst, *s = (const BYTE *)src;
 344:.\sdc/ff.c    **** 	int r = 0;
 345:.\sdc/ff.c    **** 
 346:.\sdc/ff.c    **** 	while (cnt-- && (r = *d++ - *s++) == 0) ;
 347:.\sdc/ff.c    **** 	return r;
 348:.\sdc/ff.c    **** }
 349:.\sdc/ff.c    **** 
 350:.\sdc/ff.c    **** /* Check if chr is contained in the string */
 351:.\sdc/ff.c    **** static
 352:.\sdc/ff.c    **** int chk_chr (const char* str, int chr) {
 353:.\sdc/ff.c    **** 	while (*str && *str != chr) str++;
 354:.\sdc/ff.c    **** 	return *str;
 355:.\sdc/ff.c    **** }
 356:.\sdc/ff.c    **** 
ARM GAS  C:\Users\SUZUKI~1\AppData\Local\Temp\ccxHwcvf.s 			page 9


 357:.\sdc/ff.c    **** 
 358:.\sdc/ff.c    **** 
 359:.\sdc/ff.c    **** /*-----------------------------------------------------------------------*/
 360:.\sdc/ff.c    **** /* Request/Release grant to access the volume                            */
 361:.\sdc/ff.c    **** /*-----------------------------------------------------------------------*/
 362:.\sdc/ff.c    **** #if _FS_REENTRANT
 363:.\sdc/ff.c    **** 
 364:.\sdc/ff.c    **** static
 365:.\sdc/ff.c    **** int lock_fs (
 366:.\sdc/ff.c    **** 	FATFS *fs		/* File system object */
 367:.\sdc/ff.c    **** )
 368:.\sdc/ff.c    **** {
 369:.\sdc/ff.c    **** 	return ff_req_grant(fs->sobj);
 370:.\sdc/ff.c    **** }
 371:.\sdc/ff.c    **** 
 372:.\sdc/ff.c    **** 
 373:.\sdc/ff.c    **** static
 374:.\sdc/ff.c    **** void unlock_fs (
 375:.\sdc/ff.c    **** 	FATFS *fs,		/* File system object */
 376:.\sdc/ff.c    **** 	FRESULT res		/* Result code to be returned */
 377:.\sdc/ff.c    **** )
 378:.\sdc/ff.c    **** {
 379:.\sdc/ff.c    **** 	if (res != FR_NOT_ENABLED &&
 380:.\sdc/ff.c    **** 		res != FR_INVALID_DRIVE &&
 381:.\sdc/ff.c    **** 		res != FR_INVALID_OBJECT &&
 382:.\sdc/ff.c    **** 		res != FR_TIMEOUT) {
 383:.\sdc/ff.c    **** 		ff_rel_grant(fs->sobj);
 384:.\sdc/ff.c    **** 	}
 385:.\sdc/ff.c    **** }
 386:.\sdc/ff.c    **** #endif
 387:.\sdc/ff.c    **** 
 388:.\sdc/ff.c    **** 
 389:.\sdc/ff.c    **** 
 390:.\sdc/ff.c    **** /*-----------------------------------------------------------------------*/
 391:.\sdc/ff.c    **** /* File shareing control functions                                       */
 392:.\sdc/ff.c    **** /*-----------------------------------------------------------------------*/
 393:.\sdc/ff.c    **** #if _FS_SHARE
 394:.\sdc/ff.c    **** 
 395:.\sdc/ff.c    **** static
 396:.\sdc/ff.c    **** FRESULT chk_lock (	/* Check if the file can be accessed */
 397:.\sdc/ff.c    **** 	DIR* dj,		/* Directory object pointing the file to be checked */
 398:.\sdc/ff.c    **** 	int acc			/* Desired access (0:Read, 1:Write, 2:Delete/Rename) */
 399:.\sdc/ff.c    **** )
 400:.\sdc/ff.c    **** {
 401:.\sdc/ff.c    **** 	UINT i, be;
 402:.\sdc/ff.c    **** 
 403:.\sdc/ff.c    **** 	/* Search file semaphore table */
 404:.\sdc/ff.c    **** 	for (i = be = 0; i < _FS_SHARE; i++) {
 405:.\sdc/ff.c    **** 		if (Files[i].fs) {	/* Existing entry */
 406:.\sdc/ff.c    **** 			if (Files[i].fs == dj->fs &&	 	/* Check if the file matched with an open file */
 407:.\sdc/ff.c    **** 				Files[i].clu == dj->sclust &&
 408:.\sdc/ff.c    **** 				Files[i].idx == dj->index) break;
 409:.\sdc/ff.c    **** 		} else {			/* Blank entry */
 410:.\sdc/ff.c    **** 			be++;
 411:.\sdc/ff.c    **** 		}
 412:.\sdc/ff.c    **** 	}
 413:.\sdc/ff.c    **** 	if (i == _FS_SHARE)	/* The file is not opened */
ARM GAS  C:\Users\SUZUKI~1\AppData\Local\Temp\ccxHwcvf.s 			page 10


 414:.\sdc/ff.c    **** 		return (be || acc == 2) ? FR_OK : FR_TOO_MANY_OPEN_FILES;	/* Is there a blank entry for new file?
 415:.\sdc/ff.c    **** 
 416:.\sdc/ff.c    **** 	/* The file has been opened. Reject any open against writing file and all write mode open */
 417:.\sdc/ff.c    **** 	return (acc || Files[i].ctr == 0x100) ? FR_LOCKED : FR_OK;
 418:.\sdc/ff.c    **** }
 419:.\sdc/ff.c    **** 
 420:.\sdc/ff.c    **** 
 421:.\sdc/ff.c    **** static
 422:.\sdc/ff.c    **** int enq_lock (	/* Check if an entry is available for a new file */
 423:.\sdc/ff.c    **** 	FATFS* fs	/* File system object */
 424:.\sdc/ff.c    **** )
 425:.\sdc/ff.c    **** {
 426:.\sdc/ff.c    **** 	UINT i;
 427:.\sdc/ff.c    **** 
 428:.\sdc/ff.c    **** 	for (i = 0; i < _FS_SHARE && Files[i].fs; i++) ;
 429:.\sdc/ff.c    **** 	return (i == _FS_SHARE) ? 0 : 1;
 430:.\sdc/ff.c    **** }
 431:.\sdc/ff.c    **** 
 432:.\sdc/ff.c    **** 
 433:.\sdc/ff.c    **** static
 434:.\sdc/ff.c    **** UINT inc_lock (	/* Increment file open counter and returns its index (0:int error) */
 435:.\sdc/ff.c    **** 	DIR* dj,	/* Directory object pointing the file to register or increment */
 436:.\sdc/ff.c    **** 	int acc		/* Desired access mode (0:Read, !0:Write) */
 437:.\sdc/ff.c    **** )
 438:.\sdc/ff.c    **** {
 439:.\sdc/ff.c    **** 	UINT i;
 440:.\sdc/ff.c    **** 
 441:.\sdc/ff.c    **** 
 442:.\sdc/ff.c    **** 	for (i = 0; i < _FS_SHARE; i++) {	/* Find the file */
 443:.\sdc/ff.c    **** 		if (Files[i].fs == dj->fs &&
 444:.\sdc/ff.c    **** 			Files[i].clu == dj->sclust &&
 445:.\sdc/ff.c    **** 			Files[i].idx == dj->index) break;
 446:.\sdc/ff.c    **** 	}
 447:.\sdc/ff.c    **** 
 448:.\sdc/ff.c    **** 	if (i == _FS_SHARE) {				/* Not opened. Register it as new. */
 449:.\sdc/ff.c    **** 		for (i = 0; i < _FS_SHARE && Files[i].fs; i++) ;
 450:.\sdc/ff.c    **** 		if (i == _FS_SHARE) return 0;	/* No space to register (int err) */
 451:.\sdc/ff.c    **** 		Files[i].fs = dj->fs;
 452:.\sdc/ff.c    **** 		Files[i].clu = dj->sclust;
 453:.\sdc/ff.c    **** 		Files[i].idx = dj->index;
 454:.\sdc/ff.c    **** 		Files[i].ctr = 0;
 455:.\sdc/ff.c    **** 	}
 456:.\sdc/ff.c    **** 
 457:.\sdc/ff.c    **** 	if (acc && Files[i].ctr) return 0;	/* Access violation (int err) */
 458:.\sdc/ff.c    **** 
 459:.\sdc/ff.c    **** 	Files[i].ctr = acc ? 0x100 : Files[i].ctr + 1;	/* Set semaphore value */
 460:.\sdc/ff.c    **** 
 461:.\sdc/ff.c    **** 	return i + 1;
 462:.\sdc/ff.c    **** }
 463:.\sdc/ff.c    **** 
 464:.\sdc/ff.c    **** 
 465:.\sdc/ff.c    **** static
 466:.\sdc/ff.c    **** FRESULT dec_lock (	/* Decrement file open counter */
 467:.\sdc/ff.c    **** 	UINT i			/* Semaphore index */
 468:.\sdc/ff.c    **** )
 469:.\sdc/ff.c    **** {
 470:.\sdc/ff.c    **** 	WORD n;
ARM GAS  C:\Users\SUZUKI~1\AppData\Local\Temp\ccxHwcvf.s 			page 11


 471:.\sdc/ff.c    **** 	FRESULT res;
 472:.\sdc/ff.c    **** 
 473:.\sdc/ff.c    **** 
 474:.\sdc/ff.c    **** 	if (--i < _FS_SHARE) {
 475:.\sdc/ff.c    **** 		n = Files[i].ctr;
 476:.\sdc/ff.c    **** 		if (n == 0x100) n = 0;
 477:.\sdc/ff.c    **** 		if (n) n--;
 478:.\sdc/ff.c    **** 		Files[i].ctr = n;
 479:.\sdc/ff.c    **** 		if (!n) Files[i].fs = 0;
 480:.\sdc/ff.c    **** 		res = FR_OK;
 481:.\sdc/ff.c    **** 	} else {
 482:.\sdc/ff.c    **** 		res = FR_INT_ERR;
 483:.\sdc/ff.c    **** 	}
 484:.\sdc/ff.c    **** 	return res;
 485:.\sdc/ff.c    **** }
 486:.\sdc/ff.c    **** 
 487:.\sdc/ff.c    **** 
 488:.\sdc/ff.c    **** static
 489:.\sdc/ff.c    **** void clear_lock (	/* Clear lock entries of the volume */
 490:.\sdc/ff.c    **** 	FATFS *fs
 491:.\sdc/ff.c    **** )
 492:.\sdc/ff.c    **** {
 493:.\sdc/ff.c    **** 	UINT i;
 494:.\sdc/ff.c    **** 
 495:.\sdc/ff.c    **** 	for (i = 0; i < _FS_SHARE; i++) {
 496:.\sdc/ff.c    **** 		if (Files[i].fs == fs) Files[i].fs = 0;
 497:.\sdc/ff.c    **** 	}
 498:.\sdc/ff.c    **** }
 499:.\sdc/ff.c    **** #endif
 500:.\sdc/ff.c    **** 
 501:.\sdc/ff.c    **** 
 502:.\sdc/ff.c    **** 
 503:.\sdc/ff.c    **** /*-----------------------------------------------------------------------*/
 504:.\sdc/ff.c    **** /* Change window offset                                                  */
 505:.\sdc/ff.c    **** /*-----------------------------------------------------------------------*/
 506:.\sdc/ff.c    **** 
 507:.\sdc/ff.c    **** static
 508:.\sdc/ff.c    **** FRESULT move_window (
 509:.\sdc/ff.c    **** 	FATFS *fs,		/* File system object */
 510:.\sdc/ff.c    **** 	DWORD sector	/* Sector number to make appearance in the fs->win[] */
 511:.\sdc/ff.c    **** )					/* Move to zero only writes back dirty window */
 512:.\sdc/ff.c    **** {
 513:.\sdc/ff.c    **** 	DWORD wsect;
 514:.\sdc/ff.c    **** 
 515:.\sdc/ff.c    **** 
 516:.\sdc/ff.c    **** 	wsect = fs->winsect;
 517:.\sdc/ff.c    **** 	if (wsect != sector) {	/* Changed current window */
 518:.\sdc/ff.c    **** #if !_FS_READONLY
 519:.\sdc/ff.c    **** 		if (fs->wflag) {	/* Write back dirty window if needed */
 520:.\sdc/ff.c    **** 			if (disk_write(fs->drv, fs->win, wsect, 1) != RES_OK)
 521:.\sdc/ff.c    **** 				return FR_DISK_ERR;
 522:.\sdc/ff.c    **** 			fs->wflag = 0;
 523:.\sdc/ff.c    **** 			if (wsect < (fs->fatbase + fs->fsize)) {	/* In FAT area */
 524:.\sdc/ff.c    **** 				BYTE nf;
 525:.\sdc/ff.c    **** 				for (nf = fs->n_fats; nf > 1; nf--) {	/* Reflect the change to all FAT copies */
 526:.\sdc/ff.c    **** 					wsect += fs->fsize;
 527:.\sdc/ff.c    **** 					disk_write(fs->drv, fs->win, wsect, 1);
ARM GAS  C:\Users\SUZUKI~1\AppData\Local\Temp\ccxHwcvf.s 			page 12


 528:.\sdc/ff.c    **** 				}
 529:.\sdc/ff.c    **** 			}
 530:.\sdc/ff.c    **** 		}
 531:.\sdc/ff.c    **** #endif
 532:.\sdc/ff.c    **** 		if (sector) {
 533:.\sdc/ff.c    **** 			if (disk_read(fs->drv, fs->win, sector, 1) != RES_OK)
 534:.\sdc/ff.c    **** 				return FR_DISK_ERR;
 535:.\sdc/ff.c    **** 			fs->winsect = sector;
 536:.\sdc/ff.c    **** 		}
 537:.\sdc/ff.c    **** 	}
 538:.\sdc/ff.c    **** 
 539:.\sdc/ff.c    **** 	return FR_OK;
 540:.\sdc/ff.c    **** }
 541:.\sdc/ff.c    **** 
 542:.\sdc/ff.c    **** 
 543:.\sdc/ff.c    **** 
 544:.\sdc/ff.c    **** 
 545:.\sdc/ff.c    **** /*-----------------------------------------------------------------------*/
 546:.\sdc/ff.c    **** /* Clean-up cached data                                                  */
 547:.\sdc/ff.c    **** /*-----------------------------------------------------------------------*/
 548:.\sdc/ff.c    **** #if !_FS_READONLY
 549:.\sdc/ff.c    **** static
 550:.\sdc/ff.c    **** FRESULT sync (	/* FR_OK: successful, FR_DISK_ERR: failed */
 551:.\sdc/ff.c    **** 	FATFS *fs	/* File system object */
 552:.\sdc/ff.c    **** )
 553:.\sdc/ff.c    **** {
 554:.\sdc/ff.c    **** 	FRESULT res;
 555:.\sdc/ff.c    **** 
 556:.\sdc/ff.c    **** 
 557:.\sdc/ff.c    **** 	res = move_window(fs, 0);
 558:.\sdc/ff.c    **** 	if (res == FR_OK) {
 559:.\sdc/ff.c    **** 		/* Update FSInfo sector if needed */
 560:.\sdc/ff.c    **** 		if (fs->fs_type == FS_FAT32 && fs->fsi_flag) {
 561:.\sdc/ff.c    **** 			fs->winsect = 0;
 562:.\sdc/ff.c    **** 			mem_set(fs->win, 0, 512);
 563:.\sdc/ff.c    **** 			ST_WORD(fs->win+BS_55AA, 0xAA55);
 564:.\sdc/ff.c    **** 			ST_DWORD(fs->win+FSI_LeadSig, 0x41615252);
 565:.\sdc/ff.c    **** 			ST_DWORD(fs->win+FSI_StrucSig, 0x61417272);
 566:.\sdc/ff.c    **** 			ST_DWORD(fs->win+FSI_Free_Count, fs->free_clust);
 567:.\sdc/ff.c    **** 			ST_DWORD(fs->win+FSI_Nxt_Free, fs->last_clust);
 568:.\sdc/ff.c    **** 			disk_write(fs->drv, fs->win, fs->fsi_sector, 1);
 569:.\sdc/ff.c    **** 			fs->fsi_flag = 0;
 570:.\sdc/ff.c    **** 		}
 571:.\sdc/ff.c    **** 		/* Make sure that no pending write process in the physical drive */
 572:.\sdc/ff.c    **** 		if (disk_ioctl(fs->drv, CTRL_SYNC, (void*)0) != RES_OK)
 573:.\sdc/ff.c    **** 			res = FR_DISK_ERR;
 574:.\sdc/ff.c    **** 	}
 575:.\sdc/ff.c    **** 
 576:.\sdc/ff.c    **** 	return res;
 577:.\sdc/ff.c    **** }
 578:.\sdc/ff.c    **** #endif
 579:.\sdc/ff.c    **** 
 580:.\sdc/ff.c    **** 
 581:.\sdc/ff.c    **** 
 582:.\sdc/ff.c    **** 
 583:.\sdc/ff.c    **** /*-----------------------------------------------------------------------*/
 584:.\sdc/ff.c    **** /* Get sector# from cluster#                                             */
ARM GAS  C:\Users\SUZUKI~1\AppData\Local\Temp\ccxHwcvf.s 			page 13


 585:.\sdc/ff.c    **** /*-----------------------------------------------------------------------*/
 586:.\sdc/ff.c    **** 
 587:.\sdc/ff.c    **** 
 588:.\sdc/ff.c    **** DWORD clust2sect (	/* !=0: Sector number, 0: Failed - invalid cluster# */
 589:.\sdc/ff.c    **** 	FATFS *fs,		/* File system object */
 590:.\sdc/ff.c    **** 	DWORD clst		/* Cluster# to be converted */
 591:.\sdc/ff.c    **** )
 592:.\sdc/ff.c    **** {
  97              		.loc 1 592 0
  98              		.cfi_startproc
  99              		@ args = 0, pretend = 0, frame = 0
 100              		@ frame_needed = 0, uses_anonymous_args = 0
 101              		@ link register save eliminated.
 102              	.LVL4:
 593:.\sdc/ff.c    **** 	clst -= 2;
 594:.\sdc/ff.c    **** 	if (clst >= (fs->n_fatent - 2)) return 0;		/* Invalid cluster# */
 103              		.loc 1 594 0
 104 0000 C369     		ldr	r3, [r0, #28]
 105              		.loc 1 593 0
 106 0002 0239     		subs	r1, r1, #2
 107              	.LVL5:
 108              		.loc 1 594 0
 109 0004 023B     		subs	r3, r3, #2
 110 0006 9942     		cmp	r1, r3
 111 0008 01D3     		bcc	.L11
 112 000a 0020     		movs	r0, #0
 113              	.LVL6:
 114 000c 7047     		bx	lr
 115              	.LVL7:
 116              	.L11:
 595:.\sdc/ff.c    **** 	return clst * fs->csize + fs->database;
 117              		.loc 1 595 0
 118 000e 8278     		ldrb	r2, [r0, #2]	@ zero_extendqisi2
 119 0010 C36A     		ldr	r3, [r0, #44]
 120 0012 02FB0130 		mla	r0, r2, r1, r3
 121              	.LVL8:
 596:.\sdc/ff.c    **** }
 122              		.loc 1 596 0
 123 0016 7047     		bx	lr
 124              		.cfi_endproc
 125              	.LFE6:
 126              		.size	clust2sect, .-clust2sect
 127              		.section	.text.get_fileinfo,"ax",%progbits
 128              		.align	1
 129              		.thumb
 130              		.thumb_func
 131              		.type	get_fileinfo, %function
 132              	get_fileinfo:
 133              	.LFB17:
 597:.\sdc/ff.c    **** 
 598:.\sdc/ff.c    **** 
 599:.\sdc/ff.c    **** 
 600:.\sdc/ff.c    **** 
 601:.\sdc/ff.c    **** /*-----------------------------------------------------------------------*/
 602:.\sdc/ff.c    **** /* FAT access - Read value of a FAT entry                                */
 603:.\sdc/ff.c    **** /*-----------------------------------------------------------------------*/
 604:.\sdc/ff.c    **** 
ARM GAS  C:\Users\SUZUKI~1\AppData\Local\Temp\ccxHwcvf.s 			page 14


 605:.\sdc/ff.c    **** 
 606:.\sdc/ff.c    **** DWORD get_fat (	/* 0xFFFFFFFF:Disk error, 1:Internal error, Else:Cluster status */
 607:.\sdc/ff.c    **** 	FATFS *fs,	/* File system object */
 608:.\sdc/ff.c    **** 	DWORD clst	/* Cluster# to get the link information */
 609:.\sdc/ff.c    **** )
 610:.\sdc/ff.c    **** {
 611:.\sdc/ff.c    **** 	UINT wc, bc;
 612:.\sdc/ff.c    **** 	BYTE *p;
 613:.\sdc/ff.c    **** 
 614:.\sdc/ff.c    **** 
 615:.\sdc/ff.c    **** 	if (clst < 2 || clst >= fs->n_fatent)	/* Chack range */
 616:.\sdc/ff.c    **** 		return 1;
 617:.\sdc/ff.c    **** 
 618:.\sdc/ff.c    **** 	switch (fs->fs_type) {
 619:.\sdc/ff.c    **** 	case FS_FAT12 :
 620:.\sdc/ff.c    **** 		bc = (UINT)clst; bc += bc / 2;
 621:.\sdc/ff.c    **** 		if (move_window(fs, fs->fatbase + (bc / SS(fs)))) break;
 622:.\sdc/ff.c    **** 		wc = fs->win[bc % SS(fs)]; bc++;
 623:.\sdc/ff.c    **** 		if (move_window(fs, fs->fatbase + (bc / SS(fs)))) break;
 624:.\sdc/ff.c    **** 		wc |= fs->win[bc % SS(fs)] << 8;
 625:.\sdc/ff.c    **** 		return (clst & 1) ? (wc >> 4) : (wc & 0xFFF);
 626:.\sdc/ff.c    **** 
 627:.\sdc/ff.c    **** 	case FS_FAT16 :
 628:.\sdc/ff.c    **** 		if (move_window(fs, fs->fatbase + (clst / (SS(fs) / 2)))) break;
 629:.\sdc/ff.c    **** 		p = &fs->win[clst * 2 % SS(fs)];
 630:.\sdc/ff.c    **** 		return LD_WORD(p);
 631:.\sdc/ff.c    **** 
 632:.\sdc/ff.c    **** 	case FS_FAT32 :
 633:.\sdc/ff.c    **** 		if (move_window(fs, fs->fatbase + (clst / (SS(fs) / 4)))) break;
 634:.\sdc/ff.c    **** 		p = &fs->win[clst * 4 % SS(fs)];
 635:.\sdc/ff.c    **** 		return LD_DWORD(p) & 0x0FFFFFFF;
 636:.\sdc/ff.c    **** 	}
 637:.\sdc/ff.c    **** 
 638:.\sdc/ff.c    **** 	return 0xFFFFFFFF;	/* An error occurred at the disk I/O layer */
 639:.\sdc/ff.c    **** }
 640:.\sdc/ff.c    **** 
 641:.\sdc/ff.c    **** 
 642:.\sdc/ff.c    **** 
 643:.\sdc/ff.c    **** 
 644:.\sdc/ff.c    **** /*-----------------------------------------------------------------------*/
 645:.\sdc/ff.c    **** /* FAT access - Change value of a FAT entry                              */
 646:.\sdc/ff.c    **** /*-----------------------------------------------------------------------*/
 647:.\sdc/ff.c    **** #if !_FS_READONLY
 648:.\sdc/ff.c    **** 
 649:.\sdc/ff.c    **** FRESULT put_fat (
 650:.\sdc/ff.c    **** 	FATFS *fs,	/* File system object */
 651:.\sdc/ff.c    **** 	DWORD clst,	/* Cluster# to be changed in range of 2 to fs->n_fatent - 1 */
 652:.\sdc/ff.c    **** 	DWORD val	/* New value to mark the cluster */
 653:.\sdc/ff.c    **** )
 654:.\sdc/ff.c    **** {
 655:.\sdc/ff.c    **** 	UINT bc;
 656:.\sdc/ff.c    **** 	BYTE *p;
 657:.\sdc/ff.c    **** 	FRESULT res;
 658:.\sdc/ff.c    **** 
 659:.\sdc/ff.c    **** 
 660:.\sdc/ff.c    **** 	if (clst < 2 || clst >= fs->n_fatent) {	/* Check range */
 661:.\sdc/ff.c    **** 		res = FR_INT_ERR;
ARM GAS  C:\Users\SUZUKI~1\AppData\Local\Temp\ccxHwcvf.s 			page 15


 662:.\sdc/ff.c    **** 
 663:.\sdc/ff.c    **** 	} else {
 664:.\sdc/ff.c    **** 		switch (fs->fs_type) {
 665:.\sdc/ff.c    **** 		case FS_FAT12 :
 666:.\sdc/ff.c    **** 			bc = clst; bc += bc / 2;
 667:.\sdc/ff.c    **** 			res = move_window(fs, fs->fatbase + (bc / SS(fs)));
 668:.\sdc/ff.c    **** 			if (res != FR_OK) break;
 669:.\sdc/ff.c    **** 			p = &fs->win[bc % SS(fs)];
 670:.\sdc/ff.c    **** 			*p = (clst & 1) ? ((*p & 0x0F) | ((BYTE)val << 4)) : (BYTE)val;
 671:.\sdc/ff.c    **** 			bc++;
 672:.\sdc/ff.c    **** 			fs->wflag = 1;
 673:.\sdc/ff.c    **** 			res = move_window(fs, fs->fatbase + (bc / SS(fs)));
 674:.\sdc/ff.c    **** 			if (res != FR_OK) break;
 675:.\sdc/ff.c    **** 			p = &fs->win[bc % SS(fs)];
 676:.\sdc/ff.c    **** 			*p = (clst & 1) ? (BYTE)(val >> 4) : ((*p & 0xF0) | ((BYTE)(val >> 8) & 0x0F));
 677:.\sdc/ff.c    **** 			break;
 678:.\sdc/ff.c    **** 
 679:.\sdc/ff.c    **** 		case FS_FAT16 :
 680:.\sdc/ff.c    **** 			res = move_window(fs, fs->fatbase + (clst / (SS(fs) / 2)));
 681:.\sdc/ff.c    **** 			if (res != FR_OK) break;
 682:.\sdc/ff.c    **** 			p = &fs->win[clst * 2 % SS(fs)];
 683:.\sdc/ff.c    **** 			ST_WORD(p, (WORD)val);
 684:.\sdc/ff.c    **** 			break;
 685:.\sdc/ff.c    **** 
 686:.\sdc/ff.c    **** 		case FS_FAT32 :
 687:.\sdc/ff.c    **** 			res = move_window(fs, fs->fatbase + (clst / (SS(fs) / 4)));
 688:.\sdc/ff.c    **** 			if (res != FR_OK) break;
 689:.\sdc/ff.c    **** 			p = &fs->win[clst * 4 % SS(fs)];
 690:.\sdc/ff.c    **** 			val |= LD_DWORD(p) & 0xF0000000;
 691:.\sdc/ff.c    **** 			ST_DWORD(p, val);
 692:.\sdc/ff.c    **** 			break;
 693:.\sdc/ff.c    **** 
 694:.\sdc/ff.c    **** 		default :
 695:.\sdc/ff.c    **** 			res = FR_INT_ERR;
 696:.\sdc/ff.c    **** 		}
 697:.\sdc/ff.c    **** 		fs->wflag = 1;
 698:.\sdc/ff.c    **** 	}
 699:.\sdc/ff.c    **** 
 700:.\sdc/ff.c    **** 	return res;
 701:.\sdc/ff.c    **** }
 702:.\sdc/ff.c    **** #endif /* !_FS_READONLY */
 703:.\sdc/ff.c    **** 
 704:.\sdc/ff.c    **** 
 705:.\sdc/ff.c    **** 
 706:.\sdc/ff.c    **** 
 707:.\sdc/ff.c    **** /*-----------------------------------------------------------------------*/
 708:.\sdc/ff.c    **** /* FAT handling - Remove a cluster chain                                 */
 709:.\sdc/ff.c    **** /*-----------------------------------------------------------------------*/
 710:.\sdc/ff.c    **** #if !_FS_READONLY
 711:.\sdc/ff.c    **** static
 712:.\sdc/ff.c    **** FRESULT remove_chain (
 713:.\sdc/ff.c    **** 	FATFS *fs,			/* File system object */
 714:.\sdc/ff.c    **** 	DWORD clst			/* Cluster# to remove a chain from */
 715:.\sdc/ff.c    **** )
 716:.\sdc/ff.c    **** {
 717:.\sdc/ff.c    **** 	FRESULT res;
 718:.\sdc/ff.c    **** 	DWORD nxt;
ARM GAS  C:\Users\SUZUKI~1\AppData\Local\Temp\ccxHwcvf.s 			page 16


 719:.\sdc/ff.c    **** #if _USE_ERASE
 720:.\sdc/ff.c    **** 	DWORD scl = clst, ecl = clst, resion[2];
 721:.\sdc/ff.c    **** #endif
 722:.\sdc/ff.c    **** 
 723:.\sdc/ff.c    **** 	if (clst < 2 || clst >= fs->n_fatent) {	/* Check range */
 724:.\sdc/ff.c    **** 		res = FR_INT_ERR;
 725:.\sdc/ff.c    **** 
 726:.\sdc/ff.c    **** 	} else {
 727:.\sdc/ff.c    **** 		res = FR_OK;
 728:.\sdc/ff.c    **** 		while (clst < fs->n_fatent) {			/* Not a last link? */
 729:.\sdc/ff.c    **** 			nxt = get_fat(fs, clst);			/* Get cluster status */
 730:.\sdc/ff.c    **** 			if (nxt == 0) break;				/* Empty cluster? */
 731:.\sdc/ff.c    **** 			if (nxt == 1) { res = FR_INT_ERR; break; }	/* Internal error? */
 732:.\sdc/ff.c    **** 			if (nxt == 0xFFFFFFFF) { res = FR_DISK_ERR; break; }	/* Disk error? */
 733:.\sdc/ff.c    **** 			res = put_fat(fs, clst, 0);			/* Mark the cluster "empty" */
 734:.\sdc/ff.c    **** 			if (res != FR_OK) break;
 735:.\sdc/ff.c    **** 			if (fs->free_clust != 0xFFFFFFFF) {	/* Update FSInfo */
 736:.\sdc/ff.c    **** 				fs->free_clust++;
 737:.\sdc/ff.c    **** 				fs->fsi_flag = 1;
 738:.\sdc/ff.c    **** 			}
 739:.\sdc/ff.c    **** #if _USE_ERASE
 740:.\sdc/ff.c    **** 			if (ecl + 1 == nxt) {	/* Next cluster is contiguous */
 741:.\sdc/ff.c    **** 				ecl = nxt;
 742:.\sdc/ff.c    **** 			} else {				/* End of contiguous clusters */ 
 743:.\sdc/ff.c    **** 				resion[0] = clust2sect(fs, scl);					/* Start sector */
 744:.\sdc/ff.c    **** 				resion[1] = clust2sect(fs, ecl) + fs->csize - 1;	/* End sector */
 745:.\sdc/ff.c    **** 				disk_ioctl(fs->drv, CTRL_ERASE_SECTOR, resion);		/* Erase the block */
 746:.\sdc/ff.c    **** 				scl = ecl = nxt;
 747:.\sdc/ff.c    **** 			}
 748:.\sdc/ff.c    **** #endif
 749:.\sdc/ff.c    **** 			clst = nxt;	/* Next cluster */
 750:.\sdc/ff.c    **** 		}
 751:.\sdc/ff.c    **** 	}
 752:.\sdc/ff.c    **** 
 753:.\sdc/ff.c    **** 	return res;
 754:.\sdc/ff.c    **** }
 755:.\sdc/ff.c    **** #endif
 756:.\sdc/ff.c    **** 
 757:.\sdc/ff.c    **** 
 758:.\sdc/ff.c    **** 
 759:.\sdc/ff.c    **** 
 760:.\sdc/ff.c    **** /*-----------------------------------------------------------------------*/
 761:.\sdc/ff.c    **** /* FAT handling - Stretch or Create a cluster chain                      */
 762:.\sdc/ff.c    **** /*-----------------------------------------------------------------------*/
 763:.\sdc/ff.c    **** #if !_FS_READONLY
 764:.\sdc/ff.c    **** static
 765:.\sdc/ff.c    **** DWORD create_chain (	/* 0:No free cluster, 1:Internal error, 0xFFFFFFFF:Disk error, >=2:New cluster
 766:.\sdc/ff.c    **** 	FATFS *fs,			/* File system object */
 767:.\sdc/ff.c    **** 	DWORD clst			/* Cluster# to stretch. 0 means create a new chain. */
 768:.\sdc/ff.c    **** )
 769:.\sdc/ff.c    **** {
 770:.\sdc/ff.c    **** 	DWORD cs, ncl, scl;
 771:.\sdc/ff.c    **** 	FRESULT res;
 772:.\sdc/ff.c    **** 
 773:.\sdc/ff.c    **** 
 774:.\sdc/ff.c    **** 	if (clst == 0) {		/* Create a new chain */
 775:.\sdc/ff.c    **** 		scl = fs->last_clust;			/* Get suggested start point */
ARM GAS  C:\Users\SUZUKI~1\AppData\Local\Temp\ccxHwcvf.s 			page 17


 776:.\sdc/ff.c    **** 		if (!scl || scl >= fs->n_fatent) scl = 1;
 777:.\sdc/ff.c    **** 	}
 778:.\sdc/ff.c    **** 	else {					/* Stretch the current chain */
 779:.\sdc/ff.c    **** 		cs = get_fat(fs, clst);			/* Check the cluster status */
 780:.\sdc/ff.c    **** 		if (cs < 2) return 1;			/* It is an invalid cluster */
 781:.\sdc/ff.c    **** 		if (cs < fs->n_fatent) return cs;	/* It is already followed by next cluster */
 782:.\sdc/ff.c    **** 		scl = clst;
 783:.\sdc/ff.c    **** 	}
 784:.\sdc/ff.c    **** 
 785:.\sdc/ff.c    **** 	ncl = scl;				/* Start cluster */
 786:.\sdc/ff.c    **** 	for (;;) {
 787:.\sdc/ff.c    **** 		ncl++;							/* Next cluster */
 788:.\sdc/ff.c    **** 		if (ncl >= fs->n_fatent) {		/* Wrap around */
 789:.\sdc/ff.c    **** 			ncl = 2;
 790:.\sdc/ff.c    **** 			if (ncl > scl) return 0;	/* No free cluster */
 791:.\sdc/ff.c    **** 		}
 792:.\sdc/ff.c    **** 		cs = get_fat(fs, ncl);			/* Get the cluster status */
 793:.\sdc/ff.c    **** 		if (cs == 0) break;				/* Found a free cluster */
 794:.\sdc/ff.c    **** 		if (cs == 0xFFFFFFFF || cs == 1)/* An error occurred */
 795:.\sdc/ff.c    **** 			return cs;
 796:.\sdc/ff.c    **** 		if (ncl == scl) return 0;		/* No free cluster */
 797:.\sdc/ff.c    **** 	}
 798:.\sdc/ff.c    **** 
 799:.\sdc/ff.c    **** 	res = put_fat(fs, ncl, 0x0FFFFFFF);	/* Mark the new cluster "last link" */
 800:.\sdc/ff.c    **** 	if (res == FR_OK && clst != 0) {
 801:.\sdc/ff.c    **** 		res = put_fat(fs, clst, ncl);	/* Link it to the previous one if needed */
 802:.\sdc/ff.c    **** 	}
 803:.\sdc/ff.c    **** 	if (res == FR_OK) {
 804:.\sdc/ff.c    **** 		fs->last_clust = ncl;			/* Update FSINFO */
 805:.\sdc/ff.c    **** 		if (fs->free_clust != 0xFFFFFFFF) {
 806:.\sdc/ff.c    **** 			fs->free_clust--;
 807:.\sdc/ff.c    **** 			fs->fsi_flag = 1;
 808:.\sdc/ff.c    **** 		}
 809:.\sdc/ff.c    **** 	} else {
 810:.\sdc/ff.c    **** 		ncl = (res == FR_DISK_ERR) ? 0xFFFFFFFF : 1;
 811:.\sdc/ff.c    **** 	}
 812:.\sdc/ff.c    **** 
 813:.\sdc/ff.c    **** 	return ncl;		/* Return new cluster number or error code */
 814:.\sdc/ff.c    **** }
 815:.\sdc/ff.c    **** #endif /* !_FS_READONLY */
 816:.\sdc/ff.c    **** 
 817:.\sdc/ff.c    **** 
 818:.\sdc/ff.c    **** 
 819:.\sdc/ff.c    **** 
 820:.\sdc/ff.c    **** /*-----------------------------------------------------------------------*/
 821:.\sdc/ff.c    **** /* Directory handling - Set directory index                              */
 822:.\sdc/ff.c    **** /*-----------------------------------------------------------------------*/
 823:.\sdc/ff.c    **** 
 824:.\sdc/ff.c    **** static
 825:.\sdc/ff.c    **** FRESULT dir_sdi (
 826:.\sdc/ff.c    **** 	DIR *dj,		/* Pointer to directory object */
 827:.\sdc/ff.c    **** 	WORD idx		/* Directory index number */
 828:.\sdc/ff.c    **** )
 829:.\sdc/ff.c    **** {
 830:.\sdc/ff.c    **** 	DWORD clst;
 831:.\sdc/ff.c    **** 	WORD ic;
 832:.\sdc/ff.c    **** 
ARM GAS  C:\Users\SUZUKI~1\AppData\Local\Temp\ccxHwcvf.s 			page 18


 833:.\sdc/ff.c    **** 
 834:.\sdc/ff.c    **** 	dj->index = idx;
 835:.\sdc/ff.c    **** 	clst = dj->sclust;
 836:.\sdc/ff.c    **** 	if (clst == 1 || clst >= dj->fs->n_fatent)	/* Check start cluster range */
 837:.\sdc/ff.c    **** 		return FR_INT_ERR;
 838:.\sdc/ff.c    **** 	if (!clst && dj->fs->fs_type == FS_FAT32)	/* Replace cluster# 0 with root cluster# if in FAT32 */
 839:.\sdc/ff.c    **** 		clst = dj->fs->dirbase;
 840:.\sdc/ff.c    **** 
 841:.\sdc/ff.c    **** 	if (clst == 0) {	/* Static table (root-dir in FAT12/16) */
 842:.\sdc/ff.c    **** 		dj->clust = clst;
 843:.\sdc/ff.c    **** 		if (idx >= dj->fs->n_rootdir)		/* Index is out of range */
 844:.\sdc/ff.c    **** 			return FR_INT_ERR;
 845:.\sdc/ff.c    **** 		dj->sect = dj->fs->dirbase + idx / (SS(dj->fs) / 32);	/* Sector# */
 846:.\sdc/ff.c    **** 	}
 847:.\sdc/ff.c    **** 	else {				/* Dynamic table (sub-dirs or root-dir in FAT32) */
 848:.\sdc/ff.c    **** 		ic = SS(dj->fs) / 32 * dj->fs->csize;	/* Entries per cluster */
 849:.\sdc/ff.c    **** 		while (idx >= ic) {	/* Follow cluster chain */
 850:.\sdc/ff.c    **** 			clst = get_fat(dj->fs, clst);				/* Get next cluster */
 851:.\sdc/ff.c    **** 			if (clst == 0xFFFFFFFF) return FR_DISK_ERR;	/* Disk error */
 852:.\sdc/ff.c    **** 			if (clst < 2 || clst >= dj->fs->n_fatent)	/* Reached to end of table or int error */
 853:.\sdc/ff.c    **** 				return FR_INT_ERR;
 854:.\sdc/ff.c    **** 			idx -= ic;
 855:.\sdc/ff.c    **** 		}
 856:.\sdc/ff.c    **** 		dj->clust = clst;
 857:.\sdc/ff.c    **** 		dj->sect = clust2sect(dj->fs, clst) + idx / (SS(dj->fs) / 32);	/* Sector# */
 858:.\sdc/ff.c    **** 	}
 859:.\sdc/ff.c    **** 
 860:.\sdc/ff.c    **** 	dj->dir = dj->fs->win + (idx % (SS(dj->fs) / 32)) * 32;	/* Ptr to the entry in the sector */
 861:.\sdc/ff.c    **** 
 862:.\sdc/ff.c    **** 	return FR_OK;	/* Seek succeeded */
 863:.\sdc/ff.c    **** }
 864:.\sdc/ff.c    **** 
 865:.\sdc/ff.c    **** 
 866:.\sdc/ff.c    **** 
 867:.\sdc/ff.c    **** 
 868:.\sdc/ff.c    **** /*-----------------------------------------------------------------------*/
 869:.\sdc/ff.c    **** /* Directory handling - Move directory index next                        */
 870:.\sdc/ff.c    **** /*-----------------------------------------------------------------------*/
 871:.\sdc/ff.c    **** 
 872:.\sdc/ff.c    **** static
 873:.\sdc/ff.c    **** FRESULT dir_next (	/* FR_OK:Succeeded, FR_NO_FILE:End of table, FR_DENIED:EOT and could not stretch
 874:.\sdc/ff.c    **** 	DIR *dj,		/* Pointer to directory object */
 875:.\sdc/ff.c    **** 	int stretch		/* 0: Do not stretch table, 1: Stretch table if needed */
 876:.\sdc/ff.c    **** )
 877:.\sdc/ff.c    **** {
 878:.\sdc/ff.c    **** 	DWORD clst;
 879:.\sdc/ff.c    **** 	WORD i;
 880:.\sdc/ff.c    **** 
 881:.\sdc/ff.c    **** 
 882:.\sdc/ff.c    **** 	i = dj->index + 1;
 883:.\sdc/ff.c    **** 	if (!i || !dj->sect)	/* Report EOT when index has reached 65535 */
 884:.\sdc/ff.c    **** 		return FR_NO_FILE;
 885:.\sdc/ff.c    **** 
 886:.\sdc/ff.c    **** 	if (!(i % (SS(dj->fs) / 32))) {	/* Sector changed? */
 887:.\sdc/ff.c    **** 		dj->sect++;					/* Next sector */
 888:.\sdc/ff.c    **** 
 889:.\sdc/ff.c    **** 		if (dj->clust == 0) {	/* Static table */
ARM GAS  C:\Users\SUZUKI~1\AppData\Local\Temp\ccxHwcvf.s 			page 19


 890:.\sdc/ff.c    **** 			if (i >= dj->fs->n_rootdir)	/* Report EOT when end of table */
 891:.\sdc/ff.c    **** 				return FR_NO_FILE;
 892:.\sdc/ff.c    **** 		}
 893:.\sdc/ff.c    **** 		else {					/* Dynamic table */
 894:.\sdc/ff.c    **** 			if (((i / (SS(dj->fs) / 32)) & (dj->fs->csize - 1)) == 0) {	/* Cluster changed? */
 895:.\sdc/ff.c    **** 				clst = get_fat(dj->fs, dj->clust);				/* Get next cluster */
 896:.\sdc/ff.c    **** 				if (clst <= 1) return FR_INT_ERR;
 897:.\sdc/ff.c    **** 				if (clst == 0xFFFFFFFF) return FR_DISK_ERR;
 898:.\sdc/ff.c    **** 				if (clst >= dj->fs->n_fatent) {					/* When it reached end of dynamic table */
 899:.\sdc/ff.c    **** #if !_FS_READONLY
 900:.\sdc/ff.c    **** 					BYTE c;
 901:.\sdc/ff.c    **** 					if (!stretch) return FR_NO_FILE;			/* When do not stretch, report EOT */
 902:.\sdc/ff.c    **** 					clst = create_chain(dj->fs, dj->clust);		/* Stretch cluster chain */
 903:.\sdc/ff.c    **** 					if (clst == 0) return FR_DENIED;			/* No free cluster */
 904:.\sdc/ff.c    **** 					if (clst == 1) return FR_INT_ERR;
 905:.\sdc/ff.c    **** 					if (clst == 0xFFFFFFFF) return FR_DISK_ERR;
 906:.\sdc/ff.c    **** 					/* Clean-up stretched table */
 907:.\sdc/ff.c    **** 					if (move_window(dj->fs, 0)) return FR_DISK_ERR;	/* Flush active window */
 908:.\sdc/ff.c    **** 					mem_set(dj->fs->win, 0, SS(dj->fs));			/* Clear window buffer */
 909:.\sdc/ff.c    **** 					dj->fs->winsect = clust2sect(dj->fs, clst);	/* Cluster start sector */
 910:.\sdc/ff.c    **** 					for (c = 0; c < dj->fs->csize; c++) {		/* Fill the new cluster with 0 */
 911:.\sdc/ff.c    **** 						dj->fs->wflag = 1;
 912:.\sdc/ff.c    **** 						if (move_window(dj->fs, 0)) return FR_DISK_ERR;
 913:.\sdc/ff.c    **** 						dj->fs->winsect++;
 914:.\sdc/ff.c    **** 					}
 915:.\sdc/ff.c    **** 					dj->fs->winsect -= c;						/* Rewind window address */
 916:.\sdc/ff.c    **** #else
 917:.\sdc/ff.c    **** 					return FR_NO_FILE;			/* Report EOT */
 918:.\sdc/ff.c    **** #endif
 919:.\sdc/ff.c    **** 				}
 920:.\sdc/ff.c    **** 				dj->clust = clst;				/* Initialize data for new cluster */
 921:.\sdc/ff.c    **** 				dj->sect = clust2sect(dj->fs, clst);
 922:.\sdc/ff.c    **** 			}
 923:.\sdc/ff.c    **** 		}
 924:.\sdc/ff.c    **** 	}
 925:.\sdc/ff.c    **** 
 926:.\sdc/ff.c    **** 	dj->index = i;
 927:.\sdc/ff.c    **** 	dj->dir = dj->fs->win + (i % (SS(dj->fs) / 32)) * 32;
 928:.\sdc/ff.c    **** 
 929:.\sdc/ff.c    **** 	return FR_OK;
 930:.\sdc/ff.c    **** }
 931:.\sdc/ff.c    **** 
 932:.\sdc/ff.c    **** 
 933:.\sdc/ff.c    **** 
 934:.\sdc/ff.c    **** 
 935:.\sdc/ff.c    **** /*-----------------------------------------------------------------------*/
 936:.\sdc/ff.c    **** /* LFN handling - Test/Pick/Fit an LFN segment from/to directory entry   */
 937:.\sdc/ff.c    **** /*-----------------------------------------------------------------------*/
 938:.\sdc/ff.c    **** #if _USE_LFN
 939:.\sdc/ff.c    **** static
 940:.\sdc/ff.c    **** const BYTE LfnOfs[] = {1,3,5,7,9,14,16,18,20,22,24,28,30};	/* Offset of LFN chars in the directory 
 941:.\sdc/ff.c    **** 
 942:.\sdc/ff.c    **** 
 943:.\sdc/ff.c    **** static
 944:.\sdc/ff.c    **** int cmp_lfn (			/* 1:Matched, 0:Not matched */
 945:.\sdc/ff.c    **** 	WCHAR *lfnbuf,		/* Pointer to the LFN to be compared */
 946:.\sdc/ff.c    **** 	BYTE *dir			/* Pointer to the directory entry containing a part of LFN */
ARM GAS  C:\Users\SUZUKI~1\AppData\Local\Temp\ccxHwcvf.s 			page 20


 947:.\sdc/ff.c    **** )
 948:.\sdc/ff.c    **** {
 949:.\sdc/ff.c    **** 	UINT i, s;
 950:.\sdc/ff.c    **** 	WCHAR wc, uc;
 951:.\sdc/ff.c    **** 
 952:.\sdc/ff.c    **** 
 953:.\sdc/ff.c    **** 	i = ((dir[LDIR_Ord] & 0xBF) - 1) * 13;	/* Get offset in the LFN buffer */
 954:.\sdc/ff.c    **** 	s = 0; wc = 1;
 955:.\sdc/ff.c    **** 	do {
 956:.\sdc/ff.c    **** 		uc = LD_WORD(dir+LfnOfs[s]);	/* Pick an LFN character from the entry */
 957:.\sdc/ff.c    **** 		if (wc) {	/* Last char has not been processed */
 958:.\sdc/ff.c    **** 			wc = ff_wtoupper(uc);		/* Convert it to upper case */
 959:.\sdc/ff.c    **** 			if (i >= _MAX_LFN || wc != ff_wtoupper(lfnbuf[i++]))	/* Compare it */
 960:.\sdc/ff.c    **** 				return 0;				/* Not matched */
 961:.\sdc/ff.c    **** 		} else {
 962:.\sdc/ff.c    **** 			if (uc != 0xFFFF) return 0;	/* Check filler */
 963:.\sdc/ff.c    **** 		}
 964:.\sdc/ff.c    **** 	} while (++s < 13);				/* Repeat until all chars in the entry are checked */
 965:.\sdc/ff.c    **** 
 966:.\sdc/ff.c    **** 	if ((dir[LDIR_Ord] & 0x40) && wc && lfnbuf[i])	/* Last segment matched but different length */
 967:.\sdc/ff.c    **** 		return 0;
 968:.\sdc/ff.c    **** 
 969:.\sdc/ff.c    **** 	return 1;						/* The part of LFN matched */
 970:.\sdc/ff.c    **** }
 971:.\sdc/ff.c    **** 
 972:.\sdc/ff.c    **** 
 973:.\sdc/ff.c    **** 
 974:.\sdc/ff.c    **** static
 975:.\sdc/ff.c    **** int pick_lfn (			/* 1:Succeeded, 0:Buffer overflow */
 976:.\sdc/ff.c    **** 	WCHAR *lfnbuf,		/* Pointer to the Unicode-LFN buffer */
 977:.\sdc/ff.c    **** 	BYTE *dir			/* Pointer to the directory entry */
 978:.\sdc/ff.c    **** )
 979:.\sdc/ff.c    **** {
 980:.\sdc/ff.c    **** 	UINT i, s;
 981:.\sdc/ff.c    **** 	WCHAR wc, uc;
 982:.\sdc/ff.c    **** 
 983:.\sdc/ff.c    **** 
 984:.\sdc/ff.c    **** 	i = ((dir[LDIR_Ord] & 0x3F) - 1) * 13;	/* Offset in the LFN buffer */
 985:.\sdc/ff.c    **** 
 986:.\sdc/ff.c    **** 	s = 0; wc = 1;
 987:.\sdc/ff.c    **** 	do {
 988:.\sdc/ff.c    **** 		uc = LD_WORD(dir+LfnOfs[s]);		/* Pick an LFN character from the entry */
 989:.\sdc/ff.c    **** 		if (wc) {	/* Last char has not been processed */
 990:.\sdc/ff.c    **** 			if (i >= _MAX_LFN) return 0;	/* Buffer overflow? */
 991:.\sdc/ff.c    **** 			lfnbuf[i++] = wc = uc;			/* Store it */
 992:.\sdc/ff.c    **** 		} else {
 993:.\sdc/ff.c    **** 			if (uc != 0xFFFF) return 0;		/* Check filler */
 994:.\sdc/ff.c    **** 		}
 995:.\sdc/ff.c    **** 	} while (++s < 13);						/* Read all character in the entry */
 996:.\sdc/ff.c    **** 
 997:.\sdc/ff.c    **** 	if (dir[LDIR_Ord] & 0x40) {				/* Put terminator if it is the last LFN part */
 998:.\sdc/ff.c    **** 		if (i >= _MAX_LFN) return 0;		/* Buffer overflow? */
 999:.\sdc/ff.c    **** 		lfnbuf[i] = 0;
1000:.\sdc/ff.c    **** 	}
1001:.\sdc/ff.c    **** 
1002:.\sdc/ff.c    **** 	return 1;
1003:.\sdc/ff.c    **** }
ARM GAS  C:\Users\SUZUKI~1\AppData\Local\Temp\ccxHwcvf.s 			page 21


1004:.\sdc/ff.c    **** 
1005:.\sdc/ff.c    **** 
1006:.\sdc/ff.c    **** #if !_FS_READONLY
1007:.\sdc/ff.c    **** static
1008:.\sdc/ff.c    **** void fit_lfn (
1009:.\sdc/ff.c    **** 	const WCHAR *lfnbuf,	/* Pointer to the LFN buffer */
1010:.\sdc/ff.c    **** 	BYTE *dir,				/* Pointer to the directory entry */
1011:.\sdc/ff.c    **** 	BYTE ord,				/* LFN order (1-20) */
1012:.\sdc/ff.c    **** 	BYTE sum				/* SFN sum */
1013:.\sdc/ff.c    **** )
1014:.\sdc/ff.c    **** {
1015:.\sdc/ff.c    **** 	UINT i, s;
1016:.\sdc/ff.c    **** 	WCHAR wc;
1017:.\sdc/ff.c    **** 
1018:.\sdc/ff.c    **** 
1019:.\sdc/ff.c    **** 	dir[LDIR_Chksum] = sum;			/* Set check sum */
1020:.\sdc/ff.c    **** 	dir[LDIR_Attr] = AM_LFN;		/* Set attribute. LFN entry */
1021:.\sdc/ff.c    **** 	dir[LDIR_Type] = 0;
1022:.\sdc/ff.c    **** 	ST_WORD(dir+LDIR_FstClusLO, 0);
1023:.\sdc/ff.c    **** 
1024:.\sdc/ff.c    **** 	i = (ord - 1) * 13;				/* Get offset in the LFN buffer */
1025:.\sdc/ff.c    **** 	s = wc = 0;
1026:.\sdc/ff.c    **** 	do {
1027:.\sdc/ff.c    **** 		if (wc != 0xFFFF) wc = lfnbuf[i++];	/* Get an effective char */
1028:.\sdc/ff.c    **** 		ST_WORD(dir+LfnOfs[s], wc);	/* Put it */
1029:.\sdc/ff.c    **** 		if (!wc) wc = 0xFFFF;		/* Padding chars following last char */
1030:.\sdc/ff.c    **** 	} while (++s < 13);
1031:.\sdc/ff.c    **** 	if (wc == 0xFFFF || !lfnbuf[i]) ord |= 0x40;	/* Bottom LFN part is the start of LFN sequence */
1032:.\sdc/ff.c    **** 	dir[LDIR_Ord] = ord;			/* Set the LFN order */
1033:.\sdc/ff.c    **** }
1034:.\sdc/ff.c    **** 
1035:.\sdc/ff.c    **** #endif
1036:.\sdc/ff.c    **** #endif
1037:.\sdc/ff.c    **** 
1038:.\sdc/ff.c    **** 
1039:.\sdc/ff.c    **** 
1040:.\sdc/ff.c    **** /*-----------------------------------------------------------------------*/
1041:.\sdc/ff.c    **** /* Create numbered name                                                  */
1042:.\sdc/ff.c    **** /*-----------------------------------------------------------------------*/
1043:.\sdc/ff.c    **** #if _USE_LFN
1044:.\sdc/ff.c    **** void gen_numname (
1045:.\sdc/ff.c    **** 	BYTE *dst,			/* Pointer to generated SFN */
1046:.\sdc/ff.c    **** 	const BYTE *src,	/* Pointer to source SFN to be modified */
1047:.\sdc/ff.c    **** 	const WCHAR *lfn,	/* Pointer to LFN */
1048:.\sdc/ff.c    **** 	WORD seq			/* Sequence number */
1049:.\sdc/ff.c    **** )
1050:.\sdc/ff.c    **** {
1051:.\sdc/ff.c    **** 	BYTE ns[8], c;
1052:.\sdc/ff.c    **** 	UINT i, j;
1053:.\sdc/ff.c    **** 
1054:.\sdc/ff.c    **** 
1055:.\sdc/ff.c    **** 	mem_cpy(dst, src, 11);
1056:.\sdc/ff.c    **** 
1057:.\sdc/ff.c    **** 	if (seq > 5) {	/* On many collisions, generate a hash number instead of sequential number */
1058:.\sdc/ff.c    **** 		do seq = (seq >> 1) + (seq << 15) + (WORD)*lfn++; while (*lfn);
1059:.\sdc/ff.c    **** 	}
1060:.\sdc/ff.c    **** 
ARM GAS  C:\Users\SUZUKI~1\AppData\Local\Temp\ccxHwcvf.s 			page 22


1061:.\sdc/ff.c    **** 	/* itoa */
1062:.\sdc/ff.c    **** 	i = 7;
1063:.\sdc/ff.c    **** 	do {
1064:.\sdc/ff.c    **** 		c = (seq % 16) + '0';
1065:.\sdc/ff.c    **** 		if (c > '9') c += 7;
1066:.\sdc/ff.c    **** 		ns[i--] = c;
1067:.\sdc/ff.c    **** 		seq /= 16;
1068:.\sdc/ff.c    **** 	} while (seq);
1069:.\sdc/ff.c    **** 	ns[i] = '~';
1070:.\sdc/ff.c    **** 
1071:.\sdc/ff.c    **** 	/* Append the number */
1072:.\sdc/ff.c    **** 	for (j = 0; j < i && dst[j] != ' '; j++) {
1073:.\sdc/ff.c    **** 		if (IsDBCS1(dst[j])) {
1074:.\sdc/ff.c    **** 			if (j == i - 1) break;
1075:.\sdc/ff.c    **** 			j++;
1076:.\sdc/ff.c    **** 		}
1077:.\sdc/ff.c    **** 	}
1078:.\sdc/ff.c    **** 	do {
1079:.\sdc/ff.c    **** 		dst[j++] = (i < 8) ? ns[i++] : ' ';
1080:.\sdc/ff.c    **** 	} while (j < 8);
1081:.\sdc/ff.c    **** }
1082:.\sdc/ff.c    **** #endif
1083:.\sdc/ff.c    **** 
1084:.\sdc/ff.c    **** 
1085:.\sdc/ff.c    **** 
1086:.\sdc/ff.c    **** 
1087:.\sdc/ff.c    **** /*-----------------------------------------------------------------------*/
1088:.\sdc/ff.c    **** /* Calculate sum of an SFN                                               */
1089:.\sdc/ff.c    **** /*-----------------------------------------------------------------------*/
1090:.\sdc/ff.c    **** #if _USE_LFN
1091:.\sdc/ff.c    **** static
1092:.\sdc/ff.c    **** BYTE sum_sfn (
1093:.\sdc/ff.c    **** 	const BYTE *dir		/* Ptr to directory entry */
1094:.\sdc/ff.c    **** )
1095:.\sdc/ff.c    **** {
1096:.\sdc/ff.c    **** 	BYTE sum = 0;
1097:.\sdc/ff.c    **** 	UINT n = 11;
1098:.\sdc/ff.c    **** 
1099:.\sdc/ff.c    **** 	do sum = (sum >> 1) + (sum << 7) + *dir++; while (--n);
1100:.\sdc/ff.c    **** 	return sum;
1101:.\sdc/ff.c    **** }
1102:.\sdc/ff.c    **** #endif
1103:.\sdc/ff.c    **** 
1104:.\sdc/ff.c    **** 
1105:.\sdc/ff.c    **** 
1106:.\sdc/ff.c    **** 
1107:.\sdc/ff.c    **** /*-----------------------------------------------------------------------*/
1108:.\sdc/ff.c    **** /* Directory handling - Find an object in the directory                  */
1109:.\sdc/ff.c    **** /*-----------------------------------------------------------------------*/
1110:.\sdc/ff.c    **** 
1111:.\sdc/ff.c    **** static
1112:.\sdc/ff.c    **** FRESULT dir_find (
1113:.\sdc/ff.c    **** 	DIR *dj			/* Pointer to the directory object linked to the file name */
1114:.\sdc/ff.c    **** )
1115:.\sdc/ff.c    **** {
1116:.\sdc/ff.c    **** 	FRESULT res;
1117:.\sdc/ff.c    **** 	BYTE c, *dir;
ARM GAS  C:\Users\SUZUKI~1\AppData\Local\Temp\ccxHwcvf.s 			page 23


1118:.\sdc/ff.c    **** #if _USE_LFN
1119:.\sdc/ff.c    **** 	BYTE a, ord, sum;
1120:.\sdc/ff.c    **** #endif
1121:.\sdc/ff.c    **** 
1122:.\sdc/ff.c    **** 	res = dir_sdi(dj, 0);			/* Rewind directory object */
1123:.\sdc/ff.c    **** 	if (res != FR_OK) return res;
1124:.\sdc/ff.c    **** 
1125:.\sdc/ff.c    **** #if _USE_LFN
1126:.\sdc/ff.c    **** 	ord = sum = 0xFF;
1127:.\sdc/ff.c    **** #endif
1128:.\sdc/ff.c    **** 	do {
1129:.\sdc/ff.c    **** 		res = move_window(dj->fs, dj->sect);
1130:.\sdc/ff.c    **** 		if (res != FR_OK) break;
1131:.\sdc/ff.c    **** 		dir = dj->dir;					/* Ptr to the directory entry of current index */
1132:.\sdc/ff.c    **** 		c = dir[DIR_Name];
1133:.\sdc/ff.c    **** 		if (c == 0) { res = FR_NO_FILE; break; }	/* Reached to end of table */
1134:.\sdc/ff.c    **** #if _USE_LFN	/* LFN configuration */
1135:.\sdc/ff.c    **** 		a = dir[DIR_Attr] & AM_MASK;
1136:.\sdc/ff.c    **** 		if (c == 0xE5 || ((a & AM_VOL) && a != AM_LFN)) {	/* An entry without valid data */
1137:.\sdc/ff.c    **** 			ord = 0xFF;
1138:.\sdc/ff.c    **** 		} else {
1139:.\sdc/ff.c    **** 			if (a == AM_LFN) {			/* An LFN entry is found */
1140:.\sdc/ff.c    **** 				if (dj->lfn) {
1141:.\sdc/ff.c    **** 					if (c & 0x40) {		/* Is it start of LFN sequence? */
1142:.\sdc/ff.c    **** 						sum = dir[LDIR_Chksum];
1143:.\sdc/ff.c    **** 						c &= 0xBF; ord = c;	/* LFN start order */
1144:.\sdc/ff.c    **** 						dj->lfn_idx = dj->index;
1145:.\sdc/ff.c    **** 					}
1146:.\sdc/ff.c    **** 					/* Check validity of the LFN entry and compare it with given name */
1147:.\sdc/ff.c    **** 					ord = (c == ord && sum == dir[LDIR_Chksum] && cmp_lfn(dj->lfn, dir)) ? ord - 1 : 0xFF;
1148:.\sdc/ff.c    **** 				}
1149:.\sdc/ff.c    **** 			} else {					/* An SFN entry is found */
1150:.\sdc/ff.c    **** 				if (!ord && sum == sum_sfn(dir)) break;	/* LFN matched? */
1151:.\sdc/ff.c    **** 				ord = 0xFF; dj->lfn_idx = 0xFFFF;	/* Reset LFN sequence */
1152:.\sdc/ff.c    **** 				if (!(dj->fn[NS] & NS_LOSS) && !mem_cmp(dir, dj->fn, 11)) break;	/* SFN matched? */
1153:.\sdc/ff.c    **** 			}
1154:.\sdc/ff.c    **** 		}
1155:.\sdc/ff.c    **** #else		/* Non LFN configuration */
1156:.\sdc/ff.c    **** 		if (!(dir[DIR_Attr] & AM_VOL) && !mem_cmp(dir, dj->fn, 11)) /* Is it a valid entry? */
1157:.\sdc/ff.c    **** 			break;
1158:.\sdc/ff.c    **** #endif
1159:.\sdc/ff.c    **** 		res = dir_next(dj, 0);		/* Next entry */
1160:.\sdc/ff.c    **** 	} while (res == FR_OK);
1161:.\sdc/ff.c    **** 
1162:.\sdc/ff.c    **** 	return res;
1163:.\sdc/ff.c    **** }
1164:.\sdc/ff.c    **** 
1165:.\sdc/ff.c    **** 
1166:.\sdc/ff.c    **** 
1167:.\sdc/ff.c    **** 
1168:.\sdc/ff.c    **** /*-----------------------------------------------------------------------*/
1169:.\sdc/ff.c    **** /* Read an object from the directory                                     */
1170:.\sdc/ff.c    **** /*-----------------------------------------------------------------------*/
1171:.\sdc/ff.c    **** #if _FS_MINIMIZE <= 1
1172:.\sdc/ff.c    **** static
1173:.\sdc/ff.c    **** FRESULT dir_read (
1174:.\sdc/ff.c    **** 	DIR *dj			/* Pointer to the directory object that pointing the entry to be read */
ARM GAS  C:\Users\SUZUKI~1\AppData\Local\Temp\ccxHwcvf.s 			page 24


1175:.\sdc/ff.c    **** )
1176:.\sdc/ff.c    **** {
1177:.\sdc/ff.c    **** 	FRESULT res;
1178:.\sdc/ff.c    **** 	BYTE c, *dir;
1179:.\sdc/ff.c    **** #if _USE_LFN
1180:.\sdc/ff.c    **** 	BYTE a, ord = 0xFF, sum = 0xFF;
1181:.\sdc/ff.c    **** #endif
1182:.\sdc/ff.c    **** 
1183:.\sdc/ff.c    **** 	res = FR_NO_FILE;
1184:.\sdc/ff.c    **** 	while (dj->sect) {
1185:.\sdc/ff.c    **** 		res = move_window(dj->fs, dj->sect);
1186:.\sdc/ff.c    **** 		if (res != FR_OK) break;
1187:.\sdc/ff.c    **** 		dir = dj->dir;					/* Ptr to the directory entry of current index */
1188:.\sdc/ff.c    **** 		c = dir[DIR_Name];
1189:.\sdc/ff.c    **** 		if (c == 0) { res = FR_NO_FILE; break; }	/* Reached to end of table */
1190:.\sdc/ff.c    **** #if _USE_LFN	/* LFN configuration */
1191:.\sdc/ff.c    **** 		a = dir[DIR_Attr] & AM_MASK;
1192:.\sdc/ff.c    **** 		if (c == 0xE5 || (!_FS_RPATH && c == '.') || ((a & AM_VOL) && a != AM_LFN)) {	/* An entry without
1193:.\sdc/ff.c    **** 			ord = 0xFF;
1194:.\sdc/ff.c    **** 		} else {
1195:.\sdc/ff.c    **** 			if (a == AM_LFN) {			/* An LFN entry is found */
1196:.\sdc/ff.c    **** 				if (c & 0x40) {			/* Is it start of LFN sequence? */
1197:.\sdc/ff.c    **** 					sum = dir[LDIR_Chksum];
1198:.\sdc/ff.c    **** 					c &= 0xBF; ord = c;
1199:.\sdc/ff.c    **** 					dj->lfn_idx = dj->index;
1200:.\sdc/ff.c    **** 				}
1201:.\sdc/ff.c    **** 				/* Check LFN validity and capture it */
1202:.\sdc/ff.c    **** 				ord = (c == ord && sum == dir[LDIR_Chksum] && pick_lfn(dj->lfn, dir)) ? ord - 1 : 0xFF;
1203:.\sdc/ff.c    **** 			} else {					/* An SFN entry is found */
1204:.\sdc/ff.c    **** 				if (ord || sum != sum_sfn(dir))	/* Is there a valid LFN? */
1205:.\sdc/ff.c    **** 					dj->lfn_idx = 0xFFFF;		/* It has no LFN. */
1206:.\sdc/ff.c    **** 				break;
1207:.\sdc/ff.c    **** 			}
1208:.\sdc/ff.c    **** 		}
1209:.\sdc/ff.c    **** #else		/* Non LFN configuration */
1210:.\sdc/ff.c    **** 		if (c != 0xE5 && (_FS_RPATH || c != '.') && !(dir[DIR_Attr] & AM_VOL))	/* Is it a valid entry? */
1211:.\sdc/ff.c    **** 			break;
1212:.\sdc/ff.c    **** #endif
1213:.\sdc/ff.c    **** 		res = dir_next(dj, 0);				/* Next entry */
1214:.\sdc/ff.c    **** 		if (res != FR_OK) break;
1215:.\sdc/ff.c    **** 	}
1216:.\sdc/ff.c    **** 
1217:.\sdc/ff.c    **** 	if (res != FR_OK) dj->sect = 0;
1218:.\sdc/ff.c    **** 
1219:.\sdc/ff.c    **** 	return res;
1220:.\sdc/ff.c    **** }
1221:.\sdc/ff.c    **** #endif
1222:.\sdc/ff.c    **** 
1223:.\sdc/ff.c    **** 
1224:.\sdc/ff.c    **** 
1225:.\sdc/ff.c    **** /*-----------------------------------------------------------------------*/
1226:.\sdc/ff.c    **** /* Register an object to the directory                                   */
1227:.\sdc/ff.c    **** /*-----------------------------------------------------------------------*/
1228:.\sdc/ff.c    **** #if !_FS_READONLY
1229:.\sdc/ff.c    **** static
1230:.\sdc/ff.c    **** FRESULT dir_register (	/* FR_OK:Successful, FR_DENIED:No free entry or too many SFN collision, FR_D
1231:.\sdc/ff.c    **** 	DIR *dj				/* Target directory with object name to be created */
ARM GAS  C:\Users\SUZUKI~1\AppData\Local\Temp\ccxHwcvf.s 			page 25


1232:.\sdc/ff.c    **** )
1233:.\sdc/ff.c    **** {
1234:.\sdc/ff.c    **** 	FRESULT res;
1235:.\sdc/ff.c    **** 	BYTE c, *dir;
1236:.\sdc/ff.c    **** #if _USE_LFN	/* LFN configuration */
1237:.\sdc/ff.c    **** 	WORD n, ne, is;
1238:.\sdc/ff.c    **** 	BYTE sn[12], *fn, sum;
1239:.\sdc/ff.c    **** 	WCHAR *lfn;
1240:.\sdc/ff.c    **** 
1241:.\sdc/ff.c    **** 
1242:.\sdc/ff.c    **** 	fn = dj->fn; lfn = dj->lfn;
1243:.\sdc/ff.c    **** 	mem_cpy(sn, fn, 12);
1244:.\sdc/ff.c    **** 
1245:.\sdc/ff.c    **** 	if (_FS_RPATH && (sn[NS] & NS_DOT))		/* Cannot create dot entry */
1246:.\sdc/ff.c    **** 		return FR_INVALID_NAME;
1247:.\sdc/ff.c    **** 
1248:.\sdc/ff.c    **** 	if (sn[NS] & NS_LOSS) {			/* When LFN is out of 8.3 format, generate a numbered name */
1249:.\sdc/ff.c    **** 		fn[NS] = 0; dj->lfn = 0;			/* Find only SFN */
1250:.\sdc/ff.c    **** 		for (n = 1; n < 100; n++) {
1251:.\sdc/ff.c    **** 			gen_numname(fn, sn, lfn, n);	/* Generate a numbered name */
1252:.\sdc/ff.c    **** 			res = dir_find(dj);				/* Check if the name collides with existing SFN */
1253:.\sdc/ff.c    **** 			if (res != FR_OK) break;
1254:.\sdc/ff.c    **** 		}
1255:.\sdc/ff.c    **** 		if (n == 100) return FR_DENIED;		/* Abort if too many collisions */
1256:.\sdc/ff.c    **** 		if (res != FR_NO_FILE) return res;	/* Abort if the result is other than 'not collided' */
1257:.\sdc/ff.c    **** 		fn[NS] = sn[NS]; dj->lfn = lfn;
1258:.\sdc/ff.c    **** 	}
1259:.\sdc/ff.c    **** 
1260:.\sdc/ff.c    **** 	if (sn[NS] & NS_LFN) {			/* When LFN is to be created, reserve an SFN + LFN entries. */
1261:.\sdc/ff.c    **** 		for (ne = 0; lfn[ne]; ne++) ;
1262:.\sdc/ff.c    **** 		ne = (ne + 25) / 13;
1263:.\sdc/ff.c    **** 	} else {						/* Otherwise reserve only an SFN entry. */
1264:.\sdc/ff.c    **** 		ne = 1;
1265:.\sdc/ff.c    **** 	}
1266:.\sdc/ff.c    **** 
1267:.\sdc/ff.c    **** 	/* Reserve contiguous entries */
1268:.\sdc/ff.c    **** 	res = dir_sdi(dj, 0);
1269:.\sdc/ff.c    **** 	if (res != FR_OK) return res;
1270:.\sdc/ff.c    **** 	n = is = 0;
1271:.\sdc/ff.c    **** 	do {
1272:.\sdc/ff.c    **** 		res = move_window(dj->fs, dj->sect);
1273:.\sdc/ff.c    **** 		if (res != FR_OK) break;
1274:.\sdc/ff.c    **** 		c = *dj->dir;				/* Check the entry status */
1275:.\sdc/ff.c    **** 		if (c == 0xE5 || c == 0) {	/* Is it a blank entry? */
1276:.\sdc/ff.c    **** 			if (n == 0) is = dj->index;	/* First index of the contiguous entry */
1277:.\sdc/ff.c    **** 			if (++n == ne) break;	/* A contiguous entry that required count is found */
1278:.\sdc/ff.c    **** 		} else {
1279:.\sdc/ff.c    **** 			n = 0;					/* Not a blank entry. Restart to search */
1280:.\sdc/ff.c    **** 		}
1281:.\sdc/ff.c    **** 		res = dir_next(dj, 1);		/* Next entry with table stretch */
1282:.\sdc/ff.c    **** 	} while (res == FR_OK);
1283:.\sdc/ff.c    **** 
1284:.\sdc/ff.c    **** 	if (res == FR_OK && ne > 1) {	/* Initialize LFN entry if needed */
1285:.\sdc/ff.c    **** 		res = dir_sdi(dj, is);
1286:.\sdc/ff.c    **** 		if (res == FR_OK) {
1287:.\sdc/ff.c    **** 			sum = sum_sfn(dj->fn);	/* Sum of the SFN tied to the LFN */
1288:.\sdc/ff.c    **** 			ne--;
ARM GAS  C:\Users\SUZUKI~1\AppData\Local\Temp\ccxHwcvf.s 			page 26


1289:.\sdc/ff.c    **** 			do {					/* Store LFN entries in bottom first */
1290:.\sdc/ff.c    **** 				res = move_window(dj->fs, dj->sect);
1291:.\sdc/ff.c    **** 				if (res != FR_OK) break;
1292:.\sdc/ff.c    **** 				fit_lfn(dj->lfn, dj->dir, (BYTE)ne, sum);
1293:.\sdc/ff.c    **** 				dj->fs->wflag = 1;
1294:.\sdc/ff.c    **** 				res = dir_next(dj, 0);	/* Next entry */
1295:.\sdc/ff.c    **** 			} while (res == FR_OK && --ne);
1296:.\sdc/ff.c    **** 		}
1297:.\sdc/ff.c    **** 	}
1298:.\sdc/ff.c    **** 
1299:.\sdc/ff.c    **** #else	/* Non LFN configuration */
1300:.\sdc/ff.c    **** 	res = dir_sdi(dj, 0);
1301:.\sdc/ff.c    **** 	if (res == FR_OK) {
1302:.\sdc/ff.c    **** 		do {	/* Find a blank entry for the SFN */
1303:.\sdc/ff.c    **** 			res = move_window(dj->fs, dj->sect);
1304:.\sdc/ff.c    **** 			if (res != FR_OK) break;
1305:.\sdc/ff.c    **** 			c = *dj->dir;
1306:.\sdc/ff.c    **** 			if (c == 0xE5 || c == 0) break;	/* Is it a blank entry? */
1307:.\sdc/ff.c    **** 			res = dir_next(dj, 1);			/* Next entry with table stretch */
1308:.\sdc/ff.c    **** 		} while (res == FR_OK);
1309:.\sdc/ff.c    **** 	}
1310:.\sdc/ff.c    **** #endif
1311:.\sdc/ff.c    **** 
1312:.\sdc/ff.c    **** 	if (res == FR_OK) {		/* Initialize the SFN entry */
1313:.\sdc/ff.c    **** 		res = move_window(dj->fs, dj->sect);
1314:.\sdc/ff.c    **** 		if (res == FR_OK) {
1315:.\sdc/ff.c    **** 			dir = dj->dir;
1316:.\sdc/ff.c    **** 			mem_set(dir, 0, 32);		/* Clean the entry */
1317:.\sdc/ff.c    **** 			mem_cpy(dir, dj->fn, 11);	/* Put SFN */
1318:.\sdc/ff.c    **** #if _USE_LFN
1319:.\sdc/ff.c    **** 			dir[DIR_NTres] = *(dj->fn+NS) & (NS_BODY | NS_EXT);	/* Put NT flag */
1320:.\sdc/ff.c    **** #endif
1321:.\sdc/ff.c    **** 			dj->fs->wflag = 1;
1322:.\sdc/ff.c    **** 		}
1323:.\sdc/ff.c    **** 	}
1324:.\sdc/ff.c    **** 
1325:.\sdc/ff.c    **** 	return res;
1326:.\sdc/ff.c    **** }
1327:.\sdc/ff.c    **** #endif /* !_FS_READONLY */
1328:.\sdc/ff.c    **** 
1329:.\sdc/ff.c    **** 
1330:.\sdc/ff.c    **** 
1331:.\sdc/ff.c    **** 
1332:.\sdc/ff.c    **** /*-----------------------------------------------------------------------*/
1333:.\sdc/ff.c    **** /* Remove an object from the directory                                   */
1334:.\sdc/ff.c    **** /*-----------------------------------------------------------------------*/
1335:.\sdc/ff.c    **** #if !_FS_READONLY && !_FS_MINIMIZE
1336:.\sdc/ff.c    **** static
1337:.\sdc/ff.c    **** FRESULT dir_remove (	/* FR_OK: Successful, FR_DISK_ERR: A disk error */
1338:.\sdc/ff.c    **** 	DIR *dj				/* Directory object pointing the entry to be removed */
1339:.\sdc/ff.c    **** )
1340:.\sdc/ff.c    **** {
1341:.\sdc/ff.c    **** 	FRESULT res;
1342:.\sdc/ff.c    **** #if _USE_LFN	/* LFN configuration */
1343:.\sdc/ff.c    **** 	WORD i;
1344:.\sdc/ff.c    **** 
1345:.\sdc/ff.c    **** 	i = dj->index;	/* SFN index */
ARM GAS  C:\Users\SUZUKI~1\AppData\Local\Temp\ccxHwcvf.s 			page 27


1346:.\sdc/ff.c    **** 	res = dir_sdi(dj, (WORD)((dj->lfn_idx == 0xFFFF) ? i : dj->lfn_idx));	/* Goto the SFN or top of th
1347:.\sdc/ff.c    **** 	if (res == FR_OK) {
1348:.\sdc/ff.c    **** 		do {
1349:.\sdc/ff.c    **** 			res = move_window(dj->fs, dj->sect);
1350:.\sdc/ff.c    **** 			if (res != FR_OK) break;
1351:.\sdc/ff.c    **** 			*dj->dir = 0xE5;			/* Mark the entry "deleted" */
1352:.\sdc/ff.c    **** 			dj->fs->wflag = 1;
1353:.\sdc/ff.c    **** 			if (dj->index >= i) break;	/* When reached SFN, all entries of the object has been deleted. */
1354:.\sdc/ff.c    **** 			res = dir_next(dj, 0);		/* Next entry */
1355:.\sdc/ff.c    **** 		} while (res == FR_OK);
1356:.\sdc/ff.c    **** 		if (res == FR_NO_FILE) res = FR_INT_ERR;
1357:.\sdc/ff.c    **** 	}
1358:.\sdc/ff.c    **** 
1359:.\sdc/ff.c    **** #else			/* Non LFN configuration */
1360:.\sdc/ff.c    **** 	res = dir_sdi(dj, dj->index);
1361:.\sdc/ff.c    **** 	if (res == FR_OK) {
1362:.\sdc/ff.c    **** 		res = move_window(dj->fs, dj->sect);
1363:.\sdc/ff.c    **** 		if (res == FR_OK) {
1364:.\sdc/ff.c    **** 			*dj->dir = 0xE5;			/* Mark the entry "deleted" */
1365:.\sdc/ff.c    **** 			dj->fs->wflag = 1;
1366:.\sdc/ff.c    **** 		}
1367:.\sdc/ff.c    **** 	}
1368:.\sdc/ff.c    **** #endif
1369:.\sdc/ff.c    **** 
1370:.\sdc/ff.c    **** 	return res;
1371:.\sdc/ff.c    **** }
1372:.\sdc/ff.c    **** #endif /* !_FS_READONLY */
1373:.\sdc/ff.c    **** 
1374:.\sdc/ff.c    **** 
1375:.\sdc/ff.c    **** 
1376:.\sdc/ff.c    **** 
1377:.\sdc/ff.c    **** /*-----------------------------------------------------------------------*/
1378:.\sdc/ff.c    **** /* Pick a segment and create the object name in directory form           */
1379:.\sdc/ff.c    **** /*-----------------------------------------------------------------------*/
1380:.\sdc/ff.c    **** 
1381:.\sdc/ff.c    **** static
1382:.\sdc/ff.c    **** FRESULT create_name (
1383:.\sdc/ff.c    **** 	DIR *dj,			/* Pointer to the directory object */
1384:.\sdc/ff.c    **** 	const TCHAR **path	/* Pointer to pointer to the segment in the path string */
1385:.\sdc/ff.c    **** )
1386:.\sdc/ff.c    **** {
1387:.\sdc/ff.c    **** #ifdef _EXCVT
1388:.\sdc/ff.c    **** 	static const BYTE excvt[] = _EXCVT;	/* Upper conversion table for extended chars */
1389:.\sdc/ff.c    **** #endif
1390:.\sdc/ff.c    **** 
1391:.\sdc/ff.c    **** #if _USE_LFN	/* LFN configuration */
1392:.\sdc/ff.c    **** 	BYTE b, cf;
1393:.\sdc/ff.c    **** 	WCHAR w, *lfn;
1394:.\sdc/ff.c    **** 	UINT i, ni, si, di;
1395:.\sdc/ff.c    **** 	const TCHAR *p;
1396:.\sdc/ff.c    **** 
1397:.\sdc/ff.c    **** 	/* Create LFN in Unicode */
1398:.\sdc/ff.c    **** 	si = di = 0;
1399:.\sdc/ff.c    **** 	p = *path;
1400:.\sdc/ff.c    **** 	lfn = dj->lfn;
1401:.\sdc/ff.c    **** 	for (;;) {
1402:.\sdc/ff.c    **** 		w = p[si++];					/* Get a character */
ARM GAS  C:\Users\SUZUKI~1\AppData\Local\Temp\ccxHwcvf.s 			page 28


1403:.\sdc/ff.c    **** 		if (w < ' ' || w == '/' || w == '\\') break;	/* Break on end of segment */
1404:.\sdc/ff.c    **** 		if (di >= _MAX_LFN)				/* Reject too long name */
1405:.\sdc/ff.c    **** 			return FR_INVALID_NAME;
1406:.\sdc/ff.c    **** #if !_LFN_UNICODE
1407:.\sdc/ff.c    **** 		w &= 0xFF;
1408:.\sdc/ff.c    **** 		if (IsDBCS1(w)) {				/* Check if it is a DBC 1st byte (always false on SBCS cfg) */
1409:.\sdc/ff.c    **** 			b = (BYTE)p[si++];			/* Get 2nd byte */
1410:.\sdc/ff.c    **** 			if (!IsDBCS2(b))
1411:.\sdc/ff.c    **** 				return FR_INVALID_NAME;	/* Reject invalid sequence */
1412:.\sdc/ff.c    **** 			w = (w << 8) + b;			/* Create a DBC */
1413:.\sdc/ff.c    **** 		}
1414:.\sdc/ff.c    **** 		w = ff_convert(w, 1);			/* Convert ANSI/OEM to Unicode */
1415:.\sdc/ff.c    **** 		if (!w) return FR_INVALID_NAME;	/* Reject invalid code */
1416:.\sdc/ff.c    **** #endif
1417:.\sdc/ff.c    **** 		if (w < 0x80 && chk_chr("\"*:<>\?|\x7F", w)) /* Reject illegal chars for LFN */
1418:.\sdc/ff.c    **** 			return FR_INVALID_NAME;
1419:.\sdc/ff.c    **** 		lfn[di++] = w;					/* Store the Unicode char */
1420:.\sdc/ff.c    **** 	}
1421:.\sdc/ff.c    **** 	*path = &p[si];						/* Return pointer to the next segment */
1422:.\sdc/ff.c    **** 	cf = (w < ' ') ? NS_LAST : 0;		/* Set last segment flag if end of path */
1423:.\sdc/ff.c    **** #if _FS_RPATH
1424:.\sdc/ff.c    **** 	if ((di == 1 && lfn[di-1] == '.') || /* Is this a dot entry? */
1425:.\sdc/ff.c    **** 		(di == 2 && lfn[di-1] == '.' && lfn[di-2] == '.')) {
1426:.\sdc/ff.c    **** 		lfn[di] = 0;
1427:.\sdc/ff.c    **** 		for (i = 0; i < 11; i++)
1428:.\sdc/ff.c    **** 			dj->fn[i] = (i < di) ? '.' : ' ';
1429:.\sdc/ff.c    **** 		dj->fn[i] = cf | NS_DOT;		/* This is a dot entry */
1430:.\sdc/ff.c    **** 		return FR_OK;
1431:.\sdc/ff.c    **** 	}
1432:.\sdc/ff.c    **** #endif
1433:.\sdc/ff.c    **** 	while (di) {						/* Strip trailing spaces and dots */
1434:.\sdc/ff.c    **** 		w = lfn[di-1];
1435:.\sdc/ff.c    **** 		if (w != ' ' && w != '.') break;
1436:.\sdc/ff.c    **** 		di--;
1437:.\sdc/ff.c    **** 	}
1438:.\sdc/ff.c    **** 	if (!di) return FR_INVALID_NAME;	/* Reject nul string */
1439:.\sdc/ff.c    **** 
1440:.\sdc/ff.c    **** 	lfn[di] = 0;						/* LFN is created */
1441:.\sdc/ff.c    **** 
1442:.\sdc/ff.c    **** 	/* Create SFN in directory form */
1443:.\sdc/ff.c    **** 	mem_set(dj->fn, ' ', 11);
1444:.\sdc/ff.c    **** 	for (si = 0; lfn[si] == ' ' || lfn[si] == '.'; si++) ;	/* Strip leading spaces and dots */
1445:.\sdc/ff.c    **** 	if (si) cf |= NS_LOSS | NS_LFN;
1446:.\sdc/ff.c    **** 	while (di && lfn[di - 1] != '.') di--;	/* Find extension (di<=si: no extension) */
1447:.\sdc/ff.c    **** 
1448:.\sdc/ff.c    **** 	b = i = 0; ni = 8;
1449:.\sdc/ff.c    **** 	for (;;) {
1450:.\sdc/ff.c    **** 		w = lfn[si++];					/* Get an LFN char */
1451:.\sdc/ff.c    **** 		if (!w) break;					/* Break on end of the LFN */
1452:.\sdc/ff.c    **** 		if (w == ' ' || (w == '.' && si != di)) {	/* Remove spaces and dots */
1453:.\sdc/ff.c    **** 			cf |= NS_LOSS | NS_LFN; continue;
1454:.\sdc/ff.c    **** 		}
1455:.\sdc/ff.c    **** 
1456:.\sdc/ff.c    **** 		if (i >= ni || si == di) {		/* Extension or end of SFN */
1457:.\sdc/ff.c    **** 			if (ni == 11) {				/* Long extension */
1458:.\sdc/ff.c    **** 				cf |= NS_LOSS | NS_LFN; break;
1459:.\sdc/ff.c    **** 			}
ARM GAS  C:\Users\SUZUKI~1\AppData\Local\Temp\ccxHwcvf.s 			page 29


1460:.\sdc/ff.c    **** 			if (si != di) cf |= NS_LOSS | NS_LFN;	/* Out of 8.3 format */
1461:.\sdc/ff.c    **** 			if (si > di) break;			/* No extension */
1462:.\sdc/ff.c    **** 			si = di; i = 8; ni = 11;	/* Enter extension section */
1463:.\sdc/ff.c    **** 			b <<= 2; continue;
1464:.\sdc/ff.c    **** 		}
1465:.\sdc/ff.c    **** 
1466:.\sdc/ff.c    **** 		if (w >= 0x80) {				/* Non ASCII char */
1467:.\sdc/ff.c    **** #ifdef _EXCVT
1468:.\sdc/ff.c    **** 			w = ff_convert(w, 0);		/* Unicode -> OEM code */
1469:.\sdc/ff.c    **** 			if (w) w = excvt[w - 0x80];	/* Convert extended char to upper (SBCS) */
1470:.\sdc/ff.c    **** #else
1471:.\sdc/ff.c    **** 			w = ff_convert(ff_wtoupper(w), 0);	/* Upper converted Unicode -> OEM code */
1472:.\sdc/ff.c    **** #endif
1473:.\sdc/ff.c    **** 			cf |= NS_LFN;				/* Force create LFN entry */
1474:.\sdc/ff.c    **** 		}
1475:.\sdc/ff.c    **** 
1476:.\sdc/ff.c    **** 		if (_DF1S && w >= 0x100) {		/* Double byte char (always false on SBCS cfg) */
1477:.\sdc/ff.c    **** 			if (i >= ni - 1) {
1478:.\sdc/ff.c    **** 				cf |= NS_LOSS | NS_LFN; i = ni; continue;
1479:.\sdc/ff.c    **** 			}
1480:.\sdc/ff.c    **** 			dj->fn[i++] = (BYTE)(w >> 8);
1481:.\sdc/ff.c    **** 		} else {						/* Single byte char */
1482:.\sdc/ff.c    **** 			if (!w || chk_chr("+,;=[]", w)) {	/* Replace illegal chars for SFN */
1483:.\sdc/ff.c    **** 				w = '_'; cf |= NS_LOSS | NS_LFN;/* Lossy conversion */
1484:.\sdc/ff.c    **** 			} else {
1485:.\sdc/ff.c    **** 				if (IsUpper(w)) {		/* ASCII large capital */
1486:.\sdc/ff.c    **** 					b |= 2;
1487:.\sdc/ff.c    **** 				} else {
1488:.\sdc/ff.c    **** 					if (IsLower(w)) {	/* ASCII small capital */
1489:.\sdc/ff.c    **** 						b |= 1; w -= 0x20;
1490:.\sdc/ff.c    **** 					}
1491:.\sdc/ff.c    **** 				}
1492:.\sdc/ff.c    **** 			}
1493:.\sdc/ff.c    **** 		}
1494:.\sdc/ff.c    **** 		dj->fn[i++] = (BYTE)w;
1495:.\sdc/ff.c    **** 	}
1496:.\sdc/ff.c    **** 
1497:.\sdc/ff.c    **** 	if (dj->fn[0] == 0xE5) dj->fn[0] = 0x05;	/* If the first char collides with deleted mark, replace 
1498:.\sdc/ff.c    **** 
1499:.\sdc/ff.c    **** 	if (ni == 8) b <<= 2;
1500:.\sdc/ff.c    **** 	if ((b & 0x0C) == 0x0C || (b & 0x03) == 0x03)	/* Create LFN entry when there are composite capital
1501:.\sdc/ff.c    **** 		cf |= NS_LFN;
1502:.\sdc/ff.c    **** 	if (!(cf & NS_LFN)) {						/* When LFN is in 8.3 format without extended char, NT flags are create
1503:.\sdc/ff.c    **** 		if ((b & 0x03) == 0x01) cf |= NS_EXT;	/* NT flag (Extension has only small capital) */
1504:.\sdc/ff.c    **** 		if ((b & 0x0C) == 0x04) cf |= NS_BODY;	/* NT flag (Filename has only small capital) */
1505:.\sdc/ff.c    **** 	}
1506:.\sdc/ff.c    **** 
1507:.\sdc/ff.c    **** 	dj->fn[NS] = cf;	/* SFN is created */
1508:.\sdc/ff.c    **** 
1509:.\sdc/ff.c    **** 	return FR_OK;
1510:.\sdc/ff.c    **** 
1511:.\sdc/ff.c    **** 
1512:.\sdc/ff.c    **** #else	/* Non-LFN configuration */
1513:.\sdc/ff.c    **** 	BYTE b, c, d, *sfn;
1514:.\sdc/ff.c    **** 	UINT ni, si, i;
1515:.\sdc/ff.c    **** 	const char *p;
1516:.\sdc/ff.c    **** 
ARM GAS  C:\Users\SUZUKI~1\AppData\Local\Temp\ccxHwcvf.s 			page 30


1517:.\sdc/ff.c    **** 	/* Create file name in directory form */
1518:.\sdc/ff.c    **** 	sfn = dj->fn;
1519:.\sdc/ff.c    **** 	mem_set(sfn, ' ', 11);
1520:.\sdc/ff.c    **** 	si = i = b = 0; ni = 8;
1521:.\sdc/ff.c    **** 	p = *path;
1522:.\sdc/ff.c    **** #if _FS_RPATH
1523:.\sdc/ff.c    **** 	if (p[si] == '.') { /* Is this a dot entry? */
1524:.\sdc/ff.c    **** 		for (;;) {
1525:.\sdc/ff.c    **** 			c = (BYTE)p[si++];
1526:.\sdc/ff.c    **** 			if (c != '.' || si >= 3) break;
1527:.\sdc/ff.c    **** 			sfn[i++] = c;
1528:.\sdc/ff.c    **** 		}
1529:.\sdc/ff.c    **** 		if (c != '/' && c != '\\' && c > ' ') return FR_INVALID_NAME;
1530:.\sdc/ff.c    **** 		*path = &p[si];									/* Return pointer to the next segment */
1531:.\sdc/ff.c    **** 		sfn[NS] = (c <= ' ') ? NS_LAST | NS_DOT : NS_DOT;	/* Set last segment flag if end of path */
1532:.\sdc/ff.c    **** 		return FR_OK;
1533:.\sdc/ff.c    **** 	}
1534:.\sdc/ff.c    **** #endif
1535:.\sdc/ff.c    **** 	for (;;) {
1536:.\sdc/ff.c    **** 		c = (BYTE)p[si++];
1537:.\sdc/ff.c    **** 		if (c <= ' ' || c == '/' || c == '\\') break;	/* Break on end of segment */
1538:.\sdc/ff.c    **** 		if (c == '.' || i >= ni) {
1539:.\sdc/ff.c    **** 			if (ni != 8 || c != '.') return FR_INVALID_NAME;
1540:.\sdc/ff.c    **** 			i = 8; ni = 11;
1541:.\sdc/ff.c    **** 			b <<= 2; continue;
1542:.\sdc/ff.c    **** 		}
1543:.\sdc/ff.c    **** 		if (c >= 0x80) {				/* Extended char? */
1544:.\sdc/ff.c    **** 			b |= 3;						/* Eliminate NT flag */
1545:.\sdc/ff.c    **** #ifdef _EXCVT
1546:.\sdc/ff.c    **** 			c = excvt[c-0x80];			/* Upper conversion (SBCS) */
1547:.\sdc/ff.c    **** #else
1548:.\sdc/ff.c    **** #if !_DF1S	/* ASCII only cfg */
1549:.\sdc/ff.c    **** 			return FR_INVALID_NAME;
1550:.\sdc/ff.c    **** #endif
1551:.\sdc/ff.c    **** #endif
1552:.\sdc/ff.c    **** 		}
1553:.\sdc/ff.c    **** 		if (IsDBCS1(c)) {				/* Check if it is a DBC 1st byte (always false on SBCS cfg) */
1554:.\sdc/ff.c    **** 			d = (BYTE)p[si++];			/* Get 2nd byte */
1555:.\sdc/ff.c    **** 			if (!IsDBCS2(d) || i >= ni - 1)	/* Reject invalid DBC */
1556:.\sdc/ff.c    **** 				return FR_INVALID_NAME;
1557:.\sdc/ff.c    **** 			sfn[i++] = c;
1558:.\sdc/ff.c    **** 			sfn[i++] = d;
1559:.\sdc/ff.c    **** 		} else {						/* Single byte code */
1560:.\sdc/ff.c    **** 			if (chk_chr("\"*+,:;<=>\?[]|\x7F", c))	/* Reject illegal chrs for SFN */
1561:.\sdc/ff.c    **** 				return FR_INVALID_NAME;
1562:.\sdc/ff.c    **** 			if (IsUpper(c)) {			/* ASCII large capital? */
1563:.\sdc/ff.c    **** 				b |= 2;
1564:.\sdc/ff.c    **** 			} else {
1565:.\sdc/ff.c    **** 				if (IsLower(c)) {		/* ASCII small capital? */
1566:.\sdc/ff.c    **** 					b |= 1; c -= 0x20;
1567:.\sdc/ff.c    **** 				}
1568:.\sdc/ff.c    **** 			}
1569:.\sdc/ff.c    **** 			sfn[i++] = c;
1570:.\sdc/ff.c    **** 		}
1571:.\sdc/ff.c    **** 	}
1572:.\sdc/ff.c    **** 	*path = &p[si];						/* Return pointer to the next segment */
1573:.\sdc/ff.c    **** 	c = (c <= ' ') ? NS_LAST : 0;		/* Set last segment flag if end of path */
ARM GAS  C:\Users\SUZUKI~1\AppData\Local\Temp\ccxHwcvf.s 			page 31


1574:.\sdc/ff.c    **** 
1575:.\sdc/ff.c    **** 	if (!i) return FR_INVALID_NAME;		/* Reject nul string */
1576:.\sdc/ff.c    **** 	if (sfn[0] == 0xE5) sfn[0] = 0x05;	/* When first char collides with 0xE5, replace it with 0x05 */
1577:.\sdc/ff.c    **** 
1578:.\sdc/ff.c    **** 	if (ni == 8) b <<= 2;
1579:.\sdc/ff.c    **** 	if ((b & 0x03) == 0x01) c |= NS_EXT;	/* NT flag (Name extension has only small capital) */
1580:.\sdc/ff.c    **** 	if ((b & 0x0C) == 0x04) c |= NS_BODY;	/* NT flag (Name body has only small capital) */
1581:.\sdc/ff.c    **** 
1582:.\sdc/ff.c    **** 	sfn[NS] = c;		/* Store NT flag, File name is created */
1583:.\sdc/ff.c    **** 
1584:.\sdc/ff.c    **** 	return FR_OK;
1585:.\sdc/ff.c    **** #endif
1586:.\sdc/ff.c    **** }
1587:.\sdc/ff.c    **** 
1588:.\sdc/ff.c    **** 
1589:.\sdc/ff.c    **** 
1590:.\sdc/ff.c    **** 
1591:.\sdc/ff.c    **** /*-----------------------------------------------------------------------*/
1592:.\sdc/ff.c    **** /* Get file information from directory entry                             */
1593:.\sdc/ff.c    **** /*-----------------------------------------------------------------------*/
1594:.\sdc/ff.c    **** #if _FS_MINIMIZE <= 1
1595:.\sdc/ff.c    **** static
1596:.\sdc/ff.c    **** void get_fileinfo (		/* No return code */
1597:.\sdc/ff.c    **** 	DIR *dj,			/* Pointer to the directory object */
1598:.\sdc/ff.c    **** 	FILINFO *fno	 	/* Pointer to the file information to be filled */
1599:.\sdc/ff.c    **** )
1600:.\sdc/ff.c    **** {
 134              		.loc 1 1600 0
 135              		.cfi_startproc
 136              		@ args = 0, pretend = 0, frame = 0
 137              		@ frame_needed = 0, uses_anonymous_args = 0
 138              	.LVL9:
1601:.\sdc/ff.c    **** 	UINT i;
1602:.\sdc/ff.c    **** 	BYTE nt, *dir;
1603:.\sdc/ff.c    **** 	TCHAR *p, c;
1604:.\sdc/ff.c    **** 
1605:.\sdc/ff.c    **** 
1606:.\sdc/ff.c    **** 	p = fno->fname;
1607:.\sdc/ff.c    **** 	if (dj->sect) {
 139              		.loc 1 1607 0
 140 0000 0369     		ldr	r3, [r0, #16]
 141              		.loc 1 1600 0
 142 0002 10B5     		push	{r4, lr}
 143              	.LCFI0:
 144              		.cfi_def_cfa_offset 8
 145              		.loc 1 1606 0
 146 0004 01F10904 		add	r4, r1, #9
 147              		.cfi_offset 14, -4
 148              		.cfi_offset 4, -8
 149              	.LVL10:
 150              		.loc 1 1607 0
 151 0008 002B     		cmp	r3, #0
 152 000a 40D0     		beq	.L15
1608:.\sdc/ff.c    **** 		dir = dj->dir;
 153              		.loc 1 1608 0
 154 000c 4369     		ldr	r3, [r0, #20]
 155              	.LVL11:
ARM GAS  C:\Users\SUZUKI~1\AppData\Local\Temp\ccxHwcvf.s 			page 32


 156 000e 2246     		mov	r2, r4
 157 0010 0020     		movs	r0, #0
 158              	.LVL12:
 159              	.L18:
1609:.\sdc/ff.c    **** 		nt = dir[DIR_NTres];		/* NT flag */
1610:.\sdc/ff.c    **** 		for (i = 0; i < 8; i++) {	/* Copy name body */
1611:.\sdc/ff.c    **** 			c = dir[i];
 160              		.loc 1 1611 0
 161 0012 13F800C0 		ldrb	ip, [r3, r0]	@ zero_extendqisi2
 162              	.LVL13:
1612:.\sdc/ff.c    **** 			if (c == ' ') break;
 163              		.loc 1 1612 0
 164 0016 BCF1200F 		cmp	ip, #32
 165 001a 0AD0     		beq	.L16
1613:.\sdc/ff.c    **** 			if (c == 0x05) c = (TCHAR)0xE5;
 166              		.loc 1 1613 0
 167 001c BCF1050F 		cmp	ip, #5
 168 0020 08BF     		it	eq
 169 0022 4FF0E50C 		moveq	ip, #229
 170              	.LVL14:
1614:.\sdc/ff.c    **** 			if (_USE_LFN && (nt & NS_BODY) && IsUpper(c)) c += 0x20;
1615:.\sdc/ff.c    **** #if _LFN_UNICODE
1616:.\sdc/ff.c    **** 			if (IsDBCS1(c) && i < 7 && IsDBCS2(dir[i+1]))
1617:.\sdc/ff.c    **** 				c = (c << 8) | dir[++i];
1618:.\sdc/ff.c    **** 			c = ff_convert(c, 1);
1619:.\sdc/ff.c    **** 			if (!c) c = '?';
1620:.\sdc/ff.c    **** #endif
1621:.\sdc/ff.c    **** 			*p++ = c;
 171              		.loc 1 1621 0
 172 0026 04F800C0 		strb	ip, [r4, r0]
 173              		.loc 1 1610 0
 174 002a 0130     		adds	r0, r0, #1
 175              		.loc 1 1621 0
 176 002c 0132     		adds	r2, r2, #1
 177              		.loc 1 1610 0
 178 002e 0828     		cmp	r0, #8
 179 0030 EFD1     		bne	.L18
 180              	.LVL15:
 181              	.L16:
1622:.\sdc/ff.c    **** 		}
1623:.\sdc/ff.c    **** 		if (dir[8] != ' ') {		/* Copy name extension */
 182              		.loc 1 1623 0
 183 0032 187A     		ldrb	r0, [r3, #8]	@ zero_extendqisi2
 184              	.LVL16:
 185 0034 2028     		cmp	r0, #32
 186 0036 0DD0     		beq	.L19
1624:.\sdc/ff.c    **** 			*p++ = '.';
 187              		.loc 1 1624 0
 188 0038 2E20     		movs	r0, #46
 189 003a 02F8010B 		strb	r0, [r2], #1
 190 003e 2638     		subs	r0, r0, #38
 191              	.LVL17:
 192              	.L20:
1625:.\sdc/ff.c    **** 			for (i = 8; i < 11; i++) {
1626:.\sdc/ff.c    **** 				c = dir[i];
 193              		.loc 1 1626 0
 194 0040 13F800C0 		ldrb	ip, [r3, r0]	@ zero_extendqisi2
ARM GAS  C:\Users\SUZUKI~1\AppData\Local\Temp\ccxHwcvf.s 			page 33


1627:.\sdc/ff.c    **** 				if (c == ' ') break;
 195              		.loc 1 1627 0
 196 0044 BCF1200F 		cmp	ip, #32
 197 0048 04D0     		beq	.L19
 198              		.loc 1 1625 0
 199 004a 0130     		adds	r0, r0, #1
 200 004c 0B28     		cmp	r0, #11
1628:.\sdc/ff.c    **** 				if (_USE_LFN && (nt & NS_EXT) && IsUpper(c)) c += 0x20;
1629:.\sdc/ff.c    **** #if _LFN_UNICODE
1630:.\sdc/ff.c    **** 				if (IsDBCS1(c) && i < 10 && IsDBCS2(dir[i+1]))
1631:.\sdc/ff.c    **** 					c = (c << 8) | dir[++i];
1632:.\sdc/ff.c    **** 				c = ff_convert(c, 1);
1633:.\sdc/ff.c    **** 				if (!c) c = '?';
1634:.\sdc/ff.c    **** #endif
1635:.\sdc/ff.c    **** 				*p++ = c;
 201              		.loc 1 1635 0
 202 004e 02F801CB 		strb	ip, [r2], #1
 203              		.loc 1 1625 0
 204 0052 F5D1     		bne	.L20
 205              	.L19:
1636:.\sdc/ff.c    **** 			}
1637:.\sdc/ff.c    **** 		}
1638:.\sdc/ff.c    **** 		fno->fattrib = dir[DIR_Attr];				/* Attribute */
 206              		.loc 1 1638 0
 207 0054 D87A     		ldrb	r0, [r3, #11]	@ zero_extendqisi2
 208              	.LVL18:
1639:.\sdc/ff.c    **** 		fno->fsize = LD_DWORD(dir+DIR_FileSize);	/* Size */
1640:.\sdc/ff.c    **** 		fno->fdate = LD_WORD(dir+DIR_WrtDate);		/* Date */
1641:.\sdc/ff.c    **** 		fno->ftime = LD_WORD(dir+DIR_WrtTime);		/* Time */
 209              		.loc 1 1641 0
 210 0056 1446     		mov	r4, r2
 211              		.loc 1 1638 0
 212 0058 0872     		strb	r0, [r1, #8]
 213              		.loc 1 1639 0
 214 005a 987F     		ldrb	r0, [r3, #30]	@ zero_extendqisi2
 215 005c 93F81FC0 		ldrb	ip, [r3, #31]	@ zero_extendqisi2
 216              	.LVL19:
 217 0060 0004     		lsls	r0, r0, #16
 218 0062 40EA0C60 		orr	r0, r0, ip, lsl #24
 219 0066 93F81CC0 		ldrb	ip, [r3, #28]	@ zero_extendqisi2
 220 006a 40EA0C00 		orr	r0, r0, ip
 221 006e 93F81DC0 		ldrb	ip, [r3, #29]	@ zero_extendqisi2
 222 0072 40EA0C20 		orr	r0, r0, ip, lsl #8
 223 0076 0860     		str	r0, [r1, #0]
 224              		.loc 1 1640 0
 225 0078 93F819C0 		ldrb	ip, [r3, #25]	@ zero_extendqisi2
 226 007c 187E     		ldrb	r0, [r3, #24]	@ zero_extendqisi2
 227 007e 40EA0C20 		orr	r0, r0, ip, lsl #8
 228 0082 8880     		strh	r0, [r1, #4]	@ movhi
 229              		.loc 1 1641 0
 230 0084 D87D     		ldrb	r0, [r3, #23]	@ zero_extendqisi2
 231 0086 9B7D     		ldrb	r3, [r3, #22]	@ zero_extendqisi2
 232              	.LVL20:
 233 0088 43EA0023 		orr	r3, r3, r0, lsl #8
 234 008c CB80     		strh	r3, [r1, #6]	@ movhi
 235              	.LVL21:
 236              	.L15:
ARM GAS  C:\Users\SUZUKI~1\AppData\Local\Temp\ccxHwcvf.s 			page 34


1642:.\sdc/ff.c    **** 	}
1643:.\sdc/ff.c    **** 	*p = 0;		/* Terminate SFN str by a \0 */
 237              		.loc 1 1643 0
 238 008e 0023     		movs	r3, #0
 239 0090 2370     		strb	r3, [r4, #0]
1644:.\sdc/ff.c    **** 
1645:.\sdc/ff.c    **** #if _USE_LFN
1646:.\sdc/ff.c    **** 	if (fno->lfname && fno->lfsize) {
1647:.\sdc/ff.c    **** 		TCHAR *tp = fno->lfname;
1648:.\sdc/ff.c    **** 		WCHAR w, *lfn;
1649:.\sdc/ff.c    **** 
1650:.\sdc/ff.c    **** 		i = 0;
1651:.\sdc/ff.c    **** 		if (dj->sect && dj->lfn_idx != 0xFFFF) {/* Get LFN if available */
1652:.\sdc/ff.c    **** 			lfn = dj->lfn;
1653:.\sdc/ff.c    **** 			while ((w = *lfn++) != 0) {			/* Get an LFN char */
1654:.\sdc/ff.c    **** #if !_LFN_UNICODE
1655:.\sdc/ff.c    **** 				w = ff_convert(w, 0);			/* Unicode -> OEM conversion */
1656:.\sdc/ff.c    **** 				if (!w) { i = 0; break; }		/* Could not convert, no LFN */
1657:.\sdc/ff.c    **** 				if (_DF1S && w >= 0x100)		/* Put 1st byte if it is a DBC (always false on SBCS cfg) */
1658:.\sdc/ff.c    **** 					tp[i++] = (TCHAR)(w >> 8);
1659:.\sdc/ff.c    **** #endif
1660:.\sdc/ff.c    **** 				if (i >= fno->lfsize - 1) { i = 0; break; }	/* Buffer overflow, no LFN */
1661:.\sdc/ff.c    **** 				tp[i++] = (TCHAR)w;
1662:.\sdc/ff.c    **** 			}
1663:.\sdc/ff.c    **** 		}
1664:.\sdc/ff.c    **** 		tp[i] = 0;	/* Terminate the LFN str by a \0 */
1665:.\sdc/ff.c    **** 	}
1666:.\sdc/ff.c    **** #endif
1667:.\sdc/ff.c    **** }
 240              		.loc 1 1667 0
 241 0092 10BD     		pop	{r4, pc}
 242              		.cfi_endproc
 243              	.LFE17:
 244              		.size	get_fileinfo, .-get_fileinfo
 245              		.section	.text.f_mount,"ax",%progbits
 246              		.align	1
 247              		.global	f_mount
 248              		.thumb
 249              		.thumb_func
 250              		.type	f_mount, %function
 251              	f_mount:
 252              	.LFB22:
1668:.\sdc/ff.c    **** #endif /* _FS_MINIMIZE <= 1 */
1669:.\sdc/ff.c    **** 
1670:.\sdc/ff.c    **** 
1671:.\sdc/ff.c    **** 
1672:.\sdc/ff.c    **** 
1673:.\sdc/ff.c    **** /*-----------------------------------------------------------------------*/
1674:.\sdc/ff.c    **** /* Follow a file path                                                    */
1675:.\sdc/ff.c    **** /*-----------------------------------------------------------------------*/
1676:.\sdc/ff.c    **** 
1677:.\sdc/ff.c    **** static
1678:.\sdc/ff.c    **** FRESULT follow_path (	/* FR_OK(0): successful, !=0: error code */
1679:.\sdc/ff.c    **** 	DIR *dj,			/* Directory object to return last directory and found object */
1680:.\sdc/ff.c    **** 	const TCHAR *path	/* Full-path string to find a file or directory */
1681:.\sdc/ff.c    **** )
1682:.\sdc/ff.c    **** {
ARM GAS  C:\Users\SUZUKI~1\AppData\Local\Temp\ccxHwcvf.s 			page 35


1683:.\sdc/ff.c    **** 	FRESULT res;
1684:.\sdc/ff.c    **** 	BYTE *dir, ns;
1685:.\sdc/ff.c    **** 
1686:.\sdc/ff.c    **** 
1687:.\sdc/ff.c    **** #if _FS_RPATH
1688:.\sdc/ff.c    **** 	if (*path == '/' || *path == '\\') { /* There is a heading separator */
1689:.\sdc/ff.c    **** 		path++;	dj->sclust = 0;		/* Strip it and start from the root dir */
1690:.\sdc/ff.c    **** 	} else {							/* No heading separator */
1691:.\sdc/ff.c    **** 		dj->sclust = dj->fs->cdir;	/* Start from the current dir */
1692:.\sdc/ff.c    **** 	}
1693:.\sdc/ff.c    **** #else
1694:.\sdc/ff.c    **** 	if (*path == '/' || *path == '\\')	/* Strip heading separator if exist */
1695:.\sdc/ff.c    **** 		path++;
1696:.\sdc/ff.c    **** 	dj->sclust = 0;						/* Start from the root dir */
1697:.\sdc/ff.c    **** #endif
1698:.\sdc/ff.c    **** 
1699:.\sdc/ff.c    **** 	if ((UINT)*path < ' ') {			/* Nul path means the start directory itself */
1700:.\sdc/ff.c    **** 		res = dir_sdi(dj, 0);
1701:.\sdc/ff.c    **** 		dj->dir = 0;
1702:.\sdc/ff.c    **** 
1703:.\sdc/ff.c    **** 	} else {							/* Follow path */
1704:.\sdc/ff.c    **** 		for (;;) {
1705:.\sdc/ff.c    **** 			res = create_name(dj, &path);	/* Get a segment */
1706:.\sdc/ff.c    **** 			if (res != FR_OK) break;
1707:.\sdc/ff.c    **** 			res = dir_find(dj);				/* Find it */
1708:.\sdc/ff.c    **** 			ns = *(dj->fn+NS);
1709:.\sdc/ff.c    **** 			if (res != FR_OK) {				/* Failed to find the object */
1710:.\sdc/ff.c    **** 				if (res != FR_NO_FILE) break;	/* Abort if any hard error occured */
1711:.\sdc/ff.c    **** 				/* Object not found */
1712:.\sdc/ff.c    **** 				if (_FS_RPATH && (ns & NS_DOT)) {	/* If dot entry is not exit */
1713:.\sdc/ff.c    **** 					dj->sclust = 0; dj->dir = 0;	/* It is the root dir */
1714:.\sdc/ff.c    **** 					res = FR_OK;
1715:.\sdc/ff.c    **** 					if (!(ns & NS_LAST)) continue;
1716:.\sdc/ff.c    **** 				} else {							/* Could not find the object */
1717:.\sdc/ff.c    **** 					if (!(ns & NS_LAST)) res = FR_NO_PATH;
1718:.\sdc/ff.c    **** 				}
1719:.\sdc/ff.c    **** 				break;
1720:.\sdc/ff.c    **** 			}
1721:.\sdc/ff.c    **** 			if (ns & NS_LAST) break;			/* Last segment match. Function completed. */
1722:.\sdc/ff.c    **** 			dir = dj->dir;						/* There is next segment. Follow the sub directory */
1723:.\sdc/ff.c    **** 			if (!(dir[DIR_Attr] & AM_DIR)) {	/* Cannot follow because it is a file */
1724:.\sdc/ff.c    **** 				res = FR_NO_PATH; break;
1725:.\sdc/ff.c    **** 			}
1726:.\sdc/ff.c    **** 			dj->sclust = LD_CLUST(dir);
1727:.\sdc/ff.c    **** 		}
1728:.\sdc/ff.c    **** 	}
1729:.\sdc/ff.c    **** 
1730:.\sdc/ff.c    **** 	return res;
1731:.\sdc/ff.c    **** }
1732:.\sdc/ff.c    **** 
1733:.\sdc/ff.c    **** 
1734:.\sdc/ff.c    **** 
1735:.\sdc/ff.c    **** 
1736:.\sdc/ff.c    **** /*-----------------------------------------------------------------------*/
1737:.\sdc/ff.c    **** /* Load boot record and check if it is an FAT boot record                */
1738:.\sdc/ff.c    **** /*-----------------------------------------------------------------------*/
1739:.\sdc/ff.c    **** 
ARM GAS  C:\Users\SUZUKI~1\AppData\Local\Temp\ccxHwcvf.s 			page 36


1740:.\sdc/ff.c    **** static
1741:.\sdc/ff.c    **** BYTE check_fs (	/* 0:The FAT BR, 1:Valid BR but not an FAT, 2:Not a BR, 3:Disk error */
1742:.\sdc/ff.c    **** 	FATFS *fs,	/* File system object */
1743:.\sdc/ff.c    **** 	DWORD sect	/* Sector# (lba) to check if it is an FAT boot record or not */
1744:.\sdc/ff.c    **** )
1745:.\sdc/ff.c    **** {
1746:.\sdc/ff.c    **** 	if (disk_read(fs->drv, fs->win, sect, 1) != RES_OK)	/* Load boot record */
1747:.\sdc/ff.c    **** 		return 3;
1748:.\sdc/ff.c    **** 	if (LD_WORD(&fs->win[BS_55AA]) != 0xAA55)		/* Check record signature (always placed at offset 510 
1749:.\sdc/ff.c    **** 		return 2;
1750:.\sdc/ff.c    **** 
1751:.\sdc/ff.c    **** 	if ((LD_DWORD(&fs->win[BS_FilSysType]) & 0xFFFFFF) == 0x544146)	/* Check "FAT" string */
1752:.\sdc/ff.c    **** 		return 0;
1753:.\sdc/ff.c    **** 	if ((LD_DWORD(&fs->win[BS_FilSysType32]) & 0xFFFFFF) == 0x544146)
1754:.\sdc/ff.c    **** 		return 0;
1755:.\sdc/ff.c    **** 
1756:.\sdc/ff.c    **** 	return 1;
1757:.\sdc/ff.c    **** }
1758:.\sdc/ff.c    **** 
1759:.\sdc/ff.c    **** 
1760:.\sdc/ff.c    **** 
1761:.\sdc/ff.c    **** 
1762:.\sdc/ff.c    **** /*-----------------------------------------------------------------------*/
1763:.\sdc/ff.c    **** /* Check if the file system object is valid or not                       */
1764:.\sdc/ff.c    **** /*-----------------------------------------------------------------------*/
1765:.\sdc/ff.c    **** 
1766:.\sdc/ff.c    **** static
1767:.\sdc/ff.c    **** FRESULT chk_mounted (	/* FR_OK(0): successful, !=0: any error occurred */
1768:.\sdc/ff.c    **** 	const TCHAR **path,	/* Pointer to pointer to the path name (drive number) */
1769:.\sdc/ff.c    **** 	FATFS **rfs,		/* Pointer to pointer to the found file system object */
1770:.\sdc/ff.c    **** 	BYTE chk_wp			/* !=0: Check media write protection for write access */
1771:.\sdc/ff.c    **** )
1772:.\sdc/ff.c    **** {
1773:.\sdc/ff.c    **** 	BYTE fmt, b, *tbl;
1774:.\sdc/ff.c    **** 	UINT vol;
1775:.\sdc/ff.c    **** 	DSTATUS stat;
1776:.\sdc/ff.c    **** 	DWORD bsect, fasize, tsect, sysect, nclst, szbfat;
1777:.\sdc/ff.c    **** 	WORD nrsv;
1778:.\sdc/ff.c    **** 	const TCHAR *p = *path;
1779:.\sdc/ff.c    **** 	FATFS *fs;
1780:.\sdc/ff.c    **** 
1781:.\sdc/ff.c    **** 	/* Get logical drive number from the path name */
1782:.\sdc/ff.c    **** 	vol = p[0] - '0';					/* Is there a drive number? */
1783:.\sdc/ff.c    **** 	if (vol <= 9 && p[1] == ':') {		/* Found a drive number, get and strip it */
1784:.\sdc/ff.c    **** 		p += 2; *path = p;				/* Return pointer to the path name */
1785:.\sdc/ff.c    **** 	} else {							/* No drive number is given */
1786:.\sdc/ff.c    **** #if _FS_RPATH
1787:.\sdc/ff.c    **** 		vol = CurrVol;					/* Use current drive */
1788:.\sdc/ff.c    **** #else
1789:.\sdc/ff.c    **** 		vol = 0;						/* Use drive 0 */
1790:.\sdc/ff.c    **** #endif
1791:.\sdc/ff.c    **** 	}
1792:.\sdc/ff.c    **** 
1793:.\sdc/ff.c    **** 	/* Check if the logical drive is valid or not */
1794:.\sdc/ff.c    **** 	if (vol >= _VOLUMES) 				/* Is the drive number valid? */
1795:.\sdc/ff.c    **** 		return FR_INVALID_DRIVE;
1796:.\sdc/ff.c    **** 	*rfs = fs = FatFs[vol];				/* Return pointer to the corresponding file system object */
ARM GAS  C:\Users\SUZUKI~1\AppData\Local\Temp\ccxHwcvf.s 			page 37


1797:.\sdc/ff.c    **** 	if (!fs) return FR_NOT_ENABLED;		/* Is the file system object available? */
1798:.\sdc/ff.c    **** 
1799:.\sdc/ff.c    **** 	ENTER_FF(fs);						/* Lock file system */
1800:.\sdc/ff.c    **** 
1801:.\sdc/ff.c    **** 	if (fs->fs_type) {					/* If the logical drive has been mounted */
1802:.\sdc/ff.c    **** 		stat = disk_status(fs->drv);
1803:.\sdc/ff.c    **** 		if (!(stat & STA_NOINIT)) {		/* and the physical drive is kept initialized (has not been changed)
1804:.\sdc/ff.c    **** #if !_FS_READONLY
1805:.\sdc/ff.c    **** 			if (chk_wp && (stat & STA_PROTECT))	/* Check write protection if needed */
1806:.\sdc/ff.c    **** 				return FR_WRITE_PROTECTED;
1807:.\sdc/ff.c    **** #endif
1808:.\sdc/ff.c    **** 			return FR_OK;				/* The file system object is valid */
1809:.\sdc/ff.c    **** 		}
1810:.\sdc/ff.c    **** 	}
1811:.\sdc/ff.c    **** 
1812:.\sdc/ff.c    **** 	/* The logical drive must be mounted. */
1813:.\sdc/ff.c    **** 	/* Following code attempts to mount a volume. (analyze BPB and initialize the fs object) */
1814:.\sdc/ff.c    **** 
1815:.\sdc/ff.c    **** 	fs->fs_type = 0;					/* Clear the file system object */
1816:.\sdc/ff.c    **** 	fs->drv = (BYTE)LD2PD(vol);			/* Bind the logical drive and a physical drive */
1817:.\sdc/ff.c    **** 	stat = disk_initialize(fs->drv);	/* Initialize low level disk I/O layer */
1818:.\sdc/ff.c    **** 	if (stat & STA_NOINIT)				/* Check if the initialization succeeded */
1819:.\sdc/ff.c    **** 		return FR_NOT_READY;			/* Failed to initialize due to no media or hard error */
1820:.\sdc/ff.c    **** #if _MAX_SS != 512						/* Get disk sector size (variable sector size cfg only) */
1821:.\sdc/ff.c    **** 	if (disk_ioctl(fs->drv, GET_SECTOR_SIZE, &fs->ssize) != RES_OK)
1822:.\sdc/ff.c    **** 		return FR_DISK_ERR;
1823:.\sdc/ff.c    **** #endif
1824:.\sdc/ff.c    **** #if !_FS_READONLY
1825:.\sdc/ff.c    **** 	if (chk_wp && (stat & STA_PROTECT))	/* Check disk write protection if needed */
1826:.\sdc/ff.c    **** 		return FR_WRITE_PROTECTED;
1827:.\sdc/ff.c    **** #endif
1828:.\sdc/ff.c    **** 	/* Search FAT partition on the drive. Supports only generic partitionings, FDISK and SFD. */
1829:.\sdc/ff.c    **** 	fmt = check_fs(fs, bsect = 0);		/* Check sector 0 if it is a VBR */
1830:.\sdc/ff.c    **** 	if (fmt == 1) {						/* Not an FAT-VBR, the disk may be partitioned */
1831:.\sdc/ff.c    **** 		/* Check the partition listed in top of the partition table */
1832:.\sdc/ff.c    **** 		tbl = &fs->win[MBR_Table + LD2PT(vol) * 16];	/* Partition table */
1833:.\sdc/ff.c    **** 		if (tbl[4]) {									/* Is the partition existing? */
1834:.\sdc/ff.c    **** 			bsect = LD_DWORD(&tbl[8]);					/* Partition offset in LBA */
1835:.\sdc/ff.c    **** 			fmt = check_fs(fs, bsect);					/* Check the partition */
1836:.\sdc/ff.c    **** 		}
1837:.\sdc/ff.c    **** 	}
1838:.\sdc/ff.c    **** 	if (fmt == 3) return FR_DISK_ERR;
1839:.\sdc/ff.c    **** 	if (fmt) return FR_NO_FILESYSTEM;					/* No FAT volume is found */
1840:.\sdc/ff.c    **** 
1841:.\sdc/ff.c    **** 	/* Following code initializes the file system object */
1842:.\sdc/ff.c    **** 
1843:.\sdc/ff.c    **** 	if (LD_WORD(fs->win+BPB_BytsPerSec) != SS(fs))		/* (BPB_BytsPerSec must be equal to the physical s
1844:.\sdc/ff.c    **** 		return FR_NO_FILESYSTEM;
1845:.\sdc/ff.c    **** 
1846:.\sdc/ff.c    **** 	fasize = LD_WORD(fs->win+BPB_FATSz16);				/* Number of sectors per FAT */
1847:.\sdc/ff.c    **** 	if (!fasize) fasize = LD_DWORD(fs->win+BPB_FATSz32);
1848:.\sdc/ff.c    **** 	fs->fsize = fasize;
1849:.\sdc/ff.c    **** 
1850:.\sdc/ff.c    **** 	fs->n_fats = b = fs->win[BPB_NumFATs];				/* Number of FAT copies */
1851:.\sdc/ff.c    **** 	if (b != 1 && b != 2) return FR_NO_FILESYSTEM;		/* (Must be 1 or 2) */
1852:.\sdc/ff.c    **** 	fasize *= b;										/* Number of sectors for FAT area */
1853:.\sdc/ff.c    **** 
ARM GAS  C:\Users\SUZUKI~1\AppData\Local\Temp\ccxHwcvf.s 			page 38


1854:.\sdc/ff.c    **** 	fs->csize = b = fs->win[BPB_SecPerClus];			/* Number of sectors per cluster */
1855:.\sdc/ff.c    **** 	if (!b || (b & (b - 1))) return FR_NO_FILESYSTEM;	/* (Must be power of 2) */
1856:.\sdc/ff.c    **** 
1857:.\sdc/ff.c    **** 	fs->n_rootdir = LD_WORD(fs->win+BPB_RootEntCnt);	/* Number of root directory entries */
1858:.\sdc/ff.c    **** 	if (fs->n_rootdir % (SS(fs) / 32)) return FR_NO_FILESYSTEM;	/* (BPB_RootEntCnt must be sector alig
1859:.\sdc/ff.c    **** 
1860:.\sdc/ff.c    **** 	tsect = LD_WORD(fs->win+BPB_TotSec16);				/* Number of sectors on the volume */
1861:.\sdc/ff.c    **** 	if (!tsect) tsect = LD_DWORD(fs->win+BPB_TotSec32);
1862:.\sdc/ff.c    **** 
1863:.\sdc/ff.c    **** 	nrsv = LD_WORD(fs->win+BPB_RsvdSecCnt);				/* Number of reserved sectors */
1864:.\sdc/ff.c    **** 	if (!nrsv) return FR_NO_FILESYSTEM;					/* (BPB_RsvdSecCnt must not be 0) */
1865:.\sdc/ff.c    **** 
1866:.\sdc/ff.c    **** 	/* Determine the FAT sub type */
1867:.\sdc/ff.c    **** 	sysect = nrsv + fasize + fs->n_rootdir / (SS(fs) / 32);	/* RSV+FAT+DIR */
1868:.\sdc/ff.c    **** 	if (tsect < sysect) return FR_NO_FILESYSTEM;		/* (Invalid volume size) */
1869:.\sdc/ff.c    **** 	nclst = (tsect - sysect) / fs->csize;				/* Number of clusters */
1870:.\sdc/ff.c    **** 	if (!nclst) return FR_NO_FILESYSTEM;				/* (Invalid volume size) */
1871:.\sdc/ff.c    **** 	fmt = FS_FAT12;
1872:.\sdc/ff.c    **** 	if (nclst >= MIN_FAT16) fmt = FS_FAT16;
1873:.\sdc/ff.c    **** 	if (nclst >= MIN_FAT32) fmt = FS_FAT32;
1874:.\sdc/ff.c    **** 
1875:.\sdc/ff.c    **** 	/* Boundaries and Limits */
1876:.\sdc/ff.c    **** 	fs->n_fatent = nclst + 2;							/* Number of FAT entries */
1877:.\sdc/ff.c    **** 	fs->database = bsect + sysect;						/* Data start sector */
1878:.\sdc/ff.c    **** 	fs->fatbase = bsect + nrsv; 						/* FAT start sector */
1879:.\sdc/ff.c    **** 	if (fmt == FS_FAT32) {
1880:.\sdc/ff.c    **** 		if (fs->n_rootdir) return FR_NO_FILESYSTEM;		/* (BPB_RootEntCnt must be 0) */
1881:.\sdc/ff.c    **** 		fs->dirbase = LD_DWORD(fs->win+BPB_RootClus);	/* Root directory start cluster */
1882:.\sdc/ff.c    **** 		szbfat = fs->n_fatent * 4;						/* (Required FAT size) */
1883:.\sdc/ff.c    **** 	} else {
1884:.\sdc/ff.c    **** 		if (!fs->n_rootdir)	return FR_NO_FILESYSTEM;	/* (BPB_RootEntCnt must not be 0) */
1885:.\sdc/ff.c    **** 		fs->dirbase = fs->fatbase + fasize;				/* Root directory start sector */
1886:.\sdc/ff.c    **** 		szbfat = (fmt == FS_FAT16) ?					/* (Required FAT size) */
1887:.\sdc/ff.c    **** 			fs->n_fatent * 2 : fs->n_fatent * 3 / 2 + (fs->n_fatent & 1);
1888:.\sdc/ff.c    **** 	}
1889:.\sdc/ff.c    **** 	if (fs->fsize < (szbfat + (SS(fs) - 1)) / SS(fs))	/* (FAT size must not be less than FAT sectors *
1890:.\sdc/ff.c    **** 		return FR_NO_FILESYSTEM;
1891:.\sdc/ff.c    **** 
1892:.\sdc/ff.c    **** #if !_FS_READONLY
1893:.\sdc/ff.c    **** 	/* Initialize cluster allocation information */
1894:.\sdc/ff.c    **** 	fs->free_clust = 0xFFFFFFFF;
1895:.\sdc/ff.c    **** 	fs->last_clust = 0;
1896:.\sdc/ff.c    **** 
1897:.\sdc/ff.c    **** 	/* Get fsinfo if available */
1898:.\sdc/ff.c    **** 	if (fmt == FS_FAT32) {
1899:.\sdc/ff.c    **** 	 	fs->fsi_flag = 0;
1900:.\sdc/ff.c    **** 		fs->fsi_sector = bsect + LD_WORD(fs->win+BPB_FSInfo);
1901:.\sdc/ff.c    **** 		if (disk_read(fs->drv, fs->win, fs->fsi_sector, 1) == RES_OK &&
1902:.\sdc/ff.c    **** 			LD_WORD(fs->win+BS_55AA) == 0xAA55 &&
1903:.\sdc/ff.c    **** 			LD_DWORD(fs->win+FSI_LeadSig) == 0x41615252 &&
1904:.\sdc/ff.c    **** 			LD_DWORD(fs->win+FSI_StrucSig) == 0x61417272) {
1905:.\sdc/ff.c    **** 				fs->last_clust = LD_DWORD(fs->win+FSI_Nxt_Free);
1906:.\sdc/ff.c    **** 				fs->free_clust = LD_DWORD(fs->win+FSI_Free_Count);
1907:.\sdc/ff.c    **** 		}
1908:.\sdc/ff.c    **** 	}
1909:.\sdc/ff.c    **** #endif
1910:.\sdc/ff.c    **** 	fs->fs_type = fmt;		/* FAT sub-type */
ARM GAS  C:\Users\SUZUKI~1\AppData\Local\Temp\ccxHwcvf.s 			page 39


1911:.\sdc/ff.c    **** 	fs->id = ++Fsid;		/* File system mount ID */
1912:.\sdc/ff.c    **** 	fs->winsect = 0;		/* Invalidate sector cache */
1913:.\sdc/ff.c    **** 	fs->wflag = 0;
1914:.\sdc/ff.c    **** #if _FS_RPATH
1915:.\sdc/ff.c    **** 	fs->cdir = 0;			/* Current directory (root dir) */
1916:.\sdc/ff.c    **** #endif
1917:.\sdc/ff.c    **** #if _FS_SHARE				/* Clear file lock semaphores */
1918:.\sdc/ff.c    **** 	clear_lock(fs);
1919:.\sdc/ff.c    **** #endif
1920:.\sdc/ff.c    **** 
1921:.\sdc/ff.c    **** 	return FR_OK;
1922:.\sdc/ff.c    **** }
1923:.\sdc/ff.c    **** 
1924:.\sdc/ff.c    **** 
1925:.\sdc/ff.c    **** 
1926:.\sdc/ff.c    **** 
1927:.\sdc/ff.c    **** /*-----------------------------------------------------------------------*/
1928:.\sdc/ff.c    **** /* Check if the file/dir object is valid or not                          */
1929:.\sdc/ff.c    **** /*-----------------------------------------------------------------------*/
1930:.\sdc/ff.c    **** 
1931:.\sdc/ff.c    **** static
1932:.\sdc/ff.c    **** FRESULT validate (	/* FR_OK(0): The object is valid, !=0: Invalid */
1933:.\sdc/ff.c    **** 	FATFS *fs,		/* Pointer to the file system object */
1934:.\sdc/ff.c    **** 	WORD id			/* Member id of the target object to be checked */
1935:.\sdc/ff.c    **** )
1936:.\sdc/ff.c    **** {
1937:.\sdc/ff.c    **** 	if (!fs || !fs->fs_type || fs->id != id)
1938:.\sdc/ff.c    **** 		return FR_INVALID_OBJECT;
1939:.\sdc/ff.c    **** 
1940:.\sdc/ff.c    **** 	ENTER_FF(fs);		/* Lock file system */
1941:.\sdc/ff.c    **** 
1942:.\sdc/ff.c    **** 	if (disk_status(fs->drv) & STA_NOINIT)
1943:.\sdc/ff.c    **** 		return FR_NOT_READY;
1944:.\sdc/ff.c    **** 
1945:.\sdc/ff.c    **** 	return FR_OK;
1946:.\sdc/ff.c    **** }
1947:.\sdc/ff.c    **** 
1948:.\sdc/ff.c    **** 
1949:.\sdc/ff.c    **** 
1950:.\sdc/ff.c    **** 
1951:.\sdc/ff.c    **** /*--------------------------------------------------------------------------
1952:.\sdc/ff.c    **** 
1953:.\sdc/ff.c    ****    Public Functions
1954:.\sdc/ff.c    **** 
1955:.\sdc/ff.c    **** --------------------------------------------------------------------------*/
1956:.\sdc/ff.c    **** 
1957:.\sdc/ff.c    **** 
1958:.\sdc/ff.c    **** 
1959:.\sdc/ff.c    **** /*-----------------------------------------------------------------------*/
1960:.\sdc/ff.c    **** /* Mount/Unmount a Logical Drive                                         */
1961:.\sdc/ff.c    **** /*-----------------------------------------------------------------------*/
1962:.\sdc/ff.c    **** 
1963:.\sdc/ff.c    **** FRESULT f_mount (
1964:.\sdc/ff.c    **** 	BYTE vol,		/* Logical drive number to be mounted/unmounted */
1965:.\sdc/ff.c    **** 	FATFS *fs		/* Pointer to new file system object (NULL for unmount)*/
1966:.\sdc/ff.c    **** )
1967:.\sdc/ff.c    **** {
ARM GAS  C:\Users\SUZUKI~1\AppData\Local\Temp\ccxHwcvf.s 			page 40


 253              		.loc 1 1967 0
 254              		.cfi_startproc
 255              		@ args = 0, pretend = 0, frame = 0
 256              		@ frame_needed = 0, uses_anonymous_args = 0
 257              		@ link register save eliminated.
 258              	.LVL22:
1968:.\sdc/ff.c    **** 	FATFS *rfs;
1969:.\sdc/ff.c    **** 
1970:.\sdc/ff.c    **** 
1971:.\sdc/ff.c    **** 	if (vol >= _VOLUMES)			/* Check if the drive number is valid */
 259              		.loc 1 1971 0
 260 0000 08B1     		cbz	r0, .L23
 261 0002 0B20     		movs	r0, #11
 262              	.LVL23:
 263 0004 7047     		bx	lr
 264              	.LVL24:
 265              	.L23:
1972:.\sdc/ff.c    **** 		return FR_INVALID_DRIVE;
1973:.\sdc/ff.c    **** 	rfs = FatFs[vol];				/* Get current fs object */
 266              		.loc 1 1973 0
 267 0006 054A     		ldr	r2, .L28
 268 0008 1268     		ldr	r2, [r2, #0]
 269              	.LVL25:
1974:.\sdc/ff.c    **** 
1975:.\sdc/ff.c    **** 	if (rfs) {
 270              		.loc 1 1975 0
 271 000a 02B1     		cbz	r2, .L25
1976:.\sdc/ff.c    **** #if _FS_SHARE
1977:.\sdc/ff.c    **** 		clear_lock(rfs);
1978:.\sdc/ff.c    **** #endif
1979:.\sdc/ff.c    **** #if _FS_REENTRANT					/* Discard sync object of the current volume */
1980:.\sdc/ff.c    **** 		if (!ff_del_syncobj(rfs->sobj)) return FR_INT_ERR;
1981:.\sdc/ff.c    **** #endif
1982:.\sdc/ff.c    **** 		rfs->fs_type = 0;			/* Clear old fs object */
 272              		.loc 1 1982 0
 273 000c 1070     		strb	r0, [r2, #0]
 274              	.L25:
1983:.\sdc/ff.c    **** 	}
1984:.\sdc/ff.c    **** 
1985:.\sdc/ff.c    **** 	if (fs) {
 275              		.loc 1 1985 0
 276 000e 09B1     		cbz	r1, .L26
1986:.\sdc/ff.c    **** 		fs->fs_type = 0;			/* Clear new fs object */
 277              		.loc 1 1986 0
 278 0010 0023     		movs	r3, #0
 279 0012 0B70     		strb	r3, [r1, #0]
 280              	.L26:
1987:.\sdc/ff.c    **** #if _FS_REENTRANT					/* Create sync object for the new volume */
1988:.\sdc/ff.c    **** 		if (!ff_cre_syncobj(vol, &fs->sobj)) return FR_INT_ERR;
1989:.\sdc/ff.c    **** #endif
1990:.\sdc/ff.c    **** 	}
1991:.\sdc/ff.c    **** 	FatFs[vol] = fs;				/* Register new fs object */
 281              		.loc 1 1991 0
 282 0014 014B     		ldr	r3, .L28
 283 0016 0020     		movs	r0, #0
 284              	.LVL26:
 285 0018 1960     		str	r1, [r3, #0]
ARM GAS  C:\Users\SUZUKI~1\AppData\Local\Temp\ccxHwcvf.s 			page 41


1992:.\sdc/ff.c    **** 
1993:.\sdc/ff.c    **** 	return FR_OK;
1994:.\sdc/ff.c    **** }
 286              		.loc 1 1994 0
 287 001a 7047     		bx	lr
 288              	.L29:
 289              		.align	2
 290              	.L28:
 291 001c 00000000 		.word	.LANCHOR0
 292              		.cfi_endproc
 293              	.LFE22:
 294              		.size	f_mount, .-f_mount
 295              		.section	.text.f_chdrive,"ax",%progbits
 296              		.align	1
 297              		.global	f_chdrive
 298              		.thumb
 299              		.thumb_func
 300              		.type	f_chdrive, %function
 301              	f_chdrive:
 302              	.LFB28:
1995:.\sdc/ff.c    **** 
1996:.\sdc/ff.c    **** 
1997:.\sdc/ff.c    **** 
1998:.\sdc/ff.c    **** 
1999:.\sdc/ff.c    **** /*-----------------------------------------------------------------------*/
2000:.\sdc/ff.c    **** /* Open or Create a File                                                 */
2001:.\sdc/ff.c    **** /*-----------------------------------------------------------------------*/
2002:.\sdc/ff.c    **** 
2003:.\sdc/ff.c    **** FRESULT f_open (
2004:.\sdc/ff.c    **** 	FIL *fp,			/* Pointer to the blank file object */
2005:.\sdc/ff.c    **** 	const TCHAR *path,	/* Pointer to the file name */
2006:.\sdc/ff.c    **** 	BYTE mode			/* Access mode and file open mode flags */
2007:.\sdc/ff.c    **** )
2008:.\sdc/ff.c    **** {
2009:.\sdc/ff.c    **** 	FRESULT res;
2010:.\sdc/ff.c    **** 	DIR dj;
2011:.\sdc/ff.c    **** 	BYTE *dir;
2012:.\sdc/ff.c    **** 	DEF_NAMEBUF;
2013:.\sdc/ff.c    **** 
2014:.\sdc/ff.c    **** 
2015:.\sdc/ff.c    **** 	fp->fs = 0;			/* Clear file object */
2016:.\sdc/ff.c    **** 
2017:.\sdc/ff.c    **** #if !_FS_READONLY
2018:.\sdc/ff.c    **** 	mode &= FA_READ | FA_WRITE | FA_CREATE_ALWAYS | FA_OPEN_ALWAYS | FA_CREATE_NEW;
2019:.\sdc/ff.c    **** 	res = chk_mounted(&path, &dj.fs, (BYTE)(mode & ~FA_READ));
2020:.\sdc/ff.c    **** #else
2021:.\sdc/ff.c    **** 	mode &= FA_READ;
2022:.\sdc/ff.c    **** 	res = chk_mounted(&path, &dj.fs, 0);
2023:.\sdc/ff.c    **** #endif
2024:.\sdc/ff.c    **** 	INIT_BUF(dj);
2025:.\sdc/ff.c    **** 	if (res == FR_OK)
2026:.\sdc/ff.c    **** 		res = follow_path(&dj, path);	/* Follow the file path */
2027:.\sdc/ff.c    **** 	dir = dj.dir;
2028:.\sdc/ff.c    **** 
2029:.\sdc/ff.c    **** #if !_FS_READONLY	/* R/W configuration */
2030:.\sdc/ff.c    **** 	if (res == FR_OK) {
2031:.\sdc/ff.c    **** 		if (!dir)	/* Current dir itself */
ARM GAS  C:\Users\SUZUKI~1\AppData\Local\Temp\ccxHwcvf.s 			page 42


2032:.\sdc/ff.c    **** 			res = FR_INVALID_NAME;
2033:.\sdc/ff.c    **** #if _FS_SHARE
2034:.\sdc/ff.c    **** 		else
2035:.\sdc/ff.c    **** 			res = chk_lock(&dj, (mode & ~FA_READ) ? 1 : 0);
2036:.\sdc/ff.c    **** #endif
2037:.\sdc/ff.c    **** 	}
2038:.\sdc/ff.c    **** 	/* Create or Open a file */
2039:.\sdc/ff.c    **** 	if (mode & (FA_CREATE_ALWAYS | FA_OPEN_ALWAYS | FA_CREATE_NEW)) {
2040:.\sdc/ff.c    **** 		DWORD dw, cl;
2041:.\sdc/ff.c    **** 
2042:.\sdc/ff.c    **** 		if (res != FR_OK) {					/* No file, create new */
2043:.\sdc/ff.c    **** 			if (res == FR_NO_FILE)			/* There is no file to open, create a new entry */
2044:.\sdc/ff.c    **** #if _FS_SHARE
2045:.\sdc/ff.c    **** 				res = enq_lock(dj.fs) ? dir_register(&dj) : FR_TOO_MANY_OPEN_FILES;
2046:.\sdc/ff.c    **** #else
2047:.\sdc/ff.c    **** 				res = dir_register(&dj);
2048:.\sdc/ff.c    **** #endif
2049:.\sdc/ff.c    **** 			mode |= FA_CREATE_ALWAYS;		/* File is created */
2050:.\sdc/ff.c    **** 			dir = dj.dir;					/* New entry */
2051:.\sdc/ff.c    **** 		}
2052:.\sdc/ff.c    **** 		else {								/* Any object is already existing */
2053:.\sdc/ff.c    **** 			if (mode & FA_CREATE_NEW) {		/* Cannot create new */
2054:.\sdc/ff.c    **** 				res = FR_EXIST;
2055:.\sdc/ff.c    **** 			} else {
2056:.\sdc/ff.c    **** 				if (dir[DIR_Attr] & (AM_RDO | AM_DIR))	/* Cannot overwrite it (R/O or DIR) */
2057:.\sdc/ff.c    **** 					res = FR_DENIED;
2058:.\sdc/ff.c    **** 			}
2059:.\sdc/ff.c    **** 		}
2060:.\sdc/ff.c    **** 		if (res == FR_OK && (mode & FA_CREATE_ALWAYS)) {	/* Truncate it if overwrite mode */
2061:.\sdc/ff.c    **** 			dw = get_fattime();					/* Created time */
2062:.\sdc/ff.c    **** 			ST_DWORD(dir+DIR_CrtTime, dw);
2063:.\sdc/ff.c    **** 			dir[DIR_Attr] = 0;					/* Reset attribute */
2064:.\sdc/ff.c    **** 			ST_DWORD(dir+DIR_FileSize, 0);		/* size = 0 */
2065:.\sdc/ff.c    **** 			cl = LD_CLUST(dir);					/* Get start cluster */
2066:.\sdc/ff.c    **** 			ST_CLUST(dir, 0);					/* cluster = 0 */
2067:.\sdc/ff.c    **** 			dj.fs->wflag = 1;
2068:.\sdc/ff.c    **** 			if (cl) {							/* Remove the cluster chain if exist */
2069:.\sdc/ff.c    **** 				dw = dj.fs->winsect;
2070:.\sdc/ff.c    **** 				res = remove_chain(dj.fs, cl);
2071:.\sdc/ff.c    **** 				if (res == FR_OK) {
2072:.\sdc/ff.c    **** 					dj.fs->last_clust = cl - 1;	/* Reuse the cluster hole */
2073:.\sdc/ff.c    **** 					res = move_window(dj.fs, dw);
2074:.\sdc/ff.c    **** 				}
2075:.\sdc/ff.c    **** 			}
2076:.\sdc/ff.c    **** 		}
2077:.\sdc/ff.c    **** 	}
2078:.\sdc/ff.c    **** 	else {	/* Open an existing file */
2079:.\sdc/ff.c    **** 		if (res == FR_OK) {						/* Follow succeeded */
2080:.\sdc/ff.c    **** 			if (dir[DIR_Attr] & AM_DIR) {		/* It is a directory */
2081:.\sdc/ff.c    **** 				res = FR_NO_FILE;
2082:.\sdc/ff.c    **** 			} else {
2083:.\sdc/ff.c    **** 				if ((mode & FA_WRITE) && (dir[DIR_Attr] & AM_RDO)) /* R/O violation */
2084:.\sdc/ff.c    **** 					res = FR_DENIED;
2085:.\sdc/ff.c    **** 			}
2086:.\sdc/ff.c    **** 		}
2087:.\sdc/ff.c    **** 	}
2088:.\sdc/ff.c    **** 	if (res == FR_OK) {
ARM GAS  C:\Users\SUZUKI~1\AppData\Local\Temp\ccxHwcvf.s 			page 43


2089:.\sdc/ff.c    **** 		if (mode & FA_CREATE_ALWAYS)			/* Set file change flag if created or overwritten */
2090:.\sdc/ff.c    **** 			mode |= FA__WRITTEN;
2091:.\sdc/ff.c    **** 		fp->dir_sect = dj.fs->winsect;			/* Pointer to the directory entry */
2092:.\sdc/ff.c    **** 		fp->dir_ptr = dir;
2093:.\sdc/ff.c    **** #if _FS_SHARE
2094:.\sdc/ff.c    **** 		fp->lockid = inc_lock(&dj, (mode & ~FA_READ) ? 1 : 0);
2095:.\sdc/ff.c    **** 		if (!fp->lockid) res = FR_INT_ERR;
2096:.\sdc/ff.c    **** #endif
2097:.\sdc/ff.c    **** 	}
2098:.\sdc/ff.c    **** 
2099:.\sdc/ff.c    **** #else				/* R/O configuration */
2100:.\sdc/ff.c    **** 	if (res == FR_OK) {					/* Follow succeeded */
2101:.\sdc/ff.c    **** 		if (!dir) {						/* Current dir itself */
2102:.\sdc/ff.c    **** 			res = FR_INVALID_NAME;
2103:.\sdc/ff.c    **** 		} else {
2104:.\sdc/ff.c    **** 			if (dir[DIR_Attr] & AM_DIR)	/* It is a directory */
2105:.\sdc/ff.c    **** 				res = FR_NO_FILE;
2106:.\sdc/ff.c    **** 		}
2107:.\sdc/ff.c    **** 	}
2108:.\sdc/ff.c    **** #endif
2109:.\sdc/ff.c    **** 	FREE_BUF();
2110:.\sdc/ff.c    **** 
2111:.\sdc/ff.c    **** 	if (res == FR_OK) {
2112:.\sdc/ff.c    **** 		fp->flag = mode;					/* File access mode */
2113:.\sdc/ff.c    **** 		fp->org_clust =	LD_CLUST(dir);		/* File start cluster */
2114:.\sdc/ff.c    **** 		fp->fsize = LD_DWORD(dir+DIR_FileSize);	/* File size */
2115:.\sdc/ff.c    **** 		fp->fptr = 0;						/* File pointer */
2116:.\sdc/ff.c    **** 		fp->dsect = 0;
2117:.\sdc/ff.c    **** #if _USE_FASTSEEK
2118:.\sdc/ff.c    **** 		fp->cltbl = 0;						/* No cluster link map table */
2119:.\sdc/ff.c    **** #endif
2120:.\sdc/ff.c    **** 		fp->fs = dj.fs; fp->id = dj.fs->id;	/* Validate file object */
2121:.\sdc/ff.c    **** 	}
2122:.\sdc/ff.c    **** 
2123:.\sdc/ff.c    **** 	LEAVE_FF(dj.fs, res);
2124:.\sdc/ff.c    **** }
2125:.\sdc/ff.c    **** 
2126:.\sdc/ff.c    **** 
2127:.\sdc/ff.c    **** 
2128:.\sdc/ff.c    **** 
2129:.\sdc/ff.c    **** /*-----------------------------------------------------------------------*/
2130:.\sdc/ff.c    **** /* Read File                                                             */
2131:.\sdc/ff.c    **** /*-----------------------------------------------------------------------*/
2132:.\sdc/ff.c    **** 
2133:.\sdc/ff.c    **** FRESULT f_read (
2134:.\sdc/ff.c    **** 	FIL *fp, 		/* Pointer to the file object */
2135:.\sdc/ff.c    **** 	void *buff,		/* Pointer to data buffer */
2136:.\sdc/ff.c    **** 	UINT btr,		/* Number of bytes to read */
2137:.\sdc/ff.c    **** 	UINT *br		/* Pointer to number of bytes read */
2138:.\sdc/ff.c    **** )
2139:.\sdc/ff.c    **** {
2140:.\sdc/ff.c    **** 	FRESULT res;
2141:.\sdc/ff.c    **** 	DWORD clst, sect, remain;
2142:.\sdc/ff.c    **** 	UINT rcnt, cc;
2143:.\sdc/ff.c    **** 	BYTE csect, *rbuff = buff;
2144:.\sdc/ff.c    **** 
2145:.\sdc/ff.c    **** 
ARM GAS  C:\Users\SUZUKI~1\AppData\Local\Temp\ccxHwcvf.s 			page 44


2146:.\sdc/ff.c    **** 	*br = 0;	/* Initialize byte counter */
2147:.\sdc/ff.c    **** 
2148:.\sdc/ff.c    **** 	res = validate(fp->fs, fp->id);					/* Check validity of the object */
2149:.\sdc/ff.c    **** 	if (res != FR_OK) LEAVE_FF(fp->fs, res);
2150:.\sdc/ff.c    **** 	if (fp->flag & FA__ERROR)						/* Check abort flag */
2151:.\sdc/ff.c    **** 		LEAVE_FF(fp->fs, FR_INT_ERR);
2152:.\sdc/ff.c    **** 	if (!(fp->flag & FA_READ)) 						/* Check access mode */
2153:.\sdc/ff.c    **** 		LEAVE_FF(fp->fs, FR_DENIED);
2154:.\sdc/ff.c    **** 	remain = fp->fsize - fp->fptr;
2155:.\sdc/ff.c    **** 	if (btr > remain) btr = (UINT)remain;			/* Truncate btr by remaining bytes */
2156:.\sdc/ff.c    **** 
2157:.\sdc/ff.c    **** 	for ( ;  btr;									/* Repeat until all data transferred */
2158:.\sdc/ff.c    **** 		rbuff += rcnt, fp->fptr += rcnt, *br += rcnt, btr -= rcnt) {
2159:.\sdc/ff.c    **** 		if ((fp->fptr % SS(fp->fs)) == 0) {			/* On the sector boundary? */
2160:.\sdc/ff.c    **** 			csect = (BYTE)(fp->fptr / SS(fp->fs) & (fp->fs->csize - 1));	/* Sector offset in the cluster */
2161:.\sdc/ff.c    **** 			if (!csect) {							/* On the cluster boundary? */
2162:.\sdc/ff.c    **** 				clst = (fp->fptr == 0) ?			/* On the top of the file? */
2163:.\sdc/ff.c    **** 					fp->org_clust : get_fat(fp->fs, fp->curr_clust);
2164:.\sdc/ff.c    **** 				if (clst <= 1) ABORT(fp->fs, FR_INT_ERR);
2165:.\sdc/ff.c    **** 				if (clst == 0xFFFFFFFF) ABORT(fp->fs, FR_DISK_ERR);
2166:.\sdc/ff.c    **** 				fp->curr_clust = clst;				/* Update current cluster */
2167:.\sdc/ff.c    **** 			}
2168:.\sdc/ff.c    **** 			sect = clust2sect(fp->fs, fp->curr_clust);	/* Get current sector */
2169:.\sdc/ff.c    **** 			if (!sect) ABORT(fp->fs, FR_INT_ERR);
2170:.\sdc/ff.c    **** 			sect += csect;
2171:.\sdc/ff.c    **** 			cc = btr / SS(fp->fs);					/* When remaining bytes >= sector size, */
2172:.\sdc/ff.c    **** 			if (cc) {								/* Read maximum contiguous sectors directly */
2173:.\sdc/ff.c    **** 				if (csect + cc > fp->fs->csize)		/* Clip at cluster boundary */
2174:.\sdc/ff.c    **** 					cc = fp->fs->csize - csect;
2175:.\sdc/ff.c    **** 				if (disk_read(fp->fs->drv, rbuff, sect, (BYTE)cc) != RES_OK)
2176:.\sdc/ff.c    **** 					ABORT(fp->fs, FR_DISK_ERR);
2177:.\sdc/ff.c    **** #if !_FS_READONLY && _FS_MINIMIZE <= 2				/* Replace one of the read sectors with cached data if it
2178:.\sdc/ff.c    **** #if _FS_TINY
2179:.\sdc/ff.c    **** 				if (fp->fs->wflag && fp->fs->winsect - sect < cc)
2180:.\sdc/ff.c    **** 					mem_cpy(rbuff + ((fp->fs->winsect - sect) * SS(fp->fs)), fp->fs->win, SS(fp->fs));
2181:.\sdc/ff.c    **** #else
2182:.\sdc/ff.c    **** 				if ((fp->flag & FA__DIRTY) && fp->dsect - sect < cc)
2183:.\sdc/ff.c    **** 					mem_cpy(rbuff + ((fp->dsect - sect) * SS(fp->fs)), fp->buf, SS(fp->fs));
2184:.\sdc/ff.c    **** #endif
2185:.\sdc/ff.c    **** #endif
2186:.\sdc/ff.c    **** 				rcnt = SS(fp->fs) * cc;				/* Number of bytes transferred */
2187:.\sdc/ff.c    **** 				continue;
2188:.\sdc/ff.c    **** 			}
2189:.\sdc/ff.c    **** #if !_FS_TINY
2190:.\sdc/ff.c    **** #if !_FS_READONLY
2191:.\sdc/ff.c    **** 			if (fp->flag & FA__DIRTY) {				/* Write sector I/O buffer if needed */
2192:.\sdc/ff.c    **** 				if (disk_write(fp->fs->drv, fp->buf, fp->dsect, 1) != RES_OK)
2193:.\sdc/ff.c    **** 					ABORT(fp->fs, FR_DISK_ERR);
2194:.\sdc/ff.c    **** 				fp->flag &= ~FA__DIRTY;
2195:.\sdc/ff.c    **** 			}
2196:.\sdc/ff.c    **** #endif
2197:.\sdc/ff.c    **** 			if (fp->dsect != sect) {				/* Fill sector buffer with file data */
2198:.\sdc/ff.c    **** 				if (disk_read(fp->fs->drv, fp->buf, sect, 1) != RES_OK)
2199:.\sdc/ff.c    **** 					ABORT(fp->fs, FR_DISK_ERR);
2200:.\sdc/ff.c    **** 			}
2201:.\sdc/ff.c    **** #endif
2202:.\sdc/ff.c    **** 			fp->dsect = sect;
ARM GAS  C:\Users\SUZUKI~1\AppData\Local\Temp\ccxHwcvf.s 			page 45


2203:.\sdc/ff.c    **** 		}
2204:.\sdc/ff.c    **** 		rcnt = SS(fp->fs) - (fp->fptr % SS(fp->fs));	/* Get partial sector data from sector buffer */
2205:.\sdc/ff.c    **** 		if (rcnt > btr) rcnt = btr;
2206:.\sdc/ff.c    **** #if _FS_TINY
2207:.\sdc/ff.c    **** 		if (move_window(fp->fs, fp->dsect))			/* Move sector window */
2208:.\sdc/ff.c    **** 			ABORT(fp->fs, FR_DISK_ERR);
2209:.\sdc/ff.c    **** 		mem_cpy(rbuff, &fp->fs->win[fp->fptr % SS(fp->fs)], rcnt);	/* Pick partial sector */
2210:.\sdc/ff.c    **** #else
2211:.\sdc/ff.c    **** 		mem_cpy(rbuff, &fp->buf[fp->fptr % SS(fp->fs)], rcnt);	/* Pick partial sector */
2212:.\sdc/ff.c    **** #endif
2213:.\sdc/ff.c    **** 	}
2214:.\sdc/ff.c    **** 
2215:.\sdc/ff.c    **** 	LEAVE_FF(fp->fs, FR_OK);
2216:.\sdc/ff.c    **** }
2217:.\sdc/ff.c    **** 
2218:.\sdc/ff.c    **** 
2219:.\sdc/ff.c    **** 
2220:.\sdc/ff.c    **** 
2221:.\sdc/ff.c    **** #if !_FS_READONLY
2222:.\sdc/ff.c    **** /*-----------------------------------------------------------------------*/
2223:.\sdc/ff.c    **** /* Write File                                                            */
2224:.\sdc/ff.c    **** /*-----------------------------------------------------------------------*/
2225:.\sdc/ff.c    **** 
2226:.\sdc/ff.c    **** FRESULT f_write (
2227:.\sdc/ff.c    **** 	FIL *fp,			/* Pointer to the file object */
2228:.\sdc/ff.c    **** 	const void *buff,	/* Pointer to the data to be written */
2229:.\sdc/ff.c    **** 	UINT btw,			/* Number of bytes to write */
2230:.\sdc/ff.c    **** 	UINT *bw			/* Pointer to number of bytes written */
2231:.\sdc/ff.c    **** )
2232:.\sdc/ff.c    **** {
2233:.\sdc/ff.c    **** 	FRESULT res;
2234:.\sdc/ff.c    **** 	DWORD clst, sect;
2235:.\sdc/ff.c    **** 	UINT wcnt, cc;
2236:.\sdc/ff.c    **** 	const BYTE *wbuff = buff;
2237:.\sdc/ff.c    **** 	BYTE csect;
2238:.\sdc/ff.c    **** 
2239:.\sdc/ff.c    **** 
2240:.\sdc/ff.c    **** 	*bw = 0;	/* Initialize byte counter */
2241:.\sdc/ff.c    **** 
2242:.\sdc/ff.c    **** 	res = validate(fp->fs, fp->id);					/* Check validity of the object */
2243:.\sdc/ff.c    **** 	if (res != FR_OK) LEAVE_FF(fp->fs, res);
2244:.\sdc/ff.c    **** 	if (fp->flag & FA__ERROR)						/* Check abort flag */
2245:.\sdc/ff.c    **** 		LEAVE_FF(fp->fs, FR_INT_ERR);
2246:.\sdc/ff.c    **** 	if (!(fp->flag & FA_WRITE))						/* Check access mode */
2247:.\sdc/ff.c    **** 		LEAVE_FF(fp->fs, FR_DENIED);
2248:.\sdc/ff.c    **** 	if (fp->fsize + btw < fp->fsize) btw = 0;		/* File size cannot reach 4GB */
2249:.\sdc/ff.c    **** 
2250:.\sdc/ff.c    **** 	for ( ;  btw;									/* Repeat until all data transferred */
2251:.\sdc/ff.c    **** 		wbuff += wcnt, fp->fptr += wcnt, *bw += wcnt, btw -= wcnt) {
2252:.\sdc/ff.c    **** 		if ((fp->fptr % SS(fp->fs)) == 0) {			/* On the sector boundary? */
2253:.\sdc/ff.c    **** 			csect = (BYTE)(fp->fptr / SS(fp->fs) & (fp->fs->csize - 1));	/* Sector offset in the cluster */
2254:.\sdc/ff.c    **** 			if (!csect) {							/* On the cluster boundary? */
2255:.\sdc/ff.c    **** 				if (fp->fptr == 0) {				/* On the top of the file? */
2256:.\sdc/ff.c    **** 					clst = fp->org_clust;			/* Follow from the origin */
2257:.\sdc/ff.c    **** 					if (clst == 0)					/* When there is no cluster chain, */
2258:.\sdc/ff.c    **** 						fp->org_clust = clst = create_chain(fp->fs, 0);	/* Create a new cluster chain */
2259:.\sdc/ff.c    **** 				} else {							/* Middle or end of the file */
ARM GAS  C:\Users\SUZUKI~1\AppData\Local\Temp\ccxHwcvf.s 			page 46


2260:.\sdc/ff.c    **** 					clst = create_chain(fp->fs, fp->curr_clust);			/* Follow or stretch cluster chain */
2261:.\sdc/ff.c    **** 				}
2262:.\sdc/ff.c    **** 				if (clst == 0) break;				/* Could not allocate a new cluster (disk full) */
2263:.\sdc/ff.c    **** 				if (clst == 1) ABORT(fp->fs, FR_INT_ERR);
2264:.\sdc/ff.c    **** 				if (clst == 0xFFFFFFFF) ABORT(fp->fs, FR_DISK_ERR);
2265:.\sdc/ff.c    **** 				fp->curr_clust = clst;				/* Update current cluster */
2266:.\sdc/ff.c    **** 			}
2267:.\sdc/ff.c    **** #if _FS_TINY
2268:.\sdc/ff.c    **** 			if (fp->fs->winsect == fp->dsect && move_window(fp->fs, 0))	/* Write back data buffer prior to f
2269:.\sdc/ff.c    **** 				ABORT(fp->fs, FR_DISK_ERR);
2270:.\sdc/ff.c    **** #else
2271:.\sdc/ff.c    **** 			if (fp->flag & FA__DIRTY) {		/* Write back data buffer prior to following direct transfer */
2272:.\sdc/ff.c    **** 				if (disk_write(fp->fs->drv, fp->buf, fp->dsect, 1) != RES_OK)
2273:.\sdc/ff.c    **** 					ABORT(fp->fs, FR_DISK_ERR);
2274:.\sdc/ff.c    **** 				fp->flag &= ~FA__DIRTY;
2275:.\sdc/ff.c    **** 			}
2276:.\sdc/ff.c    **** #endif
2277:.\sdc/ff.c    **** 			sect = clust2sect(fp->fs, fp->curr_clust);	/* Get current sector */
2278:.\sdc/ff.c    **** 			if (!sect) ABORT(fp->fs, FR_INT_ERR);
2279:.\sdc/ff.c    **** 			sect += csect;
2280:.\sdc/ff.c    **** 			cc = btw / SS(fp->fs);					/* When remaining bytes >= sector size, */
2281:.\sdc/ff.c    **** 			if (cc) {								/* Write maximum contiguous sectors directly */
2282:.\sdc/ff.c    **** 				if (csect + cc > fp->fs->csize)		/* Clip at cluster boundary */
2283:.\sdc/ff.c    **** 					cc = fp->fs->csize - csect;
2284:.\sdc/ff.c    **** 				if (disk_write(fp->fs->drv, wbuff, sect, (BYTE)cc) != RES_OK)
2285:.\sdc/ff.c    **** 					ABORT(fp->fs, FR_DISK_ERR);
2286:.\sdc/ff.c    **** #if _FS_TINY
2287:.\sdc/ff.c    **** 				if (fp->fs->winsect - sect < cc) {	/* Refill sector cache if it gets dirty by the direct write 
2288:.\sdc/ff.c    **** 					mem_cpy(fp->fs->win, wbuff + ((fp->fs->winsect - sect) * SS(fp->fs)), SS(fp->fs));
2289:.\sdc/ff.c    **** 					fp->fs->wflag = 0;
2290:.\sdc/ff.c    **** 				}
2291:.\sdc/ff.c    **** #else
2292:.\sdc/ff.c    **** 				if (fp->dsect - sect < cc) {		/* Refill sector cache if it gets dirty by the direct write */
2293:.\sdc/ff.c    **** 					mem_cpy(fp->buf, wbuff + ((fp->dsect - sect) * SS(fp->fs)), SS(fp->fs));
2294:.\sdc/ff.c    **** 					fp->flag &= ~FA__DIRTY;
2295:.\sdc/ff.c    **** 				}
2296:.\sdc/ff.c    **** #endif
2297:.\sdc/ff.c    **** 				wcnt = SS(fp->fs) * cc;				/* Number of bytes transferred */
2298:.\sdc/ff.c    **** 				continue;
2299:.\sdc/ff.c    **** 			}
2300:.\sdc/ff.c    **** #if _FS_TINY
2301:.\sdc/ff.c    **** 			if (fp->fptr >= fp->fsize) {			/* Avoid silly buffer filling at growing edge */
2302:.\sdc/ff.c    **** 				if (move_window(fp->fs, 0)) ABORT(fp->fs, FR_DISK_ERR);
2303:.\sdc/ff.c    **** 				fp->fs->winsect = sect;
2304:.\sdc/ff.c    **** 			}
2305:.\sdc/ff.c    **** #else
2306:.\sdc/ff.c    **** 			if (fp->dsect != sect) {				/* Fill sector buffer with file data */
2307:.\sdc/ff.c    **** 				if (fp->fptr < fp->fsize &&
2308:.\sdc/ff.c    **** 					disk_read(fp->fs->drv, fp->buf, sect, 1) != RES_OK)
2309:.\sdc/ff.c    **** 						ABORT(fp->fs, FR_DISK_ERR);
2310:.\sdc/ff.c    **** 			}
2311:.\sdc/ff.c    **** #endif
2312:.\sdc/ff.c    **** 			fp->dsect = sect;
2313:.\sdc/ff.c    **** 		}
2314:.\sdc/ff.c    **** 		wcnt = SS(fp->fs) - (fp->fptr % SS(fp->fs));/* Put partial sector into file I/O buffer */
2315:.\sdc/ff.c    **** 		if (wcnt > btw) wcnt = btw;
2316:.\sdc/ff.c    **** #if _FS_TINY
ARM GAS  C:\Users\SUZUKI~1\AppData\Local\Temp\ccxHwcvf.s 			page 47


2317:.\sdc/ff.c    **** 		if (move_window(fp->fs, fp->dsect))			/* Move sector window */
2318:.\sdc/ff.c    **** 			ABORT(fp->fs, FR_DISK_ERR);
2319:.\sdc/ff.c    **** 		mem_cpy(&fp->fs->win[fp->fptr % SS(fp->fs)], wbuff, wcnt);	/* Fit partial sector */
2320:.\sdc/ff.c    **** 		fp->fs->wflag = 1;
2321:.\sdc/ff.c    **** #else
2322:.\sdc/ff.c    **** 		mem_cpy(&fp->buf[fp->fptr % SS(fp->fs)], wbuff, wcnt);	/* Fit partial sector */
2323:.\sdc/ff.c    **** 		fp->flag |= FA__DIRTY;
2324:.\sdc/ff.c    **** #endif
2325:.\sdc/ff.c    **** 	}
2326:.\sdc/ff.c    **** 
2327:.\sdc/ff.c    **** 	if (fp->fptr > fp->fsize) fp->fsize = fp->fptr;	/* Update file size if needed */
2328:.\sdc/ff.c    **** 	fp->flag |= FA__WRITTEN;						/* Set file change flag */
2329:.\sdc/ff.c    **** 
2330:.\sdc/ff.c    **** 	LEAVE_FF(fp->fs, FR_OK);
2331:.\sdc/ff.c    **** }
2332:.\sdc/ff.c    **** 
2333:.\sdc/ff.c    **** 
2334:.\sdc/ff.c    **** 
2335:.\sdc/ff.c    **** 
2336:.\sdc/ff.c    **** /*-----------------------------------------------------------------------*/
2337:.\sdc/ff.c    **** /* Synchronize the File Object                                           */
2338:.\sdc/ff.c    **** /*-----------------------------------------------------------------------*/
2339:.\sdc/ff.c    **** 
2340:.\sdc/ff.c    **** FRESULT f_sync (
2341:.\sdc/ff.c    **** 	FIL *fp		/* Pointer to the file object */
2342:.\sdc/ff.c    **** )
2343:.\sdc/ff.c    **** {
2344:.\sdc/ff.c    **** 	FRESULT res;
2345:.\sdc/ff.c    **** 	DWORD tim;
2346:.\sdc/ff.c    **** 	BYTE *dir;
2347:.\sdc/ff.c    **** 
2348:.\sdc/ff.c    **** 
2349:.\sdc/ff.c    **** 	res = validate(fp->fs, fp->id);		/* Check validity of the object */
2350:.\sdc/ff.c    **** 	if (res == FR_OK) {
2351:.\sdc/ff.c    **** 		if (fp->flag & FA__WRITTEN) {	/* Has the file been written? */
2352:.\sdc/ff.c    **** #if !_FS_TINY	/* Write-back dirty buffer */
2353:.\sdc/ff.c    **** 			if (fp->flag & FA__DIRTY) {
2354:.\sdc/ff.c    **** 				if (disk_write(fp->fs->drv, fp->buf, fp->dsect, 1) != RES_OK)
2355:.\sdc/ff.c    **** 					LEAVE_FF(fp->fs, FR_DISK_ERR);
2356:.\sdc/ff.c    **** 				fp->flag &= ~FA__DIRTY;
2357:.\sdc/ff.c    **** 			}
2358:.\sdc/ff.c    **** #endif
2359:.\sdc/ff.c    **** 			/* Update the directory entry */
2360:.\sdc/ff.c    **** 			res = move_window(fp->fs, fp->dir_sect);
2361:.\sdc/ff.c    **** 			if (res == FR_OK) {
2362:.\sdc/ff.c    **** 				dir = fp->dir_ptr;
2363:.\sdc/ff.c    **** 				dir[DIR_Attr] |= AM_ARC;					/* Set archive bit */
2364:.\sdc/ff.c    **** 				ST_DWORD(dir+DIR_FileSize, fp->fsize);		/* Update file size */
2365:.\sdc/ff.c    **** 				ST_CLUST(dir, fp->org_clust);				/* Update start cluster */
2366:.\sdc/ff.c    **** 				tim = get_fattime();						/* Update updated time */
2367:.\sdc/ff.c    **** 				ST_DWORD(dir+DIR_WrtTime, tim);
2368:.\sdc/ff.c    **** 				fp->flag &= ~FA__WRITTEN;
2369:.\sdc/ff.c    **** 				fp->fs->wflag = 1;
2370:.\sdc/ff.c    **** 				res = sync(fp->fs);
2371:.\sdc/ff.c    **** 			}
2372:.\sdc/ff.c    **** 		}
2373:.\sdc/ff.c    **** 	}
ARM GAS  C:\Users\SUZUKI~1\AppData\Local\Temp\ccxHwcvf.s 			page 48


2374:.\sdc/ff.c    **** 
2375:.\sdc/ff.c    **** 	LEAVE_FF(fp->fs, res);
2376:.\sdc/ff.c    **** }
2377:.\sdc/ff.c    **** 
2378:.\sdc/ff.c    **** #endif /* !_FS_READONLY */
2379:.\sdc/ff.c    **** 
2380:.\sdc/ff.c    **** 
2381:.\sdc/ff.c    **** 
2382:.\sdc/ff.c    **** 
2383:.\sdc/ff.c    **** /*-----------------------------------------------------------------------*/
2384:.\sdc/ff.c    **** /* Close File                                                            */
2385:.\sdc/ff.c    **** /*-----------------------------------------------------------------------*/
2386:.\sdc/ff.c    **** 
2387:.\sdc/ff.c    **** FRESULT f_close (
2388:.\sdc/ff.c    **** 	FIL *fp		/* Pointer to the file object to be closed */
2389:.\sdc/ff.c    **** )
2390:.\sdc/ff.c    **** {
2391:.\sdc/ff.c    **** 	FRESULT res;
2392:.\sdc/ff.c    **** 
2393:.\sdc/ff.c    **** #if _FS_READONLY
2394:.\sdc/ff.c    **** 	FATFS *fs = fp->fs;
2395:.\sdc/ff.c    **** 	res = validate(fs, fp->id);
2396:.\sdc/ff.c    **** 	if (res == FR_OK) fp->fs = 0;	/* Discard file object */
2397:.\sdc/ff.c    **** 	LEAVE_FF(fs, res);
2398:.\sdc/ff.c    **** 
2399:.\sdc/ff.c    **** #else
2400:.\sdc/ff.c    **** 	res = f_sync(fp);		/* Flush cached data */
2401:.\sdc/ff.c    **** #if _FS_SHARE
2402:.\sdc/ff.c    **** 	if (res == FR_OK) {		/* Decrement open counter */
2403:.\sdc/ff.c    **** #if _FS_REENTRANT
2404:.\sdc/ff.c    **** 		res = validate(fp->fs, fp->id);
2405:.\sdc/ff.c    **** 		if (res == FR_OK) {
2406:.\sdc/ff.c    **** 			res = dec_lock(fp->lockid);	
2407:.\sdc/ff.c    **** 			unlock_fs(fp->fs, FR_OK);
2408:.\sdc/ff.c    **** 		}
2409:.\sdc/ff.c    **** #else
2410:.\sdc/ff.c    **** 		res = dec_lock(fp->lockid);
2411:.\sdc/ff.c    **** #endif
2412:.\sdc/ff.c    **** 	}
2413:.\sdc/ff.c    **** #endif
2414:.\sdc/ff.c    **** 	if (res == FR_OK) fp->fs = 0;	/* Discard file object */
2415:.\sdc/ff.c    **** 	return res;
2416:.\sdc/ff.c    **** #endif
2417:.\sdc/ff.c    **** }
2418:.\sdc/ff.c    **** 
2419:.\sdc/ff.c    **** 
2420:.\sdc/ff.c    **** 
2421:.\sdc/ff.c    **** 
2422:.\sdc/ff.c    **** /*-----------------------------------------------------------------------*/
2423:.\sdc/ff.c    **** /* Current Drive/Directory Handlings                                     */
2424:.\sdc/ff.c    **** /*-----------------------------------------------------------------------*/
2425:.\sdc/ff.c    **** 
2426:.\sdc/ff.c    **** #if _FS_RPATH >= 1
2427:.\sdc/ff.c    **** 
2428:.\sdc/ff.c    **** FRESULT f_chdrive (
2429:.\sdc/ff.c    **** 	BYTE drv		/* Drive number */
2430:.\sdc/ff.c    **** )
ARM GAS  C:\Users\SUZUKI~1\AppData\Local\Temp\ccxHwcvf.s 			page 49


2431:.\sdc/ff.c    **** {
 303              		.loc 1 2431 0
 304              		.cfi_startproc
 305              		@ args = 0, pretend = 0, frame = 0
 306              		@ frame_needed = 0, uses_anonymous_args = 0
 307              		@ link register save eliminated.
 308              	.LVL27:
2432:.\sdc/ff.c    **** 	if (drv >= _VOLUMES) return FR_INVALID_DRIVE;
 309              		.loc 1 2432 0
 310 0000 08B1     		cbz	r0, .L31
 311 0002 0B20     		movs	r0, #11
 312              	.LVL28:
 313 0004 7047     		bx	lr
 314              	.LVL29:
 315              	.L31:
2433:.\sdc/ff.c    **** 
2434:.\sdc/ff.c    **** 	CurrVol = drv;
 316              		.loc 1 2434 0
 317 0006 014A     		ldr	r2, .L34
 318 0008 1071     		strb	r0, [r2, #4]
 319              	.LVL30:
2435:.\sdc/ff.c    **** 
2436:.\sdc/ff.c    **** 	return FR_OK;
2437:.\sdc/ff.c    **** }
 320              		.loc 1 2437 0
 321 000a 7047     		bx	lr
 322              	.L35:
 323              		.align	2
 324              	.L34:
 325 000c 00000000 		.word	.LANCHOR0
 326              		.cfi_endproc
 327              	.LFE28:
 328              		.size	f_chdrive, .-f_chdrive
 329              		.section	.text.validate,"ax",%progbits
 330              		.align	1
 331              		.thumb
 332              		.thumb_func
 333              		.type	validate, %function
 334              	validate:
 335              	.LFB21:
 336              		.loc 1 1936 0
 337              		.cfi_startproc
 338              		@ args = 0, pretend = 0, frame = 0
 339              		@ frame_needed = 0, uses_anonymous_args = 0
 340              	.LVL31:
 341 0000 08B5     		push	{r3, lr}
 342              	.LCFI1:
 343              		.cfi_def_cfa_offset 8
 344              		.loc 1 1937 0
 345 0002 60B1     		cbz	r0, .L37
 346              		.cfi_offset 14, -4
 347              		.cfi_offset 3, -8
 348 0004 0278     		ldrb	r2, [r0, #0]	@ zero_extendqisi2
 349 0006 52B1     		cbz	r2, .L37
 350 0008 C288     		ldrh	r2, [r0, #6]
 351 000a 8A42     		cmp	r2, r1
 352 000c 07D1     		bne	.L37
ARM GAS  C:\Users\SUZUKI~1\AppData\Local\Temp\ccxHwcvf.s 			page 50


 353              		.loc 1 1942 0
 354 000e 4078     		ldrb	r0, [r0, #1]	@ zero_extendqisi2
 355              	.LVL32:
 356 0010 FFF7FEFF 		bl	disk_status
 357              	.LVL33:
 358 0014 10F00100 		ands	r0, r0, #1
 359 0018 18BF     		it	ne
 360 001a 0320     		movne	r0, #3
 361 001c 08BD     		pop	{r3, pc}
 362              	.LVL34:
 363              	.L37:
 364 001e 0920     		movs	r0, #9
 365              	.LVL35:
 366              		.loc 1 1946 0
 367 0020 08BD     		pop	{r3, pc}
 368              		.cfi_endproc
 369              	.LFE21:
 370              		.size	validate, .-validate
 371              		.section	.text.move_window,"ax",%progbits
 372              		.align	1
 373              		.thumb
 374              		.thumb_func
 375              		.type	move_window, %function
 376              	move_window:
 377              	.LFB4:
 378              		.loc 1 512 0
 379              		.cfi_startproc
 380              		@ args = 0, pretend = 0, frame = 0
 381              		@ frame_needed = 0, uses_anonymous_args = 0
 382              	.LVL36:
 383 0000 2DE9F041 		push	{r4, r5, r6, r7, r8, lr}
 384              	.LCFI2:
 385              		.cfi_def_cfa_offset 24
 386              		.loc 1 516 0
 387 0004 056B     		ldr	r5, [r0, #48]
 388              		.cfi_offset 14, -4
 389              		.cfi_offset 8, -8
 390              		.cfi_offset 7, -12
 391              		.cfi_offset 6, -16
 392              		.cfi_offset 5, -20
 393              		.cfi_offset 4, -24
 394              	.LVL37:
 395              		.loc 1 512 0
 396 0006 0446     		mov	r4, r0
 397              		.loc 1 517 0
 398 0008 8D42     		cmp	r5, r1
 399              		.loc 1 512 0
 400 000a 0E46     		mov	r6, r1
 401              		.loc 1 517 0
 402 000c 2DD0     		beq	.L42
 403              	.LVL38:
 404              		.loc 1 519 0
 405 000e 0379     		ldrb	r3, [r0, #4]	@ zero_extendqisi2
 406 0010 E3B1     		cbz	r3, .L43
 407              	.LVL39:
 408              		.loc 1 520 0
 409 0012 00F13408 		add	r8, r0, #52
ARM GAS  C:\Users\SUZUKI~1\AppData\Local\Temp\ccxHwcvf.s 			page 51


 410 0016 4146     		mov	r1, r8
 411 0018 4078     		ldrb	r0, [r0, #1]	@ zero_extendqisi2
 412              	.LVL40:
 413 001a 2A46     		mov	r2, r5
 414 001c 0123     		movs	r3, #1
 415 001e FFF7FEFF 		bl	disk_write
 416 0022 F8B9     		cbnz	r0, .L44
 417              		.loc 1 523 0
 418 0024 226A     		ldr	r2, [r4, #32]
 419 0026 636A     		ldr	r3, [r4, #36]
 420              		.loc 1 522 0
 421 0028 2071     		strb	r0, [r4, #4]
 422              		.loc 1 523 0
 423 002a D318     		adds	r3, r2, r3
 424 002c 9D42     		cmp	r5, r3
 425 002e 0DD2     		bcs	.L43
 426              	.LBB2:
 427              		.loc 1 525 0
 428 0030 E778     		ldrb	r7, [r4, #3]	@ zero_extendqisi2
 429              	.LVL41:
 430 0032 09E0     		b	.L45
 431              	.L46:
 432              		.loc 1 526 0
 433 0034 236A     		ldr	r3, [r4, #32]
 434              		.loc 1 527 0
 435 0036 6078     		ldrb	r0, [r4, #1]	@ zero_extendqisi2
 436              		.loc 1 526 0
 437 0038 ED18     		adds	r5, r5, r3
 438              		.loc 1 527 0
 439 003a 4146     		mov	r1, r8
 440 003c 2A46     		mov	r2, r5
 441 003e 0123     		movs	r3, #1
 442 0040 FFF7FEFF 		bl	disk_write
 443              		.loc 1 525 0
 444 0044 013F     		subs	r7, r7, #1
 445              	.LVL42:
 446 0046 FFB2     		uxtb	r7, r7
 447              	.LVL43:
 448              	.L45:
 449 0048 012F     		cmp	r7, #1
 450 004a F3D8     		bhi	.L46
 451              	.LVL44:
 452              	.L43:
 453              	.LBE2:
 454              		.loc 1 532 0
 455 004c 6EB1     		cbz	r6, .L42
 456              		.loc 1 533 0
 457 004e 6078     		ldrb	r0, [r4, #1]	@ zero_extendqisi2
 458 0050 04F13401 		add	r1, r4, #52
 459 0054 3246     		mov	r2, r6
 460 0056 0123     		movs	r3, #1
 461 0058 FFF7FEFF 		bl	disk_read
 462 005c 10B9     		cbnz	r0, .L44
 463              		.loc 1 535 0
 464 005e 2663     		str	r6, [r4, #48]
 465 0060 BDE8F081 		pop	{r4, r5, r6, r7, r8, pc}
 466              	.L44:
ARM GAS  C:\Users\SUZUKI~1\AppData\Local\Temp\ccxHwcvf.s 			page 52


 467 0064 0120     		movs	r0, #1
 468 0066 BDE8F081 		pop	{r4, r5, r6, r7, r8, pc}
 469              	.LVL45:
 470              	.L42:
 471 006a 0020     		movs	r0, #0
 472              		.loc 1 540 0
 473 006c BDE8F081 		pop	{r4, r5, r6, r7, r8, pc}
 474              		.cfi_endproc
 475              	.LFE4:
 476              		.size	move_window, .-move_window
 477              		.section	.text.put_fat,"ax",%progbits
 478              		.align	1
 479              		.global	put_fat
 480              		.thumb
 481              		.thumb_func
 482              		.type	put_fat, %function
 483              	put_fat:
 484              	.LFB8:
 485              		.loc 1 654 0
 486              		.cfi_startproc
 487              		@ args = 0, pretend = 0, frame = 0
 488              		@ frame_needed = 0, uses_anonymous_args = 0
 489              	.LVL46:
 490              		.loc 1 660 0
 491 0000 0129     		cmp	r1, #1
 492              		.loc 1 654 0
 493 0002 F8B5     		push	{r3, r4, r5, r6, r7, lr}
 494              	.LCFI3:
 495              		.cfi_def_cfa_offset 24
 496              		.loc 1 654 0
 497 0004 0446     		mov	r4, r0
 498              		.cfi_offset 14, -4
 499              		.cfi_offset 7, -8
 500              		.cfi_offset 6, -12
 501              		.cfi_offset 5, -16
 502              		.cfi_offset 4, -20
 503              		.cfi_offset 3, -24
 504 0006 0D46     		mov	r5, r1
 505 0008 1646     		mov	r6, r2
 506              		.loc 1 660 0
 507 000a 75D9     		bls	.L50
 508              	.LVL47:
 509 000c C369     		ldr	r3, [r0, #28]
 510 000e 9942     		cmp	r1, r3
 511 0010 72D2     		bcs	.L50
 512              	.LVL48:
 513              		.loc 1 664 0
 514 0012 0378     		ldrb	r3, [r0, #0]	@ zero_extendqisi2
 515 0014 022B     		cmp	r3, #2
 516 0016 40D0     		beq	.L53
 517 0018 032B     		cmp	r3, #3
 518 001a 4FD0     		beq	.L54
 519 001c 012B     		cmp	r3, #1
 520 001e 01D0     		beq	.L52
 521 0020 0223     		movs	r3, #2
 522              	.LVL49:
 523 0022 66E0     		b	.L55
ARM GAS  C:\Users\SUZUKI~1\AppData\Local\Temp\ccxHwcvf.s 			page 53


 524              	.LVL50:
 525              	.L52:
 526              		.loc 1 666 0
 527 0024 01EB5107 		add	r7, r1, r1, lsr #1
 528              	.LVL51:
 529              		.loc 1 667 0
 530 0028 416A     		ldr	r1, [r0, #36]
 531              	.LVL52:
 532 002a 01EB5721 		add	r1, r1, r7, lsr #9
 533 002e FFF7FEFF 		bl	move_window
 534              	.LVL53:
 535              		.loc 1 668 0
 536 0032 0346     		mov	r3, r0
 537              	.LVL54:
 538 0034 0028     		cmp	r0, #0
 539 0036 5CD1     		bne	.L55
 540              		.loc 1 669 0
 541 0038 FB05     		lsls	r3, r7, #23
 542              	.LVL55:
 543 003a DB0D     		lsrs	r3, r3, #23
 544              		.loc 1 670 0
 545 003c 15F00105 		ands	r5, r5, #1
 546              	.LVL56:
 547 0040 F2B2     		uxtb	r2, r6
 548 0042 07D0     		beq	.L57
 549 0044 1919     		adds	r1, r3, r4
 550 0046 91F83410 		ldrb	r1, [r1, #52]	@ zero_extendqisi2
 551 004a 01F00F01 		and	r1, r1, #15
 552 004e 41EA0212 		orr	r2, r1, r2, lsl #4
 553 0052 D2B2     		uxtb	r2, r2
 554              	.L57:
 555 0054 1B19     		adds	r3, r3, r4
 556              		.loc 1 673 0
 557 0056 616A     		ldr	r1, [r4, #36]
 558              		.loc 1 670 0
 559 0058 83F83420 		strb	r2, [r3, #52]
 560              		.loc 1 671 0
 561 005c 0137     		adds	r7, r7, #1
 562              	.LVL57:
 563              		.loc 1 672 0
 564 005e 0123     		movs	r3, #1
 565 0060 2371     		strb	r3, [r4, #4]
 566              		.loc 1 673 0
 567 0062 2046     		mov	r0, r4
 568 0064 01EB5721 		add	r1, r1, r7, lsr #9
 569 0068 FFF7FEFF 		bl	move_window
 570              		.loc 1 674 0
 571 006c 0346     		mov	r3, r0
 572              	.LVL58:
 573 006e 0028     		cmp	r0, #0
 574 0070 3FD1     		bne	.L55
 575              		.loc 1 675 0
 576 0072 FF05     		lsls	r7, r7, #23
 577              	.LVL59:
 578 0074 FF0D     		lsrs	r7, r7, #23
 579              		.loc 1 676 0
 580 0076 15B1     		cbz	r5, .L58
ARM GAS  C:\Users\SUZUKI~1\AppData\Local\Temp\ccxHwcvf.s 			page 54


 581 0078 3609     		lsrs	r6, r6, #4
 582              	.LVL60:
 583 007a F6B2     		uxtb	r6, r6
 584 007c 09E0     		b	.L59
 585              	.LVL61:
 586              	.L58:
 587 007e 3A19     		adds	r2, r7, r4
 588 0080 92F83420 		ldrb	r2, [r2, #52]	@ zero_extendqisi2
 589 0084 360A     		lsrs	r6, r6, #8
 590              	.LVL62:
 591 0086 22F00F02 		bic	r2, r2, #15
 592 008a 06F00F06 		and	r6, r6, #15
 593 008e 42EA0606 		orr	r6, r2, r6
 594              	.L59:
 595 0092 3F19     		adds	r7, r7, r4
 596 0094 87F83460 		strb	r6, [r7, #52]
 597              		.loc 1 677 0
 598 0098 2BE0     		b	.L55
 599              	.LVL63:
 600              	.L53:
 601              		.loc 1 680 0
 602 009a 416A     		ldr	r1, [r0, #36]
 603              	.LVL64:
 604 009c 01EB1521 		add	r1, r1, r5, lsr #8
 605 00a0 FFF7FEFF 		bl	move_window
 606              	.LVL65:
 607              		.loc 1 681 0
 608 00a4 0346     		mov	r3, r0
 609              	.LVL66:
 610 00a6 20BB     		cbnz	r0, .L55
 611              		.loc 1 682 0
 612 00a8 2D06     		lsls	r5, r5, #24
 613              	.LVL67:
 614 00aa ED0D     		lsrs	r5, r5, #23
 615              		.loc 1 683 0
 616 00ac 2A19     		adds	r2, r5, r4
 617 00ae 82F83460 		strb	r6, [r2, #52]
 618 00b2 360A     		lsrs	r6, r6, #8
 619              	.LVL68:
 620 00b4 1546     		mov	r5, r2
 621 00b6 82F83560 		strb	r6, [r2, #53]
 622              		.loc 1 684 0
 623 00ba 1AE0     		b	.L55
 624              	.LVL69:
 625              	.L54:
 626              		.loc 1 687 0
 627 00bc 416A     		ldr	r1, [r0, #36]
 628              	.LVL70:
 629 00be 01EBD511 		add	r1, r1, r5, lsr #7
 630 00c2 FFF7FEFF 		bl	move_window
 631              	.LVL71:
 632              		.loc 1 688 0
 633 00c6 0346     		mov	r3, r0
 634              	.LVL72:
 635 00c8 98B9     		cbnz	r0, .L55
 636              		.loc 1 689 0
 637 00ca 6D06     		lsls	r5, r5, #25
ARM GAS  C:\Users\SUZUKI~1\AppData\Local\Temp\ccxHwcvf.s 			page 55


 638              	.LVL73:
 639 00cc ED0D     		lsrs	r5, r5, #23
 640 00ce 05F13002 		add	r2, r5, #48
 641 00d2 A218     		adds	r2, r4, r2
 642              		.loc 1 690 0
 643 00d4 D179     		ldrb	r1, [r2, #7]	@ zero_extendqisi2
 644 00d6 2D19     		adds	r5, r5, r4
 645 00d8 0906     		lsls	r1, r1, #24
 646 00da 01F07041 		and	r1, r1, #-268435456
 647 00de 41EA0606 		orr	r6, r1, r6
 648              	.LVL74:
 649              		.loc 1 691 0
 650 00e2 310A     		lsrs	r1, r6, #8
 651 00e4 85F83460 		strb	r6, [r5, #52]
 652 00e8 5171     		strb	r1, [r2, #5]
 653 00ea 310C     		lsrs	r1, r6, #16
 654 00ec 360E     		lsrs	r6, r6, #24
 655              	.LVL75:
 656 00ee 9171     		strb	r1, [r2, #6]
 657 00f0 D671     		strb	r6, [r2, #7]
 658              	.LVL76:
 659              	.L55:
 660              		.loc 1 697 0
 661 00f2 0122     		movs	r2, #1
 662 00f4 2271     		strb	r2, [r4, #4]
 663 00f6 00E0     		b	.L60
 664              	.LVL77:
 665              	.L50:
 666 00f8 0223     		movs	r3, #2
 667              	.LVL78:
 668              	.L60:
 669              		.loc 1 701 0
 670 00fa 1846     		mov	r0, r3
 671              	.LVL79:
 672 00fc F8BD     		pop	{r3, r4, r5, r6, r7, pc}
 673              		.cfi_endproc
 674              	.LFE8:
 675              		.size	put_fat, .-put_fat
 676              		.section	.text.get_fat,"ax",%progbits
 677              		.align	1
 678              		.global	get_fat
 679              		.thumb
 680              		.thumb_func
 681              		.type	get_fat, %function
 682              	get_fat:
 683              	.LFB7:
 684              		.loc 1 610 0
 685              		.cfi_startproc
 686              		@ args = 0, pretend = 0, frame = 0
 687              		@ frame_needed = 0, uses_anonymous_args = 0
 688              	.LVL80:
 689              		.loc 1 615 0
 690 0000 0129     		cmp	r1, #1
 691              		.loc 1 610 0
 692 0002 F8B5     		push	{r3, r4, r5, r6, r7, lr}
 693              	.LCFI4:
 694              		.cfi_def_cfa_offset 24
ARM GAS  C:\Users\SUZUKI~1\AppData\Local\Temp\ccxHwcvf.s 			page 56


 695              		.loc 1 610 0
 696 0004 0446     		mov	r4, r0
 697              		.cfi_offset 14, -4
 698              		.cfi_offset 7, -8
 699              		.cfi_offset 6, -12
 700              		.cfi_offset 5, -16
 701              		.cfi_offset 4, -20
 702              		.cfi_offset 3, -24
 703 0006 0D46     		mov	r5, r1
 704              		.loc 1 615 0
 705 0008 59D9     		bls	.L63
 706              	.LVL81:
 707 000a C369     		ldr	r3, [r0, #28]
 708 000c 9942     		cmp	r1, r3
 709 000e 56D2     		bcs	.L63
 710              	.LVL82:
 711              		.loc 1 618 0
 712 0010 0378     		ldrb	r3, [r0, #0]	@ zero_extendqisi2
 713 0012 022B     		cmp	r3, #2
 714 0014 29D0     		beq	.L66
 715 0016 032B     		cmp	r3, #3
 716 0018 38D0     		beq	.L67
 717 001a 012B     		cmp	r3, #1
 718 001c 51D1     		bne	.L64
 719              		.loc 1 620 0
 720 001e 01EB5106 		add	r6, r1, r1, lsr #1
 721              	.LVL83:
 722              		.loc 1 621 0
 723 0022 416A     		ldr	r1, [r0, #36]
 724              	.LVL84:
 725 0024 01EB5621 		add	r1, r1, r6, lsr #9
 726 0028 FFF7FEFF 		bl	move_window
 727              	.LVL85:
 728 002c 0028     		cmp	r0, #0
 729 002e 48D1     		bne	.L64
 730              		.loc 1 622 0
 731 0030 F305     		lsls	r3, r6, #23
 732              		.loc 1 623 0
 733 0032 616A     		ldr	r1, [r4, #36]
 734              		.loc 1 622 0
 735 0034 DB0D     		lsrs	r3, r3, #23
 736 0036 0136     		adds	r6, r6, #1
 737              	.LVL86:
 738 0038 E318     		adds	r3, r4, r3
 739              		.loc 1 623 0
 740 003a 2046     		mov	r0, r4
 741 003c 01EB5621 		add	r1, r1, r6, lsr #9
 742              		.loc 1 622 0
 743 0040 93F83470 		ldrb	r7, [r3, #52]	@ zero_extendqisi2
 744              		.loc 1 623 0
 745 0044 FFF7FEFF 		bl	move_window
 746 0048 0028     		cmp	r0, #0
 747 004a 3AD1     		bne	.L64
 748              		.loc 1 624 0
 749 004c F605     		lsls	r6, r6, #23
 750              	.LVL87:
 751 004e F60D     		lsrs	r6, r6, #23
ARM GAS  C:\Users\SUZUKI~1\AppData\Local\Temp\ccxHwcvf.s 			page 57


 752 0050 A619     		adds	r6, r4, r6
 753 0052 96F83400 		ldrb	r0, [r6, #52]	@ zero_extendqisi2
 754              		.loc 1 625 0
 755 0056 15F0010F 		tst	r5, #1
 756              		.loc 1 624 0
 757 005a 47EA0020 		orr	r0, r7, r0, lsl #8
 758              	.LVL88:
 759              		.loc 1 625 0
 760 005e 01D0     		beq	.L68
 761 0060 0009     		lsrs	r0, r0, #4
 762              	.LVL89:
 763 0062 F8BD     		pop	{r3, r4, r5, r6, r7, pc}
 764              	.LVL90:
 765              	.L68:
 766 0064 0005     		lsls	r0, r0, #20
 767              	.LVL91:
 768 0066 000D     		lsrs	r0, r0, #20
 769 0068 F8BD     		pop	{r3, r4, r5, r6, r7, pc}
 770              	.LVL92:
 771              	.L66:
 772              		.loc 1 628 0
 773 006a 416A     		ldr	r1, [r0, #36]
 774              	.LVL93:
 775 006c 01EB1521 		add	r1, r1, r5, lsr #8
 776 0070 FFF7FEFF 		bl	move_window
 777              	.LVL94:
 778 0074 28BB     		cbnz	r0, .L64
 779              		.loc 1 629 0
 780 0076 2D06     		lsls	r5, r5, #24
 781              	.LVL95:
 782 0078 ED0D     		lsrs	r5, r5, #23
 783              		.loc 1 630 0
 784 007a 2B19     		adds	r3, r5, r4
 785 007c 2C19     		adds	r4, r5, r4
 786              	.LVL96:
 787 007e 93F83430 		ldrb	r3, [r3, #52]	@ zero_extendqisi2
 788 0082 94F83500 		ldrb	r0, [r4, #53]	@ zero_extendqisi2
 789 0086 43EA0020 		orr	r0, r3, r0, lsl #8
 790 008a F8BD     		pop	{r3, r4, r5, r6, r7, pc}
 791              	.LVL97:
 792              	.L67:
 793              		.loc 1 633 0
 794 008c 416A     		ldr	r1, [r0, #36]
 795              	.LVL98:
 796 008e 01EBD511 		add	r1, r1, r5, lsr #7
 797 0092 FFF7FEFF 		bl	move_window
 798              	.LVL99:
 799 0096 A0B9     		cbnz	r0, .L64
 800              		.loc 1 634 0
 801 0098 6D06     		lsls	r5, r5, #25
 802              	.LVL100:
 803 009a ED0D     		lsrs	r5, r5, #23
 804 009c 2B19     		adds	r3, r5, r4
 805 009e 3433     		adds	r3, r3, #52
 806              	.LVL101:
 807              		.loc 1 635 0
 808 00a0 D878     		ldrb	r0, [r3, #3]	@ zero_extendqisi2
ARM GAS  C:\Users\SUZUKI~1\AppData\Local\Temp\ccxHwcvf.s 			page 58


 809 00a2 9A78     		ldrb	r2, [r3, #2]	@ zero_extendqisi2
 810 00a4 0006     		lsls	r0, r0, #24
 811 00a6 5B78     		ldrb	r3, [r3, #1]	@ zero_extendqisi2
 812              	.LVL102:
 813 00a8 40EA0240 		orr	r0, r0, r2, lsl #16
 814 00ac 2C19     		adds	r4, r5, r4
 815              	.LVL103:
 816 00ae 40EA0320 		orr	r0, r0, r3, lsl #8
 817 00b2 94F83430 		ldrb	r3, [r4, #52]	@ zero_extendqisi2
 818 00b6 1843     		orrs	r0, r0, r3
 819 00b8 20F07040 		bic	r0, r0, #-268435456
 820 00bc F8BD     		pop	{r3, r4, r5, r6, r7, pc}
 821              	.LVL104:
 822              	.L63:
 823 00be 0120     		movs	r0, #1
 824              	.LVL105:
 825 00c0 F8BD     		pop	{r3, r4, r5, r6, r7, pc}
 826              	.LVL106:
 827              	.L64:
 828 00c2 4FF0FF30 		mov	r0, #-1
 829              		.loc 1 639 0
 830 00c6 F8BD     		pop	{r3, r4, r5, r6, r7, pc}
 831              		.cfi_endproc
 832              	.LFE7:
 833              		.size	get_fat, .-get_fat
 834              		.section	.text.dir_sdi,"ax",%progbits
 835              		.align	1
 836              		.thumb
 837              		.thumb_func
 838              		.type	dir_sdi, %function
 839              	dir_sdi:
 840              	.LFB11:
 841              		.loc 1 829 0
 842              		.cfi_startproc
 843              		@ args = 0, pretend = 0, frame = 0
 844              		@ frame_needed = 0, uses_anonymous_args = 0
 845              	.LVL107:
 846 0000 70B5     		push	{r4, r5, r6, lr}
 847              	.LCFI5:
 848              		.cfi_def_cfa_offset 16
 849              		.loc 1 829 0
 850 0002 0446     		mov	r4, r0
 851              		.cfi_offset 14, -4
 852              		.cfi_offset 6, -8
 853              		.cfi_offset 5, -12
 854              		.cfi_offset 4, -16
 855 0004 0D46     		mov	r5, r1
 856              		.loc 1 834 0
 857 0006 E180     		strh	r1, [r4, #6]	@ movhi
 858              		.loc 1 835 0
 859 0008 8168     		ldr	r1, [r0, #8]
 860              	.LVL108:
 861              		.loc 1 836 0
 862 000a 0129     		cmp	r1, #1
 863 000c 3AD0     		beq	.L72
 864 000e 0368     		ldr	r3, [r0, #0]
 865 0010 DA69     		ldr	r2, [r3, #28]
ARM GAS  C:\Users\SUZUKI~1\AppData\Local\Temp\ccxHwcvf.s 			page 59


 866 0012 9142     		cmp	r1, r2
 867 0014 36D2     		bcs	.L72
 868              		.loc 1 838 0
 869 0016 79B9     		cbnz	r1, .L73
 870 0018 1A78     		ldrb	r2, [r3, #0]	@ zero_extendqisi2
 871 001a 032A     		cmp	r2, #3
 872 001c 01D1     		bne	.L74
 873              		.loc 1 839 0
 874 001e 996A     		ldr	r1, [r3, #40]
 875              		.loc 1 841 0
 876 0020 51B9     		cbnz	r1, .L73
 877              	.L74:
 878              		.loc 1 842 0
 879 0022 0023     		movs	r3, #0
 880 0024 E360     		str	r3, [r4, #12]
 881              		.loc 1 843 0
 882 0026 2368     		ldr	r3, [r4, #0]
 883 0028 1A89     		ldrh	r2, [r3, #8]
 884 002a AA42     		cmp	r2, r5
 885 002c 2AD9     		bls	.L72
 886              	.LVL109:
 887              		.loc 1 845 0
 888 002e 9B6A     		ldr	r3, [r3, #40]
 889 0030 03EB1513 		add	r3, r3, r5, lsr #4
 890 0034 2361     		str	r3, [r4, #16]
 891 0036 1CE0     		b	.L75
 892              	.LVL110:
 893              	.L73:
 894              		.loc 1 848 0
 895 0038 9E78     		ldrb	r6, [r3, #2]	@ zero_extendqisi2
 896 003a 3601     		lsls	r6, r6, #4
 897              	.LVL111:
 898              		.loc 1 849 0
 899 003c 10E0     		b	.L76
 900              	.LVL112:
 901              	.L79:
 902              		.loc 1 850 0
 903 003e 2068     		ldr	r0, [r4, #0]
 904 0040 FFF7FEFF 		bl	get_fat
 905              	.LVL113:
 906              		.loc 1 851 0
 907 0044 B0F1FF3F 		cmp	r0, #-1
 908              	.LVL114:
 909              		.loc 1 850 0
 910 0048 0146     		mov	r1, r0
 911              	.LVL115:
 912              		.loc 1 851 0
 913 004a 01D1     		bne	.L77
 914 004c 0120     		movs	r0, #1
 915 004e 70BD     		pop	{r4, r5, r6, pc}
 916              	.L77:
 917              		.loc 1 852 0
 918 0050 0128     		cmp	r0, #1
 919 0052 17D9     		bls	.L72
 920              	.LVL116:
 921 0054 2368     		ldr	r3, [r4, #0]
 922 0056 DB69     		ldr	r3, [r3, #28]
ARM GAS  C:\Users\SUZUKI~1\AppData\Local\Temp\ccxHwcvf.s 			page 60


 923 0058 9842     		cmp	r0, r3
 924 005a 13D2     		bcs	.L72
 925              		.loc 1 854 0
 926 005c AD1B     		subs	r5, r5, r6
 927              	.LVL117:
 928 005e ADB2     		uxth	r5, r5
 929              	.LVL118:
 930              	.L76:
 931              		.loc 1 849 0
 932 0060 B542     		cmp	r5, r6
 933 0062 ECD2     		bcs	.L79
 934              		.loc 1 856 0
 935 0064 E160     		str	r1, [r4, #12]
 936              		.loc 1 857 0
 937 0066 2068     		ldr	r0, [r4, #0]
 938 0068 FFF7FEFF 		bl	clust2sect
 939              	.LVL119:
 940 006c 00EB1510 		add	r0, r0, r5, lsr #4
 941 0070 2061     		str	r0, [r4, #16]
 942              	.LVL120:
 943              	.L75:
 944              		.loc 1 860 0
 945 0072 2368     		ldr	r3, [r4, #0]
 946 0074 05F00F05 		and	r5, r5, #15
 947              	.LVL121:
 948 0078 3433     		adds	r3, r3, #52
 949 007a 03EB4515 		add	r5, r3, r5, lsl #5
 950 007e 6561     		str	r5, [r4, #20]
 951 0080 0020     		movs	r0, #0
 952              		.loc 1 862 0
 953 0082 70BD     		pop	{r4, r5, r6, pc}
 954              	.LVL122:
 955              	.L72:
 956 0084 0220     		movs	r0, #2
 957              		.loc 1 863 0
 958 0086 70BD     		pop	{r4, r5, r6, pc}
 959              		.cfi_endproc
 960              	.LFE11:
 961              		.size	dir_sdi, .-dir_sdi
 962              		.section	.text.create_chain,"ax",%progbits
 963              		.align	1
 964              		.thumb
 965              		.thumb_func
 966              		.type	create_chain, %function
 967              	create_chain:
 968              	.LFB10:
 969              		.loc 1 769 0
 970              		.cfi_startproc
 971              		@ args = 0, pretend = 0, frame = 0
 972              		@ frame_needed = 0, uses_anonymous_args = 0
 973              	.LVL123:
 974 0000 F8B5     		push	{r3, r4, r5, r6, r7, lr}
 975              	.LCFI6:
 976              		.cfi_def_cfa_offset 24
 977              		.loc 1 769 0
 978 0002 0546     		mov	r5, r0
 979              		.cfi_offset 14, -4
ARM GAS  C:\Users\SUZUKI~1\AppData\Local\Temp\ccxHwcvf.s 			page 61


 980              		.cfi_offset 7, -8
 981              		.cfi_offset 6, -12
 982              		.cfi_offset 5, -16
 983              		.cfi_offset 4, -20
 984              		.cfi_offset 3, -24
 985              		.loc 1 774 0
 986 0004 0E46     		mov	r6, r1
 987 0006 29B9     		cbnz	r1, .L82
 988              	.LVL124:
 989              		.loc 1 775 0
 990 0008 C768     		ldr	r7, [r0, #12]
 991              	.LVL125:
 992              		.loc 1 776 0
 993 000a 6FB1     		cbz	r7, .L83
 994              	.LVL126:
 995 000c C369     		ldr	r3, [r0, #28]
 996 000e 9F42     		cmp	r7, r3
 997 0010 0AD2     		bcs	.L83
 998 0012 0AE0     		b	.L84
 999              	.LVL127:
 1000              	.L82:
 1001              		.loc 1 779 0
 1002 0014 FFF7FEFF 		bl	get_fat
 1003              	.LVL128:
 1004              		.loc 1 780 0
 1005 0018 0128     		cmp	r0, #1
 1006              	.LVL129:
 1007              		.loc 1 779 0
 1008 001a 0346     		mov	r3, r0
 1009              	.LVL130:
 1010              		.loc 1 780 0
 1011 001c 3AD9     		bls	.L85
 1012              		.loc 1 781 0
 1013 001e EA69     		ldr	r2, [r5, #28]
 1014 0020 9042     		cmp	r0, r2
 1015 0022 3AD3     		bcc	.L86
 1016              	.LVL131:
 1017 0024 3746     		mov	r7, r6
 1018              	.LVL132:
 1019 0026 00E0     		b	.L84
 1020              	.LVL133:
 1021              	.L83:
 1022 0028 0127     		movs	r7, #1
 1023              	.LVL134:
 1024              	.L84:
 1025 002a 3C46     		mov	r4, r7
 1026              	.LVL135:
 1027              	.L90:
 1028              		.loc 1 788 0
 1029 002c EB69     		ldr	r3, [r5, #28]
 1030              		.loc 1 787 0
 1031 002e 0134     		adds	r4, r4, #1
 1032              		.loc 1 788 0
 1033 0030 9C42     		cmp	r4, r3
 1034 0032 02D3     		bcc	.L87
 1035              		.loc 1 790 0
 1036 0034 012F     		cmp	r7, #1
ARM GAS  C:\Users\SUZUKI~1\AppData\Local\Temp\ccxHwcvf.s 			page 62


 1037 0036 2FD9     		bls	.L88
 1038 0038 0224     		movs	r4, #2
 1039              	.L87:
 1040              		.loc 1 792 0
 1041 003a 2846     		mov	r0, r5
 1042              	.LVL136:
 1043 003c 2146     		mov	r1, r4
 1044 003e FFF7FEFF 		bl	get_fat
 1045              		.loc 1 793 0
 1046 0042 0346     		mov	r3, r0
 1047              	.LVL137:
 1048 0044 38B1     		cbz	r0, .L89
 1049              		.loc 1 794 0
 1050 0046 B0F1FF3F 		cmp	r0, #-1
 1051 004a 26D0     		beq	.L86
 1052              	.LVL138:
 1053 004c 0128     		cmp	r0, #1
 1054 004e 24D0     		beq	.L86
 1055              		.loc 1 796 0
 1056 0050 BC42     		cmp	r4, r7
 1057 0052 EBD1     		bne	.L90
 1058 0054 20E0     		b	.L88
 1059              	.LVL139:
 1060              	.L89:
 1061              		.loc 1 799 0
 1062 0056 2846     		mov	r0, r5
 1063 0058 2146     		mov	r1, r4
 1064 005a 6FF07042 		mvn	r2, #-268435456
 1065 005e FFF7FEFF 		bl	put_fat
 1066              	.LVL140:
 1067              		.loc 1 800 0
 1068 0062 0346     		mov	r3, r0
 1069              	.LVL141:
 1070 0064 90B9     		cbnz	r0, .L91
 1071 0066 36B1     		cbz	r6, .L92
 1072              		.loc 1 801 0
 1073 0068 2846     		mov	r0, r5
 1074 006a 3146     		mov	r1, r6
 1075 006c 2246     		mov	r2, r4
 1076 006e FFF7FEFF 		bl	put_fat
 1077              	.LVL142:
 1078              		.loc 1 803 0
 1079 0072 0346     		mov	r3, r0
 1080              	.LVL143:
 1081 0074 50B9     		cbnz	r0, .L91
 1082              	.L92:
 1083              		.loc 1 805 0
 1084 0076 2B69     		ldr	r3, [r5, #16]
 1085              	.LVL144:
 1086              		.loc 1 804 0
 1087 0078 EC60     		str	r4, [r5, #12]
 1088              		.loc 1 805 0
 1089 007a B3F1FF3F 		cmp	r3, #-1
 1090 007e 03D0     		beq	.L95
 1091              		.loc 1 806 0
 1092 0080 013B     		subs	r3, r3, #1
 1093 0082 2B61     		str	r3, [r5, #16]
ARM GAS  C:\Users\SUZUKI~1\AppData\Local\Temp\ccxHwcvf.s 			page 63


 1094              		.loc 1 807 0
 1095 0084 0123     		movs	r3, #1
 1096 0086 6B71     		strb	r3, [r5, #5]
 1097              	.L95:
 1098 0088 2346     		mov	r3, r4
 1099              	.LVL145:
 1100 008a 06E0     		b	.L86
 1101              	.LVL146:
 1102              	.L91:
 1103              		.loc 1 810 0
 1104 008c 012B     		cmp	r3, #1
 1105 008e 01D1     		bne	.L85
 1106 0090 023B     		subs	r3, r3, #2
 1107              	.LVL147:
 1108 0092 02E0     		b	.L86
 1109              	.LVL148:
 1110              	.L85:
 1111 0094 0123     		movs	r3, #1
 1112              	.LVL149:
 1113 0096 00E0     		b	.L86
 1114              	.LVL150:
 1115              	.L88:
 1116 0098 0023     		movs	r3, #0
 1117              	.LVL151:
 1118              	.L86:
 1119              		.loc 1 814 0
 1120 009a 1846     		mov	r0, r3
 1121 009c F8BD     		pop	{r3, r4, r5, r6, r7, pc}
 1122              		.cfi_endproc
 1123              	.LFE10:
 1124              		.size	create_chain, .-create_chain
 1125              		.section	.text.dir_next,"ax",%progbits
 1126              		.align	1
 1127              		.thumb
 1128              		.thumb_func
 1129              		.type	dir_next, %function
 1130              	dir_next:
 1131              	.LFB12:
 1132              		.loc 1 877 0
 1133              		.cfi_startproc
 1134              		@ args = 0, pretend = 0, frame = 0
 1135              		@ frame_needed = 0, uses_anonymous_args = 0
 1136              	.LVL152:
 1137 0000 2DE9F845 		push	{r3, r4, r5, r6, r7, r8, sl, lr}
 1138              	.LCFI7:
 1139              		.cfi_def_cfa_offset 32
 1140              		.loc 1 882 0
 1141 0004 C688     		ldrh	r6, [r0, #6]
 1142              		.cfi_offset 14, -4
 1143              		.cfi_offset 10, -8
 1144              		.cfi_offset 8, -12
 1145              		.cfi_offset 7, -16
 1146              		.cfi_offset 6, -20
 1147              		.cfi_offset 5, -24
 1148              		.cfi_offset 4, -28
 1149              		.cfi_offset 3, -32
 1150              		.loc 1 877 0
ARM GAS  C:\Users\SUZUKI~1\AppData\Local\Temp\ccxHwcvf.s 			page 64


 1151 0006 0446     		mov	r4, r0
 1152              		.loc 1 882 0
 1153 0008 0136     		adds	r6, r6, #1
 1154 000a B6B2     		uxth	r6, r6
 1155              	.LVL153:
 1156              		.loc 1 877 0
 1157 000c 0F46     		mov	r7, r1
 1158              		.loc 1 883 0
 1159 000e 002E     		cmp	r6, #0
 1160 0010 68D0     		beq	.L97
 1161              	.LVL154:
 1162 0012 0369     		ldr	r3, [r0, #16]
 1163 0014 002B     		cmp	r3, #0
 1164 0016 65D0     		beq	.L97
 1165              	.LVL155:
 1166              		.loc 1 886 0
 1167 0018 16F00F08 		ands	r8, r6, #15
 1168 001c 59D1     		bne	.L98
 1169              		.loc 1 889 0
 1170 001e C168     		ldr	r1, [r0, #12]
 1171              		.loc 1 887 0
 1172 0020 0133     		adds	r3, r3, #1
 1173 0022 0361     		str	r3, [r0, #16]
 1174 0024 0068     		ldr	r0, [r0, #0]
 1175              	.LVL156:
 1176              		.loc 1 889 0
 1177 0026 19B9     		cbnz	r1, .L99
 1178              		.loc 1 890 0
 1179 0028 0389     		ldrh	r3, [r0, #8]
 1180 002a B342     		cmp	r3, r6
 1181 002c 51D8     		bhi	.L98
 1182 002e 59E0     		b	.L97
 1183              	.L99:
 1184              		.loc 1 894 0
 1185 0030 8378     		ldrb	r3, [r0, #2]	@ zero_extendqisi2
 1186 0032 013B     		subs	r3, r3, #1
 1187 0034 13EA1613 		ands	r3, r3, r6, lsr #4
 1188 0038 4BD1     		bne	.L98
 1189              		.loc 1 895 0
 1190 003a FFF7FEFF 		bl	get_fat
 1191              		.loc 1 896 0
 1192 003e 0128     		cmp	r0, #1
 1193              	.LVL157:
 1194              		.loc 1 895 0
 1195 0040 0546     		mov	r5, r0
 1196              	.LVL158:
 1197              		.loc 1 896 0
 1198 0042 52D9     		bls	.L100
 1199              		.loc 1 897 0
 1200 0044 B0F1FF3F 		cmp	r0, #-1
 1201 0048 52D0     		beq	.L101
 1202              	.LVL159:
 1203              		.loc 1 898 0
 1204 004a 2068     		ldr	r0, [r4, #0]
 1205              	.LVL160:
 1206 004c C369     		ldr	r3, [r0, #28]
 1207 004e 9D42     		cmp	r5, r3
ARM GAS  C:\Users\SUZUKI~1\AppData\Local\Temp\ccxHwcvf.s 			page 65


 1208 0050 39D3     		bcc	.L102
 1209              	.LBB3:
 1210              		.loc 1 901 0
 1211 0052 002F     		cmp	r7, #0
 1212 0054 46D0     		beq	.L97
 1213              		.loc 1 902 0
 1214 0056 E168     		ldr	r1, [r4, #12]
 1215 0058 FFF7FEFF 		bl	create_chain
 1216              		.loc 1 903 0
 1217 005c 0546     		mov	r5, r0
 1218 005e 10B9     		cbnz	r0, .L103
 1219 0060 0730     		adds	r0, r0, #7
 1220 0062 BDE8F885 		pop	{r3, r4, r5, r6, r7, r8, sl, pc}
 1221              	.L103:
 1222              		.loc 1 904 0
 1223 0066 0128     		cmp	r0, #1
 1224 0068 3FD0     		beq	.L100
 1225              	.LVL161:
 1226              		.loc 1 905 0
 1227 006a B0F1FF3F 		cmp	r0, #-1
 1228 006e 3FD0     		beq	.L101
 1229              		.loc 1 907 0
 1230 0070 2068     		ldr	r0, [r4, #0]
 1231              	.LVL162:
 1232 0072 0021     		movs	r1, #0
 1233 0074 FFF7FEFF 		bl	move_window
 1234 0078 0746     		mov	r7, r0
 1235              	.LVL163:
 1236 007a 0028     		cmp	r0, #0
 1237 007c 38D1     		bne	.L101
 1238              		.loc 1 908 0
 1239 007e 2068     		ldr	r0, [r4, #0]
 1240 0080 3946     		mov	r1, r7
 1241 0082 3430     		adds	r0, r0, #52
 1242 0084 4FF40072 		mov	r2, #512
 1243 0088 FFF7FEFF 		bl	mem_set
 1244              		.loc 1 909 0
 1245 008c D4F800A0 		ldr	sl, [r4, #0]
 1246 0090 2946     		mov	r1, r5
 1247 0092 5046     		mov	r0, sl
 1248 0094 FFF7FEFF 		bl	clust2sect
 1249 0098 CAF83000 		str	r0, [sl, #48]
 1250              		.loc 1 910 0
 1251 009c 0CE0     		b	.L105
 1252              	.LVL164:
 1253              	.L106:
 1254              		.loc 1 911 0
 1255 009e 0122     		movs	r2, #1
 1256 00a0 1A71     		strb	r2, [r3, #4]
 1257              		.loc 1 912 0
 1258 00a2 2068     		ldr	r0, [r4, #0]
 1259 00a4 0021     		movs	r1, #0
 1260 00a6 FFF7FEFF 		bl	move_window
 1261 00aa 08BB     		cbnz	r0, .L101
 1262              		.loc 1 913 0
 1263 00ac 2368     		ldr	r3, [r4, #0]
 1264              		.loc 1 910 0
ARM GAS  C:\Users\SUZUKI~1\AppData\Local\Temp\ccxHwcvf.s 			page 66


 1265 00ae 0137     		adds	r7, r7, #1
 1266              	.LVL165:
 1267              		.loc 1 913 0
 1268 00b0 1A6B     		ldr	r2, [r3, #48]
 1269              		.loc 1 910 0
 1270 00b2 FFB2     		uxtb	r7, r7
 1271              	.LVL166:
 1272              		.loc 1 913 0
 1273 00b4 0132     		adds	r2, r2, #1
 1274 00b6 1A63     		str	r2, [r3, #48]
 1275              	.L105:
 1276              		.loc 1 910 0
 1277 00b8 2368     		ldr	r3, [r4, #0]
 1278 00ba 9A78     		ldrb	r2, [r3, #2]	@ zero_extendqisi2
 1279 00bc BA42     		cmp	r2, r7
 1280 00be EED8     		bhi	.L106
 1281              		.loc 1 915 0
 1282 00c0 1A6B     		ldr	r2, [r3, #48]
 1283 00c2 D71B     		subs	r7, r2, r7
 1284              	.LVL167:
 1285 00c4 1F63     		str	r7, [r3, #48]
 1286              	.LVL168:
 1287              	.L102:
 1288              	.LBE3:
 1289              		.loc 1 920 0
 1290 00c6 E560     		str	r5, [r4, #12]
 1291              		.loc 1 921 0
 1292 00c8 2068     		ldr	r0, [r4, #0]
 1293 00ca 2946     		mov	r1, r5
 1294 00cc FFF7FEFF 		bl	clust2sect
 1295 00d0 2061     		str	r0, [r4, #16]
 1296              	.LVL169:
 1297              	.L98:
 1298              		.loc 1 927 0
 1299 00d2 2368     		ldr	r3, [r4, #0]
 1300              		.loc 1 926 0
 1301 00d4 E680     		strh	r6, [r4, #6]	@ movhi
 1302              		.loc 1 927 0
 1303 00d6 3433     		adds	r3, r3, #52
 1304 00d8 03EB4813 		add	r3, r3, r8, lsl #5
 1305 00dc 6361     		str	r3, [r4, #20]
 1306 00de 0020     		movs	r0, #0
 1307              		.loc 1 929 0
 1308 00e0 BDE8F885 		pop	{r3, r4, r5, r6, r7, r8, sl, pc}
 1309              	.LVL170:
 1310              	.L97:
 1311 00e4 0420     		movs	r0, #4
 1312 00e6 BDE8F885 		pop	{r3, r4, r5, r6, r7, r8, sl, pc}
 1313              	.LVL171:
 1314              	.L100:
 1315 00ea 0220     		movs	r0, #2
 1316 00ec BDE8F885 		pop	{r3, r4, r5, r6, r7, r8, sl, pc}
 1317              	.LVL172:
 1318              	.L101:
 1319 00f0 0120     		movs	r0, #1
 1320              		.loc 1 930 0
 1321 00f2 BDE8F885 		pop	{r3, r4, r5, r6, r7, r8, sl, pc}
ARM GAS  C:\Users\SUZUKI~1\AppData\Local\Temp\ccxHwcvf.s 			page 67


 1322              		.cfi_endproc
 1323              	.LFE12:
 1324              		.size	dir_next, .-dir_next
 1325              		.section	.text.dir_read,"ax",%progbits
 1326              		.align	1
 1327              		.thumb
 1328              		.thumb_func
 1329              		.type	dir_read, %function
 1330              	dir_read:
 1331              	.LFB14:
 1332              		.loc 1 1176 0
 1333              		.cfi_startproc
 1334              		@ args = 0, pretend = 0, frame = 0
 1335              		@ frame_needed = 0, uses_anonymous_args = 0
 1336              	.LVL173:
 1337 0000 10B5     		push	{r4, lr}
 1338              	.LCFI8:
 1339              		.cfi_def_cfa_offset 8
 1340              		.loc 1 1176 0
 1341 0002 0423     		movs	r3, #4
 1342              	.LVL174:
 1343 0004 0446     		mov	r4, r0
 1344              		.cfi_offset 14, -4
 1345              		.cfi_offset 4, -8
 1346              		.loc 1 1184 0
 1347 0006 13E0     		b	.L109
 1348              	.LVL175:
 1349              	.L114:
 1350              		.loc 1 1185 0
 1351 0008 2068     		ldr	r0, [r4, #0]
 1352 000a FFF7FEFF 		bl	move_window
 1353              	.LVL176:
 1354              		.loc 1 1186 0
 1355 000e 0346     		mov	r3, r0
 1356              	.LVL177:
 1357 0010 90B9     		cbnz	r0, .L110
 1358              		.loc 1 1187 0
 1359 0012 6269     		ldr	r2, [r4, #20]
 1360              	.LVL178:
 1361              		.loc 1 1188 0
 1362 0014 1178     		ldrb	r1, [r2, #0]	@ zero_extendqisi2
 1363              	.LVL179:
 1364              		.loc 1 1189 0
 1365 0016 99B1     		cbz	r1, .L111
 1366              		.loc 1 1210 0
 1367 0018 E529     		cmp	r1, #229
 1368 001a 03D0     		beq	.L112
 1369 001c D27A     		ldrb	r2, [r2, #11]	@ zero_extendqisi2
 1370              	.LVL180:
 1371 001e 12F0080F 		tst	r2, #8
 1372 0022 0BD0     		beq	.L113
 1373              	.LVL181:
 1374              	.L112:
 1375              		.loc 1 1213 0
 1376 0024 2046     		mov	r0, r4
 1377 0026 0021     		movs	r1, #0
 1378              	.LVL182:
ARM GAS  C:\Users\SUZUKI~1\AppData\Local\Temp\ccxHwcvf.s 			page 68


 1379 0028 FFF7FEFF 		bl	dir_next
 1380              	.LVL183:
 1381              		.loc 1 1214 0
 1382 002c 0346     		mov	r3, r0
 1383              	.LVL184:
 1384 002e 18B9     		cbnz	r0, .L110
 1385              	.LVL185:
 1386              	.L109:
 1387              		.loc 1 1184 0
 1388 0030 2169     		ldr	r1, [r4, #16]
 1389 0032 0029     		cmp	r1, #0
 1390 0034 E8D1     		bne	.L114
 1391              		.loc 1 1217 0
 1392 0036 0BB1     		cbz	r3, .L113
 1393              	.LVL186:
 1394              	.L110:
 1395 0038 0022     		movs	r2, #0
 1396              	.LVL187:
 1397 003a 2261     		str	r2, [r4, #16]
 1398              	.L113:
 1399              		.loc 1 1220 0
 1400 003c 1846     		mov	r0, r3
 1401 003e 10BD     		pop	{r4, pc}
 1402              	.LVL188:
 1403              	.L111:
 1404              		.loc 1 1217 0
 1405 0040 0423     		movs	r3, #4
 1406              	.LVL189:
 1407 0042 F9E7     		b	.L110
 1408              		.cfi_endproc
 1409              	.LFE14:
 1410              		.size	dir_read, .-dir_read
 1411              		.section	.text.f_readdir,"ax",%progbits
 1412              		.align	1
 1413              		.global	f_readdir
 1414              		.thumb
 1415              		.thumb_func
 1416              		.type	f_readdir, %function
 1417              	f_readdir:
 1418              	.LFB33:
2438:.\sdc/ff.c    **** 
2439:.\sdc/ff.c    **** 
2440:.\sdc/ff.c    **** 
2441:.\sdc/ff.c    **** FRESULT f_chdir (
2442:.\sdc/ff.c    **** 	const TCHAR *path	/* Pointer to the directory path */
2443:.\sdc/ff.c    **** )
2444:.\sdc/ff.c    **** {
2445:.\sdc/ff.c    **** 	FRESULT res;
2446:.\sdc/ff.c    **** 	DIR dj;
2447:.\sdc/ff.c    **** 	DEF_NAMEBUF;
2448:.\sdc/ff.c    **** 
2449:.\sdc/ff.c    **** 
2450:.\sdc/ff.c    **** 	res = chk_mounted(&path, &dj.fs, 0);
2451:.\sdc/ff.c    **** 	if (res == FR_OK) {
2452:.\sdc/ff.c    **** 		INIT_BUF(dj);
2453:.\sdc/ff.c    **** 		res = follow_path(&dj, path);		/* Follow the path */
2454:.\sdc/ff.c    **** 		FREE_BUF();
ARM GAS  C:\Users\SUZUKI~1\AppData\Local\Temp\ccxHwcvf.s 			page 69


2455:.\sdc/ff.c    **** 		if (res == FR_OK) {					/* Follow completed */
2456:.\sdc/ff.c    **** 			if (!dj.dir) {
2457:.\sdc/ff.c    **** 				dj.fs->cdir = dj.sclust;	/* Start directory itself */
2458:.\sdc/ff.c    **** 			} else {
2459:.\sdc/ff.c    **** 				if (dj.dir[DIR_Attr] & AM_DIR)	/* Reached to the directory */
2460:.\sdc/ff.c    **** 					dj.fs->cdir = LD_CLUST(dj.dir);
2461:.\sdc/ff.c    **** 				else
2462:.\sdc/ff.c    **** 					res = FR_NO_PATH;		/* Reached but a file */
2463:.\sdc/ff.c    **** 			}
2464:.\sdc/ff.c    **** 		}
2465:.\sdc/ff.c    **** 		if (res == FR_NO_FILE) res = FR_NO_PATH;
2466:.\sdc/ff.c    **** 	}
2467:.\sdc/ff.c    **** 
2468:.\sdc/ff.c    **** 	LEAVE_FF(dj.fs, res);
2469:.\sdc/ff.c    **** }
2470:.\sdc/ff.c    **** 
2471:.\sdc/ff.c    **** 
2472:.\sdc/ff.c    **** #if _FS_RPATH >= 2
2473:.\sdc/ff.c    **** FRESULT f_getcwd (
2474:.\sdc/ff.c    **** 	TCHAR *path,	/* Pointer to the directory path */
2475:.\sdc/ff.c    **** 	UINT sz_path	/* Size of path */
2476:.\sdc/ff.c    **** )
2477:.\sdc/ff.c    **** {
2478:.\sdc/ff.c    **** 	FRESULT res;
2479:.\sdc/ff.c    **** 	DIR dj;
2480:.\sdc/ff.c    **** 	UINT i, n;
2481:.\sdc/ff.c    **** 	DWORD ccl;
2482:.\sdc/ff.c    **** 	TCHAR *tp;
2483:.\sdc/ff.c    **** 	FILINFO fno;
2484:.\sdc/ff.c    **** 	DEF_NAMEBUF;
2485:.\sdc/ff.c    **** 
2486:.\sdc/ff.c    **** 
2487:.\sdc/ff.c    **** 	*path = 0;
2488:.\sdc/ff.c    **** 	res = chk_mounted((const TCHAR**)&path, &dj.fs, 0);	/* Get current volume */
2489:.\sdc/ff.c    **** 	if (res == FR_OK) {
2490:.\sdc/ff.c    **** 		INIT_BUF(dj);
2491:.\sdc/ff.c    **** 		i = sz_path;		/* Bottom of buffer (dir stack base) */
2492:.\sdc/ff.c    **** 		dj.sclust = dj.fs->cdir;			/* Start to follow upper dir from current dir */
2493:.\sdc/ff.c    **** 		while ((ccl = dj.sclust) != 0) {	/* Repeat while current dir is a sub-dir */
2494:.\sdc/ff.c    **** 			res = dir_sdi(&dj, 1);			/* Get parent dir */
2495:.\sdc/ff.c    **** 			if (res != FR_OK) break;
2496:.\sdc/ff.c    **** 			res = dir_read(&dj);
2497:.\sdc/ff.c    **** 			if (res != FR_OK) break;
2498:.\sdc/ff.c    **** 			dj.sclust = LD_CLUST(dj.dir);	/* Goto parent dir */
2499:.\sdc/ff.c    **** 			res = dir_sdi(&dj, 0);
2500:.\sdc/ff.c    **** 			if (res != FR_OK) break;
2501:.\sdc/ff.c    **** 			do {							/* Find the entry links to the child dir */
2502:.\sdc/ff.c    **** 				res = dir_read(&dj);
2503:.\sdc/ff.c    **** 				if (res != FR_OK) break;
2504:.\sdc/ff.c    **** 				if (ccl == LD_CLUST(dj.dir)) break;	/* Found the entry */
2505:.\sdc/ff.c    **** 				res = dir_next(&dj, 0);	
2506:.\sdc/ff.c    **** 			} while (res == FR_OK);
2507:.\sdc/ff.c    **** 			if (res == FR_NO_FILE) res = FR_INT_ERR;/* It cannot be 'not found'. */
2508:.\sdc/ff.c    **** 			if (res != FR_OK) break;
2509:.\sdc/ff.c    **** #if _USE_LFN
2510:.\sdc/ff.c    **** 			fno.lfname = path;
2511:.\sdc/ff.c    **** 			fno.lfsize = i;
ARM GAS  C:\Users\SUZUKI~1\AppData\Local\Temp\ccxHwcvf.s 			page 70


2512:.\sdc/ff.c    **** #endif
2513:.\sdc/ff.c    **** 			get_fileinfo(&dj, &fno);		/* Get the dir name and push it to the buffer */
2514:.\sdc/ff.c    **** 			tp = fno.fname;
2515:.\sdc/ff.c    **** 			if (_USE_LFN && *path) tp = path;
2516:.\sdc/ff.c    **** 			for (n = 0; tp[n]; n++) ;
2517:.\sdc/ff.c    **** 			if (i < n + 3) {
2518:.\sdc/ff.c    **** 				res = FR_NOT_ENOUGH_CORE; break;
2519:.\sdc/ff.c    **** 			}
2520:.\sdc/ff.c    **** 			while (n) path[--i] = tp[--n];
2521:.\sdc/ff.c    **** 			path[--i] = '/';
2522:.\sdc/ff.c    **** 		}
2523:.\sdc/ff.c    **** 		tp = path;
2524:.\sdc/ff.c    **** 		if (res == FR_OK) {
2525:.\sdc/ff.c    **** 			*tp++ = '0' + CurrVol;			/* Put drive number */
2526:.\sdc/ff.c    **** 			*tp++ = ':';
2527:.\sdc/ff.c    **** 			if (i == sz_path) {				/* Root-dir */
2528:.\sdc/ff.c    **** 				*tp++ = '/';
2529:.\sdc/ff.c    **** 			} else {						/* Sub-dir */
2530:.\sdc/ff.c    **** 				do		/* Add stacked path str */
2531:.\sdc/ff.c    **** 					*tp++ = path[i++];
2532:.\sdc/ff.c    **** 				while (i < sz_path);
2533:.\sdc/ff.c    **** 			}
2534:.\sdc/ff.c    **** 		}
2535:.\sdc/ff.c    **** 		*tp = 0;
2536:.\sdc/ff.c    **** 		FREE_BUF();
2537:.\sdc/ff.c    **** 	}
2538:.\sdc/ff.c    **** 
2539:.\sdc/ff.c    **** 	LEAVE_FF(dj.fs, res);
2540:.\sdc/ff.c    **** }
2541:.\sdc/ff.c    **** #endif /* _FS_RPATH >= 2 */
2542:.\sdc/ff.c    **** #endif /* _FS_RPATH >= 1 */
2543:.\sdc/ff.c    **** 
2544:.\sdc/ff.c    **** 
2545:.\sdc/ff.c    **** 
2546:.\sdc/ff.c    **** #if _FS_MINIMIZE <= 2
2547:.\sdc/ff.c    **** /*-----------------------------------------------------------------------*/
2548:.\sdc/ff.c    **** /* Seek File R/W Pointer                                                 */
2549:.\sdc/ff.c    **** /*-----------------------------------------------------------------------*/
2550:.\sdc/ff.c    **** 
2551:.\sdc/ff.c    **** FRESULT f_lseek (
2552:.\sdc/ff.c    **** 	FIL *fp,		/* Pointer to the file object */
2553:.\sdc/ff.c    **** 	DWORD ofs		/* File pointer from top of file */
2554:.\sdc/ff.c    **** )
2555:.\sdc/ff.c    **** {
2556:.\sdc/ff.c    **** 	FRESULT res;
2557:.\sdc/ff.c    **** 
2558:.\sdc/ff.c    **** 
2559:.\sdc/ff.c    **** 	res = validate(fp->fs, fp->id);		/* Check validity of the object */
2560:.\sdc/ff.c    **** 	if (res != FR_OK) LEAVE_FF(fp->fs, res);
2561:.\sdc/ff.c    **** 	if (fp->flag & FA__ERROR)			/* Check abort flag */
2562:.\sdc/ff.c    **** 		LEAVE_FF(fp->fs, FR_INT_ERR);
2563:.\sdc/ff.c    **** 
2564:.\sdc/ff.c    **** #if _USE_FASTSEEK
2565:.\sdc/ff.c    **** 	if (fp->cltbl) {	/* Fast seek */
2566:.\sdc/ff.c    **** 		DWORD cl, pcl, ncl, tcl, dsc, tlen, *tbl = fp->cltbl;
2567:.\sdc/ff.c    **** 		BYTE csc;
2568:.\sdc/ff.c    **** 
ARM GAS  C:\Users\SUZUKI~1\AppData\Local\Temp\ccxHwcvf.s 			page 71


2569:.\sdc/ff.c    **** 		tlen = *tbl++;
2570:.\sdc/ff.c    **** 		if (ofs == CREATE_LINKMAP) {	/* Create link map table */
2571:.\sdc/ff.c    **** 			cl = fp->org_clust;
2572:.\sdc/ff.c    **** 			if (cl) {
2573:.\sdc/ff.c    **** 				do {
2574:.\sdc/ff.c    **** 					if (tlen < 4) {	/* Not enough table items */
2575:.\sdc/ff.c    **** 						res = FR_NOT_ENOUGH_CORE; break;
2576:.\sdc/ff.c    **** 					}
2577:.\sdc/ff.c    **** 					tcl = cl; ncl = 0;
2578:.\sdc/ff.c    **** 					do {		/* Get a fragment and store the top and length */
2579:.\sdc/ff.c    **** 						pcl = cl; ncl++;
2580:.\sdc/ff.c    **** 						cl = get_fat(fp->fs, cl);
2581:.\sdc/ff.c    **** 						if (cl <= 1) ABORT(fp->fs, FR_INT_ERR);
2582:.\sdc/ff.c    **** 						if (cl == 0xFFFFFFFF) ABORT(fp->fs, FR_DISK_ERR);
2583:.\sdc/ff.c    **** 					} while (cl == pcl + 1);
2584:.\sdc/ff.c    **** 					*tbl++ = ncl; *tbl++ = tcl;
2585:.\sdc/ff.c    **** 					tlen -= 2;
2586:.\sdc/ff.c    **** 				} while (cl < fp->fs->n_fatent);
2587:.\sdc/ff.c    **** 			}
2588:.\sdc/ff.c    **** 			*tbl = 0;	/* Terminate table */
2589:.\sdc/ff.c    **** 
2590:.\sdc/ff.c    **** 		} else {						/* Fast seek */
