:400000000020002055010000FD080000FD080000FD080000FD080000FD080000FD080000FD080000FD080000FD080000FD080000FD080000FD080000FD080000FD080000E4
:40004000FD080000FD080000FD080000FD080000FD080000FD080000FD080000FD080000FD080000FD080000FD080000FD080000FD080000FD080000FD080000FD08000030
:40008000FD080000FD080000FD080000FD080000FD080000FD080000FD080000FD080000FD080000FD080000FD080000FD080000FD080000FD080000FD080000FD080000F0
:4000C00080B51448144B21E05C689968DD688C420CD0002205E0A6180832D6E9008941E902898C460831AA42F5D101E004EB050C1C696146002204E008320026002741E9DE
:4001000002670831A242F7D1143301380028DBD100F0DCFB01000000A00900004EF20813C1F6FF731A780AB901201870704700BF4EF20010C1F6FF7008B503682BB140F208
:400140000003C0F2000303B1984708BD80B400AFFEE700BF054B1C7844F001041C70044B1A78D2B2034B1A70FFF7AAFFE8460040F8460040BC76004080B582B000AF4EF6AB
:400180000C53CEF2000340F20042C0F2FA521A604EF61453CEF200034EF61452CEF20002126842F400721A604FF000037B6014E07A687B684FEA830140F20003C0F200033E
:4001C0000B441B6819464EF20003C1F6FF7343F822107B6803F101037B607B682F2BE7D947F2BC63C4F200031B78DAB24EF20913C1F6FF731A704EF60853CEF200034EF261
:400200000002C1F6FF721A6000F00CF907F10807BD4680BD80B485B000AF786039607B68FB6007E0FB684FF000021A70FB6803F10103FB603B68002B0CBF00230123DBB2DF
:400240003A6802F1FF323A60002BEBD107F11407BD4680BC704700BF80B584B000AF07F10803FB6044F20033C4F200034FF002021A7044F20003C4F200034FF008021A7045
:4002800044F20023C4F200034FF003021A7044F2A163C4F2000340F20812C4F600121278D2B21A7044F22223C4F200034FF008021A8044F22023C4F2000341F251021A8052
:4002C0004FF00003FB714FF01903BB601AE0FB79DBB24FEA4303DAB244F22523C4F200031B78DBB203F0010342EA0303DBB203F00303FB714FF0780000F0A6F9BB6803F105
:40030000FF33BB60FB681B68002B03D0FB79DBB2032BDCD144F20403C4F200034FF003021A7044F20503C4F200034FF001021A7044F20403C4F200034FF000021A7044F232
:400340000403C4F200034FF007021A7044F20603C4F200034FF000021A7044F20803C4F200034FF048021A7044F20403C4F200034FF000021A7044F20103C4F200034FF028
:4003800002021A7007F11007BD4680BD80B400AF44F2AA33C4F200034FF444721A8045F62003C4F200034FF01E021A7045F62403C4F200034FF01E021A7045F62803C4F2FE
:4003C00000034FF01E021A7045F62C03C4F200034FF01E021A7045F60013C4F200036FF03F021A7045F60313C4F200034FF00C021A7045F60813C4F200036FF03F021A70BA
:4004000045F60B13C4F200034FF00C021A7045F67603C4F200034FF044021A70BD4680BC704700BF80B582B000AF72B644F60003C4F200036FF03F021A70FFF70DFF44F608
:400440000003C4F200036FF07F021A7047F21003C4F200034FF000021A7047F22003C4F200034FF000021A7045F67C03C4F200034FF001021A7044F2E863C4F2000344F2F7
:40048000E862C4F200021278D2B242F00102D2B21A704FF00003FB7031E0FA7813464FEA430313444FEA43031A4640F65013C0F2000313447B607B681A7859784FEA01218A
:4004C00041EA020299784FEA014141EA0202DB784FEA036343EA02031A467B6819795B794FEA032343EA01039BB210464FF000011A4600F081F9FB7803F10103FB70FB78BF
:40050000062BCAD945F20020C4F200004FF00701FFF780FE45F20820C4F200004FF00701FFF778FE45F21020C4F200004FF00701FFF770FE45F21820C4F200004FF0070123
:40054000FFF768FE45F22020C4F200004FF00701FFF760FE45F22820C4F200004FF00701FFF758FE45F23020C4F200004FF00701FFF750FE45F26020C4F200004FF0060114
:40058000FFF748FE45F27820C4F200004FF00701FFF740FE45F20303C4F2010345F20302C4F201021278D2B242F00202D2B21A7045F21303C4F2010345F21302C4F20102B5
:4005C0001278D2B242F00202D2B21A7044F2A033C4F2000344F2A032C4F200021278D2B242F04002D2B21A7044F2C233C4F2000344F2C232C4F200021278D2B242F010027F
:40060000D2B21A70FFF7C2FE44F2B030C4F2000044F2A031C4F200014FF00C0200F024F844F2B033C4F2000344F2B032C4F200021278D2B202F0FD021A7007F10807BD46DE
:4006400080BD00BF000000000230800803D000BF01380046FCD17047EFF3108072B6704780F31088704700BF032A2DE9F0070BD83AB1002311F803C000F803C001339342A2
:40068000F8D1BDE8F007704782180C46034603E014F8011C03F8011C03F003061946A44601330134002EF3D11CF00304634608BFC1EB020C68D06542C4F1040A0CEB050743
:4006C00033464FEACA0A5CF805604FEAC408551A08E057F8044F264604FA0AF449EA0404CC5004335C18032D26FA08F9A5F104050CEB0306EDDC002302E0F15CE1540133DF
:4007000019199142F9D3BCE753F8404C41F8404C53F83C4C41F83C4C53F8384C41F8384C53F8344C41F8344C53F8304C41F8304C53F82C4C41F82C4C53F8284C41F8284CA9
:4007400053F8244C41F8244C53F8204C41F8204C53F81C4C41F81C4C53F8184C41F8184C53F8144C41F8144C53F8104C41F8104C53F80C4C41F80C4C53F8084C41F8084C39
:4007800053F8044C41F8044C1C460D4640334031BCF13F0FACF1400CB6DC21462B46541B0FE051F8105C43F8105C51F80C5C43F80C5C51F8085C43F8085C51F8045C43F8F0
:4007C000045C0F2C0D469C4601F1100103F11003A4F11004E5DCCCEB0201002303E0EC584CF8034004335E19032903EB0C04A1F10401F4DC7FE700BF032AC9B230B407D85B
:4008000022B10023C15401339342FBD130BC704700EB020C034601E003F8011C03F003041A460133002CF7D14FF00133C2EB0C0403FB01F31FE042F8403C42F83C3C42F8B5
:40084000383C42F8343C42F8303C42F82C3C42F8283C42F8243C42F8203C42F81C3C42F8183C42F8143C42F8103C42F80C3C42F8083C42F8043C154640323F2CA4F1400489
:40088000D9DC2A46C5EB0C0407E042F8103C42F80C3C42F8083C42F8043C154610320F2CA4F11004F1DC2A46C5EB0C0501E042F8043C14460432032DA5F10405F7DC01E07F
:4008C00004F8011B6445FBD3A0E700BF08B500F017F8074800B10068064901B109680022FFF734FC044B0BB1AFF30080FEE700BF000000000000000000000000FEE700008F
:4009000070B540F6881640F68815C0F20006C0F20005761BB61006D0002455F8243001349847A642F9D840F6881540F69016C0F20005C0F20006761B00F020F8B61006D06A
:40094000002455F8243001349847A642F9D870BD005100407000C05100401000F0510040100000000140001000140140000800400140000A004C014000020000F8B500BF91
:40098000F8BC08BC9E4670473101000079010000F8B500BFF8BC08BC9E4670471D01000000000000B809000000E0FF1F08010000080000000000000000000000000000000B
:4009C00000000000000000000000000000000000000000000000000000000000000000000000000000000000000000000000000000000000000000000000000000000000F7
:400A000000000000000000000000000000000000000000000000000000000000000000000000000000000000000000000000000000000000000000000000000000000000B6
:400A40000000000000000000000000000000000000000000000000000000000000000000000000000000000000000000000000000000000000000000000000000000000076
:400A80000000000000000000000000000000000000000000000000000000000000000000000000000000000000000000000000000000000000000000000000000000000036
:0200000480007A
:0200000490006A
:0400000000000006F6
:0200000490105A
:04000000AFAC90BC55
:0200000490303A
:02000000BFC07F
:0200000490501A
:0C00000000010E13606901010E17202999
:0200000490402A
:4000000000000000000000000000000000000000000000000000000000000000000000000000000000000000000000000000000000000000000000000000000000000000C0
:00000001FF
