ARM GAS  C:\Users\SUZUKI~1\AppData\Local\Temp\cceB78ET.s 			page 1


   1              		.syntax unified
   2              		.cpu cortex-m3
   3              		.fpu softvfp
   4              		.eabi_attribute 20, 1
   5              		.eabi_attribute 21, 1
   6              		.eabi_attribute 23, 3
   7              		.eabi_attribute 24, 1
   8              		.eabi_attribute 25, 1
   9              		.eabi_attribute 26, 1
  10              		.eabi_attribute 30, 4
  11              		.eabi_attribute 18, 4
  12              		.thumb
  13              		.file	"Clock_1.c"
  14              		.section	.debug_abbrev,"",%progbits
  15              	.Ldebug_abbrev0:
  16              		.section	.debug_info,"",%progbits
  17              	.Ldebug_info0:
  18              		.section	.debug_line,"",%progbits
  19              	.Ldebug_line0:
  20 0000 5D010000 		.text
  20      02005F00 
  20      00000201 
  20      FB0E0D00 
  20      01010101 
  21              	.Ltext0:
  22              		.cfi_sections	.debug_frame
  23              		.section	.text.Clock_1_Start,"ax",%progbits
  24              		.align	1
  25              		.global	Clock_1_Start
  26              		.thumb
  27              		.thumb_func
  28              		.type	Clock_1_Start, %function
  29              	Clock_1_Start:
  30              	.LFB0:
  31              		.file 1 ".\\Generated_Source\\PSoC5\\Clock_1.c"
   1:.\Generated_Source\PSoC5/Clock_1.c **** /*******************************************************************************
   2:.\Generated_Source\PSoC5/Clock_1.c **** * File Name: Clock_1.c
   3:.\Generated_Source\PSoC5/Clock_1.c **** * Version 1.70
   4:.\Generated_Source\PSoC5/Clock_1.c **** *
   5:.\Generated_Source\PSoC5/Clock_1.c **** *  Description:
   6:.\Generated_Source\PSoC5/Clock_1.c **** *   This file provides the source code to the API for the clock component.
   7:.\Generated_Source\PSoC5/Clock_1.c **** *
   8:.\Generated_Source\PSoC5/Clock_1.c **** *  Note:
   9:.\Generated_Source\PSoC5/Clock_1.c **** *
  10:.\Generated_Source\PSoC5/Clock_1.c **** ********************************************************************************
  11:.\Generated_Source\PSoC5/Clock_1.c **** * Copyright 2008-2010, Cypress Semiconductor Corporation.  All rights reserved.
  12:.\Generated_Source\PSoC5/Clock_1.c **** * You may use this file only in accordance with the license, terms, conditions, 
  13:.\Generated_Source\PSoC5/Clock_1.c **** * disclaimers, and limitations in the end user license agreement accompanying 
  14:.\Generated_Source\PSoC5/Clock_1.c **** * the software package with which this file was provided.
  15:.\Generated_Source\PSoC5/Clock_1.c **** ********************************************************************************/
  16:.\Generated_Source\PSoC5/Clock_1.c **** 
  17:.\Generated_Source\PSoC5/Clock_1.c **** #include <cydevice_trm.h>
  18:.\Generated_Source\PSoC5/Clock_1.c **** #include "Clock_1.h"
  19:.\Generated_Source\PSoC5/Clock_1.c **** 
  20:.\Generated_Source\PSoC5/Clock_1.c **** /* Clock Distribution registers. */
  21:.\Generated_Source\PSoC5/Clock_1.c **** #define CLK_DIST_LD              (* (reg8 *) CYREG_CLKDIST_LD)
  22:.\Generated_Source\PSoC5/Clock_1.c **** #define CLK_DIST_BCFG2           (* (reg8 *) CYREG_CLKDIST_BCFG2)
ARM GAS  C:\Users\SUZUKI~1\AppData\Local\Temp\cceB78ET.s 			page 2


  23:.\Generated_Source\PSoC5/Clock_1.c **** #define BCFG2_MASK               (0x80u)
  24:.\Generated_Source\PSoC5/Clock_1.c **** #define CLK_DIST_DMASK           (* (reg8 *) CYREG_CLKDIST_DMASK)
  25:.\Generated_Source\PSoC5/Clock_1.c **** #define CLK_DIST_AMASK           (* (reg8 *) CYREG_CLKDIST_AMASK)
  26:.\Generated_Source\PSoC5/Clock_1.c **** 
  27:.\Generated_Source\PSoC5/Clock_1.c **** #define HAS_CLKDIST_LD_DISABLE   (CY_PSOC3 || CY_PSOC5LP)
  28:.\Generated_Source\PSoC5/Clock_1.c **** 
  29:.\Generated_Source\PSoC5/Clock_1.c **** 
  30:.\Generated_Source\PSoC5/Clock_1.c **** /*******************************************************************************
  31:.\Generated_Source\PSoC5/Clock_1.c **** * Function Name: Clock_1_Start
  32:.\Generated_Source\PSoC5/Clock_1.c **** ********************************************************************************
  33:.\Generated_Source\PSoC5/Clock_1.c **** * Summary:
  34:.\Generated_Source\PSoC5/Clock_1.c **** *  Starts the clock. Note that on startup, clocks may be already running if the
  35:.\Generated_Source\PSoC5/Clock_1.c **** *  "Start on Reset" option is enabled in the DWR.
  36:.\Generated_Source\PSoC5/Clock_1.c **** *
  37:.\Generated_Source\PSoC5/Clock_1.c **** * Parameters:
  38:.\Generated_Source\PSoC5/Clock_1.c **** *  void
  39:.\Generated_Source\PSoC5/Clock_1.c **** *
  40:.\Generated_Source\PSoC5/Clock_1.c **** * Returns:
  41:.\Generated_Source\PSoC5/Clock_1.c **** *  void
  42:.\Generated_Source\PSoC5/Clock_1.c **** *
  43:.\Generated_Source\PSoC5/Clock_1.c **** *******************************************************************************/
  44:.\Generated_Source\PSoC5/Clock_1.c **** void Clock_1_Start(void) 
  45:.\Generated_Source\PSoC5/Clock_1.c **** {
  32              		.loc 1 45 0
  33              		.cfi_startproc
  34              		@ args = 0, pretend = 0, frame = 0
  35              		@ frame_needed = 0, uses_anonymous_args = 0
  36              		@ link register save eliminated.
  46:.\Generated_Source\PSoC5/Clock_1.c ****     /* Set the bit to enable the clock. */
  47:.\Generated_Source\PSoC5/Clock_1.c ****     Clock_1_CLKEN |= Clock_1_CLKEN_MASK;
  37              		.loc 1 47 0
  38 0000 024B     		ldr	r3, .L3
  39 0002 1A78     		ldrb	r2, [r3, #0]	@ zero_extendqisi2
  40 0004 42F00102 		orr	r2, r2, #1
  41 0008 1A70     		strb	r2, [r3, #0]
  48:.\Generated_Source\PSoC5/Clock_1.c **** }
  42              		.loc 1 48 0
  43 000a 7047     		bx	lr
  44              	.L4:
  45              		.align	2
  46              	.L3:
  47 000c A2430040 		.word	1073759138
  48              		.cfi_endproc
  49              	.LFE0:
  50              		.size	Clock_1_Start, .-Clock_1_Start
  51              		.section	.text.Clock_1_Stop,"ax",%progbits
  52              		.align	1
  53              		.global	Clock_1_Stop
  54              		.thumb
  55              		.thumb_func
  56              		.type	Clock_1_Stop, %function
  57              	Clock_1_Stop:
  58              	.LFB1:
  49:.\Generated_Source\PSoC5/Clock_1.c **** 
  50:.\Generated_Source\PSoC5/Clock_1.c **** 
  51:.\Generated_Source\PSoC5/Clock_1.c **** /*******************************************************************************
  52:.\Generated_Source\PSoC5/Clock_1.c **** * Function Name: Clock_1_Stop
ARM GAS  C:\Users\SUZUKI~1\AppData\Local\Temp\cceB78ET.s 			page 3


  53:.\Generated_Source\PSoC5/Clock_1.c **** ********************************************************************************
  54:.\Generated_Source\PSoC5/Clock_1.c **** * Summary:
  55:.\Generated_Source\PSoC5/Clock_1.c **** *  Stops the clock and returns immediately. This API does not require the
  56:.\Generated_Source\PSoC5/Clock_1.c **** *  source clock to be running but may return before the hardware is actually
  57:.\Generated_Source\PSoC5/Clock_1.c **** *  disabled. If the settings of the clock are changed after calling this
  58:.\Generated_Source\PSoC5/Clock_1.c **** *  function, the clock may glitch when it is started. To avoid the clock
  59:.\Generated_Source\PSoC5/Clock_1.c **** *  glitch, use the StopBlock function.
  60:.\Generated_Source\PSoC5/Clock_1.c **** *
  61:.\Generated_Source\PSoC5/Clock_1.c **** * Parameters:
  62:.\Generated_Source\PSoC5/Clock_1.c **** *  void
  63:.\Generated_Source\PSoC5/Clock_1.c **** *
  64:.\Generated_Source\PSoC5/Clock_1.c **** * Returns:
  65:.\Generated_Source\PSoC5/Clock_1.c **** *  void
  66:.\Generated_Source\PSoC5/Clock_1.c **** *
  67:.\Generated_Source\PSoC5/Clock_1.c **** *******************************************************************************/
  68:.\Generated_Source\PSoC5/Clock_1.c **** void Clock_1_Stop(void) 
  69:.\Generated_Source\PSoC5/Clock_1.c **** {
  59              		.loc 1 69 0
  60              		.cfi_startproc
  61              		@ args = 0, pretend = 0, frame = 0
  62              		@ frame_needed = 0, uses_anonymous_args = 0
  63              		@ link register save eliminated.
  70:.\Generated_Source\PSoC5/Clock_1.c ****     /* Clear the bit to disable the clock. */
  71:.\Generated_Source\PSoC5/Clock_1.c ****     Clock_1_CLKEN &= ~Clock_1_CLKEN_MASK;
  64              		.loc 1 71 0
  65 0000 024B     		ldr	r3, .L7
  66 0002 1A78     		ldrb	r2, [r3, #0]	@ zero_extendqisi2
  67 0004 02F0FE02 		and	r2, r2, #254
  68 0008 1A70     		strb	r2, [r3, #0]
  72:.\Generated_Source\PSoC5/Clock_1.c **** }
  69              		.loc 1 72 0
  70 000a 7047     		bx	lr
  71              	.L8:
  72              		.align	2
  73              	.L7:
  74 000c A2430040 		.word	1073759138
  75              		.cfi_endproc
  76              	.LFE1:
  77              		.size	Clock_1_Stop, .-Clock_1_Stop
  78              		.section	.text.Clock_1_StandbyPower,"ax",%progbits
  79              		.align	1
  80              		.global	Clock_1_StandbyPower
  81              		.thumb
  82              		.thumb_func
  83              		.type	Clock_1_StandbyPower, %function
  84              	Clock_1_StandbyPower:
  85              	.LFB2:
  73:.\Generated_Source\PSoC5/Clock_1.c **** 
  74:.\Generated_Source\PSoC5/Clock_1.c **** 
  75:.\Generated_Source\PSoC5/Clock_1.c **** #if(CY_PSOC3 || CY_PSOC5LP)
  76:.\Generated_Source\PSoC5/Clock_1.c **** /*******************************************************************************
  77:.\Generated_Source\PSoC5/Clock_1.c **** * Function Name: Clock_1_StopBlock
  78:.\Generated_Source\PSoC5/Clock_1.c **** ********************************************************************************
  79:.\Generated_Source\PSoC5/Clock_1.c **** * Summary:
  80:.\Generated_Source\PSoC5/Clock_1.c **** *  Stops the clock and waits for the hardware to actually be disabled before
  81:.\Generated_Source\PSoC5/Clock_1.c **** *  returning. This ensures that the clock is never truncated (high part of the
  82:.\Generated_Source\PSoC5/Clock_1.c **** *  cycle will terminate before the clock is disabled and the API returns).
ARM GAS  C:\Users\SUZUKI~1\AppData\Local\Temp\cceB78ET.s 			page 4


  83:.\Generated_Source\PSoC5/Clock_1.c **** *  Note that the source clock must be running or this API will never return as
  84:.\Generated_Source\PSoC5/Clock_1.c **** *  a stopped clock cannot be disabled.
  85:.\Generated_Source\PSoC5/Clock_1.c **** *
  86:.\Generated_Source\PSoC5/Clock_1.c **** * Parameters:
  87:.\Generated_Source\PSoC5/Clock_1.c **** *  void
  88:.\Generated_Source\PSoC5/Clock_1.c **** *
  89:.\Generated_Source\PSoC5/Clock_1.c **** * Returns:
  90:.\Generated_Source\PSoC5/Clock_1.c **** *  void
  91:.\Generated_Source\PSoC5/Clock_1.c **** *
  92:.\Generated_Source\PSoC5/Clock_1.c **** *******************************************************************************/
  93:.\Generated_Source\PSoC5/Clock_1.c **** void Clock_1_StopBlock(void) 
  94:.\Generated_Source\PSoC5/Clock_1.c **** {
  95:.\Generated_Source\PSoC5/Clock_1.c ****     if (Clock_1_CLKEN & Clock_1_CLKEN_MASK)
  96:.\Generated_Source\PSoC5/Clock_1.c ****     {
  97:.\Generated_Source\PSoC5/Clock_1.c **** #if HAS_CLKDIST_LD_DISABLE
  98:.\Generated_Source\PSoC5/Clock_1.c ****         uint16 oldDivider;
  99:.\Generated_Source\PSoC5/Clock_1.c **** 
 100:.\Generated_Source\PSoC5/Clock_1.c ****         CLK_DIST_LD = 0;
 101:.\Generated_Source\PSoC5/Clock_1.c **** 
 102:.\Generated_Source\PSoC5/Clock_1.c ****         /* Clear all the mask bits except ours. */
 103:.\Generated_Source\PSoC5/Clock_1.c **** #if defined(Clock_1__CFG3)
 104:.\Generated_Source\PSoC5/Clock_1.c ****         CLK_DIST_AMASK = Clock_1_CLKEN_MASK;
 105:.\Generated_Source\PSoC5/Clock_1.c ****         CLK_DIST_DMASK = 0x00u;
 106:.\Generated_Source\PSoC5/Clock_1.c **** #else
 107:.\Generated_Source\PSoC5/Clock_1.c ****         CLK_DIST_DMASK = Clock_1_CLKEN_MASK;
 108:.\Generated_Source\PSoC5/Clock_1.c ****         CLK_DIST_AMASK = 0x00u;
 109:.\Generated_Source\PSoC5/Clock_1.c **** #endif
 110:.\Generated_Source\PSoC5/Clock_1.c **** 
 111:.\Generated_Source\PSoC5/Clock_1.c ****         /* Clear mask of bus clock. */
 112:.\Generated_Source\PSoC5/Clock_1.c ****         CLK_DIST_BCFG2 &= ~BCFG2_MASK;
 113:.\Generated_Source\PSoC5/Clock_1.c **** 
 114:.\Generated_Source\PSoC5/Clock_1.c ****         oldDivider = CY_GET_REG16(Clock_1_DIV_PTR);
 115:.\Generated_Source\PSoC5/Clock_1.c ****         CY_SET_REG16(CYREG_CLKDIST_WRK0, oldDivider);
 116:.\Generated_Source\PSoC5/Clock_1.c ****         CLK_DIST_LD = CYCLK_LD_DISABLE | CYCLK_LD_SYNC_EN | CYCLK_LD_LOAD;
 117:.\Generated_Source\PSoC5/Clock_1.c **** 
 118:.\Generated_Source\PSoC5/Clock_1.c ****         /* Wait for clock to be disabled */
 119:.\Generated_Source\PSoC5/Clock_1.c ****         while (CLK_DIST_LD & CYCLK_LD_LOAD) { }
 120:.\Generated_Source\PSoC5/Clock_1.c **** #endif
 121:.\Generated_Source\PSoC5/Clock_1.c **** 
 122:.\Generated_Source\PSoC5/Clock_1.c ****         /* Clear the bit to disable the clock. */
 123:.\Generated_Source\PSoC5/Clock_1.c ****         Clock_1_CLKEN &= ~Clock_1_CLKEN_MASK;
 124:.\Generated_Source\PSoC5/Clock_1.c **** 
 125:.\Generated_Source\PSoC5/Clock_1.c **** #if HAS_CLKDIST_LD_DISABLE
 126:.\Generated_Source\PSoC5/Clock_1.c ****         /* Clear the disable bit */
 127:.\Generated_Source\PSoC5/Clock_1.c ****         CLK_DIST_LD = 0x00u;
 128:.\Generated_Source\PSoC5/Clock_1.c ****         CY_SET_REG16(Clock_1_DIV_PTR, oldDivider);
 129:.\Generated_Source\PSoC5/Clock_1.c **** #endif
 130:.\Generated_Source\PSoC5/Clock_1.c ****     }
 131:.\Generated_Source\PSoC5/Clock_1.c **** }
 132:.\Generated_Source\PSoC5/Clock_1.c **** #endif
 133:.\Generated_Source\PSoC5/Clock_1.c **** 
 134:.\Generated_Source\PSoC5/Clock_1.c **** /*******************************************************************************
 135:.\Generated_Source\PSoC5/Clock_1.c **** * Function Name: Clock_1_StandbyPower
 136:.\Generated_Source\PSoC5/Clock_1.c **** ********************************************************************************
 137:.\Generated_Source\PSoC5/Clock_1.c **** * Summary:
 138:.\Generated_Source\PSoC5/Clock_1.c **** *  Sets whether the clock is active in standby mode.
 139:.\Generated_Source\PSoC5/Clock_1.c **** *
ARM GAS  C:\Users\SUZUKI~1\AppData\Local\Temp\cceB78ET.s 			page 5


 140:.\Generated_Source\PSoC5/Clock_1.c **** * Parameters:
 141:.\Generated_Source\PSoC5/Clock_1.c **** *  state:  0 to disable clock during standby, nonzero to enable.
 142:.\Generated_Source\PSoC5/Clock_1.c **** *
 143:.\Generated_Source\PSoC5/Clock_1.c **** * Returns:
 144:.\Generated_Source\PSoC5/Clock_1.c **** *  void
 145:.\Generated_Source\PSoC5/Clock_1.c **** *
 146:.\Generated_Source\PSoC5/Clock_1.c **** *******************************************************************************/
 147:.\Generated_Source\PSoC5/Clock_1.c **** void Clock_1_StandbyPower(uint8 state) 
 148:.\Generated_Source\PSoC5/Clock_1.c **** {
  86              		.loc 1 148 0
  87              		.cfi_startproc
  88              		@ args = 0, pretend = 0, frame = 0
  89              		@ frame_needed = 0, uses_anonymous_args = 0
  90              		@ link register save eliminated.
  91              	.LVL0:
 149:.\Generated_Source\PSoC5/Clock_1.c ****     if(state == 0)
  92              		.loc 1 149 0
  93 0000 20B9     		cbnz	r0, .L10
 150:.\Generated_Source\PSoC5/Clock_1.c ****     {
 151:.\Generated_Source\PSoC5/Clock_1.c ****         Clock_1_CLKSTBY &= ~Clock_1_CLKSTBY_MASK;
  94              		.loc 1 151 0
  95 0002 054B     		ldr	r3, .L15
  96 0004 1A78     		ldrb	r2, [r3, #0]	@ zero_extendqisi2
  97 0006 02F0FE02 		and	r2, r2, #254
  98 000a 03E0     		b	.L13
  99              	.L10:
 152:.\Generated_Source\PSoC5/Clock_1.c ****     }
 153:.\Generated_Source\PSoC5/Clock_1.c ****     else
 154:.\Generated_Source\PSoC5/Clock_1.c ****     {
 155:.\Generated_Source\PSoC5/Clock_1.c ****         Clock_1_CLKSTBY |= Clock_1_CLKSTBY_MASK;
 100              		.loc 1 155 0
 101 000c 024B     		ldr	r3, .L15
 102 000e 1A78     		ldrb	r2, [r3, #0]	@ zero_extendqisi2
 103 0010 42F00102 		orr	r2, r2, #1
 104              	.L13:
 105 0014 1A70     		strb	r2, [r3, #0]
 106 0016 7047     		bx	lr
 107              	.L16:
 108              		.align	2
 109              	.L15:
 110 0018 B2430040 		.word	1073759154
 111              		.cfi_endproc
 112              	.LFE2:
 113              		.size	Clock_1_StandbyPower, .-Clock_1_StandbyPower
 114              		.section	.text.Clock_1_GetDividerRegister,"ax",%progbits
 115              		.align	1
 116              		.global	Clock_1_GetDividerRegister
 117              		.thumb
 118              		.thumb_func
 119              		.type	Clock_1_GetDividerRegister, %function
 120              	Clock_1_GetDividerRegister:
 121              	.LFB4:
 156:.\Generated_Source\PSoC5/Clock_1.c ****     }
 157:.\Generated_Source\PSoC5/Clock_1.c **** }
 158:.\Generated_Source\PSoC5/Clock_1.c **** 
 159:.\Generated_Source\PSoC5/Clock_1.c **** 
 160:.\Generated_Source\PSoC5/Clock_1.c **** /*******************************************************************************
ARM GAS  C:\Users\SUZUKI~1\AppData\Local\Temp\cceB78ET.s 			page 6


 161:.\Generated_Source\PSoC5/Clock_1.c **** * Function Name: Clock_1_SetDividerRegister
 162:.\Generated_Source\PSoC5/Clock_1.c **** ********************************************************************************
 163:.\Generated_Source\PSoC5/Clock_1.c **** * Summary:
 164:.\Generated_Source\PSoC5/Clock_1.c **** *  Modifies the clock divider and, thus, the frequency. When the clock divider
 165:.\Generated_Source\PSoC5/Clock_1.c **** *  register is set to zero or changed from zero, the clock will be temporarily
 166:.\Generated_Source\PSoC5/Clock_1.c **** *  disabled in order to change the SSS mode bit. If the clock is enabled when
 167:.\Generated_Source\PSoC5/Clock_1.c **** *  SetDividerRegister is called, then the source clock must be running.
 168:.\Generated_Source\PSoC5/Clock_1.c **** *
 169:.\Generated_Source\PSoC5/Clock_1.c **** * Parameters:
 170:.\Generated_Source\PSoC5/Clock_1.c **** *  clkDivider:  Divider register value (0-65,535). This value is NOT the
 171:.\Generated_Source\PSoC5/Clock_1.c **** *    divider; the clock hardware divides by clkDivider plus one. For example,
 172:.\Generated_Source\PSoC5/Clock_1.c **** *    to divide the clock by 2, this parameter should be set to 1.
 173:.\Generated_Source\PSoC5/Clock_1.c **** *  restart:  If nonzero, restarts the clock divider: the current clock cycle
 174:.\Generated_Source\PSoC5/Clock_1.c **** *   will be truncated and the new divide value will take effect immediately. If
 175:.\Generated_Source\PSoC5/Clock_1.c **** *   zero, the new divide value will take effect at the end of the current clock
 176:.\Generated_Source\PSoC5/Clock_1.c **** *   cycle.
 177:.\Generated_Source\PSoC5/Clock_1.c **** *
 178:.\Generated_Source\PSoC5/Clock_1.c **** * Returns:
 179:.\Generated_Source\PSoC5/Clock_1.c **** *  void
 180:.\Generated_Source\PSoC5/Clock_1.c **** *
 181:.\Generated_Source\PSoC5/Clock_1.c **** *******************************************************************************/
 182:.\Generated_Source\PSoC5/Clock_1.c **** void Clock_1_SetDividerRegister(uint16 clkDivider, uint8 restart) 
 183:.\Generated_Source\PSoC5/Clock_1.c **** {
 184:.\Generated_Source\PSoC5/Clock_1.c ****     uint8 enabled;
 185:.\Generated_Source\PSoC5/Clock_1.c **** 
 186:.\Generated_Source\PSoC5/Clock_1.c ****     uint8 currSrc = Clock_1_GetSourceRegister();
 187:.\Generated_Source\PSoC5/Clock_1.c ****     uint16 oldDivider = Clock_1_GetDividerRegister();
 188:.\Generated_Source\PSoC5/Clock_1.c **** 
 189:.\Generated_Source\PSoC5/Clock_1.c ****     if (clkDivider != oldDivider)
 190:.\Generated_Source\PSoC5/Clock_1.c ****     {
 191:.\Generated_Source\PSoC5/Clock_1.c ****         enabled = Clock_1_CLKEN & Clock_1_CLKEN_MASK;
 192:.\Generated_Source\PSoC5/Clock_1.c **** 
 193:.\Generated_Source\PSoC5/Clock_1.c ****         if (currSrc == CYCLK_SRC_SEL_CLK_SYNC_D && (oldDivider == 0 || clkDivider == 0))
 194:.\Generated_Source\PSoC5/Clock_1.c ****         {
 195:.\Generated_Source\PSoC5/Clock_1.c ****             /* Moving to/from SSS requires correct ordering to prevent halting the clock    */
 196:.\Generated_Source\PSoC5/Clock_1.c ****             if (oldDivider == 0 && clkDivider != 0)
 197:.\Generated_Source\PSoC5/Clock_1.c ****             {
 198:.\Generated_Source\PSoC5/Clock_1.c ****                 /* Moving away from SSS, set the divider first so when SSS is cleared we    */
 199:.\Generated_Source\PSoC5/Clock_1.c ****                 /* don't halt the clock.  Using the shadow load isn't required as the       */
 200:.\Generated_Source\PSoC5/Clock_1.c ****                 /* divider is ignored while SSS is set.                                     */
 201:.\Generated_Source\PSoC5/Clock_1.c ****                 CY_SET_REG16(Clock_1_DIV_PTR, clkDivider);
 202:.\Generated_Source\PSoC5/Clock_1.c ****                 Clock_1_MOD_SRC &= ~CYCLK_SSS;
 203:.\Generated_Source\PSoC5/Clock_1.c ****             }
 204:.\Generated_Source\PSoC5/Clock_1.c ****             else
 205:.\Generated_Source\PSoC5/Clock_1.c ****             {
 206:.\Generated_Source\PSoC5/Clock_1.c ****                 /* Moving to SSS, set SSS which then ignores the divider and we can set     */
 207:.\Generated_Source\PSoC5/Clock_1.c ****                 /* it without bothering with the shadow load.                               */
 208:.\Generated_Source\PSoC5/Clock_1.c ****                 Clock_1_MOD_SRC |= CYCLK_SSS;
 209:.\Generated_Source\PSoC5/Clock_1.c ****                 CY_SET_REG16(Clock_1_DIV_PTR, clkDivider);
 210:.\Generated_Source\PSoC5/Clock_1.c ****             }
 211:.\Generated_Source\PSoC5/Clock_1.c ****         }
 212:.\Generated_Source\PSoC5/Clock_1.c ****         else
 213:.\Generated_Source\PSoC5/Clock_1.c ****         {
 214:.\Generated_Source\PSoC5/Clock_1.c ****             if (enabled)
 215:.\Generated_Source\PSoC5/Clock_1.c ****             {
 216:.\Generated_Source\PSoC5/Clock_1.c ****                 CLK_DIST_LD = 0x00u;
 217:.\Generated_Source\PSoC5/Clock_1.c **** 
ARM GAS  C:\Users\SUZUKI~1\AppData\Local\Temp\cceB78ET.s 			page 7


 218:.\Generated_Source\PSoC5/Clock_1.c ****                 /* Clear all the mask bits except ours. */
 219:.\Generated_Source\PSoC5/Clock_1.c **** #if defined(Clock_1__CFG3)
 220:.\Generated_Source\PSoC5/Clock_1.c ****                 CLK_DIST_AMASK = Clock_1_CLKEN_MASK;
 221:.\Generated_Source\PSoC5/Clock_1.c ****                 CLK_DIST_DMASK = 0x00u;
 222:.\Generated_Source\PSoC5/Clock_1.c **** #else
 223:.\Generated_Source\PSoC5/Clock_1.c ****                 CLK_DIST_DMASK = Clock_1_CLKEN_MASK;
 224:.\Generated_Source\PSoC5/Clock_1.c ****                 CLK_DIST_AMASK = 0x00u;
 225:.\Generated_Source\PSoC5/Clock_1.c **** #endif
 226:.\Generated_Source\PSoC5/Clock_1.c ****                 /* Clear mask of bus clock. */
 227:.\Generated_Source\PSoC5/Clock_1.c ****                 CLK_DIST_BCFG2 &= ~BCFG2_MASK;
 228:.\Generated_Source\PSoC5/Clock_1.c **** 
 229:.\Generated_Source\PSoC5/Clock_1.c **** #if HAS_CLKDIST_LD_DISABLE
 230:.\Generated_Source\PSoC5/Clock_1.c ****                 CY_SET_REG16(CYREG_CLKDIST_WRK0, oldDivider);
 231:.\Generated_Source\PSoC5/Clock_1.c ****                 CLK_DIST_LD = CYCLK_LD_DISABLE|CYCLK_LD_SYNC_EN|CYCLK_LD_LOAD;
 232:.\Generated_Source\PSoC5/Clock_1.c **** 
 233:.\Generated_Source\PSoC5/Clock_1.c ****                 /* Wait for clock to be disabled */
 234:.\Generated_Source\PSoC5/Clock_1.c ****                 while (CLK_DIST_LD & CYCLK_LD_LOAD) { }
 235:.\Generated_Source\PSoC5/Clock_1.c **** #endif
 236:.\Generated_Source\PSoC5/Clock_1.c **** 
 237:.\Generated_Source\PSoC5/Clock_1.c ****                 Clock_1_CLKEN &= ~Clock_1_CLKEN_MASK;
 238:.\Generated_Source\PSoC5/Clock_1.c **** 
 239:.\Generated_Source\PSoC5/Clock_1.c **** #if HAS_CLKDIST_LD_DISABLE
 240:.\Generated_Source\PSoC5/Clock_1.c ****                 /* Clear the disable bit */
 241:.\Generated_Source\PSoC5/Clock_1.c ****                 CLK_DIST_LD = 0x00u;
 242:.\Generated_Source\PSoC5/Clock_1.c **** #endif
 243:.\Generated_Source\PSoC5/Clock_1.c ****             }
 244:.\Generated_Source\PSoC5/Clock_1.c **** 
 245:.\Generated_Source\PSoC5/Clock_1.c ****             /* Load divide value. */
 246:.\Generated_Source\PSoC5/Clock_1.c ****             if (Clock_1_CLKEN & Clock_1_CLKEN_MASK)
 247:.\Generated_Source\PSoC5/Clock_1.c ****             {
 248:.\Generated_Source\PSoC5/Clock_1.c ****                 /* If the clock is still enabled, use the shadow registers */
 249:.\Generated_Source\PSoC5/Clock_1.c ****                 CY_SET_REG16(CYREG_CLKDIST_WRK0, clkDivider);
 250:.\Generated_Source\PSoC5/Clock_1.c **** 
 251:.\Generated_Source\PSoC5/Clock_1.c ****                 CLK_DIST_LD = (CYCLK_LD_LOAD | (restart ? CYCLK_LD_SYNC_EN : 0x00u));
 252:.\Generated_Source\PSoC5/Clock_1.c ****                 while (CLK_DIST_LD & CYCLK_LD_LOAD) { }
 253:.\Generated_Source\PSoC5/Clock_1.c ****             }
 254:.\Generated_Source\PSoC5/Clock_1.c ****             else
 255:.\Generated_Source\PSoC5/Clock_1.c ****             {
 256:.\Generated_Source\PSoC5/Clock_1.c ****                 /* If the clock is disabled, set the divider directly */
 257:.\Generated_Source\PSoC5/Clock_1.c ****                 CY_SET_REG16(Clock_1_DIV_PTR, clkDivider);
 258:.\Generated_Source\PSoC5/Clock_1.c ****             }
 259:.\Generated_Source\PSoC5/Clock_1.c **** 
 260:.\Generated_Source\PSoC5/Clock_1.c ****             Clock_1_CLKEN |= enabled;
 261:.\Generated_Source\PSoC5/Clock_1.c ****         }
 262:.\Generated_Source\PSoC5/Clock_1.c ****     }
 263:.\Generated_Source\PSoC5/Clock_1.c **** }
 264:.\Generated_Source\PSoC5/Clock_1.c **** 
 265:.\Generated_Source\PSoC5/Clock_1.c **** 
 266:.\Generated_Source\PSoC5/Clock_1.c **** /*******************************************************************************
 267:.\Generated_Source\PSoC5/Clock_1.c **** * Function Name: Clock_1_GetDividerRegister
 268:.\Generated_Source\PSoC5/Clock_1.c **** ********************************************************************************
 269:.\Generated_Source\PSoC5/Clock_1.c **** * Summary:
 270:.\Generated_Source\PSoC5/Clock_1.c **** *  Gets the clock divider register value.
 271:.\Generated_Source\PSoC5/Clock_1.c **** *
 272:.\Generated_Source\PSoC5/Clock_1.c **** * Parameters:
 273:.\Generated_Source\PSoC5/Clock_1.c **** *  void
 274:.\Generated_Source\PSoC5/Clock_1.c **** *
ARM GAS  C:\Users\SUZUKI~1\AppData\Local\Temp\cceB78ET.s 			page 8


 275:.\Generated_Source\PSoC5/Clock_1.c **** * Returns:
 276:.\Generated_Source\PSoC5/Clock_1.c **** *  Divide value of the clock minus 1. For example, if the clock is set to
 277:.\Generated_Source\PSoC5/Clock_1.c **** *  divide by 2, the return value will be 1.
 278:.\Generated_Source\PSoC5/Clock_1.c **** *
 279:.\Generated_Source\PSoC5/Clock_1.c **** *******************************************************************************/
 280:.\Generated_Source\PSoC5/Clock_1.c **** uint16 Clock_1_GetDividerRegister(void) 
 281:.\Generated_Source\PSoC5/Clock_1.c **** {
 122              		.loc 1 281 0
 123              		.cfi_startproc
 124              		@ args = 0, pretend = 0, frame = 0
 125              		@ frame_needed = 0, uses_anonymous_args = 0
 126              		@ link register save eliminated.
 282:.\Generated_Source\PSoC5/Clock_1.c ****     return CY_GET_REG16(Clock_1_DIV_PTR);
 127              		.loc 1 282 0
 128 0000 014B     		ldr	r3, .L19
 129 0002 1888     		ldrh	r0, [r3, #0]
 283:.\Generated_Source\PSoC5/Clock_1.c **** }
 130              		.loc 1 283 0
 131 0004 80B2     		uxth	r0, r0
 132 0006 7047     		bx	lr
 133              	.L20:
 134              		.align	2
 135              	.L19:
 136 0008 80400040 		.word	1073758336
 137              		.cfi_endproc
 138              	.LFE4:
 139              		.size	Clock_1_GetDividerRegister, .-Clock_1_GetDividerRegister
 140              		.section	.text.Clock_1_SetModeRegister,"ax",%progbits
 141              		.align	1
 142              		.global	Clock_1_SetModeRegister
 143              		.thumb
 144              		.thumb_func
 145              		.type	Clock_1_SetModeRegister, %function
 146              	Clock_1_SetModeRegister:
 147              	.LFB5:
 284:.\Generated_Source\PSoC5/Clock_1.c **** 
 285:.\Generated_Source\PSoC5/Clock_1.c **** 
 286:.\Generated_Source\PSoC5/Clock_1.c **** /*******************************************************************************
 287:.\Generated_Source\PSoC5/Clock_1.c **** * Function Name: Clock_1_SetModeRegister
 288:.\Generated_Source\PSoC5/Clock_1.c **** ********************************************************************************
 289:.\Generated_Source\PSoC5/Clock_1.c **** * Summary:
 290:.\Generated_Source\PSoC5/Clock_1.c **** *  Sets flags that control the operating mode of the clock. This function only
 291:.\Generated_Source\PSoC5/Clock_1.c **** *  changes flags from 0 to 1; flags that are already 1 will remain unchanged.
 292:.\Generated_Source\PSoC5/Clock_1.c **** *  To clear flags, use the ClearModeRegister function. The clock must be
 293:.\Generated_Source\PSoC5/Clock_1.c **** *  disabled before changing the mode.
 294:.\Generated_Source\PSoC5/Clock_1.c **** *
 295:.\Generated_Source\PSoC5/Clock_1.c **** * Parameters:
 296:.\Generated_Source\PSoC5/Clock_1.c **** *  clkMode: Bit mask containing the bits to set. For PSoC 3 and PSoC 5,
 297:.\Generated_Source\PSoC5/Clock_1.c **** *   clkMode should be a set of the following optional bits or'ed together.
 298:.\Generated_Source\PSoC5/Clock_1.c **** *   - CYCLK_EARLY Enable early phase mode. Rising edge of output clock will
 299:.\Generated_Source\PSoC5/Clock_1.c **** *                 occur when the divider count reaches half of the divide
 300:.\Generated_Source\PSoC5/Clock_1.c **** *                 value.
 301:.\Generated_Source\PSoC5/Clock_1.c **** *   - CYCLK_DUTY  Enable 50% duty cycle output. When enabled, the output clock
 302:.\Generated_Source\PSoC5/Clock_1.c **** *                 is asserted for approximately half of its period. When
 303:.\Generated_Source\PSoC5/Clock_1.c **** *                 disabled, the output clock is asserted for one period of the
 304:.\Generated_Source\PSoC5/Clock_1.c **** *                 source clock.
 305:.\Generated_Source\PSoC5/Clock_1.c **** *   - CYCLK_SYNC  Enable output synchronization to master clock. This should
ARM GAS  C:\Users\SUZUKI~1\AppData\Local\Temp\cceB78ET.s 			page 9


 306:.\Generated_Source\PSoC5/Clock_1.c **** *                 be enabled for all synchronous clocks.
 307:.\Generated_Source\PSoC5/Clock_1.c **** *   See the Technical Reference Manual for details about setting the mode of
 308:.\Generated_Source\PSoC5/Clock_1.c **** *   the clock. Specifically, see the CLKDIST.DCFG.CFG2 register.
 309:.\Generated_Source\PSoC5/Clock_1.c **** *
 310:.\Generated_Source\PSoC5/Clock_1.c **** * Returns:
 311:.\Generated_Source\PSoC5/Clock_1.c **** *  void
 312:.\Generated_Source\PSoC5/Clock_1.c **** *
 313:.\Generated_Source\PSoC5/Clock_1.c **** *******************************************************************************/
 314:.\Generated_Source\PSoC5/Clock_1.c **** void Clock_1_SetModeRegister(uint8 clkMode) 
 315:.\Generated_Source\PSoC5/Clock_1.c **** {
 148              		.loc 1 315 0
 149              		.cfi_startproc
 150              		@ args = 0, pretend = 0, frame = 0
 151              		@ frame_needed = 0, uses_anonymous_args = 0
 152              		@ link register save eliminated.
 153              	.LVL1:
 316:.\Generated_Source\PSoC5/Clock_1.c ****     Clock_1_MOD_SRC |= clkMode & Clock_1_MODE_MASK;
 154              		.loc 1 316 0
 155 0000 034B     		ldr	r3, .L23
 156 0002 00F0F800 		and	r0, r0, #248
 157              	.LVL2:
 158 0006 1A78     		ldrb	r2, [r3, #0]	@ zero_extendqisi2
 159 0008 0243     		orrs	r2, r2, r0
 160 000a 1A70     		strb	r2, [r3, #0]
 317:.\Generated_Source\PSoC5/Clock_1.c **** }
 161              		.loc 1 317 0
 162 000c 7047     		bx	lr
 163              	.L24:
 164 000e 00BF     		.align	2
 165              	.L23:
 166 0010 82400040 		.word	1073758338
 167              		.cfi_endproc
 168              	.LFE5:
 169              		.size	Clock_1_SetModeRegister, .-Clock_1_SetModeRegister
 170              		.section	.text.Clock_1_ClearModeRegister,"ax",%progbits
 171              		.align	1
 172              		.global	Clock_1_ClearModeRegister
 173              		.thumb
 174              		.thumb_func
 175              		.type	Clock_1_ClearModeRegister, %function
 176              	Clock_1_ClearModeRegister:
 177              	.LFB6:
 318:.\Generated_Source\PSoC5/Clock_1.c **** 
 319:.\Generated_Source\PSoC5/Clock_1.c **** 
 320:.\Generated_Source\PSoC5/Clock_1.c **** /*******************************************************************************
 321:.\Generated_Source\PSoC5/Clock_1.c **** * Function Name: Clock_1_ClearModeRegister
 322:.\Generated_Source\PSoC5/Clock_1.c **** ********************************************************************************
 323:.\Generated_Source\PSoC5/Clock_1.c **** * Summary:
 324:.\Generated_Source\PSoC5/Clock_1.c **** *  Clears flags that control the operating mode of the clock. This function
 325:.\Generated_Source\PSoC5/Clock_1.c **** *  only changes flags from 1 to 0; flags that are already 0 will remain
 326:.\Generated_Source\PSoC5/Clock_1.c **** *  unchanged. To set flags, use the SetModeRegister function. The clock must be
 327:.\Generated_Source\PSoC5/Clock_1.c **** *  disabled before changing the mode.
 328:.\Generated_Source\PSoC5/Clock_1.c **** *
 329:.\Generated_Source\PSoC5/Clock_1.c **** * Parameters:
 330:.\Generated_Source\PSoC5/Clock_1.c **** *  clkMode: Bit mask containing the bits to clear. For PSoC 3 and PSoC 5,
 331:.\Generated_Source\PSoC5/Clock_1.c **** *   clkMode should be a set of the following optional bits or'ed together.
 332:.\Generated_Source\PSoC5/Clock_1.c **** *   - CYCLK_EARLY Enable early phase mode. Rising edge of output clock will
ARM GAS  C:\Users\SUZUKI~1\AppData\Local\Temp\cceB78ET.s 			page 10


 333:.\Generated_Source\PSoC5/Clock_1.c **** *                 occur when the divider count reaches half of the divide
 334:.\Generated_Source\PSoC5/Clock_1.c **** *                 value.
 335:.\Generated_Source\PSoC5/Clock_1.c **** *   - CYCLK_DUTY  Enable 50% duty cycle output. When enabled, the output clock
 336:.\Generated_Source\PSoC5/Clock_1.c **** *                 is asserted for approximately half of its period. When
 337:.\Generated_Source\PSoC5/Clock_1.c **** *                 disabled, the output clock is asserted for one period of the
 338:.\Generated_Source\PSoC5/Clock_1.c **** *                 source clock.
 339:.\Generated_Source\PSoC5/Clock_1.c **** *   - CYCLK_SYNC  Enable output synchronization to master clock. This should
 340:.\Generated_Source\PSoC5/Clock_1.c **** *                 be enabled for all synchronous clocks.
 341:.\Generated_Source\PSoC5/Clock_1.c **** *   See the Technical Reference Manual for details about setting the mode of
 342:.\Generated_Source\PSoC5/Clock_1.c **** *   the clock. Specifically, see the CLKDIST.DCFG.CFG2 register.
 343:.\Generated_Source\PSoC5/Clock_1.c **** *
 344:.\Generated_Source\PSoC5/Clock_1.c **** * Returns:
 345:.\Generated_Source\PSoC5/Clock_1.c **** *  void
 346:.\Generated_Source\PSoC5/Clock_1.c **** *
 347:.\Generated_Source\PSoC5/Clock_1.c **** *******************************************************************************/
 348:.\Generated_Source\PSoC5/Clock_1.c **** void Clock_1_ClearModeRegister(uint8 clkMode) 
 349:.\Generated_Source\PSoC5/Clock_1.c **** {
 178              		.loc 1 349 0
 179              		.cfi_startproc
 180              		@ args = 0, pretend = 0, frame = 0
 181              		@ frame_needed = 0, uses_anonymous_args = 0
 182              		@ link register save eliminated.
 183              	.LVL3:
 350:.\Generated_Source\PSoC5/Clock_1.c ****     Clock_1_MOD_SRC &= ~clkMode | ~Clock_1_MODE_MASK;
 184              		.loc 1 350 0
 185 0000 034B     		ldr	r3, .L27
 186 0002 C043     		mvns	r0, r0
 187              	.LVL4:
 188 0004 1A78     		ldrb	r2, [r3, #0]	@ zero_extendqisi2
 189 0006 40F00700 		orr	r0, r0, #7
 190 000a 0240     		ands	r2, r2, r0
 191 000c 1A70     		strb	r2, [r3, #0]
 351:.\Generated_Source\PSoC5/Clock_1.c **** }
 192              		.loc 1 351 0
 193 000e 7047     		bx	lr
 194              	.L28:
 195              		.align	2
 196              	.L27:
 197 0010 82400040 		.word	1073758338
 198              		.cfi_endproc
 199              	.LFE6:
 200              		.size	Clock_1_ClearModeRegister, .-Clock_1_ClearModeRegister
 201              		.section	.text.Clock_1_GetModeRegister,"ax",%progbits
 202              		.align	1
 203              		.global	Clock_1_GetModeRegister
 204              		.thumb
 205              		.thumb_func
 206              		.type	Clock_1_GetModeRegister, %function
 207              	Clock_1_GetModeRegister:
 208              	.LFB7:
 352:.\Generated_Source\PSoC5/Clock_1.c **** 
 353:.\Generated_Source\PSoC5/Clock_1.c **** 
 354:.\Generated_Source\PSoC5/Clock_1.c **** /*******************************************************************************
 355:.\Generated_Source\PSoC5/Clock_1.c **** * Function Name: Clock_1_GetModeRegister
 356:.\Generated_Source\PSoC5/Clock_1.c **** ********************************************************************************
 357:.\Generated_Source\PSoC5/Clock_1.c **** * Summary:
 358:.\Generated_Source\PSoC5/Clock_1.c **** *  Gets the clock mode register value.
ARM GAS  C:\Users\SUZUKI~1\AppData\Local\Temp\cceB78ET.s 			page 11


 359:.\Generated_Source\PSoC5/Clock_1.c **** *
 360:.\Generated_Source\PSoC5/Clock_1.c **** * Parameters:
 361:.\Generated_Source\PSoC5/Clock_1.c **** *  void
 362:.\Generated_Source\PSoC5/Clock_1.c **** *
 363:.\Generated_Source\PSoC5/Clock_1.c **** * Returns:
 364:.\Generated_Source\PSoC5/Clock_1.c **** *  Bit mask representing the enabled mode bits. See the SetModeRegister and
 365:.\Generated_Source\PSoC5/Clock_1.c **** *  ClearModeRegister descriptions for details about the mode bits.
 366:.\Generated_Source\PSoC5/Clock_1.c **** *
 367:.\Generated_Source\PSoC5/Clock_1.c **** *******************************************************************************/
 368:.\Generated_Source\PSoC5/Clock_1.c **** uint8 Clock_1_GetModeRegister(void) 
 369:.\Generated_Source\PSoC5/Clock_1.c **** {
 209              		.loc 1 369 0
 210              		.cfi_startproc
 211              		@ args = 0, pretend = 0, frame = 0
 212              		@ frame_needed = 0, uses_anonymous_args = 0
 213              		@ link register save eliminated.
 370:.\Generated_Source\PSoC5/Clock_1.c ****     return Clock_1_MOD_SRC & Clock_1_MODE_MASK;
 214              		.loc 1 370 0
 215 0000 024B     		ldr	r3, .L31
 216 0002 1878     		ldrb	r0, [r3, #0]	@ zero_extendqisi2
 371:.\Generated_Source\PSoC5/Clock_1.c **** }
 217              		.loc 1 371 0
 218 0004 00F0F800 		and	r0, r0, #248
 219 0008 7047     		bx	lr
 220              	.L32:
 221 000a 00BF     		.align	2
 222              	.L31:
 223 000c 82400040 		.word	1073758338
 224              		.cfi_endproc
 225              	.LFE7:
 226              		.size	Clock_1_GetModeRegister, .-Clock_1_GetModeRegister
 227              		.section	.text.Clock_1_GetSourceRegister,"ax",%progbits
 228              		.align	1
 229              		.global	Clock_1_GetSourceRegister
 230              		.thumb
 231              		.thumb_func
 232              		.type	Clock_1_GetSourceRegister, %function
 233              	Clock_1_GetSourceRegister:
 234              	.LFB9:
 372:.\Generated_Source\PSoC5/Clock_1.c **** 
 373:.\Generated_Source\PSoC5/Clock_1.c **** 
 374:.\Generated_Source\PSoC5/Clock_1.c **** /*******************************************************************************
 375:.\Generated_Source\PSoC5/Clock_1.c **** * Function Name: Clock_1_SetSourceRegister
 376:.\Generated_Source\PSoC5/Clock_1.c **** ********************************************************************************
 377:.\Generated_Source\PSoC5/Clock_1.c **** * Summary:
 378:.\Generated_Source\PSoC5/Clock_1.c **** *  Sets the input source of the clock. The clock must be disabled before
 379:.\Generated_Source\PSoC5/Clock_1.c **** *  changing the source. The old and new clock sources must be running.
 380:.\Generated_Source\PSoC5/Clock_1.c **** *
 381:.\Generated_Source\PSoC5/Clock_1.c **** * Parameters:
 382:.\Generated_Source\PSoC5/Clock_1.c **** *  clkSource:  For PSoC 3 and PSoC 5 devices, clkSource should be one of the
 383:.\Generated_Source\PSoC5/Clock_1.c **** *   following input sources:
 384:.\Generated_Source\PSoC5/Clock_1.c **** *   - CYCLK_SRC_SEL_SYNC_DIG
 385:.\Generated_Source\PSoC5/Clock_1.c **** *   - CYCLK_SRC_SEL_IMO
 386:.\Generated_Source\PSoC5/Clock_1.c **** *   - CYCLK_SRC_SEL_XTALM
 387:.\Generated_Source\PSoC5/Clock_1.c **** *   - CYCLK_SRC_SEL_ILO
 388:.\Generated_Source\PSoC5/Clock_1.c **** *   - CYCLK_SRC_SEL_PLL
 389:.\Generated_Source\PSoC5/Clock_1.c **** *   - CYCLK_SRC_SEL_XTALK
ARM GAS  C:\Users\SUZUKI~1\AppData\Local\Temp\cceB78ET.s 			page 12


 390:.\Generated_Source\PSoC5/Clock_1.c **** *   - CYCLK_SRC_SEL_DSI_G
 391:.\Generated_Source\PSoC5/Clock_1.c **** *   - CYCLK_SRC_SEL_DSI_D/CYCLK_SRC_SEL_DSI_A
 392:.\Generated_Source\PSoC5/Clock_1.c **** *   See the Technical Reference Manual for details on clock sources.
 393:.\Generated_Source\PSoC5/Clock_1.c **** *
 394:.\Generated_Source\PSoC5/Clock_1.c **** * Returns:
 395:.\Generated_Source\PSoC5/Clock_1.c **** *  void
 396:.\Generated_Source\PSoC5/Clock_1.c **** *
 397:.\Generated_Source\PSoC5/Clock_1.c **** *******************************************************************************/
 398:.\Generated_Source\PSoC5/Clock_1.c **** void Clock_1_SetSourceRegister(uint8 clkSource) 
 399:.\Generated_Source\PSoC5/Clock_1.c **** {
 400:.\Generated_Source\PSoC5/Clock_1.c ****     uint16 currDiv = Clock_1_GetDividerRegister();
 401:.\Generated_Source\PSoC5/Clock_1.c ****     uint8 oldSrc = Clock_1_GetSourceRegister();
 402:.\Generated_Source\PSoC5/Clock_1.c **** 
 403:.\Generated_Source\PSoC5/Clock_1.c ****     if (oldSrc != CYCLK_SRC_SEL_CLK_SYNC_D && clkSource == CYCLK_SRC_SEL_CLK_SYNC_D && currDiv == 0
 404:.\Generated_Source\PSoC5/Clock_1.c ****     {
 405:.\Generated_Source\PSoC5/Clock_1.c ****         /* Switching to Master and divider is 1, set SSS, which will output master, */
 406:.\Generated_Source\PSoC5/Clock_1.c ****         /* then set the source so we are consistent.                                */
 407:.\Generated_Source\PSoC5/Clock_1.c ****         Clock_1_MOD_SRC |= CYCLK_SSS;
 408:.\Generated_Source\PSoC5/Clock_1.c ****         Clock_1_MOD_SRC =
 409:.\Generated_Source\PSoC5/Clock_1.c ****             (Clock_1_MOD_SRC & ~Clock_1_SRC_SEL_MSK) | clkSource;
 410:.\Generated_Source\PSoC5/Clock_1.c ****     }
 411:.\Generated_Source\PSoC5/Clock_1.c ****     else if (oldSrc == CYCLK_SRC_SEL_CLK_SYNC_D && clkSource != CYCLK_SRC_SEL_CLK_SYNC_D && currDiv
 412:.\Generated_Source\PSoC5/Clock_1.c ****     {
 413:.\Generated_Source\PSoC5/Clock_1.c ****         /* Switching from Master to not and divider is 1, set source, so we don't   */
 414:.\Generated_Source\PSoC5/Clock_1.c ****         /* lock when we clear SSS.                                                  */
 415:.\Generated_Source\PSoC5/Clock_1.c ****         Clock_1_MOD_SRC =
 416:.\Generated_Source\PSoC5/Clock_1.c ****             (Clock_1_MOD_SRC & ~Clock_1_SRC_SEL_MSK) | clkSource;
 417:.\Generated_Source\PSoC5/Clock_1.c ****         Clock_1_MOD_SRC &= ~CYCLK_SSS;
 418:.\Generated_Source\PSoC5/Clock_1.c ****     }
 419:.\Generated_Source\PSoC5/Clock_1.c ****     else
 420:.\Generated_Source\PSoC5/Clock_1.c ****     {
 421:.\Generated_Source\PSoC5/Clock_1.c ****         Clock_1_MOD_SRC =
 422:.\Generated_Source\PSoC5/Clock_1.c ****             (Clock_1_MOD_SRC & ~Clock_1_SRC_SEL_MSK) | clkSource;
 423:.\Generated_Source\PSoC5/Clock_1.c ****     }
 424:.\Generated_Source\PSoC5/Clock_1.c **** }
 425:.\Generated_Source\PSoC5/Clock_1.c **** 
 426:.\Generated_Source\PSoC5/Clock_1.c **** 
 427:.\Generated_Source\PSoC5/Clock_1.c **** /*******************************************************************************
 428:.\Generated_Source\PSoC5/Clock_1.c **** * Function Name: Clock_1_GetSourceRegister
 429:.\Generated_Source\PSoC5/Clock_1.c **** ********************************************************************************
 430:.\Generated_Source\PSoC5/Clock_1.c **** * Summary:
 431:.\Generated_Source\PSoC5/Clock_1.c **** *  Gets the input source of the clock.
 432:.\Generated_Source\PSoC5/Clock_1.c **** *
 433:.\Generated_Source\PSoC5/Clock_1.c **** * Parameters:
 434:.\Generated_Source\PSoC5/Clock_1.c **** *  void
 435:.\Generated_Source\PSoC5/Clock_1.c **** *
 436:.\Generated_Source\PSoC5/Clock_1.c **** * Returns:
 437:.\Generated_Source\PSoC5/Clock_1.c **** *  The input source of the clock. See SetSourceRegister for details.
 438:.\Generated_Source\PSoC5/Clock_1.c **** *
 439:.\Generated_Source\PSoC5/Clock_1.c **** *******************************************************************************/
 440:.\Generated_Source\PSoC5/Clock_1.c **** uint8 Clock_1_GetSourceRegister(void) 
 441:.\Generated_Source\PSoC5/Clock_1.c **** {
 235              		.loc 1 441 0
 236              		.cfi_startproc
 237              		@ args = 0, pretend = 0, frame = 0
 238              		@ frame_needed = 0, uses_anonymous_args = 0
 239              		@ link register save eliminated.
ARM GAS  C:\Users\SUZUKI~1\AppData\Local\Temp\cceB78ET.s 			page 13


 442:.\Generated_Source\PSoC5/Clock_1.c ****     return Clock_1_MOD_SRC & Clock_1_SRC_SEL_MSK;
 240              		.loc 1 442 0
 241 0000 024B     		ldr	r3, .L35
 242 0002 1878     		ldrb	r0, [r3, #0]	@ zero_extendqisi2
 443:.\Generated_Source\PSoC5/Clock_1.c **** }
 243              		.loc 1 443 0
 244 0004 00F00700 		and	r0, r0, #7
 245 0008 7047     		bx	lr
 246              	.L36:
 247 000a 00BF     		.align	2
 248              	.L35:
 249 000c 82400040 		.word	1073758338
 250              		.cfi_endproc
 251              	.LFE9:
 252              		.size	Clock_1_GetSourceRegister, .-Clock_1_GetSourceRegister
 253              		.section	.text.Clock_1_SetSourceRegister,"ax",%progbits
 254              		.align	1
 255              		.global	Clock_1_SetSourceRegister
 256              		.thumb
 257              		.thumb_func
 258              		.type	Clock_1_SetSourceRegister, %function
 259              	Clock_1_SetSourceRegister:
 260              	.LFB8:
 261              		.loc 1 399 0
 262              		.cfi_startproc
 263              		@ args = 0, pretend = 0, frame = 0
 264              		@ frame_needed = 0, uses_anonymous_args = 0
 265              	.LVL5:
 266 0000 38B5     		push	{r3, r4, r5, lr}
 267              	.LCFI0:
 268              		.cfi_def_cfa_offset 16
 269              	.LBB6:
 270              	.LBB7:
 271              		.loc 1 282 0
 272 0002 134B     		ldr	r3, .L43
 273              		.cfi_offset 14, -4
 274              		.cfi_offset 5, -8
 275              		.cfi_offset 4, -12
 276              		.cfi_offset 3, -16
 277              	.LBE7:
 278              	.LBE6:
 279              		.loc 1 399 0
 280 0004 0446     		mov	r4, r0
 281              	.LBB9:
 282              	.LBB8:
 283              		.loc 1 282 0
 284 0006 1D88     		ldrh	r5, [r3, #0]
 285 0008 ADB2     		uxth	r5, r5
 286              	.LVL6:
 287              	.LBE8:
 288              	.LBE9:
 289              		.loc 1 401 0
 290 000a FFF7FEFF 		bl	Clock_1_GetSourceRegister
 291              	.LVL7:
 292              		.loc 1 403 0
 293 000e 50B1     		cbz	r0, .L38
 294 0010 B4B9     		cbnz	r4, .L39
ARM GAS  C:\Users\SUZUKI~1\AppData\Local\Temp\cceB78ET.s 			page 14


 295 0012 ADB9     		cbnz	r5, .L39
 296              		.loc 1 407 0
 297 0014 0F4B     		ldr	r3, .L43+4
 298 0016 1A78     		ldrb	r2, [r3, #0]	@ zero_extendqisi2
 299 0018 42F04002 		orr	r2, r2, #64
 300 001c 1A70     		strb	r2, [r3, #0]
 301              		.loc 1 409 0
 302 001e 1A78     		ldrb	r2, [r3, #0]	@ zero_extendqisi2
 303              		.loc 1 408 0
 304 0020 02F0F802 		and	r2, r2, #248
 305 0024 0AE0     		b	.L42
 306              	.L38:
 307              		.loc 1 411 0
 308 0026 5CB1     		cbz	r4, .L39
 309 0028 55B9     		cbnz	r5, .L39
 310              		.loc 1 416 0
 311 002a 0A4B     		ldr	r3, .L43+4
 312 002c 1A78     		ldrb	r2, [r3, #0]	@ zero_extendqisi2
 313              		.loc 1 415 0
 314 002e 02F0F802 		and	r2, r2, #248
 315 0032 1443     		orrs	r4, r4, r2
 316              	.LVL8:
 317 0034 1C70     		strb	r4, [r3, #0]
 318              		.loc 1 417 0
 319 0036 1A78     		ldrb	r2, [r3, #0]	@ zero_extendqisi2
 320 0038 02F0BF02 		and	r2, r2, #191
 321              	.LVL9:
 322              	.L42:
 323 003c 1A70     		strb	r2, [r3, #0]
 324              		.loc 1 411 0
 325 003e 38BD     		pop	{r3, r4, r5, pc}
 326              	.L39:
 327              		.loc 1 422 0
 328 0040 044B     		ldr	r3, .L43+4
 329 0042 1A78     		ldrb	r2, [r3, #0]	@ zero_extendqisi2
 330              		.loc 1 421 0
 331 0044 02F0F802 		and	r2, r2, #248
 332 0048 1443     		orrs	r4, r4, r2
 333              	.LVL10:
 334 004a 1C70     		strb	r4, [r3, #0]
 335 004c 38BD     		pop	{r3, r4, r5, pc}
 336              	.L44:
 337 004e 00BF     		.align	2
 338              	.L43:
 339 0050 80400040 		.word	1073758336
 340 0054 82400040 		.word	1073758338
 341              		.cfi_endproc
 342              	.LFE8:
 343              		.size	Clock_1_SetSourceRegister, .-Clock_1_SetSourceRegister
 344              		.section	.text.Clock_1_SetDividerRegister,"ax",%progbits
 345              		.align	1
 346              		.global	Clock_1_SetDividerRegister
 347              		.thumb
 348              		.thumb_func
 349              		.type	Clock_1_SetDividerRegister, %function
 350              	Clock_1_SetDividerRegister:
 351              	.LFB3:
ARM GAS  C:\Users\SUZUKI~1\AppData\Local\Temp\cceB78ET.s 			page 15


 352              		.loc 1 183 0
 353              		.cfi_startproc
 354              		@ args = 0, pretend = 0, frame = 0
 355              		@ frame_needed = 0, uses_anonymous_args = 0
 356              	.LVL11:
 357 0000 38B5     		push	{r3, r4, r5, lr}
 358              	.LCFI1:
 359              		.cfi_def_cfa_offset 16
 360              		.loc 1 183 0
 361 0002 0446     		mov	r4, r0
 362              		.cfi_offset 14, -4
 363              		.cfi_offset 5, -8
 364              		.cfi_offset 4, -12
 365              		.cfi_offset 3, -16
 366 0004 0D46     		mov	r5, r1
 367              		.loc 1 186 0
 368 0006 FFF7FEFF 		bl	Clock_1_GetSourceRegister
 369              	.LVL12:
 370              	.LBB10:
 371              	.LBB11:
 372              		.loc 1 282 0
 373 000a 254A     		ldr	r2, .L57
 374 000c 1188     		ldrh	r1, [r2, #0]
 375 000e 89B2     		uxth	r1, r1
 376              	.LVL13:
 377              	.LBE11:
 378              	.LBE10:
 379              		.loc 1 189 0
 380 0010 8C42     		cmp	r4, r1
 381 0012 44D0     		beq	.L56
 382              		.loc 1 191 0
 383 0014 234B     		ldr	r3, .L57+4
 384 0016 1B78     		ldrb	r3, [r3, #0]	@ zero_extendqisi2
 385              		.loc 1 193 0
 386 0018 90B9     		cbnz	r0, .L47
 387 001a 09B1     		cbz	r1, .L48
 388 001c 44B1     		cbz	r4, .L49
 389 001e 0FE0     		b	.L47
 390              	.L48:
 391              		.loc 1 196 0
 392 0020 34B1     		cbz	r4, .L49
 393              		.loc 1 202 0
 394 0022 214B     		ldr	r3, .L57+8
 395              		.loc 1 201 0
 396 0024 1480     		strh	r4, [r2, #0]	@ movhi
 397              		.loc 1 202 0
 398 0026 1A78     		ldrb	r2, [r3, #0]	@ zero_extendqisi2
 399 0028 02F0BF02 		and	r2, r2, #191
 400 002c 1A70     		strb	r2, [r3, #0]
 401              		.loc 1 196 0
 402 002e 38BD     		pop	{r3, r4, r5, pc}
 403              	.L49:
 404              		.loc 1 208 0
 405 0030 1D4B     		ldr	r3, .L57+8
 406 0032 1A78     		ldrb	r2, [r3, #0]	@ zero_extendqisi2
 407 0034 42F04002 		orr	r2, r2, #64
 408 0038 1A70     		strb	r2, [r3, #0]
ARM GAS  C:\Users\SUZUKI~1\AppData\Local\Temp\cceB78ET.s 			page 16


 409              		.loc 1 209 0
 410 003a 023B     		subs	r3, r3, #2
 411 003c 1C80     		strh	r4, [r3, #0]	@ movhi
 412 003e 38BD     		pop	{r3, r4, r5, pc}
 413              	.L47:
 414              		.loc 1 214 0
 415 0040 13F00101 		ands	r1, r3, #1
 416              	.LVL14:
 417 0044 11D0     		beq	.L50
 418              		.loc 1 216 0
 419 0046 194A     		ldr	r2, .L57+12
 420 0048 0023     		movs	r3, #0
 421 004a 1370     		strb	r3, [r2, #0]
 422              		.loc 1 223 0
 423 004c 0120     		movs	r0, #1
 424 004e 0F32     		adds	r2, r2, #15
 425 0050 1070     		strb	r0, [r2, #0]
 426              		.loc 1 224 0
 427 0052 0432     		adds	r2, r2, #4
 428 0054 1370     		strb	r3, [r2, #0]
 429              		.loc 1 227 0
 430 0056 164B     		ldr	r3, .L57+16
 431 0058 1A78     		ldrb	r2, [r3, #0]	@ zero_extendqisi2
 432 005a 02F07F02 		and	r2, r2, #127
 433 005e 1A70     		strb	r2, [r3, #0]
 434              		.loc 1 237 0
 435 0060 104B     		ldr	r3, .L57+4
 436 0062 1A78     		ldrb	r2, [r3, #0]	@ zero_extendqisi2
 437 0064 02F0FE02 		and	r2, r2, #254
 438 0068 1A70     		strb	r2, [r3, #0]
 439              	.L50:
 440              		.loc 1 246 0
 441 006a 0E4B     		ldr	r3, .L57+4
 442 006c 1B78     		ldrb	r3, [r3, #0]	@ zero_extendqisi2
 443 006e 13F0010F 		tst	r3, #1
 444 0072 0DD0     		beq	.L51
 445              		.loc 1 249 0
 446 0074 0F4B     		ldr	r3, .L57+20
 447              		.loc 1 251 0
 448 0076 002D     		cmp	r5, #0
 449 0078 14BF     		ite	ne
 450 007a 0325     		movne	r5, #3
 451 007c 0125     		moveq	r5, #1
 452              	.LVL15:
 453              		.loc 1 249 0
 454 007e 1C80     		strh	r4, [r3, #0]	@ movhi
 455              		.loc 1 251 0
 456 0080 013B     		subs	r3, r3, #1
 457 0082 1D70     		strb	r5, [r3, #0]
 458              	.L54:
 459              		.loc 1 252 0
 460 0084 094B     		ldr	r3, .L57+12
 461 0086 1B78     		ldrb	r3, [r3, #0]	@ zero_extendqisi2
 462 0088 13F0010F 		tst	r3, #1
 463 008c FAD1     		bne	.L54
 464 008e 01E0     		b	.L55
 465              	.LVL16:
ARM GAS  C:\Users\SUZUKI~1\AppData\Local\Temp\cceB78ET.s 			page 17


 466              	.L51:
 467              		.loc 1 257 0
 468 0090 034B     		ldr	r3, .L57
 469 0092 1C80     		strh	r4, [r3, #0]	@ movhi
 470              	.L55:
 471              		.loc 1 260 0
 472 0094 034B     		ldr	r3, .L57+4
 473 0096 1A78     		ldrb	r2, [r3, #0]	@ zero_extendqisi2
 474 0098 41EA0202 		orr	r2, r1, r2
 475 009c 1A70     		strb	r2, [r3, #0]
 476              	.LVL17:
 477              	.L56:
 478 009e 38BD     		pop	{r3, r4, r5, pc}
 479              	.L58:
 480              		.align	2
 481              	.L57:
 482 00a0 80400040 		.word	1073758336
 483 00a4 A2430040 		.word	1073759138
 484 00a8 82400040 		.word	1073758338
 485 00ac 01400040 		.word	1073758209
 486 00b0 08400040 		.word	1073758216
 487 00b4 02400040 		.word	1073758210
 488              		.cfi_endproc
 489              	.LFE3:
 490              		.size	Clock_1_SetDividerRegister, .-Clock_1_SetDividerRegister
 491              		.text
 492              	.Letext0:
