ARM GAS  C:\Users\SUZUKI~1\AppData\Local\Temp\cc8hWMzg.s 			page 1


   1              		.syntax unified
   2              		.cpu cortex-m3
   3              		.fpu softvfp
   4              		.eabi_attribute 20, 1
   5              		.eabi_attribute 21, 1
   6              		.eabi_attribute 23, 3
   7              		.eabi_attribute 24, 1
   8              		.eabi_attribute 25, 1
   9              		.eabi_attribute 26, 1
  10              		.eabi_attribute 30, 4
  11              		.eabi_attribute 18, 4
  12              		.thumb
  13              		.file	"cyutils.c"
  14              		.section	.debug_abbrev,"",%progbits
  15              	.Ldebug_abbrev0:
  16              		.section	.debug_info,"",%progbits
  17              	.Ldebug_info0:
  18              		.section	.debug_line,"",%progbits
  19              	.Ldebug_line0:
  20 0000 7D000000 		.text
  20      02006000 
  20      00000201 
  20      FB0E0D00 
  20      01010101 
  21              	.Ltext0:
  22              		.cfi_sections	.debug_frame
  23              		.section	.text.CySetReg24,"ax",%progbits
  24              		.align	1
  25              		.global	CySetReg24
  26              		.thumb
  27              		.thumb_func
  28              		.type	CySetReg24, %function
  29              	CySetReg24:
  30              	.LFB0:
  31              		.file 1 ".\\Generated_Source\\PSoC5\\cyutils.c"
   1:.\Generated_Source\PSoC5/cyutils.c **** /*******************************************************************************
   2:.\Generated_Source\PSoC5/cyutils.c **** * FILENAME: cyutils.c
   3:.\Generated_Source\PSoC5/cyutils.c **** * Version 3.10
   4:.\Generated_Source\PSoC5/cyutils.c **** *
   5:.\Generated_Source\PSoC5/cyutils.c **** *  Description:
   6:.\Generated_Source\PSoC5/cyutils.c **** *   CyUtils provides function to handle 24-bit value writes.
   7:.\Generated_Source\PSoC5/cyutils.c **** *
   8:.\Generated_Source\PSoC5/cyutils.c **** ********************************************************************************
   9:.\Generated_Source\PSoC5/cyutils.c **** * Copyright 2008-2012, Cypress Semiconductor Corporation.  All rights reserved.
  10:.\Generated_Source\PSoC5/cyutils.c **** * You may use this file only in accordance with the license, terms, conditions,
  11:.\Generated_Source\PSoC5/cyutils.c **** * disclaimers, and limitations in the end user license agreement accompanying
  12:.\Generated_Source\PSoC5/cyutils.c **** * the software package with which this file was provided.
  13:.\Generated_Source\PSoC5/cyutils.c **** *******************************************************************************/
  14:.\Generated_Source\PSoC5/cyutils.c **** 
  15:.\Generated_Source\PSoC5/cyutils.c **** #include "cytypes.h"
  16:.\Generated_Source\PSoC5/cyutils.c **** 
  17:.\Generated_Source\PSoC5/cyutils.c **** #if defined(__GNUC__) || defined(__ARMCC_VERSION)
  18:.\Generated_Source\PSoC5/cyutils.c **** 
  19:.\Generated_Source\PSoC5/cyutils.c ****     /***************************************************************************
  20:.\Generated_Source\PSoC5/cyutils.c ****     * Function Name: CySetReg24
  21:.\Generated_Source\PSoC5/cyutils.c ****     ****************************************************************************
  22:.\Generated_Source\PSoC5/cyutils.c ****     *
ARM GAS  C:\Users\SUZUKI~1\AppData\Local\Temp\cc8hWMzg.s 			page 2


  23:.\Generated_Source\PSoC5/cyutils.c ****     * Summary:
  24:.\Generated_Source\PSoC5/cyutils.c ****     *  Writes the 24-bit value to the specified register.
  25:.\Generated_Source\PSoC5/cyutils.c ****     *
  26:.\Generated_Source\PSoC5/cyutils.c ****     * Parameters:
  27:.\Generated_Source\PSoC5/cyutils.c ****     *  addr : adress where data must be written
  28:.\Generated_Source\PSoC5/cyutils.c ****     *  value: data that must be written
  29:.\Generated_Source\PSoC5/cyutils.c ****     *
  30:.\Generated_Source\PSoC5/cyutils.c ****     * Return:
  31:.\Generated_Source\PSoC5/cyutils.c ****     *  None
  32:.\Generated_Source\PSoC5/cyutils.c ****     *
  33:.\Generated_Source\PSoC5/cyutils.c ****     * Reentrant:
  34:.\Generated_Source\PSoC5/cyutils.c ****     *  No
  35:.\Generated_Source\PSoC5/cyutils.c ****     *
  36:.\Generated_Source\PSoC5/cyutils.c ****     ***************************************************************************/
  37:.\Generated_Source\PSoC5/cyutils.c ****     void CySetReg24(uint8 volatile *addr, uint32 value)
  38:.\Generated_Source\PSoC5/cyutils.c ****     {
  32              		.loc 1 38 0
  33              		.cfi_startproc
  34              		@ args = 0, pretend = 0, frame = 0
  35              		@ frame_needed = 0, uses_anonymous_args = 0
  36              		@ link register save eliminated.
  37              	.LVL0:
  39:.\Generated_Source\PSoC5/cyutils.c ****         *addr = (uint8)value;
  38              		.loc 1 39 0
  39 0000 CAB2     		uxtb	r2, r1
  40 0002 0346     		mov	r3, r0
  41 0004 03F8012B 		strb	r2, [r3], #1
  40:.\Generated_Source\PSoC5/cyutils.c ****         addr++;
  41:.\Generated_Source\PSoC5/cyutils.c ****         value >>= 8;
  42              		.loc 1 41 0
  43 0008 0A0A     		lsrs	r2, r1, #8
  44              	.LVL1:
  42:.\Generated_Source\PSoC5/cyutils.c ****         *addr = (uint8)value;
  43:.\Generated_Source\PSoC5/cyutils.c ****         addr++;
  44:.\Generated_Source\PSoC5/cyutils.c ****         value >>= 8;
  45:.\Generated_Source\PSoC5/cyutils.c ****         *addr = (uint8)value;
  45              		.loc 1 45 0
  46 000a 090C     		lsrs	r1, r1, #16
  47              		.loc 1 42 0
  48 000c D2B2     		uxtb	r2, r2
  49              	.LVL2:
  50              		.loc 1 45 0
  51 000e C9B2     		uxtb	r1, r1
  52              		.loc 1 42 0
  53 0010 4270     		strb	r2, [r0, #1]
  54              		.loc 1 45 0
  55 0012 5970     		strb	r1, [r3, #1]
  46:.\Generated_Source\PSoC5/cyutils.c ****     }
  56              		.loc 1 46 0
  57 0014 7047     		bx	lr
  58              		.cfi_endproc
  59              	.LFE0:
  60              		.size	CySetReg24, .-CySetReg24
  61              		.text
  62              	.Letext0:
