ARM GAS  C:\Users\SUZUKI~1\AppData\Local\Temp\ccssEGU9.s 			page 1


   1              		.syntax unified
   2              		.cpu cortex-m3
   3              		.fpu softvfp
   4              		.eabi_attribute 20, 1
   5              		.eabi_attribute 21, 1
   6              		.eabi_attribute 23, 3
   7              		.eabi_attribute 24, 1
   8              		.eabi_attribute 25, 1
   9              		.eabi_attribute 26, 1
  10              		.eabi_attribute 30, 4
  11              		.eabi_attribute 18, 4
  12              		.thumb
  13              		.file	"font.c"
  14              		.section	.debug_abbrev,"",%progbits
  15              	.Ldebug_abbrev0:
  16              		.section	.debug_info,"",%progbits
  17              	.Ldebug_info0:
  18              		.section	.debug_line,"",%progbits
  19              	.Ldebug_line0:
  20 0000 54020000 		.text
  20      02002601 
  20      00000201 
  20      FB0E0D00 
  20      01010101 
  21              	.Ltext0:
  22              		.cfi_sections	.debug_frame
  23              		.section	.text.hex2int,"ax",%progbits
  24              		.align	1
  25              		.global	hex2int
  26              		.thumb
  27              		.thumb_func
  28              		.type	hex2int, %function
  29              	hex2int:
  30              	.LFB34:
  31              		.file 1 ".\\font.c"
   1:.\font.c      **** /* ========================================
   2:.\font.c      ****  *
   3:.\font.c      ****  * Copyright YOUR COMPANY, THE YEAR
   4:.\font.c      ****  * All Rights Reserved
   5:.\font.c      ****  * UNPUBLISHED, LICENSED SOFTWARE.
   6:.\font.c      ****  *
   7:.\font.c      ****  * CONFIDENTIAL AND PROPRIETARY INFORMATION
   8:.\font.c      ****  * WHICH IS THE PROPERTY OF your company.
   9:.\font.c      ****  *
  10:.\font.c      ****  * ========================================
  11:.\font.c      **** */
  12:.\font.c      **** 
  13:.\font.c      **** #include <device.h>
  14:.\font.c      **** #include <stdlib.h>
  15:.\font.c      **** #include "sdc/ff.h"
  16:.\font.c      **** #include "sd.h"
  17:.\font.c      **** #include "font.h"
  18:.\font.c      **** #include "uart.h"
  19:.\font.c      **** 
  20:.\font.c      **** SDSTATUS sd;
  21:.\font.c      **** FIL hfont;
  22:.\font.c      **** FIL htable;
ARM GAS  C:\Users\SUZUKI~1\AppData\Local\Temp\ccssEGU9.s 			page 2


  23:.\font.c      **** 
  24:.\font.c      **** uint32 unpackHex4(char *buf);
  25:.\font.c      **** uint32 unpackHex6(char *buf);
  26:.\font.c      **** uint8 hex2int(uint8 ch);
  27:.\font.c      **** inline char *getBoundingBox(char *ptr, int8 *width, int8 *height, int8 *xorg, int8 *yorg);
  28:.\font.c      **** inline char *getBitmapData(char *ptr, uint8 *bitmapbuf);
  29:.\font.c      **** char *strsrc(const char *src, char marker, uint32 max);
  30:.\font.c      **** inline uint8 applyRasterOperation(uint8 dist, uint8 src, uint8 rop);
  31:.\font.c      **** inline uint8 extractBitColor(uint8 *buf, uint8 i, uint8 j);
  32:.\font.c      **** 
  33:.\font.c      **** 
  34:.\font.c      **** uint8 openFont(char *font, char *table)
  35:.\font.c      **** {
  36:.\font.c      **** 	if(SD_Init(&sd) == 0) {
  37:.\font.c      **** 		return 2;
  38:.\font.c      **** 	}
  39:.\font.c      **** 	if(SD_OpenFile(&sd, &hfont, font) == 0) {
  40:.\font.c      **** 		return 6;
  41:.\font.c      **** 	}
  42:.\font.c      **** 	if(SD_OpenFile(&sd, &htable, table) == 0) {
  43:.\font.c      **** 		return 5;
  44:.\font.c      **** 	}
  45:.\font.c      **** 	return 1;
  46:.\font.c      **** }
  47:.\font.c      **** 
  48:.\font.c      **** uint8 closeFont(void)
  49:.\font.c      **** {
  50:.\font.c      **** 	SD_CloseFile(&sd, &hfont);
  51:.\font.c      **** 	SD_CloseFile(&sd, &htable);
  52:.\font.c      **** 	return(1);
  53:.\font.c      **** }
  54:.\font.c      **** 
  55:.\font.c      **** uint32 getFontAddress(uint32 unicode)
  56:.\font.c      **** {
  57:.\font.c      **** 	char buf[16];
  58:.\font.c      **** //	uint8 i;
  59:.\font.c      **** 	unsigned int len;
  60:.\font.c      **** 	f_lseek(&htable, unicode * 7);
  61:.\font.c      **** 	f_read(&htable, (uint8*)buf, 6, &len);
  62:.\font.c      **** //	uprintf("\r\nunicode : %x = %d (%d) is mapped on ", unicode, unicode, unicode *6);
  63:.\font.c      **** //	for(i = 0; i < 8; i++) { uputc(buf[i]); }
  64:.\font.c      **** //	uprintf("\r\n\r\n");
  65:.\font.c      **** 	return(unpackHex6(buf));
  66:.\font.c      **** }
  67:.\font.c      **** 
  68:.\font.c      **** uint32 unpackHex4(char *buf)
  69:.\font.c      **** {
  70:.\font.c      **** 	uint32 hex = 0;
  71:.\font.c      **** 	uint8 i;
  72:.\font.c      **** 	for(i = 0; i < 4; i++) {
  73:.\font.c      **** 		hex <<= 4;
  74:.\font.c      **** 		hex |= (uint32)hex2int(*buf++);
  75:.\font.c      **** 	}
  76:.\font.c      **** 	return(hex);
  77:.\font.c      **** }
  78:.\font.c      **** 
  79:.\font.c      **** uint32 unpackHex6(char *buf)
ARM GAS  C:\Users\SUZUKI~1\AppData\Local\Temp\ccssEGU9.s 			page 3


  80:.\font.c      **** {
  81:.\font.c      **** 	uint32 hex = 0;
  82:.\font.c      **** 	uint8 i;
  83:.\font.c      **** 	for(i = 0; i < 6; i++) {
  84:.\font.c      **** 		hex <<= 4;
  85:.\font.c      **** 		hex |= (uint32)hex2int(*buf++);
  86:.\font.c      **** 	}
  87:.\font.c      **** 	return(hex);
  88:.\font.c      **** }
  89:.\font.c      **** 
  90:.\font.c      **** uint8 hex2int(uint8 ch)
  91:.\font.c      **** {
  32              		.loc 1 91 0
  33              		.cfi_startproc
  34              		@ args = 0, pretend = 0, frame = 0
  35              		@ frame_needed = 0, uses_anonymous_args = 0
  36              		@ link register save eliminated.
  37              	.LVL0:
  38              	.LBB2:
  92:.\font.c      **** 	switch(toupper(ch)) {
  39              		.loc 1 92 0
  40 0000 094B     		ldr	r3, .L7
  41 0002 1B68     		ldr	r3, [r3, #0]
  42 0004 C318     		adds	r3, r0, r3
  43              	.LVL1:
  44 0006 5B78     		ldrb	r3, [r3, #1]	@ zero_extendqisi2
  45 0008 13F0020F 		tst	r3, #2
  46 000c 18BF     		it	ne
  47 000e 2038     		subne	r0, r0, #32
  48              	.LVL2:
  49 0010 A0F13003 		sub	r3, r0, #48
  50 0014 162B     		cmp	r3, #22
  51 0016 01D9     		bls	.L3
  52 0018 0020     		movs	r0, #0
  53              	.LVL3:
  54 001a 7047     		bx	lr
  55              	.LVL4:
  56              	.L3:
  57 001c 034B     		ldr	r3, .L7+4
  58 001e C018     		adds	r0, r0, r3
  59              	.LVL5:
  60 0020 10F8300C 		ldrb	r0, [r0, #-48]	@ zero_extendqisi2
  61              	.LBE2:
  93:.\font.c      **** 		case '0': return(0);
  94:.\font.c      **** 		case '1': return(1);
  95:.\font.c      **** 		case '2': return(2);
  96:.\font.c      **** 		case '3': return(3);
  97:.\font.c      **** 		case '4': return(4);
  98:.\font.c      **** 		case '5': return(5);
  99:.\font.c      **** 		case '6': return(6);
 100:.\font.c      **** 		case '7': return(7);
 101:.\font.c      **** 		case '8': return(8);
 102:.\font.c      **** 		case '9': return(9);
 103:.\font.c      **** 		case 'A': return(10);
 104:.\font.c      **** 		case 'B': return(11);
 105:.\font.c      **** 		case 'C': return(12);
 106:.\font.c      **** 		case 'D': return(13);
ARM GAS  C:\Users\SUZUKI~1\AppData\Local\Temp\ccssEGU9.s 			page 4


 107:.\font.c      **** 		case 'E': return(14);
 108:.\font.c      **** 		case 'F': return(15);
 109:.\font.c      **** 	}
 110:.\font.c      **** 	return(0);
 111:.\font.c      **** }
  62              		.loc 1 111 0
  63 0024 7047     		bx	lr
  64              	.L8:
  65 0026 00BF     		.align	2
  66              	.L7:
  67 0028 00000000 		.word	__ctype_ptr__
  68 002c 00000000 		.word	.LANCHOR0
  69              		.cfi_endproc
  70              	.LFE34:
  71              		.size	hex2int, .-hex2int
  72              		.section	.text.unpackHex6,"ax",%progbits
  73              		.align	1
  74              		.global	unpackHex6
  75              		.thumb
  76              		.thumb_func
  77              		.type	unpackHex6, %function
  78              	unpackHex6:
  79              	.LFB33:
  80              		.loc 1 80 0
  81              		.cfi_startproc
  82              		@ args = 0, pretend = 0, frame = 0
  83              		@ frame_needed = 0, uses_anonymous_args = 0
  84              	.LVL6:
  85 0000 70B5     		push	{r4, r5, r6, lr}
  86              	.LCFI0:
  87              		.cfi_def_cfa_offset 16
  88              		.loc 1 80 0
  89 0002 0024     		movs	r4, #0
  90              		.cfi_offset 14, -4
  91              		.cfi_offset 6, -8
  92              		.cfi_offset 5, -12
  93              		.cfi_offset 4, -16
  94 0004 0546     		mov	r5, r0
  95 0006 2046     		mov	r0, r4
  96              	.LVL7:
  97              	.L10:
  98              		.loc 1 84 0
  99 0008 0601     		lsls	r6, r0, #4
 100              	.LVL8:
 101              		.loc 1 85 0
 102 000a 285D     		ldrb	r0, [r5, r4]	@ zero_extendqisi2
 103 000c FFF7FEFF 		bl	hex2int
 104 0010 0134     		adds	r4, r4, #1
 105 0012 3043     		orrs	r0, r0, r6
 106              	.LVL9:
 107              		.loc 1 83 0
 108 0014 062C     		cmp	r4, #6
 109 0016 F7D1     		bne	.L10
 110              		.loc 1 88 0
 111 0018 70BD     		pop	{r4, r5, r6, pc}
 112              		.cfi_endproc
 113              	.LFE33:
ARM GAS  C:\Users\SUZUKI~1\AppData\Local\Temp\ccssEGU9.s 			page 5


 114              		.size	unpackHex6, .-unpackHex6
 115              		.section	.text.unpackHex4,"ax",%progbits
 116              		.align	1
 117              		.global	unpackHex4
 118              		.thumb
 119              		.thumb_func
 120              		.type	unpackHex4, %function
 121              	unpackHex4:
 122              	.LFB32:
 123              		.loc 1 69 0
 124              		.cfi_startproc
 125              		@ args = 0, pretend = 0, frame = 0
 126              		@ frame_needed = 0, uses_anonymous_args = 0
 127              	.LVL10:
 128 0000 70B5     		push	{r4, r5, r6, lr}
 129              	.LCFI1:
 130              		.cfi_def_cfa_offset 16
 131              		.loc 1 69 0
 132 0002 0024     		movs	r4, #0
 133              		.cfi_offset 14, -4
 134              		.cfi_offset 6, -8
 135              		.cfi_offset 5, -12
 136              		.cfi_offset 4, -16
 137 0004 0546     		mov	r5, r0
 138 0006 2046     		mov	r0, r4
 139              	.LVL11:
 140              	.L13:
 141              		.loc 1 73 0
 142 0008 0601     		lsls	r6, r0, #4
 143              	.LVL12:
 144              		.loc 1 74 0
 145 000a 285D     		ldrb	r0, [r5, r4]	@ zero_extendqisi2
 146 000c FFF7FEFF 		bl	hex2int
 147 0010 0134     		adds	r4, r4, #1
 148 0012 3043     		orrs	r0, r0, r6
 149              	.LVL13:
 150              		.loc 1 72 0
 151 0014 042C     		cmp	r4, #4
 152 0016 F7D1     		bne	.L13
 153              		.loc 1 77 0
 154 0018 70BD     		pop	{r4, r5, r6, pc}
 155              		.cfi_endproc
 156              	.LFE32:
 157              		.size	unpackHex4, .-unpackHex4
 158              		.section	.text.strsrc,"ax",%progbits
 159              		.align	1
 160              		.global	strsrc
 161              		.thumb
 162              		.thumb_func
 163              		.type	strsrc, %function
 164              	strsrc:
 165              	.LFB38:
 112:.\font.c      **** 
 113:.\font.c      **** void expandFontBitmap(uint32 addr, uint8 *dest, uint8 color, uint8 mode)
 114:.\font.c      **** {
 115:.\font.c      **** 	char readbuf[READ_BUFFER_SIZE];
 116:.\font.c      **** 	char *p;
ARM GAS  C:\Users\SUZUKI~1\AppData\Local\Temp\ccssEGU9.s 			page 6


 117:.\font.c      **** 	int8 height, width, i, j;
 118:.\font.c      **** 	uint8 bitmapbuf[FONT_BITMAP_BUFFER_SIZE];
 119:.\font.c      **** 	unsigned int len;
 120:.\font.c      **** 	/* get bdf font data */
 121:.\font.c      **** 	f_lseek(&hfont, addr);
 122:.\font.c      **** 	f_read(&hfont, readbuf, READ_BUFFER_SIZE, &len);
 123:.\font.c      **** //	for(j = 0; j < len; j++) {uputc(readbuf[j]);}
 124:.\font.c      **** //	uprintf("len = %d (%d)\r\n", len, READ_BUFFER_SIZE);
 125:.\font.c      **** 	if(READ_BUFFER_SIZE != len) {
 126:.\font.c      **** 		return;
 127:.\font.c      **** 	}
 128:.\font.c      **** 	p = readbuf;
 129:.\font.c      **** 	p = getBoundingBox(p, &width, &height, NULL, NULL);
 130:.\font.c      **** //	uprintf("w = %d, h = %d\r\n", width, height);
 131:.\font.c      **** 	p = getBitmapData(p, bitmapbuf);
 132:.\font.c      **** 	for(i = 0; i < width; i++) {
 133:.\font.c      **** 		for(j = 0; j < height; j++) {
 134:.\font.c      **** 			/* dest[i + j*16] にアクセスする */
 135:.\font.c      **** 			dest[j+i*16] = applyRasterOperation(dest[j+i*16], extractBitColor(bitmapbuf, i, j) ? color : 0, 
 136:.\font.c      **** //			uprintf("%d", dest[j+i*16]);
 137:.\font.c      **** 		}
 138:.\font.c      **** //		uprintf("\r\n");
 139:.\font.c      **** 	}
 140:.\font.c      **** 	return;
 141:.\font.c      **** }
 142:.\font.c      **** 
 143:.\font.c      **** inline char *getBoundingBox(char *ptr, int8 *width, int8 *height, int8 *xorg, int8 *yorg)
 144:.\font.c      **** {
 145:.\font.c      **** 	ptr = strstr(ptr, "BBX");
 146:.\font.c      **** 	ptr = strsrc(ptr, ' ', READ_BUFFER_SIZE);
 147:.\font.c      **** 	if(width) { *width = atoi(ptr); }
 148:.\font.c      **** 	ptr = strsrc(ptr, ' ', READ_BUFFER_SIZE);
 149:.\font.c      **** 	if(height) { *height = atoi(ptr); }
 150:.\font.c      **** 	ptr = strsrc(ptr, ' ', READ_BUFFER_SIZE);
 151:.\font.c      **** 	if(xorg) { *xorg = atoi(ptr); }
 152:.\font.c      **** 	ptr = strsrc(ptr, ' ', READ_BUFFER_SIZE);
 153:.\font.c      **** 	if(yorg) { *yorg = atoi(ptr); }
 154:.\font.c      **** 	ptr = strsrc(ptr, '\n', READ_BUFFER_SIZE);
 155:.\font.c      **** 	return(ptr);
 156:.\font.c      **** }
 157:.\font.c      **** 
 158:.\font.c      **** inline char *getBitmapData(char *ptr, uint8 *bitmapbuf)
 159:.\font.c      **** {
 160:.\font.c      **** 	register uint16 num;
 161:.\font.c      **** 	char *pterm;
 162:.\font.c      **** //	uint8 i;
 163:.\font.c      **** 	ptr = strstr(ptr, "BITMAP");
 164:.\font.c      **** //	for(i = 0; i < 8; i++) { uputc(ptr[i]); }
 165:.\font.c      **** 	ptr = strsrc(ptr, '\n', READ_BUFFER_SIZE);
 166:.\font.c      **** //	for(i = 0; i < 8; i++) { uputc(ptr[i]); }
 167:.\font.c      **** 	pterm = strstr(ptr, "ENDCHAR");
 168:.\font.c      **** //	for(i = 0; i < 8; i++) { uputc(pterm[i]); }
 169:.\font.c      **** 	while(1) {
 170:.\font.c      **** 		num = unpackHex4(ptr);
 171:.\font.c      **** //		uprintf("%c%c%c%c - %x\r\n", *ptr, *(ptr+1), *(ptr+2), *(ptr+3), num);
 172:.\font.c      **** 		*((uint16*)bitmapbuf) = num;
 173:.\font.c      **** 		bitmapbuf += 2;
ARM GAS  C:\Users\SUZUKI~1\AppData\Local\Temp\ccssEGU9.s 			page 7


 174:.\font.c      **** 		ptr = strsrc(ptr, '\n', READ_BUFFER_SIZE);
 175:.\font.c      **** //		for(i = 0; i < 8; i++) { uputc(ptr[i]); }
 176:.\font.c      **** 		if(ptr >= pterm) { break; }
 177:.\font.c      **** 	}
 178:.\font.c      **** 	return(ptr);
 179:.\font.c      **** }
 180:.\font.c      **** 
 181:.\font.c      **** // search a marker from string
 182:.\font.c      **** char *strsrc(const char *src, char marker, uint32 max)
 183:.\font.c      **** {
 166              		.loc 1 183 0
 167              		.cfi_startproc
 168              		@ args = 0, pretend = 0, frame = 0
 169              		@ frame_needed = 0, uses_anonymous_args = 0
 170              	.LVL14:
 171 0000 10B5     		push	{r4, lr}
 172              	.LCFI2:
 173              		.cfi_def_cfa_offset 8
 174              		.loc 1 183 0
 175 0002 0023     		movs	r3, #0
 176              	.LVL15:
 177              	.L19:
 184:.\font.c      **** 	register uint32 i = 0;
 185:.\font.c      **** 	while(1) {
 186:.\font.c      **** 		if(*src == marker) { return(++src); }
 178              		.loc 1 186 0
 179 0004 C45C     		ldrb	r4, [r0, r3]	@ zero_extendqisi2
 180              		.cfi_offset 14, -4
 181              		.cfi_offset 4, -8
 182              		.loc 1 182 0
 183 0006 03EB000C 		add	ip, r3, r0
 184              		.loc 1 186 0
 185 000a 8C42     		cmp	r4, r1
 186 000c 02D1     		bne	.L16
 187 000e 0CF10100 		add	r0, ip, #1
 188              	.LVL16:
 189 0012 10BD     		pop	{r4, pc}
 190              	.L16:
 187:.\font.c      **** 		if(*src == '\n' || *src == '\0') { return 0; }
 191              		.loc 1 187 0
 192 0014 0A2C     		cmp	r4, #10
 193 0016 03D0     		beq	.L18
 194 0018 14B1     		cbz	r4, .L18
 188:.\font.c      **** 		if(++i == max) { break; }
 195              		.loc 1 188 0
 196 001a 0133     		adds	r3, r3, #1
 197 001c 9342     		cmp	r3, r2
 198 001e F1D1     		bne	.L19
 199              	.L18:
 200 0020 0020     		movs	r0, #0
 201              	.LVL17:
 202              	.LVL18:
 189:.\font.c      **** 		src++;
 190:.\font.c      **** 	}
 191:.\font.c      **** 	return 0;
 192:.\font.c      **** }
 203              		.loc 1 192 0
ARM GAS  C:\Users\SUZUKI~1\AppData\Local\Temp\ccssEGU9.s 			page 8


 204 0022 10BD     		pop	{r4, pc}
 205              		.cfi_endproc
 206              	.LFE38:
 207              		.size	strsrc, .-strsrc
 208              		.section	.text.applyRasterOperation,"ax",%progbits
 209              		.align	1
 210              		.global	applyRasterOperation
 211              		.thumb
 212              		.thumb_func
 213              		.type	applyRasterOperation, %function
 214              	applyRasterOperation:
 215              	.LFB39:
 193:.\font.c      **** 
 194:.\font.c      **** inline uint8 applyRasterOperation(uint8 dest, uint8 src, uint8 rop)
 195:.\font.c      **** {
 216              		.loc 1 195 0
 217              		.cfi_startproc
 218              		@ args = 0, pretend = 0, frame = 0
 219              		@ frame_needed = 0, uses_anonymous_args = 0
 220              		@ link register save eliminated.
 221              	.LVL19:
 196:.\font.c      **** 	uint8 res;
 197:.\font.c      **** 	switch(rop) {
 222              		.loc 1 197 0
 223 0000 023A     		subs	r2, r2, #2
 224              	.LVL20:
 225 0002 042A     		cmp	r2, #4
 226 0004 04D8     		bhi	.L22
 227 0006 DFE802F0 		tbb	[pc, r2]
 228              	.L28:
 229 000a 05       		.byte	(.L23-.L28)/2
 230 000b 08       		.byte	(.L24-.L28)/2
 231 000c 1A       		.byte	(.L25-.L28)/2
 232 000d 1D       		.byte	(.L26-.L28)/2
 233 000e 2F       		.byte	(.L27-.L28)/2
 234 000f 00       		.align	1
 235              	.L22:
 236 0010 0846     		mov	r0, r1
 237              	.LVL21:
 238 0012 7047     		bx	lr
 239              	.LVL22:
 240              	.L23:
 198:.\font.c      **** 		default: 			// default: FONT_ROP_COPY
 199:.\font.c      **** 		case FONT_ROP_COPY: res = src; break;
 200:.\font.c      **** 		case FONT_ROP_ADD:  res = ((dest + src)&0x0f) | ((dest + src)&0xf0); break;
 241              		.loc 1 200 0
 242 0014 0818     		adds	r0, r1, r0
 243              	.LVL23:
 244 0016 C0B2     		uxtb	r0, r0
 245              	.LVL24:
 246 0018 7047     		bx	lr
 247              	.LVL25:
 248              	.L24:
 201:.\font.c      **** 		case FONT_ROP_OR:   res = ((dest&0x0f) > (src&0x0f) ? (dest&0x0f) : (src&0x0f))
 249              		.loc 1 201 0
 250 001a 01F0F002 		and	r2, r1, #240
 251 001e 00F0F003 		and	r3, r0, #240
ARM GAS  C:\Users\SUZUKI~1\AppData\Local\Temp\ccssEGU9.s 			page 9


 252 0022 01F00F01 		and	r1, r1, #15
 253              	.LVL26:
 254 0026 00F00F00 		and	r0, r0, #15
 255              	.LVL27:
 256 002a 8142     		cmp	r1, r0
 257 002c B8BF     		it	lt
 258 002e 0146     		movlt	r1, r0
 259 0030 9A42     		cmp	r2, r3
 260 0032 ACBF     		ite	ge
 261 0034 41EA0200 		orrge	r0, r1, r2
 262 0038 41EA0300 		orrlt	r0, r1, r3
 263              	.LVL28:
 202:.\font.c      **** 						   | ((dest&0xf0) > (src&0xf0) ? (dest&0xf0) : (src&0xf0)); break;
 264              		.loc 1 202 0
 265 003c 7047     		bx	lr
 266              	.LVL29:
 267              	.L25:
 203:.\font.c      **** 		case FONT_ROP_BITWISE_OR: res = dest | src; break;
 268              		.loc 1 203 0
 269 003e 41EA0000 		orr	r0, r1, r0
 270              	.LVL30:
 271 0042 7047     		bx	lr
 272              	.LVL31:
 273              	.L26:
 204:.\font.c      **** 		case FONT_ROP_AND:  res = ((dest&0x0f) < (src&0x0f) ? (dest&0x0f) : (src&0x0f))
 274              		.loc 1 204 0
 275 0044 01F0F002 		and	r2, r1, #240
 276 0048 00F0F003 		and	r3, r0, #240
 277 004c 01F00F01 		and	r1, r1, #15
 278              	.LVL32:
 279 0050 00F00F00 		and	r0, r0, #15
 280              	.LVL33:
 281 0054 8142     		cmp	r1, r0
 282 0056 A8BF     		it	ge
 283 0058 0146     		movge	r1, r0
 284 005a 9A42     		cmp	r2, r3
 285 005c D4BF     		ite	le
 286 005e 41EA0200 		orrle	r0, r1, r2
 287 0062 41EA0300 		orrgt	r0, r1, r3
 288              	.LVL34:
 205:.\font.c      **** 						   | ((dest&0xf0) < (src&0xf0) ? (dest&0xf0) : (src&0xf0)); break;
 289              		.loc 1 205 0
 290 0066 7047     		bx	lr
 291              	.LVL35:
 292              	.L27:
 206:.\font.c      **** 		case FONT_ROP_BITWISE_AND: res = dest & src; break;
 293              		.loc 1 206 0
 294 0068 01EA0000 		and	r0, r1, r0
 295              	.LVL36:
 296              	.LVL37:
 207:.\font.c      **** 	}
 208:.\font.c      **** 	return(res);
 209:.\font.c      **** }
 297              		.loc 1 209 0
 298 006c 7047     		bx	lr
 299              		.cfi_endproc
 300              	.LFE39:
ARM GAS  C:\Users\SUZUKI~1\AppData\Local\Temp\ccssEGU9.s 			page 10


 301              		.size	applyRasterOperation, .-applyRasterOperation
 302              		.section	.text.extractBitColor,"ax",%progbits
 303              		.align	1
 304              		.global	extractBitColor
 305              		.thumb
 306              		.thumb_func
 307              		.type	extractBitColor, %function
 308              	extractBitColor:
 309              	.LFB40:
 210:.\font.c      **** 
 211:.\font.c      **** inline uint8 extractBitColor(uint8 *buf, uint8 i, uint8 j)
 212:.\font.c      **** {
 310              		.loc 1 212 0
 311              		.cfi_startproc
 312              		@ args = 0, pretend = 0, frame = 0
 313              		@ frame_needed = 0, uses_anonymous_args = 0
 314              		@ link register save eliminated.
 315              	.LVL38:
 213:.\font.c      **** 	j <<= 1;
 316              		.loc 1 213 0
 317 0000 5200     		lsls	r2, r2, #1
 318              	.LVL39:
 214:.\font.c      **** 	if(i >= 8) {
 319              		.loc 1 214 0
 320 0002 0729     		cmp	r1, #7
 321              		.loc 1 213 0
 322 0004 D2B2     		uxtb	r2, r2
 323              	.LVL40:
 324              		.loc 1 214 0
 325 0006 02D9     		bls	.L32
 215:.\font.c      **** 		i-=8;
 326              		.loc 1 215 0
 327 0008 0839     		subs	r1, r1, #8
 328              	.LVL41:
 329 000a C9B2     		uxtb	r1, r1
 330              	.LVL42:
 331 000c 01E0     		b	.L33
 332              	.L32:
 216:.\font.c      **** 	} else {
 217:.\font.c      **** 		j++;
 333              		.loc 1 217 0
 334 000e 0132     		adds	r2, r2, #1
 335              	.LVL43:
 336 0010 D2B2     		uxtb	r2, r2
 337              	.LVL44:
 338              	.L33:
 339 0012 835C     		ldrb	r3, [r0, r2]	@ zero_extendqisi2
 340 0014 8022     		movs	r2, #128
 341              	.LVL45:
 342 0016 52FA01F1 		asrs	r1, r2, r1
 343              	.LVL46:
 344 001a 0B42     		tst	r3, r1
 218:.\font.c      **** 	}
 219:.\font.c      **** 	return((buf[j] & (0x80>>i)) ? 1 : 0);
 220:.\font.c      **** }
 345              		.loc 1 220 0
 346 001c 0CBF     		ite	eq
ARM GAS  C:\Users\SUZUKI~1\AppData\Local\Temp\ccssEGU9.s 			page 11


 347 001e 0020     		moveq	r0, #0
 348 0020 0120     		movne	r0, #1
 349              	.LVL47:
 350 0022 7047     		bx	lr
 351              		.cfi_endproc
 352              	.LFE40:
 353              		.size	extractBitColor, .-extractBitColor
 354              		.section	.text.getBitmapData,"ax",%progbits
 355              		.align	1
 356              		.global	getBitmapData
 357              		.thumb
 358              		.thumb_func
 359              		.type	getBitmapData, %function
 360              	getBitmapData:
 361              	.LFB37:
 362              		.loc 1 159 0
 363              		.cfi_startproc
 364              		@ args = 0, pretend = 0, frame = 0
 365              		@ frame_needed = 0, uses_anonymous_args = 0
 366              	.LVL48:
 367 0000 F8B5     		push	{r3, r4, r5, r6, r7, lr}
 368              	.LCFI3:
 369              		.cfi_def_cfa_offset 24
 370              		.loc 1 159 0
 371 0002 0E46     		mov	r6, r1
 372              		.cfi_offset 14, -4
 373              		.cfi_offset 7, -8
 374              		.cfi_offset 6, -12
 375              		.cfi_offset 5, -16
 376              		.cfi_offset 4, -20
 377              		.cfi_offset 3, -24
 378              		.loc 1 163 0
 379 0004 0E49     		ldr	r1, .L38
 380              	.LVL49:
 381 0006 FFF7FEFF 		bl	strstr
 382              	.LVL50:
 383              		.loc 1 165 0
 384 000a 0A21     		movs	r1, #10
 385 000c 4FF48072 		mov	r2, #256
 386 0010 FFF7FEFF 		bl	strsrc
 387              		.loc 1 167 0
 388 0014 0B49     		ldr	r1, .L38+4
 389              		.loc 1 165 0
 390 0016 0746     		mov	r7, r0
 391              	.LVL51:
 392              		.loc 1 167 0
 393 0018 FFF7FEFF 		bl	strstr
 394 001c 0024     		movs	r4, #0
 395 001e 0546     		mov	r5, r0
 396              	.LVL52:
 397              	.L36:
 398              		.loc 1 170 0
 399 0020 3846     		mov	r0, r7
 400 0022 FFF7FEFF 		bl	unpackHex4
 401              		.loc 1 174 0
 402 0026 0A21     		movs	r1, #10
 403              		.loc 1 172 0
ARM GAS  C:\Users\SUZUKI~1\AppData\Local\Temp\ccssEGU9.s 			page 12


 404 0028 3053     		strh	r0, [r6, r4]	@ movhi
 405              		.loc 1 174 0
 406 002a 4FF48072 		mov	r2, #256
 407 002e 3846     		mov	r0, r7
 408 0030 FFF7FEFF 		bl	strsrc
 409 0034 0234     		adds	r4, r4, #2
 410              		.loc 1 176 0
 411 0036 A842     		cmp	r0, r5
 412              		.loc 1 174 0
 413 0038 0746     		mov	r7, r0
 414              		.loc 1 176 0
 415 003a F1D3     		bcc	.L36
 416              		.loc 1 179 0
 417 003c F8BD     		pop	{r3, r4, r5, r6, r7, pc}
 418              	.L39:
 419 003e 00BF     		.align	2
 420              	.L38:
 421 0040 00000000 		.word	.LC0
 422 0044 07000000 		.word	.LC1
 423              		.cfi_endproc
 424              	.LFE37:
 425              		.size	getBitmapData, .-getBitmapData
 426              		.section	.text.getBoundingBox,"ax",%progbits
 427              		.align	1
 428              		.global	getBoundingBox
 429              		.thumb
 430              		.thumb_func
 431              		.type	getBoundingBox, %function
 432              	getBoundingBox:
 433              	.LFB36:
 434              		.loc 1 144 0
 435              		.cfi_startproc
 436              		@ args = 4, pretend = 0, frame = 0
 437              		@ frame_needed = 0, uses_anonymous_args = 0
 438              	.LVL53:
 439 0000 2DE9F041 		push	{r4, r5, r6, r7, r8, lr}
 440              	.LCFI4:
 441              		.cfi_def_cfa_offset 24
 442              		.loc 1 144 0
 443 0004 0D46     		mov	r5, r1
 444              		.cfi_offset 14, -4
 445              		.cfi_offset 8, -8
 446              		.cfi_offset 7, -12
 447              		.cfi_offset 6, -16
 448              		.cfi_offset 5, -20
 449              		.cfi_offset 4, -24
 450              		.loc 1 145 0
 451 0006 1C49     		ldr	r1, .L46
 452              	.LVL54:
 453              		.loc 1 144 0
 454 0008 1446     		mov	r4, r2
 455 000a 1F46     		mov	r7, r3
 456              		.loc 1 145 0
 457 000c FFF7FEFF 		bl	strstr
 458              	.LVL55:
 459              		.loc 1 146 0
 460 0010 2021     		movs	r1, #32
ARM GAS  C:\Users\SUZUKI~1\AppData\Local\Temp\ccssEGU9.s 			page 13


 461 0012 4FF48072 		mov	r2, #256
 462              		.loc 1 144 0
 463 0016 069E     		ldr	r6, [sp, #24]
 464              		.loc 1 146 0
 465 0018 FFF7FEFF 		bl	strsrc
 466 001c 8046     		mov	r8, r0
 467              	.LVL56:
 468              		.loc 1 147 0
 469 001e 15B1     		cbz	r5, .L41
 470              	.LVL57:
 471 0020 FFF7FEFF 		bl	atoi
 472 0024 2870     		strb	r0, [r5, #0]
 473              	.L41:
 474              		.loc 1 148 0
 475 0026 4046     		mov	r0, r8
 476 0028 2021     		movs	r1, #32
 477 002a 4FF48072 		mov	r2, #256
 478 002e FFF7FEFF 		bl	strsrc
 479 0032 0546     		mov	r5, r0
 480              	.LVL58:
 481              		.loc 1 149 0
 482 0034 14B1     		cbz	r4, .L42
 483 0036 FFF7FEFF 		bl	atoi
 484 003a 2070     		strb	r0, [r4, #0]
 485              	.L42:
 486              		.loc 1 150 0
 487 003c 2846     		mov	r0, r5
 488 003e 2021     		movs	r1, #32
 489 0040 4FF48072 		mov	r2, #256
 490 0044 FFF7FEFF 		bl	strsrc
 491 0048 0446     		mov	r4, r0
 492              	.LVL59:
 493              		.loc 1 151 0
 494 004a 17B1     		cbz	r7, .L43
 495 004c FFF7FEFF 		bl	atoi
 496 0050 3870     		strb	r0, [r7, #0]
 497              	.L43:
 498              		.loc 1 152 0
 499 0052 2046     		mov	r0, r4
 500 0054 2021     		movs	r1, #32
 501 0056 4FF48072 		mov	r2, #256
 502 005a FFF7FEFF 		bl	strsrc
 503 005e 0446     		mov	r4, r0
 504              	.LVL60:
 505              		.loc 1 153 0
 506 0060 16B1     		cbz	r6, .L44
 507 0062 FFF7FEFF 		bl	atoi
 508 0066 3070     		strb	r0, [r6, #0]
 509              	.L44:
 510              		.loc 1 154 0
 511 0068 2046     		mov	r0, r4
 512 006a 0A21     		movs	r1, #10
 513 006c 4FF48072 		mov	r2, #256
 514              		.loc 1 156 0
 515 0070 BDE8F041 		pop	{r4, r5, r6, r7, r8, lr}
 516              		.loc 1 154 0
 517 0074 FFF7FEBF 		b	strsrc
ARM GAS  C:\Users\SUZUKI~1\AppData\Local\Temp\ccssEGU9.s 			page 14


 518              	.L47:
 519              		.align	2
 520              	.L46:
 521 0078 0F000000 		.word	.LC2
 522              		.cfi_endproc
 523              	.LFE36:
 524              		.size	getBoundingBox, .-getBoundingBox
 525              		.section	.text.expandFontBitmap,"ax",%progbits
 526              		.align	1
 527              		.global	expandFontBitmap
 528              		.thumb
 529              		.thumb_func
 530              		.type	expandFontBitmap, %function
 531              	expandFontBitmap:
 532              	.LFB35:
 533              		.loc 1 114 0
 534              		.cfi_startproc
 535              		@ args = 0, pretend = 0, frame = 296
 536              		@ frame_needed = 0, uses_anonymous_args = 0
 537              	.LVL61:
 538 0000 2DE9F047 		push	{r4, r5, r6, r7, r8, r9, sl, lr}
 539              	.LCFI5:
 540              		.cfi_def_cfa_offset 32
 541 0004 8446     		mov	ip, r0
 542 0006 CCB0     		sub	sp, sp, #304
 543              	.LCFI6:
 544              		.cfi_def_cfa_offset 336
 545              		.loc 1 114 0
 546 0008 0E46     		mov	r6, r1
 547              		.cfi_offset 14, -4
 548              		.cfi_offset 10, -8
 549              		.cfi_offset 9, -12
 550              		.cfi_offset 8, -16
 551              		.cfi_offset 7, -20
 552              		.cfi_offset 6, -24
 553              		.cfi_offset 5, -28
 554              		.cfi_offset 4, -32
 555              		.loc 1 121 0
 556 000a 2348     		ldr	r0, .L56
 557              	.LVL62:
 558 000c 6146     		mov	r1, ip
 559              	.LVL63:
 560              		.loc 1 122 0
 561 000e 02AD     		add	r5, sp, #8
 562              		.loc 1 114 0
 563 0010 1746     		mov	r7, r2
 564 0012 9946     		mov	r9, r3
 565              		.loc 1 121 0
 566 0014 FFF7FEFF 		bl	f_lseek
 567              	.LVL64:
 568              		.loc 1 122 0
 569 0018 4AAB     		add	r3, sp, #296
 570 001a 1F48     		ldr	r0, .L56
 571 001c 2946     		mov	r1, r5
 572 001e 4FF48072 		mov	r2, #256
 573 0022 FFF7FEFF 		bl	f_read
 574              		.loc 1 125 0
ARM GAS  C:\Users\SUZUKI~1\AppData\Local\Temp\ccssEGU9.s 			page 15


 575 0026 4A9B     		ldr	r3, [sp, #296]
 576              	.LVL65:
 577 0028 B3F5807F 		cmp	r3, #256
 578 002c 30D1     		bne	.L55
 579              	.LVL66:
 580              		.loc 1 129 0
 581 002e 0024     		movs	r4, #0
 582 0030 4BAA     		add	r2, sp, #300
 583 0032 0DF59771 		add	r1, sp, #302
 584 0036 2846     		mov	r0, r5
 585 0038 0332     		adds	r2, r2, #3
 586 003a 2346     		mov	r3, r4
 587              	.LVL67:
 588 003c 0094     		str	r4, [sp, #0]
 589 003e FFF7FEFF 		bl	getBoundingBox
 590              		.loc 1 131 0
 591 0042 42A9     		add	r1, sp, #264
 592 0044 FFF7FEFF 		bl	getBitmapData
 593              		.loc 1 132 0
 594 0048 1AE0     		b	.L50
 595              	.LVL68:
 596              	.L53:
 597              		.loc 1 135 0
 598 004a 2A46     		mov	r2, r5
 599              	.LVL69:
 600 004c 2146     		mov	r1, r4
 601 004e 42A8     		add	r0, sp, #264
 602 0050 FFF7FEFF 		bl	extractBitColor
 603              	.LVL70:
 604 0054 98F800A0 		ldrb	sl, [r8, #0]	@ zero_extendqisi2
 605 0058 0028     		cmp	r0, #0
 606 005a 14BF     		ite	ne
 607 005c 3946     		movne	r1, r7
 608 005e 0021     		moveq	r1, #0
 609              	.LVL71:
 610 0060 4A46     		mov	r2, r9
 611 0062 5046     		mov	r0, sl
 612 0064 FFF7FEFF 		bl	applyRasterOperation
 613              	.LVL72:
 614              		.loc 1 133 0
 615 0068 0135     		adds	r5, r5, #1
 616              	.LVL73:
 617              		.loc 1 135 0
 618 006a 08F8010B 		strb	r0, [r8], #1
 619              		.loc 1 133 0
 620 006e EDB2     		uxtb	r5, r5
 621              	.LVL74:
 622              	.L54:
 623 0070 9DF92F21 		ldrsb	r2, [sp, #303]
 624              	.LVL75:
 625 0074 6BB2     		sxtb	r3, r5
 626              	.LVL76:
 627 0076 9A42     		cmp	r2, r3
 628 0078 E7DC     		bgt	.L53
 629              		.loc 1 132 0
 630 007a 0134     		adds	r4, r4, #1
 631              	.LVL77:
ARM GAS  C:\Users\SUZUKI~1\AppData\Local\Temp\ccssEGU9.s 			page 16


 632 007c E4B2     		uxtb	r4, r4
 633              	.LVL78:
 634 007e 1036     		adds	r6, r6, #16
 635              	.LVL79:
 636              	.L50:
 637 0080 9DF92E21 		ldrsb	r2, [sp, #302]
 638              	.LVL80:
 639 0084 63B2     		sxtb	r3, r4
 640              	.LVL81:
 641 0086 9A42     		cmp	r2, r3
 642 0088 02DD     		ble	.L55
 643 008a B046     		mov	r8, r6
 644              	.LVL82:
 645 008c 0025     		movs	r5, #0
 646              	.LVL83:
 647 008e EFE7     		b	.L54
 648              	.LVL84:
 649              	.L55:
 650              		.loc 1 141 0
 651 0090 4CB0     		add	sp, sp, #304
 652 0092 BDE8F087 		pop	{r4, r5, r6, r7, r8, r9, sl, pc}
 653              	.L57:
 654 0096 00BF     		.align	2
 655              	.L56:
 656 0098 00000000 		.word	hfont
 657              		.cfi_endproc
 658              	.LFE35:
 659              		.size	expandFontBitmap, .-expandFontBitmap
 660              		.section	.text.getFontAddress,"ax",%progbits
 661              		.align	1
 662              		.global	getFontAddress
 663              		.thumb
 664              		.thumb_func
 665              		.type	getFontAddress, %function
 666              	getFontAddress:
 667              	.LFB31:
 668              		.loc 1 56 0
 669              		.cfi_startproc
 670              		@ args = 0, pretend = 0, frame = 24
 671              		@ frame_needed = 0, uses_anonymous_args = 0
 672              	.LVL85:
 673 0000 10B5     		push	{r4, lr}
 674              	.LCFI7:
 675              		.cfi_def_cfa_offset 8
 676 0002 0346     		mov	r3, r0
 677 0004 86B0     		sub	sp, sp, #24
 678              	.LCFI8:
 679              		.cfi_def_cfa_offset 32
 680              		.loc 1 60 0
 681 0006 C100     		lsls	r1, r0, #3
 682 0008 C91A     		subs	r1, r1, r3
 683              		.loc 1 61 0
 684 000a 01AC     		add	r4, sp, #4
 685              		.cfi_offset 14, -4
 686              		.cfi_offset 4, -8
 687              		.loc 1 60 0
 688 000c 0648     		ldr	r0, .L60
ARM GAS  C:\Users\SUZUKI~1\AppData\Local\Temp\ccssEGU9.s 			page 17


 689              	.LVL86:
 690 000e FFF7FEFF 		bl	f_lseek
 691              	.LVL87:
 692              		.loc 1 61 0
 693 0012 2146     		mov	r1, r4
 694 0014 0622     		movs	r2, #6
 695 0016 05AB     		add	r3, sp, #20
 696 0018 0348     		ldr	r0, .L60
 697 001a FFF7FEFF 		bl	f_read
 698              		.loc 1 65 0
 699 001e 2046     		mov	r0, r4
 700 0020 FFF7FEFF 		bl	unpackHex6
 701              		.loc 1 66 0
 702 0024 06B0     		add	sp, sp, #24
 703 0026 10BD     		pop	{r4, pc}
 704              	.L61:
 705              		.align	2
 706              	.L60:
 707 0028 00000000 		.word	htable
 708              		.cfi_endproc
 709              	.LFE31:
 710              		.size	getFontAddress, .-getFontAddress
 711              		.section	.text.closeFont,"ax",%progbits
 712              		.align	1
 713              		.global	closeFont
 714              		.thumb
 715              		.thumb_func
 716              		.type	closeFont, %function
 717              	closeFont:
 718              	.LFB30:
 719              		.loc 1 49 0
 720              		.cfi_startproc
 721              		@ args = 0, pretend = 0, frame = 0
 722              		@ frame_needed = 0, uses_anonymous_args = 0
 723 0000 08B5     		push	{r3, lr}
 724              	.LCFI9:
 725              		.cfi_def_cfa_offset 8
 726              		.loc 1 50 0
 727 0002 0549     		ldr	r1, .L64
 728 0004 0548     		ldr	r0, .L64+4
 729              		.cfi_offset 14, -4
 730              		.cfi_offset 3, -8
 731 0006 FFF7FEFF 		bl	SD_CloseFile
 732              		.loc 1 51 0
 733 000a 0549     		ldr	r1, .L64+8
 734 000c 0348     		ldr	r0, .L64+4
 735 000e FFF7FEFF 		bl	SD_CloseFile
 736              		.loc 1 53 0
 737 0012 0120     		movs	r0, #1
 738 0014 08BD     		pop	{r3, pc}
 739              	.L65:
 740 0016 00BF     		.align	2
 741              	.L64:
 742 0018 00000000 		.word	hfont
 743 001c 00000000 		.word	sd
 744 0020 00000000 		.word	htable
 745              		.cfi_endproc
ARM GAS  C:\Users\SUZUKI~1\AppData\Local\Temp\ccssEGU9.s 			page 18


 746              	.LFE30:
 747              		.size	closeFont, .-closeFont
 748              		.section	.text.openFont,"ax",%progbits
 749              		.align	1
 750              		.global	openFont
 751              		.thumb
 752              		.thumb_func
 753              		.type	openFont, %function
 754              	openFont:
 755              	.LFB29:
 756              		.loc 1 35 0
 757              		.cfi_startproc
 758              		@ args = 0, pretend = 0, frame = 0
 759              		@ frame_needed = 0, uses_anonymous_args = 0
 760              	.LVL88:
 761 0000 38B5     		push	{r3, r4, r5, lr}
 762              	.LCFI10:
 763              		.cfi_def_cfa_offset 16
 764              		.loc 1 35 0
 765 0002 0546     		mov	r5, r0
 766              		.cfi_offset 14, -4
 767              		.cfi_offset 5, -8
 768              		.cfi_offset 4, -12
 769              		.cfi_offset 3, -16
 770              		.loc 1 36 0
 771 0004 0C48     		ldr	r0, .L72
 772              	.LVL89:
 773              		.loc 1 35 0
 774 0006 0C46     		mov	r4, r1
 775              		.loc 1 36 0
 776 0008 FFF7FEFF 		bl	SD_Init
 777              	.LVL90:
 778 000c 08B9     		cbnz	r0, .L67
 779 000e 0230     		adds	r0, r0, #2
 780 0010 38BD     		pop	{r3, r4, r5, pc}
 781              	.L67:
 782              		.loc 1 39 0
 783 0012 0948     		ldr	r0, .L72
 784 0014 0949     		ldr	r1, .L72+4
 785 0016 2A46     		mov	r2, r5
 786 0018 FFF7FEFF 		bl	SD_OpenFile
 787 001c 08B9     		cbnz	r0, .L69
 788 001e 0630     		adds	r0, r0, #6
 789 0020 38BD     		pop	{r3, r4, r5, pc}
 790              	.L69:
 791              		.loc 1 42 0
 792 0022 0749     		ldr	r1, .L72+8
 793 0024 2246     		mov	r2, r4
 794 0026 0448     		ldr	r0, .L72
 795 0028 FFF7FEFF 		bl	SD_OpenFile
 796 002c 0028     		cmp	r0, #0
 797 002e 0CBF     		ite	eq
 798 0030 0520     		moveq	r0, #5
 799 0032 0120     		movne	r0, #1
 800              		.loc 1 46 0
 801 0034 38BD     		pop	{r3, r4, r5, pc}
 802              	.L73:
ARM GAS  C:\Users\SUZUKI~1\AppData\Local\Temp\ccssEGU9.s 			page 19


 803 0036 00BF     		.align	2
 804              	.L72:
 805 0038 00000000 		.word	sd
 806 003c 00000000 		.word	hfont
 807 0040 00000000 		.word	htable
 808              		.cfi_endproc
 809              	.LFE29:
 810              		.size	openFont, .-openFont
 811              		.comm	sd,596,4
 812              		.comm	hfont,548,4
 813              		.comm	htable,548,4
 814              		.section	.rodata
 815              		.align	2
 816              		.set	.LANCHOR0,. + 0
 817              		.type	CSWTCH.35, %object
 818              		.size	CSWTCH.35, 23
 819              	CSWTCH.35:
 820 0000 00       		.byte	0
 821 0001 01       		.byte	1
 822 0002 02       		.byte	2
 823 0003 03       		.byte	3
 824 0004 04       		.byte	4
 825 0005 05       		.byte	5
 826 0006 06       		.byte	6
 827 0007 07       		.byte	7
 828 0008 08       		.byte	8
 829 0009 09       		.byte	9
 830 000a 00       		.byte	0
 831 000b 00       		.byte	0
 832 000c 00       		.byte	0
 833 000d 00       		.byte	0
 834 000e 00       		.byte	0
 835 000f 00       		.byte	0
 836 0010 00       		.byte	0
 837 0011 0A       		.byte	10
 838 0012 0B       		.byte	11
 839 0013 0C       		.byte	12
 840 0014 0D       		.byte	13
 841 0015 0E       		.byte	14
 842 0016 0F       		.byte	15
 843 0017 00       		.section	.rodata.str1.1,"aMS",%progbits,1
 844              	.LC0:
 845 0000 4249544D 		.ascii	"BITMAP\000"
 845      415000
 846              	.LC1:
 847 0007 454E4443 		.ascii	"ENDCHAR\000"
 847      48415200 
 848              	.LC2:
 849 000f 42425800 		.ascii	"BBX\000"
 850              		.text
 851              	.Letext0:
