:100000000080002025130000DD290000DD2900000C
:10001000DD290000DD290000DD290000DD290000C8
:10002000DD290000DD290000DD290000DD290000B8
:10003000DD290000DD290000DD290000DD290000A8
:10004000DD290000DD290000DD290000DD29000098
:10005000DD290000DD290000DD290000DD29000088
:10006000DD290000DD290000DD290000DD29000078
:10007000DD290000DD290000DD290000DD29000068
:10008000DD290000DD290000DD290000DD29000058
:10009000DD290000DD290000DD290000DD29000048
:1000A000DD290000DD290000DD290000DD29000038
:1000B000DD290000DD290000DD290000DD29000028
:1000C00080B51448144B21E05C689968DD688C4267
:1000D0000CD0002205E0A6180832D6E9008941E9D3
:1000E00002898C460831AA42F5D101E004EB050CE7
:1000F0001C696146002204E008320026002741E91D
:1001000002670831A242F7D1143301380028DBD14D
:1001100002F04CFC01000000EC2B000049F610231B
:10012000C1F6FF731A780AB901201870704700BF32
:1001300048F20010C1F6FF7008B503682BB140F219
:100140000003C0F2000303B1984708BD002305E097
:1001500011F803C0013A00F803C00133002AF7D1B7
:100160007047C3690239023B994201D300207047AE
:100170008278C36A02FB0130704708B560B102782B
:1001800052B1C2888A4207D1407800F0D3FA10F009
:10019000010018BF032008BD092008BD2DE9F0416A
:1001A000056B04468D420E462DD00379E3B100F174
:1001B0003408414640782A46012300F085FBF8B90F
:1001C000226A636A2071D3189D420DD2E77809E054
:1001D000236A6078ED1841462A46012300F074FB3B
:1001E000013FFFB2012FF3D86EB1607804F1340102
:1001F0003246012300F0FAFB10B92663BDE8F08116
:100200000120BDE8F0810020BDE8F0810129F8B5AA
:1002100004460D46164675D9C369994272D20378D1
:10022000022B40D0032B4FD0012B01D0022366E0DC
:1002300001EB5107416A01EB5721FFF7AFFF03467E
:1002400000285CD1FB05DB0D15F00105F2B207D0EB
:10025000191991F8341001F00F0141EA0212D2B2DB
:100260001B19616A83F8342001370123237120466A
:1002700001EB5721FFF792FF034600283FD1FF050E
:10028000FF0D15B13609F6B209E03A1992F834209B
:10029000360A22F00F0206F00F0642EA06063F1960
:1002A00087F834602BE0416A01EB1521FFF776FFF8
:1002B000034620BB2D06ED0D2A1982F83460360A5C
:1002C000154682F835601AE0416A01EBD511FFF757
:1002D00065FF034698B96D06ED0D05F13002A218D1
:1002E000D1792D19090601F0704141EA0606310A5B
:1002F00085F834605171310C360E9171D67101223E
:10030000227100E002231846F8BD0129F8B5044621
:100310000D4659D9C369994256D20378022B29D088
:10032000032B38D0012B51D101EB5106416A01EB6F
:100330005621FFF733FF002848D1F305616ADB0D32
:100340000136E318204601EB562193F83470FFF78D
:1003500025FF00283AD1F605F60DA61996F83400C7
:1003600015F0010F47EA002001D00009F8BD000593
:10037000000DF8BD416A01EB1521FFF70FFF28BB07
:100380002D06ED0D2B192C1993F8343094F8350007
:1003900043EA0020F8BD416A01EBD511FFF7FEFEEC
:1003A000A0B96D06ED0D2B193433D8789A78000674
:1003B0005B7840EA02402C1940EA032094F834307C
:1003C000184320F07040F8BD0120F8BD4FF0FF3019
:1003D000F8BDF8B505460E4629B9C7686FB1C369BF
:1003E0009F420AD20AE0FFF790FF012803463AD95C
:1003F000EA6990423AD3374600E001273C46EB6970
:1004000001349C4202D3012F2FD9022428462146D1
:10041000FFF77BFF034638B1B0F1FF3F26D001283C
:1004200024D0BC42EBD120E0284621466FF0704238
:10043000FFF7ECFE034690B936B128463146224616
:10044000FFF7E4FE034650B92B69EC60B3F1FF3FC0
:1004500003D0013B2B6101236B71234606E0012B86
:1004600001D1023B02E0012300E000231846F8BD61
:10047000F8B504460F460068A188FFF77EFE0546E2
:10048000002840F09880A37913F0800F2BD1E66804
:10049000B74202D913F0020F00D03E460022A368F3
:1004A000A260002E54D0206887787F0273B1013B90
:1004B000711EB1FBF7F1B3FBF7F2914206D37A421A
:1004C00002EA0303A360F61A616913E0216981B9A6
:1004D000FFF77FFF0128014607D1A3796FEA436345
:1004E0006FEA5363A371022565E0B0F1FF3F50D07E
:1004F00020616161E1B92BE0A379206813F0020F5C
:1005000005D0FFF766FF014620B93E4612E0FFF72F
:10051000FCFE0146B1F1FF3F3BD00129DDD9236844
:10052000DB699942D9D2A3686161DB19A360F61B2C
:10053000BE42E1D8A3689B19A360F305DB0D3BB174
:100540002068FFF70EFE0028C7D000EB562600E01B
:100550000026A368DB05DB0D23B3A269964221D0F8
:10056000A37913F0400F0BD0214651F8243B587863
:10057000012300F0A9F9A37960B923F04003A37126
:10058000214651F8243B32465878012300F02EFAD8
:1005900038B1A3796FEA43636FEA5363A37101250E
:1005A00009E0A661A368E268934204D9E360A379F5
:1005B00043F02003A3712846F8BD2DE9F74F0193BE
:1005C0001646019A04460023884613600068A188F5
:1005D000FFF7D3FD0546002840F0A880A37913F06B
:1005E000800F2ED113F0010F01D107259EE0A368E3
:1005F000E268C3EB020A04F12403564538BFB24651
:1006000000938FE0A368DA05D20D002A72D120682A
:1006100090F802B00BF1FF3B0BEA532B5FFA8BFB18
:10062000BBF1000F13D10BB9206902E06169FFF73C
:100630006CFE012807D8A3796FEA43636FEA53631E
:10064000A371022572E0B0F1FF3F4AD06061D4F897
:10065000009061694846FFF784FD06460028EAD00D
:100660005FEA5A2700EB0B0620D099F8023007EB1F
:100670000B029A4288BFCBEB0307FBB299F801004B
:100680004146324600F0B2F9A37958BB13F0400F4F
:100690000AD0A3699E1BBE4206D208EB46200099F1
:1006A0004FF40072FFF752FD7F0231E0A37913F09F
:1006B000400F0BD0012399F801000099A26900F0C6
:1006C00003F9A37970B923F04003A371A369B3427E
:1006D0000FD02368009958783246012300F086F93C
:1006E00038B1A3796FEA43636FEA5363A3710125BD
:1006F0001CE0A661A168009AC905C90DC1F5007783
:10070000BA4538BF5746511840463A46FFF71EFDD6
:10071000A368019ADB19A3601368B844DB1913605E
:10072000C7EB0A0ABAF1000F7FF46CAF2846BDE8A8
:10073000FE8F000008B101207047014B1878704708
:100740000481FF1F10B500F0A9FF00F0B9FF10F001
:10075000080FFAD0BDE8104000F0ACBF08B5084B58
:100760004FF4FA725A60FF20FFF7ECFFFF20FFF70B
:10077000E9FFFF2803D0024B5B68002BF6D108BDD0
:10078000149AFF1F012010B500F0B6FFFF20BDE84E
:100790001040FFF7D7BF002008B500F0ADFFFFF70E
:1007A000DDFFFF2801D1FE3808BDFFF7EBFF002079
:1007B00008BD10F0800F70B504460D4626D0FFF737
:1007C000E1FFFFF7E8FF002851D07720FFF7BAFFDD
:1007D0000020FFF7B7FF0020FFF7B4FF0020FFF76E
:1007E000B1FF0020FFF7AEFF0120FFF7ABFF0A26A5
:1007F000FF20FFF7A7FF10F0800F03D0013EF6B2F5
:10080000002EF5D1012833D804F07F04FFF7BAFF9A
:10081000FFF7C1FF58B344F04000FFF793FF280EE5
:10082000FFF790FF280CC0B2FFF78CFF280AC0B278
:10083000FFF788FFE8B2FFF785FF0CB9952003E0CA
:10084000082C14BF01208720FFF77CFF0C2C02D15D
:10085000FF20FFF777FF1424FF20FFF773FF10F04E
:10086000800F05D0013CE4B2002CF5D170BDFF2013
:1008700070BD38B504460D46FFF770FFFF2801D064
:10088000002038BD2846FFF75DFFFD2D01D1012076
:1008900038BD04F500752078FFF754FF6078023406
:1008A000FFF750FFAC42F6D1FF20FFF74BFFFF20D0
:1008B000FFF748FFFF20FFF745FF00F01F00052866
:1008C00014BF0020012038BD70B50C4615461E46E9
:1008D000002848D1002B46D0244B1A7812F0010F83
:1008E00001D0033070BD1B7813F0040F01D002203B
:1008F00070BD1F4B9B6813F0080F08BF6D02012EDF
:100900000DD118202946FFF754FF30BB2046FE21A9
:10091000FFF7AFFFD0F1010638BF00261DE013F04E
:10092000060F03D097203146FFF743FF19202946D1
:10093000FFF73FFF88B92046FC21FFF79AFF28B157
:10094000013EF6B216B104F50074F4E70020FD2173
:10095000FFF78FFF002808BF0126FFF713FF301EA7
:1009600018BF012070BD042070BD00BF0481FF1FAF
:10097000149AFF1F10B50446FF2000F08FFE00F010
:100980009FFE10F0080FFAD000F094FE207010BD0A
:10099000154B642270B51A6004460D46FF20FFF720
:1009A000D1FEFF2804D1104B1B68002BF6D119E0B3
:1009B000FE2817D12046FFF7DDFF601CFFF7DAFFA6
:1009C0002646A01CFFF7D6FFF01C0434FFF7D2FF29
:1009D000043DEFD1FF20FFF7B5FEFF20FFF7B2FE89
:1009E000012070BD002070BD149AFF1F38B50C4661
:1009F0001D461146002838D1002B36D01C4B1B78E1
:100A000013F0010F01D0033038BD1A4B9B6813F06F
:100A1000080F08BF5102012D0DD11120FFF7C9FEAB
:100A2000E8B920464FF40071FFF7B2FFD0F101059D
:100A300038BF002513E01220FFF7BBFE78B920462F
:100A40004FF40071FFF7A4FF28B1013DEDB215B1DD
:100A500004F50074F3E70C200021FFF7AAFEFFF76E
:100A600091FE281E18BF012038BD042038BD00BFEC
:100A70000481FF1F149AFF1F094B1B68C3185B7882
:100A800013F0020F18BF2038A0F13003162B01D944
:100A900000207047034BC01810F8300C704700BF9F
:100AA0000C81FF1F302A000070B500240546204647
:100AB0000601285DFFF7E0FF01343043062CF7D133
:100AC00070BD70B50024054620460601285DFFF77D
:100AD000D3FF01343043042CF7D170BD10B500238F
:100AE000C45C03EB000C8C4202D10CF1010010BD80
:100AF0000A2C03D014B101339342F1D1002010BD70
:100B0000023A042A04D8DFE802F005081A1D2F0073
:100B1000084670470818C0B2704701F0F00200F0B4
:100B2000F00301F00F0100F00F008142B8BF014651
:100B30009A42ACBF41EA020041EA0300704741EA31
:100B40000000704701F0F00200F0F00301F00F0127
:100B500000F00F008142A8BF01469A42D4BF41EA8B
:100B6000020041EA0300704701EA000070475200AA
:100B70000729D2B202D90839C9B201E00132D2B292
:100B8000835C802252FA01F10B420CBF002001204D
:100B900070470000F8B50E460E4901F039FB0A21F6
:100BA0004FF48072FFF79AFF0B49074601F030FBC4
:100BB000002405463846FFF784FF0A2130534FF4DE
:100BC00080723846FFF78AFF0234A8420746F1D305
:100BD000F8BD00BF482A00004F2A00002DE9F0416F
:100BE0000D461C4914461F4601F012FB20214FF40C
:100BF0008072069EFFF772FF804615B101F044F83F
:100C00002870404620214FF48072FFF767FF0546A9
:100C100014B101F039F82070284620214FF4807279
:100C2000FFF75CFF044617B101F02EF8387020463C
:100C300020214FF48072FFF751FF044616B101F0F6
:100C400023F8307020460A214FF48072BDE8F0414D
:100C5000FFF744BF572A00002DE9F0478446CCB087
:100C60000E462348614602AD17469946FFF700FC41
:100C70004AAB1F4829464FF48072FFF79EFC4A9BFF
:100C8000B3F5807F30D100244BAA0DF5977128462B
:100C9000033223460094FFF7A1FF42A9FFF77AFF32
:100CA0001AE02A46214642A8FFF761FF98F800A003
:100CB000002814BF394600214A465046FFF720FF5E
:100CC000013508F8010BEDB29DF92F216BB29A4264
:100CD000E7DC0134E4B210369DF92E2163B29A426A
:100CE00002DDB0460025EFE74CB0BDE8F08700BF5D
:100CF000749EFF1F10B5034686B0C100C91A01AC2F
:100D00000648FFF7B5FB2146062205AB0348FFF76F
:100D100054FC2046FFF7C8FE06B010BD509CFF1FD4
:100D20000A2810B5044603D10D2000F011FD01E0A2
:100D30000D2804D02046BDE8104000F009BD10BDCC
:100D400038B50546002401E0FFF7EAFF285D0134CD
:100D50000028F9D138BD0FB4F0B587B00CAB53F80B
:100D6000045B0593A7E0013525284CD12B4613F8E9
:100D7000010B302801D0002602E0687801330126FB
:100D8000002705E00A2202FB070713F8010C303F99
:100D9000A0F13002D2B21D460133092AF2D96C28E3
:100DA00001D04C2803D115F8010B46F002060028AB
:100DB00000F0858060288ABFA0F120030346DBB2E3
:100DC0004F2B0ED006D8432B16D0442B0BD0422BE2
:100DD00019D11BE0552B06D0582B12D0532B12D112
:100DE00003E0082113E00A2111E0059B1A1D186891
:100DF0000592FFF7A5FF5EE0059B1A1D0592187886
:100E000001E0102103E0FFF78BFF54E0022116F010
:100E1000020F06D0059A141D442B0594126810D1B8
:100E20000AE0442B059B03D11A1D05921A6803E0C2
:100E30001A1D05921A6804E0002A02DA524246F0AE
:100E400004060024B2FBF1FC01FB1C22D3B2092BE7
:100E5000624607D978280CBF4FF0270E4FF0070ED7
:100E60007344DBB230330DF1040E0EF8043001345C
:100E7000BCF1000F01D0102CE4D116F0040F0FD0FC
:100E800006AA13192D2203F8142C013408E006F0E9
:100E90000100002814BF30202020FFF741FF013F50
:100EA000BC42F4D301AE3619013C16F8010DFFF730
:100EB00037FF002CF8D1287800287FF454AF07B012
:100EC000BDE8F04004B0704710B500F021FC00F020
:100ED0004BFCBDE8104000F069BC037813F0800FB4
:100EE0002CD013F0200F21D013F0100F417882780E
:100EF00011D090F803C003F0070301F03F0141EA6D
:100F0000831302F03F0242EA83120CF03F0C4CEADA
:100F1000821080B2704703F00F0001F03F0141EAF8
:100F2000801002F03F0242EA80107047407803F0E0
:100F30001F0300F03F0040EA8310704718467047D7
:100F40000D2810B501D00A2803D1174B00221A70C2
:100F50005A60154B1A78AAB910F0800F10D010F013
:100F6000200F06D010F0100F01D0033202E0022251
:100F700000E001221A700C4B012218725A600AE03C
:100F80001A7010BD5968013ACC18D2B201312072E2
:100F900059601A700AB1002010BD03F108005A60B0
:100FA000BDE81040FFF799BF209AFF1F084B094882
:100FB0001A685B68D31A03EA0000002805DA0138D2
:100FC0006FEA00606FEA1060013080B2704700BFC6
:100FD000309AFF1FFF00008008B5FFF7E7FF0346C8
:100FE00088B10A494A68501C01EB4203084A1B8930
:100FF00000EA0202002A05DA013A6FEA02626FEAA9
:10100000126201324A6018B208BD00BF309AFF1F59
:10101000FF000080054A136852689342ACBF4FF44A
:1010200080710021D31A581880B27047309AFF1F80
:1010300010B50446FFF7EEFF88B1094A136802EBCA
:1010400043010C81591C074B01EA0303002B05DA0D
:10105000013B6FEA03636FEA13630133136010BD52
:10106000309AFF1FFF00008080B200F03BBB000001
:10107000234A70B50021120C4FF48043012000F088
:101080004BFA204D204C287000F02CFA002301214F
:10109000FF22207000F004FA46F24C420021207832
:1010A00000F011FA2178287800F0CEF90121287893
:1010B00000F08CF94FF4804200201346014600F006
:1010C00067FA124D124E287000F00CFA0423022128
:1010D000FF22307000F0E4F922783078D20002F577
:1010E000F042043246F61C0100F0EDF93178287820
:1010F00000F0AAF928780121BDE8704000F066B937
:101100001082FF1FECA2FF1FF0A2FF1FEDA2FF1F26
:10111000F4A2FF1F10B5FFF7ABFF00F01BFABDE80C
:10112000104000F0D9BA002209E00021C154013377
:10113000102BFAD1013292B21030C02A01D0002314
:10114000F3E77047284A08B513680C21B3FBF1F0A8
:1011500001FB1031052925490AD80620B3FBF0FC14
:1011600000FB1C30526802EB001001EB00100BE09A
:1011700001F5406C0621B3FBF1F001FB103352681E
:1011800002EB03100CEB0010FFF76EFF164B5A68D2
:1011900001320F2A5A6004D900225A601A680132BB
:1011A0001A60114B0C221968B1FBF2F002FB10120D
:1011B00022B95B6813B90E48FFF7B5FF0A4B0C2242
:1011C0001968B1FBF2F002FB1012062A04D15B6829
:1011D00013B90648FFF7A7FF034B1A689968063250
:1011E000914238BF9A6008BD389CFF1F1082FF1FD4
:1011F000108EFF1F10B5114CFFF766FE00F040FA8D
:10120000002000F0EFF92046FFF78DFF04F5406065
:10121000FFF789FFFFF77EFF2046FFF725FF62B645
:10122000074800F0EBFA074800F010FB4FF0FF33DF
:10123000E370054B00229A601A6010BD1082FF1FF8
:1012400045110000F9120000389CFF1F73B5FFF72D
:10125000D1FF002309E003EB02100132602A01F8FC
:10126000100BF8D10133102B03D01F490022C918ED
:10127000F1E71E4C2268A3680C329A422DD9FFF781
:1012800095FE50B3FFF7A8FE85B229461848FFF730
:1012900062FD2846FFF72EFDA3680C25B3FBF5F190
:1012A00005FB1131104E019006EB01210198FF2240
:1012B0000123FFF7D1FCA36806F540660633B3FBB4
:1012C000F5F205FB12350198012306EB0521FF22FB
:1012D000FFF7C2FCA3680133A360044B05481968FB
:1012E0009A68FFF738FDC4E71082FF1F389CFF1F84
:1012F0005B2A00005F2A000010B5012000F0B4FA5C
:1013000007E000F017FAFFF71BFE10B100B2FFF77D
:101310008FFE00F015FA10F02000F2D1BDE8104069
:1013200000F0A2BA054B1C7844F001041C70044B79
:101330001A78D2B2034B1A70FEF7C2FEE84600409C
:10134000F8460040BC7600400E4A0F4B10B51A60BC
:1013500008331A6842F400721A6000230B490C4AE1
:101360005958D1500433C02BF8D10A4B19780A4B85
:1013700019700A4B1A6000F0BBFABDE8104000F08B
:101380000FB800BF0004FA050CED00E000000000FB
:101390000080FF1FBC760040F5A2FF1F08ED00E0B3
:1013A000074A7F236FF07F0113705170054A013B9C
:1013B000DBB202F80839002BF9D1034A13707047E9
:1013C000489CFF1FF87B004000780040172801D997
:1013D00001207047064B0001C25C002914BF212187
:1013E000012102F0DF021143C1540020704700BF09
:1013F00010700040172801D901207047054B0001EB
:10140000C25C01F0070102F0F10242EA4101C1545D
:10141000002070471070004041F6FF73994208BFEA
:101420004FF400519A4208BF4FF40052172801D9D7
:1014300001207047C00000F1804000F5EC40818041
:10144000C280002070470000172801D90120704792
:10145000024B0001C3185972002070471070004001
:1014600030B517289DF80C509DF810C001D9012007
:1014700030BDC00001F07F0103F00F0300F1804494
:1014800041EAC21243EA051304F5EC44D2B2DBB2DE
:101490002270002063700CF00F03A370E07030BD69
:1014A00010F0800F10B50CD111F4704C09D1C000B0
:1014B00000F1804404F5F04421806046A270E3709E
:1014C00010BD012010BD10F0800F01D00120704729
:1014D000C00000F1804000F5F0408180C280002013
:1014E0007047000010B500F0B7FB0A4B5A78182A75
:1014F00001D8FF2409E01C78013A5A70E20002F199
:10150000804202F5F04212781A7000F0A9FB2046E2
:1015100010BD00BF489CFF1FF7B58C4686460C4C9B
:101520000125714617461E46624600232846009351
:1015300001932570FFF794FF394632462078FFF774
:101540006BFF20782946FFF755FF2078FEBD00BFCE
:101550000581FF1F10B500F07FFB0C4B1A7842F09D
:1015600020021A700A3B1A7842F020021A700433E3
:101570001A7842F020021A70013B1A7842F02002D9
:101580001A70BDE8104000F06BBB00BF9D640040C6
:1015900073B58C4686460B4C0020714616461D4698
:1015A00062460346207000900190FFF759FF3146D4
:1015B0002A462078FFF730FF20780221FFF71AFF34
:1015C00020787CBD0681FF1F024B1A7842F0800212
:1015D0001A70704777650040014B1870704700BF64
:1015E00086650040014B1880704700BF05650040CC
:1015F000014B1880704700BF25650040014B1880E3
:10160000704700BF3565004001E0044B1B88044B68
:101610001B7813F0400FF8D1704700BF45650040BC
:101620006665004010B5134B1A7802F0F80242F0DC
:1016300001021A701A7802F0E7021A70FFF7E4FF4D
:101640000120FFF7D5FF0120FFF7CCFF0020FFF7B7
:10165000C3FF094B01201B78FFF7D0FF00F0FCFA15
:10166000064B1A7842F010021A70BDE8104000F0E4
:10167000F7BA00BF77650040666500409665004098
:1016800010B5054C23781BB9FFF7CCFF012323705D
:10169000BDE81040FFF798BF4A9CFF1F034B1B7823
:1016A00013F0040FFAD0024B187070476C640040BE
:1016B0004B640040014B1878704700BF5B640040EA
:1016C000034B044A1B78107803F0EF03184370476C
:1016D0006C64004060640040014B60221A707047E7
:1016E00020640040034B020A1A70C0B2013B18701C
:1016F000704700BF1F640040044B00F001001A78DF
:1017000002F0FE0240EA02021A70704730510040B7
:10171000064B20221A70193A613B1A70413210337D
:101720001A70034B483A1A70704700BF8264004039
:1017300084650040014B1878704700BF4664004044
:10174000024B187800F07F00704700BF62640040D1
:10175000034B1B7813F0040FFAD1024B187070473B
:10176000646500404465004010B500F075FA0C4B0C
:101770001A7842F020021A70033B1A7842F01002E5
:101780001A70084B1A7842F010021A70064B1A7839
:1017900042F008021A70BDE8104000F061BA00BFC4
:1017A0009564004094650040A243004010B5054C8C
:1017B00023781BB9FFF7ACFF01232370BDE810406D
:1017C000FFF7D2BF4B9CFF1F014B1B68986470470B
:1017D00008ED00E04001024BC0B21870704700BF36
:1017E00002E400E0014B04221A60704700E100E0CF
:1017F000014B04221A60704780E100E010B50446F6
:10180000FFF7F6FF2046FFF7DFFF0720FFF7E2FFB5
:10181000BDE81040FFF7E6BF014B1B681864704736
:1018200008ED00E04001024BC0B21870704700BFE5
:1018300000E400E0014B01221A60704700E100E083
:10184000014B01221A60704780E100E010B50446A8
:10185000FFF7F6FF2046FFF7DFFF0720FFF7E2FF65
:10186000BDE81040FFF7E6BF044B00F001001A7816
:1018700002F0FE0240EA02021A7070470051004076
:1018800003E0002300F8013B01390029F9D170473A
:101890000D4B4FF444721A800C4A1E23137004320D
:1018A00013700432137004321370094B6FF03F024F
:1018B00008491A700C230B7005310A70064A137020
:1018C000064B44221A707047AA430040205800403B
:1018D00000590040035900400B5900407658004021
:1018E000002302E0CA5C1A540133072BFAD1704777
:1018F00073B572B69A4B00241C709A489A4900F04E
:10190000B3F99A489A4900F0AFF99A489A4900F019
:10191000ABF99A489A4900F0A7F99A489A4900F019
:10192000A3F99A489A4900F09FF99A489A4900F019
:101930009BF99A4B02229A4E1A7008233370994BE6
:1019400019251D700532023B1A70974800F07CF98A
:10195000964B40F615521A8009233370944B41F28E
:1019600051021A808DF80740009511E0914B9DF8C7
:1019700007201B78782003F0010343EA420303F0B9
:1019800003038DF8073000F05FF9009B013B0093E3
:10199000009B1BB19DF80730032BE7D1864A032338
:1019A0001370864B01217E4819704FF0490C0023BB
:1019B000137080F800C08248ACF1290C80F800C098
:1019C000072010707F480CF1280C0370023080F85B
:1019D00000C013700220033A10707B4A7B4C1078D1
:1019E00004F13C0540F07F0010705D4A6FF03F004D
:1019F0001070774A137010321370764B1970764B53
:101A00001A780A431A7060782178237941EA002114
:101A1000A078627941EA0041E07843EA022241EA93
:101A200000600634002100F0FBF9AC42EBD1674CBA
:101A3000216CB4F84420E06B00F02AF9B4F8462099
:101A4000B4F84800B4F84A30B4F84C1042EA004008
:101A500043EA0141B4F84E2000F01AF94FF09042E9
:101A6000002110684B005FFA80FC03F1904320F0E6
:101A7000FF048C330CF1010E002004E013F8025C2B
:101A800013F8016C2E55013002337045F6D1534BDB
:101A900004329A426144E4D151485249FFF720FF91
:101AA00051485249FFF71CFF51480721FFF7E8FE54
:101AB00050485149FFF714FF50480721FFF7E0FE57
:101AC0004F480721FFF7DCFE4E480721FFF7D8FEFD
:101AD0004D480621FFF7D4FE4C480721FFF7D0FE02
:101AE000002104224A4800F09BF9002104224948C1
:101AF00000F096F9484B494D1A78494942F00202E4
:101B00001A7010331A78474842F002021A702B7884
:101B1000454C43F040032B70444B1A7842F01002BE
:101B20001A70082200F0B4F841490822414800F038
:101B3000AFF841490822414800F0AAF840490A227A
:101B4000404800F0A5F8FFF7A3FE204629460C22E6
:101B500000F09EF8237803F0FD0323707CBD00BFE6
:101B600000480040804000400500190084400040CB
:101B70000900180088400040170019008C40004000
:101B8000D401180090400040BF5D1900944000400F
:101B900013001B0098400040E7031B000043004077
:101BA0000040004012420040C0CD170022420040D9
:101BB00020420040254200400440004005400040D3
:101BC0000042004006400040A2430040702A00004E
:101BD000107000407C580040E84600408C000048EF
:101BE000005200407C0C004808520040840C004821
:101BF00010520040185200408C0C00482052004007
:101C0000285200403052004060520040785200405C
:101C1000007600400876004003500140A043004099
:101C2000580C004802510040B0430040C2430040FD
:101C3000600C004812510040680C004832510040CE
:101C4000700C0048505100400230800803D000BFA3
:101C500001380046FCD17047EFF3108072B6704730
:101C600080F31088704700BFCAB2034603F8012B07
:101C70000A0A090CD2B2C9B242705970704700000A
:101C800000220A2300F0DABB00210A2200F076BC11
:101C9000032A2DE9F0070BD83AB1002311F803C04D
:101CA00000F803C001339342F8D1BDE8F007704754
:101CB00082180C46034603E014F8011C03F8011CCB
:101CC00003F003061946A44601330134002EF3D174
:101CD0001CF00304634608BFC1EB020C68D06542E8
:101CE000C4F1040A0CEB050733464FEACA0A5CF854
:101CF00005604FEAC408551A08E057F8044F264615
:101D000004FA0AF449EA0404CC5004335C18032DA5
:101D100026FA08F9A5F104050CEB0306EDDC002317
:101D200002E0F15CE154013319199142F9D3BCE7A7
:101D300053F8404C41F8404C53F83C4C41F83C4C73
:101D400053F8384C41F8384C53F8344C41F8344C83
:101D500053F8304C41F8304C53F82C4C41F82C4C93
:101D600053F8284C41F8284C53F8244C41F8244CA3
:101D700053F8204C41F8204C53F81C4C41F81C4CB3
:101D800053F8184C41F8184C53F8144C41F8144CC3
:101D900053F8104C41F8104C53F80C4C41F80C4CD3
:101DA00053F8084C41F8084C53F8044C41F8044CE3
:101DB0001C460D4640334031BCF13F0FACF1400CA6
:101DC000B6DC21462B46541B0FE051F8105C43F85B
:101DD000105C51F80C5C43F80C5C51F8085C43F85B
:101DE000085C51F8045C43F8045C0F2C0D469C46DB
:101DF00001F1100103F11003A4F11004E5DCCCEBB8
:101E00000201002303E0EC584CF8034004335E1950
:101E1000032903EB0C04A1F10401F4DC7FE700BF0C
:101E2000032AC9B230B407D822B10023C154013308
:101E30009342FBD130BC704700EB020C034601E03B
:101E400003F8011C03F003041A460133002CF7D1F8
:101E50004FF00133C2EB0C0403FB01F31FE042F827
:101E6000403C42F83C3C42F8383C42F8343C42F8B2
:101E7000303C42F82C3C42F8283C42F8243C42F8E2
:101E8000203C42F81C3C42F8183C42F8143C42F812
:101E9000103C42F80C3C42F8083C42F8043C154621
:101EA00040323F2CA4F14004D9DC2A46C5EB0C0497
:101EB00007E042F8103C42F80C3C42F8083C42F87B
:101EC000043C154610320F2CA4F11004F1DC2A4614
:101ED000C5EB0C0501E042F8043C14460432032D26
:101EE000A5F10405F7DC01E004F8011B6445FBD310
:101EF000A0E700BF01232DE9F0071C4600254FF0A5
:101F0000FF3604EB050CA7198C450DD23F5C10F889
:101F10000C80B8452FD2C6EB0C030124654604EBB8
:101F2000050CA7198C45F1D34FF0010A0025544642
:101F30004FF0FF3704EB050C1360614504EB070815
:101F40000FD918F8008010F80C90C14524D9C7EBC0
:101F50000C0A0124654604EB050C04EB07086145F7
:101F6000EFD80137701C874224BF534638461360B0
:101F7000BDE8F007704706D001232E4605EB030CA1
:101F80001C466546CBE79C4204F1010418BFAC46F1
:101F9000C4D101246546C2E707D04FF0010A2F469D
:101FA00005EB0A0C54466546D5E7544504F1010497
:101FB00018BFAC46CED101246546CCE72DE9F04FE1
:101FC000ADF5846D81B006461046894603920DF545
:101FD000826219460C321C46FFF78CFF002307AAC9
:101FE0008046D4500433B3F5806FFAD164B1DDF884
:101FF0000CC0621E002307A81CF80310013340F830
:102000002120013A9C42F7D803984246DDF81C147F
:10201000411800F0F9FA0546002840F08B80029440
:102020008246029BC8F101020399671E05920AEBE2
:1020300003044A4608F1FF30414401900491B0186E
:102040000021A21ADDF80CB000F0A4FA0346002823
:1020500059D1002C57D0A21907A812F8012C50F81A
:102060002220002A5BD145452CBF2B464346BB426C
:1020700013D203EB0A001BF803C032180BEB030169
:10208000305C844506D044E011F801CF12F8010F0E
:1020900084453ED10133BB42F6D3454580F0B08044
:1020A0000199019B01EB0A021BF80110925D91421C
:1020B00040F0A6800AEB08020499B218A14608E095
:1020C00011F8024C013912F802CC013A644504D1EE
:1020D00003469D4203F1FF30F2D301354C469D4249
:1020E00000F29380DDF81C54029AAA44551B224644
:1020F000029BB01800210AEB0304A21A00F04AFA6E
:1021000003460028A5D0002009B00DF5806DBDE87C
:10211000F08F0599002522468A449A44E8E735B1B4
:10212000DDF81C148A4202D202981D46421A9244DB
:102130002246DDE70398C8EB04034A460027651EE4
:1021400008F1FF3A00EB080BA146434538BF434670
:10215000C8F1010101330191CDF81C3407EB0904EA
:10216000B0180021A21A00F015FA0028CBD1002CDB
:10217000C9D0A31907AA13F8013C52F82330002B49
:1021800035D1A84514D207EB08039BF80020F118BD
:10219000F35C9A4204BF5A46434606D02AE012F83E
:1021A00001CF11F8010F844525D10133AB42F6D39D
:1021B000BAF1FF3F534616D003980AEB0702925D2F
:1021C00010F80A10914210D107EB08025946B218D4
:1021D00007E011F802CC013912F8020C013A8445EB
:1021E00003D1013BF5D2F0198EE7DDF81C34FF185E
:1021F0002246B3E74346019AD7192246FF18ADE7B6
:10220000434601359D427FF66DAF06EB0A007BE742
:102210002DE9F04F037887B006460D46002B00F0FD
:1022200004810A7892B101462C46012001E022780F
:1022300082B1934214BF002000F001004B780134BA
:102240000131002BF3D1237823B10026304607B0AB
:10225000BDE8F08F0028F9D1701C297800F006FA4B
:10226000641B012C14BF00230123002808BF43F086
:10227000010307467BB93619B0428CBF4FF0010A03
:10228000C0EB060A1F2C08D951462A462346FFF701
:1022900095FE0646DAE70646D8E7214605AA28460F
:1022A000FFF728FE0599691880462846424600F047
:1022B000ABF90646002858D108F1FF3205EB0803B8
:1022C0000192C346C8F1010281460392A8465246D4
:1022D000029309EB0405B8180021AA1A00F05AF974
:1022E0000028B2D1002DB0D05E452CBF33465B46EE
:1022F0009C4213D903EB090018F803C03A1808EB05
:102300000301385C844506D085E011F801CF12F84E
:10231000010F84457FD101339C42F6D8B34540F28A
:102320008780019B03EB090218F80310D25D9142EC
:102330007ED109EB0B020299BA18AA4608E011F8FF
:10234000025C013912F802CC013A654504D103461A
:102350009E4203F1FF30F2D3554601369E4269D8C2
:10236000059E2A46B144A61BB3E7C8F10102C8EB9B
:10237000040301920026524605EB080908F1FF3BD1
:10238000AA46434538BF4346013305933519B8186B
:102390000021AA1A00F0FEF800287FF456AF002DA5
:1023A0003FF453AF444515D906EB080399F80020D4
:1023B000F918FB5C9A4212BF43464A46434606D090
:1023C00024E012F801CF11F8010F84451ED101332A
:1023D0009C42F6D8BBF1FF3F5B4615D006EB0B02E3
:1023E0001AF80B10D25D91421BD106EB0802494648
:1023F000BA1807E011F802CC013912F8020C013AC0
:1024000084450ED1013BF5D2BE191FE7019A9619FA
:102410002A46F618BAE7039A002691442A469944B8
:1024200057E7059B2A46F618B0E70C4601200AE755
:102430005B4692E707EB090608E700BF2DE9F04F7E
:1024400048F20C15C1F6FF7583B00C461F46D5F84F
:1024500000800E460190009216F8015B08EB050320
:1024600093F801B01BF0080BF6D12D2D65D02B2D64
:1024700008BF16F8015BD7F1010338BF0023102F06
:1024800014BF1A4643F0010232B1302D66D01BB1A1
:10249000302D0CBF08270A27BBF1000F394614BFA7
:1024A0004FF000496FF00049484600F06FFA484687
:1024B0008A46394600F03CF900218C4608EB0502BB
:1024C000A5F13003527812F0040F08D112F0030F77
:1024D00020D012F0010F14BF37235723EB1A9F426D
:1024E00018DD844594BF0022012252EAD1714FF0D9
:1024F000FF310CD1844514BF002201225345D4BFC3
:10250000002202F0010212B907FB0C3C012116F86F
:10251000015BD3E7B1F1FF3F14D0BBF1000F09D14C
:102520006046009B1BB101B1741E009A146003B099
:10253000BDE8F08FCCF10000F3E716F8015B4FF037
:10254000010B98E7019ABBF1000F4FF0220314BF73
:102550004FF000406FF000401360E2E73278782AD5
:1025600014BF00210121582A14BF0A4641F001027C
:10257000002A8CD07578102702368DE710B448F207
:102580001014C1F6FF748C4613460146624620685B
:1025900010BC53E710F0030FC9B210B410D0002ADA
:1025A0002FD003788B422AD0013A05E0002A28D0A8
:1025B0000378013A8B4222D0013010F0030FF5D19D
:1025C000032A11D941EA012444EA0444036884EA55
:1025D0000303A3F1013C2CEA030313F0803F03D172
:1025E000043A0430032AF1D85AB103788B4206D05A
:1025F000013A32B110F8013F013A8B42F9D110BCD7
:1026000070470020FBE700BF032A30B405460C46A4
:1026100025D941EA000313F0030F15D0287894F868
:1026200000C060451ED1013A002306E04078013326
:1026300091F801C0013A604514D1E818E118002A68
:10264000F4D1002030BC704704680B689C4204D170
:10265000043A04300431032AF6D805460C46002A11
:10266000DCD1EEE7CCEB0000ECE700BFC9B230B440
:1026700019B124E00378D3B1013010F0030FF9D180
:102680000368A3F1013222EA030313F0803F08D16B
:1026900050F8043FA3F1013222EA030313F0803F14
:1026A000F6D003781BB110F8013F002BFBD130BCF2
:1026B00070470378002B36D09942F8D0013010F0E3
:1026C000030FF6D1036841EA0125A3F1013245EA7F
:1026D000054522EA030212F0803F1BD185EA03037D
:1026E000A3F1013222EA030313F0803F03D011E08B
:1026F00012F0803F0ED150F8043FA3F1013485EA77
:10270000030224EA0303A2F1013C13F0803F2CEA08
:102710000202EDD003781BB905E010F8013F13B1B8
:102720009942FAD1C3E70020C1E700BF00000000D2
:102730004A1E08BF7047C0F02481884240F21681CB
:10274000114200F01781B0FA80F3B1FA81F2A2EBE6
:102750000303C3F11F0304A202EB03134FF00002B3
:102760009F4600BFAFF30080B0EBC17F00BF42EBDC
:10277000020228BFA0EBC170B0EB817F00BF42EB2B
:10278000020228BFA0EB8170B0EB417F00BF42EB9B
:10279000020228BFA0EB4170B0EB017F00BF42EB0B
:1027A000020228BFA0EB0170B0EBC16F00BF42EB8B
:1027B000020228BFA0EBC160B0EB816F00BF42EB0B
:1027C000020228BFA0EB8160B0EB416F00BF42EB7B
:1027D000020228BFA0EB4160B0EB016F00BF42EBEB
:1027E000020228BFA0EB0160B0EBC15F00BF42EB6B
:1027F000020228BFA0EBC150B0EB815F00BF42EBEB
:10280000020228BFA0EB8150B0EB415F00BF42EB5A
:10281000020228BFA0EB4150B0EB015F00BF42EBCA
:10282000020228BFA0EB0150B0EBC14F00BF42EB4A
:10283000020228BFA0EBC140B0EB814F00BF42EBCA
:10284000020228BFA0EB8140B0EB414F00BF42EB3A
:10285000020228BFA0EB4140B0EB014F00BF42EBAA
:10286000020228BFA0EB0140B0EBC13F00BF42EB2A
:10287000020228BFA0EBC130B0EB813F00BF42EBAA
:10288000020228BFA0EB8130B0EB413F00BF42EB1A
:10289000020228BFA0EB4130B0EB013F00BF42EB8A
:1028A000020228BFA0EB0130B0EBC12F00BF42EB0A
:1028B000020228BFA0EBC120B0EB812F00BF42EB8A
:1028C000020228BFA0EB8120B0EB412F00BF42EBFA
:1028D000020228BFA0EB4120B0EB012F00BF42EB6A
:1028E000020228BFA0EB0120B0EBC11F00BF42EBEA
:1028F000020228BFA0EBC110B0EB811F00BF42EB6A
:10290000020228BFA0EB8110B0EB411F00BF42EBD9
:10291000020228BFA0EB4110B0EB011F00BF42EB49
:10292000020228BFA0EB0110B0EBC10F00BF42EBC9
:10293000020228BFA0EBC100B0EB810F00BF42EB49
:10294000020228BFA0EB8100B0EB410F00BF42EBB9
:10295000020228BFA0EB4100B0EB010F00BF42EB29
:10296000020228BFA0EB0100104670470CBF0120F7
:1029700000207047B1FA81F2C2F11F0220FA02F082
:10298000704708B14FF0FF3000F00EB80029F8D0C2
:102990002DE90340FFF7CCFEBDE8064002FB00F343
:1029A000A1EB0301704700BF704700BF08B500F0FE
:1029B00017F8074800B10068064901B1096800220C
:1029C000FEF744FC044B0BB1AFF30080FEE700BF01
:1029D000000000000000000000000000FEE7000012
:1029E00070B542F6D43642F6D435C0F20006C0F2D5
:1029F0000005761BB61006D0002455F824300134AB
:102A00009847A642F9D842F6D43542F6DC36C0F2F1
:102A10000005C0F20006761B00F0D6F8B61006D00E
:102A2000002455F8243001349847A642F9D870BDE7
:102A30000001020304050607080900000000000069
:102A4000000A0B0C0D0E0F004249544D4150004539
:102A50004E4443484152004242580025780A0072D1
:102A60003A2025642C20773A2025640A00000000D3
:102A700020510040100040510040100060510040C3
:102A80001000C05100401000F05100401000000044
:102A90000140800A000B01400005001401400008BD
:102AA00000400140000A004C01400002800A014041
:102AB000C80B0048800000500140480C004810003E
:102AC00000202020202020202020282828282820FE
:102AD00020202020202020202020202020202020F6
:102AE000208810101010101010101010101010105E
:102AF000100404040404040404040410101010104E
:102B00001010414141414141010101010101010117
:102B10000101010101010101010101011010101069
:102B200010104242424242420202020202020202E9
:102B3000020202020202020202020202101010103D
:102B40002000000000000000000000000000000065
:102B50000000000000000000000000000000000075
:102B60000000000000000000000000000000000065
:102B70000000000000000000000000000000000055
:102B80000000000000000000000000000000000045
:102B90000000000000000000000000000000000035
:102BA0000000000000000000000000000000000025
:102BB0000000000000000000000000000000000015
:102BC0000000000043000000F8B500BFF8BC08BCDE
:102BD0009E4670473101000049130000F8B500BF60
:102BE000F8BC08BC9E4670471D01000000000000B4
:102BF000002C00000080FF1F08020000F0200000F1
:102C000000000000000000000000000000000000C4
:102C100000000000000000000000000000000000B4
:102C200000000000000000000000000000000000A4
:102C30000000000000000000000000000000000094
:102C40000000000000000000000000000000000084
:102C50000000000000000000000000000000000074
:102C60000000000000000000000000000000000064
:102C70000000000000000000000000000000000054
:102C80000000000000000000000000000000000044
:102C90000000000000000000000000000000000034
:102CA0000000000000000000000000000000000024
:102CB0000000000000000000000000000000000014
:102CC0000000000000000000000000000000000004
:102CD00000000000000000000000000000000000F4
:102CE00000000000000000000000000000000000E4
:102CF00000000000000000000000000000000000D4
:102D00000000000001FFFF00C12A0000C02A0000EF
:102D10001481FF1F00000000000000000000000000
:102D200000000000000000000000000000000000A3
:102D300000000000C42B00000000000000000000A4
:102D40000000000000000000000000000000000083
:102D50000000000000000000000000000000000073
:102D60000000000000000000000000000000000063
:102D70000000000000000000000000000000000053
:0400000300001325C1
:00000001FF
