ARM GAS  C:\Users\SUZUKI~1\AppData\Local\Temp\cce2ZMta.s 			page 1


   1              		.syntax unified
   2              		.cpu cortex-m3
   3              		.fpu softvfp
   4              		.eabi_attribute 20, 1
   5              		.eabi_attribute 21, 1
   6              		.eabi_attribute 23, 3
   7              		.eabi_attribute 24, 1
   8              		.eabi_attribute 25, 1
   9              		.eabi_attribute 26, 1
  10              		.eabi_attribute 30, 2
  11              		.eabi_attribute 18, 4
  12              		.thumb
  13              		.file	"Counter_ADC.c"
  14              		.section	.debug_abbrev,"",%progbits
  15              	.Ldebug_abbrev0:
  16              		.section	.debug_info,"",%progbits
  17              	.Ldebug_info0:
  18              		.section	.debug_line,"",%progbits
  19              	.Ldebug_line0:
  20 0000 87020000 		.text
  20      02006400 
  20      00000201 
  20      FB0E0D00 
  20      01010101 
  21              	.Ltext0:
  22              		.cfi_sections	.debug_frame
  23              		.section	.text.Counter_ADC_Enable,"ax",%progbits
  24              		.align	2
  25              		.global	Counter_ADC_Enable
  26              		.thumb
  27              		.thumb_func
  28              		.type	Counter_ADC_Enable, %function
  29              	Counter_ADC_Enable:
  30              	.LFB1:
  31              		.file 1 ".\\Generated_Source\\PSoC5\\Counter_ADC.c"
   1:.\Generated_Source\PSoC5/Counter_ADC.c **** /*******************************************************************************
   2:.\Generated_Source\PSoC5/Counter_ADC.c **** * File Name: Counter_ADC.c  
   3:.\Generated_Source\PSoC5/Counter_ADC.c **** * Version 2.20
   4:.\Generated_Source\PSoC5/Counter_ADC.c **** *
   5:.\Generated_Source\PSoC5/Counter_ADC.c **** *  Description:
   6:.\Generated_Source\PSoC5/Counter_ADC.c **** *     The Counter component consists of a 8, 16, 24 or 32-bit counter with
   7:.\Generated_Source\PSoC5/Counter_ADC.c **** *     a selectable period between 2 and 2^Width - 1.  
   8:.\Generated_Source\PSoC5/Counter_ADC.c **** *
   9:.\Generated_Source\PSoC5/Counter_ADC.c **** *   Note:
  10:.\Generated_Source\PSoC5/Counter_ADC.c **** *     None
  11:.\Generated_Source\PSoC5/Counter_ADC.c **** *
  12:.\Generated_Source\PSoC5/Counter_ADC.c **** *******************************************************************************
  13:.\Generated_Source\PSoC5/Counter_ADC.c **** * Copyright 2008-2012, Cypress Semiconductor Corporation.  All rights reserved.
  14:.\Generated_Source\PSoC5/Counter_ADC.c **** * You may use this file only in accordance with the license, terms, conditions, 
  15:.\Generated_Source\PSoC5/Counter_ADC.c **** * disclaimers, and limitations in the end user license agreement accompanying 
  16:.\Generated_Source\PSoC5/Counter_ADC.c **** * the software package with which this file was provided.
  17:.\Generated_Source\PSoC5/Counter_ADC.c **** ********************************************************************************/
  18:.\Generated_Source\PSoC5/Counter_ADC.c **** 
  19:.\Generated_Source\PSoC5/Counter_ADC.c **** #include "Counter_ADC.h"
  20:.\Generated_Source\PSoC5/Counter_ADC.c **** 
  21:.\Generated_Source\PSoC5/Counter_ADC.c **** uint8 Counter_ADC_initVar = 0u;
  22:.\Generated_Source\PSoC5/Counter_ADC.c **** 
ARM GAS  C:\Users\SUZUKI~1\AppData\Local\Temp\cce2ZMta.s 			page 2


  23:.\Generated_Source\PSoC5/Counter_ADC.c **** 
  24:.\Generated_Source\PSoC5/Counter_ADC.c **** /*******************************************************************************
  25:.\Generated_Source\PSoC5/Counter_ADC.c **** * Function Name: Counter_ADC_Init
  26:.\Generated_Source\PSoC5/Counter_ADC.c **** ********************************************************************************
  27:.\Generated_Source\PSoC5/Counter_ADC.c **** * Summary:
  28:.\Generated_Source\PSoC5/Counter_ADC.c **** *     Initialize to the schematic state
  29:.\Generated_Source\PSoC5/Counter_ADC.c **** * 
  30:.\Generated_Source\PSoC5/Counter_ADC.c **** * Parameters:  
  31:.\Generated_Source\PSoC5/Counter_ADC.c **** *  void  
  32:.\Generated_Source\PSoC5/Counter_ADC.c **** *
  33:.\Generated_Source\PSoC5/Counter_ADC.c **** * Return: 
  34:.\Generated_Source\PSoC5/Counter_ADC.c **** *  void
  35:.\Generated_Source\PSoC5/Counter_ADC.c **** *
  36:.\Generated_Source\PSoC5/Counter_ADC.c **** *******************************************************************************/
  37:.\Generated_Source\PSoC5/Counter_ADC.c **** void Counter_ADC_Init(void) 
  38:.\Generated_Source\PSoC5/Counter_ADC.c **** {
  39:.\Generated_Source\PSoC5/Counter_ADC.c ****         #if (!Counter_ADC_UsingFixedFunction && !Counter_ADC_ControlRegRemoved)
  40:.\Generated_Source\PSoC5/Counter_ADC.c ****             uint8 ctrl;
  41:.\Generated_Source\PSoC5/Counter_ADC.c ****         #endif /* (!Counter_ADC_UsingFixedFunction && !Counter_ADC_ControlRegRemoved) */
  42:.\Generated_Source\PSoC5/Counter_ADC.c ****         
  43:.\Generated_Source\PSoC5/Counter_ADC.c ****         #if(!Counter_ADC_UsingFixedFunction) 
  44:.\Generated_Source\PSoC5/Counter_ADC.c ****             /* Interrupt State Backup for Critical Region*/
  45:.\Generated_Source\PSoC5/Counter_ADC.c ****             uint8 Counter_ADC_interruptState;
  46:.\Generated_Source\PSoC5/Counter_ADC.c ****         #endif /* (!Counter_ADC_UsingFixedFunction) */
  47:.\Generated_Source\PSoC5/Counter_ADC.c ****         
  48:.\Generated_Source\PSoC5/Counter_ADC.c ****         #if (Counter_ADC_UsingFixedFunction)
  49:.\Generated_Source\PSoC5/Counter_ADC.c ****             /* Clear all bits but the enable bit (if it's already set for Timer operation */
  50:.\Generated_Source\PSoC5/Counter_ADC.c ****             Counter_ADC_CONTROL &= Counter_ADC_CTRL_ENABLE;
  51:.\Generated_Source\PSoC5/Counter_ADC.c ****             
  52:.\Generated_Source\PSoC5/Counter_ADC.c ****             /* Clear the mode bits for continuous run mode */
  53:.\Generated_Source\PSoC5/Counter_ADC.c ****             #if (CY_PSOC5A)
  54:.\Generated_Source\PSoC5/Counter_ADC.c ****                 Counter_ADC_CONTROL2 &= ~Counter_ADC_CTRL_MODE_MASK;
  55:.\Generated_Source\PSoC5/Counter_ADC.c ****             #endif /* (CY_PSOC5A) */
  56:.\Generated_Source\PSoC5/Counter_ADC.c ****             #if (CY_PSOC3 || CY_PSOC5LP)
  57:.\Generated_Source\PSoC5/Counter_ADC.c ****                 Counter_ADC_CONTROL3 &= ~Counter_ADC_CTRL_MODE_MASK;                
  58:.\Generated_Source\PSoC5/Counter_ADC.c ****             #endif /* (CY_PSOC3 || CY_PSOC5LP) */
  59:.\Generated_Source\PSoC5/Counter_ADC.c ****             /* Check if One Shot mode is enabled i.e. RunMode !=0*/
  60:.\Generated_Source\PSoC5/Counter_ADC.c ****             #if (Counter_ADC_RunModeUsed != 0x0u)
  61:.\Generated_Source\PSoC5/Counter_ADC.c ****                 /* Set 3rd bit of Control register to enable one shot mode */
  62:.\Generated_Source\PSoC5/Counter_ADC.c ****                 Counter_ADC_CONTROL |= Counter_ADC_ONESHOT;
  63:.\Generated_Source\PSoC5/Counter_ADC.c ****             #endif /* (Counter_ADC_RunModeUsed != 0x0u) */
  64:.\Generated_Source\PSoC5/Counter_ADC.c ****             
  65:.\Generated_Source\PSoC5/Counter_ADC.c ****             /* Set the IRQ to use the status register interrupts */
  66:.\Generated_Source\PSoC5/Counter_ADC.c ****             Counter_ADC_CONTROL2 |= Counter_ADC_CTRL2_IRQ_SEL;
  67:.\Generated_Source\PSoC5/Counter_ADC.c ****             
  68:.\Generated_Source\PSoC5/Counter_ADC.c ****             /* Clear and Set SYNCTC and SYNCCMP bits of RT1 register */
  69:.\Generated_Source\PSoC5/Counter_ADC.c ****             Counter_ADC_RT1 &= ~Counter_ADC_RT1_MASK;
  70:.\Generated_Source\PSoC5/Counter_ADC.c ****             Counter_ADC_RT1 |= Counter_ADC_SYNC;     
  71:.\Generated_Source\PSoC5/Counter_ADC.c ****                     
  72:.\Generated_Source\PSoC5/Counter_ADC.c ****             /*Enable DSI Sync all all inputs of the Timer*/
  73:.\Generated_Source\PSoC5/Counter_ADC.c ****             Counter_ADC_RT1 &= ~(Counter_ADC_SYNCDSI_MASK);
  74:.\Generated_Source\PSoC5/Counter_ADC.c ****             Counter_ADC_RT1 |= Counter_ADC_SYNCDSI_EN;
  75:.\Generated_Source\PSoC5/Counter_ADC.c **** 
  76:.\Generated_Source\PSoC5/Counter_ADC.c ****         #else
  77:.\Generated_Source\PSoC5/Counter_ADC.c ****             #if(!Counter_ADC_ControlRegRemoved)
  78:.\Generated_Source\PSoC5/Counter_ADC.c ****             /* Set the default compare mode defined in the parameter */
  79:.\Generated_Source\PSoC5/Counter_ADC.c ****             ctrl = Counter_ADC_CONTROL & ~Counter_ADC_CTRL_CMPMODE_MASK;
ARM GAS  C:\Users\SUZUKI~1\AppData\Local\Temp\cce2ZMta.s 			page 3


  80:.\Generated_Source\PSoC5/Counter_ADC.c ****             Counter_ADC_CONTROL = ctrl | Counter_ADC_DEFAULT_COMPARE_MODE;
  81:.\Generated_Source\PSoC5/Counter_ADC.c ****             
  82:.\Generated_Source\PSoC5/Counter_ADC.c ****             /* Set the default capture mode defined in the parameter */
  83:.\Generated_Source\PSoC5/Counter_ADC.c ****             ctrl = Counter_ADC_CONTROL & ~Counter_ADC_CTRL_CAPMODE_MASK;
  84:.\Generated_Source\PSoC5/Counter_ADC.c ****             Counter_ADC_CONTROL = ctrl | Counter_ADC_DEFAULT_CAPTURE_MODE;
  85:.\Generated_Source\PSoC5/Counter_ADC.c ****             #endif /* (!Counter_ADC_ControlRegRemoved) */
  86:.\Generated_Source\PSoC5/Counter_ADC.c ****         #endif /* (Counter_ADC_UsingFixedFunction) */
  87:.\Generated_Source\PSoC5/Counter_ADC.c ****         
  88:.\Generated_Source\PSoC5/Counter_ADC.c ****         /* Clear all data in the FIFO's */
  89:.\Generated_Source\PSoC5/Counter_ADC.c ****         #if (!Counter_ADC_UsingFixedFunction)
  90:.\Generated_Source\PSoC5/Counter_ADC.c ****             Counter_ADC_ClearFIFO();
  91:.\Generated_Source\PSoC5/Counter_ADC.c ****         #endif /* (!Counter_ADC_UsingFixedFunction) */
  92:.\Generated_Source\PSoC5/Counter_ADC.c ****         
  93:.\Generated_Source\PSoC5/Counter_ADC.c ****         /* Set Initial values from Configuration */
  94:.\Generated_Source\PSoC5/Counter_ADC.c ****         Counter_ADC_WritePeriod(Counter_ADC_INIT_PERIOD_VALUE);
  95:.\Generated_Source\PSoC5/Counter_ADC.c ****         #if (!(Counter_ADC_UsingFixedFunction && (CY_PSOC5A)))
  96:.\Generated_Source\PSoC5/Counter_ADC.c ****             Counter_ADC_WriteCounter(Counter_ADC_INIT_COUNTER_VALUE);
  97:.\Generated_Source\PSoC5/Counter_ADC.c ****         #endif /* (!(Counter_ADC_UsingFixedFunction && (CY_PSOC5A))) */
  98:.\Generated_Source\PSoC5/Counter_ADC.c ****         Counter_ADC_SetInterruptMode(Counter_ADC_INIT_INTERRUPTS_MASK);
  99:.\Generated_Source\PSoC5/Counter_ADC.c ****         
 100:.\Generated_Source\PSoC5/Counter_ADC.c ****         #if (!Counter_ADC_UsingFixedFunction)
 101:.\Generated_Source\PSoC5/Counter_ADC.c ****             /* Read the status register to clear the unwanted interrupts */
 102:.\Generated_Source\PSoC5/Counter_ADC.c ****             Counter_ADC_ReadStatusRegister();
 103:.\Generated_Source\PSoC5/Counter_ADC.c ****             /* Set the compare value (only available to non-fixed function implementation */
 104:.\Generated_Source\PSoC5/Counter_ADC.c ****             Counter_ADC_WriteCompare(Counter_ADC_INIT_COMPARE_VALUE);
 105:.\Generated_Source\PSoC5/Counter_ADC.c ****             /* Use the interrupt output of the status register for IRQ output */
 106:.\Generated_Source\PSoC5/Counter_ADC.c ****             
 107:.\Generated_Source\PSoC5/Counter_ADC.c ****             /* CyEnterCriticalRegion and CyExitCriticalRegion are used to mark following region cri
 108:.\Generated_Source\PSoC5/Counter_ADC.c ****             /* Enter Critical Region*/
 109:.\Generated_Source\PSoC5/Counter_ADC.c ****             Counter_ADC_interruptState = CyEnterCriticalSection();
 110:.\Generated_Source\PSoC5/Counter_ADC.c ****             
 111:.\Generated_Source\PSoC5/Counter_ADC.c ****             Counter_ADC_STATUS_AUX_CTRL |= Counter_ADC_STATUS_ACTL_INT_EN_MASK;
 112:.\Generated_Source\PSoC5/Counter_ADC.c ****             
 113:.\Generated_Source\PSoC5/Counter_ADC.c ****             /* Exit Critical Region*/
 114:.\Generated_Source\PSoC5/Counter_ADC.c ****             CyExitCriticalSection(Counter_ADC_interruptState);
 115:.\Generated_Source\PSoC5/Counter_ADC.c ****             
 116:.\Generated_Source\PSoC5/Counter_ADC.c ****         #endif /* (!Counter_ADC_UsingFixedFunction) */
 117:.\Generated_Source\PSoC5/Counter_ADC.c **** }
 118:.\Generated_Source\PSoC5/Counter_ADC.c **** 
 119:.\Generated_Source\PSoC5/Counter_ADC.c **** 
 120:.\Generated_Source\PSoC5/Counter_ADC.c **** /*******************************************************************************
 121:.\Generated_Source\PSoC5/Counter_ADC.c **** * Function Name: Counter_ADC_Enable
 122:.\Generated_Source\PSoC5/Counter_ADC.c **** ********************************************************************************
 123:.\Generated_Source\PSoC5/Counter_ADC.c **** * Summary:
 124:.\Generated_Source\PSoC5/Counter_ADC.c **** *     Enable the Counter
 125:.\Generated_Source\PSoC5/Counter_ADC.c **** * 
 126:.\Generated_Source\PSoC5/Counter_ADC.c **** * Parameters:  
 127:.\Generated_Source\PSoC5/Counter_ADC.c **** *  void  
 128:.\Generated_Source\PSoC5/Counter_ADC.c **** *
 129:.\Generated_Source\PSoC5/Counter_ADC.c **** * Return: 
 130:.\Generated_Source\PSoC5/Counter_ADC.c **** *  void
 131:.\Generated_Source\PSoC5/Counter_ADC.c **** *
 132:.\Generated_Source\PSoC5/Counter_ADC.c **** * Side Effects: 
 133:.\Generated_Source\PSoC5/Counter_ADC.c **** *   If the Enable mode is set to Hardware only then this function has no effect 
 134:.\Generated_Source\PSoC5/Counter_ADC.c **** *   on the operation of the counter.
 135:.\Generated_Source\PSoC5/Counter_ADC.c **** *
 136:.\Generated_Source\PSoC5/Counter_ADC.c **** *******************************************************************************/
ARM GAS  C:\Users\SUZUKI~1\AppData\Local\Temp\cce2ZMta.s 			page 4


 137:.\Generated_Source\PSoC5/Counter_ADC.c **** void Counter_ADC_Enable(void) 
 138:.\Generated_Source\PSoC5/Counter_ADC.c **** {
  32              		.loc 1 138 0
  33              		.cfi_startproc
  34              		@ args = 0, pretend = 0, frame = 0
  35              		@ frame_needed = 0, uses_anonymous_args = 0
  36              		@ link register save eliminated.
 139:.\Generated_Source\PSoC5/Counter_ADC.c ****     /* Globally Enable the Fixed Function Block chosen */
 140:.\Generated_Source\PSoC5/Counter_ADC.c ****     #if (Counter_ADC_UsingFixedFunction)
 141:.\Generated_Source\PSoC5/Counter_ADC.c ****         Counter_ADC_GLOBAL_ENABLE |= Counter_ADC_BLOCK_EN_MASK;
 142:.\Generated_Source\PSoC5/Counter_ADC.c ****         Counter_ADC_GLOBAL_STBY_ENABLE |= Counter_ADC_BLOCK_STBY_EN_MASK;
 143:.\Generated_Source\PSoC5/Counter_ADC.c ****     #endif /* (Counter_ADC_UsingFixedFunction) */  
 144:.\Generated_Source\PSoC5/Counter_ADC.c ****         
 145:.\Generated_Source\PSoC5/Counter_ADC.c ****     /* Enable the counter from the control register  */
 146:.\Generated_Source\PSoC5/Counter_ADC.c ****     /* If Fixed Function then make sure Mode is set correctly */
 147:.\Generated_Source\PSoC5/Counter_ADC.c ****     /* else make sure reset is clear */
 148:.\Generated_Source\PSoC5/Counter_ADC.c ****     #if(!Counter_ADC_ControlRegRemoved || Counter_ADC_UsingFixedFunction)
 149:.\Generated_Source\PSoC5/Counter_ADC.c ****         Counter_ADC_CONTROL |= Counter_ADC_CTRL_ENABLE;                
  37              		.loc 1 149 0
  38 0000 46F27653 		movw	r3, #:lower16:1073767798
  39 0004 C4F20003 		movt	r3, #:upper16:1073767798
  40 0008 1878     		ldrb	r0, [r3, #0]	@ zero_extendqisi2
  41 000a 40F08002 		orr	r2, r0, #128
  42 000e 1A70     		strb	r2, [r3, #0]
 150:.\Generated_Source\PSoC5/Counter_ADC.c ****     #endif /* (!Counter_ADC_ControlRegRemoved || Counter_ADC_UsingFixedFunction) */
 151:.\Generated_Source\PSoC5/Counter_ADC.c ****     
 152:.\Generated_Source\PSoC5/Counter_ADC.c **** }
  43              		.loc 1 152 0
  44 0010 7047     		bx	lr
  45              		.cfi_endproc
  46              	.LFE1:
  47              		.size	Counter_ADC_Enable, .-Counter_ADC_Enable
  48 0012 00BF     		.section	.text.Counter_ADC_Stop,"ax",%progbits
  49              		.align	2
  50              		.global	Counter_ADC_Stop
  51              		.thumb
  52              		.thumb_func
  53              		.type	Counter_ADC_Stop, %function
  54              	Counter_ADC_Stop:
  55              	.LFB3:
 153:.\Generated_Source\PSoC5/Counter_ADC.c **** 
 154:.\Generated_Source\PSoC5/Counter_ADC.c **** 
 155:.\Generated_Source\PSoC5/Counter_ADC.c **** /*******************************************************************************
 156:.\Generated_Source\PSoC5/Counter_ADC.c **** * Function Name: Counter_ADC_Start
 157:.\Generated_Source\PSoC5/Counter_ADC.c **** ********************************************************************************
 158:.\Generated_Source\PSoC5/Counter_ADC.c **** * Summary:
 159:.\Generated_Source\PSoC5/Counter_ADC.c **** *  Enables the counter for operation 
 160:.\Generated_Source\PSoC5/Counter_ADC.c **** *
 161:.\Generated_Source\PSoC5/Counter_ADC.c **** * Parameters:  
 162:.\Generated_Source\PSoC5/Counter_ADC.c **** *  void  
 163:.\Generated_Source\PSoC5/Counter_ADC.c **** *
 164:.\Generated_Source\PSoC5/Counter_ADC.c **** * Return: 
 165:.\Generated_Source\PSoC5/Counter_ADC.c **** *  void
 166:.\Generated_Source\PSoC5/Counter_ADC.c **** *
 167:.\Generated_Source\PSoC5/Counter_ADC.c **** * Global variables:
 168:.\Generated_Source\PSoC5/Counter_ADC.c **** *  Counter_ADC_initVar: Is modified when this function is called for the  
 169:.\Generated_Source\PSoC5/Counter_ADC.c **** *   first time. Is used to ensure that initialization happens only once.
ARM GAS  C:\Users\SUZUKI~1\AppData\Local\Temp\cce2ZMta.s 			page 5


 170:.\Generated_Source\PSoC5/Counter_ADC.c **** *
 171:.\Generated_Source\PSoC5/Counter_ADC.c **** *******************************************************************************/
 172:.\Generated_Source\PSoC5/Counter_ADC.c **** void Counter_ADC_Start(void) 
 173:.\Generated_Source\PSoC5/Counter_ADC.c **** {
 174:.\Generated_Source\PSoC5/Counter_ADC.c ****     if(Counter_ADC_initVar == 0u)
 175:.\Generated_Source\PSoC5/Counter_ADC.c ****     {
 176:.\Generated_Source\PSoC5/Counter_ADC.c ****         Counter_ADC_Init();
 177:.\Generated_Source\PSoC5/Counter_ADC.c ****         
 178:.\Generated_Source\PSoC5/Counter_ADC.c ****         Counter_ADC_initVar = 1u; /* Clear this bit for Initialization */        
 179:.\Generated_Source\PSoC5/Counter_ADC.c ****     }
 180:.\Generated_Source\PSoC5/Counter_ADC.c ****     
 181:.\Generated_Source\PSoC5/Counter_ADC.c ****     /* Enable the Counter */
 182:.\Generated_Source\PSoC5/Counter_ADC.c ****     Counter_ADC_Enable();        
 183:.\Generated_Source\PSoC5/Counter_ADC.c **** }
 184:.\Generated_Source\PSoC5/Counter_ADC.c **** 
 185:.\Generated_Source\PSoC5/Counter_ADC.c **** 
 186:.\Generated_Source\PSoC5/Counter_ADC.c **** /*******************************************************************************
 187:.\Generated_Source\PSoC5/Counter_ADC.c **** * Function Name: Counter_ADC_Stop
 188:.\Generated_Source\PSoC5/Counter_ADC.c **** ********************************************************************************
 189:.\Generated_Source\PSoC5/Counter_ADC.c **** * Summary:
 190:.\Generated_Source\PSoC5/Counter_ADC.c **** * Halts the counter, but does not change any modes or disable interrupts.
 191:.\Generated_Source\PSoC5/Counter_ADC.c **** *
 192:.\Generated_Source\PSoC5/Counter_ADC.c **** * Parameters:  
 193:.\Generated_Source\PSoC5/Counter_ADC.c **** *  void  
 194:.\Generated_Source\PSoC5/Counter_ADC.c **** *
 195:.\Generated_Source\PSoC5/Counter_ADC.c **** * Return: 
 196:.\Generated_Source\PSoC5/Counter_ADC.c **** *  void
 197:.\Generated_Source\PSoC5/Counter_ADC.c **** *
 198:.\Generated_Source\PSoC5/Counter_ADC.c **** * Side Effects: If the Enable mode is set to Hardware only then this function
 199:.\Generated_Source\PSoC5/Counter_ADC.c **** *               has no effect on the operation of the counter.
 200:.\Generated_Source\PSoC5/Counter_ADC.c **** *
 201:.\Generated_Source\PSoC5/Counter_ADC.c **** *******************************************************************************/
 202:.\Generated_Source\PSoC5/Counter_ADC.c **** void Counter_ADC_Stop(void) 
 203:.\Generated_Source\PSoC5/Counter_ADC.c **** {
  56              		.loc 1 203 0
  57              		.cfi_startproc
  58              		@ args = 0, pretend = 0, frame = 0
  59              		@ frame_needed = 0, uses_anonymous_args = 0
  60              		@ link register save eliminated.
 204:.\Generated_Source\PSoC5/Counter_ADC.c ****     /* Disable Counter */
 205:.\Generated_Source\PSoC5/Counter_ADC.c ****     #if(!Counter_ADC_ControlRegRemoved || Counter_ADC_UsingFixedFunction)
 206:.\Generated_Source\PSoC5/Counter_ADC.c ****         Counter_ADC_CONTROL &= ~Counter_ADC_CTRL_ENABLE;        
  61              		.loc 1 206 0
  62 0000 46F27653 		movw	r3, #:lower16:1073767798
  63 0004 C4F20003 		movt	r3, #:upper16:1073767798
  64 0008 1878     		ldrb	r0, [r3, #0]	@ zero_extendqisi2
  65 000a 00F07F02 		and	r2, r0, #127
  66 000e 1A70     		strb	r2, [r3, #0]
 207:.\Generated_Source\PSoC5/Counter_ADC.c ****     #endif /* (!Counter_ADC_ControlRegRemoved || Counter_ADC_UsingFixedFunction) */
 208:.\Generated_Source\PSoC5/Counter_ADC.c ****     
 209:.\Generated_Source\PSoC5/Counter_ADC.c ****     /* Globally disable the Fixed Function Block chosen */
 210:.\Generated_Source\PSoC5/Counter_ADC.c ****     #if (Counter_ADC_UsingFixedFunction)
 211:.\Generated_Source\PSoC5/Counter_ADC.c ****         Counter_ADC_GLOBAL_ENABLE &= ~Counter_ADC_BLOCK_EN_MASK;
 212:.\Generated_Source\PSoC5/Counter_ADC.c ****         Counter_ADC_GLOBAL_STBY_ENABLE &= ~Counter_ADC_BLOCK_STBY_EN_MASK;
 213:.\Generated_Source\PSoC5/Counter_ADC.c ****     #endif /* (Counter_ADC_UsingFixedFunction) */
 214:.\Generated_Source\PSoC5/Counter_ADC.c **** }
  67              		.loc 1 214 0
ARM GAS  C:\Users\SUZUKI~1\AppData\Local\Temp\cce2ZMta.s 			page 6


  68 0010 7047     		bx	lr
  69              		.cfi_endproc
  70              	.LFE3:
  71              		.size	Counter_ADC_Stop, .-Counter_ADC_Stop
  72              		.section	.text.Counter_ADC_SetInterruptMode,"ax",%progbits
  73              		.align	2
  74              		.global	Counter_ADC_SetInterruptMode
  75              		.thumb
  76              		.thumb_func
  77              		.type	Counter_ADC_SetInterruptMode, %function
  78              	Counter_ADC_SetInterruptMode:
  79              	.LFB4:
 215:.\Generated_Source\PSoC5/Counter_ADC.c **** 
 216:.\Generated_Source\PSoC5/Counter_ADC.c **** 
 217:.\Generated_Source\PSoC5/Counter_ADC.c **** /*******************************************************************************
 218:.\Generated_Source\PSoC5/Counter_ADC.c **** * Function Name: Counter_ADC_SetInterruptMode
 219:.\Generated_Source\PSoC5/Counter_ADC.c **** ********************************************************************************
 220:.\Generated_Source\PSoC5/Counter_ADC.c **** * Summary:
 221:.\Generated_Source\PSoC5/Counter_ADC.c **** * Configures which interrupt sources are enabled to generate the final interrupt
 222:.\Generated_Source\PSoC5/Counter_ADC.c **** *
 223:.\Generated_Source\PSoC5/Counter_ADC.c **** * Parameters:  
 224:.\Generated_Source\PSoC5/Counter_ADC.c **** *  InterruptsMask: This parameter is an or'd collection of the status bits
 225:.\Generated_Source\PSoC5/Counter_ADC.c **** *                   which will be allowed to generate the counters interrupt.   
 226:.\Generated_Source\PSoC5/Counter_ADC.c **** *
 227:.\Generated_Source\PSoC5/Counter_ADC.c **** * Return: 
 228:.\Generated_Source\PSoC5/Counter_ADC.c **** *  void
 229:.\Generated_Source\PSoC5/Counter_ADC.c **** *
 230:.\Generated_Source\PSoC5/Counter_ADC.c **** *******************************************************************************/
 231:.\Generated_Source\PSoC5/Counter_ADC.c **** void Counter_ADC_SetInterruptMode(uint8 interruptsMask) 
 232:.\Generated_Source\PSoC5/Counter_ADC.c **** {
  80              		.loc 1 232 0
  81              		.cfi_startproc
  82              		@ args = 0, pretend = 0, frame = 0
  83              		@ frame_needed = 0, uses_anonymous_args = 0
  84              		@ link register save eliminated.
  85              	.LVL0:
 233:.\Generated_Source\PSoC5/Counter_ADC.c ****     Counter_ADC_STATUS_MASK = interruptsMask;
  86              		.loc 1 233 0
  87 0000 46F28653 		movw	r3, #:lower16:1073767814
  88 0004 C4F20003 		movt	r3, #:upper16:1073767814
  89 0008 1870     		strb	r0, [r3, #0]
 234:.\Generated_Source\PSoC5/Counter_ADC.c **** }
  90              		.loc 1 234 0
  91 000a 7047     		bx	lr
  92              		.cfi_endproc
  93              	.LFE4:
  94              		.size	Counter_ADC_SetInterruptMode, .-Counter_ADC_SetInterruptMode
  95              		.section	.text.Counter_ADC_ReadStatusRegister,"ax",%progbits
  96              		.align	2
  97              		.global	Counter_ADC_ReadStatusRegister
  98              		.thumb
  99              		.thumb_func
 100              		.type	Counter_ADC_ReadStatusRegister, %function
 101              	Counter_ADC_ReadStatusRegister:
 102              	.LFB5:
 235:.\Generated_Source\PSoC5/Counter_ADC.c **** 
 236:.\Generated_Source\PSoC5/Counter_ADC.c **** 
ARM GAS  C:\Users\SUZUKI~1\AppData\Local\Temp\cce2ZMta.s 			page 7


 237:.\Generated_Source\PSoC5/Counter_ADC.c **** /*******************************************************************************
 238:.\Generated_Source\PSoC5/Counter_ADC.c **** * Function Name: Counter_ADC_ReadStatusRegister
 239:.\Generated_Source\PSoC5/Counter_ADC.c **** ********************************************************************************
 240:.\Generated_Source\PSoC5/Counter_ADC.c **** * Summary:
 241:.\Generated_Source\PSoC5/Counter_ADC.c **** *   Reads the status register and returns it's state. This function should use
 242:.\Generated_Source\PSoC5/Counter_ADC.c **** *       defined types for the bit-field information as the bits in this
 243:.\Generated_Source\PSoC5/Counter_ADC.c **** *       register may be permuteable.
 244:.\Generated_Source\PSoC5/Counter_ADC.c **** *
 245:.\Generated_Source\PSoC5/Counter_ADC.c **** * Parameters:  
 246:.\Generated_Source\PSoC5/Counter_ADC.c **** *  void
 247:.\Generated_Source\PSoC5/Counter_ADC.c **** *
 248:.\Generated_Source\PSoC5/Counter_ADC.c **** * Return: 
 249:.\Generated_Source\PSoC5/Counter_ADC.c **** *  (uint8) The contents of the status register
 250:.\Generated_Source\PSoC5/Counter_ADC.c **** *
 251:.\Generated_Source\PSoC5/Counter_ADC.c **** * Side Effects:
 252:.\Generated_Source\PSoC5/Counter_ADC.c **** *   Status register bits may be clear on read. 
 253:.\Generated_Source\PSoC5/Counter_ADC.c **** *
 254:.\Generated_Source\PSoC5/Counter_ADC.c **** *******************************************************************************/
 255:.\Generated_Source\PSoC5/Counter_ADC.c **** uint8   Counter_ADC_ReadStatusRegister(void) 
 256:.\Generated_Source\PSoC5/Counter_ADC.c **** {
 103              		.loc 1 256 0
 104              		.cfi_startproc
 105              		@ args = 0, pretend = 0, frame = 0
 106              		@ frame_needed = 0, uses_anonymous_args = 0
 107              		@ link register save eliminated.
 257:.\Generated_Source\PSoC5/Counter_ADC.c ****     return Counter_ADC_STATUS;
 108              		.loc 1 257 0
 109 0000 46F26653 		movw	r3, #:lower16:1073767782
 110 0004 C4F20003 		movt	r3, #:upper16:1073767782
 111 0008 1878     		ldrb	r0, [r3, #0]	@ zero_extendqisi2
 258:.\Generated_Source\PSoC5/Counter_ADC.c **** }
 112              		.loc 1 258 0
 113 000a 7047     		bx	lr
 114              		.cfi_endproc
 115              	.LFE5:
 116              		.size	Counter_ADC_ReadStatusRegister, .-Counter_ADC_ReadStatusRegister
 117              		.section	.text.Counter_ADC_ReadControlRegister,"ax",%progbits
 118              		.align	2
 119              		.global	Counter_ADC_ReadControlRegister
 120              		.thumb
 121              		.thumb_func
 122              		.type	Counter_ADC_ReadControlRegister, %function
 123              	Counter_ADC_ReadControlRegister:
 124              	.LFB6:
 259:.\Generated_Source\PSoC5/Counter_ADC.c **** 
 260:.\Generated_Source\PSoC5/Counter_ADC.c **** 
 261:.\Generated_Source\PSoC5/Counter_ADC.c **** #if(!Counter_ADC_ControlRegRemoved)
 262:.\Generated_Source\PSoC5/Counter_ADC.c **** /*******************************************************************************
 263:.\Generated_Source\PSoC5/Counter_ADC.c **** * Function Name: Counter_ADC_ReadControlRegister
 264:.\Generated_Source\PSoC5/Counter_ADC.c **** ********************************************************************************
 265:.\Generated_Source\PSoC5/Counter_ADC.c **** * Summary:
 266:.\Generated_Source\PSoC5/Counter_ADC.c **** *   Reads the control register and returns it's state. This function should use
 267:.\Generated_Source\PSoC5/Counter_ADC.c **** *       defined types for the bit-field information as the bits in this
 268:.\Generated_Source\PSoC5/Counter_ADC.c **** *       register may be permuteable.
 269:.\Generated_Source\PSoC5/Counter_ADC.c **** *
 270:.\Generated_Source\PSoC5/Counter_ADC.c **** * Parameters:  
 271:.\Generated_Source\PSoC5/Counter_ADC.c **** *  void
ARM GAS  C:\Users\SUZUKI~1\AppData\Local\Temp\cce2ZMta.s 			page 8


 272:.\Generated_Source\PSoC5/Counter_ADC.c **** *
 273:.\Generated_Source\PSoC5/Counter_ADC.c **** * Return: 
 274:.\Generated_Source\PSoC5/Counter_ADC.c **** *  (uint8) The contents of the control register
 275:.\Generated_Source\PSoC5/Counter_ADC.c **** *
 276:.\Generated_Source\PSoC5/Counter_ADC.c **** *******************************************************************************/
 277:.\Generated_Source\PSoC5/Counter_ADC.c **** uint8   Counter_ADC_ReadControlRegister(void) 
 278:.\Generated_Source\PSoC5/Counter_ADC.c **** {
 125              		.loc 1 278 0
 126              		.cfi_startproc
 127              		@ args = 0, pretend = 0, frame = 0
 128              		@ frame_needed = 0, uses_anonymous_args = 0
 129              		@ link register save eliminated.
 279:.\Generated_Source\PSoC5/Counter_ADC.c ****     return Counter_ADC_CONTROL;
 130              		.loc 1 279 0
 131 0000 46F27653 		movw	r3, #:lower16:1073767798
 132 0004 C4F20003 		movt	r3, #:upper16:1073767798
 133 0008 1878     		ldrb	r0, [r3, #0]	@ zero_extendqisi2
 280:.\Generated_Source\PSoC5/Counter_ADC.c **** }
 134              		.loc 1 280 0
 135 000a 7047     		bx	lr
 136              		.cfi_endproc
 137              	.LFE6:
 138              		.size	Counter_ADC_ReadControlRegister, .-Counter_ADC_ReadControlRegister
 139              		.section	.text.Counter_ADC_WriteControlRegister,"ax",%progbits
 140              		.align	2
 141              		.global	Counter_ADC_WriteControlRegister
 142              		.thumb
 143              		.thumb_func
 144              		.type	Counter_ADC_WriteControlRegister, %function
 145              	Counter_ADC_WriteControlRegister:
 146              	.LFB7:
 281:.\Generated_Source\PSoC5/Counter_ADC.c **** 
 282:.\Generated_Source\PSoC5/Counter_ADC.c **** 
 283:.\Generated_Source\PSoC5/Counter_ADC.c **** /*******************************************************************************
 284:.\Generated_Source\PSoC5/Counter_ADC.c **** * Function Name: Counter_ADC_WriteControlRegister
 285:.\Generated_Source\PSoC5/Counter_ADC.c **** ********************************************************************************
 286:.\Generated_Source\PSoC5/Counter_ADC.c **** * Summary:
 287:.\Generated_Source\PSoC5/Counter_ADC.c **** *   Sets the bit-field of the control register.  This function should use
 288:.\Generated_Source\PSoC5/Counter_ADC.c **** *       defined types for the bit-field information as the bits in this
 289:.\Generated_Source\PSoC5/Counter_ADC.c **** *       register may be permuteable.
 290:.\Generated_Source\PSoC5/Counter_ADC.c **** *
 291:.\Generated_Source\PSoC5/Counter_ADC.c **** * Parameters:  
 292:.\Generated_Source\PSoC5/Counter_ADC.c **** *  void
 293:.\Generated_Source\PSoC5/Counter_ADC.c **** *
 294:.\Generated_Source\PSoC5/Counter_ADC.c **** * Return: 
 295:.\Generated_Source\PSoC5/Counter_ADC.c **** *  (uint8) The contents of the control register
 296:.\Generated_Source\PSoC5/Counter_ADC.c **** *
 297:.\Generated_Source\PSoC5/Counter_ADC.c **** *******************************************************************************/
 298:.\Generated_Source\PSoC5/Counter_ADC.c **** void    Counter_ADC_WriteControlRegister(uint8 control) 
 299:.\Generated_Source\PSoC5/Counter_ADC.c **** {
 147              		.loc 1 299 0
 148              		.cfi_startproc
 149              		@ args = 0, pretend = 0, frame = 0
 150              		@ frame_needed = 0, uses_anonymous_args = 0
 151              		@ link register save eliminated.
 152              	.LVL1:
 300:.\Generated_Source\PSoC5/Counter_ADC.c ****     Counter_ADC_CONTROL = control;
ARM GAS  C:\Users\SUZUKI~1\AppData\Local\Temp\cce2ZMta.s 			page 9


 153              		.loc 1 300 0
 154 0000 46F27653 		movw	r3, #:lower16:1073767798
 155 0004 C4F20003 		movt	r3, #:upper16:1073767798
 156 0008 1870     		strb	r0, [r3, #0]
 301:.\Generated_Source\PSoC5/Counter_ADC.c **** }
 157              		.loc 1 301 0
 158 000a 7047     		bx	lr
 159              		.cfi_endproc
 160              	.LFE7:
 161              		.size	Counter_ADC_WriteControlRegister, .-Counter_ADC_WriteControlRegister
 162              		.section	.text.Counter_ADC_WriteCounter,"ax",%progbits
 163              		.align	2
 164              		.global	Counter_ADC_WriteCounter
 165              		.thumb
 166              		.thumb_func
 167              		.type	Counter_ADC_WriteCounter, %function
 168              	Counter_ADC_WriteCounter:
 169              	.LFB8:
 302:.\Generated_Source\PSoC5/Counter_ADC.c **** 
 303:.\Generated_Source\PSoC5/Counter_ADC.c **** #endif  /* (!Counter_ADC_ControlRegRemoved) */
 304:.\Generated_Source\PSoC5/Counter_ADC.c **** 
 305:.\Generated_Source\PSoC5/Counter_ADC.c **** 
 306:.\Generated_Source\PSoC5/Counter_ADC.c **** #if (!(Counter_ADC_UsingFixedFunction && (CY_PSOC5A)))
 307:.\Generated_Source\PSoC5/Counter_ADC.c **** /*******************************************************************************
 308:.\Generated_Source\PSoC5/Counter_ADC.c **** * Function Name: Counter_ADC_WriteCounter
 309:.\Generated_Source\PSoC5/Counter_ADC.c **** ********************************************************************************
 310:.\Generated_Source\PSoC5/Counter_ADC.c **** * Summary:
 311:.\Generated_Source\PSoC5/Counter_ADC.c **** *   This funtion is used to set the counter to a specific value
 312:.\Generated_Source\PSoC5/Counter_ADC.c **** *
 313:.\Generated_Source\PSoC5/Counter_ADC.c **** * Parameters:  
 314:.\Generated_Source\PSoC5/Counter_ADC.c **** *  counter:  New counter value. 
 315:.\Generated_Source\PSoC5/Counter_ADC.c **** *
 316:.\Generated_Source\PSoC5/Counter_ADC.c **** * Return: 
 317:.\Generated_Source\PSoC5/Counter_ADC.c **** *  void 
 318:.\Generated_Source\PSoC5/Counter_ADC.c **** *
 319:.\Generated_Source\PSoC5/Counter_ADC.c **** *******************************************************************************/
 320:.\Generated_Source\PSoC5/Counter_ADC.c **** void Counter_ADC_WriteCounter(uint16 counter) \
 321:.\Generated_Source\PSoC5/Counter_ADC.c ****                                    
 322:.\Generated_Source\PSoC5/Counter_ADC.c **** {
 170              		.loc 1 322 0
 171              		.cfi_startproc
 172              		@ args = 0, pretend = 0, frame = 0
 173              		@ frame_needed = 0, uses_anonymous_args = 0
 174              		@ link register save eliminated.
 175              	.LVL2:
 323:.\Generated_Source\PSoC5/Counter_ADC.c ****     #if(Counter_ADC_UsingFixedFunction)
 324:.\Generated_Source\PSoC5/Counter_ADC.c ****         /* assert if block is already enabled */
 325:.\Generated_Source\PSoC5/Counter_ADC.c ****         CYASSERT (!(Counter_ADC_GLOBAL_ENABLE & Counter_ADC_BLOCK_EN_MASK));
 326:.\Generated_Source\PSoC5/Counter_ADC.c ****         /* If block is disabled, enable it and then write the counter */
 327:.\Generated_Source\PSoC5/Counter_ADC.c ****         Counter_ADC_GLOBAL_ENABLE |= Counter_ADC_BLOCK_EN_MASK;
 328:.\Generated_Source\PSoC5/Counter_ADC.c ****         CY_SET_REG16(Counter_ADC_COUNTER_LSB_PTR, (uint16)counter);
 329:.\Generated_Source\PSoC5/Counter_ADC.c ****         Counter_ADC_GLOBAL_ENABLE &= ~Counter_ADC_BLOCK_EN_MASK;
 330:.\Generated_Source\PSoC5/Counter_ADC.c ****     #else
 331:.\Generated_Source\PSoC5/Counter_ADC.c ****         CY_SET_REG16(Counter_ADC_COUNTER_LSB_PTR, counter);
 176              		.loc 1 331 0
 177 0000 46F20653 		movw	r3, #:lower16:1073767686
 178 0004 C4F20003 		movt	r3, #:upper16:1073767686
ARM GAS  C:\Users\SUZUKI~1\AppData\Local\Temp\cce2ZMta.s 			page 10


 179 0008 1880     		strh	r0, [r3, #0]	@ movhi
 332:.\Generated_Source\PSoC5/Counter_ADC.c ****     #endif /* (Counter_ADC_UsingFixedFunction) */
 333:.\Generated_Source\PSoC5/Counter_ADC.c **** }
 180              		.loc 1 333 0
 181 000a 7047     		bx	lr
 182              		.cfi_endproc
 183              	.LFE8:
 184              		.size	Counter_ADC_WriteCounter, .-Counter_ADC_WriteCounter
 185              		.section	.text.Counter_ADC_ReadCounter,"ax",%progbits
 186              		.align	2
 187              		.global	Counter_ADC_ReadCounter
 188              		.thumb
 189              		.thumb_func
 190              		.type	Counter_ADC_ReadCounter, %function
 191              	Counter_ADC_ReadCounter:
 192              	.LFB9:
 334:.\Generated_Source\PSoC5/Counter_ADC.c **** #endif /* (!(Counter_ADC_UsingFixedFunction && (CY_PSOC5A))) */
 335:.\Generated_Source\PSoC5/Counter_ADC.c **** 
 336:.\Generated_Source\PSoC5/Counter_ADC.c **** 
 337:.\Generated_Source\PSoC5/Counter_ADC.c **** /*******************************************************************************
 338:.\Generated_Source\PSoC5/Counter_ADC.c **** * Function Name: Counter_ADC_ReadCounter
 339:.\Generated_Source\PSoC5/Counter_ADC.c **** ********************************************************************************
 340:.\Generated_Source\PSoC5/Counter_ADC.c **** * Summary:
 341:.\Generated_Source\PSoC5/Counter_ADC.c **** * Returns the current value of the counter.  It doesn't matter
 342:.\Generated_Source\PSoC5/Counter_ADC.c **** * if the counter is enabled or running.
 343:.\Generated_Source\PSoC5/Counter_ADC.c **** *
 344:.\Generated_Source\PSoC5/Counter_ADC.c **** * Parameters:  
 345:.\Generated_Source\PSoC5/Counter_ADC.c **** *  void:  
 346:.\Generated_Source\PSoC5/Counter_ADC.c **** *
 347:.\Generated_Source\PSoC5/Counter_ADC.c **** * Return: 
 348:.\Generated_Source\PSoC5/Counter_ADC.c **** *  (uint16) The present value of the counter.
 349:.\Generated_Source\PSoC5/Counter_ADC.c **** *
 350:.\Generated_Source\PSoC5/Counter_ADC.c **** *******************************************************************************/
 351:.\Generated_Source\PSoC5/Counter_ADC.c **** uint16 Counter_ADC_ReadCounter(void) 
 352:.\Generated_Source\PSoC5/Counter_ADC.c **** {
 193              		.loc 1 352 0
 194              		.cfi_startproc
 195              		@ args = 0, pretend = 0, frame = 0
 196              		@ frame_needed = 0, uses_anonymous_args = 0
 197              		@ link register save eliminated.
 353:.\Generated_Source\PSoC5/Counter_ADC.c ****     /* Force capture by reading Accumulator */
 354:.\Generated_Source\PSoC5/Counter_ADC.c ****     /* Must first do a software capture to be able to read the counter */
 355:.\Generated_Source\PSoC5/Counter_ADC.c ****     /* It is up to the user code to make sure there isn't already captured data in the FIFO */
 356:.\Generated_Source\PSoC5/Counter_ADC.c ****     CY_GET_REG8(Counter_ADC_COUNTER_LSB_PTR);
 198              		.loc 1 356 0
 199 0000 46F20652 		movw	r2, #:lower16:1073767686
 357:.\Generated_Source\PSoC5/Counter_ADC.c ****     
 358:.\Generated_Source\PSoC5/Counter_ADC.c ****     /* Read the data from the FIFO (or capture register for Fixed Function)*/
 359:.\Generated_Source\PSoC5/Counter_ADC.c ****     return (CY_GET_REG16(Counter_ADC_STATICCOUNT_LSB_PTR));
 200              		.loc 1 359 0
 201 0004 46F24653 		movw	r3, #:lower16:1073767750
 202 0008 C4F20003 		movt	r3, #:upper16:1073767750
 203              		.loc 1 356 0
 204 000c C4F20002 		movt	r2, #:upper16:1073767686
 205 0010 1278     		ldrb	r2, [r2, #0]	@ zero_extendqisi2
 206              		.loc 1 359 0
 207 0012 1888     		ldrh	r0, [r3, #0]
ARM GAS  C:\Users\SUZUKI~1\AppData\Local\Temp\cce2ZMta.s 			page 11


 360:.\Generated_Source\PSoC5/Counter_ADC.c **** }
 208              		.loc 1 360 0
 209 0014 80B2     		uxth	r0, r0
 210 0016 7047     		bx	lr
 211              		.cfi_endproc
 212              	.LFE9:
 213              		.size	Counter_ADC_ReadCounter, .-Counter_ADC_ReadCounter
 214              		.section	.text.Counter_ADC_ReadCapture,"ax",%progbits
 215              		.align	2
 216              		.global	Counter_ADC_ReadCapture
 217              		.thumb
 218              		.thumb_func
 219              		.type	Counter_ADC_ReadCapture, %function
 220              	Counter_ADC_ReadCapture:
 221              	.LFB10:
 361:.\Generated_Source\PSoC5/Counter_ADC.c **** 
 362:.\Generated_Source\PSoC5/Counter_ADC.c **** 
 363:.\Generated_Source\PSoC5/Counter_ADC.c **** /*******************************************************************************
 364:.\Generated_Source\PSoC5/Counter_ADC.c **** * Function Name: Counter_ADC_ReadCapture
 365:.\Generated_Source\PSoC5/Counter_ADC.c **** ********************************************************************************
 366:.\Generated_Source\PSoC5/Counter_ADC.c **** * Summary:
 367:.\Generated_Source\PSoC5/Counter_ADC.c **** *   This function returns the last value captured.
 368:.\Generated_Source\PSoC5/Counter_ADC.c **** *
 369:.\Generated_Source\PSoC5/Counter_ADC.c **** * Parameters:  
 370:.\Generated_Source\PSoC5/Counter_ADC.c **** *  void
 371:.\Generated_Source\PSoC5/Counter_ADC.c **** *
 372:.\Generated_Source\PSoC5/Counter_ADC.c **** * Return: 
 373:.\Generated_Source\PSoC5/Counter_ADC.c **** *  (uint16) Present Capture value.
 374:.\Generated_Source\PSoC5/Counter_ADC.c **** *
 375:.\Generated_Source\PSoC5/Counter_ADC.c **** *******************************************************************************/
 376:.\Generated_Source\PSoC5/Counter_ADC.c **** uint16 Counter_ADC_ReadCapture(void) 
 377:.\Generated_Source\PSoC5/Counter_ADC.c **** {
 222              		.loc 1 377 0
 223              		.cfi_startproc
 224              		@ args = 0, pretend = 0, frame = 0
 225              		@ frame_needed = 0, uses_anonymous_args = 0
 226              		@ link register save eliminated.
 378:.\Generated_Source\PSoC5/Counter_ADC.c ****    return ( CY_GET_REG16(Counter_ADC_STATICCOUNT_LSB_PTR) );  
 227              		.loc 1 378 0
 228 0000 46F24653 		movw	r3, #:lower16:1073767750
 229 0004 C4F20003 		movt	r3, #:upper16:1073767750
 230 0008 1888     		ldrh	r0, [r3, #0]
 379:.\Generated_Source\PSoC5/Counter_ADC.c **** }
 231              		.loc 1 379 0
 232 000a 80B2     		uxth	r0, r0
 233 000c 7047     		bx	lr
 234              		.cfi_endproc
 235              	.LFE10:
 236              		.size	Counter_ADC_ReadCapture, .-Counter_ADC_ReadCapture
 237 000e 00BF     		.section	.text.Counter_ADC_WritePeriod,"ax",%progbits
 238              		.align	2
 239              		.global	Counter_ADC_WritePeriod
 240              		.thumb
 241              		.thumb_func
 242              		.type	Counter_ADC_WritePeriod, %function
 243              	Counter_ADC_WritePeriod:
 244              	.LFB11:
ARM GAS  C:\Users\SUZUKI~1\AppData\Local\Temp\cce2ZMta.s 			page 12


 380:.\Generated_Source\PSoC5/Counter_ADC.c **** 
 381:.\Generated_Source\PSoC5/Counter_ADC.c **** 
 382:.\Generated_Source\PSoC5/Counter_ADC.c **** /*******************************************************************************
 383:.\Generated_Source\PSoC5/Counter_ADC.c **** * Function Name: Counter_ADC_WritePeriod
 384:.\Generated_Source\PSoC5/Counter_ADC.c **** ********************************************************************************
 385:.\Generated_Source\PSoC5/Counter_ADC.c **** * Summary:
 386:.\Generated_Source\PSoC5/Counter_ADC.c **** * Changes the period of the counter.  The new period 
 387:.\Generated_Source\PSoC5/Counter_ADC.c **** * will be loaded the next time terminal count is detected.
 388:.\Generated_Source\PSoC5/Counter_ADC.c **** *
 389:.\Generated_Source\PSoC5/Counter_ADC.c **** * Parameters:  
 390:.\Generated_Source\PSoC5/Counter_ADC.c **** *  period: (uint16) A value of 0 will result in
 391:.\Generated_Source\PSoC5/Counter_ADC.c **** *         the counter remaining at zero.  
 392:.\Generated_Source\PSoC5/Counter_ADC.c **** *
 393:.\Generated_Source\PSoC5/Counter_ADC.c **** * Return: 
 394:.\Generated_Source\PSoC5/Counter_ADC.c **** *  void
 395:.\Generated_Source\PSoC5/Counter_ADC.c **** *
 396:.\Generated_Source\PSoC5/Counter_ADC.c **** *******************************************************************************/
 397:.\Generated_Source\PSoC5/Counter_ADC.c **** void Counter_ADC_WritePeriod(uint16 period) 
 398:.\Generated_Source\PSoC5/Counter_ADC.c **** {
 245              		.loc 1 398 0
 246              		.cfi_startproc
 247              		@ args = 0, pretend = 0, frame = 0
 248              		@ frame_needed = 0, uses_anonymous_args = 0
 249              		@ link register save eliminated.
 250              	.LVL3:
 399:.\Generated_Source\PSoC5/Counter_ADC.c ****     #if(Counter_ADC_UsingFixedFunction)
 400:.\Generated_Source\PSoC5/Counter_ADC.c ****         CY_SET_REG16(Counter_ADC_PERIOD_LSB_PTR,(uint16)period);
 401:.\Generated_Source\PSoC5/Counter_ADC.c ****     #else
 402:.\Generated_Source\PSoC5/Counter_ADC.c ****         CY_SET_REG16(Counter_ADC_PERIOD_LSB_PTR,period);
 251              		.loc 1 402 0
 252 0000 46F22653 		movw	r3, #:lower16:1073767718
 253 0004 C4F20003 		movt	r3, #:upper16:1073767718
 254 0008 1880     		strh	r0, [r3, #0]	@ movhi
 403:.\Generated_Source\PSoC5/Counter_ADC.c ****     #endif /* (Counter_ADC_UsingFixedFunction) */
 404:.\Generated_Source\PSoC5/Counter_ADC.c **** }
 255              		.loc 1 404 0
 256 000a 7047     		bx	lr
 257              		.cfi_endproc
 258              	.LFE11:
 259              		.size	Counter_ADC_WritePeriod, .-Counter_ADC_WritePeriod
 260              		.section	.text.Counter_ADC_ReadPeriod,"ax",%progbits
 261              		.align	2
 262              		.global	Counter_ADC_ReadPeriod
 263              		.thumb
 264              		.thumb_func
 265              		.type	Counter_ADC_ReadPeriod, %function
 266              	Counter_ADC_ReadPeriod:
 267              	.LFB12:
 405:.\Generated_Source\PSoC5/Counter_ADC.c **** 
 406:.\Generated_Source\PSoC5/Counter_ADC.c **** 
 407:.\Generated_Source\PSoC5/Counter_ADC.c **** /*******************************************************************************
 408:.\Generated_Source\PSoC5/Counter_ADC.c **** * Function Name: Counter_ADC_ReadPeriod
 409:.\Generated_Source\PSoC5/Counter_ADC.c **** ********************************************************************************
 410:.\Generated_Source\PSoC5/Counter_ADC.c **** * Summary:
 411:.\Generated_Source\PSoC5/Counter_ADC.c **** * Reads the current period value without affecting counter operation.
 412:.\Generated_Source\PSoC5/Counter_ADC.c **** *
 413:.\Generated_Source\PSoC5/Counter_ADC.c **** * Parameters:  
ARM GAS  C:\Users\SUZUKI~1\AppData\Local\Temp\cce2ZMta.s 			page 13


 414:.\Generated_Source\PSoC5/Counter_ADC.c **** *  void:  
 415:.\Generated_Source\PSoC5/Counter_ADC.c **** *
 416:.\Generated_Source\PSoC5/Counter_ADC.c **** * Return: 
 417:.\Generated_Source\PSoC5/Counter_ADC.c **** *  (uint16) Present period value.
 418:.\Generated_Source\PSoC5/Counter_ADC.c **** *
 419:.\Generated_Source\PSoC5/Counter_ADC.c **** *******************************************************************************/
 420:.\Generated_Source\PSoC5/Counter_ADC.c **** uint16 Counter_ADC_ReadPeriod(void) 
 421:.\Generated_Source\PSoC5/Counter_ADC.c **** {
 268              		.loc 1 421 0
 269              		.cfi_startproc
 270              		@ args = 0, pretend = 0, frame = 0
 271              		@ frame_needed = 0, uses_anonymous_args = 0
 272              		@ link register save eliminated.
 422:.\Generated_Source\PSoC5/Counter_ADC.c ****    return ( CY_GET_REG16(Counter_ADC_PERIOD_LSB_PTR));
 273              		.loc 1 422 0
 274 0000 46F22653 		movw	r3, #:lower16:1073767718
 275 0004 C4F20003 		movt	r3, #:upper16:1073767718
 276 0008 1888     		ldrh	r0, [r3, #0]
 423:.\Generated_Source\PSoC5/Counter_ADC.c **** }
 277              		.loc 1 423 0
 278 000a 80B2     		uxth	r0, r0
 279 000c 7047     		bx	lr
 280              		.cfi_endproc
 281              	.LFE12:
 282              		.size	Counter_ADC_ReadPeriod, .-Counter_ADC_ReadPeriod
 283 000e 00BF     		.section	.text.Counter_ADC_WriteCompare,"ax",%progbits
 284              		.align	2
 285              		.global	Counter_ADC_WriteCompare
 286              		.thumb
 287              		.thumb_func
 288              		.type	Counter_ADC_WriteCompare, %function
 289              	Counter_ADC_WriteCompare:
 290              	.LFB13:
 424:.\Generated_Source\PSoC5/Counter_ADC.c **** 
 425:.\Generated_Source\PSoC5/Counter_ADC.c **** 
 426:.\Generated_Source\PSoC5/Counter_ADC.c **** #if (!Counter_ADC_UsingFixedFunction)
 427:.\Generated_Source\PSoC5/Counter_ADC.c **** /*******************************************************************************
 428:.\Generated_Source\PSoC5/Counter_ADC.c **** * Function Name: Counter_ADC_WriteCompare
 429:.\Generated_Source\PSoC5/Counter_ADC.c **** ********************************************************************************
 430:.\Generated_Source\PSoC5/Counter_ADC.c **** * Summary:
 431:.\Generated_Source\PSoC5/Counter_ADC.c **** * Changes the compare value.  The compare output will 
 432:.\Generated_Source\PSoC5/Counter_ADC.c **** * reflect the new value on the next UDB clock.  The compare output will be 
 433:.\Generated_Source\PSoC5/Counter_ADC.c **** * driven high when the present counter value compares true based on the 
 434:.\Generated_Source\PSoC5/Counter_ADC.c **** * configured compare mode setting. 
 435:.\Generated_Source\PSoC5/Counter_ADC.c **** *
 436:.\Generated_Source\PSoC5/Counter_ADC.c **** * Parameters:  
 437:.\Generated_Source\PSoC5/Counter_ADC.c **** *  Compare:  New compare value. 
 438:.\Generated_Source\PSoC5/Counter_ADC.c **** *
 439:.\Generated_Source\PSoC5/Counter_ADC.c **** * Return: 
 440:.\Generated_Source\PSoC5/Counter_ADC.c **** *  void
 441:.\Generated_Source\PSoC5/Counter_ADC.c **** *
 442:.\Generated_Source\PSoC5/Counter_ADC.c **** *******************************************************************************/
 443:.\Generated_Source\PSoC5/Counter_ADC.c **** void Counter_ADC_WriteCompare(uint16 compare) \
 444:.\Generated_Source\PSoC5/Counter_ADC.c ****                                    
 445:.\Generated_Source\PSoC5/Counter_ADC.c **** {
 291              		.loc 1 445 0
 292              		.cfi_startproc
ARM GAS  C:\Users\SUZUKI~1\AppData\Local\Temp\cce2ZMta.s 			page 14


 293              		@ args = 0, pretend = 0, frame = 0
 294              		@ frame_needed = 0, uses_anonymous_args = 0
 295              		@ link register save eliminated.
 296              	.LVL4:
 446:.\Generated_Source\PSoC5/Counter_ADC.c ****     #if(Counter_ADC_UsingFixedFunction)
 447:.\Generated_Source\PSoC5/Counter_ADC.c ****         CY_SET_REG16(Counter_ADC_COMPARE_LSB_PTR,(uint16)compare);
 448:.\Generated_Source\PSoC5/Counter_ADC.c ****     #else
 449:.\Generated_Source\PSoC5/Counter_ADC.c ****         CY_SET_REG16(Counter_ADC_COMPARE_LSB_PTR,compare);
 297              		.loc 1 449 0
 298 0000 46F23653 		movw	r3, #:lower16:1073767734
 299 0004 C4F20003 		movt	r3, #:upper16:1073767734
 300 0008 1880     		strh	r0, [r3, #0]	@ movhi
 450:.\Generated_Source\PSoC5/Counter_ADC.c ****     #endif /* (Counter_ADC_UsingFixedFunction) */
 451:.\Generated_Source\PSoC5/Counter_ADC.c **** }
 301              		.loc 1 451 0
 302 000a 7047     		bx	lr
 303              		.cfi_endproc
 304              	.LFE13:
 305              		.size	Counter_ADC_WriteCompare, .-Counter_ADC_WriteCompare
 306              		.section	.text.Counter_ADC_ReadCompare,"ax",%progbits
 307              		.align	2
 308              		.global	Counter_ADC_ReadCompare
 309              		.thumb
 310              		.thumb_func
 311              		.type	Counter_ADC_ReadCompare, %function
 312              	Counter_ADC_ReadCompare:
 313              	.LFB14:
 452:.\Generated_Source\PSoC5/Counter_ADC.c **** 
 453:.\Generated_Source\PSoC5/Counter_ADC.c **** 
 454:.\Generated_Source\PSoC5/Counter_ADC.c **** /*******************************************************************************
 455:.\Generated_Source\PSoC5/Counter_ADC.c **** * Function Name: Counter_ADC_ReadCompare
 456:.\Generated_Source\PSoC5/Counter_ADC.c **** ********************************************************************************
 457:.\Generated_Source\PSoC5/Counter_ADC.c **** * Summary:
 458:.\Generated_Source\PSoC5/Counter_ADC.c **** * Returns the compare value.
 459:.\Generated_Source\PSoC5/Counter_ADC.c **** *
 460:.\Generated_Source\PSoC5/Counter_ADC.c **** * Parameters:  
 461:.\Generated_Source\PSoC5/Counter_ADC.c **** *  void:
 462:.\Generated_Source\PSoC5/Counter_ADC.c **** *
 463:.\Generated_Source\PSoC5/Counter_ADC.c **** * Return: 
 464:.\Generated_Source\PSoC5/Counter_ADC.c **** *  (uint16) Present compare value.
 465:.\Generated_Source\PSoC5/Counter_ADC.c **** *
 466:.\Generated_Source\PSoC5/Counter_ADC.c **** *******************************************************************************/
 467:.\Generated_Source\PSoC5/Counter_ADC.c **** uint16 Counter_ADC_ReadCompare(void) 
 468:.\Generated_Source\PSoC5/Counter_ADC.c **** {
 314              		.loc 1 468 0
 315              		.cfi_startproc
 316              		@ args = 0, pretend = 0, frame = 0
 317              		@ frame_needed = 0, uses_anonymous_args = 0
 318              		@ link register save eliminated.
 469:.\Generated_Source\PSoC5/Counter_ADC.c ****    return ( CY_GET_REG16(Counter_ADC_COMPARE_LSB_PTR));
 319              		.loc 1 469 0
 320 0000 46F23653 		movw	r3, #:lower16:1073767734
 321 0004 C4F20003 		movt	r3, #:upper16:1073767734
 322 0008 1888     		ldrh	r0, [r3, #0]
 470:.\Generated_Source\PSoC5/Counter_ADC.c **** }
 323              		.loc 1 470 0
 324 000a 80B2     		uxth	r0, r0
ARM GAS  C:\Users\SUZUKI~1\AppData\Local\Temp\cce2ZMta.s 			page 15


 325 000c 7047     		bx	lr
 326              		.cfi_endproc
 327              	.LFE14:
 328              		.size	Counter_ADC_ReadCompare, .-Counter_ADC_ReadCompare
 329 000e 00BF     		.section	.text.Counter_ADC_ClearFIFO,"ax",%progbits
 330              		.align	2
 331              		.global	Counter_ADC_ClearFIFO
 332              		.thumb
 333              		.thumb_func
 334              		.type	Counter_ADC_ClearFIFO, %function
 335              	Counter_ADC_ClearFIFO:
 336              	.LFB15:
 471:.\Generated_Source\PSoC5/Counter_ADC.c **** 
 472:.\Generated_Source\PSoC5/Counter_ADC.c **** 
 473:.\Generated_Source\PSoC5/Counter_ADC.c **** #if (Counter_ADC_COMPARE_MODE_SOFTWARE)
 474:.\Generated_Source\PSoC5/Counter_ADC.c **** /*******************************************************************************
 475:.\Generated_Source\PSoC5/Counter_ADC.c **** * Function Name: Counter_ADC_SetCompareMode
 476:.\Generated_Source\PSoC5/Counter_ADC.c **** ********************************************************************************
 477:.\Generated_Source\PSoC5/Counter_ADC.c **** * Summary:
 478:.\Generated_Source\PSoC5/Counter_ADC.c **** *  Sets the software controlled Compare Mode.
 479:.\Generated_Source\PSoC5/Counter_ADC.c **** *
 480:.\Generated_Source\PSoC5/Counter_ADC.c **** * Parameters:
 481:.\Generated_Source\PSoC5/Counter_ADC.c **** *  compareMode:  Compare Mode Enumerated Type.
 482:.\Generated_Source\PSoC5/Counter_ADC.c **** *
 483:.\Generated_Source\PSoC5/Counter_ADC.c **** * Return:
 484:.\Generated_Source\PSoC5/Counter_ADC.c **** *  void
 485:.\Generated_Source\PSoC5/Counter_ADC.c **** *
 486:.\Generated_Source\PSoC5/Counter_ADC.c **** *******************************************************************************/
 487:.\Generated_Source\PSoC5/Counter_ADC.c **** void Counter_ADC_SetCompareMode(uint8 compareMode) 
 488:.\Generated_Source\PSoC5/Counter_ADC.c **** {
 489:.\Generated_Source\PSoC5/Counter_ADC.c ****     /* Clear the compare mode bits in the control register */
 490:.\Generated_Source\PSoC5/Counter_ADC.c ****     Counter_ADC_CONTROL &= ~Counter_ADC_CTRL_CMPMODE_MASK;
 491:.\Generated_Source\PSoC5/Counter_ADC.c ****     
 492:.\Generated_Source\PSoC5/Counter_ADC.c ****     /* Write the new setting */
 493:.\Generated_Source\PSoC5/Counter_ADC.c ****     Counter_ADC_CONTROL |= (compareMode << Counter_ADC_CTRL_CMPMODE0_SHIFT);
 494:.\Generated_Source\PSoC5/Counter_ADC.c **** }
 495:.\Generated_Source\PSoC5/Counter_ADC.c **** #endif  /* (Counter_ADC_COMPARE_MODE_SOFTWARE) */
 496:.\Generated_Source\PSoC5/Counter_ADC.c **** 
 497:.\Generated_Source\PSoC5/Counter_ADC.c **** 
 498:.\Generated_Source\PSoC5/Counter_ADC.c **** #if (Counter_ADC_CAPTURE_MODE_SOFTWARE)
 499:.\Generated_Source\PSoC5/Counter_ADC.c **** /*******************************************************************************
 500:.\Generated_Source\PSoC5/Counter_ADC.c **** * Function Name: Counter_ADC_SetCaptureMode
 501:.\Generated_Source\PSoC5/Counter_ADC.c **** ********************************************************************************
 502:.\Generated_Source\PSoC5/Counter_ADC.c **** * Summary:
 503:.\Generated_Source\PSoC5/Counter_ADC.c **** *  Sets the software controlled Capture Mode.
 504:.\Generated_Source\PSoC5/Counter_ADC.c **** *
 505:.\Generated_Source\PSoC5/Counter_ADC.c **** * Parameters:
 506:.\Generated_Source\PSoC5/Counter_ADC.c **** *  captureMode:  Capture Mode Enumerated Type.
 507:.\Generated_Source\PSoC5/Counter_ADC.c **** *
 508:.\Generated_Source\PSoC5/Counter_ADC.c **** * Return:
 509:.\Generated_Source\PSoC5/Counter_ADC.c **** *  void
 510:.\Generated_Source\PSoC5/Counter_ADC.c **** *
 511:.\Generated_Source\PSoC5/Counter_ADC.c **** *******************************************************************************/
 512:.\Generated_Source\PSoC5/Counter_ADC.c **** void Counter_ADC_SetCaptureMode(uint8 captureMode) 
 513:.\Generated_Source\PSoC5/Counter_ADC.c **** {
 514:.\Generated_Source\PSoC5/Counter_ADC.c ****     /* Clear the capture mode bits in the control register */
 515:.\Generated_Source\PSoC5/Counter_ADC.c ****     Counter_ADC_CONTROL &= ~Counter_ADC_CTRL_CAPMODE_MASK;
ARM GAS  C:\Users\SUZUKI~1\AppData\Local\Temp\cce2ZMta.s 			page 16


 516:.\Generated_Source\PSoC5/Counter_ADC.c ****     
 517:.\Generated_Source\PSoC5/Counter_ADC.c ****     /* Write the new setting */
 518:.\Generated_Source\PSoC5/Counter_ADC.c ****     Counter_ADC_CONTROL |= (captureMode << Counter_ADC_CTRL_CAPMODE0_SHIFT);
 519:.\Generated_Source\PSoC5/Counter_ADC.c **** }
 520:.\Generated_Source\PSoC5/Counter_ADC.c **** #endif  /* (Counter_ADC_CAPTURE_MODE_SOFTWARE) */
 521:.\Generated_Source\PSoC5/Counter_ADC.c **** 
 522:.\Generated_Source\PSoC5/Counter_ADC.c **** 
 523:.\Generated_Source\PSoC5/Counter_ADC.c **** /*******************************************************************************
 524:.\Generated_Source\PSoC5/Counter_ADC.c **** * Function Name: Counter_ADC_ClearFIFO
 525:.\Generated_Source\PSoC5/Counter_ADC.c **** ********************************************************************************
 526:.\Generated_Source\PSoC5/Counter_ADC.c **** * Summary:
 527:.\Generated_Source\PSoC5/Counter_ADC.c **** *   This function clears all capture data from the capture FIFO
 528:.\Generated_Source\PSoC5/Counter_ADC.c **** *
 529:.\Generated_Source\PSoC5/Counter_ADC.c **** * Parameters:  
 530:.\Generated_Source\PSoC5/Counter_ADC.c **** *  void:
 531:.\Generated_Source\PSoC5/Counter_ADC.c **** *
 532:.\Generated_Source\PSoC5/Counter_ADC.c **** * Return: 
 533:.\Generated_Source\PSoC5/Counter_ADC.c **** *  None
 534:.\Generated_Source\PSoC5/Counter_ADC.c **** *
 535:.\Generated_Source\PSoC5/Counter_ADC.c **** *******************************************************************************/
 536:.\Generated_Source\PSoC5/Counter_ADC.c **** void Counter_ADC_ClearFIFO(void) 
 537:.\Generated_Source\PSoC5/Counter_ADC.c **** {
 337              		.loc 1 537 0
 338              		.cfi_startproc
 339              		@ args = 0, pretend = 0, frame = 0
 340              		@ frame_needed = 0, uses_anonymous_args = 0
 341              		@ link register save eliminated.
 342              	.LBB24:
 343              	.LBB25:
 344              		.loc 1 257 0
 345 0000 46F26651 		movw	r1, #:lower16:1073767782
 346 0004 C4F20001 		movt	r1, #:upper16:1073767782
 347 0008 0B78     		ldrb	r3, [r1, #0]	@ zero_extendqisi2
 348              	.LBE25:
 349              	.LBE24:
 538:.\Generated_Source\PSoC5/Counter_ADC.c **** 
 539:.\Generated_Source\PSoC5/Counter_ADC.c ****     while(Counter_ADC_ReadStatusRegister() & Counter_ADC_STATUS_FIFONEMP)
 350              		.loc 1 539 0
 351 000a 13F0400F 		tst	r3, #64
 352 000e 08D0     		beq	.L30
 353              	.LBB27:
 354              	.LBB28:
 355              		.loc 1 378 0
 356 0010 46F24652 		movw	r2, #:lower16:1073767750
 357 0014 C4F20002 		movt	r2, #:upper16:1073767750
 358              	.L31:
 359 0018 1388     		ldrh	r3, [r2, #0]
 360              	.LBE28:
 361              	.LBE27:
 362              	.LBB29:
 363              	.LBB26:
 364              		.loc 1 257 0
 365 001a 0878     		ldrb	r0, [r1, #0]	@ zero_extendqisi2
 366              	.LBE26:
 367              	.LBE29:
 368              		.loc 1 539 0
 369 001c 10F0400F 		tst	r0, #64
ARM GAS  C:\Users\SUZUKI~1\AppData\Local\Temp\cce2ZMta.s 			page 17


 370 0020 FAD1     		bne	.L31
 371              	.L30:
 372 0022 7047     		bx	lr
 373              		.cfi_endproc
 374              	.LFE15:
 375              		.size	Counter_ADC_ClearFIFO, .-Counter_ADC_ClearFIFO
 376              		.section	.text.Counter_ADC_Init,"ax",%progbits
 377              		.align	2
 378              		.global	Counter_ADC_Init
 379              		.thumb
 380              		.thumb_func
 381              		.type	Counter_ADC_Init, %function
 382              	Counter_ADC_Init:
 383              	.LFB0:
 384              		.loc 1 38 0
 385              		.cfi_startproc
 386              		@ args = 0, pretend = 0, frame = 0
 387              		@ frame_needed = 0, uses_anonymous_args = 0
 388 0000 10B5     		push	{r4, lr}
 389              	.LCFI0:
 390              		.cfi_def_cfa_offset 8
 391              		.loc 1 79 0
 392 0002 46F27650 		movw	r0, #:lower16:1073767798
 393 0006 C4F20000 		movt	r0, #:upper16:1073767798
 394 000a 0378     		ldrb	r3, [r0, #0]	@ zero_extendqisi2
 395              	.LBB62:
 396              	.LBB64:
 397              	.LBB66:
 398              	.LBB68:
 399              		.loc 1 257 0
 400 000c 46F26651 		movw	r1, #:lower16:1073767782
 401              	.LBE68:
 402              	.LBE66:
 403              	.LBE64:
 404              	.LBE62:
 405              		.loc 1 80 0
 406 0010 03F0F80E 		and	lr, r3, #248
 407              		.cfi_offset 14, -4
 408              		.cfi_offset 4, -8
 409 0014 4EF0030C 		orr	ip, lr, #3
 410 0018 80F800C0 		strb	ip, [r0, #0]
 411              		.loc 1 83 0
 412 001c 0478     		ldrb	r4, [r0, #0]	@ zero_extendqisi2
 413              	.LBB76:
 414              	.LBB63:
 415              	.LBB65:
 416              	.LBB69:
 417              		.loc 1 257 0
 418 001e C4F20001 		movt	r1, #:upper16:1073767782
 419              	.LBE69:
 420              	.LBE65:
 421              	.LBE63:
 422              	.LBE76:
 423              		.loc 1 83 0
 424 0022 04F0E702 		and	r2, r4, #231
 425              	.LVL5:
 426              		.loc 1 84 0
ARM GAS  C:\Users\SUZUKI~1\AppData\Local\Temp\cce2ZMta.s 			page 18


 427 0026 0270     		strb	r2, [r0, #0]
 428              	.LBB77:
 429              	.LBB75:
 430              	.LBB71:
 431              	.LBB67:
 432              		.loc 1 257 0
 433 0028 0B78     		ldrb	r3, [r1, #0]	@ zero_extendqisi2
 434              	.LBE67:
 435              	.LBE71:
 436              		.loc 1 539 0
 437 002a 13F0400F 		tst	r3, #64
 438 002e 08D0     		beq	.L35
 439              	.LBB72:
 440              	.LBB73:
 441              		.loc 1 378 0
 442 0030 46F24652 		movw	r2, #:lower16:1073767750
 443              	.LVL6:
 444 0034 C4F20002 		movt	r2, #:upper16:1073767750
 445              	.L38:
 446 0038 1388     		ldrh	r3, [r2, #0]
 447              	.LBE73:
 448              	.LBE72:
 449              	.LBB74:
 450              	.LBB70:
 451              		.loc 1 257 0
 452 003a 0878     		ldrb	r0, [r1, #0]	@ zero_extendqisi2
 453              	.LBE70:
 454              	.LBE74:
 455              		.loc 1 539 0
 456 003c 10F0400F 		tst	r0, #64
 457 0040 FAD1     		bne	.L38
 458              	.LVL7:
 459              	.L35:
 460              	.LBE75:
 461              	.LBE77:
 462              	.LBB78:
 463              	.LBB80:
 464              		.loc 1 402 0
 465 0042 46F22654 		movw	r4, #:lower16:1073767718
 466              	.LBE80:
 467              	.LBE78:
 468              	.LBB82:
 469              	.LBB84:
 470              		.loc 1 331 0
 471 0046 46F20650 		movw	r0, #:lower16:1073767686
 472              	.LBE84:
 473              	.LBE82:
 474              	.LBB87:
 475              	.LBB88:
 476              		.loc 1 233 0
 477 004a 46F28651 		movw	r1, #:lower16:1073767814
 478 004e C4F20001 		movt	r1, #:upper16:1073767814
 479              	.LBE88:
 480              	.LBE87:
 481              	.LBB90:
 482              	.LBB85:
 483              		.loc 1 331 0
ARM GAS  C:\Users\SUZUKI~1\AppData\Local\Temp\cce2ZMta.s 			page 19


 484 0052 4FF0000C 		mov	ip, #0	@ movhi
 485              	.LBE85:
 486              	.LBE90:
 487              	.LBB91:
 488              	.LBB79:
 489              		.loc 1 402 0
 490 0056 4FF0FF3E 		mov	lr, #-1	@ movhi
 491 005a C4F20004 		movt	r4, #:upper16:1073767718
 492              	.LBE79:
 493              	.LBE91:
 494              	.LBB92:
 495              	.LBB83:
 496              		.loc 1 331 0
 497 005e C4F20000 		movt	r0, #:upper16:1073767686
 498              	.LBE83:
 499              	.LBE92:
 500              	.LBB93:
 501              	.LBB95:
 502              		.loc 1 257 0
 503 0062 46F26652 		movw	r2, #:lower16:1073767782
 504              	.LVL8:
 505              	.LBE95:
 506              	.LBE93:
 507              	.LBB97:
 508              	.LBB99:
 509              		.loc 1 449 0
 510 0066 46F23653 		movw	r3, #:lower16:1073767734
 511              	.LBE99:
 512              	.LBE97:
 513              	.LBB102:
 514              	.LBB81:
 515              		.loc 1 402 0
 516 006a A4F800E0 		strh	lr, [r4, #0]	@ movhi
 517              	.LBE81:
 518              	.LBE102:
 519              	.LBB103:
 520              	.LBB100:
 521              		.loc 1 449 0
 522 006e C4F20003 		movt	r3, #:upper16:1073767734
 523              	.LBE100:
 524              	.LBE103:
 525              	.LBB104:
 526              	.LBB86:
 527              		.loc 1 331 0
 528 0072 A0F800C0 		strh	ip, [r0, #0]	@ movhi
 529              	.LBE86:
 530              	.LBE104:
 531              	.LBB105:
 532              	.LBB94:
 533              		.loc 1 257 0
 534 0076 C4F20002 		movt	r2, #:upper16:1073767782
 535              	.LBE94:
 536              	.LBE105:
 537              	.LBB106:
 538              	.LBB89:
 539              		.loc 1 233 0
 540 007a 81F800C0 		strb	ip, [r1, #0]
ARM GAS  C:\Users\SUZUKI~1\AppData\Local\Temp\cce2ZMta.s 			page 20


 541              	.LBE89:
 542              	.LBE106:
 543              	.LBB107:
 544              	.LBB98:
 545              		.loc 1 449 0
 546 007e 4FF07F0C 		mov	ip, #127	@ movhi
 547              	.LBE98:
 548              	.LBE107:
 549              	.LBB108:
 550              	.LBB96:
 551              		.loc 1 257 0
 552 0082 1278     		ldrb	r2, [r2, #0]	@ zero_extendqisi2
 553              	.LBE96:
 554              	.LBE108:
 555              	.LBB109:
 556              	.LBB101:
 557              		.loc 1 449 0
 558 0084 A3F800C0 		strh	ip, [r3, #0]	@ movhi
 559              	.LBE101:
 560              	.LBE109:
 561              		.loc 1 109 0
 562 0088 FFF7FEFF 		bl	CyEnterCriticalSection
 563              		.loc 1 111 0
 564 008c 46F29653 		movw	r3, #:lower16:1073767830
 565 0090 C4F20003 		movt	r3, #:upper16:1073767830
 566 0094 1A78     		ldrb	r2, [r3, #0]	@ zero_extendqisi2
 567 0096 42F01001 		orr	r1, r2, #16
 568 009a 1970     		strb	r1, [r3, #0]
 569              		.loc 1 117 0
 570 009c BDE81040 		pop	{r4, lr}
 571              		.loc 1 114 0
 572 00a0 FFF7FEBF 		b	CyExitCriticalSection
 573              		.cfi_endproc
 574              	.LFE0:
 575              		.size	Counter_ADC_Init, .-Counter_ADC_Init
 576              		.section	.text.Counter_ADC_Start,"ax",%progbits
 577              		.align	2
 578              		.global	Counter_ADC_Start
 579              		.thumb
 580              		.thumb_func
 581              		.type	Counter_ADC_Start, %function
 582              	Counter_ADC_Start:
 583              	.LFB2:
 584              		.loc 1 173 0
 585              		.cfi_startproc
 586              		@ args = 0, pretend = 0, frame = 0
 587              		@ frame_needed = 0, uses_anonymous_args = 0
 588 0000 38B5     		push	{r3, r4, r5, lr}
 589              	.LCFI1:
 590              		.cfi_def_cfa_offset 16
 591              		.loc 1 174 0
 592 0002 40F20004 		movw	r4, #:lower16:.LANCHOR0
 593              		.cfi_offset 14, -4
 594              		.cfi_offset 5, -8
 595              		.cfi_offset 4, -12
 596              		.cfi_offset 3, -16
 597 0006 C0F20004 		movt	r4, #:upper16:.LANCHOR0
ARM GAS  C:\Users\SUZUKI~1\AppData\Local\Temp\cce2ZMta.s 			page 21


 598 000a 2378     		ldrb	r3, [r4, #0]	@ zero_extendqisi2
 599 000c 43B1     		cbz	r3, .L48
 600              	.LBB130:
 601              	.LBB132:
 602              		.loc 1 149 0
 603 000e 46F27653 		movw	r3, #:lower16:1073767798
 604 0012 C4F20003 		movt	r3, #:upper16:1073767798
 605 0016 1978     		ldrb	r1, [r3, #0]	@ zero_extendqisi2
 606 0018 41F08002 		orr	r2, r1, #128
 607 001c 1A70     		strb	r2, [r3, #0]
 608              	.LBE132:
 609              	.LBE130:
 610              		.loc 1 183 0
 611 001e 38BD     		pop	{r3, r4, r5, pc}
 612              	.L48:
 613              	.LBB134:
 614              	.LBB135:
 615              		.loc 1 79 0
 616 0020 46F27655 		movw	r5, #:lower16:1073767798
 617 0024 C4F20005 		movt	r5, #:upper16:1073767798
 618 0028 2878     		ldrb	r0, [r5, #0]	@ zero_extendqisi2
 619              	.LBB136:
 620              	.LBB138:
 621              	.LBB140:
 622              	.LBB142:
 623              		.loc 1 257 0
 624 002a 46F26651 		movw	r1, #:lower16:1073767782
 625              	.LBE142:
 626              	.LBE140:
 627              	.LBE138:
 628              	.LBE136:
 629              		.loc 1 80 0
 630 002e 00F0F803 		and	r3, r0, #248
 631 0032 43F0030E 		orr	lr, r3, #3
 632 0036 85F800E0 		strb	lr, [r5, #0]
 633              		.loc 1 83 0
 634 003a 95F800C0 		ldrb	ip, [r5, #0]	@ zero_extendqisi2
 635              	.LBB150:
 636              	.LBB137:
 637              	.LBB139:
 638              	.LBB143:
 639              		.loc 1 257 0
 640 003e C4F20001 		movt	r1, #:upper16:1073767782
 641              	.LBE143:
 642              	.LBE139:
 643              	.LBE137:
 644              	.LBE150:
 645              		.loc 1 83 0
 646 0042 0CF0E702 		and	r2, ip, #231
 647              	.LVL9:
 648              		.loc 1 84 0
 649 0046 2A70     		strb	r2, [r5, #0]
 650              	.LBB151:
 651              	.LBB149:
 652              	.LBB145:
 653              	.LBB141:
 654              		.loc 1 257 0
ARM GAS  C:\Users\SUZUKI~1\AppData\Local\Temp\cce2ZMta.s 			page 22


 655 0048 0878     		ldrb	r0, [r1, #0]	@ zero_extendqisi2
 656              	.LBE141:
 657              	.LBE145:
 658              		.loc 1 539 0
 659 004a 10F0400F 		tst	r0, #64
 660 004e 08D0     		beq	.L42
 661              	.LBB146:
 662              	.LBB147:
 663              		.loc 1 378 0
 664 0050 46F24652 		movw	r2, #:lower16:1073767750
 665              	.LVL10:
 666 0054 C4F20002 		movt	r2, #:upper16:1073767750
 667              	.L46:
 668 0058 1388     		ldrh	r3, [r2, #0]
 669              	.LBE147:
 670              	.LBE146:
 671              	.LBB148:
 672              	.LBB144:
 673              		.loc 1 257 0
 674 005a 0D78     		ldrb	r5, [r1, #0]	@ zero_extendqisi2
 675              	.LBE144:
 676              	.LBE148:
 677              		.loc 1 539 0
 678 005c 15F0400F 		tst	r5, #64
 679 0060 FAD1     		bne	.L46
 680              	.LVL11:
 681              	.L42:
 682              	.LBE149:
 683              	.LBE151:
 684              	.LBB152:
 685              	.LBB154:
 686              		.loc 1 402 0
 687 0062 46F22655 		movw	r5, #:lower16:1073767718
 688              	.LBE154:
 689              	.LBE152:
 690              	.LBB156:
 691              	.LBB158:
 692              		.loc 1 331 0
 693 0066 46F20650 		movw	r0, #:lower16:1073767686
 694              	.LBE158:
 695              	.LBE156:
 696              	.LBB160:
 697              	.LBB161:
 698              		.loc 1 233 0
 699 006a 46F28651 		movw	r1, #:lower16:1073767814
 700 006e C4F20001 		movt	r1, #:upper16:1073767814
 701              	.LBE161:
 702              	.LBE160:
 703              	.LBB163:
 704              	.LBB157:
 705              		.loc 1 331 0
 706 0072 4FF0000C 		mov	ip, #0	@ movhi
 707 0076 C4F20000 		movt	r0, #:upper16:1073767686
 708              	.LBE157:
 709              	.LBE163:
 710              	.LBB164:
 711              	.LBB153:
ARM GAS  C:\Users\SUZUKI~1\AppData\Local\Temp\cce2ZMta.s 			page 23


 712              		.loc 1 402 0
 713 007a 4FF0FF3E 		mov	lr, #-1	@ movhi
 714 007e C4F20005 		movt	r5, #:upper16:1073767718
 715              	.LBE153:
 716              	.LBE164:
 717              	.LBB165:
 718              	.LBB166:
 719              		.loc 1 257 0
 720 0082 46F26652 		movw	r2, #:lower16:1073767782
 721              	.LVL12:
 722              	.LBE166:
 723              	.LBE165:
 724              	.LBB168:
 725              	.LBB170:
 726              		.loc 1 449 0
 727 0086 46F23653 		movw	r3, #:lower16:1073767734
 728              	.LBE170:
 729              	.LBE168:
 730              	.LBB173:
 731              	.LBB155:
 732              		.loc 1 402 0
 733 008a A5F800E0 		strh	lr, [r5, #0]	@ movhi
 734              	.LBE155:
 735              	.LBE173:
 736              	.LBB174:
 737              	.LBB171:
 738              		.loc 1 449 0
 739 008e C4F20003 		movt	r3, #:upper16:1073767734
 740              	.LBE171:
 741              	.LBE174:
 742              	.LBB175:
 743              	.LBB159:
 744              		.loc 1 331 0
 745 0092 A0F800C0 		strh	ip, [r0, #0]	@ movhi
 746              	.LBE159:
 747              	.LBE175:
 748              	.LBB176:
 749              	.LBB169:
 750              		.loc 1 449 0
 751 0096 4FF07F0E 		mov	lr, #127	@ movhi
 752              	.LBE169:
 753              	.LBE176:
 754              	.LBB177:
 755              	.LBB162:
 756              		.loc 1 233 0
 757 009a 81F800C0 		strb	ip, [r1, #0]
 758              	.LBE162:
 759              	.LBE177:
 760              	.LBB178:
 761              	.LBB167:
 762              		.loc 1 257 0
 763 009e C4F20002 		movt	r2, #:upper16:1073767782
 764 00a2 1278     		ldrb	r2, [r2, #0]	@ zero_extendqisi2
 765              	.LBE167:
 766              	.LBE178:
 767              	.LBB179:
 768              	.LBB172:
ARM GAS  C:\Users\SUZUKI~1\AppData\Local\Temp\cce2ZMta.s 			page 24


 769              		.loc 1 449 0
 770 00a4 A3F800E0 		strh	lr, [r3, #0]	@ movhi
 771              	.LBE172:
 772              	.LBE179:
 773              		.loc 1 109 0
 774 00a8 FFF7FEFF 		bl	CyEnterCriticalSection
 775              		.loc 1 111 0
 776 00ac 46F29653 		movw	r3, #:lower16:1073767830
 777 00b0 C4F20003 		movt	r3, #:upper16:1073767830
 778 00b4 93F800C0 		ldrb	ip, [r3, #0]	@ zero_extendqisi2
 779 00b8 4CF01002 		orr	r2, ip, #16
 780 00bc 1A70     		strb	r2, [r3, #0]
 781              		.loc 1 114 0
 782 00be FFF7FEFF 		bl	CyExitCriticalSection
 783              	.LBE135:
 784              	.LBE134:
 785              		.loc 1 178 0
 786 00c2 0121     		movs	r1, #1
 787              	.LBB180:
 788              	.LBB131:
 789              		.loc 1 149 0
 790 00c4 46F27653 		movw	r3, #:lower16:1073767798
 791              	.LBE131:
 792              	.LBE180:
 793              		.loc 1 178 0
 794 00c8 2170     		strb	r1, [r4, #0]
 795              	.LBB181:
 796              	.LBB133:
 797              		.loc 1 149 0
 798 00ca C4F20003 		movt	r3, #:upper16:1073767798
 799 00ce 1978     		ldrb	r1, [r3, #0]	@ zero_extendqisi2
 800 00d0 41F08002 		orr	r2, r1, #128
 801 00d4 1A70     		strb	r2, [r3, #0]
 802              	.LBE133:
 803              	.LBE181:
 804              		.loc 1 183 0
 805 00d6 38BD     		pop	{r3, r4, r5, pc}
 806              		.cfi_endproc
 807              	.LFE2:
 808              		.size	Counter_ADC_Start, .-Counter_ADC_Start
 809              		.global	Counter_ADC_initVar
 810              		.bss
 811              		.set	.LANCHOR0,. + 0
 812              		.type	Counter_ADC_initVar, %object
 813              		.size	Counter_ADC_initVar, 1
 814              	Counter_ADC_initVar:
 815 0000 00       		.space	1
 816              		.text
 817              	.Letext0:
