ARM GAS  C:\Users\SUZUKI~1\AppData\Local\Temp\cc3mxj1A.s 			page 1


   1              		.syntax unified
   2              		.cpu cortex-m3
   3              		.fpu softvfp
   4              		.eabi_attribute 20, 1
   5              		.eabi_attribute 21, 1
   6              		.eabi_attribute 23, 3
   7              		.eabi_attribute 24, 1
   8              		.eabi_attribute 25, 1
   9              		.eabi_attribute 26, 1
  10              		.eabi_attribute 30, 2
  11              		.eabi_attribute 18, 4
  12              		.thumb
  13              		.file	"CyDmac.c"
  14              		.section	.debug_abbrev,"",%progbits
  15              	.Ldebug_abbrev0:
  16              		.section	.debug_info,"",%progbits
  17              	.Ldebug_info0:
  18              		.section	.debug_line,"",%progbits
  19              	.Ldebug_line0:
  20 0000 C9020000 		.text
  20      02006B00 
  20      00000201 
  20      FB0E0D00 
  20      01010101 
  21              	.Ltext0:
  22              		.cfi_sections	.debug_frame
  23              		.section	.text.CyDmacConfigure,"ax",%progbits
  24              		.align	2
  25              		.global	CyDmacConfigure
  26              		.thumb
  27              		.thumb_func
  28              		.type	CyDmacConfigure, %function
  29              	CyDmacConfigure:
  30              	.LFB0:
  31              		.file 1 ".\\Generated_Source\\PSoC5\\CyDmac.c"
   1:.\Generated_Source\PSoC5/CyDmac.c **** /*******************************************************************************
   2:.\Generated_Source\PSoC5/CyDmac.c **** * File Name: CyDmac.c
   3:.\Generated_Source\PSoC5/CyDmac.c **** * Version 3.10
   4:.\Generated_Source\PSoC5/CyDmac.c **** *
   5:.\Generated_Source\PSoC5/CyDmac.c **** * Description:
   6:.\Generated_Source\PSoC5/CyDmac.c **** *  Provides an API for the DMAC component. The API includes functions for the
   7:.\Generated_Source\PSoC5/CyDmac.c **** *  DMA controller, DMA channels and Transfer Descriptors.
   8:.\Generated_Source\PSoC5/CyDmac.c **** *
   9:.\Generated_Source\PSoC5/CyDmac.c **** *  This API is the library version not the auto generated code that gets
  10:.\Generated_Source\PSoC5/CyDmac.c **** *  generated when the user places a DMA component on the schematic.
  11:.\Generated_Source\PSoC5/CyDmac.c **** *
  12:.\Generated_Source\PSoC5/CyDmac.c **** *  The auto generated code would use the APi's in this module.
  13:.\Generated_Source\PSoC5/CyDmac.c **** *
  14:.\Generated_Source\PSoC5/CyDmac.c **** * Note:
  15:.\Generated_Source\PSoC5/CyDmac.c **** *  This code is endian agnostic.
  16:.\Generated_Source\PSoC5/CyDmac.c **** *
  17:.\Generated_Source\PSoC5/CyDmac.c **** *  The Transfer Descriptor memory can be used as regular memory if the TD's are
  18:.\Generated_Source\PSoC5/CyDmac.c **** *  not being used.
  19:.\Generated_Source\PSoC5/CyDmac.c **** *
  20:.\Generated_Source\PSoC5/CyDmac.c **** *  This code uses the first byte of each TD to manage the free list of TD's.
  21:.\Generated_Source\PSoC5/CyDmac.c **** *  The user can over write this once the TD is allocated.
  22:.\Generated_Source\PSoC5/CyDmac.c **** *
ARM GAS  C:\Users\SUZUKI~1\AppData\Local\Temp\cc3mxj1A.s 			page 2


  23:.\Generated_Source\PSoC5/CyDmac.c **** ********************************************************************************
  24:.\Generated_Source\PSoC5/CyDmac.c **** * Copyright 2008-2012, Cypress Semiconductor Corporation.  All rights reserved.
  25:.\Generated_Source\PSoC5/CyDmac.c **** * You may use this file only in accordance with the license, terms, conditions,
  26:.\Generated_Source\PSoC5/CyDmac.c **** * disclaimers, and limitations in the end user license agreement accompanying
  27:.\Generated_Source\PSoC5/CyDmac.c **** * the software package with which this file was provided.
  28:.\Generated_Source\PSoC5/CyDmac.c **** *******************************************************************************/
  29:.\Generated_Source\PSoC5/CyDmac.c **** 
  30:.\Generated_Source\PSoC5/CyDmac.c **** #include "CyDmac.h"
  31:.\Generated_Source\PSoC5/CyDmac.c **** 
  32:.\Generated_Source\PSoC5/CyDmac.c **** static uint8  CyDmaTdCurrentNumber;                      /* Current Number of free elements in the 
  33:.\Generated_Source\PSoC5/CyDmac.c **** static uint8  CyDmaTdFreeIndex;                          /* Index of the first available TD */
  34:.\Generated_Source\PSoC5/CyDmac.c **** static uint32 CyDmaChannels = DMA_CHANNELS_USED__MASK0;  /* Bit map of DMA channel ownership */
  35:.\Generated_Source\PSoC5/CyDmac.c **** 
  36:.\Generated_Source\PSoC5/CyDmac.c **** 
  37:.\Generated_Source\PSoC5/CyDmac.c **** /*******************************************************************************
  38:.\Generated_Source\PSoC5/CyDmac.c **** * Function Name: CyDmacConfigure
  39:.\Generated_Source\PSoC5/CyDmac.c **** ********************************************************************************
  40:.\Generated_Source\PSoC5/CyDmac.c **** *
  41:.\Generated_Source\PSoC5/CyDmac.c **** * Summary:
  42:.\Generated_Source\PSoC5/CyDmac.c **** *  Creates a linked list of all the TDs to be allocated. This function is called
  43:.\Generated_Source\PSoC5/CyDmac.c **** *  by the startup code; you do not normally need to call it. You could call this
  44:.\Generated_Source\PSoC5/CyDmac.c **** *  function if all of the DMA channels are inactive.
  45:.\Generated_Source\PSoC5/CyDmac.c **** *
  46:.\Generated_Source\PSoC5/CyDmac.c **** * Parameters:
  47:.\Generated_Source\PSoC5/CyDmac.c **** *  None
  48:.\Generated_Source\PSoC5/CyDmac.c **** *
  49:.\Generated_Source\PSoC5/CyDmac.c **** * Return:
  50:.\Generated_Source\PSoC5/CyDmac.c **** *  None
  51:.\Generated_Source\PSoC5/CyDmac.c **** *
  52:.\Generated_Source\PSoC5/CyDmac.c **** *******************************************************************************/
  53:.\Generated_Source\PSoC5/CyDmac.c **** void CyDmacConfigure(void) 
  54:.\Generated_Source\PSoC5/CyDmac.c **** {
  32              		.loc 1 54 0
  33              		.cfi_startproc
  34              		@ args = 0, pretend = 0, frame = 0
  35              		@ frame_needed = 0, uses_anonymous_args = 0
  36              		@ link register save eliminated.
  55:.\Generated_Source\PSoC5/CyDmac.c ****     uint8 index;
  56:.\Generated_Source\PSoC5/CyDmac.c **** 
  57:.\Generated_Source\PSoC5/CyDmac.c ****     /* Set TD list variables. */
  58:.\Generated_Source\PSoC5/CyDmac.c ****     CyDmaTdFreeIndex     = CY_DMA_NUMBEROF_TDS - 1;
  37              		.loc 1 58 0
  38 0000 40F20002 		movw	r2, #:lower16:.LANCHOR0
  39 0004 C0F20002 		movt	r2, #:upper16:.LANCHOR0
  59:.\Generated_Source\PSoC5/CyDmac.c ****     CyDmaTdCurrentNumber = CY_DMA_NUMBEROF_TDS;
  40              		.loc 1 59 0
  41 0008 6FF07F0C 		mvn	ip, #127
  42 000c 47F6F830 		movw	r0, #:lower16:1073773560
  43 0010 82F801C0 		strb	ip, [r2, #1]
  44 0014 C4F20000 		movt	r0, #:upper16:1073773560
  60:.\Generated_Source\PSoC5/CyDmac.c **** 
  61:.\Generated_Source\PSoC5/CyDmac.c ****     /* Make TD free list. */
  62:.\Generated_Source\PSoC5/CyDmac.c ****     for(index = CY_DMA_NUMBEROF_TDS - 1; index; index--)
  63:.\Generated_Source\PSoC5/CyDmac.c ****     {
  64:.\Generated_Source\PSoC5/CyDmac.c ****         CY_DMA_TDMEM_STRUCT_PTR[index].TD0[0] = index - 1;
  45              		.loc 1 64 0
  46 0018 7E23     		movs	r3, #126
ARM GAS  C:\Users\SUZUKI~1\AppData\Local\Temp\cc3mxj1A.s 			page 3


  47              	.LVL0:
  48 001a 47F6F031 		movw	r1, #:lower16:1073773552
  49              		.loc 1 58 0
  50 001e 4FF07F0C 		mov	ip, #127
  51 0022 82F800C0 		strb	ip, [r2, #0]
  52              		.loc 1 64 0
  53 0026 C4F20001 		movt	r1, #:upper16:1073773552
  54 002a 0370     		strb	r3, [r0, #0]
  55              	.L2:
  56 002c 5A1E     		subs	r2, r3, #1
  57 002e D0B2     		uxtb	r0, r2
  58              	.LVL1:
  59 0030 431E     		subs	r3, r0, #1
  60 0032 0A46     		mov	r2, r1
  61 0034 02F80809 		strb	r0, [r2], #-8
  62 0038 DBB2     		uxtb	r3, r3
  63              	.LVL2:
  64 003a 01F8083C 		strb	r3, [r1, #-8]
  65 003e A2F10801 		sub	r1, r2, #8
  66              		.loc 1 62 0
  67 0042 002B     		cmp	r3, #0
  68 0044 F2D1     		bne	.L2
  65:.\Generated_Source\PSoC5/CyDmac.c ****     }
  66:.\Generated_Source\PSoC5/CyDmac.c **** 
  67:.\Generated_Source\PSoC5/CyDmac.c ****     /* Make the last one point to zero. */
  68:.\Generated_Source\PSoC5/CyDmac.c ****     CY_DMA_TDMEM_STRUCT_PTR[index].TD0[0] = 0;
  69              		.loc 1 68 0
  70 0046 47F60001 		movw	r1, #:lower16:1073772544
  71 004a C4F20001 		movt	r1, #:upper16:1073772544
  72 004e 0B70     		strb	r3, [r1, #0]
  69:.\Generated_Source\PSoC5/CyDmac.c **** }
  73              		.loc 1 69 0
  74 0050 7047     		bx	lr
  75              		.cfi_endproc
  76              	.LFE0:
  77              		.size	CyDmacConfigure, .-CyDmacConfigure
  78 0052 00BF     		.section	.text.CyDmacError,"ax",%progbits
  79              		.align	2
  80              		.global	CyDmacError
  81              		.thumb
  82              		.thumb_func
  83              		.type	CyDmacError, %function
  84              	CyDmacError:
  85              	.LFB1:
  70:.\Generated_Source\PSoC5/CyDmac.c **** 
  71:.\Generated_Source\PSoC5/CyDmac.c **** 
  72:.\Generated_Source\PSoC5/CyDmac.c **** /*******************************************************************************
  73:.\Generated_Source\PSoC5/CyDmac.c **** * Function Name: CyDmacError
  74:.\Generated_Source\PSoC5/CyDmac.c **** ********************************************************************************
  75:.\Generated_Source\PSoC5/CyDmac.c **** *
  76:.\Generated_Source\PSoC5/CyDmac.c **** * Summary:
  77:.\Generated_Source\PSoC5/CyDmac.c **** *  Returns errors of the last failed DMA transaction.
  78:.\Generated_Source\PSoC5/CyDmac.c **** *
  79:.\Generated_Source\PSoC5/CyDmac.c **** * Parameters:
  80:.\Generated_Source\PSoC5/CyDmac.c **** *  None
  81:.\Generated_Source\PSoC5/CyDmac.c **** *
  82:.\Generated_Source\PSoC5/CyDmac.c **** * Return:
ARM GAS  C:\Users\SUZUKI~1\AppData\Local\Temp\cc3mxj1A.s 			page 4


  83:.\Generated_Source\PSoC5/CyDmac.c **** *  Errors of the last failed DMA transaction.
  84:.\Generated_Source\PSoC5/CyDmac.c **** *
  85:.\Generated_Source\PSoC5/CyDmac.c **** *  DMAC_PERIPH_ERR:
  86:.\Generated_Source\PSoC5/CyDmac.c **** *   Set to 1 when a peripheral responds to a bus transaction with an error
  87:.\Generated_Source\PSoC5/CyDmac.c **** *   response.
  88:.\Generated_Source\PSoC5/CyDmac.c **** *
  89:.\Generated_Source\PSoC5/CyDmac.c **** *  DMAC_UNPOP_ACC:
  90:.\Generated_Source\PSoC5/CyDmac.c **** *   Set to 1 when an access is attempted to an invalid address.
  91:.\Generated_Source\PSoC5/CyDmac.c **** *
  92:.\Generated_Source\PSoC5/CyDmac.c **** *  DMAC_BUS_TIMEOUT:
  93:.\Generated_Source\PSoC5/CyDmac.c **** *   Set to 1 when a bus timeout occurs. Cleared by writing a 1. Timeout values
  94:.\Generated_Source\PSoC5/CyDmac.c **** *   are determined by the BUS_TIMEOUT field in the PHUBCFG register.
  95:.\Generated_Source\PSoC5/CyDmac.c **** *
  96:.\Generated_Source\PSoC5/CyDmac.c **** * Theory:
  97:.\Generated_Source\PSoC5/CyDmac.c **** *  Once an error occurs the error bits are sticky and are only cleared by a
  98:.\Generated_Source\PSoC5/CyDmac.c **** *  write 1 to the error register.
  99:.\Generated_Source\PSoC5/CyDmac.c **** *
 100:.\Generated_Source\PSoC5/CyDmac.c **** *******************************************************************************/
 101:.\Generated_Source\PSoC5/CyDmac.c **** uint8 CyDmacError(void) 
 102:.\Generated_Source\PSoC5/CyDmac.c **** {
  86              		.loc 1 102 0
  87              		.cfi_startproc
  88              		@ args = 0, pretend = 0, frame = 0
  89              		@ frame_needed = 0, uses_anonymous_args = 0
  90              		@ link register save eliminated.
 103:.\Generated_Source\PSoC5/CyDmac.c ****     return(0x0Fu & *CY_DMA_ERR_PTR);
  91              		.loc 1 103 0
  92 0000 47F20403 		movw	r3, #:lower16:1073770500
  93 0004 C4F20003 		movt	r3, #:upper16:1073770500
  94 0008 1868     		ldr	r0, [r3, #0]
 104:.\Generated_Source\PSoC5/CyDmac.c **** }
  95              		.loc 1 104 0
  96 000a 00F00F00 		and	r0, r0, #15
  97 000e 7047     		bx	lr
  98              		.cfi_endproc
  99              	.LFE1:
 100              		.size	CyDmacError, .-CyDmacError
 101              		.section	.text.CyDmacClearError,"ax",%progbits
 102              		.align	2
 103              		.global	CyDmacClearError
 104              		.thumb
 105              		.thumb_func
 106              		.type	CyDmacClearError, %function
 107              	CyDmacClearError:
 108              	.LFB2:
 105:.\Generated_Source\PSoC5/CyDmac.c **** 
 106:.\Generated_Source\PSoC5/CyDmac.c **** 
 107:.\Generated_Source\PSoC5/CyDmac.c **** /*******************************************************************************
 108:.\Generated_Source\PSoC5/CyDmac.c **** * Function Name: CyDmacClearError
 109:.\Generated_Source\PSoC5/CyDmac.c **** ********************************************************************************
 110:.\Generated_Source\PSoC5/CyDmac.c **** *
 111:.\Generated_Source\PSoC5/CyDmac.c **** * Summary:
 112:.\Generated_Source\PSoC5/CyDmac.c **** *  Clears the error bits in the error register of the DMAC.
 113:.\Generated_Source\PSoC5/CyDmac.c **** *
 114:.\Generated_Source\PSoC5/CyDmac.c **** * Parameters:
 115:.\Generated_Source\PSoC5/CyDmac.c **** * error:
 116:.\Generated_Source\PSoC5/CyDmac.c **** *   Clears the error bits in the DMAC error register.
ARM GAS  C:\Users\SUZUKI~1\AppData\Local\Temp\cc3mxj1A.s 			page 5


 117:.\Generated_Source\PSoC5/CyDmac.c **** *
 118:.\Generated_Source\PSoC5/CyDmac.c **** *  DMAC_PERIPH_ERR:
 119:.\Generated_Source\PSoC5/CyDmac.c **** *   Set to 1 when a peripheral responds to a bus transaction with an error
 120:.\Generated_Source\PSoC5/CyDmac.c **** *   response.
 121:.\Generated_Source\PSoC5/CyDmac.c **** *
 122:.\Generated_Source\PSoC5/CyDmac.c **** *  DMAC_UNPOP_ACC:
 123:.\Generated_Source\PSoC5/CyDmac.c **** *   Set to 1 when an access is attempted to an invalid address.
 124:.\Generated_Source\PSoC5/CyDmac.c **** *
 125:.\Generated_Source\PSoC5/CyDmac.c **** *  DMAC_BUS_TIMEOUT:
 126:.\Generated_Source\PSoC5/CyDmac.c **** *   Set to 1 when a bus timeout occurs. Cleared by writing a 1. Timeout values
 127:.\Generated_Source\PSoC5/CyDmac.c **** *   are determined by the BUS_TIMEOUT field in the PHUBCFG register.
 128:.\Generated_Source\PSoC5/CyDmac.c **** *
 129:.\Generated_Source\PSoC5/CyDmac.c **** * Return:
 130:.\Generated_Source\PSoC5/CyDmac.c **** *  None
 131:.\Generated_Source\PSoC5/CyDmac.c **** *
 132:.\Generated_Source\PSoC5/CyDmac.c **** * Theory:
 133:.\Generated_Source\PSoC5/CyDmac.c **** *  Once an error occurs the error bits are sticky and are only cleared by a
 134:.\Generated_Source\PSoC5/CyDmac.c **** *  write 1 to the error register.
 135:.\Generated_Source\PSoC5/CyDmac.c **** *
 136:.\Generated_Source\PSoC5/CyDmac.c **** *******************************************************************************/
 137:.\Generated_Source\PSoC5/CyDmac.c **** void CyDmacClearError(uint8 error) 
 138:.\Generated_Source\PSoC5/CyDmac.c **** {
 109              		.loc 1 138 0
 110              		.cfi_startproc
 111              		@ args = 0, pretend = 0, frame = 0
 112              		@ frame_needed = 0, uses_anonymous_args = 0
 113              		@ link register save eliminated.
 114              	.LVL3:
 139:.\Generated_Source\PSoC5/CyDmac.c ****     *CY_DMA_ERR_PTR = 0x0Fu & error;
 115              		.loc 1 139 0
 116 0000 47F20403 		movw	r3, #:lower16:1073770500
 117 0004 00F00F00 		and	r0, r0, #15
 118              	.LVL4:
 119 0008 C4F20003 		movt	r3, #:upper16:1073770500
 120 000c 1860     		str	r0, [r3, #0]
 140:.\Generated_Source\PSoC5/CyDmac.c **** }
 121              		.loc 1 140 0
 122 000e 7047     		bx	lr
 123              		.cfi_endproc
 124              	.LFE2:
 125              		.size	CyDmacClearError, .-CyDmacClearError
 126              		.section	.text.CyDmacErrorAddress,"ax",%progbits
 127              		.align	2
 128              		.global	CyDmacErrorAddress
 129              		.thumb
 130              		.thumb_func
 131              		.type	CyDmacErrorAddress, %function
 132              	CyDmacErrorAddress:
 133              	.LFB3:
 141:.\Generated_Source\PSoC5/CyDmac.c **** 
 142:.\Generated_Source\PSoC5/CyDmac.c **** 
 143:.\Generated_Source\PSoC5/CyDmac.c **** /*******************************************************************************
 144:.\Generated_Source\PSoC5/CyDmac.c **** * Function Name: CyDmacErrorAddress
 145:.\Generated_Source\PSoC5/CyDmac.c **** ********************************************************************************
 146:.\Generated_Source\PSoC5/CyDmac.c **** *
 147:.\Generated_Source\PSoC5/CyDmac.c **** * Summary:
 148:.\Generated_Source\PSoC5/CyDmac.c **** *  When an DMAC_BUS_TIMEOUT, DMAC_UNPOP_ACC and DMAC_PERIPH_ERR occurs the
ARM GAS  C:\Users\SUZUKI~1\AppData\Local\Temp\cc3mxj1A.s 			page 6


 149:.\Generated_Source\PSoC5/CyDmac.c **** *  address of the error is written to the error address register and can be read
 150:.\Generated_Source\PSoC5/CyDmac.c **** *  with this function.
 151:.\Generated_Source\PSoC5/CyDmac.c **** *
 152:.\Generated_Source\PSoC5/CyDmac.c **** *  If there are multiple errors, only the address of the first is saved.
 153:.\Generated_Source\PSoC5/CyDmac.c **** *
 154:.\Generated_Source\PSoC5/CyDmac.c **** * Parameters:
 155:.\Generated_Source\PSoC5/CyDmac.c **** *  None
 156:.\Generated_Source\PSoC5/CyDmac.c **** *
 157:.\Generated_Source\PSoC5/CyDmac.c **** * Return:
 158:.\Generated_Source\PSoC5/CyDmac.c **** *  The address that caused the error.
 159:.\Generated_Source\PSoC5/CyDmac.c **** *
 160:.\Generated_Source\PSoC5/CyDmac.c **** *******************************************************************************/
 161:.\Generated_Source\PSoC5/CyDmac.c **** uint32 CyDmacErrorAddress(void) 
 162:.\Generated_Source\PSoC5/CyDmac.c **** {
 134              		.loc 1 162 0
 135              		.cfi_startproc
 136              		@ args = 0, pretend = 0, frame = 0
 137              		@ frame_needed = 0, uses_anonymous_args = 0
 138              		@ link register save eliminated.
 163:.\Generated_Source\PSoC5/CyDmac.c ****     return(CY_GET_REG32(CY_DMA_ERR_ADR_PTR));
 139              		.loc 1 163 0
 140 0000 47F20803 		movw	r3, #:lower16:1073770504
 141 0004 C4F20003 		movt	r3, #:upper16:1073770504
 142 0008 1868     		ldr	r0, [r3, #0]
 164:.\Generated_Source\PSoC5/CyDmac.c **** }
 143              		.loc 1 164 0
 144 000a 7047     		bx	lr
 145              		.cfi_endproc
 146              	.LFE3:
 147              		.size	CyDmacErrorAddress, .-CyDmacErrorAddress
 148              		.section	.text.CyDmaChEnable,"ax",%progbits
 149              		.align	2
 150              		.global	CyDmaChEnable
 151              		.thumb
 152              		.thumb_func
 153              		.type	CyDmaChEnable, %function
 154              	CyDmaChEnable:
 155              	.LFB6:
 165:.\Generated_Source\PSoC5/CyDmac.c **** 
 166:.\Generated_Source\PSoC5/CyDmac.c **** 
 167:.\Generated_Source\PSoC5/CyDmac.c **** /*******************************************************************************
 168:.\Generated_Source\PSoC5/CyDmac.c **** * Function Name: CyDmaChAlloc
 169:.\Generated_Source\PSoC5/CyDmac.c **** ********************************************************************************
 170:.\Generated_Source\PSoC5/CyDmac.c **** *
 171:.\Generated_Source\PSoC5/CyDmac.c **** * Summary:
 172:.\Generated_Source\PSoC5/CyDmac.c **** *  Allocates a channel from the DMAC to be used in all functions that require a
 173:.\Generated_Source\PSoC5/CyDmac.c **** *  channel handle.
 174:.\Generated_Source\PSoC5/CyDmac.c **** *
 175:.\Generated_Source\PSoC5/CyDmac.c **** * Parameters:
 176:.\Generated_Source\PSoC5/CyDmac.c **** *  None
 177:.\Generated_Source\PSoC5/CyDmac.c **** *
 178:.\Generated_Source\PSoC5/CyDmac.c **** * Return:
 179:.\Generated_Source\PSoC5/CyDmac.c **** *  The allocated channel number. Zero is a valid channel number.
 180:.\Generated_Source\PSoC5/CyDmac.c **** *  DMA_INVALID_CHANNEL is returned if there are no channels available.
 181:.\Generated_Source\PSoC5/CyDmac.c **** *
 182:.\Generated_Source\PSoC5/CyDmac.c **** *******************************************************************************/
 183:.\Generated_Source\PSoC5/CyDmac.c **** uint8 CyDmaChAlloc(void) 
ARM GAS  C:\Users\SUZUKI~1\AppData\Local\Temp\cc3mxj1A.s 			page 7


 184:.\Generated_Source\PSoC5/CyDmac.c **** {
 185:.\Generated_Source\PSoC5/CyDmac.c ****     uint8 interruptState;
 186:.\Generated_Source\PSoC5/CyDmac.c ****     uint8 index;
 187:.\Generated_Source\PSoC5/CyDmac.c ****     uint32 channel;
 188:.\Generated_Source\PSoC5/CyDmac.c **** 
 189:.\Generated_Source\PSoC5/CyDmac.c **** 
 190:.\Generated_Source\PSoC5/CyDmac.c ****     /* Enter critical section! */
 191:.\Generated_Source\PSoC5/CyDmac.c ****     interruptState = CyEnterCriticalSection();
 192:.\Generated_Source\PSoC5/CyDmac.c **** 
 193:.\Generated_Source\PSoC5/CyDmac.c ****     /* Look for a free channel. */
 194:.\Generated_Source\PSoC5/CyDmac.c ****     for(index = 0, channel = 1; index < CY_DMA_NUMBEROF_CHANNELS; index++, channel <<= 1)
 195:.\Generated_Source\PSoC5/CyDmac.c ****     {
 196:.\Generated_Source\PSoC5/CyDmac.c ****         if(!(CyDmaChannels & channel))
 197:.\Generated_Source\PSoC5/CyDmac.c ****         {
 198:.\Generated_Source\PSoC5/CyDmac.c ****             /* Mark the channel as used. */
 199:.\Generated_Source\PSoC5/CyDmac.c ****             CyDmaChannels |= channel;
 200:.\Generated_Source\PSoC5/CyDmac.c ****             break;
 201:.\Generated_Source\PSoC5/CyDmac.c ****         }
 202:.\Generated_Source\PSoC5/CyDmac.c ****     }
 203:.\Generated_Source\PSoC5/CyDmac.c **** 
 204:.\Generated_Source\PSoC5/CyDmac.c ****     if(index >= CY_DMA_NUMBEROF_CHANNELS)
 205:.\Generated_Source\PSoC5/CyDmac.c ****     {
 206:.\Generated_Source\PSoC5/CyDmac.c ****         index = CY_DMA_INVALID_CHANNEL;
 207:.\Generated_Source\PSoC5/CyDmac.c ****     }
 208:.\Generated_Source\PSoC5/CyDmac.c **** 
 209:.\Generated_Source\PSoC5/CyDmac.c ****     /* Exit critical section! */
 210:.\Generated_Source\PSoC5/CyDmac.c ****     CyExitCriticalSection(interruptState);
 211:.\Generated_Source\PSoC5/CyDmac.c **** 
 212:.\Generated_Source\PSoC5/CyDmac.c ****     return(index);
 213:.\Generated_Source\PSoC5/CyDmac.c **** }
 214:.\Generated_Source\PSoC5/CyDmac.c **** 
 215:.\Generated_Source\PSoC5/CyDmac.c **** 
 216:.\Generated_Source\PSoC5/CyDmac.c **** /*******************************************************************************
 217:.\Generated_Source\PSoC5/CyDmac.c **** * Function Name: CyDmaChFree
 218:.\Generated_Source\PSoC5/CyDmac.c **** ********************************************************************************
 219:.\Generated_Source\PSoC5/CyDmac.c **** *
 220:.\Generated_Source\PSoC5/CyDmac.c **** * Summary:
 221:.\Generated_Source\PSoC5/CyDmac.c **** *  Frees a channel allocated by DmaChAlloc().
 222:.\Generated_Source\PSoC5/CyDmac.c **** *
 223:.\Generated_Source\PSoC5/CyDmac.c **** * Parameters:
 224:.\Generated_Source\PSoC5/CyDmac.c **** *  uint8 chHandle:
 225:.\Generated_Source\PSoC5/CyDmac.c **** *   The handle previously returned by CyDmaChAlloc() or DMA_DmaInitalize().
 226:.\Generated_Source\PSoC5/CyDmac.c **** *
 227:.\Generated_Source\PSoC5/CyDmac.c **** * Return:
 228:.\Generated_Source\PSoC5/CyDmac.c **** *  CYRET_SUCCESS if successful.
 229:.\Generated_Source\PSoC5/CyDmac.c **** *  CYRET_BAD_PARAM if chHandle is invalid.
 230:.\Generated_Source\PSoC5/CyDmac.c **** *
 231:.\Generated_Source\PSoC5/CyDmac.c **** *******************************************************************************/
 232:.\Generated_Source\PSoC5/CyDmac.c **** cystatus CyDmaChFree(uint8 chHandle) 
 233:.\Generated_Source\PSoC5/CyDmac.c **** {
 234:.\Generated_Source\PSoC5/CyDmac.c ****     cystatus status = CYRET_BAD_PARAM;
 235:.\Generated_Source\PSoC5/CyDmac.c ****     uint8 interruptState;
 236:.\Generated_Source\PSoC5/CyDmac.c **** 
 237:.\Generated_Source\PSoC5/CyDmac.c ****     if(chHandle < CY_DMA_NUMBEROF_CHANNELS)
 238:.\Generated_Source\PSoC5/CyDmac.c ****     {
 239:.\Generated_Source\PSoC5/CyDmac.c ****         /* Enter critical section */
 240:.\Generated_Source\PSoC5/CyDmac.c ****         interruptState = CyEnterCriticalSection();
ARM GAS  C:\Users\SUZUKI~1\AppData\Local\Temp\cc3mxj1A.s 			page 8


 241:.\Generated_Source\PSoC5/CyDmac.c **** 
 242:.\Generated_Source\PSoC5/CyDmac.c ****         /* Clear the bit mask that keeps track of ownership. */
 243:.\Generated_Source\PSoC5/CyDmac.c ****         CyDmaChannels &= ~(1 << chHandle);
 244:.\Generated_Source\PSoC5/CyDmac.c **** 
 245:.\Generated_Source\PSoC5/CyDmac.c ****         /* Exit critical section */
 246:.\Generated_Source\PSoC5/CyDmac.c ****         CyExitCriticalSection(interruptState);
 247:.\Generated_Source\PSoC5/CyDmac.c ****         status = CYRET_SUCCESS;
 248:.\Generated_Source\PSoC5/CyDmac.c ****     }
 249:.\Generated_Source\PSoC5/CyDmac.c **** 
 250:.\Generated_Source\PSoC5/CyDmac.c ****     return(status);
 251:.\Generated_Source\PSoC5/CyDmac.c **** }
 252:.\Generated_Source\PSoC5/CyDmac.c **** 
 253:.\Generated_Source\PSoC5/CyDmac.c **** 
 254:.\Generated_Source\PSoC5/CyDmac.c **** /*******************************************************************************
 255:.\Generated_Source\PSoC5/CyDmac.c **** * Function Name: CyDmaChEnable
 256:.\Generated_Source\PSoC5/CyDmac.c **** ********************************************************************************
 257:.\Generated_Source\PSoC5/CyDmac.c **** *
 258:.\Generated_Source\PSoC5/CyDmac.c **** * Summary:
 259:.\Generated_Source\PSoC5/CyDmac.c **** *  Enables the DMA channel. A software or hardware request still must happen
 260:.\Generated_Source\PSoC5/CyDmac.c **** *  before the channel is executed.
 261:.\Generated_Source\PSoC5/CyDmac.c **** *
 262:.\Generated_Source\PSoC5/CyDmac.c **** * Parameters:
 263:.\Generated_Source\PSoC5/CyDmac.c **** *  uint8 chHandle:
 264:.\Generated_Source\PSoC5/CyDmac.c **** *   A handle previously returned by CyDmaChAlloc() or DMA_DmaInitalize().
 265:.\Generated_Source\PSoC5/CyDmac.c **** *
 266:.\Generated_Source\PSoC5/CyDmac.c **** *  uint8 preserveTds:
 267:.\Generated_Source\PSoC5/CyDmac.c **** *   Preserves the original TD state when the TD has completed. This parameter
 268:.\Generated_Source\PSoC5/CyDmac.c **** *   applies to all TDs in the channel.
 269:.\Generated_Source\PSoC5/CyDmac.c **** *
 270:.\Generated_Source\PSoC5/CyDmac.c **** *   0 - When a TD is completed, the DMAC leaves the TD configuration values in
 271:.\Generated_Source\PSoC5/CyDmac.c **** *   their current state, and does not restore them to their original state.
 272:.\Generated_Source\PSoC5/CyDmac.c **** *
 273:.\Generated_Source\PSoC5/CyDmac.c **** *   1 - When a TD is completed, the DMAC restores the original configuration
 274:.\Generated_Source\PSoC5/CyDmac.c **** *   values of the TD.
 275:.\Generated_Source\PSoC5/CyDmac.c **** *
 276:.\Generated_Source\PSoC5/CyDmac.c **** *  When preserveTds is set, the TD slot that equals the channel number becomes
 277:.\Generated_Source\PSoC5/CyDmac.c **** *  RESERVED and that becomes where the working registers exist. So, for example,
 278:.\Generated_Source\PSoC5/CyDmac.c **** *  if you are using CH06 and preserveTds is set, you are not allowed to use TD
 279:.\Generated_Source\PSoC5/CyDmac.c **** *  slot 6. That is reclaimed by the DMA engine for its private use.
 280:.\Generated_Source\PSoC5/CyDmac.c **** *
 281:.\Generated_Source\PSoC5/CyDmac.c **** *  Note Do not chain back to a completed TD if the preserveTds for the channel
 282:.\Generated_Source\PSoC5/CyDmac.c **** *  is set to 0. When a TD has completed preserveTds for the channel set to 0,
 283:.\Generated_Source\PSoC5/CyDmac.c **** *  the transfer count will be at 0. If a TD with a transfer count of 0 is
 284:.\Generated_Source\PSoC5/CyDmac.c **** *  started, the TD will transfer an indefinite amount of data.
 285:.\Generated_Source\PSoC5/CyDmac.c **** *
 286:.\Generated_Source\PSoC5/CyDmac.c **** *  Take extra precautions when using the hardware request (DRQ) option when the
 287:.\Generated_Source\PSoC5/CyDmac.c **** *  preserveTds is set to 0, as you might be requesting the wrong data.
 288:.\Generated_Source\PSoC5/CyDmac.c **** *
 289:.\Generated_Source\PSoC5/CyDmac.c **** * Return:
 290:.\Generated_Source\PSoC5/CyDmac.c **** *  CYRET_SUCCESS if successful.
 291:.\Generated_Source\PSoC5/CyDmac.c **** *  CYRET_BAD_PARAM if chHandle is invalid.
 292:.\Generated_Source\PSoC5/CyDmac.c **** *
 293:.\Generated_Source\PSoC5/CyDmac.c **** *******************************************************************************/
 294:.\Generated_Source\PSoC5/CyDmac.c **** cystatus CyDmaChEnable(uint8 chHandle, uint8 preserveTds) 
 295:.\Generated_Source\PSoC5/CyDmac.c **** {
 156              		.loc 1 295 0
 157              		.cfi_startproc
ARM GAS  C:\Users\SUZUKI~1\AppData\Local\Temp\cc3mxj1A.s 			page 9


 158              		@ args = 0, pretend = 0, frame = 0
 159              		@ frame_needed = 0, uses_anonymous_args = 0
 160              		@ link register save eliminated.
 161              	.LVL5:
 296:.\Generated_Source\PSoC5/CyDmac.c ****     cystatus status = CYRET_BAD_PARAM;
 297:.\Generated_Source\PSoC5/CyDmac.c **** 
 298:.\Generated_Source\PSoC5/CyDmac.c ****     if(chHandle < CY_DMA_NUMBEROF_CHANNELS)
 162              		.loc 1 298 0
 163 0000 1728     		cmp	r0, #23
 164 0002 15D8     		bhi	.L20
 299:.\Generated_Source\PSoC5/CyDmac.c ****     {
 300:.\Generated_Source\PSoC5/CyDmac.c ****         CY_DMA_CH_STRUCT_PTR[chHandle].basic_cfg[0] = (CY_DMA_CH_STRUCT_PTR[chHandle].basic_cfg[0] 
 165              		.loc 1 300 0
 166 0004 47F21003 		movw	r3, #:lower16:1073770512
 167 0008 0001     		lsls	r0, r0, #4
 168              	.LVL6:
 169 000a C4F20003 		movt	r3, #:upper16:1073770512
 170 000e 13F800C0 		ldrb	ip, [r3, r0]	@ zero_extendqisi2
 171 0012 47F21003 		movw	r3, #:lower16:1073770512
 172 0016 0029     		cmp	r1, #0
 173 0018 14BF     		ite	ne
 174 001a 2121     		movne	r1, #33
 175 001c 0121     		moveq	r1, #1
 176              	.LVL7:
 177 001e 0CF0DF02 		and	r2, ip, #223
 178 0022 C4F20003 		movt	r3, #:upper16:1073770512
 179 0026 C318     		adds	r3, r0, r3
 180 0028 1143     		orrs	r1, r1, r2
 181 002a 1970     		strb	r1, [r3, #0]
 182 002c 0020     		movs	r0, #0
 183              	.LVL8:
 184              	.LVL9:
 301:.\Generated_Source\PSoC5/CyDmac.c ****         status = CYRET_SUCCESS;
 302:.\Generated_Source\PSoC5/CyDmac.c ****     }
 303:.\Generated_Source\PSoC5/CyDmac.c **** 
 304:.\Generated_Source\PSoC5/CyDmac.c ****     return(status);
 305:.\Generated_Source\PSoC5/CyDmac.c **** }
 185              		.loc 1 305 0
 186 002e 7047     		bx	lr
 187              	.LVL10:
 188              	.L20:
 189              		.loc 1 298 0
 190 0030 0120     		movs	r0, #1
 191              	.LVL11:
 192 0032 7047     		bx	lr
 193              		.cfi_endproc
 194              	.LFE6:
 195              		.size	CyDmaChEnable, .-CyDmaChEnable
 196              		.section	.text.CyDmaChDisable,"ax",%progbits
 197              		.align	2
 198              		.global	CyDmaChDisable
 199              		.thumb
 200              		.thumb_func
 201              		.type	CyDmaChDisable, %function
 202              	CyDmaChDisable:
 203              	.LFB7:
 306:.\Generated_Source\PSoC5/CyDmac.c **** 
ARM GAS  C:\Users\SUZUKI~1\AppData\Local\Temp\cc3mxj1A.s 			page 10


 307:.\Generated_Source\PSoC5/CyDmac.c **** 
 308:.\Generated_Source\PSoC5/CyDmac.c **** /*******************************************************************************
 309:.\Generated_Source\PSoC5/CyDmac.c **** * Function Name: CyDmaChDisable
 310:.\Generated_Source\PSoC5/CyDmac.c **** ********************************************************************************
 311:.\Generated_Source\PSoC5/CyDmac.c **** *
 312:.\Generated_Source\PSoC5/CyDmac.c **** * Summary:
 313:.\Generated_Source\PSoC5/CyDmac.c **** *  Disables the DMA channel. Once this function is called, CyDmaChStatus() may
 314:.\Generated_Source\PSoC5/CyDmac.c **** *  be called to determine when the channel is disabled and which TDs were being
 315:.\Generated_Source\PSoC5/CyDmac.c **** *  executed.
 316:.\Generated_Source\PSoC5/CyDmac.c **** *
 317:.\Generated_Source\PSoC5/CyDmac.c **** *  If it is currently executing it will allow the current burst to finish
 318:.\Generated_Source\PSoC5/CyDmac.c **** *  naturally.
 319:.\Generated_Source\PSoC5/CyDmac.c **** *
 320:.\Generated_Source\PSoC5/CyDmac.c **** * Parameters:
 321:.\Generated_Source\PSoC5/CyDmac.c **** *  uint8 chHandle:
 322:.\Generated_Source\PSoC5/CyDmac.c **** *   A handle previously returned by CyDmaChAlloc() or DMA_DmaInitalize().
 323:.\Generated_Source\PSoC5/CyDmac.c **** *
 324:.\Generated_Source\PSoC5/CyDmac.c **** * Return:
 325:.\Generated_Source\PSoC5/CyDmac.c **** *  CYRET_SUCCESS if successful.
 326:.\Generated_Source\PSoC5/CyDmac.c **** *  CYRET_BAD_PARAM if chHandle is invalid.
 327:.\Generated_Source\PSoC5/CyDmac.c **** *
 328:.\Generated_Source\PSoC5/CyDmac.c **** *******************************************************************************/
 329:.\Generated_Source\PSoC5/CyDmac.c **** cystatus CyDmaChDisable(uint8 chHandle) 
 330:.\Generated_Source\PSoC5/CyDmac.c **** {
 204              		.loc 1 330 0
 205              		.cfi_startproc
 206              		@ args = 0, pretend = 0, frame = 0
 207              		@ frame_needed = 0, uses_anonymous_args = 0
 208              		@ link register save eliminated.
 209              	.LVL12:
 331:.\Generated_Source\PSoC5/CyDmac.c ****     cystatus status = CYRET_BAD_PARAM;
 332:.\Generated_Source\PSoC5/CyDmac.c **** 
 333:.\Generated_Source\PSoC5/CyDmac.c ****     if(chHandle < CY_DMA_NUMBEROF_CHANNELS)
 210              		.loc 1 333 0
 211 0000 1728     		cmp	r0, #23
 212 0002 0BD8     		bhi	.L25
 334:.\Generated_Source\PSoC5/CyDmac.c ****     {
 335:.\Generated_Source\PSoC5/CyDmac.c ****         CY_DMA_CH_STRUCT_PTR[chHandle].basic_cfg[0] &= ~0x21u;
 213              		.loc 1 335 0
 214 0004 47F21003 		movw	r3, #:lower16:1073770512
 215 0008 0201     		lsls	r2, r0, #4
 216 000a C4F20003 		movt	r3, #:upper16:1073770512
 217 000e 13F802C0 		ldrb	ip, [r3, r2]	@ zero_extendqisi2
 218 0012 0020     		movs	r0, #0
 219              	.LVL13:
 220 0014 0CF0DE01 		and	r1, ip, #222
 221 0018 9954     		strb	r1, [r3, r2]
 222              	.LVL14:
 336:.\Generated_Source\PSoC5/CyDmac.c ****         status = CYRET_SUCCESS;
 337:.\Generated_Source\PSoC5/CyDmac.c ****     }
 338:.\Generated_Source\PSoC5/CyDmac.c **** 
 339:.\Generated_Source\PSoC5/CyDmac.c ****     return(status);
 340:.\Generated_Source\PSoC5/CyDmac.c **** }
 223              		.loc 1 340 0
 224 001a 7047     		bx	lr
 225              	.LVL15:
 226              	.L25:
ARM GAS  C:\Users\SUZUKI~1\AppData\Local\Temp\cc3mxj1A.s 			page 11


 227              		.loc 1 333 0
 228 001c 0120     		movs	r0, #1
 229              	.LVL16:
 230 001e 7047     		bx	lr
 231              		.cfi_endproc
 232              	.LFE7:
 233              		.size	CyDmaChDisable, .-CyDmaChDisable
 234              		.section	.text.CyDmaClearPendingDrq,"ax",%progbits
 235              		.align	2
 236              		.global	CyDmaClearPendingDrq
 237              		.thumb
 238              		.thumb_func
 239              		.type	CyDmaClearPendingDrq, %function
 240              	CyDmaClearPendingDrq:
 241              	.LFB8:
 341:.\Generated_Source\PSoC5/CyDmac.c **** 
 342:.\Generated_Source\PSoC5/CyDmac.c **** 
 343:.\Generated_Source\PSoC5/CyDmac.c **** /*******************************************************************************
 344:.\Generated_Source\PSoC5/CyDmac.c **** * Function Name: CyDmaClearPendingDrq
 345:.\Generated_Source\PSoC5/CyDmac.c **** ********************************************************************************
 346:.\Generated_Source\PSoC5/CyDmac.c **** *
 347:.\Generated_Source\PSoC5/CyDmac.c **** * Summary:
 348:.\Generated_Source\PSoC5/CyDmac.c **** *  Clears pending DMA data request.
 349:.\Generated_Source\PSoC5/CyDmac.c **** *
 350:.\Generated_Source\PSoC5/CyDmac.c **** * Parameters:
 351:.\Generated_Source\PSoC5/CyDmac.c **** *  uint8 chHandle:
 352:.\Generated_Source\PSoC5/CyDmac.c **** *   Handle to the dma channel.
 353:.\Generated_Source\PSoC5/CyDmac.c **** *
 354:.\Generated_Source\PSoC5/CyDmac.c **** * Return:
 355:.\Generated_Source\PSoC5/CyDmac.c **** *  CYRET_SUCCESS if successful.
 356:.\Generated_Source\PSoC5/CyDmac.c **** *  CYRET_BAD_PARAM if chHandle is invalid.
 357:.\Generated_Source\PSoC5/CyDmac.c **** *
 358:.\Generated_Source\PSoC5/CyDmac.c **** *******************************************************************************/
 359:.\Generated_Source\PSoC5/CyDmac.c **** cystatus CyDmaClearPendingDrq(uint8 chHandle) 
 360:.\Generated_Source\PSoC5/CyDmac.c **** {
 242              		.loc 1 360 0
 243              		.cfi_startproc
 244              		@ args = 0, pretend = 0, frame = 0
 245              		@ frame_needed = 0, uses_anonymous_args = 0
 246              		@ link register save eliminated.
 247              	.LVL17:
 361:.\Generated_Source\PSoC5/CyDmac.c ****     cystatus status = CYRET_BAD_PARAM;
 362:.\Generated_Source\PSoC5/CyDmac.c **** 
 363:.\Generated_Source\PSoC5/CyDmac.c ****     if(chHandle < CY_DMA_NUMBEROF_CHANNELS)
 248              		.loc 1 363 0
 249 0000 1728     		cmp	r0, #23
 250 0002 15D8     		bhi	.L30
 364:.\Generated_Source\PSoC5/CyDmac.c ****     {
 365:.\Generated_Source\PSoC5/CyDmac.c ****         CY_DMA_CH_STRUCT_PTR[chHandle].action[0] |= CY_DMA_CPU_TERM_CHAIN;
 251              		.loc 1 365 0
 252 0004 47F21002 		movw	r2, #:lower16:1073770512
 253 0008 0101     		lsls	r1, r0, #4
 254 000a C4F20002 		movt	r2, #:upper16:1073770512
 255 000e 8B18     		adds	r3, r1, r2
 256 0010 93F804C0 		ldrb	ip, [r3, #4]	@ zero_extendqisi2
 257 0014 47F21002 		movw	r2, #:lower16:1073770512
 258 0018 4CF00400 		orr	r0, ip, #4
ARM GAS  C:\Users\SUZUKI~1\AppData\Local\Temp\cc3mxj1A.s 			page 12


 259              	.LVL18:
 260 001c 1871     		strb	r0, [r3, #4]
 261 001e C4F20002 		movt	r2, #:upper16:1073770512
 366:.\Generated_Source\PSoC5/CyDmac.c ****         CY_DMA_CH_STRUCT_PTR[chHandle].basic_cfg[0] |= 0x01u;
 262              		.loc 1 366 0
 263 0022 12F801C0 		ldrb	ip, [r2, r1]	@ zero_extendqisi2
 264 0026 0020     		movs	r0, #0
 265              	.LVL19:
 266 0028 4CF00103 		orr	r3, ip, #1
 267 002c 5354     		strb	r3, [r2, r1]
 268              	.LVL20:
 367:.\Generated_Source\PSoC5/CyDmac.c ****         status = CYRET_SUCCESS;
 368:.\Generated_Source\PSoC5/CyDmac.c ****     }
 369:.\Generated_Source\PSoC5/CyDmac.c **** 
 370:.\Generated_Source\PSoC5/CyDmac.c ****     return(status);
 371:.\Generated_Source\PSoC5/CyDmac.c **** }
 269              		.loc 1 371 0
 270 002e 7047     		bx	lr
 271              	.LVL21:
 272              	.L30:
 273              		.loc 1 363 0
 274 0030 0120     		movs	r0, #1
 275              	.LVL22:
 276 0032 7047     		bx	lr
 277              		.cfi_endproc
 278              	.LFE8:
 279              		.size	CyDmaClearPendingDrq, .-CyDmaClearPendingDrq
 280              		.section	.text.CyDmaChPriority,"ax",%progbits
 281              		.align	2
 282              		.global	CyDmaChPriority
 283              		.thumb
 284              		.thumb_func
 285              		.type	CyDmaChPriority, %function
 286              	CyDmaChPriority:
 287              	.LFB9:
 372:.\Generated_Source\PSoC5/CyDmac.c **** 
 373:.\Generated_Source\PSoC5/CyDmac.c **** 
 374:.\Generated_Source\PSoC5/CyDmac.c **** /*******************************************************************************
 375:.\Generated_Source\PSoC5/CyDmac.c **** * Function Name: CyDmaChPriority
 376:.\Generated_Source\PSoC5/CyDmac.c **** ********************************************************************************
 377:.\Generated_Source\PSoC5/CyDmac.c **** *
 378:.\Generated_Source\PSoC5/CyDmac.c **** * Summary:
 379:.\Generated_Source\PSoC5/CyDmac.c **** *  Sets the priority of a DMA channel. You can use this function when you want
 380:.\Generated_Source\PSoC5/CyDmac.c **** *  to change the priority at run time. If the priority remains the same for a
 381:.\Generated_Source\PSoC5/CyDmac.c **** *  DMA channel, then you can configure the priority in the .cydwr file.
 382:.\Generated_Source\PSoC5/CyDmac.c **** *
 383:.\Generated_Source\PSoC5/CyDmac.c **** * Parameters:
 384:.\Generated_Source\PSoC5/CyDmac.c **** *  uint8 chHandle:
 385:.\Generated_Source\PSoC5/CyDmac.c **** *   A handle previously returned by CyDmaChAlloc() or DMA_DmaInitalize().
 386:.\Generated_Source\PSoC5/CyDmac.c **** *
 387:.\Generated_Source\PSoC5/CyDmac.c **** *  uint8 priority:
 388:.\Generated_Source\PSoC5/CyDmac.c **** *   Priority to set the channel to, 0 - 7.
 389:.\Generated_Source\PSoC5/CyDmac.c **** *
 390:.\Generated_Source\PSoC5/CyDmac.c **** * Return:
 391:.\Generated_Source\PSoC5/CyDmac.c **** *  CYRET_SUCCESS if successful.
 392:.\Generated_Source\PSoC5/CyDmac.c **** *  CYRET_BAD_PARAM if chHandle is invalid.
 393:.\Generated_Source\PSoC5/CyDmac.c **** *
ARM GAS  C:\Users\SUZUKI~1\AppData\Local\Temp\cc3mxj1A.s 			page 13


 394:.\Generated_Source\PSoC5/CyDmac.c **** *******************************************************************************/
 395:.\Generated_Source\PSoC5/CyDmac.c **** cystatus CyDmaChPriority(uint8 chHandle, uint8 priority) 
 396:.\Generated_Source\PSoC5/CyDmac.c **** {
 288              		.loc 1 396 0
 289              		.cfi_startproc
 290              		@ args = 0, pretend = 0, frame = 0
 291              		@ frame_needed = 0, uses_anonymous_args = 0
 292              		@ link register save eliminated.
 293              	.LVL23:
 397:.\Generated_Source\PSoC5/CyDmac.c ****     uint8 value;
 398:.\Generated_Source\PSoC5/CyDmac.c ****     cystatus status = CYRET_BAD_PARAM;
 399:.\Generated_Source\PSoC5/CyDmac.c **** 
 400:.\Generated_Source\PSoC5/CyDmac.c ****     if(chHandle < CY_DMA_NUMBEROF_CHANNELS)
 294              		.loc 1 400 0
 295 0000 1728     		cmp	r0, #23
 296 0002 0ED8     		bhi	.L35
 401:.\Generated_Source\PSoC5/CyDmac.c ****     {
 402:.\Generated_Source\PSoC5/CyDmac.c ****         value = CY_DMA_CH_STRUCT_PTR[chHandle].basic_cfg[0] & ~(0x0Eu);
 297              		.loc 1 402 0
 298 0004 47F21003 		movw	r3, #:lower16:1073770512
 299 0008 0001     		lsls	r0, r0, #4
 300              	.LVL24:
 301 000a C4F20003 		movt	r3, #:upper16:1073770512
 302 000e 1A5C     		ldrb	r2, [r3, r0]	@ zero_extendqisi2
 403:.\Generated_Source\PSoC5/CyDmac.c ****         CY_DMA_CH_STRUCT_PTR[chHandle].basic_cfg[0] = value | ((priority & 0x7u) << 0x01u);
 303              		.loc 1 403 0
 304 0010 01F0070C 		and	ip, r1, #7
 305 0014 02F0F102 		and	r2, r2, #241
 306 0018 42EA4C01 		orr	r1, r2, ip, lsl #1
 307              	.LVL25:
 308 001c 1954     		strb	r1, [r3, r0]
 309 001e 0020     		movs	r0, #0
 310              	.LVL26:
 311              	.LVL27:
 404:.\Generated_Source\PSoC5/CyDmac.c ****         status = CYRET_SUCCESS;
 405:.\Generated_Source\PSoC5/CyDmac.c ****     }
 406:.\Generated_Source\PSoC5/CyDmac.c **** 
 407:.\Generated_Source\PSoC5/CyDmac.c ****     return(status);
 408:.\Generated_Source\PSoC5/CyDmac.c **** }
 312              		.loc 1 408 0
 313 0020 7047     		bx	lr
 314              	.LVL28:
 315              	.L35:
 316              		.loc 1 400 0
 317 0022 0120     		movs	r0, #1
 318              	.LVL29:
 319 0024 7047     		bx	lr
 320              		.cfi_endproc
 321              	.LFE9:
 322              		.size	CyDmaChPriority, .-CyDmaChPriority
 323 0026 00BF     		.section	.text.CyDmaChSetExtendedAddress,"ax",%progbits
 324              		.align	2
 325              		.global	CyDmaChSetExtendedAddress
 326              		.thumb
 327              		.thumb_func
 328              		.type	CyDmaChSetExtendedAddress, %function
 329              	CyDmaChSetExtendedAddress:
ARM GAS  C:\Users\SUZUKI~1\AppData\Local\Temp\cc3mxj1A.s 			page 14


 330              	.LFB10:
 409:.\Generated_Source\PSoC5/CyDmac.c **** 
 410:.\Generated_Source\PSoC5/CyDmac.c **** 
 411:.\Generated_Source\PSoC5/CyDmac.c **** /*******************************************************************************
 412:.\Generated_Source\PSoC5/CyDmac.c **** * Function Name: CyDmaChSetExtendedAddress
 413:.\Generated_Source\PSoC5/CyDmac.c **** ********************************************************************************
 414:.\Generated_Source\PSoC5/CyDmac.c **** *
 415:.\Generated_Source\PSoC5/CyDmac.c **** * Summary:
 416:.\Generated_Source\PSoC5/CyDmac.c **** *  Sets the high 16 bits of the source and destination addresses for the DMA
 417:.\Generated_Source\PSoC5/CyDmac.c **** *  channel (valid for all TDs in the chain).
 418:.\Generated_Source\PSoC5/CyDmac.c **** *
 419:.\Generated_Source\PSoC5/CyDmac.c **** * Parameters:
 420:.\Generated_Source\PSoC5/CyDmac.c **** *  uint8 chHandle:
 421:.\Generated_Source\PSoC5/CyDmac.c **** *   A handle previously returned by CyDmaChAlloc() or DMA_DmaInitalize().
 422:.\Generated_Source\PSoC5/CyDmac.c **** *
 423:.\Generated_Source\PSoC5/CyDmac.c **** *  uint16 source:
 424:.\Generated_Source\PSoC5/CyDmac.c **** *   Upper 16 bit address of the DMA transfer source.
 425:.\Generated_Source\PSoC5/CyDmac.c **** *
 426:.\Generated_Source\PSoC5/CyDmac.c **** *  uint16 destination:
 427:.\Generated_Source\PSoC5/CyDmac.c **** *   Upper 16 bit address of the DMA transfer destination.
 428:.\Generated_Source\PSoC5/CyDmac.c **** *
 429:.\Generated_Source\PSoC5/CyDmac.c **** * Return:
 430:.\Generated_Source\PSoC5/CyDmac.c **** *  CYRET_SUCCESS if successful.
 431:.\Generated_Source\PSoC5/CyDmac.c **** *  CYRET_BAD_PARAM if chHandle is invalid.
 432:.\Generated_Source\PSoC5/CyDmac.c **** *
 433:.\Generated_Source\PSoC5/CyDmac.c **** *******************************************************************************/
 434:.\Generated_Source\PSoC5/CyDmac.c **** cystatus CyDmaChSetExtendedAddress(uint8 chHandle, uint16 source, uint16 destination) \
 435:.\Generated_Source\PSoC5/CyDmac.c ****     
 436:.\Generated_Source\PSoC5/CyDmac.c **** {
 331              		.loc 1 436 0
 332              		.cfi_startproc
 333              		@ args = 0, pretend = 0, frame = 0
 334              		@ frame_needed = 0, uses_anonymous_args = 0
 335              		@ link register save eliminated.
 336              	.LVL30:
 437:.\Generated_Source\PSoC5/CyDmac.c ****     cystatus status = CYRET_BAD_PARAM;
 438:.\Generated_Source\PSoC5/CyDmac.c **** 
 439:.\Generated_Source\PSoC5/CyDmac.c ****     #if(CY_PSOC5A)
 440:.\Generated_Source\PSoC5/CyDmac.c **** 
 441:.\Generated_Source\PSoC5/CyDmac.c ****         /* 0x1FFF8000-0x1FFFFFFF needs to use alias at 0x20008000-0x2000FFFF */
 442:.\Generated_Source\PSoC5/CyDmac.c ****         if(source == 0x1FFF)
 337              		.loc 1 442 0
 338 0000 41F6FF73 		movw	r3, #8191
 443:.\Generated_Source\PSoC5/CyDmac.c ****         {
 444:.\Generated_Source\PSoC5/CyDmac.c ****             source = 0x2000;
 445:.\Generated_Source\PSoC5/CyDmac.c ****         }
 446:.\Generated_Source\PSoC5/CyDmac.c **** 
 447:.\Generated_Source\PSoC5/CyDmac.c ****         if(destination == 0x1FFF)
 339              		.loc 1 447 0
 340 0004 9A42     		cmp	r2, r3
 341 0006 08BF     		it	eq
 342 0008 4FF40052 		moveq	r2, #8192
 343              	.LVL31:
 344              		.loc 1 442 0
 345 000c 9942     		cmp	r1, r3
 346 000e 08BF     		it	eq
 347 0010 4FF40051 		moveq	r1, #8192
ARM GAS  C:\Users\SUZUKI~1\AppData\Local\Temp\cc3mxj1A.s 			page 15


 348              	.LVL32:
 448:.\Generated_Source\PSoC5/CyDmac.c ****         {
 449:.\Generated_Source\PSoC5/CyDmac.c ****             destination = 0x2000;
 450:.\Generated_Source\PSoC5/CyDmac.c ****         }
 451:.\Generated_Source\PSoC5/CyDmac.c **** 
 452:.\Generated_Source\PSoC5/CyDmac.c ****     #endif  /* (CY_PSOC5A) */
 453:.\Generated_Source\PSoC5/CyDmac.c **** 
 454:.\Generated_Source\PSoC5/CyDmac.c **** 
 455:.\Generated_Source\PSoC5/CyDmac.c ****     if(chHandle < CY_DMA_NUMBEROF_CHANNELS)
 349              		.loc 1 455 0
 350 0014 1728     		cmp	r0, #23
 351 0016 08D8     		bhi	.L42
 352              	.LBB2:
 456:.\Generated_Source\PSoC5/CyDmac.c ****     {
 457:.\Generated_Source\PSoC5/CyDmac.c ****         /* Set source address */
 458:.\Generated_Source\PSoC5/CyDmac.c ****         reg16 *convert = (reg16 *) &CY_DMA_CFGMEM_STRUCT_PTR[chHandle].CFG1[0];
 353              		.loc 1 458 0
 354 0018 C300     		lsls	r3, r0, #3
 355 001a 03F1804C 		add	ip, r3, #1073741824
 356 001e 0CF5EC40 		add	r0, ip, #30208
 357              	.LVL33:
 459:.\Generated_Source\PSoC5/CyDmac.c ****         CY_SET_REG16(convert, source);
 358              		.loc 1 459 0
 359 0022 8180     		strh	r1, [r0, #4]	@ movhi
 460:.\Generated_Source\PSoC5/CyDmac.c **** 
 461:.\Generated_Source\PSoC5/CyDmac.c ****         /* Set destination address */
 462:.\Generated_Source\PSoC5/CyDmac.c ****         CY_SET_REG16((reg16 *) &CY_DMA_CFGMEM_STRUCT_PTR[chHandle].CFG1[2], destination);
 360              		.loc 1 462 0
 361 0024 C280     		strh	r2, [r0, #6]	@ movhi
 362 0026 0020     		movs	r0, #0
 363              	.LVL34:
 364              	.LVL35:
 365              	.LBE2:
 463:.\Generated_Source\PSoC5/CyDmac.c ****         status = CYRET_SUCCESS;
 464:.\Generated_Source\PSoC5/CyDmac.c ****     }
 465:.\Generated_Source\PSoC5/CyDmac.c **** 
 466:.\Generated_Source\PSoC5/CyDmac.c ****     return(status);
 467:.\Generated_Source\PSoC5/CyDmac.c **** }
 366              		.loc 1 467 0
 367 0028 7047     		bx	lr
 368              	.LVL36:
 369              	.L42:
 370              		.loc 1 455 0
 371 002a 0120     		movs	r0, #1
 372              	.LVL37:
 373 002c 7047     		bx	lr
 374              		.cfi_endproc
 375              	.LFE10:
 376              		.size	CyDmaChSetExtendedAddress, .-CyDmaChSetExtendedAddress
 377 002e 00BF     		.section	.text.CyDmaChSetInitialTd,"ax",%progbits
 378              		.align	2
 379              		.global	CyDmaChSetInitialTd
 380              		.thumb
 381              		.thumb_func
 382              		.type	CyDmaChSetInitialTd, %function
 383              	CyDmaChSetInitialTd:
 384              	.LFB11:
ARM GAS  C:\Users\SUZUKI~1\AppData\Local\Temp\cc3mxj1A.s 			page 16


 468:.\Generated_Source\PSoC5/CyDmac.c **** 
 469:.\Generated_Source\PSoC5/CyDmac.c **** 
 470:.\Generated_Source\PSoC5/CyDmac.c **** /*******************************************************************************
 471:.\Generated_Source\PSoC5/CyDmac.c **** * Function Name: CyDmaChSetInitialTd
 472:.\Generated_Source\PSoC5/CyDmac.c **** ********************************************************************************
 473:.\Generated_Source\PSoC5/CyDmac.c **** *
 474:.\Generated_Source\PSoC5/CyDmac.c **** * Summary:
 475:.\Generated_Source\PSoC5/CyDmac.c **** *  Sets the initial TD to be executed for the channel when the CyDmaChEnable()
 476:.\Generated_Source\PSoC5/CyDmac.c **** *  function is called.
 477:.\Generated_Source\PSoC5/CyDmac.c **** *
 478:.\Generated_Source\PSoC5/CyDmac.c **** * Parameters:
 479:.\Generated_Source\PSoC5/CyDmac.c **** *  uint8 chHandle:
 480:.\Generated_Source\PSoC5/CyDmac.c **** *   A handle previously returned by CyDmaChAlloc() or DMA_DmaInitialize().
 481:.\Generated_Source\PSoC5/CyDmac.c **** *
 482:.\Generated_Source\PSoC5/CyDmac.c **** *  uint8 startTd:
 483:.\Generated_Source\PSoC5/CyDmac.c **** *   The index of TD to set as the first TD associated with the channel. Zero is
 484:.\Generated_Source\PSoC5/CyDmac.c **** *   a valid TD index.
 485:.\Generated_Source\PSoC5/CyDmac.c **** *
 486:.\Generated_Source\PSoC5/CyDmac.c **** * Return:
 487:.\Generated_Source\PSoC5/CyDmac.c **** *  CYRET_SUCCESS if successful.
 488:.\Generated_Source\PSoC5/CyDmac.c **** *  CYRET_BAD_PARAM if chHandle is invalid.
 489:.\Generated_Source\PSoC5/CyDmac.c **** *
 490:.\Generated_Source\PSoC5/CyDmac.c **** *******************************************************************************/
 491:.\Generated_Source\PSoC5/CyDmac.c **** cystatus CyDmaChSetInitialTd(uint8 chHandle, uint8 startTd) 
 492:.\Generated_Source\PSoC5/CyDmac.c **** {
 385              		.loc 1 492 0
 386              		.cfi_startproc
 387              		@ args = 0, pretend = 0, frame = 0
 388              		@ frame_needed = 0, uses_anonymous_args = 0
 389              		@ link register save eliminated.
 390              	.LVL38:
 493:.\Generated_Source\PSoC5/CyDmac.c ****     cystatus status = CYRET_BAD_PARAM;
 494:.\Generated_Source\PSoC5/CyDmac.c **** 
 495:.\Generated_Source\PSoC5/CyDmac.c ****     if(chHandle < CY_DMA_NUMBEROF_CHANNELS)
 391              		.loc 1 495 0
 392 0000 1728     		cmp	r0, #23
 393 0002 08D8     		bhi	.L47
 496:.\Generated_Source\PSoC5/CyDmac.c ****     {
 497:.\Generated_Source\PSoC5/CyDmac.c ****         CY_DMA_CH_STRUCT_PTR[chHandle].basic_status[1u] = startTd;
 394              		.loc 1 497 0
 395 0004 47F21002 		movw	r2, #:lower16:1073770512
 396 0008 0001     		lsls	r0, r0, #4
 397              	.LVL39:
 398 000a C4F20002 		movt	r2, #:upper16:1073770512
 399 000e 8318     		adds	r3, r0, r2
 400 0010 5972     		strb	r1, [r3, #9]
 401 0012 0020     		movs	r0, #0
 402              	.LVL40:
 403              	.LVL41:
 498:.\Generated_Source\PSoC5/CyDmac.c ****         status = CYRET_SUCCESS;
 499:.\Generated_Source\PSoC5/CyDmac.c ****     }
 500:.\Generated_Source\PSoC5/CyDmac.c **** 
 501:.\Generated_Source\PSoC5/CyDmac.c ****     return(status);
 502:.\Generated_Source\PSoC5/CyDmac.c **** }
 404              		.loc 1 502 0
 405 0014 7047     		bx	lr
 406              	.LVL42:
ARM GAS  C:\Users\SUZUKI~1\AppData\Local\Temp\cc3mxj1A.s 			page 17


 407              	.L47:
 408              		.loc 1 495 0
 409 0016 0120     		movs	r0, #1
 410              	.LVL43:
 411 0018 7047     		bx	lr
 412              		.cfi_endproc
 413              	.LFE11:
 414              		.size	CyDmaChSetInitialTd, .-CyDmaChSetInitialTd
 415 001a 00BF     		.section	.text.CyDmaChSetRequest,"ax",%progbits
 416              		.align	2
 417              		.global	CyDmaChSetRequest
 418              		.thumb
 419              		.thumb_func
 420              		.type	CyDmaChSetRequest, %function
 421              	CyDmaChSetRequest:
 422              	.LFB12:
 503:.\Generated_Source\PSoC5/CyDmac.c **** 
 504:.\Generated_Source\PSoC5/CyDmac.c **** 
 505:.\Generated_Source\PSoC5/CyDmac.c **** /*******************************************************************************
 506:.\Generated_Source\PSoC5/CyDmac.c **** * Function Name: CyDmaChSetRequest
 507:.\Generated_Source\PSoC5/CyDmac.c **** ********************************************************************************
 508:.\Generated_Source\PSoC5/CyDmac.c **** *
 509:.\Generated_Source\PSoC5/CyDmac.c **** * Summary:
 510:.\Generated_Source\PSoC5/CyDmac.c **** *  Allows the caller to terminate a chain of TDs, terminate one TD, or create a
 511:.\Generated_Source\PSoC5/CyDmac.c **** *  direct request to start the DMA channel.
 512:.\Generated_Source\PSoC5/CyDmac.c **** *
 513:.\Generated_Source\PSoC5/CyDmac.c **** * Parameters:
 514:.\Generated_Source\PSoC5/CyDmac.c **** *  uint8 chHandle:
 515:.\Generated_Source\PSoC5/CyDmac.c **** *   A handle previously returned by CyDmaChAlloc() or DMA_DmaInitalize().
 516:.\Generated_Source\PSoC5/CyDmac.c **** *
 517:.\Generated_Source\PSoC5/CyDmac.c **** *  uint8 request:
 518:.\Generated_Source\PSoC5/CyDmac.c **** *   One of the following constants. Each of the constants is a three-bit value.
 519:.\Generated_Source\PSoC5/CyDmac.c **** *
 520:.\Generated_Source\PSoC5/CyDmac.c **** *   CPU_REQ         - Create a direct request to start the DMA channel
 521:.\Generated_Source\PSoC5/CyDmac.c **** *   CPU_TERM_TD     - Terminate one TD
 522:.\Generated_Source\PSoC5/CyDmac.c **** *   CPU_TERM_CHAIN  - Terminate a chain of TDs
 523:.\Generated_Source\PSoC5/CyDmac.c **** *
 524:.\Generated_Source\PSoC5/CyDmac.c **** * Return:
 525:.\Generated_Source\PSoC5/CyDmac.c **** *  CYRET_SUCCESS if successful.
 526:.\Generated_Source\PSoC5/CyDmac.c **** *  CYRET_BAD_PARAM if chHandle is invalid.
 527:.\Generated_Source\PSoC5/CyDmac.c **** *
 528:.\Generated_Source\PSoC5/CyDmac.c **** *******************************************************************************/
 529:.\Generated_Source\PSoC5/CyDmac.c **** cystatus CyDmaChSetRequest(uint8 chHandle, uint8 request) 
 530:.\Generated_Source\PSoC5/CyDmac.c **** {
 423              		.loc 1 530 0
 424              		.cfi_startproc
 425              		@ args = 0, pretend = 0, frame = 0
 426              		@ frame_needed = 0, uses_anonymous_args = 0
 427              		@ link register save eliminated.
 428              	.LVL44:
 531:.\Generated_Source\PSoC5/CyDmac.c ****     cystatus status = CYRET_BAD_PARAM;
 532:.\Generated_Source\PSoC5/CyDmac.c **** 
 533:.\Generated_Source\PSoC5/CyDmac.c ****     if(chHandle < CY_DMA_NUMBEROF_CHANNELS)
 429              		.loc 1 533 0
 430 0000 1728     		cmp	r0, #23
 431 0002 0CD8     		bhi	.L52
 534:.\Generated_Source\PSoC5/CyDmac.c ****     {
ARM GAS  C:\Users\SUZUKI~1\AppData\Local\Temp\cc3mxj1A.s 			page 18


 535:.\Generated_Source\PSoC5/CyDmac.c ****         CY_DMA_CH_STRUCT_PTR[chHandle].action[0u] |= (request & (CPU_REQ | CPU_TERM_TD | CPU_TERM_C
 432              		.loc 1 535 0
 433 0004 47F21003 		movw	r3, #:lower16:1073770512
 434 0008 0001     		lsls	r0, r0, #4
 435              	.LVL45:
 436 000a C4F20003 		movt	r3, #:upper16:1073770512
 437 000e C318     		adds	r3, r0, r3
 438 0010 1A79     		ldrb	r2, [r3, #4]	@ zero_extendqisi2
 439 0012 01F00701 		and	r1, r1, #7
 440              	.LVL46:
 441 0016 1143     		orrs	r1, r1, r2
 442 0018 1971     		strb	r1, [r3, #4]
 443 001a 0020     		movs	r0, #0
 444              	.LVL47:
 445              	.LVL48:
 536:.\Generated_Source\PSoC5/CyDmac.c ****         status = CYRET_SUCCESS;
 537:.\Generated_Source\PSoC5/CyDmac.c ****     }
 538:.\Generated_Source\PSoC5/CyDmac.c **** 
 539:.\Generated_Source\PSoC5/CyDmac.c ****     return(status);
 540:.\Generated_Source\PSoC5/CyDmac.c **** }
 446              		.loc 1 540 0
 447 001c 7047     		bx	lr
 448              	.LVL49:
 449              	.L52:
 450              		.loc 1 533 0
 451 001e 0120     		movs	r0, #1
 452              	.LVL50:
 453 0020 7047     		bx	lr
 454              		.cfi_endproc
 455              	.LFE12:
 456              		.size	CyDmaChSetRequest, .-CyDmaChSetRequest
 457 0022 00BF     		.section	.text.CyDmaChGetRequest,"ax",%progbits
 458              		.align	2
 459              		.global	CyDmaChGetRequest
 460              		.thumb
 461              		.thumb_func
 462              		.type	CyDmaChGetRequest, %function
 463              	CyDmaChGetRequest:
 464              	.LFB13:
 541:.\Generated_Source\PSoC5/CyDmac.c **** 
 542:.\Generated_Source\PSoC5/CyDmac.c **** 
 543:.\Generated_Source\PSoC5/CyDmac.c **** /*******************************************************************************
 544:.\Generated_Source\PSoC5/CyDmac.c **** * Function Name: CyDmaChGetRequest
 545:.\Generated_Source\PSoC5/CyDmac.c **** ********************************************************************************
 546:.\Generated_Source\PSoC5/CyDmac.c **** *
 547:.\Generated_Source\PSoC5/CyDmac.c **** * Summary:
 548:.\Generated_Source\PSoC5/CyDmac.c **** *  This function allows the caller of CyDmaChSetRequest() to determine if the
 549:.\Generated_Source\PSoC5/CyDmac.c **** *  request was completed.
 550:.\Generated_Source\PSoC5/CyDmac.c **** *
 551:.\Generated_Source\PSoC5/CyDmac.c **** * Parameters:
 552:.\Generated_Source\PSoC5/CyDmac.c **** *  uint8 chHandle:
 553:.\Generated_Source\PSoC5/CyDmac.c **** *   A handle previously returned by CyDmaChAlloc() or DMA_DmaInitalize().
 554:.\Generated_Source\PSoC5/CyDmac.c **** *
 555:.\Generated_Source\PSoC5/CyDmac.c **** * Return:
 556:.\Generated_Source\PSoC5/CyDmac.c **** *  Returns a three-bit field, corresponding to the three bits of the request,
 557:.\Generated_Source\PSoC5/CyDmac.c **** *  which describes the state of the previously posted request. If the value is
 558:.\Generated_Source\PSoC5/CyDmac.c **** *  zero, the request was completed. DMA_INVALID_CHANNEL if the handle is
ARM GAS  C:\Users\SUZUKI~1\AppData\Local\Temp\cc3mxj1A.s 			page 19


 559:.\Generated_Source\PSoC5/CyDmac.c **** *  invalid.
 560:.\Generated_Source\PSoC5/CyDmac.c **** *
 561:.\Generated_Source\PSoC5/CyDmac.c **** *******************************************************************************/
 562:.\Generated_Source\PSoC5/CyDmac.c **** cystatus CyDmaChGetRequest(uint8 chHandle) 
 563:.\Generated_Source\PSoC5/CyDmac.c **** {
 465              		.loc 1 563 0
 466              		.cfi_startproc
 467              		@ args = 0, pretend = 0, frame = 0
 468              		@ frame_needed = 0, uses_anonymous_args = 0
 469              		@ link register save eliminated.
 470              	.LVL51:
 564:.\Generated_Source\PSoC5/CyDmac.c ****     cystatus status = DMA_INVALID_CHANNEL;
 565:.\Generated_Source\PSoC5/CyDmac.c **** 
 566:.\Generated_Source\PSoC5/CyDmac.c ****     if(chHandle < CY_DMA_NUMBEROF_CHANNELS)
 471              		.loc 1 566 0
 472 0000 1728     		cmp	r0, #23
 473 0002 09D8     		bhi	.L57
 567:.\Generated_Source\PSoC5/CyDmac.c ****     {
 568:.\Generated_Source\PSoC5/CyDmac.c ****         status = CY_DMA_CH_STRUCT_PTR[chHandle].action[0u] & (CPU_REQ | CPU_TERM_TD | CPU_TERM_CHAI
 474              		.loc 1 568 0
 475 0004 47F21001 		movw	r1, #:lower16:1073770512
 476 0008 0201     		lsls	r2, r0, #4
 477 000a C4F20001 		movt	r1, #:upper16:1073770512
 478 000e 5318     		adds	r3, r2, r1
 479 0010 1879     		ldrb	r0, [r3, #4]	@ zero_extendqisi2
 480              	.LVL52:
 481 0012 00F00700 		and	r0, r0, #7
 482              	.LVL53:
 483              	.LVL54:
 569:.\Generated_Source\PSoC5/CyDmac.c ****     }
 570:.\Generated_Source\PSoC5/CyDmac.c **** 
 571:.\Generated_Source\PSoC5/CyDmac.c ****     return(status);
 572:.\Generated_Source\PSoC5/CyDmac.c **** }
 484              		.loc 1 572 0
 485 0016 7047     		bx	lr
 486              	.LVL55:
 487              	.L57:
 488              		.loc 1 566 0
 489 0018 FF20     		movs	r0, #255
 490              	.LVL56:
 491 001a 7047     		bx	lr
 492              		.cfi_endproc
 493              	.LFE13:
 494              		.size	CyDmaChGetRequest, .-CyDmaChGetRequest
 495              		.section	.text.CyDmaChStatus,"ax",%progbits
 496              		.align	2
 497              		.global	CyDmaChStatus
 498              		.thumb
 499              		.thumb_func
 500              		.type	CyDmaChStatus, %function
 501              	CyDmaChStatus:
 502              	.LFB14:
 573:.\Generated_Source\PSoC5/CyDmac.c **** 
 574:.\Generated_Source\PSoC5/CyDmac.c **** 
 575:.\Generated_Source\PSoC5/CyDmac.c **** /*******************************************************************************
 576:.\Generated_Source\PSoC5/CyDmac.c **** * Function Name: CyDmaChStatus
 577:.\Generated_Source\PSoC5/CyDmac.c **** ********************************************************************************
ARM GAS  C:\Users\SUZUKI~1\AppData\Local\Temp\cc3mxj1A.s 			page 20


 578:.\Generated_Source\PSoC5/CyDmac.c **** *
 579:.\Generated_Source\PSoC5/CyDmac.c **** * Summary:
 580:.\Generated_Source\PSoC5/CyDmac.c **** *  Determines the status of the DMA channel.
 581:.\Generated_Source\PSoC5/CyDmac.c **** *
 582:.\Generated_Source\PSoC5/CyDmac.c **** * Parameters:
 583:.\Generated_Source\PSoC5/CyDmac.c **** *  uint8 chHandle:
 584:.\Generated_Source\PSoC5/CyDmac.c **** *   A handle previously returned by CyDmaChAlloc() or DMA_DmaInitalize().
 585:.\Generated_Source\PSoC5/CyDmac.c **** *
 586:.\Generated_Source\PSoC5/CyDmac.c **** *  uint8 * currentTd:
 587:.\Generated_Source\PSoC5/CyDmac.c **** *   The address to store the index of the current TD. Can be NULL if the value
 588:.\Generated_Source\PSoC5/CyDmac.c **** *   is not needed.
 589:.\Generated_Source\PSoC5/CyDmac.c **** *
 590:.\Generated_Source\PSoC5/CyDmac.c **** *  uint8 * state:
 591:.\Generated_Source\PSoC5/CyDmac.c **** *   The address to store the state of the channel. Can be NULL if the value is
 592:.\Generated_Source\PSoC5/CyDmac.c **** *   not needed.
 593:.\Generated_Source\PSoC5/CyDmac.c **** *
 594:.\Generated_Source\PSoC5/CyDmac.c **** *   STATUS_TD_ACTIVE
 595:.\Generated_Source\PSoC5/CyDmac.c **** *    0: Channel is not currently being serviced by DMAC
 596:.\Generated_Source\PSoC5/CyDmac.c **** *    1: Channel is currently being serviced by DMAC
 597:.\Generated_Source\PSoC5/CyDmac.c **** *
 598:.\Generated_Source\PSoC5/CyDmac.c **** *   STATUS_CHAIN_ACTIVE
 599:.\Generated_Source\PSoC5/CyDmac.c **** *    0: TD chain is inactive; either no DMA requests have triggered a new chain
 600:.\Generated_Source\PSoC5/CyDmac.c **** *       or the previous chain has completed.
 601:.\Generated_Source\PSoC5/CyDmac.c **** *    1: TD chain has been triggered by a DMA request
 602:.\Generated_Source\PSoC5/CyDmac.c **** *
 603:.\Generated_Source\PSoC5/CyDmac.c **** * Return:
 604:.\Generated_Source\PSoC5/CyDmac.c **** *  CYRET_SUCCESS if successful.
 605:.\Generated_Source\PSoC5/CyDmac.c **** *  CYRET_BAD_PARAM if chHandle is invalid.
 606:.\Generated_Source\PSoC5/CyDmac.c **** *
 607:.\Generated_Source\PSoC5/CyDmac.c **** * Theory:
 608:.\Generated_Source\PSoC5/CyDmac.c **** *   The caller can check on the activity of the Current TD and the Chain.
 609:.\Generated_Source\PSoC5/CyDmac.c **** *
 610:.\Generated_Source\PSoC5/CyDmac.c **** *******************************************************************************/
 611:.\Generated_Source\PSoC5/CyDmac.c **** cystatus CyDmaChStatus(uint8 chHandle, uint8 * currentTd, uint8 * state) 
 612:.\Generated_Source\PSoC5/CyDmac.c **** {
 503              		.loc 1 612 0
 504              		.cfi_startproc
 505              		@ args = 0, pretend = 0, frame = 0
 506              		@ frame_needed = 0, uses_anonymous_args = 0
 507              		@ link register save eliminated.
 508              	.LVL57:
 613:.\Generated_Source\PSoC5/CyDmac.c ****     cystatus status = CYRET_BAD_PARAM;
 614:.\Generated_Source\PSoC5/CyDmac.c **** 
 615:.\Generated_Source\PSoC5/CyDmac.c ****     if(chHandle < CY_DMA_NUMBEROF_CHANNELS)
 509              		.loc 1 615 0
 510 0000 1728     		cmp	r0, #23
 511 0002 17D8     		bhi	.L64
 616:.\Generated_Source\PSoC5/CyDmac.c ****     {
 617:.\Generated_Source\PSoC5/CyDmac.c ****         if(NULL != currentTd)
 512              		.loc 1 617 0
 513 0004 59B1     		cbz	r1, .L61
 618:.\Generated_Source\PSoC5/CyDmac.c ****         {
 619:.\Generated_Source\PSoC5/CyDmac.c ****             *currentTd = CY_DMA_CH_STRUCT_PTR[chHandle].basic_status[1] & 0x7Fu;
 514              		.loc 1 619 0
 515 0006 47F21003 		movw	r3, #:lower16:1073770512
 516 000a 4FEA001C 		lsl	ip, r0, #4
 517 000e C4F20003 		movt	r3, #:upper16:1073770512
ARM GAS  C:\Users\SUZUKI~1\AppData\Local\Temp\cc3mxj1A.s 			page 21


 518 0012 6344     		add	r3, ip, r3
 519 0014 93F809C0 		ldrb	ip, [r3, #9]	@ zero_extendqisi2
 520 0018 0CF07F03 		and	r3, ip, #127
 521 001c 0B70     		strb	r3, [r1, #0]
 522              	.L61:
 620:.\Generated_Source\PSoC5/CyDmac.c ****         }
 621:.\Generated_Source\PSoC5/CyDmac.c **** 
 622:.\Generated_Source\PSoC5/CyDmac.c ****         if(NULL != state)
 523              		.loc 1 622 0
 524 001e 5AB1     		cbz	r2, .L65
 623:.\Generated_Source\PSoC5/CyDmac.c ****         {
 624:.\Generated_Source\PSoC5/CyDmac.c ****             *state= CY_DMA_CH_STRUCT_PTR[chHandle].basic_status[0];
 525              		.loc 1 624 0
 526 0020 47F21001 		movw	r1, #:lower16:1073770512
 527              	.LVL58:
 528 0024 0001     		lsls	r0, r0, #4
 529              	.LVL59:
 530 0026 C4F20001 		movt	r1, #:upper16:1073770512
 531 002a 4318     		adds	r3, r0, r1
 532 002c 197A     		ldrb	r1, [r3, #8]	@ zero_extendqisi2
 533 002e 0020     		movs	r0, #0
 534              	.LVL60:
 535 0030 1170     		strb	r1, [r2, #0]
 536              	.LVL61:
 625:.\Generated_Source\PSoC5/CyDmac.c ****         }
 626:.\Generated_Source\PSoC5/CyDmac.c **** 
 627:.\Generated_Source\PSoC5/CyDmac.c ****         status = CYRET_SUCCESS;
 628:.\Generated_Source\PSoC5/CyDmac.c ****     }
 629:.\Generated_Source\PSoC5/CyDmac.c **** 
 630:.\Generated_Source\PSoC5/CyDmac.c ****     return (status);
 631:.\Generated_Source\PSoC5/CyDmac.c **** }
 537              		.loc 1 631 0
 538 0032 7047     		bx	lr
 539              	.LVL62:
 540              	.L64:
 541              		.loc 1 615 0
 542 0034 0120     		movs	r0, #1
 543              	.LVL63:
 544 0036 7047     		bx	lr
 545              	.LVL64:
 546              	.L65:
 547              		.loc 1 622 0
 548 0038 1046     		mov	r0, r2
 549              	.LVL65:
 550 003a 7047     		bx	lr
 551              		.cfi_endproc
 552              	.LFE14:
 553              		.size	CyDmaChStatus, .-CyDmaChStatus
 554              		.section	.text.CyDmaChSetConfiguration,"ax",%progbits
 555              		.align	2
 556              		.global	CyDmaChSetConfiguration
 557              		.thumb
 558              		.thumb_func
 559              		.type	CyDmaChSetConfiguration, %function
 560              	CyDmaChSetConfiguration:
 561              	.LFB15:
 632:.\Generated_Source\PSoC5/CyDmac.c **** 
ARM GAS  C:\Users\SUZUKI~1\AppData\Local\Temp\cc3mxj1A.s 			page 22


 633:.\Generated_Source\PSoC5/CyDmac.c **** 
 634:.\Generated_Source\PSoC5/CyDmac.c **** /*******************************************************************************
 635:.\Generated_Source\PSoC5/CyDmac.c **** * Function Name: CyDmaChSetConfiguration
 636:.\Generated_Source\PSoC5/CyDmac.c **** ********************************************************************************
 637:.\Generated_Source\PSoC5/CyDmac.c **** *
 638:.\Generated_Source\PSoC5/CyDmac.c **** * Summary:
 639:.\Generated_Source\PSoC5/CyDmac.c **** * Sets configuration information of the channel.
 640:.\Generated_Source\PSoC5/CyDmac.c **** *
 641:.\Generated_Source\PSoC5/CyDmac.c **** * Parameters:
 642:.\Generated_Source\PSoC5/CyDmac.c **** *  uint8 chHandle:
 643:.\Generated_Source\PSoC5/CyDmac.c **** *   A handle previously returned by CyDmaChAlloc() or DMA_DmaInitialize().
 644:.\Generated_Source\PSoC5/CyDmac.c **** *
 645:.\Generated_Source\PSoC5/CyDmac.c **** *  uint8 burstCount:
 646:.\Generated_Source\PSoC5/CyDmac.c **** *   Specifies the size of bursts (1 to 127) the data transfer should be divided
 647:.\Generated_Source\PSoC5/CyDmac.c **** *   into. If this value is zero then the whole transfer is done in one burst.
 648:.\Generated_Source\PSoC5/CyDmac.c **** *
 649:.\Generated_Source\PSoC5/CyDmac.c **** *  uint8 requestPerBurst:
 650:.\Generated_Source\PSoC5/CyDmac.c **** *   The whole of the data can be split into multiple bursts, if this is
 651:.\Generated_Source\PSoC5/CyDmac.c **** *   required to complete the transaction:
 652:.\Generated_Source\PSoC5/CyDmac.c **** *    0: All subsequent bursts after the first burst will be automatically
 653:.\Generated_Source\PSoC5/CyDmac.c **** *       requested and carried out
 654:.\Generated_Source\PSoC5/CyDmac.c **** *    1: All subsequent bursts after the first burst must also be individually
 655:.\Generated_Source\PSoC5/CyDmac.c **** *       requested.
 656:.\Generated_Source\PSoC5/CyDmac.c **** *
 657:.\Generated_Source\PSoC5/CyDmac.c **** *  uint8 tdDone0:
 658:.\Generated_Source\PSoC5/CyDmac.c **** *   Selects one of the TERMOUT0 interrupt lines to signal completion. The line
 659:.\Generated_Source\PSoC5/CyDmac.c **** *   connected to the nrq terminal will determine the TERMOUT0_SEL definition and
 660:.\Generated_Source\PSoC5/CyDmac.c **** *   should be used as supplied by cyfitter.h
 661:.\Generated_Source\PSoC5/CyDmac.c **** *
 662:.\Generated_Source\PSoC5/CyDmac.c **** *  uint8 tdDone1:
 663:.\Generated_Source\PSoC5/CyDmac.c **** *   Selects one of the TERMOUT1 interrupt lines to signal completion. The line
 664:.\Generated_Source\PSoC5/CyDmac.c **** *   connected to the nrq terminal will determine the TERMOUT1_SEL definition and
 665:.\Generated_Source\PSoC5/CyDmac.c **** *   should be used as supplied by cyfitter.h
 666:.\Generated_Source\PSoC5/CyDmac.c **** *
 667:.\Generated_Source\PSoC5/CyDmac.c **** *  uint8 tdStop:
 668:.\Generated_Source\PSoC5/CyDmac.c **** *   Selects one of the TERMIN interrupt lines to signal to the DMAC that the TD
 669:.\Generated_Source\PSoC5/CyDmac.c **** *   should terminate. The signal connected to the trq terminal will determine
 670:.\Generated_Source\PSoC5/CyDmac.c **** *   which TERMIN (termination request) is used.
 671:.\Generated_Source\PSoC5/CyDmac.c **** *
 672:.\Generated_Source\PSoC5/CyDmac.c **** * Return:
 673:.\Generated_Source\PSoC5/CyDmac.c **** *  CYRET_SUCCESS if successful.
 674:.\Generated_Source\PSoC5/CyDmac.c **** *  CYRET_BAD_PARAM if chHandle is invalid.
 675:.\Generated_Source\PSoC5/CyDmac.c **** *
 676:.\Generated_Source\PSoC5/CyDmac.c **** *******************************************************************************/
 677:.\Generated_Source\PSoC5/CyDmac.c **** cystatus CyDmaChSetConfiguration(uint8 chHandle, uint8 burstCount, uint8 requestPerBurst,
 678:.\Generated_Source\PSoC5/CyDmac.c ****                                  uint8 tdDone0, uint8 tdDone1, uint8 tdStop) 
 679:.\Generated_Source\PSoC5/CyDmac.c **** {
 562              		.loc 1 679 0
 563              		.cfi_startproc
 564              		@ args = 8, pretend = 0, frame = 0
 565              		@ frame_needed = 0, uses_anonymous_args = 0
 566              		@ link register save eliminated.
 567              	.LVL66:
 568 0000 30B4     		push	{r4, r5}
 569              	.LCFI0:
 570              		.cfi_def_cfa_offset 8
 680:.\Generated_Source\PSoC5/CyDmac.c ****     cystatus status = CYRET_BAD_PARAM;
ARM GAS  C:\Users\SUZUKI~1\AppData\Local\Temp\cc3mxj1A.s 			page 23


 681:.\Generated_Source\PSoC5/CyDmac.c **** 
 682:.\Generated_Source\PSoC5/CyDmac.c ****     if(chHandle < CY_DMA_NUMBEROF_CHANNELS)
 571              		.loc 1 682 0
 572 0002 1728     		cmp	r0, #23
 573              		.loc 1 679 0
 574 0004 9DF80840 		ldrb	r4, [sp, #8]	@ zero_extendqisi2
 575              		.cfi_offset 5, -4
 576              		.cfi_offset 4, -8
 577              	.LVL67:
 578 0008 9DF80CC0 		ldrb	ip, [sp, #12]	@ zero_extendqisi2
 579              	.LVL68:
 580              		.loc 1 682 0
 581 000c 1FD8     		bhi	.L70
 683:.\Generated_Source\PSoC5/CyDmac.c ****     {
 684:.\Generated_Source\PSoC5/CyDmac.c ****         CY_DMA_CFGMEM_STRUCT_PTR[chHandle].CFG0[0] = (burstCount & 0x7Fu) | ((requestPerBurst & 0x1
 582              		.loc 1 684 0
 583 000e 01F07F01 		and	r1, r1, #127
 584              	.LVL69:
 685:.\Generated_Source\PSoC5/CyDmac.c ****         CY_DMA_CFGMEM_STRUCT_PTR[chHandle].CFG0[1] = ((tdDone1 & 0xFu) << 4) | (tdDone0 & 0xFu);
 585              		.loc 1 685 0
 586 0012 03F00F05 		and	r5, r3, #15
 587              		.loc 1 684 0
 588 0016 C300     		lsls	r3, r0, #3
 589              	.LVL70:
 590 0018 41EAC212 		orr	r2, r1, r2, lsl #7
 591              	.LVL71:
 592              		.loc 1 685 0
 593 001c 45EA0415 		orr	r5, r5, r4, lsl #4
 594              		.loc 1 684 0
 595 0020 03F18043 		add	r3, r3, #1073741824
 596 0024 47F20064 		movw	r4, #:lower16:1073772032
 597              	.LVL72:
 598 0028 03F5EC43 		add	r3, r3, #30208
 686:.\Generated_Source\PSoC5/CyDmac.c ****         CY_DMA_CFGMEM_STRUCT_PTR[chHandle].CFG0[2] = 0x0Fu & tdStop;
 599              		.loc 1 686 0
 600 002c 0CF00F01 		and	r1, ip, #15
 601              		.loc 1 684 0
 602 0030 C4F20004 		movt	r4, #:upper16:1073772032
 687:.\Generated_Source\PSoC5/CyDmac.c ****         CY_DMA_CFGMEM_STRUCT_PTR[chHandle].CFG0[3] = 0; /* burstcount_remain. */
 603              		.loc 1 687 0
 604 0034 4FF0000C 		mov	ip, #0
 605              	.LVL73:
 606              		.loc 1 684 0
 607 0038 D2B2     		uxtb	r2, r2
 608              		.loc 1 685 0
 609 003a EDB2     		uxtb	r5, r5
 610              		.loc 1 684 0
 611 003c 04F83020 		strb	r2, [r4, r0, lsl #3]
 612              		.loc 1 685 0
 613 0040 5D70     		strb	r5, [r3, #1]
 614              		.loc 1 687 0
 615 0042 6046     		mov	r0, ip
 616              	.LVL74:
 617              		.loc 1 686 0
 618 0044 9970     		strb	r1, [r3, #2]
 619              		.loc 1 687 0
 620 0046 83F803C0 		strb	ip, [r3, #3]
ARM GAS  C:\Users\SUZUKI~1\AppData\Local\Temp\cc3mxj1A.s 			page 24


 621              	.LVL75:
 622              	.L68:
 623              	.LVL76:
 688:.\Generated_Source\PSoC5/CyDmac.c **** 
 689:.\Generated_Source\PSoC5/CyDmac.c ****         status = CYRET_SUCCESS;
 690:.\Generated_Source\PSoC5/CyDmac.c ****     }
 691:.\Generated_Source\PSoC5/CyDmac.c **** 
 692:.\Generated_Source\PSoC5/CyDmac.c ****     return (status);
 693:.\Generated_Source\PSoC5/CyDmac.c **** }
 624              		.loc 1 693 0
 625 004a 30BC     		pop	{r4, r5}
 626 004c 7047     		bx	lr
 627              	.LVL77:
 628              	.L70:
 629              		.loc 1 682 0
 630 004e 0120     		movs	r0, #1
 631              	.LVL78:
 632 0050 FBE7     		b	.L68
 633              		.cfi_endproc
 634              	.LFE15:
 635              		.size	CyDmaChSetConfiguration, .-CyDmaChSetConfiguration
 636 0052 00BF     		.section	.text.CyDmaTdFreeCount,"ax",%progbits
 637              		.align	2
 638              		.global	CyDmaTdFreeCount
 639              		.thumb
 640              		.thumb_func
 641              		.type	CyDmaTdFreeCount, %function
 642              	CyDmaTdFreeCount:
 643              	.LFB18:
 694:.\Generated_Source\PSoC5/CyDmac.c **** 
 695:.\Generated_Source\PSoC5/CyDmac.c **** 
 696:.\Generated_Source\PSoC5/CyDmac.c **** /*******************************************************************************
 697:.\Generated_Source\PSoC5/CyDmac.c **** * Function Name: CyDmaTdAllocate
 698:.\Generated_Source\PSoC5/CyDmac.c **** ********************************************************************************
 699:.\Generated_Source\PSoC5/CyDmac.c **** *
 700:.\Generated_Source\PSoC5/CyDmac.c **** * Summary:
 701:.\Generated_Source\PSoC5/CyDmac.c **** *  Allocates a TD for use with an allocated DMA channel.
 702:.\Generated_Source\PSoC5/CyDmac.c **** *
 703:.\Generated_Source\PSoC5/CyDmac.c **** * Parameters:
 704:.\Generated_Source\PSoC5/CyDmac.c **** *  None
 705:.\Generated_Source\PSoC5/CyDmac.c **** *
 706:.\Generated_Source\PSoC5/CyDmac.c **** * Return:
 707:.\Generated_Source\PSoC5/CyDmac.c **** *  Zero-based index of the TD to be used by the caller. Since there are 128 TDs
 708:.\Generated_Source\PSoC5/CyDmac.c **** *  minus the reserved TDs (0 to 23), the value returned would range from 24 to
 709:.\Generated_Source\PSoC5/CyDmac.c **** *  127 not 24 to 128. DMA_INVALID_TD is returned if there are no free TDs
 710:.\Generated_Source\PSoC5/CyDmac.c **** *  available.
 711:.\Generated_Source\PSoC5/CyDmac.c **** *
 712:.\Generated_Source\PSoC5/CyDmac.c **** *******************************************************************************/
 713:.\Generated_Source\PSoC5/CyDmac.c **** uint8 CyDmaTdAllocate(void) 
 714:.\Generated_Source\PSoC5/CyDmac.c **** {
 715:.\Generated_Source\PSoC5/CyDmac.c ****     uint8 interruptState;
 716:.\Generated_Source\PSoC5/CyDmac.c ****     uint8 element = CY_DMA_INVALID_TD;
 717:.\Generated_Source\PSoC5/CyDmac.c **** 
 718:.\Generated_Source\PSoC5/CyDmac.c ****     /* Enter critical section! */
 719:.\Generated_Source\PSoC5/CyDmac.c ****     interruptState = CyEnterCriticalSection();
 720:.\Generated_Source\PSoC5/CyDmac.c **** 
 721:.\Generated_Source\PSoC5/CyDmac.c ****     if(CyDmaTdCurrentNumber > NUMBEROF_CHANNELS)
ARM GAS  C:\Users\SUZUKI~1\AppData\Local\Temp\cc3mxj1A.s 			page 25


 722:.\Generated_Source\PSoC5/CyDmac.c ****     {
 723:.\Generated_Source\PSoC5/CyDmac.c ****         /* Get pointer to the Next available. */
 724:.\Generated_Source\PSoC5/CyDmac.c ****         element = CyDmaTdFreeIndex;
 725:.\Generated_Source\PSoC5/CyDmac.c **** 
 726:.\Generated_Source\PSoC5/CyDmac.c ****         /* Decrement the count. */
 727:.\Generated_Source\PSoC5/CyDmac.c ****         CyDmaTdCurrentNumber--;
 728:.\Generated_Source\PSoC5/CyDmac.c **** 
 729:.\Generated_Source\PSoC5/CyDmac.c ****         /* Update the next available pointer. */
 730:.\Generated_Source\PSoC5/CyDmac.c ****         CyDmaTdFreeIndex = CY_DMA_TDMEM_STRUCT_PTR[element].TD0[0];
 731:.\Generated_Source\PSoC5/CyDmac.c ****     }
 732:.\Generated_Source\PSoC5/CyDmac.c **** 
 733:.\Generated_Source\PSoC5/CyDmac.c ****     /* Exit critical section! */
 734:.\Generated_Source\PSoC5/CyDmac.c ****     CyExitCriticalSection(interruptState);
 735:.\Generated_Source\PSoC5/CyDmac.c **** 
 736:.\Generated_Source\PSoC5/CyDmac.c ****     return(element);
 737:.\Generated_Source\PSoC5/CyDmac.c **** }
 738:.\Generated_Source\PSoC5/CyDmac.c **** 
 739:.\Generated_Source\PSoC5/CyDmac.c **** 
 740:.\Generated_Source\PSoC5/CyDmac.c **** /*******************************************************************************
 741:.\Generated_Source\PSoC5/CyDmac.c **** * Function Name: CyDmaTdFree
 742:.\Generated_Source\PSoC5/CyDmac.c **** ********************************************************************************
 743:.\Generated_Source\PSoC5/CyDmac.c **** *
 744:.\Generated_Source\PSoC5/CyDmac.c **** * Summary:
 745:.\Generated_Source\PSoC5/CyDmac.c **** *  Returns a TD to the free list.
 746:.\Generated_Source\PSoC5/CyDmac.c **** *
 747:.\Generated_Source\PSoC5/CyDmac.c **** * Parameters:
 748:.\Generated_Source\PSoC5/CyDmac.c **** *  uint8 tdHandle:
 749:.\Generated_Source\PSoC5/CyDmac.c **** *   The TD handle returned by the CyDmaTdAllocate().
 750:.\Generated_Source\PSoC5/CyDmac.c **** *
 751:.\Generated_Source\PSoC5/CyDmac.c **** * Return:
 752:.\Generated_Source\PSoC5/CyDmac.c **** *  None
 753:.\Generated_Source\PSoC5/CyDmac.c **** *
 754:.\Generated_Source\PSoC5/CyDmac.c **** *******************************************************************************/
 755:.\Generated_Source\PSoC5/CyDmac.c **** void CyDmaTdFree(uint8 tdHandle) 
 756:.\Generated_Source\PSoC5/CyDmac.c **** {
 757:.\Generated_Source\PSoC5/CyDmac.c ****     if(tdHandle < NUMBEROF_TDS)
 758:.\Generated_Source\PSoC5/CyDmac.c ****     {
 759:.\Generated_Source\PSoC5/CyDmac.c ****         /* Enter critical section! */
 760:.\Generated_Source\PSoC5/CyDmac.c ****         uint8 interruptState = CyEnterCriticalSection();
 761:.\Generated_Source\PSoC5/CyDmac.c **** 
 762:.\Generated_Source\PSoC5/CyDmac.c ****         /* Get pointer to the Next available. */
 763:.\Generated_Source\PSoC5/CyDmac.c ****         CY_DMA_TDMEM_STRUCT_PTR[tdHandle].TD0[0u] = CyDmaTdFreeIndex;
 764:.\Generated_Source\PSoC5/CyDmac.c **** 
 765:.\Generated_Source\PSoC5/CyDmac.c ****         /* Set new Next Available. */
 766:.\Generated_Source\PSoC5/CyDmac.c ****         CyDmaTdFreeIndex = tdHandle;
 767:.\Generated_Source\PSoC5/CyDmac.c **** 
 768:.\Generated_Source\PSoC5/CyDmac.c ****         /* Keep track of how many left. */
 769:.\Generated_Source\PSoC5/CyDmac.c ****         CyDmaTdCurrentNumber++;
 770:.\Generated_Source\PSoC5/CyDmac.c **** 
 771:.\Generated_Source\PSoC5/CyDmac.c ****         /* Exit critical section! */
 772:.\Generated_Source\PSoC5/CyDmac.c ****         CyExitCriticalSection(interruptState);
 773:.\Generated_Source\PSoC5/CyDmac.c ****     }
 774:.\Generated_Source\PSoC5/CyDmac.c **** }
 775:.\Generated_Source\PSoC5/CyDmac.c **** 
 776:.\Generated_Source\PSoC5/CyDmac.c **** 
 777:.\Generated_Source\PSoC5/CyDmac.c **** /*******************************************************************************
 778:.\Generated_Source\PSoC5/CyDmac.c **** * Function Name: CyDmaTdFreeCount
ARM GAS  C:\Users\SUZUKI~1\AppData\Local\Temp\cc3mxj1A.s 			page 26


 779:.\Generated_Source\PSoC5/CyDmac.c **** ********************************************************************************
 780:.\Generated_Source\PSoC5/CyDmac.c **** *
 781:.\Generated_Source\PSoC5/CyDmac.c **** * Summary:
 782:.\Generated_Source\PSoC5/CyDmac.c **** *  Returns the number of free TDs available to be allocated.
 783:.\Generated_Source\PSoC5/CyDmac.c **** *
 784:.\Generated_Source\PSoC5/CyDmac.c **** * Parameters:
 785:.\Generated_Source\PSoC5/CyDmac.c **** *  None
 786:.\Generated_Source\PSoC5/CyDmac.c **** *
 787:.\Generated_Source\PSoC5/CyDmac.c **** * Return:
 788:.\Generated_Source\PSoC5/CyDmac.c **** *  The number of free TDs.
 789:.\Generated_Source\PSoC5/CyDmac.c **** *
 790:.\Generated_Source\PSoC5/CyDmac.c **** *******************************************************************************/
 791:.\Generated_Source\PSoC5/CyDmac.c **** uint8 CyDmaTdFreeCount(void) 
 792:.\Generated_Source\PSoC5/CyDmac.c **** {
 644              		.loc 1 792 0
 645              		.cfi_startproc
 646              		@ args = 0, pretend = 0, frame = 0
 647              		@ frame_needed = 0, uses_anonymous_args = 0
 648              		@ link register save eliminated.
 649              		.loc 1 792 0
 650 0000 40F20003 		movw	r3, #:lower16:.LANCHOR0
 651 0004 C0F20003 		movt	r3, #:upper16:.LANCHOR0
 652 0008 5878     		ldrb	r0, [r3, #1]	@ zero_extendqisi2
 653 000a 1838     		subs	r0, r0, #24
 793:.\Generated_Source\PSoC5/CyDmac.c ****     return(CyDmaTdCurrentNumber - CY_DMA_NUMBEROF_CHANNELS);
 794:.\Generated_Source\PSoC5/CyDmac.c **** }
 654              		.loc 1 794 0
 655 000c C0B2     		uxtb	r0, r0
 656 000e 7047     		bx	lr
 657              		.cfi_endproc
 658              	.LFE18:
 659              		.size	CyDmaTdFreeCount, .-CyDmaTdFreeCount
 660              		.section	.text.CyDmaTdSetConfiguration,"ax",%progbits
 661              		.align	2
 662              		.global	CyDmaTdSetConfiguration
 663              		.thumb
 664              		.thumb_func
 665              		.type	CyDmaTdSetConfiguration, %function
 666              	CyDmaTdSetConfiguration:
 667              	.LFB19:
 795:.\Generated_Source\PSoC5/CyDmac.c **** 
 796:.\Generated_Source\PSoC5/CyDmac.c **** 
 797:.\Generated_Source\PSoC5/CyDmac.c **** /*******************************************************************************
 798:.\Generated_Source\PSoC5/CyDmac.c **** * Function Name: CyDmaTdSetConfiguration
 799:.\Generated_Source\PSoC5/CyDmac.c **** ********************************************************************************
 800:.\Generated_Source\PSoC5/CyDmac.c **** *
 801:.\Generated_Source\PSoC5/CyDmac.c **** * Summary:
 802:.\Generated_Source\PSoC5/CyDmac.c **** *  Configures the TD.
 803:.\Generated_Source\PSoC5/CyDmac.c **** *
 804:.\Generated_Source\PSoC5/CyDmac.c **** * Parameters:
 805:.\Generated_Source\PSoC5/CyDmac.c **** *  uint8 tdHandle:
 806:.\Generated_Source\PSoC5/CyDmac.c **** *   A handle previously returned by CyDmaTdAlloc().
 807:.\Generated_Source\PSoC5/CyDmac.c **** *
 808:.\Generated_Source\PSoC5/CyDmac.c **** *  uint16 transferCount:
 809:.\Generated_Source\PSoC5/CyDmac.c **** *   The size of the data transfer (in bytes) for this TD. A size of zero will
 810:.\Generated_Source\PSoC5/CyDmac.c **** *   cause the transfer to continue indefinitely. This parameter is limited to
 811:.\Generated_Source\PSoC5/CyDmac.c **** *   4095 bytes; the TD is not initialized at all when a higher value is passed.
ARM GAS  C:\Users\SUZUKI~1\AppData\Local\Temp\cc3mxj1A.s 			page 27


 812:.\Generated_Source\PSoC5/CyDmac.c **** *
 813:.\Generated_Source\PSoC5/CyDmac.c **** *  uint8 nextTd:
 814:.\Generated_Source\PSoC5/CyDmac.c **** *   Zero based index of the next Transfer Descriptor in the TD chain. Zero is a
 815:.\Generated_Source\PSoC5/CyDmac.c **** *   valid pointer to the next TD; DMA_END_CHAIN_TD is the end of the chain.
 816:.\Generated_Source\PSoC5/CyDmac.c **** *
 817:.\Generated_Source\PSoC5/CyDmac.c **** *  uint8 configuration:
 818:.\Generated_Source\PSoC5/CyDmac.c **** *   Stores the Bit field of configuration bits.
 819:.\Generated_Source\PSoC5/CyDmac.c **** *
 820:.\Generated_Source\PSoC5/CyDmac.c **** *   TD_SWAP_EN         - Perform endian swap
 821:.\Generated_Source\PSoC5/CyDmac.c **** *
 822:.\Generated_Source\PSoC5/CyDmac.c **** *   TD_SWAP_SIZE4      - Swap size = 4 bytes
 823:.\Generated_Source\PSoC5/CyDmac.c **** *
 824:.\Generated_Source\PSoC5/CyDmac.c **** *   TD_AUTO_EXEC_NEXT  - The next TD in the chain will trigger automatically
 825:.\Generated_Source\PSoC5/CyDmac.c **** *                        when the current TD completes.
 826:.\Generated_Source\PSoC5/CyDmac.c **** *
 827:.\Generated_Source\PSoC5/CyDmac.c **** *   TD_TERMIN_EN       - Terminate this TD if a positive edge on the trq input
 828:.\Generated_Source\PSoC5/CyDmac.c **** *                        line occurs. The positive edge must occur during a
 829:.\Generated_Source\PSoC5/CyDmac.c **** *                        burst. That is the only time the DMAC will listen for
 830:.\Generated_Source\PSoC5/CyDmac.c **** *                        it.
 831:.\Generated_Source\PSoC5/CyDmac.c **** *
 832:.\Generated_Source\PSoC5/CyDmac.c **** *   DMA__TD_TERMOUT_EN - When this TD completes, the TERMOUT signal will
 833:.\Generated_Source\PSoC5/CyDmac.c **** *                        generate a pulse. Note that this option is instance
 834:.\Generated_Source\PSoC5/CyDmac.c **** *                        specific with the instance name followed by two
 835:.\Generated_Source\PSoC5/CyDmac.c **** *                        underscores. In this example, the instance name is DMA.
 836:.\Generated_Source\PSoC5/CyDmac.c **** *
 837:.\Generated_Source\PSoC5/CyDmac.c **** *   TD_INC_DST_ADR     - Increment DST_ADR according to the size of each data
 838:.\Generated_Source\PSoC5/CyDmac.c **** *                        transaction in the burst.
 839:.\Generated_Source\PSoC5/CyDmac.c **** *
 840:.\Generated_Source\PSoC5/CyDmac.c **** *   TD_INC_SRC_ADR     - Increment SRC_ADR according to the size of each data
 841:.\Generated_Source\PSoC5/CyDmac.c **** *                        transaction in the burst.
 842:.\Generated_Source\PSoC5/CyDmac.c **** *
 843:.\Generated_Source\PSoC5/CyDmac.c **** * Return:
 844:.\Generated_Source\PSoC5/CyDmac.c **** *  CYRET_SUCCESS if successful.
 845:.\Generated_Source\PSoC5/CyDmac.c **** *  CYRET_BAD_PARAM if tdHandle or transferCount is invalid.
 846:.\Generated_Source\PSoC5/CyDmac.c **** *
 847:.\Generated_Source\PSoC5/CyDmac.c **** *******************************************************************************/
 848:.\Generated_Source\PSoC5/CyDmac.c **** cystatus CyDmaTdSetConfiguration(uint8 tdHandle, uint16 transferCount, uint8 nextTd, uint8 configur
 849:.\Generated_Source\PSoC5/CyDmac.c ****     
 850:.\Generated_Source\PSoC5/CyDmac.c **** {
 668              		.loc 1 850 0
 669              		.cfi_startproc
 670              		@ args = 0, pretend = 0, frame = 0
 671              		@ frame_needed = 0, uses_anonymous_args = 0
 672              		@ link register save eliminated.
 673              	.LVL79:
 851:.\Generated_Source\PSoC5/CyDmac.c ****     cystatus status = CYRET_BAD_PARAM;
 852:.\Generated_Source\PSoC5/CyDmac.c **** 
 853:.\Generated_Source\PSoC5/CyDmac.c ****     if(tdHandle < CY_DMA_NUMBEROF_TDS && !(0xF000u & transferCount))
 674              		.loc 1 853 0
 675 0000 10F0800F 		tst	r0, #128
 676              		.loc 1 850 0
 677 0004 30B4     		push	{r4, r5}
 678              	.LCFI1:
 679              		.cfi_def_cfa_offset 8
 680              		.loc 1 853 0
 681 0006 11D1     		bne	.L74
 682              		.cfi_offset 5, -4
ARM GAS  C:\Users\SUZUKI~1\AppData\Local\Temp\cc3mxj1A.s 			page 28


 683              		.cfi_offset 4, -8
 684 0008 11F4704C 		ands	ip, r1, #61440
 685 000c 0ED1     		bne	.L74
 686              	.LBB3:
 854:.\Generated_Source\PSoC5/CyDmac.c ****     {
 855:.\Generated_Source\PSoC5/CyDmac.c ****         /* Set 12 bits transfer count. */
 856:.\Generated_Source\PSoC5/CyDmac.c ****         reg16 *convert = (reg16 *) &CY_DMA_TDMEM_STRUCT_PTR[tdHandle].TD0[0];
 687              		.loc 1 856 0
 688 000e C500     		lsls	r5, r0, #3
 689 0010 05F18044 		add	r4, r5, #1073741824
 690 0014 47F60005 		movw	r5, #:lower16:1073772544
 691 0018 04F5F044 		add	r4, r4, #30720
 692 001c C4F20005 		movt	r5, #:upper16:1073772544
 857:.\Generated_Source\PSoC5/CyDmac.c ****         CY_SET_REG16(convert, transferCount);
 693              		.loc 1 857 0
 694 0020 25F83010 		strh	r1, [r5, r0, lsl #3]	@ movhi
 858:.\Generated_Source\PSoC5/CyDmac.c **** 
 859:.\Generated_Source\PSoC5/CyDmac.c ****         /* Set Next TD pointer. */
 860:.\Generated_Source\PSoC5/CyDmac.c ****         CY_DMA_TDMEM_STRUCT_PTR[tdHandle].TD0[2] = nextTd;
 695              		.loc 1 860 0
 696 0024 A270     		strb	r2, [r4, #2]
 861:.\Generated_Source\PSoC5/CyDmac.c **** 
 862:.\Generated_Source\PSoC5/CyDmac.c ****         /* Configure the TD */
 863:.\Generated_Source\PSoC5/CyDmac.c ****         CY_DMA_TDMEM_STRUCT_PTR[tdHandle].TD0[3] = configuration;
 697              		.loc 1 863 0
 698 0026 6046     		mov	r0, ip
 699              	.LVL80:
 700 0028 E370     		strb	r3, [r4, #3]
 701 002a 00E0     		b	.L75
 702              	.LVL81:
 703              	.L74:
 704 002c 0120     		movs	r0, #1
 705              	.LVL82:
 706              	.L75:
 707              	.LVL83:
 708              	.LBE3:
 864:.\Generated_Source\PSoC5/CyDmac.c **** 
 865:.\Generated_Source\PSoC5/CyDmac.c ****         status = CYRET_SUCCESS;
 866:.\Generated_Source\PSoC5/CyDmac.c ****     }
 867:.\Generated_Source\PSoC5/CyDmac.c **** 
 868:.\Generated_Source\PSoC5/CyDmac.c ****     return(status);
 869:.\Generated_Source\PSoC5/CyDmac.c **** }
 709              		.loc 1 869 0
 710 002e 30BC     		pop	{r4, r5}
 711 0030 7047     		bx	lr
 712              		.cfi_endproc
 713              	.LFE19:
 714              		.size	CyDmaTdSetConfiguration, .-CyDmaTdSetConfiguration
 715 0032 00BF     		.section	.text.CyDmaTdGetConfiguration,"ax",%progbits
 716              		.align	2
 717              		.global	CyDmaTdGetConfiguration
 718              		.thumb
 719              		.thumb_func
 720              		.type	CyDmaTdGetConfiguration, %function
 721              	CyDmaTdGetConfiguration:
 722              	.LFB20:
 870:.\Generated_Source\PSoC5/CyDmac.c **** 
ARM GAS  C:\Users\SUZUKI~1\AppData\Local\Temp\cc3mxj1A.s 			page 29


 871:.\Generated_Source\PSoC5/CyDmac.c **** 
 872:.\Generated_Source\PSoC5/CyDmac.c **** /*******************************************************************************
 873:.\Generated_Source\PSoC5/CyDmac.c **** * Function Name: CyDmaTdGetConfiguration
 874:.\Generated_Source\PSoC5/CyDmac.c **** ********************************************************************************
 875:.\Generated_Source\PSoC5/CyDmac.c **** *
 876:.\Generated_Source\PSoC5/CyDmac.c **** * Summary:
 877:.\Generated_Source\PSoC5/CyDmac.c **** *  Retrieves the configuration of the TD. If a NULL pointer is passed as a
 878:.\Generated_Source\PSoC5/CyDmac.c **** *  parameter, that parameter is skipped. You may request only the values you are
 879:.\Generated_Source\PSoC5/CyDmac.c **** *  interested in.
 880:.\Generated_Source\PSoC5/CyDmac.c **** *
 881:.\Generated_Source\PSoC5/CyDmac.c **** * Parameters:
 882:.\Generated_Source\PSoC5/CyDmac.c **** *  uint8 tdHandle:
 883:.\Generated_Source\PSoC5/CyDmac.c **** *   A handle previously returned by CyDmaTdAlloc().
 884:.\Generated_Source\PSoC5/CyDmac.c **** *
 885:.\Generated_Source\PSoC5/CyDmac.c **** *  uint16 * transferCount:
 886:.\Generated_Source\PSoC5/CyDmac.c **** *   The address to store the size of the data transfer (in bytes) for this TD.
 887:.\Generated_Source\PSoC5/CyDmac.c **** *   A size of zero could indicate that the TD has completed its transfer, or
 888:.\Generated_Source\PSoC5/CyDmac.c **** *   that the TD is doing an indefinite transfer.
 889:.\Generated_Source\PSoC5/CyDmac.c **** *
 890:.\Generated_Source\PSoC5/CyDmac.c **** *  uint8 * nextTd:
 891:.\Generated_Source\PSoC5/CyDmac.c **** *   The address to store the index of the next TD in the TD chain.
 892:.\Generated_Source\PSoC5/CyDmac.c **** *
 893:.\Generated_Source\PSoC5/CyDmac.c **** *  uint8 * configuration:
 894:.\Generated_Source\PSoC5/CyDmac.c **** *   The address to store the Bit field of configuration bits.
 895:.\Generated_Source\PSoC5/CyDmac.c **** *   See CyDmaTdSetConfiguration() function description.
 896:.\Generated_Source\PSoC5/CyDmac.c **** *
 897:.\Generated_Source\PSoC5/CyDmac.c **** * Return:
 898:.\Generated_Source\PSoC5/CyDmac.c **** *  CYRET_SUCCESS if successful.
 899:.\Generated_Source\PSoC5/CyDmac.c **** *  CYRET_BAD_PARAM if tdHandle is invalid.
 900:.\Generated_Source\PSoC5/CyDmac.c **** *
 901:.\Generated_Source\PSoC5/CyDmac.c **** * Side Effects:
 902:.\Generated_Source\PSoC5/CyDmac.c **** *  If a TD has a transfer count of N and is executed, the transfer count becomes
 903:.\Generated_Source\PSoC5/CyDmac.c **** *  0. If it is reexecuted, the Transfer count of zero will be interpreted as a
 904:.\Generated_Source\PSoC5/CyDmac.c **** *  request for indefinite transfer. Be careful when requesting a TD with a
 905:.\Generated_Source\PSoC5/CyDmac.c **** *  transfer count of zero.
 906:.\Generated_Source\PSoC5/CyDmac.c **** *
 907:.\Generated_Source\PSoC5/CyDmac.c **** *******************************************************************************/
 908:.\Generated_Source\PSoC5/CyDmac.c **** cystatus CyDmaTdGetConfiguration(uint8 tdHandle, uint16 * transferCount, uint8 * nextTd, uint8 * co
 909:.\Generated_Source\PSoC5/CyDmac.c ****     
 910:.\Generated_Source\PSoC5/CyDmac.c **** {
 723              		.loc 1 910 0
 724              		.cfi_startproc
 725              		@ args = 0, pretend = 0, frame = 0
 726              		@ frame_needed = 0, uses_anonymous_args = 0
 727              		@ link register save eliminated.
 728              	.LVL84:
 911:.\Generated_Source\PSoC5/CyDmac.c ****     cystatus status = CYRET_BAD_PARAM;
 912:.\Generated_Source\PSoC5/CyDmac.c **** 
 913:.\Generated_Source\PSoC5/CyDmac.c ****     if(tdHandle < CY_DMA_NUMBEROF_TDS)
 729              		.loc 1 913 0
 730 0000 10F0800F 		tst	r0, #128
 731              		.loc 1 910 0
 732 0004 10B4     		push	{r4}
 733              	.LCFI2:
 734              		.cfi_def_cfa_offset 4
 735              		.loc 1 913 0
 736 0006 1FD1     		bne	.L84
ARM GAS  C:\Users\SUZUKI~1\AppData\Local\Temp\cc3mxj1A.s 			page 30


 737              		.cfi_offset 4, -4
 914:.\Generated_Source\PSoC5/CyDmac.c ****     {
 915:.\Generated_Source\PSoC5/CyDmac.c ****         /* If we have a pointer */
 916:.\Generated_Source\PSoC5/CyDmac.c ****         if(NULL != transferCount)
 738              		.loc 1 916 0
 739 0008 59B1     		cbz	r1, .L80
 740              	.LBB4:
 917:.\Generated_Source\PSoC5/CyDmac.c ****         {
 918:.\Generated_Source\PSoC5/CyDmac.c ****             /* Get the 12 bits of the transfer count */
 919:.\Generated_Source\PSoC5/CyDmac.c ****             reg16 *convert = (reg16 *) &CY_DMA_TDMEM_STRUCT_PTR[tdHandle].TD0[0];
 741              		.loc 1 919 0
 742 000a 47F60004 		movw	r4, #:lower16:1073772544
 743 000e C4F20004 		movt	r4, #:upper16:1073772544
 920:.\Generated_Source\PSoC5/CyDmac.c ****             *transferCount = 0x0FFFu & CY_GET_REG16(convert);
 744              		.loc 1 920 0
 745 0012 34F830C0 		ldrh	ip, [r4, r0, lsl #3]
 746 0016 4FEA0C5C 		lsl	ip, ip, #20
 747 001a 4FEA1C5C 		lsr	ip, ip, #20
 748 001e A1F800C0 		strh	ip, [r1, #0]	@ movhi
 749              	.L80:
 750              	.LBE4:
 921:.\Generated_Source\PSoC5/CyDmac.c ****         }
 922:.\Generated_Source\PSoC5/CyDmac.c **** 
 923:.\Generated_Source\PSoC5/CyDmac.c ****         /* If we have a pointer */
 924:.\Generated_Source\PSoC5/CyDmac.c ****         if(NULL != nextTd)
 751              		.loc 1 924 0
 752 0022 32B1     		cbz	r2, .L81
 925:.\Generated_Source\PSoC5/CyDmac.c ****         {
 926:.\Generated_Source\PSoC5/CyDmac.c ****             /* Get the Next TD pointer */
 927:.\Generated_Source\PSoC5/CyDmac.c ****             *nextTd = CY_DMA_TDMEM_STRUCT_PTR[tdHandle].TD0[2u];
 753              		.loc 1 927 0
 754 0024 C100     		lsls	r1, r0, #3
 755              	.LVL85:
 756 0026 01F1804C 		add	ip, r1, #1073741824
 757 002a 0CF5F041 		add	r1, ip, #30720
 758 002e 8978     		ldrb	r1, [r1, #2]	@ zero_extendqisi2
 759 0030 1170     		strb	r1, [r2, #0]
 760              	.LVL86:
 761              	.L81:
 928:.\Generated_Source\PSoC5/CyDmac.c ****         }
 929:.\Generated_Source\PSoC5/CyDmac.c **** 
 930:.\Generated_Source\PSoC5/CyDmac.c ****         /* If we have a pointer */
 931:.\Generated_Source\PSoC5/CyDmac.c ****         if(NULL != configuration)
 762              		.loc 1 931 0
 763 0032 5BB1     		cbz	r3, .L85
 932:.\Generated_Source\PSoC5/CyDmac.c ****         {
 933:.\Generated_Source\PSoC5/CyDmac.c ****             /* Get the configuration the TD */
 934:.\Generated_Source\PSoC5/CyDmac.c ****             *configuration = CY_DMA_TDMEM_STRUCT_PTR[tdHandle].TD0[3u];
 764              		.loc 1 934 0
 765 0034 C100     		lsls	r1, r0, #3
 766              	.LVL87:
 767 0036 01F1804C 		add	ip, r1, #1073741824
 768 003a 0CF5F040 		add	r0, ip, #30720
 769              	.LVL88:
 770 003e C278     		ldrb	r2, [r0, #3]	@ zero_extendqisi2
 771              	.LVL89:
 772 0040 0020     		movs	r0, #0
ARM GAS  C:\Users\SUZUKI~1\AppData\Local\Temp\cc3mxj1A.s 			page 31


 773              	.LVL90:
 774 0042 1A70     		strb	r2, [r3, #0]
 775              	.LVL91:
 776              	.L79:
 777              	.LVL92:
 935:.\Generated_Source\PSoC5/CyDmac.c ****         }
 936:.\Generated_Source\PSoC5/CyDmac.c **** 
 937:.\Generated_Source\PSoC5/CyDmac.c ****         status = CYRET_SUCCESS;
 938:.\Generated_Source\PSoC5/CyDmac.c ****     }
 939:.\Generated_Source\PSoC5/CyDmac.c **** 
 940:.\Generated_Source\PSoC5/CyDmac.c ****     return(status);
 941:.\Generated_Source\PSoC5/CyDmac.c **** }
 778              		.loc 1 941 0
 779 0044 10BC     		pop	{r4}
 780 0046 7047     		bx	lr
 781              	.LVL93:
 782              	.L84:
 783              		.loc 1 913 0
 784 0048 0120     		movs	r0, #1
 785              	.LVL94:
 786 004a FBE7     		b	.L79
 787              	.LVL95:
 788              	.L85:
 789              		.loc 1 931 0
 790 004c 1846     		mov	r0, r3
 791              	.LVL96:
 792 004e F9E7     		b	.L79
 793              		.cfi_endproc
 794              	.LFE20:
 795              		.size	CyDmaTdGetConfiguration, .-CyDmaTdGetConfiguration
 796              		.section	.text.CyDmaTdSetAddress,"ax",%progbits
 797              		.align	2
 798              		.global	CyDmaTdSetAddress
 799              		.thumb
 800              		.thumb_func
 801              		.type	CyDmaTdSetAddress, %function
 802              	CyDmaTdSetAddress:
 803              	.LFB21:
 942:.\Generated_Source\PSoC5/CyDmac.c **** 
 943:.\Generated_Source\PSoC5/CyDmac.c **** 
 944:.\Generated_Source\PSoC5/CyDmac.c **** /*******************************************************************************
 945:.\Generated_Source\PSoC5/CyDmac.c **** * Function Name: CyDmaTdSetAddress
 946:.\Generated_Source\PSoC5/CyDmac.c **** ********************************************************************************
 947:.\Generated_Source\PSoC5/CyDmac.c **** *
 948:.\Generated_Source\PSoC5/CyDmac.c **** * Summary:
 949:.\Generated_Source\PSoC5/CyDmac.c **** *  Sets the lower 16 bits of the source and destination addresses for this TD
 950:.\Generated_Source\PSoC5/CyDmac.c **** *  only.
 951:.\Generated_Source\PSoC5/CyDmac.c **** *
 952:.\Generated_Source\PSoC5/CyDmac.c **** * Parameters:
 953:.\Generated_Source\PSoC5/CyDmac.c **** *  uint8 tdHandle:
 954:.\Generated_Source\PSoC5/CyDmac.c **** *   A handle previously returned by CyDmaTdAlloc().
 955:.\Generated_Source\PSoC5/CyDmac.c **** *
 956:.\Generated_Source\PSoC5/CyDmac.c **** *  uint16 source:
 957:.\Generated_Source\PSoC5/CyDmac.c **** *   The lower 16 address bits of the source of the data transfer.
 958:.\Generated_Source\PSoC5/CyDmac.c **** *
 959:.\Generated_Source\PSoC5/CyDmac.c **** *  uint16 destination:
 960:.\Generated_Source\PSoC5/CyDmac.c **** *   The lower 16 address bits of the destination of the data transfer.
ARM GAS  C:\Users\SUZUKI~1\AppData\Local\Temp\cc3mxj1A.s 			page 32


 961:.\Generated_Source\PSoC5/CyDmac.c **** *
 962:.\Generated_Source\PSoC5/CyDmac.c **** * Return:
 963:.\Generated_Source\PSoC5/CyDmac.c **** *  CYRET_SUCCESS if successful.
 964:.\Generated_Source\PSoC5/CyDmac.c **** *  CYRET_BAD_PARAM if tdHandle is invalid.
 965:.\Generated_Source\PSoC5/CyDmac.c **** *
 966:.\Generated_Source\PSoC5/CyDmac.c **** *******************************************************************************/
 967:.\Generated_Source\PSoC5/CyDmac.c **** cystatus CyDmaTdSetAddress(uint8 tdHandle, uint16 source, uint16 destination) 
 968:.\Generated_Source\PSoC5/CyDmac.c **** {
 804              		.loc 1 968 0
 805              		.cfi_startproc
 806              		@ args = 0, pretend = 0, frame = 0
 807              		@ frame_needed = 0, uses_anonymous_args = 0
 808              		@ link register save eliminated.
 809              	.LVL97:
 969:.\Generated_Source\PSoC5/CyDmac.c ****     cystatus status = CYRET_BAD_PARAM;
 970:.\Generated_Source\PSoC5/CyDmac.c **** 
 971:.\Generated_Source\PSoC5/CyDmac.c ****     if(tdHandle < CY_DMA_NUMBEROF_TDS)
 810              		.loc 1 971 0
 811 0000 10F0800F 		tst	r0, #128
 812 0004 08D1     		bne	.L90
 813              	.LBB5:
 972:.\Generated_Source\PSoC5/CyDmac.c ****     {
 973:.\Generated_Source\PSoC5/CyDmac.c ****         /* Set source address */
 974:.\Generated_Source\PSoC5/CyDmac.c ****         reg16 *convert = (reg16 *) &CY_DMA_TDMEM_STRUCT_PTR[tdHandle].TD1[0];
 814              		.loc 1 974 0
 815 0006 C000     		lsls	r0, r0, #3
 816              	.LVL98:
 817 0008 00F18043 		add	r3, r0, #1073741824
 818 000c 03F5F040 		add	r0, r3, #30720
 975:.\Generated_Source\PSoC5/CyDmac.c ****         CY_SET_REG16(convert, source);
 819              		.loc 1 975 0
 820 0010 8180     		strh	r1, [r0, #4]	@ movhi
 976:.\Generated_Source\PSoC5/CyDmac.c **** 
 977:.\Generated_Source\PSoC5/CyDmac.c ****         /* Set destination address */
 978:.\Generated_Source\PSoC5/CyDmac.c ****         CY_SET_REG16((reg16 *) &CY_DMA_TDMEM_STRUCT_PTR[tdHandle].TD1[2], destination);
 821              		.loc 1 978 0
 822 0012 C280     		strh	r2, [r0, #6]	@ movhi
 823 0014 0020     		movs	r0, #0
 824              	.LVL99:
 825              	.LVL100:
 826              	.LBE5:
 979:.\Generated_Source\PSoC5/CyDmac.c **** 
 980:.\Generated_Source\PSoC5/CyDmac.c ****         status = CYRET_SUCCESS;
 981:.\Generated_Source\PSoC5/CyDmac.c ****     }
 982:.\Generated_Source\PSoC5/CyDmac.c **** 
 983:.\Generated_Source\PSoC5/CyDmac.c ****     return(status);
 984:.\Generated_Source\PSoC5/CyDmac.c **** }
 827              		.loc 1 984 0
 828 0016 7047     		bx	lr
 829              	.LVL101:
 830              	.L90:
 831              		.loc 1 971 0
 832 0018 0120     		movs	r0, #1
 833              	.LVL102:
 834 001a 7047     		bx	lr
 835              		.cfi_endproc
 836              	.LFE21:
ARM GAS  C:\Users\SUZUKI~1\AppData\Local\Temp\cc3mxj1A.s 			page 33


 837              		.size	CyDmaTdSetAddress, .-CyDmaTdSetAddress
 838              		.section	.text.CyDmaTdGetAddress,"ax",%progbits
 839              		.align	2
 840              		.global	CyDmaTdGetAddress
 841              		.thumb
 842              		.thumb_func
 843              		.type	CyDmaTdGetAddress, %function
 844              	CyDmaTdGetAddress:
 845              	.LFB22:
 985:.\Generated_Source\PSoC5/CyDmac.c **** 
 986:.\Generated_Source\PSoC5/CyDmac.c **** 
 987:.\Generated_Source\PSoC5/CyDmac.c **** /*******************************************************************************
 988:.\Generated_Source\PSoC5/CyDmac.c **** * Function Name: CyDmaTdGetAddress
 989:.\Generated_Source\PSoC5/CyDmac.c **** ********************************************************************************
 990:.\Generated_Source\PSoC5/CyDmac.c **** *
 991:.\Generated_Source\PSoC5/CyDmac.c **** * Summary:
 992:.\Generated_Source\PSoC5/CyDmac.c **** *  Retrieves the lower 16 bits of the source and/or destination addresses for
 993:.\Generated_Source\PSoC5/CyDmac.c **** *  this TD only. If NULL is passed for a pointer parameter, that value is
 994:.\Generated_Source\PSoC5/CyDmac.c **** *  skipped. You may request only the values of interest.
 995:.\Generated_Source\PSoC5/CyDmac.c **** *
 996:.\Generated_Source\PSoC5/CyDmac.c **** * Parameters:
 997:.\Generated_Source\PSoC5/CyDmac.c **** *  uint8 tdHandle:
 998:.\Generated_Source\PSoC5/CyDmac.c **** *   A handle previously returned by CyDmaTdAlloc().
 999:.\Generated_Source\PSoC5/CyDmac.c **** *
1000:.\Generated_Source\PSoC5/CyDmac.c **** *  uint16 * source:
1001:.\Generated_Source\PSoC5/CyDmac.c **** *   The address to store the lower 16 address bits of the source of the data
1002:.\Generated_Source\PSoC5/CyDmac.c **** *   transfer.
1003:.\Generated_Source\PSoC5/CyDmac.c **** *
1004:.\Generated_Source\PSoC5/CyDmac.c **** *  uint16 * destination:
1005:.\Generated_Source\PSoC5/CyDmac.c **** *   The address to store the lower 16 address bits of the destination of the
1006:.\Generated_Source\PSoC5/CyDmac.c **** *   data transfer.
1007:.\Generated_Source\PSoC5/CyDmac.c **** *
1008:.\Generated_Source\PSoC5/CyDmac.c **** * Return:
1009:.\Generated_Source\PSoC5/CyDmac.c **** *  CYRET_SUCCESS if successful.
1010:.\Generated_Source\PSoC5/CyDmac.c **** *  CYRET_BAD_PARAM if tdHandle is invalid.
1011:.\Generated_Source\PSoC5/CyDmac.c **** *
1012:.\Generated_Source\PSoC5/CyDmac.c **** *******************************************************************************/
1013:.\Generated_Source\PSoC5/CyDmac.c **** cystatus CyDmaTdGetAddress(uint8 tdHandle, uint16 * source, uint16 * destination) 
1014:.\Generated_Source\PSoC5/CyDmac.c **** {
 846              		.loc 1 1014 0
 847              		.cfi_startproc
 848              		@ args = 0, pretend = 0, frame = 0
 849              		@ frame_needed = 0, uses_anonymous_args = 0
 850              		@ link register save eliminated.
 851              	.LVL103:
1015:.\Generated_Source\PSoC5/CyDmac.c ****     cystatus status = CYRET_BAD_PARAM;
1016:.\Generated_Source\PSoC5/CyDmac.c **** 
1017:.\Generated_Source\PSoC5/CyDmac.c ****     if(tdHandle < CY_DMA_NUMBEROF_TDS)
 852              		.loc 1 1017 0
 853 0000 10F0800F 		tst	r0, #128
 854 0004 11D1     		bne	.L97
1018:.\Generated_Source\PSoC5/CyDmac.c ****     {
1019:.\Generated_Source\PSoC5/CyDmac.c ****         /* If we have a pointer. */
1020:.\Generated_Source\PSoC5/CyDmac.c ****         if(NULL != source)
 855              		.loc 1 1020 0
 856 0006 31B1     		cbz	r1, .L94
 857              	.LBB6:
ARM GAS  C:\Users\SUZUKI~1\AppData\Local\Temp\cc3mxj1A.s 			page 34


1021:.\Generated_Source\PSoC5/CyDmac.c ****         {
1022:.\Generated_Source\PSoC5/CyDmac.c ****             /* Get source address */
1023:.\Generated_Source\PSoC5/CyDmac.c ****             reg16 *convert = (reg16 *) &CY_DMA_TDMEM_STRUCT_PTR[tdHandle].TD1[0];
 858              		.loc 1 1023 0
 859 0008 C300     		lsls	r3, r0, #3
 860 000a 03F1804C 		add	ip, r3, #1073741824
 861 000e 0CF5F043 		add	r3, ip, #30720
1024:.\Generated_Source\PSoC5/CyDmac.c ****             *source = CY_GET_REG16(convert);
 862              		.loc 1 1024 0
 863 0012 9B88     		ldrh	r3, [r3, #4]
 864 0014 0B80     		strh	r3, [r1, #0]	@ movhi
 865              	.L94:
 866              	.LBE6:
1025:.\Generated_Source\PSoC5/CyDmac.c ****         }
1026:.\Generated_Source\PSoC5/CyDmac.c **** 
1027:.\Generated_Source\PSoC5/CyDmac.c ****         /* If we have a pointer. */
1028:.\Generated_Source\PSoC5/CyDmac.c ****         if(NULL != destination)
 867              		.loc 1 1028 0
 868 0016 52B1     		cbz	r2, .L98
1029:.\Generated_Source\PSoC5/CyDmac.c ****         {
1030:.\Generated_Source\PSoC5/CyDmac.c ****             /* Get Destination address. */
1031:.\Generated_Source\PSoC5/CyDmac.c ****             *destination = CY_GET_REG16((reg16 *) &CY_DMA_TDMEM_STRUCT_PTR[tdHandle].TD1[2]);
 869              		.loc 1 1031 0
 870 0018 C300     		lsls	r3, r0, #3
 871 001a 03F1804C 		add	ip, r3, #1073741824
 872 001e 0CF5F040 		add	r0, ip, #30720
 873              	.LVL104:
 874 0022 C188     		ldrh	r1, [r0, #6]
 875              	.LVL105:
 876 0024 0020     		movs	r0, #0
 877              	.LVL106:
 878 0026 1180     		strh	r1, [r2, #0]	@ movhi
 879              	.LVL107:
1032:.\Generated_Source\PSoC5/CyDmac.c ****         }
1033:.\Generated_Source\PSoC5/CyDmac.c **** 
1034:.\Generated_Source\PSoC5/CyDmac.c ****         status = CYRET_SUCCESS;
1035:.\Generated_Source\PSoC5/CyDmac.c ****     }
1036:.\Generated_Source\PSoC5/CyDmac.c **** 
1037:.\Generated_Source\PSoC5/CyDmac.c ****     return(status);
1038:.\Generated_Source\PSoC5/CyDmac.c **** }
 880              		.loc 1 1038 0
 881 0028 7047     		bx	lr
 882              	.LVL108:
 883              	.L97:
 884              		.loc 1 1017 0
 885 002a 0120     		movs	r0, #1
 886              	.LVL109:
 887 002c 7047     		bx	lr
 888              	.LVL110:
 889              	.L98:
 890              		.loc 1 1028 0
 891 002e 1046     		mov	r0, r2
 892              	.LVL111:
 893 0030 7047     		bx	lr
 894              		.cfi_endproc
 895              	.LFE22:
 896              		.size	CyDmaTdGetAddress, .-CyDmaTdGetAddress
ARM GAS  C:\Users\SUZUKI~1\AppData\Local\Temp\cc3mxj1A.s 			page 35


 897 0032 00BF     		.section	.text.CyDmaChRoundRobin,"ax",%progbits
 898              		.align	2
 899              		.global	CyDmaChRoundRobin
 900              		.thumb
 901              		.thumb_func
 902              		.type	CyDmaChRoundRobin, %function
 903              	CyDmaChRoundRobin:
 904              	.LFB23:
1039:.\Generated_Source\PSoC5/CyDmac.c **** 
1040:.\Generated_Source\PSoC5/CyDmac.c **** 
1041:.\Generated_Source\PSoC5/CyDmac.c **** /*******************************************************************************
1042:.\Generated_Source\PSoC5/CyDmac.c **** * Function Name: CyDmaChRoundRobin
1043:.\Generated_Source\PSoC5/CyDmac.c **** ********************************************************************************
1044:.\Generated_Source\PSoC5/CyDmac.c **** *
1045:.\Generated_Source\PSoC5/CyDmac.c **** * Summary:
1046:.\Generated_Source\PSoC5/CyDmac.c **** *  Either enables or disables the Round-Robin scheduling enforcement algorithm.
1047:.\Generated_Source\PSoC5/CyDmac.c **** *  Within a priority level a Round-Robin fairness algorithm is enforced.
1048:.\Generated_Source\PSoC5/CyDmac.c **** *
1049:.\Generated_Source\PSoC5/CyDmac.c **** * Parameters:
1050:.\Generated_Source\PSoC5/CyDmac.c **** *  uint8 chHandle:
1051:.\Generated_Source\PSoC5/CyDmac.c **** *   A handle previously returned by CyDmaChAlloc() or Dma_DmaInitialize().
1052:.\Generated_Source\PSoC5/CyDmac.c **** *
1053:.\Generated_Source\PSoC5/CyDmac.c **** *  uint8 enableRR:
1054:.\Generated_Source\PSoC5/CyDmac.c **** *   0: Disable Round-Robin fairness algorithm
1055:.\Generated_Source\PSoC5/CyDmac.c **** *   1: Enable Round-Robin fairness algorithm
1056:.\Generated_Source\PSoC5/CyDmac.c **** *
1057:.\Generated_Source\PSoC5/CyDmac.c **** * Return:
1058:.\Generated_Source\PSoC5/CyDmac.c **** *  CYRET_SUCCESS if successful.
1059:.\Generated_Source\PSoC5/CyDmac.c **** *  CYRET_BAD_PARAM if chHandle is invalid.
1060:.\Generated_Source\PSoC5/CyDmac.c **** *
1061:.\Generated_Source\PSoC5/CyDmac.c **** *******************************************************************************/
1062:.\Generated_Source\PSoC5/CyDmac.c **** cystatus CyDmaChRoundRobin(uint8 chHandle, uint8 enableRR) 
1063:.\Generated_Source\PSoC5/CyDmac.c **** {
 905              		.loc 1 1063 0
 906              		.cfi_startproc
 907              		@ args = 0, pretend = 0, frame = 0
 908              		@ frame_needed = 0, uses_anonymous_args = 0
 909              		@ link register save eliminated.
 910              	.LVL112:
1064:.\Generated_Source\PSoC5/CyDmac.c ****     cystatus status = CYRET_BAD_PARAM;
1065:.\Generated_Source\PSoC5/CyDmac.c **** 
1066:.\Generated_Source\PSoC5/CyDmac.c ****     if(chHandle < CY_DMA_NUMBEROF_CHANNELS)
 911              		.loc 1 1066 0
 912 0000 1728     		cmp	r0, #23
 913 0002 15D8     		bhi	.L105
1067:.\Generated_Source\PSoC5/CyDmac.c ****     {
1068:.\Generated_Source\PSoC5/CyDmac.c ****         CY_DMA_CH_STRUCT_PTR[chHandle].basic_cfg[0] = \
1069:.\Generated_Source\PSoC5/CyDmac.c ****                 (CY_DMA_CH_STRUCT_PTR[chHandle].basic_cfg[0] &  ~CY_DMA_ROUND_ROBIN_ENABLE) |
 914              		.loc 1 1069 0
 915 0004 47F21003 		movw	r3, #:lower16:1073770512
 916 0008 0001     		lsls	r0, r0, #4
 917              	.LVL113:
 918 000a C4F20003 		movt	r3, #:upper16:1073770512
 919 000e 13F800C0 		ldrb	ip, [r3, r0]	@ zero_extendqisi2
 920 0012 47F21003 		movw	r3, #:lower16:1073770512
 921              		.loc 1 1068 0
 922 0016 0029     		cmp	r1, #0
ARM GAS  C:\Users\SUZUKI~1\AppData\Local\Temp\cc3mxj1A.s 			page 36


 923 0018 14BF     		ite	ne
 924 001a 1021     		movne	r1, #16
 925 001c EF21     		moveq	r1, #239
 926              	.LVL114:
 927 001e 0CF0EF02 		and	r2, ip, #239
 928              		.loc 1 1069 0
 929 0022 C4F20003 		movt	r3, #:upper16:1073770512
 930 0026 C318     		adds	r3, r0, r3
 931              		.loc 1 1068 0
 932 0028 1143     		orrs	r1, r1, r2
 933 002a 1970     		strb	r1, [r3, #0]
 934 002c 0020     		movs	r0, #0
 935              	.LVL115:
 936              	.LVL116:
1070:.\Generated_Source\PSoC5/CyDmac.c ****                 ((enableRR) ? CY_DMA_ROUND_ROBIN_ENABLE : ~CY_DMA_ROUND_ROBIN_ENABLE);
1071:.\Generated_Source\PSoC5/CyDmac.c **** 
1072:.\Generated_Source\PSoC5/CyDmac.c ****         status = CYRET_SUCCESS;
1073:.\Generated_Source\PSoC5/CyDmac.c ****     }
1074:.\Generated_Source\PSoC5/CyDmac.c **** 
1075:.\Generated_Source\PSoC5/CyDmac.c ****     return(status);
1076:.\Generated_Source\PSoC5/CyDmac.c **** }
 937              		.loc 1 1076 0
 938 002e 7047     		bx	lr
 939              	.LVL117:
 940              	.L105:
 941              		.loc 1 1066 0
 942 0030 0120     		movs	r0, #1
 943              	.LVL118:
 944 0032 7047     		bx	lr
 945              		.cfi_endproc
 946              	.LFE23:
 947              		.size	CyDmaChRoundRobin, .-CyDmaChRoundRobin
 948              		.section	.text.CyDmaTdFree,"ax",%progbits
 949              		.align	2
 950              		.global	CyDmaTdFree
 951              		.thumb
 952              		.thumb_func
 953              		.type	CyDmaTdFree, %function
 954              	CyDmaTdFree:
 955              	.LFB17:
 956              		.loc 1 756 0
 957              		.cfi_startproc
 958              		@ args = 0, pretend = 0, frame = 0
 959              		@ frame_needed = 0, uses_anonymous_args = 0
 960              	.LVL119:
 961              		.loc 1 757 0
 962 0000 10F0800F 		tst	r0, #128
 963              		.loc 1 756 0
 964 0004 10B5     		push	{r4, lr}
 965              	.LCFI3:
 966              		.cfi_def_cfa_offset 8
 967              		.loc 1 756 0
 968 0006 0446     		mov	r4, r0
 969              		.cfi_offset 14, -4
 970              		.cfi_offset 4, -8
 971              		.loc 1 757 0
 972 0008 15D1     		bne	.L108
ARM GAS  C:\Users\SUZUKI~1\AppData\Local\Temp\cc3mxj1A.s 			page 37


 973              	.LVL120:
 974              	.LBB7:
 975              		.loc 1 760 0
 976 000a FFF7FEFF 		bl	CyEnterCriticalSection
 977              		.loc 1 763 0
 978 000e 40F20003 		movw	r3, #:lower16:.LANCHOR0
 979 0012 C0F20003 		movt	r3, #:upper16:.LANCHOR0
 980 0016 93F800C0 		ldrb	ip, [r3, #0]	@ zero_extendqisi2
 981 001a 47F60002 		movw	r2, #:lower16:1073772544
 982 001e C4F20002 		movt	r2, #:upper16:1073772544
 983 0022 02F834C0 		strb	ip, [r2, r4, lsl #3]
 984              		.loc 1 769 0
 985 0026 5978     		ldrb	r1, [r3, #1]	@ zero_extendqisi2
 986              		.loc 1 766 0
 987 0028 1C70     		strb	r4, [r3, #0]
 988              		.loc 1 769 0
 989 002a 4A1C     		adds	r2, r1, #1
 990 002c 5A70     		strb	r2, [r3, #1]
 991              	.LBE7:
 992              		.loc 1 774 0
 993 002e BDE81040 		pop	{r4, lr}
 994              	.LBB8:
 995              		.loc 1 772 0
 996 0032 FFF7FEBF 		b	CyExitCriticalSection
 997              	.LVL121:
 998              	.L108:
 999 0036 10BD     		pop	{r4, pc}
 1000              	.LBE8:
 1001              		.cfi_endproc
 1002              	.LFE17:
 1003              		.size	CyDmaTdFree, .-CyDmaTdFree
 1004              		.section	.text.CyDmaTdAllocate,"ax",%progbits
 1005              		.align	2
 1006              		.global	CyDmaTdAllocate
 1007              		.thumb
 1008              		.thumb_func
 1009              		.type	CyDmaTdAllocate, %function
 1010              	CyDmaTdAllocate:
 1011              	.LFB16:
 1012              		.loc 1 714 0
 1013              		.cfi_startproc
 1014              		@ args = 0, pretend = 0, frame = 0
 1015              		@ frame_needed = 0, uses_anonymous_args = 0
 1016 0000 10B5     		push	{r4, lr}
 1017              	.LCFI4:
 1018              		.cfi_def_cfa_offset 8
 1019              		.loc 1 719 0
 1020              		.cfi_offset 14, -4
 1021              		.cfi_offset 4, -8
 1022 0002 FFF7FEFF 		bl	CyEnterCriticalSection
 1023              		.loc 1 721 0
 1024 0006 40F20003 		movw	r3, #:lower16:.LANCHOR0
 1025 000a C0F20003 		movt	r3, #:upper16:.LANCHOR0
 1026 000e 5A78     		ldrb	r2, [r3, #1]	@ zero_extendqisi2
 1027 0010 182A     		cmp	r2, #24
 1028 0012 0DD9     		bls	.L113
 1029              		.loc 1 724 0
ARM GAS  C:\Users\SUZUKI~1\AppData\Local\Temp\cc3mxj1A.s 			page 38


 1030 0014 1C78     		ldrb	r4, [r3, #0]	@ zero_extendqisi2
 1031              	.LVL122:
 1032              		.loc 1 727 0
 1033 0016 013A     		subs	r2, r2, #1
 1034              		.loc 1 730 0
 1035 0018 47F60001 		movw	r1, #:lower16:1073772544
 1036              		.loc 1 727 0
 1037 001c 5A70     		strb	r2, [r3, #1]
 1038              		.loc 1 730 0
 1039 001e C4F20001 		movt	r1, #:upper16:1073772544
 1040 0022 11F83420 		ldrb	r2, [r1, r4, lsl #3]	@ zero_extendqisi2
 1041 0026 1A70     		strb	r2, [r3, #0]
 1042              		.loc 1 734 0
 1043 0028 FFF7FEFF 		bl	CyExitCriticalSection
 1044              		.loc 1 737 0
 1045 002c 2046     		mov	r0, r4
 1046 002e 10BD     		pop	{r4, pc}
 1047              	.LVL123:
 1048              	.L113:
 1049              		.loc 1 721 0
 1050 0030 FF24     		movs	r4, #255
 1051              	.LVL124:
 1052              		.loc 1 734 0
 1053 0032 FFF7FEFF 		bl	CyExitCriticalSection
 1054              		.loc 1 737 0
 1055 0036 2046     		mov	r0, r4
 1056 0038 10BD     		pop	{r4, pc}
 1057              		.cfi_endproc
 1058              	.LFE16:
 1059              		.size	CyDmaTdAllocate, .-CyDmaTdAllocate
 1060 003a 00BF     		.section	.text.CyDmaChFree,"ax",%progbits
 1061              		.align	2
 1062              		.global	CyDmaChFree
 1063              		.thumb
 1064              		.thumb_func
 1065              		.type	CyDmaChFree, %function
 1066              	CyDmaChFree:
 1067              	.LFB5:
 1068              		.loc 1 233 0
 1069              		.cfi_startproc
 1070              		@ args = 0, pretend = 0, frame = 0
 1071              		@ frame_needed = 0, uses_anonymous_args = 0
 1072              	.LVL125:
 1073              		.loc 1 237 0
 1074 0000 1728     		cmp	r0, #23
 1075              		.loc 1 233 0
 1076 0002 10B5     		push	{r4, lr}
 1077              	.LCFI5:
 1078              		.cfi_def_cfa_offset 8
 1079              		.loc 1 233 0
 1080 0004 0446     		mov	r4, r0
 1081              		.cfi_offset 14, -4
 1082              		.cfi_offset 4, -8
 1083              		.loc 1 237 0
 1084 0006 01D9     		bls	.L115
 1085              	.LVL126:
 1086 0008 0120     		movs	r0, #1
ARM GAS  C:\Users\SUZUKI~1\AppData\Local\Temp\cc3mxj1A.s 			page 39


 1087              	.LVL127:
 1088 000a 10BD     		pop	{r4, pc}
 1089              	.LVL128:
 1090              	.L115:
 1091              		.loc 1 240 0
 1092 000c FFF7FEFF 		bl	CyEnterCriticalSection
 1093              		.loc 1 243 0
 1094 0010 0121     		movs	r1, #1
 1095 0012 11FA04F4 		lsls	r4, r1, r4
 1096              	.LVL129:
 1097 0016 40F20003 		movw	r3, #:lower16:.LANCHOR1
 1098 001a C0F20003 		movt	r3, #:upper16:.LANCHOR1
 1099 001e 1A68     		ldr	r2, [r3, #0]
 1100 0020 22EA0404 		bic	r4, r2, r4
 1101 0024 1C60     		str	r4, [r3, #0]
 1102              		.loc 1 246 0
 1103 0026 FFF7FEFF 		bl	CyExitCriticalSection
 1104 002a 0020     		movs	r0, #0
 1105              	.LVL130:
 1106              	.LVL131:
 1107              		.loc 1 251 0
 1108 002c 10BD     		pop	{r4, pc}
 1109              		.cfi_endproc
 1110              	.LFE5:
 1111              		.size	CyDmaChFree, .-CyDmaChFree
 1112 002e 00BF     		.section	.text.CyDmaChAlloc,"ax",%progbits
 1113              		.align	2
 1114              		.global	CyDmaChAlloc
 1115              		.thumb
 1116              		.thumb_func
 1117              		.type	CyDmaChAlloc, %function
 1118              	CyDmaChAlloc:
 1119              	.LFB4:
 1120              		.loc 1 184 0
 1121              		.cfi_startproc
 1122              		@ args = 0, pretend = 0, frame = 0
 1123              		@ frame_needed = 0, uses_anonymous_args = 0
 1124 0000 38B5     		push	{r3, r4, r5, lr}
 1125              	.LCFI6:
 1126              		.cfi_def_cfa_offset 16
 1127              		.loc 1 191 0
 1128 0002 40F20005 		movw	r5, #:lower16:.LANCHOR1
 1129              		.cfi_offset 14, -4
 1130              		.cfi_offset 5, -8
 1131              		.cfi_offset 4, -12
 1132              		.cfi_offset 3, -16
 1133 0006 C0F20005 		movt	r5, #:upper16:.LANCHOR1
 1134 000a FFF7FEFF 		bl	CyEnterCriticalSection
 1135 000e 2A68     		ldr	r2, [r5, #0]
 1136 0010 0123     		movs	r3, #1
 1137              	.LVL132:
 1138 0012 0024     		movs	r4, #0
 1139              	.LVL133:
 1140              		.loc 1 196 0
 1141 0014 12F0010F 		tst	r2, #1
 1142 0018 0ED0     		beq	.L128
 1143              		.loc 1 194 0
ARM GAS  C:\Users\SUZUKI~1\AppData\Local\Temp\cc3mxj1A.s 			page 40


 1144 001a 1C46     		mov	r4, r3
 1145              	.LVL134:
 1146 001c 0223     		movs	r3, #2
 1147 001e 08E0     		b	.L122
 1148              	.L119:
 1149 0020 CCB2     		uxtb	r4, r1
 1150              	.LVL135:
 1151 0022 5B00     		lsls	r3, r3, #1
 1152 0024 182C     		cmp	r4, #24
 1153 0026 0FD0     		beq	.L120
 1154              		.loc 1 196 0
 1155 0028 1342     		tst	r3, r2
 1156 002a 05D0     		beq	.L128
 1157              		.loc 1 194 0
 1158 002c 0134     		adds	r4, r4, #1
 1159              	.LVL136:
 1160 002e E4B2     		uxtb	r4, r4
 1161              	.LVL137:
 1162 0030 5B00     		lsls	r3, r3, #1
 1163              	.L122:
 1164 0032 611C     		adds	r1, r4, #1
 1165              		.loc 1 196 0
 1166 0034 1342     		tst	r3, r2
 1167 0036 F3D1     		bne	.L119
 1168              	.L128:
 1169              		.loc 1 199 0
 1170 0038 1343     		orrs	r3, r3, r2
 1171              	.LVL138:
 1172              		.loc 1 204 0
 1173 003a 172C     		cmp	r4, #23
 1174              		.loc 1 199 0
 1175 003c 2B60     		str	r3, [r5, #0]
 1176              		.loc 1 204 0
 1177 003e 03D8     		bhi	.L120
 1178              		.loc 1 210 0
 1179 0040 FFF7FEFF 		bl	CyExitCriticalSection
 1180              		.loc 1 213 0
 1181 0044 2046     		mov	r0, r4
 1182 0046 38BD     		pop	{r3, r4, r5, pc}
 1183              	.LVL139:
 1184              	.L120:
 1185              		.loc 1 194 0
 1186 0048 FF24     		movs	r4, #255
 1187              	.LVL140:
 1188              		.loc 1 210 0
 1189 004a FFF7FEFF 		bl	CyExitCriticalSection
 1190              	.LVL141:
 1191              		.loc 1 213 0
 1192 004e 2046     		mov	r0, r4
 1193 0050 38BD     		pop	{r3, r4, r5, pc}
 1194              		.cfi_endproc
 1195              	.LFE4:
 1196              		.size	CyDmaChAlloc, .-CyDmaChAlloc
 1197 0052 00BF     		.data
 1198              		.align	2
 1199              		.set	.LANCHOR1,. + 0
 1200              		.type	CyDmaChannels, %object
ARM GAS  C:\Users\SUZUKI~1\AppData\Local\Temp\cc3mxj1A.s 			page 41


 1201              		.size	CyDmaChannels, 4
 1202              	CyDmaChannels:
 1203 0000 0F000000 		.word	15
 1204              		.bss
 1205              		.set	.LANCHOR0,. + 0
 1206              		.type	CyDmaTdFreeIndex, %object
 1207              		.size	CyDmaTdFreeIndex, 1
 1208              	CyDmaTdFreeIndex:
 1209 0000 00       		.space	1
 1210              		.type	CyDmaTdCurrentNumber, %object
 1211              		.size	CyDmaTdCurrentNumber, 1
 1212              	CyDmaTdCurrentNumber:
 1213 0001 00       		.space	1
 1214              		.text
 1215              	.Letext0:
