ARM GAS  C:\Users\SUZUKI~1\AppData\Local\Temp\ccP47L10.s 			page 1


   1              		.syntax unified
   2              		.cpu cortex-m3
   3              		.fpu softvfp
   4              		.eabi_attribute 20, 1
   5              		.eabi_attribute 21, 1
   6              		.eabi_attribute 23, 3
   7              		.eabi_attribute 24, 1
   8              		.eabi_attribute 25, 1
   9              		.eabi_attribute 26, 1
  10              		.eabi_attribute 30, 2
  11              		.eabi_attribute 18, 4
  12              		.thumb
  13              		.file	"main.c"
  14              		.section	.debug_abbrev,"",%progbits
  15              	.Ldebug_abbrev0:
  16              		.section	.debug_info,"",%progbits
  17              	.Ldebug_info0:
  18              		.section	.debug_line,"",%progbits
  19              	.Ldebug_line0:
  20 0000 22010000 		.text
  20      02005300 
  20      00000201 
  20      FB0E0D00 
  20      01010101 
  21              	.Ltext0:
  22              		.cfi_sections	.debug_frame
  23              		.section	.text.mixdisplaybuffer,"ax",%progbits
  24              		.align	2
  25              		.global	mixdisplaybuffer
  26              		.thumb
  27              		.thumb_func
  28              		.type	mixdisplaybuffer, %function
  29              	mixdisplaybuffer:
  30              	.LFB30:
  31              		.file 1 ".\\main.c"
   1:.\main.c      **** /* ========================================
   2:.\main.c      ****  *
   3:.\main.c      ****  * Copyright YOUR COMPANY, THE YEAR
   4:.\main.c      ****  * All Rights Reserved
   5:.\main.c      ****  * UNPUBLISHED, LICENSED SOFTWARE.
   6:.\main.c      ****  *
   7:.\main.c      ****  * CONFIDENTIAL AND PROPRIETARY INFORMATION
   8:.\main.c      ****  * WHICH IS THE PROPERTY OF your company.
   9:.\main.c      ****  *
  10:.\main.c      ****  * ========================================
  11:.\main.c      **** */
  12:.\main.c      **** #include <device.h>
  13:.\main.c      **** #include "font.h"
  14:.\main.c      **** #include "uart.h"
  15:.\main.c      **** #include "utf8.h"
  16:.\main.c      **** #include "matrix.h"
  17:.\main.c      **** #include "fft.h"
  18:.\main.c      **** #include "clock.h"
  19:.\main.c      **** 
  20:.\main.c      **** void mixdisplaybufer(void);
  21:.\main.c      **** void initialize(void);
  22:.\main.c      **** void buf_initialize(uint8 buf[][16]);
ARM GAS  C:\Users\SUZUKI~1\AppData\Local\Temp\ccP47L10.s 			page 2


  23:.\main.c      **** void delay_ms(uint16);
  24:.\main.c      **** uint8 disp_buf[96][16]; // __attribute__((aligned(16), section(".data2")));
  25:.\main.c      **** 
  26:.\main.c      **** extern uint8 clock_disp_buf[96][16];
  27:.\main.c      **** extern uint8 fft_disp_buf[96][16];
  28:.\main.c      **** 
  29:.\main.c      **** void main()
  30:.\main.c      **** {
  31:.\main.c      **** 	int i;
  32:.\main.c      **** 	initialize();
  33:.\main.c      **** 	while(1) {
  34:.\main.c      **** 		for(i = 0; i < 100000; i++) {}
  35:.\main.c      **** 	}
  36:.\main.c      **** }
  37:.\main.c      **** 
  38:.\main.c      **** void mixdisplaybuffer(void)
  39:.\main.c      **** {
  32              		.loc 1 39 0
  33              		.cfi_startproc
  34              		@ args = 0, pretend = 0, frame = 0
  35              		@ frame_needed = 0, uses_anonymous_args = 0
  36              		@ link register save eliminated.
  37 0000 2DE9F005 		push	{r4, r5, r6, r7, r8, sl}
  38              	.LCFI0:
  39              		.cfi_def_cfa_offset 24
  40              		.loc 1 39 0
  41 0004 40F20006 		movw	r6, #:lower16:fft_disp_buf
  42              		.cfi_offset 10, -4
  43              		.cfi_offset 8, -8
  44              		.cfi_offset 7, -12
  45              		.cfi_offset 6, -16
  46              		.cfi_offset 5, -20
  47              		.cfi_offset 4, -24
  48 0008 40F20005 		movw	r5, #:lower16:clock_disp_buf
  49 000c 40F20004 		movw	r4, #:lower16:disp_buf
  50 0010 C0F20006 		movt	r6, #:upper16:fft_disp_buf
  51 0014 C0F20005 		movt	r5, #:upper16:clock_disp_buf
  52 0018 C0F20004 		movt	r4, #:upper16:disp_buf
  53 001c 3146     		mov	r1, r6
  54 001e 2A46     		mov	r2, r5
  55 0020 2346     		mov	r3, r4
  56 0022 0020     		movs	r0, #0
  57              	.L2:
  40:.\main.c      **** 	// clock_disp_bufとfft_disp_bufをmixする。
  41:.\main.c      **** 	int i, j;
  42:.\main.c      **** 	register uint8 buf;
  43:.\main.c      **** 	for(j = 0; j < 96; j++) {
  44:.\main.c      **** 		for(i = 0; i < 16; i++) {
  45:.\main.c      **** 			buf = fft_disp_buf[j][i] + clock_disp_buf[j][i];
  58              		.loc 1 45 0
  59 0024 475D     		ldrb	r7, [r0, r5]	@ zero_extendqisi2
  60 0026 10F806A0 		ldrb	sl, [r0, r6]	@ zero_extendqisi2
  61 002a 07EB0A08 		add	r8, r7, sl
  62 002e 5FFA88FC 		uxtb	ip, r8
  63              	.LVL0:
  46:.\main.c      **** 			if(buf & 0x08) { buf |= 0x07; }
  64              		.loc 1 46 0
ARM GAS  C:\Users\SUZUKI~1\AppData\Local\Temp\ccP47L10.s 			page 3


  65 0032 1CF0080F 		tst	ip, #8
  66 0036 18BF     		it	ne
  67 0038 4CF0070C 		orrne	ip, ip, #7
  68              	.LVL1:
  69              		.loc 1 45 0
  70 003c 92F801A0 		ldrb	sl, [r2, #1]	@ zero_extendqisi2
  71 0040 91F80180 		ldrb	r8, [r1, #1]	@ zero_extendqisi2
  47:.\main.c      **** 			if(buf & 0x80) { buf |= 0x70; }
  72              		.loc 1 47 0
  73 0044 1CF0800F 		tst	ip, #128
  74 0048 18BF     		it	ne
  75 004a 4CF0700C 		orrne	ip, ip, #112
  76              	.LVL2:
  48:.\main.c      **** 			disp_buf[j][i] = buf & 0x77;
  77              		.loc 1 48 0
  78 004e 0CF07707 		and	r7, ip, #119
  79              		.loc 1 45 0
  80 0052 0AEB080C 		add	ip, sl, r8
  81              	.LVL3:
  82 0056 5FFA8CFC 		uxtb	ip, ip
  83              	.LVL4:
  84              		.loc 1 46 0
  85 005a 1CF0080F 		tst	ip, #8
  86 005e 18BF     		it	ne
  87 0060 4CF0070C 		orrne	ip, ip, #7
  88              	.LVL5:
  89              		.loc 1 45 0
  90 0064 92F802A0 		ldrb	sl, [r2, #2]	@ zero_extendqisi2
  91 0068 91F80280 		ldrb	r8, [r1, #2]	@ zero_extendqisi2
  92              		.loc 1 47 0
  93 006c 1CF0800F 		tst	ip, #128
  94 0070 18BF     		it	ne
  95 0072 4CF0700C 		orrne	ip, ip, #112
  96              	.LVL6:
  97              		.loc 1 48 0
  98 0076 0755     		strb	r7, [r0, r4]
  99 0078 0CF07707 		and	r7, ip, #119
 100              		.loc 1 45 0
 101 007c 0AEB080C 		add	ip, sl, r8
 102              	.LVL7:
 103 0080 5FFA8CFC 		uxtb	ip, ip
 104              	.LVL8:
 105              		.loc 1 46 0
 106 0084 1CF0080F 		tst	ip, #8
 107 0088 18BF     		it	ne
 108 008a 4CF0070C 		orrne	ip, ip, #7
 109              	.LVL9:
 110              		.loc 1 45 0
 111 008e 92F803A0 		ldrb	sl, [r2, #3]	@ zero_extendqisi2
 112 0092 91F80380 		ldrb	r8, [r1, #3]	@ zero_extendqisi2
 113              		.loc 1 47 0
 114 0096 1CF0800F 		tst	ip, #128
 115 009a 18BF     		it	ne
 116 009c 4CF0700C 		orrne	ip, ip, #112
 117              	.LVL10:
 118              		.loc 1 48 0
 119 00a0 5F70     		strb	r7, [r3, #1]
ARM GAS  C:\Users\SUZUKI~1\AppData\Local\Temp\ccP47L10.s 			page 4


 120 00a2 0CF07707 		and	r7, ip, #119
 121              		.loc 1 45 0
 122 00a6 0AEB080C 		add	ip, sl, r8
 123              	.LVL11:
 124 00aa 5FFA8CFC 		uxtb	ip, ip
 125              	.LVL12:
 126              		.loc 1 46 0
 127 00ae 1CF0080F 		tst	ip, #8
 128 00b2 18BF     		it	ne
 129 00b4 4CF0070C 		orrne	ip, ip, #7
 130              	.LVL13:
 131              		.loc 1 45 0
 132 00b8 92F804A0 		ldrb	sl, [r2, #4]	@ zero_extendqisi2
 133 00bc 91F80480 		ldrb	r8, [r1, #4]	@ zero_extendqisi2
 134              		.loc 1 47 0
 135 00c0 1CF0800F 		tst	ip, #128
 136 00c4 18BF     		it	ne
 137 00c6 4CF0700C 		orrne	ip, ip, #112
 138              	.LVL14:
 139              		.loc 1 48 0
 140 00ca 9F70     		strb	r7, [r3, #2]
 141 00cc 0CF07707 		and	r7, ip, #119
 142              		.loc 1 45 0
 143 00d0 0AEB080C 		add	ip, sl, r8
 144              	.LVL15:
 145 00d4 5FFA8CFC 		uxtb	ip, ip
 146              	.LVL16:
 147              		.loc 1 46 0
 148 00d8 1CF0080F 		tst	ip, #8
 149 00dc 18BF     		it	ne
 150 00de 4CF0070C 		orrne	ip, ip, #7
 151              	.LVL17:
 152              		.loc 1 45 0
 153 00e2 92F805A0 		ldrb	sl, [r2, #5]	@ zero_extendqisi2
 154 00e6 91F80580 		ldrb	r8, [r1, #5]	@ zero_extendqisi2
 155              		.loc 1 47 0
 156 00ea 1CF0800F 		tst	ip, #128
 157 00ee 18BF     		it	ne
 158 00f0 4CF0700C 		orrne	ip, ip, #112
 159              	.LVL18:
 160              		.loc 1 48 0
 161 00f4 DF70     		strb	r7, [r3, #3]
 162 00f6 0CF07707 		and	r7, ip, #119
 163              		.loc 1 45 0
 164 00fa 0AEB080C 		add	ip, sl, r8
 165              	.LVL19:
 166 00fe 5FFA8CFC 		uxtb	ip, ip
 167              	.LVL20:
 168              		.loc 1 46 0
 169 0102 1CF0080F 		tst	ip, #8
 170 0106 18BF     		it	ne
 171 0108 4CF0070C 		orrne	ip, ip, #7
 172              	.LVL21:
 173              		.loc 1 45 0
 174 010c 92F806A0 		ldrb	sl, [r2, #6]	@ zero_extendqisi2
 175 0110 91F80680 		ldrb	r8, [r1, #6]	@ zero_extendqisi2
 176              		.loc 1 47 0
ARM GAS  C:\Users\SUZUKI~1\AppData\Local\Temp\ccP47L10.s 			page 5


 177 0114 1CF0800F 		tst	ip, #128
 178 0118 18BF     		it	ne
 179 011a 4CF0700C 		orrne	ip, ip, #112
 180              	.LVL22:
 181              		.loc 1 48 0
 182 011e 1F71     		strb	r7, [r3, #4]
 183 0120 0CF07707 		and	r7, ip, #119
 184              		.loc 1 45 0
 185 0124 0AEB080C 		add	ip, sl, r8
 186              	.LVL23:
 187 0128 5FFA8CFC 		uxtb	ip, ip
 188              	.LVL24:
 189              		.loc 1 46 0
 190 012c 1CF0080F 		tst	ip, #8
 191 0130 18BF     		it	ne
 192 0132 4CF0070C 		orrne	ip, ip, #7
 193              	.LVL25:
 194              		.loc 1 45 0
 195 0136 92F807A0 		ldrb	sl, [r2, #7]	@ zero_extendqisi2
 196 013a 91F80780 		ldrb	r8, [r1, #7]	@ zero_extendqisi2
 197              		.loc 1 47 0
 198 013e 1CF0800F 		tst	ip, #128
 199 0142 18BF     		it	ne
 200 0144 4CF0700C 		orrne	ip, ip, #112
 201              	.LVL26:
 202              		.loc 1 48 0
 203 0148 5F71     		strb	r7, [r3, #5]
 204 014a 0CF07707 		and	r7, ip, #119
 205              		.loc 1 45 0
 206 014e 0AEB080C 		add	ip, sl, r8
 207              	.LVL27:
 208 0152 5FFA8CFC 		uxtb	ip, ip
 209              	.LVL28:
 210              		.loc 1 46 0
 211 0156 1CF0080F 		tst	ip, #8
 212 015a 18BF     		it	ne
 213 015c 4CF0070C 		orrne	ip, ip, #7
 214              	.LVL29:
 215              		.loc 1 45 0
 216 0160 92F808A0 		ldrb	sl, [r2, #8]	@ zero_extendqisi2
 217 0164 91F80880 		ldrb	r8, [r1, #8]	@ zero_extendqisi2
 218              		.loc 1 47 0
 219 0168 1CF0800F 		tst	ip, #128
 220 016c 18BF     		it	ne
 221 016e 4CF0700C 		orrne	ip, ip, #112
 222              	.LVL30:
 223              		.loc 1 48 0
 224 0172 9F71     		strb	r7, [r3, #6]
 225 0174 0CF07707 		and	r7, ip, #119
 226              		.loc 1 45 0
 227 0178 0AEB080C 		add	ip, sl, r8
 228              	.LVL31:
 229 017c 5FFA8CFC 		uxtb	ip, ip
 230              	.LVL32:
 231              		.loc 1 46 0
 232 0180 1CF0080F 		tst	ip, #8
 233 0184 18BF     		it	ne
ARM GAS  C:\Users\SUZUKI~1\AppData\Local\Temp\ccP47L10.s 			page 6


 234 0186 4CF0070C 		orrne	ip, ip, #7
 235              	.LVL33:
 236              		.loc 1 45 0
 237 018a 92F809A0 		ldrb	sl, [r2, #9]	@ zero_extendqisi2
 238 018e 91F80980 		ldrb	r8, [r1, #9]	@ zero_extendqisi2
 239              		.loc 1 47 0
 240 0192 1CF0800F 		tst	ip, #128
 241 0196 18BF     		it	ne
 242 0198 4CF0700C 		orrne	ip, ip, #112
 243              	.LVL34:
 244              		.loc 1 48 0
 245 019c DF71     		strb	r7, [r3, #7]
 246 019e 0CF07707 		and	r7, ip, #119
 247              		.loc 1 45 0
 248 01a2 0AEB080C 		add	ip, sl, r8
 249              	.LVL35:
 250 01a6 5FFA8CFC 		uxtb	ip, ip
 251              	.LVL36:
 252              		.loc 1 46 0
 253 01aa 1CF0080F 		tst	ip, #8
 254 01ae 18BF     		it	ne
 255 01b0 4CF0070C 		orrne	ip, ip, #7
 256              	.LVL37:
 257              		.loc 1 45 0
 258 01b4 92F80AA0 		ldrb	sl, [r2, #10]	@ zero_extendqisi2
 259 01b8 91F80A80 		ldrb	r8, [r1, #10]	@ zero_extendqisi2
 260              		.loc 1 47 0
 261 01bc 1CF0800F 		tst	ip, #128
 262 01c0 18BF     		it	ne
 263 01c2 4CF0700C 		orrne	ip, ip, #112
 264              	.LVL38:
 265              		.loc 1 48 0
 266 01c6 1F72     		strb	r7, [r3, #8]
 267 01c8 0CF07707 		and	r7, ip, #119
 268              		.loc 1 45 0
 269 01cc 0AEB080C 		add	ip, sl, r8
 270              	.LVL39:
 271 01d0 5FFA8CFC 		uxtb	ip, ip
 272              	.LVL40:
 273              		.loc 1 46 0
 274 01d4 1CF0080F 		tst	ip, #8
 275 01d8 18BF     		it	ne
 276 01da 4CF0070C 		orrne	ip, ip, #7
 277              	.LVL41:
 278              		.loc 1 45 0
 279 01de 92F80BA0 		ldrb	sl, [r2, #11]	@ zero_extendqisi2
 280 01e2 91F80B80 		ldrb	r8, [r1, #11]	@ zero_extendqisi2
 281              		.loc 1 47 0
 282 01e6 1CF0800F 		tst	ip, #128
 283 01ea 18BF     		it	ne
 284 01ec 4CF0700C 		orrne	ip, ip, #112
 285              	.LVL42:
 286              		.loc 1 48 0
 287 01f0 5F72     		strb	r7, [r3, #9]
 288 01f2 0CF07707 		and	r7, ip, #119
 289              		.loc 1 45 0
 290 01f6 0AEB080C 		add	ip, sl, r8
ARM GAS  C:\Users\SUZUKI~1\AppData\Local\Temp\ccP47L10.s 			page 7


 291              	.LVL43:
 292 01fa 5FFA8CFC 		uxtb	ip, ip
 293              	.LVL44:
 294              		.loc 1 46 0
 295 01fe 1CF0080F 		tst	ip, #8
 296 0202 18BF     		it	ne
 297 0204 4CF0070C 		orrne	ip, ip, #7
 298              	.LVL45:
 299              		.loc 1 48 0
 300 0208 9F72     		strb	r7, [r3, #10]
 301              		.loc 1 47 0
 302 020a 1CF0800F 		tst	ip, #128
 303              		.loc 1 45 0
 304 020e 92F80CA0 		ldrb	sl, [r2, #12]	@ zero_extendqisi2
 305 0212 91F80C80 		ldrb	r8, [r1, #12]	@ zero_extendqisi2
 306              		.loc 1 47 0
 307 0216 18BF     		it	ne
 308 0218 4CF0700C 		orrne	ip, ip, #112
 309              	.LVL46:
 310              		.loc 1 48 0
 311 021c 0CF07707 		and	r7, ip, #119
 312              		.loc 1 45 0
 313 0220 0AEB080C 		add	ip, sl, r8
 314              	.LVL47:
 315 0224 5FFA8CFC 		uxtb	ip, ip
 316              	.LVL48:
 317              		.loc 1 46 0
 318 0228 1CF0080F 		tst	ip, #8
 319 022c 18BF     		it	ne
 320 022e 4CF0070C 		orrne	ip, ip, #7
 321              	.LVL49:
 322              		.loc 1 47 0
 323 0232 1CF0800F 		tst	ip, #128
 324              		.loc 1 45 0
 325 0236 92F80DA0 		ldrb	sl, [r2, #13]	@ zero_extendqisi2
 326 023a 91F80D80 		ldrb	r8, [r1, #13]	@ zero_extendqisi2
 327              		.loc 1 47 0
 328 023e 18BF     		it	ne
 329 0240 4CF0700C 		orrne	ip, ip, #112
 330              	.LVL50:
 331              		.loc 1 48 0
 332 0244 DF72     		strb	r7, [r3, #11]
 333 0246 0CF07707 		and	r7, ip, #119
 334              		.loc 1 45 0
 335 024a 0AEB080C 		add	ip, sl, r8
 336              	.LVL51:
 337 024e 5FFA8CFC 		uxtb	ip, ip
 338              	.LVL52:
 339              		.loc 1 46 0
 340 0252 1CF0080F 		tst	ip, #8
 341 0256 18BF     		it	ne
 342 0258 4CF0070C 		orrne	ip, ip, #7
 343              	.LVL53:
 344              		.loc 1 47 0
 345 025c 1CF0800F 		tst	ip, #128
 346              		.loc 1 45 0
 347 0260 92F80EA0 		ldrb	sl, [r2, #14]	@ zero_extendqisi2
ARM GAS  C:\Users\SUZUKI~1\AppData\Local\Temp\ccP47L10.s 			page 8


 348 0264 91F80E80 		ldrb	r8, [r1, #14]	@ zero_extendqisi2
 349              		.loc 1 47 0
 350 0268 18BF     		it	ne
 351 026a 4CF0700C 		orrne	ip, ip, #112
 352              	.LVL54:
 353              		.loc 1 48 0
 354 026e 1F73     		strb	r7, [r3, #12]
 355 0270 0CF07707 		and	r7, ip, #119
 356              		.loc 1 45 0
 357 0274 0AEB080C 		add	ip, sl, r8
 358              	.LVL55:
 359 0278 5FFA8CFC 		uxtb	ip, ip
 360              	.LVL56:
 361              		.loc 1 46 0
 362 027c 1CF0080F 		tst	ip, #8
 363 0280 18BF     		it	ne
 364 0282 4CF0070C 		orrne	ip, ip, #7
 365              	.LVL57:
 366              		.loc 1 47 0
 367 0286 1CF0800F 		tst	ip, #128
 368              		.loc 1 45 0
 369 028a 92F80FA0 		ldrb	sl, [r2, #15]	@ zero_extendqisi2
 370 028e 91F80F80 		ldrb	r8, [r1, #15]	@ zero_extendqisi2
 371              		.loc 1 47 0
 372 0292 18BF     		it	ne
 373 0294 4CF0700C 		orrne	ip, ip, #112
 374              	.LVL58:
 375              		.loc 1 48 0
 376 0298 5F73     		strb	r7, [r3, #13]
 377 029a 0CF07707 		and	r7, ip, #119
 378              		.loc 1 45 0
 379 029e 0AEB080C 		add	ip, sl, r8
 380              	.LVL59:
 381 02a2 5FFA8CFC 		uxtb	ip, ip
 382              	.LVL60:
 383              		.loc 1 46 0
 384 02a6 1CF0080F 		tst	ip, #8
 385 02aa 18BF     		it	ne
 386 02ac 4CF0070C 		orrne	ip, ip, #7
 387              	.LVL61:
 388              		.loc 1 47 0
 389 02b0 1CF0800F 		tst	ip, #128
 390 02b4 18BF     		it	ne
 391 02b6 4CF0700C 		orrne	ip, ip, #112
 392              	.LVL62:
 393              		.loc 1 48 0
 394 02ba 0CF0770C 		and	ip, ip, #119
 395              	.LVL63:
 396 02be 1030     		adds	r0, r0, #16
 397 02c0 9F73     		strb	r7, [r3, #14]
 398 02c2 83F80FC0 		strb	ip, [r3, #15]
 399 02c6 1031     		adds	r1, r1, #16
 400 02c8 1032     		adds	r2, r2, #16
 401 02ca 1033     		adds	r3, r3, #16
 402              		.loc 1 43 0
 403 02cc B0F5C06F 		cmp	r0, #1536
 404 02d0 7FF4A8AE 		bne	.L2
ARM GAS  C:\Users\SUZUKI~1\AppData\Local\Temp\ccP47L10.s 			page 9


  49:.\main.c      **** 		}
  50:.\main.c      **** 	}
  51:.\main.c      **** 	return;
  52:.\main.c      **** }
 405              		.loc 1 52 0
 406 02d4 BDE8F005 		pop	{r4, r5, r6, r7, r8, sl}
 407 02d8 7047     		bx	lr
 408              		.cfi_endproc
 409              	.LFE30:
 410              		.size	mixdisplaybuffer, .-mixdisplaybuffer
 411 02da 00BF     		.section	.text.buf_initialize,"ax",%progbits
 412              		.align	2
 413              		.global	buf_initialize
 414              		.thumb
 415              		.thumb_func
 416              		.type	buf_initialize, %function
 417              	buf_initialize:
 418              	.LFB32:
  53:.\main.c      **** 
  54:.\main.c      **** void initialize(void)
  55:.\main.c      **** {
  56:.\main.c      **** 	uint8 ret = 0;
  57:.\main.c      **** 	
  58:.\main.c      **** 	UART_Start();
  59:.\main.c      **** 	Timer_Start();
  60:.\main.c      **** 	Timer_WriteCounter(0);
  61:.\main.c      **** 	buf_initialize(disp_buf);
  62:.\main.c      **** 	Matrix_Start();
  63:.\main.c      **** 	Matrix_SetBaseAddress((uint8*)fft_disp_buf);
  64:.\main.c      **** //	ret = openFont("JISKAN1.BDF", "CTABLE.TXT");
  65:.\main.c      **** 	FFT_Start();
  66:.\main.c      **** 	clock_Start();
  67:.\main.c      **** 	
  68:.\main.c      **** 	CyGlobalIntEnable;
  69:.\main.c      **** //	shift_irq_StartEx(shift_isr);
  70:.\main.c      **** //	rx_irq_StartEx(rx_isr);
  71:.\main.c      **** 	disp_buf[ret][3] = 0xff;
  72:.\main.c      **** 	return;
  73:.\main.c      **** }
  74:.\main.c      **** 
  75:.\main.c      **** void buf_initialize(uint8 buf[][16])
  76:.\main.c      **** {
 419              		.loc 1 76 0
 420              		.cfi_startproc
 421              		@ args = 0, pretend = 0, frame = 0
 422              		@ frame_needed = 0, uses_anonymous_args = 0
 423              		@ link register save eliminated.
 424              	.LVL64:
 425              		.loc 1 75 0
 426 0000 00F54061 		add	r1, r0, #3072
 427              	.LVL65:
  77:.\main.c      **** 	int16 i, j;
  78:.\main.c      **** 	for(i = 0; i < 192; i++) {
  79:.\main.c      **** 		for(j = 0; j < 16; j++) {
  80:.\main.c      **** 			buf[i][j] = 0x00;
 428              		.loc 1 80 0
 429 0004 0023     		movs	r3, #0
ARM GAS  C:\Users\SUZUKI~1\AppData\Local\Temp\ccP47L10.s 			page 10


 430              	.L40:
 431 0006 00F11002 		add	r2, r0, #16
 432 000a 0374     		strb	r3, [r0, #16]
 433 000c 0370     		strb	r3, [r0, #0]
 434 000e 4370     		strb	r3, [r0, #1]
 435 0010 8370     		strb	r3, [r0, #2]
 436 0012 C370     		strb	r3, [r0, #3]
 437 0014 0371     		strb	r3, [r0, #4]
 438 0016 4371     		strb	r3, [r0, #5]
 439 0018 8371     		strb	r3, [r0, #6]
 440 001a C371     		strb	r3, [r0, #7]
 441 001c 0372     		strb	r3, [r0, #8]
 442 001e 4372     		strb	r3, [r0, #9]
 443 0020 8372     		strb	r3, [r0, #10]
 444 0022 C372     		strb	r3, [r0, #11]
 445 0024 0373     		strb	r3, [r0, #12]
 446 0026 4373     		strb	r3, [r0, #13]
 447 0028 8373     		strb	r3, [r0, #14]
 448 002a C373     		strb	r3, [r0, #15]
 449 002c 02F11000 		add	r0, r2, #16
 450              		.loc 1 78 0
 451 0030 8842     		cmp	r0, r1
 452              		.loc 1 80 0
 453 0032 5370     		strb	r3, [r2, #1]
 454 0034 9370     		strb	r3, [r2, #2]
 455 0036 D370     		strb	r3, [r2, #3]
 456 0038 1371     		strb	r3, [r2, #4]
 457 003a 5371     		strb	r3, [r2, #5]
 458 003c 9371     		strb	r3, [r2, #6]
 459 003e D371     		strb	r3, [r2, #7]
 460 0040 1372     		strb	r3, [r2, #8]
 461 0042 5372     		strb	r3, [r2, #9]
 462 0044 9372     		strb	r3, [r2, #10]
 463 0046 D372     		strb	r3, [r2, #11]
 464 0048 1373     		strb	r3, [r2, #12]
 465 004a 5373     		strb	r3, [r2, #13]
 466 004c 9373     		strb	r3, [r2, #14]
 467 004e D373     		strb	r3, [r2, #15]
 468              		.loc 1 78 0
 469 0050 D9D1     		bne	.L40
  81:.\main.c      **** 		}
  82:.\main.c      **** 	}
  83:.\main.c      **** 	return;
  84:.\main.c      **** }
 470              		.loc 1 84 0
 471 0052 7047     		bx	lr
 472              		.cfi_endproc
 473              	.LFE32:
 474              		.size	buf_initialize, .-buf_initialize
 475              		.section	.text.delay_ms,"ax",%progbits
 476              		.align	2
 477              		.global	delay_ms
 478              		.thumb
 479              		.thumb_func
 480              		.type	delay_ms, %function
 481              	delay_ms:
 482              	.LFB33:
ARM GAS  C:\Users\SUZUKI~1\AppData\Local\Temp\ccP47L10.s 			page 11


  85:.\main.c      **** 
  86:.\main.c      **** void delay_ms(uint16 delay)
  87:.\main.c      **** {
 483              		.loc 1 87 0
 484              		.cfi_startproc
 485              		@ args = 0, pretend = 0, frame = 0
 486              		@ frame_needed = 0, uses_anonymous_args = 0
 487              	.LVL66:
 488 0000 08B5     		push	{r3, lr}
 489              	.LCFI1:
 490              		.cfi_def_cfa_offset 8
  88:.\main.c      **** 	Timer_WriteCounter(delay);
 491              		.loc 1 88 0
 492              		.cfi_offset 14, -4
 493              		.cfi_offset 3, -8
 494 0002 FFF7FEFF 		bl	Timer_WriteCounter
 495              	.LVL67:
 496              	.L45:
  89:.\main.c      **** 	while(Timer_ReadCounter() != 0) {}
 497              		.loc 1 89 0
 498 0006 FFF7FEFF 		bl	Timer_ReadCounter
 499 000a 0028     		cmp	r0, #0
 500 000c FBD1     		bne	.L45
  90:.\main.c      **** 	return;
  91:.\main.c      **** }
 501              		.loc 1 91 0
 502 000e 08BD     		pop	{r3, pc}
 503              		.cfi_endproc
 504              	.LFE33:
 505              		.size	delay_ms, .-delay_ms
 506              		.section	.text.initialize,"ax",%progbits
 507              		.align	2
 508              		.global	initialize
 509              		.thumb
 510              		.thumb_func
 511              		.type	initialize, %function
 512              	initialize:
 513              	.LFB31:
 514              		.loc 1 55 0
 515              		.cfi_startproc
 516              		@ args = 0, pretend = 0, frame = 0
 517              		@ frame_needed = 0, uses_anonymous_args = 0
 518 0000 10B5     		push	{r4, lr}
 519              	.LCFI2:
 520              		.cfi_def_cfa_offset 8
 521              		.loc 1 60 0
 522 0002 40F20004 		movw	r4, #:lower16:disp_buf
 523              		.cfi_offset 14, -4
 524              		.cfi_offset 4, -8
 525              		.loc 1 58 0
 526 0006 FFF7FEFF 		bl	UART_Start
 527              		.loc 1 60 0
 528 000a C0F20004 		movt	r4, #:upper16:disp_buf
 529              		.loc 1 59 0
 530 000e FFF7FEFF 		bl	Timer_Start
 531              		.loc 1 60 0
 532 0012 0020     		movs	r0, #0
ARM GAS  C:\Users\SUZUKI~1\AppData\Local\Temp\ccP47L10.s 			page 12


 533 0014 FFF7FEFF 		bl	Timer_WriteCounter
 534 0018 2246     		mov	r2, r4
 535              		.loc 1 54 0
 536 001a 04F54060 		add	r0, r4, #3072
 537              	.LBB4:
 538              	.LBB5:
 539              		.loc 1 80 0
 540 001e 0023     		movs	r3, #0
 541              	.L49:
 542 0020 02F11001 		add	r1, r2, #16
 543 0024 1374     		strb	r3, [r2, #16]
 544 0026 1370     		strb	r3, [r2, #0]
 545 0028 5370     		strb	r3, [r2, #1]
 546 002a 9370     		strb	r3, [r2, #2]
 547 002c D370     		strb	r3, [r2, #3]
 548 002e 1371     		strb	r3, [r2, #4]
 549 0030 5371     		strb	r3, [r2, #5]
 550 0032 9371     		strb	r3, [r2, #6]
 551 0034 D371     		strb	r3, [r2, #7]
 552 0036 1372     		strb	r3, [r2, #8]
 553 0038 5372     		strb	r3, [r2, #9]
 554 003a 9372     		strb	r3, [r2, #10]
 555 003c D372     		strb	r3, [r2, #11]
 556 003e 1373     		strb	r3, [r2, #12]
 557 0040 5373     		strb	r3, [r2, #13]
 558 0042 9373     		strb	r3, [r2, #14]
 559 0044 D373     		strb	r3, [r2, #15]
 560 0046 01F11002 		add	r2, r1, #16
 561              		.loc 1 78 0
 562 004a 8242     		cmp	r2, r0
 563              		.loc 1 80 0
 564 004c 4B70     		strb	r3, [r1, #1]
 565 004e 8B70     		strb	r3, [r1, #2]
 566 0050 CB70     		strb	r3, [r1, #3]
 567 0052 0B71     		strb	r3, [r1, #4]
 568 0054 4B71     		strb	r3, [r1, #5]
 569 0056 8B71     		strb	r3, [r1, #6]
 570 0058 CB71     		strb	r3, [r1, #7]
 571 005a 0B72     		strb	r3, [r1, #8]
 572 005c 4B72     		strb	r3, [r1, #9]
 573 005e 8B72     		strb	r3, [r1, #10]
 574 0060 CB72     		strb	r3, [r1, #11]
 575 0062 0B73     		strb	r3, [r1, #12]
 576 0064 4B73     		strb	r3, [r1, #13]
 577 0066 8B73     		strb	r3, [r1, #14]
 578 0068 CB73     		strb	r3, [r1, #15]
 579              		.loc 1 78 0
 580 006a D9D1     		bne	.L49
 581              	.LBE5:
 582              	.LBE4:
 583              		.loc 1 62 0
 584 006c FFF7FEFF 		bl	Matrix_Start
 585              		.loc 1 63 0
 586 0070 40F20000 		movw	r0, #:lower16:fft_disp_buf
 587 0074 C0F20000 		movt	r0, #:upper16:fft_disp_buf
 588 0078 FFF7FEFF 		bl	Matrix_SetBaseAddress
 589              		.loc 1 65 0
ARM GAS  C:\Users\SUZUKI~1\AppData\Local\Temp\ccP47L10.s 			page 13


 590 007c FFF7FEFF 		bl	FFT_Start
 591              		.loc 1 66 0
 592 0080 FFF7FEFF 		bl	clock_Start
 593              		.loc 1 68 0
 594              	@ 68 ".\main.c" 1
 595 0084 62B6     		CPSIE   i
 596              	@ 0 "" 2
 597              		.loc 1 71 0
 598              		.thumb
 599 0086 4FF0FF33 		mov	r3, #-1
 600 008a E370     		strb	r3, [r4, #3]
 601              		.loc 1 73 0
 602 008c 10BD     		pop	{r4, pc}
 603              		.cfi_endproc
 604              	.LFE31:
 605              		.size	initialize, .-initialize
 606 008e 00BF     		.section	.text.main,"ax",%progbits
 607              		.align	2
 608              		.global	main
 609              		.thumb
 610              		.thumb_func
 611              		.type	main, %function
 612              	main:
 613              	.LFB29:
 614              		.loc 1 30 0
 615              		.cfi_startproc
 616              		@ args = 0, pretend = 0, frame = 0
 617              		@ frame_needed = 0, uses_anonymous_args = 0
 618 0000 08B5     		push	{r3, lr}
 619              	.LCFI3:
 620              		.cfi_def_cfa_offset 8
 621              		.loc 1 32 0
 622              		.cfi_offset 14, -4
 623              		.cfi_offset 3, -8
 624 0002 FFF7FEFF 		bl	initialize
 625              	.L56:
 626 0006 FEE7     		b	.L56
 627              		.cfi_endproc
 628              	.LFE29:
 629              		.size	main, .-main
 630              		.comm	disp_buf,1536,4
 631              		.text
 632              	.Letext0:
