ARM GAS  C:\Users\SUZUKI~1\AppData\Local\Temp\ccuFc3hg.s 			page 1


   1              		.syntax unified
   2              		.cpu cortex-m3
   3              		.fpu softvfp
   4              		.eabi_attribute 20, 1
   5              		.eabi_attribute 21, 1
   6              		.eabi_attribute 23, 3
   7              		.eabi_attribute 24, 1
   8              		.eabi_attribute 25, 1
   9              		.eabi_attribute 26, 1
  10              		.eabi_attribute 30, 6
  11              		.eabi_attribute 18, 4
  12              		.thumb
  13              		.file	"PhaseCounter.c"
  14              		.section	.debug_abbrev,"",%progbits
  15              	.Ldebug_abbrev0:
  16              		.section	.debug_info,"",%progbits
  17              	.Ldebug_info0:
  18              		.section	.debug_line,"",%progbits
  19              	.Ldebug_line0:
  20 0000 5A010000 		.text
  20      02006500 
  20      00000201 
  20      FB0E0D00 
  20      01010101 
  21              	.Ltext0:
  22              		.cfi_sections	.debug_frame
  23              		.global	PhaseCounter_initVar
  24              		.bss
  25              		.type	PhaseCounter_initVar, %object
  26              		.size	PhaseCounter_initVar, 1
  27              	PhaseCounter_initVar:
  28 0000 00       		.space	1
  29              		.section	.text.PhaseCounter_Init,"ax",%progbits
  30              		.align	2
  31              		.global	PhaseCounter_Init
  32              		.thumb
  33              		.thumb_func
  34              		.type	PhaseCounter_Init, %function
  35              	PhaseCounter_Init:
  36              	.LFB0:
  37              		.file 1 ".\\Generated_Source\\PSoC5\\PhaseCounter.c"
   1:.\Generated_Source\PSoC5/PhaseCounter.c **** /*******************************************************************************
   2:.\Generated_Source\PSoC5/PhaseCounter.c **** * File Name: PhaseCounter.c  
   3:.\Generated_Source\PSoC5/PhaseCounter.c **** * Version 2.20
   4:.\Generated_Source\PSoC5/PhaseCounter.c **** *
   5:.\Generated_Source\PSoC5/PhaseCounter.c **** *  Description:
   6:.\Generated_Source\PSoC5/PhaseCounter.c **** *     The Counter component consists of a 8, 16, 24 or 32-bit counter with
   7:.\Generated_Source\PSoC5/PhaseCounter.c **** *     a selectable period between 2 and 2^Width - 1.  
   8:.\Generated_Source\PSoC5/PhaseCounter.c **** *
   9:.\Generated_Source\PSoC5/PhaseCounter.c **** *   Note:
  10:.\Generated_Source\PSoC5/PhaseCounter.c **** *     None
  11:.\Generated_Source\PSoC5/PhaseCounter.c **** *
  12:.\Generated_Source\PSoC5/PhaseCounter.c **** *******************************************************************************
  13:.\Generated_Source\PSoC5/PhaseCounter.c **** * Copyright 2008-2012, Cypress Semiconductor Corporation.  All rights reserved.
  14:.\Generated_Source\PSoC5/PhaseCounter.c **** * You may use this file only in accordance with the license, terms, conditions, 
  15:.\Generated_Source\PSoC5/PhaseCounter.c **** * disclaimers, and limitations in the end user license agreement accompanying 
  16:.\Generated_Source\PSoC5/PhaseCounter.c **** * the software package with which this file was provided.
ARM GAS  C:\Users\SUZUKI~1\AppData\Local\Temp\ccuFc3hg.s 			page 2


  17:.\Generated_Source\PSoC5/PhaseCounter.c **** ********************************************************************************/
  18:.\Generated_Source\PSoC5/PhaseCounter.c **** 
  19:.\Generated_Source\PSoC5/PhaseCounter.c **** #include "PhaseCounter.h"
  20:.\Generated_Source\PSoC5/PhaseCounter.c **** 
  21:.\Generated_Source\PSoC5/PhaseCounter.c **** uint8 PhaseCounter_initVar = 0u;
  22:.\Generated_Source\PSoC5/PhaseCounter.c **** 
  23:.\Generated_Source\PSoC5/PhaseCounter.c **** 
  24:.\Generated_Source\PSoC5/PhaseCounter.c **** /*******************************************************************************
  25:.\Generated_Source\PSoC5/PhaseCounter.c **** * Function Name: PhaseCounter_Init
  26:.\Generated_Source\PSoC5/PhaseCounter.c **** ********************************************************************************
  27:.\Generated_Source\PSoC5/PhaseCounter.c **** * Summary:
  28:.\Generated_Source\PSoC5/PhaseCounter.c **** *     Initialize to the schematic state
  29:.\Generated_Source\PSoC5/PhaseCounter.c **** * 
  30:.\Generated_Source\PSoC5/PhaseCounter.c **** * Parameters:  
  31:.\Generated_Source\PSoC5/PhaseCounter.c **** *  void  
  32:.\Generated_Source\PSoC5/PhaseCounter.c **** *
  33:.\Generated_Source\PSoC5/PhaseCounter.c **** * Return: 
  34:.\Generated_Source\PSoC5/PhaseCounter.c **** *  void
  35:.\Generated_Source\PSoC5/PhaseCounter.c **** *
  36:.\Generated_Source\PSoC5/PhaseCounter.c **** *******************************************************************************/
  37:.\Generated_Source\PSoC5/PhaseCounter.c **** void PhaseCounter_Init(void) 
  38:.\Generated_Source\PSoC5/PhaseCounter.c **** {
  38              		.loc 1 38 0
  39              		.cfi_startproc
  40              		@ args = 0, pretend = 0, frame = 0
  41              		@ frame_needed = 1, uses_anonymous_args = 0
  42 0000 80B5     		push	{r7, lr}
  43              	.LCFI0:
  44              		.cfi_def_cfa_offset 8
  45 0002 00AF     		add	r7, sp, #0
  46              		.cfi_offset 14, -4
  47              		.cfi_offset 7, -8
  48              	.LCFI1:
  49              		.cfi_def_cfa_register 7
  39:.\Generated_Source\PSoC5/PhaseCounter.c ****         #if (!PhaseCounter_UsingFixedFunction && !PhaseCounter_ControlRegRemoved)
  40:.\Generated_Source\PSoC5/PhaseCounter.c ****             uint8 ctrl;
  41:.\Generated_Source\PSoC5/PhaseCounter.c ****         #endif /* (!PhaseCounter_UsingFixedFunction && !PhaseCounter_ControlRegRemoved) */
  42:.\Generated_Source\PSoC5/PhaseCounter.c ****         
  43:.\Generated_Source\PSoC5/PhaseCounter.c ****         #if(!PhaseCounter_UsingFixedFunction) 
  44:.\Generated_Source\PSoC5/PhaseCounter.c ****             /* Interrupt State Backup for Critical Region*/
  45:.\Generated_Source\PSoC5/PhaseCounter.c ****             uint8 PhaseCounter_interruptState;
  46:.\Generated_Source\PSoC5/PhaseCounter.c ****         #endif /* (!PhaseCounter_UsingFixedFunction) */
  47:.\Generated_Source\PSoC5/PhaseCounter.c ****         
  48:.\Generated_Source\PSoC5/PhaseCounter.c ****         #if (PhaseCounter_UsingFixedFunction)
  49:.\Generated_Source\PSoC5/PhaseCounter.c ****             /* Clear all bits but the enable bit (if it's already set for Timer operation */
  50:.\Generated_Source\PSoC5/PhaseCounter.c ****             PhaseCounter_CONTROL &= PhaseCounter_CTRL_ENABLE;
  50              		.loc 1 50 0
  51 0004 44F60073 		movw	r3, #:lower16:1073762048
  52 0008 C4F20003 		movt	r3, #:upper16:1073762048
  53 000c 44F60072 		movw	r2, #:lower16:1073762048
  54 0010 C4F20002 		movt	r2, #:upper16:1073762048
  55 0014 1278     		ldrb	r2, [r2, #0]
  56 0016 D2B2     		uxtb	r2, r2
  57 0018 02F00102 		and	r2, r2, #1
  58 001c 1A70     		strb	r2, [r3, #0]
  51:.\Generated_Source\PSoC5/PhaseCounter.c ****             
  52:.\Generated_Source\PSoC5/PhaseCounter.c ****             /* Clear the mode bits for continuous run mode */
ARM GAS  C:\Users\SUZUKI~1\AppData\Local\Temp\ccuFc3hg.s 			page 3


  53:.\Generated_Source\PSoC5/PhaseCounter.c ****             #if (CY_PSOC5A)
  54:.\Generated_Source\PSoC5/PhaseCounter.c ****                 PhaseCounter_CONTROL2 &= ~PhaseCounter_CTRL_MODE_MASK;
  59              		.loc 1 54 0
  60 001e 44F60173 		movw	r3, #:lower16:1073762049
  61 0022 C4F20003 		movt	r3, #:upper16:1073762049
  62 0026 44F60172 		movw	r2, #:lower16:1073762049
  63 002a C4F20002 		movt	r2, #:upper16:1073762049
  64 002e 1278     		ldrb	r2, [r2, #0]
  65 0030 D2B2     		uxtb	r2, r2
  66 0032 02F0F102 		and	r2, r2, #241
  67 0036 1A70     		strb	r2, [r3, #0]
  55:.\Generated_Source\PSoC5/PhaseCounter.c ****             #endif /* (CY_PSOC5A) */
  56:.\Generated_Source\PSoC5/PhaseCounter.c ****             #if (CY_PSOC3 || CY_PSOC5LP)
  57:.\Generated_Source\PSoC5/PhaseCounter.c ****                 PhaseCounter_CONTROL3 &= ~PhaseCounter_CTRL_MODE_MASK;                
  58:.\Generated_Source\PSoC5/PhaseCounter.c ****             #endif /* (CY_PSOC3 || CY_PSOC5LP) */
  59:.\Generated_Source\PSoC5/PhaseCounter.c ****             /* Check if One Shot mode is enabled i.e. RunMode !=0*/
  60:.\Generated_Source\PSoC5/PhaseCounter.c ****             #if (PhaseCounter_RunModeUsed != 0x0u)
  61:.\Generated_Source\PSoC5/PhaseCounter.c ****                 /* Set 3rd bit of Control register to enable one shot mode */
  62:.\Generated_Source\PSoC5/PhaseCounter.c ****                 PhaseCounter_CONTROL |= PhaseCounter_ONESHOT;
  63:.\Generated_Source\PSoC5/PhaseCounter.c ****             #endif /* (PhaseCounter_RunModeUsed != 0x0u) */
  64:.\Generated_Source\PSoC5/PhaseCounter.c ****             
  65:.\Generated_Source\PSoC5/PhaseCounter.c ****             /* Set the IRQ to use the status register interrupts */
  66:.\Generated_Source\PSoC5/PhaseCounter.c ****             PhaseCounter_CONTROL2 |= PhaseCounter_CTRL2_IRQ_SEL;
  68              		.loc 1 66 0
  69 0038 44F60173 		movw	r3, #:lower16:1073762049
  70 003c C4F20003 		movt	r3, #:upper16:1073762049
  71 0040 44F60172 		movw	r2, #:lower16:1073762049
  72 0044 C4F20002 		movt	r2, #:upper16:1073762049
  73 0048 1278     		ldrb	r2, [r2, #0]
  74 004a D2B2     		uxtb	r2, r2
  75 004c 42F00102 		orr	r2, r2, #1
  76 0050 D2B2     		uxtb	r2, r2
  77 0052 1A70     		strb	r2, [r3, #0]
  67:.\Generated_Source\PSoC5/PhaseCounter.c ****             
  68:.\Generated_Source\PSoC5/PhaseCounter.c ****             /* Clear and Set SYNCTC and SYNCCMP bits of RT1 register */
  69:.\Generated_Source\PSoC5/PhaseCounter.c ****             PhaseCounter_RT1 &= ~PhaseCounter_RT1_MASK;
  78              		.loc 1 69 0
  79 0054 44F60A73 		movw	r3, #:lower16:1073762058
  80 0058 C4F20003 		movt	r3, #:upper16:1073762058
  81 005c 44F60A72 		movw	r2, #:lower16:1073762058
  82 0060 C4F20002 		movt	r2, #:upper16:1073762058
  83 0064 1278     		ldrb	r2, [r2, #0]
  84 0066 D2B2     		uxtb	r2, r2
  85 0068 02F0CF02 		and	r2, r2, #207
  86 006c 1A70     		strb	r2, [r3, #0]
  70:.\Generated_Source\PSoC5/PhaseCounter.c ****             PhaseCounter_RT1 |= PhaseCounter_SYNC;     
  87              		.loc 1 70 0
  88 006e 44F60A73 		movw	r3, #:lower16:1073762058
  89 0072 C4F20003 		movt	r3, #:upper16:1073762058
  90 0076 44F60A72 		movw	r2, #:lower16:1073762058
  91 007a C4F20002 		movt	r2, #:upper16:1073762058
  92 007e 1278     		ldrb	r2, [r2, #0]
  93 0080 D2B2     		uxtb	r2, r2
  94 0082 42F03002 		orr	r2, r2, #48
  95 0086 D2B2     		uxtb	r2, r2
  96 0088 1A70     		strb	r2, [r3, #0]
  71:.\Generated_Source\PSoC5/PhaseCounter.c ****                     
ARM GAS  C:\Users\SUZUKI~1\AppData\Local\Temp\ccuFc3hg.s 			page 4


  72:.\Generated_Source\PSoC5/PhaseCounter.c ****             /*Enable DSI Sync all all inputs of the Timer*/
  73:.\Generated_Source\PSoC5/PhaseCounter.c ****             PhaseCounter_RT1 &= ~(PhaseCounter_SYNCDSI_MASK);
  97              		.loc 1 73 0
  98 008a 44F60A73 		movw	r3, #:lower16:1073762058
  99 008e C4F20003 		movt	r3, #:upper16:1073762058
 100 0092 44F60A72 		movw	r2, #:lower16:1073762058
 101 0096 C4F20002 		movt	r2, #:upper16:1073762058
 102 009a 1278     		ldrb	r2, [r2, #0]
 103 009c D2B2     		uxtb	r2, r2
 104 009e 02F0F002 		and	r2, r2, #240
 105 00a2 1A70     		strb	r2, [r3, #0]
  74:.\Generated_Source\PSoC5/PhaseCounter.c ****             PhaseCounter_RT1 |= PhaseCounter_SYNCDSI_EN;
 106              		.loc 1 74 0
 107 00a4 44F60A73 		movw	r3, #:lower16:1073762058
 108 00a8 C4F20003 		movt	r3, #:upper16:1073762058
 109 00ac 44F60A72 		movw	r2, #:lower16:1073762058
 110 00b0 C4F20002 		movt	r2, #:upper16:1073762058
 111 00b4 1278     		ldrb	r2, [r2, #0]
 112 00b6 D2B2     		uxtb	r2, r2
 113 00b8 42F00F02 		orr	r2, r2, #15
 114 00bc D2B2     		uxtb	r2, r2
 115 00be 1A70     		strb	r2, [r3, #0]
  75:.\Generated_Source\PSoC5/PhaseCounter.c **** 
  76:.\Generated_Source\PSoC5/PhaseCounter.c ****         #else
  77:.\Generated_Source\PSoC5/PhaseCounter.c ****             #if(!PhaseCounter_ControlRegRemoved)
  78:.\Generated_Source\PSoC5/PhaseCounter.c ****             /* Set the default compare mode defined in the parameter */
  79:.\Generated_Source\PSoC5/PhaseCounter.c ****             ctrl = PhaseCounter_CONTROL & ~PhaseCounter_CTRL_CMPMODE_MASK;
  80:.\Generated_Source\PSoC5/PhaseCounter.c ****             PhaseCounter_CONTROL = ctrl | PhaseCounter_DEFAULT_COMPARE_MODE;
  81:.\Generated_Source\PSoC5/PhaseCounter.c ****             
  82:.\Generated_Source\PSoC5/PhaseCounter.c ****             /* Set the default capture mode defined in the parameter */
  83:.\Generated_Source\PSoC5/PhaseCounter.c ****             ctrl = PhaseCounter_CONTROL & ~PhaseCounter_CTRL_CAPMODE_MASK;
  84:.\Generated_Source\PSoC5/PhaseCounter.c ****             PhaseCounter_CONTROL = ctrl | PhaseCounter_DEFAULT_CAPTURE_MODE;
  85:.\Generated_Source\PSoC5/PhaseCounter.c ****             #endif /* (!PhaseCounter_ControlRegRemoved) */
  86:.\Generated_Source\PSoC5/PhaseCounter.c ****         #endif /* (PhaseCounter_UsingFixedFunction) */
  87:.\Generated_Source\PSoC5/PhaseCounter.c ****         
  88:.\Generated_Source\PSoC5/PhaseCounter.c ****         /* Clear all data in the FIFO's */
  89:.\Generated_Source\PSoC5/PhaseCounter.c ****         #if (!PhaseCounter_UsingFixedFunction)
  90:.\Generated_Source\PSoC5/PhaseCounter.c ****             PhaseCounter_ClearFIFO();
  91:.\Generated_Source\PSoC5/PhaseCounter.c ****         #endif /* (!PhaseCounter_UsingFixedFunction) */
  92:.\Generated_Source\PSoC5/PhaseCounter.c ****         
  93:.\Generated_Source\PSoC5/PhaseCounter.c ****         /* Set Initial values from Configuration */
  94:.\Generated_Source\PSoC5/PhaseCounter.c ****         PhaseCounter_WritePeriod(PhaseCounter_INIT_PERIOD_VALUE);
 116              		.loc 1 94 0
 117 00c0 40F2E730 		movw	r0, #999
 118 00c4 FFF7FEFF 		bl	PhaseCounter_WritePeriod
  95:.\Generated_Source\PSoC5/PhaseCounter.c ****         #if (!(PhaseCounter_UsingFixedFunction && (CY_PSOC5A)))
  96:.\Generated_Source\PSoC5/PhaseCounter.c ****             PhaseCounter_WriteCounter(PhaseCounter_INIT_COUNTER_VALUE);
  97:.\Generated_Source\PSoC5/PhaseCounter.c ****         #endif /* (!(PhaseCounter_UsingFixedFunction && (CY_PSOC5A))) */
  98:.\Generated_Source\PSoC5/PhaseCounter.c ****         PhaseCounter_SetInterruptMode(PhaseCounter_INIT_INTERRUPTS_MASK);
 119              		.loc 1 98 0
 120 00c8 4FF00000 		mov	r0, #0
 121 00cc FFF7FEFF 		bl	PhaseCounter_SetInterruptMode
  99:.\Generated_Source\PSoC5/PhaseCounter.c ****         
 100:.\Generated_Source\PSoC5/PhaseCounter.c ****         #if (!PhaseCounter_UsingFixedFunction)
 101:.\Generated_Source\PSoC5/PhaseCounter.c ****             /* Read the status register to clear the unwanted interrupts */
 102:.\Generated_Source\PSoC5/PhaseCounter.c ****             PhaseCounter_ReadStatusRegister();
 103:.\Generated_Source\PSoC5/PhaseCounter.c ****             /* Set the compare value (only available to non-fixed function implementation */
ARM GAS  C:\Users\SUZUKI~1\AppData\Local\Temp\ccuFc3hg.s 			page 5


 104:.\Generated_Source\PSoC5/PhaseCounter.c ****             PhaseCounter_WriteCompare(PhaseCounter_INIT_COMPARE_VALUE);
 105:.\Generated_Source\PSoC5/PhaseCounter.c ****             /* Use the interrupt output of the status register for IRQ output */
 106:.\Generated_Source\PSoC5/PhaseCounter.c ****             
 107:.\Generated_Source\PSoC5/PhaseCounter.c ****             /* CyEnterCriticalRegion and CyExitCriticalRegion are used to mark following region cri
 108:.\Generated_Source\PSoC5/PhaseCounter.c ****             /* Enter Critical Region*/
 109:.\Generated_Source\PSoC5/PhaseCounter.c ****             PhaseCounter_interruptState = CyEnterCriticalSection();
 110:.\Generated_Source\PSoC5/PhaseCounter.c ****             
 111:.\Generated_Source\PSoC5/PhaseCounter.c ****             PhaseCounter_STATUS_AUX_CTRL |= PhaseCounter_STATUS_ACTL_INT_EN_MASK;
 112:.\Generated_Source\PSoC5/PhaseCounter.c ****             
 113:.\Generated_Source\PSoC5/PhaseCounter.c ****             /* Exit Critical Region*/
 114:.\Generated_Source\PSoC5/PhaseCounter.c ****             CyExitCriticalSection(PhaseCounter_interruptState);
 115:.\Generated_Source\PSoC5/PhaseCounter.c ****             
 116:.\Generated_Source\PSoC5/PhaseCounter.c ****         #endif /* (!PhaseCounter_UsingFixedFunction) */
 117:.\Generated_Source\PSoC5/PhaseCounter.c **** }
 122              		.loc 1 117 0
 123 00d0 80BD     		pop	{r7, pc}
 124              		.cfi_endproc
 125              	.LFE0:
 126              		.size	PhaseCounter_Init, .-PhaseCounter_Init
 127 00d2 00BF     		.section	.text.PhaseCounter_Enable,"ax",%progbits
 128              		.align	2
 129              		.global	PhaseCounter_Enable
 130              		.thumb
 131              		.thumb_func
 132              		.type	PhaseCounter_Enable, %function
 133              	PhaseCounter_Enable:
 134              	.LFB1:
 118:.\Generated_Source\PSoC5/PhaseCounter.c **** 
 119:.\Generated_Source\PSoC5/PhaseCounter.c **** 
 120:.\Generated_Source\PSoC5/PhaseCounter.c **** /*******************************************************************************
 121:.\Generated_Source\PSoC5/PhaseCounter.c **** * Function Name: PhaseCounter_Enable
 122:.\Generated_Source\PSoC5/PhaseCounter.c **** ********************************************************************************
 123:.\Generated_Source\PSoC5/PhaseCounter.c **** * Summary:
 124:.\Generated_Source\PSoC5/PhaseCounter.c **** *     Enable the Counter
 125:.\Generated_Source\PSoC5/PhaseCounter.c **** * 
 126:.\Generated_Source\PSoC5/PhaseCounter.c **** * Parameters:  
 127:.\Generated_Source\PSoC5/PhaseCounter.c **** *  void  
 128:.\Generated_Source\PSoC5/PhaseCounter.c **** *
 129:.\Generated_Source\PSoC5/PhaseCounter.c **** * Return: 
 130:.\Generated_Source\PSoC5/PhaseCounter.c **** *  void
 131:.\Generated_Source\PSoC5/PhaseCounter.c **** *
 132:.\Generated_Source\PSoC5/PhaseCounter.c **** * Side Effects: 
 133:.\Generated_Source\PSoC5/PhaseCounter.c **** *   If the Enable mode is set to Hardware only then this function has no effect 
 134:.\Generated_Source\PSoC5/PhaseCounter.c **** *   on the operation of the counter.
 135:.\Generated_Source\PSoC5/PhaseCounter.c **** *
 136:.\Generated_Source\PSoC5/PhaseCounter.c **** *******************************************************************************/
 137:.\Generated_Source\PSoC5/PhaseCounter.c **** void PhaseCounter_Enable(void) 
 138:.\Generated_Source\PSoC5/PhaseCounter.c **** {
 135              		.loc 1 138 0
 136              		.cfi_startproc
 137              		@ args = 0, pretend = 0, frame = 0
 138              		@ frame_needed = 1, uses_anonymous_args = 0
 139              		@ link register save eliminated.
 140 0000 80B4     		push	{r7}
 141              	.LCFI2:
 142              		.cfi_def_cfa_offset 4
 143 0002 00AF     		add	r7, sp, #0
ARM GAS  C:\Users\SUZUKI~1\AppData\Local\Temp\ccuFc3hg.s 			page 6


 144              		.cfi_offset 7, -4
 145              	.LCFI3:
 146              		.cfi_def_cfa_register 7
 139:.\Generated_Source\PSoC5/PhaseCounter.c ****     /* Globally Enable the Fixed Function Block chosen */
 140:.\Generated_Source\PSoC5/PhaseCounter.c ****     #if (PhaseCounter_UsingFixedFunction)
 141:.\Generated_Source\PSoC5/PhaseCounter.c ****         PhaseCounter_GLOBAL_ENABLE |= PhaseCounter_BLOCK_EN_MASK;
 147              		.loc 1 141 0
 148 0004 44F2A333 		movw	r3, #:lower16:1073759139
 149 0008 C4F20003 		movt	r3, #:upper16:1073759139
 150 000c 44F2A332 		movw	r2, #:lower16:1073759139
 151 0010 C4F20002 		movt	r2, #:upper16:1073759139
 152 0014 1278     		ldrb	r2, [r2, #0]
 153 0016 D2B2     		uxtb	r2, r2
 154 0018 42F00102 		orr	r2, r2, #1
 155 001c D2B2     		uxtb	r2, r2
 156 001e 1A70     		strb	r2, [r3, #0]
 142:.\Generated_Source\PSoC5/PhaseCounter.c ****         PhaseCounter_GLOBAL_STBY_ENABLE |= PhaseCounter_BLOCK_STBY_EN_MASK;
 157              		.loc 1 142 0
 158 0020 44F2B333 		movw	r3, #:lower16:1073759155
 159 0024 C4F20003 		movt	r3, #:upper16:1073759155
 160 0028 44F2B332 		movw	r2, #:lower16:1073759155
 161 002c C4F20002 		movt	r2, #:upper16:1073759155
 162 0030 1278     		ldrb	r2, [r2, #0]
 163 0032 D2B2     		uxtb	r2, r2
 164 0034 42F00102 		orr	r2, r2, #1
 165 0038 D2B2     		uxtb	r2, r2
 166 003a 1A70     		strb	r2, [r3, #0]
 143:.\Generated_Source\PSoC5/PhaseCounter.c ****     #endif /* (PhaseCounter_UsingFixedFunction) */  
 144:.\Generated_Source\PSoC5/PhaseCounter.c ****         
 145:.\Generated_Source\PSoC5/PhaseCounter.c ****     /* Enable the counter from the control register  */
 146:.\Generated_Source\PSoC5/PhaseCounter.c ****     /* If Fixed Function then make sure Mode is set correctly */
 147:.\Generated_Source\PSoC5/PhaseCounter.c ****     /* else make sure reset is clear */
 148:.\Generated_Source\PSoC5/PhaseCounter.c ****     #if(!PhaseCounter_ControlRegRemoved || PhaseCounter_UsingFixedFunction)
 149:.\Generated_Source\PSoC5/PhaseCounter.c ****         PhaseCounter_CONTROL |= PhaseCounter_CTRL_ENABLE;                
 167              		.loc 1 149 0
 168 003c 44F60073 		movw	r3, #:lower16:1073762048
 169 0040 C4F20003 		movt	r3, #:upper16:1073762048
 170 0044 44F60072 		movw	r2, #:lower16:1073762048
 171 0048 C4F20002 		movt	r2, #:upper16:1073762048
 172 004c 1278     		ldrb	r2, [r2, #0]
 173 004e D2B2     		uxtb	r2, r2
 174 0050 42F00102 		orr	r2, r2, #1
 175 0054 D2B2     		uxtb	r2, r2
 176 0056 1A70     		strb	r2, [r3, #0]
 150:.\Generated_Source\PSoC5/PhaseCounter.c ****     #endif /* (!PhaseCounter_ControlRegRemoved || PhaseCounter_UsingFixedFunction) */
 151:.\Generated_Source\PSoC5/PhaseCounter.c ****     
 152:.\Generated_Source\PSoC5/PhaseCounter.c **** }
 177              		.loc 1 152 0
 178 0058 BD46     		mov	sp, r7
 179 005a 80BC     		pop	{r7}
 180 005c 7047     		bx	lr
 181              		.cfi_endproc
 182              	.LFE1:
 183              		.size	PhaseCounter_Enable, .-PhaseCounter_Enable
 184 005e 00BF     		.section	.text.PhaseCounter_Start,"ax",%progbits
 185              		.align	2
 186              		.global	PhaseCounter_Start
ARM GAS  C:\Users\SUZUKI~1\AppData\Local\Temp\ccuFc3hg.s 			page 7


 187              		.thumb
 188              		.thumb_func
 189              		.type	PhaseCounter_Start, %function
 190              	PhaseCounter_Start:
 191              	.LFB2:
 153:.\Generated_Source\PSoC5/PhaseCounter.c **** 
 154:.\Generated_Source\PSoC5/PhaseCounter.c **** 
 155:.\Generated_Source\PSoC5/PhaseCounter.c **** /*******************************************************************************
 156:.\Generated_Source\PSoC5/PhaseCounter.c **** * Function Name: PhaseCounter_Start
 157:.\Generated_Source\PSoC5/PhaseCounter.c **** ********************************************************************************
 158:.\Generated_Source\PSoC5/PhaseCounter.c **** * Summary:
 159:.\Generated_Source\PSoC5/PhaseCounter.c **** *  Enables the counter for operation 
 160:.\Generated_Source\PSoC5/PhaseCounter.c **** *
 161:.\Generated_Source\PSoC5/PhaseCounter.c **** * Parameters:  
 162:.\Generated_Source\PSoC5/PhaseCounter.c **** *  void  
 163:.\Generated_Source\PSoC5/PhaseCounter.c **** *
 164:.\Generated_Source\PSoC5/PhaseCounter.c **** * Return: 
 165:.\Generated_Source\PSoC5/PhaseCounter.c **** *  void
 166:.\Generated_Source\PSoC5/PhaseCounter.c **** *
 167:.\Generated_Source\PSoC5/PhaseCounter.c **** * Global variables:
 168:.\Generated_Source\PSoC5/PhaseCounter.c **** *  PhaseCounter_initVar: Is modified when this function is called for the  
 169:.\Generated_Source\PSoC5/PhaseCounter.c **** *   first time. Is used to ensure that initialization happens only once.
 170:.\Generated_Source\PSoC5/PhaseCounter.c **** *
 171:.\Generated_Source\PSoC5/PhaseCounter.c **** *******************************************************************************/
 172:.\Generated_Source\PSoC5/PhaseCounter.c **** void PhaseCounter_Start(void) 
 173:.\Generated_Source\PSoC5/PhaseCounter.c **** {
 192              		.loc 1 173 0
 193              		.cfi_startproc
 194              		@ args = 0, pretend = 0, frame = 0
 195              		@ frame_needed = 1, uses_anonymous_args = 0
 196 0000 80B5     		push	{r7, lr}
 197              	.LCFI4:
 198              		.cfi_def_cfa_offset 8
 199 0002 00AF     		add	r7, sp, #0
 200              		.cfi_offset 14, -4
 201              		.cfi_offset 7, -8
 202              	.LCFI5:
 203              		.cfi_def_cfa_register 7
 174:.\Generated_Source\PSoC5/PhaseCounter.c ****     if(PhaseCounter_initVar == 0u)
 204              		.loc 1 174 0
 205 0004 40F20003 		movw	r3, #:lower16:PhaseCounter_initVar
 206 0008 C0F20003 		movt	r3, #:upper16:PhaseCounter_initVar
 207 000c 1B78     		ldrb	r3, [r3, #0]	@ zero_extendqisi2
 208 000e 002B     		cmp	r3, #0
 209 0010 08D1     		bne	.L6
 175:.\Generated_Source\PSoC5/PhaseCounter.c ****     {
 176:.\Generated_Source\PSoC5/PhaseCounter.c ****         PhaseCounter_Init();
 210              		.loc 1 176 0
 211 0012 FFF7FEFF 		bl	PhaseCounter_Init
 177:.\Generated_Source\PSoC5/PhaseCounter.c ****         
 178:.\Generated_Source\PSoC5/PhaseCounter.c ****         PhaseCounter_initVar = 1u; /* Clear this bit for Initialization */        
 212              		.loc 1 178 0
 213 0016 40F20003 		movw	r3, #:lower16:PhaseCounter_initVar
 214 001a C0F20003 		movt	r3, #:upper16:PhaseCounter_initVar
 215 001e 4FF00102 		mov	r2, #1
 216 0022 1A70     		strb	r2, [r3, #0]
 217              	.L6:
ARM GAS  C:\Users\SUZUKI~1\AppData\Local\Temp\ccuFc3hg.s 			page 8


 179:.\Generated_Source\PSoC5/PhaseCounter.c ****     }
 180:.\Generated_Source\PSoC5/PhaseCounter.c ****     
 181:.\Generated_Source\PSoC5/PhaseCounter.c ****     /* Enable the Counter */
 182:.\Generated_Source\PSoC5/PhaseCounter.c ****     PhaseCounter_Enable();        
 218              		.loc 1 182 0
 219 0024 FFF7FEFF 		bl	PhaseCounter_Enable
 183:.\Generated_Source\PSoC5/PhaseCounter.c **** }
 220              		.loc 1 183 0
 221 0028 80BD     		pop	{r7, pc}
 222              		.cfi_endproc
 223              	.LFE2:
 224              		.size	PhaseCounter_Start, .-PhaseCounter_Start
 225 002a 00BF     		.section	.text.PhaseCounter_Stop,"ax",%progbits
 226              		.align	2
 227              		.global	PhaseCounter_Stop
 228              		.thumb
 229              		.thumb_func
 230              		.type	PhaseCounter_Stop, %function
 231              	PhaseCounter_Stop:
 232              	.LFB3:
 184:.\Generated_Source\PSoC5/PhaseCounter.c **** 
 185:.\Generated_Source\PSoC5/PhaseCounter.c **** 
 186:.\Generated_Source\PSoC5/PhaseCounter.c **** /*******************************************************************************
 187:.\Generated_Source\PSoC5/PhaseCounter.c **** * Function Name: PhaseCounter_Stop
 188:.\Generated_Source\PSoC5/PhaseCounter.c **** ********************************************************************************
 189:.\Generated_Source\PSoC5/PhaseCounter.c **** * Summary:
 190:.\Generated_Source\PSoC5/PhaseCounter.c **** * Halts the counter, but does not change any modes or disable interrupts.
 191:.\Generated_Source\PSoC5/PhaseCounter.c **** *
 192:.\Generated_Source\PSoC5/PhaseCounter.c **** * Parameters:  
 193:.\Generated_Source\PSoC5/PhaseCounter.c **** *  void  
 194:.\Generated_Source\PSoC5/PhaseCounter.c **** *
 195:.\Generated_Source\PSoC5/PhaseCounter.c **** * Return: 
 196:.\Generated_Source\PSoC5/PhaseCounter.c **** *  void
 197:.\Generated_Source\PSoC5/PhaseCounter.c **** *
 198:.\Generated_Source\PSoC5/PhaseCounter.c **** * Side Effects: If the Enable mode is set to Hardware only then this function
 199:.\Generated_Source\PSoC5/PhaseCounter.c **** *               has no effect on the operation of the counter.
 200:.\Generated_Source\PSoC5/PhaseCounter.c **** *
 201:.\Generated_Source\PSoC5/PhaseCounter.c **** *******************************************************************************/
 202:.\Generated_Source\PSoC5/PhaseCounter.c **** void PhaseCounter_Stop(void) 
 203:.\Generated_Source\PSoC5/PhaseCounter.c **** {
 233              		.loc 1 203 0
 234              		.cfi_startproc
 235              		@ args = 0, pretend = 0, frame = 0
 236              		@ frame_needed = 1, uses_anonymous_args = 0
 237              		@ link register save eliminated.
 238 0000 80B4     		push	{r7}
 239              	.LCFI6:
 240              		.cfi_def_cfa_offset 4
 241 0002 00AF     		add	r7, sp, #0
 242              		.cfi_offset 7, -4
 243              	.LCFI7:
 244              		.cfi_def_cfa_register 7
 204:.\Generated_Source\PSoC5/PhaseCounter.c ****     /* Disable Counter */
 205:.\Generated_Source\PSoC5/PhaseCounter.c ****     #if(!PhaseCounter_ControlRegRemoved || PhaseCounter_UsingFixedFunction)
 206:.\Generated_Source\PSoC5/PhaseCounter.c ****         PhaseCounter_CONTROL &= ~PhaseCounter_CTRL_ENABLE;        
 245              		.loc 1 206 0
 246 0004 44F60073 		movw	r3, #:lower16:1073762048
ARM GAS  C:\Users\SUZUKI~1\AppData\Local\Temp\ccuFc3hg.s 			page 9


 247 0008 C4F20003 		movt	r3, #:upper16:1073762048
 248 000c 44F60072 		movw	r2, #:lower16:1073762048
 249 0010 C4F20002 		movt	r2, #:upper16:1073762048
 250 0014 1278     		ldrb	r2, [r2, #0]
 251 0016 D2B2     		uxtb	r2, r2
 252 0018 02F0FE02 		and	r2, r2, #254
 253 001c 1A70     		strb	r2, [r3, #0]
 207:.\Generated_Source\PSoC5/PhaseCounter.c ****     #endif /* (!PhaseCounter_ControlRegRemoved || PhaseCounter_UsingFixedFunction) */
 208:.\Generated_Source\PSoC5/PhaseCounter.c ****     
 209:.\Generated_Source\PSoC5/PhaseCounter.c ****     /* Globally disable the Fixed Function Block chosen */
 210:.\Generated_Source\PSoC5/PhaseCounter.c ****     #if (PhaseCounter_UsingFixedFunction)
 211:.\Generated_Source\PSoC5/PhaseCounter.c ****         PhaseCounter_GLOBAL_ENABLE &= ~PhaseCounter_BLOCK_EN_MASK;
 254              		.loc 1 211 0
 255 001e 44F2A333 		movw	r3, #:lower16:1073759139
 256 0022 C4F20003 		movt	r3, #:upper16:1073759139
 257 0026 44F2A332 		movw	r2, #:lower16:1073759139
 258 002a C4F20002 		movt	r2, #:upper16:1073759139
 259 002e 1278     		ldrb	r2, [r2, #0]
 260 0030 D2B2     		uxtb	r2, r2
 261 0032 02F0FE02 		and	r2, r2, #254
 262 0036 1A70     		strb	r2, [r3, #0]
 212:.\Generated_Source\PSoC5/PhaseCounter.c ****         PhaseCounter_GLOBAL_STBY_ENABLE &= ~PhaseCounter_BLOCK_STBY_EN_MASK;
 263              		.loc 1 212 0
 264 0038 44F2B333 		movw	r3, #:lower16:1073759155
 265 003c C4F20003 		movt	r3, #:upper16:1073759155
 266 0040 44F2B332 		movw	r2, #:lower16:1073759155
 267 0044 C4F20002 		movt	r2, #:upper16:1073759155
 268 0048 1278     		ldrb	r2, [r2, #0]
 269 004a D2B2     		uxtb	r2, r2
 270 004c 02F0FE02 		and	r2, r2, #254
 271 0050 1A70     		strb	r2, [r3, #0]
 213:.\Generated_Source\PSoC5/PhaseCounter.c ****     #endif /* (PhaseCounter_UsingFixedFunction) */
 214:.\Generated_Source\PSoC5/PhaseCounter.c **** }
 272              		.loc 1 214 0
 273 0052 BD46     		mov	sp, r7
 274 0054 80BC     		pop	{r7}
 275 0056 7047     		bx	lr
 276              		.cfi_endproc
 277              	.LFE3:
 278              		.size	PhaseCounter_Stop, .-PhaseCounter_Stop
 279              		.section	.text.PhaseCounter_SetInterruptMode,"ax",%progbits
 280              		.align	2
 281              		.global	PhaseCounter_SetInterruptMode
 282              		.thumb
 283              		.thumb_func
 284              		.type	PhaseCounter_SetInterruptMode, %function
 285              	PhaseCounter_SetInterruptMode:
 286              	.LFB4:
 215:.\Generated_Source\PSoC5/PhaseCounter.c **** 
 216:.\Generated_Source\PSoC5/PhaseCounter.c **** 
 217:.\Generated_Source\PSoC5/PhaseCounter.c **** /*******************************************************************************
 218:.\Generated_Source\PSoC5/PhaseCounter.c **** * Function Name: PhaseCounter_SetInterruptMode
 219:.\Generated_Source\PSoC5/PhaseCounter.c **** ********************************************************************************
 220:.\Generated_Source\PSoC5/PhaseCounter.c **** * Summary:
 221:.\Generated_Source\PSoC5/PhaseCounter.c **** * Configures which interrupt sources are enabled to generate the final interrupt
 222:.\Generated_Source\PSoC5/PhaseCounter.c **** *
 223:.\Generated_Source\PSoC5/PhaseCounter.c **** * Parameters:  
ARM GAS  C:\Users\SUZUKI~1\AppData\Local\Temp\ccuFc3hg.s 			page 10


 224:.\Generated_Source\PSoC5/PhaseCounter.c **** *  InterruptsMask: This parameter is an or'd collection of the status bits
 225:.\Generated_Source\PSoC5/PhaseCounter.c **** *                   which will be allowed to generate the counters interrupt.   
 226:.\Generated_Source\PSoC5/PhaseCounter.c **** *
 227:.\Generated_Source\PSoC5/PhaseCounter.c **** * Return: 
 228:.\Generated_Source\PSoC5/PhaseCounter.c **** *  void
 229:.\Generated_Source\PSoC5/PhaseCounter.c **** *
 230:.\Generated_Source\PSoC5/PhaseCounter.c **** *******************************************************************************/
 231:.\Generated_Source\PSoC5/PhaseCounter.c **** void PhaseCounter_SetInterruptMode(uint8 interruptsMask) 
 232:.\Generated_Source\PSoC5/PhaseCounter.c **** {
 287              		.loc 1 232 0
 288              		.cfi_startproc
 289              		@ args = 0, pretend = 0, frame = 8
 290              		@ frame_needed = 1, uses_anonymous_args = 0
 291              		@ link register save eliminated.
 292 0000 80B4     		push	{r7}
 293              	.LCFI8:
 294              		.cfi_def_cfa_offset 4
 295 0002 83B0     		sub	sp, sp, #12
 296              	.LCFI9:
 297              		.cfi_def_cfa_offset 16
 298 0004 00AF     		add	r7, sp, #0
 299              		.cfi_offset 7, -4
 300              	.LCFI10:
 301              		.cfi_def_cfa_register 7
 302 0006 0346     		mov	r3, r0
 303 0008 FB71     		strb	r3, [r7, #7]
 233:.\Generated_Source\PSoC5/PhaseCounter.c ****     PhaseCounter_STATUS_MASK = interruptsMask;
 304              		.loc 1 233 0
 305 000a 44F60873 		movw	r3, #:lower16:1073762056
 306 000e C4F20003 		movt	r3, #:upper16:1073762056
 307 0012 FA79     		ldrb	r2, [r7, #7]
 308 0014 1A70     		strb	r2, [r3, #0]
 234:.\Generated_Source\PSoC5/PhaseCounter.c **** }
 309              		.loc 1 234 0
 310 0016 07F10C07 		add	r7, r7, #12
 311 001a BD46     		mov	sp, r7
 312 001c 80BC     		pop	{r7}
 313 001e 7047     		bx	lr
 314              		.cfi_endproc
 315              	.LFE4:
 316              		.size	PhaseCounter_SetInterruptMode, .-PhaseCounter_SetInterruptMode
 317              		.section	.text.PhaseCounter_ReadStatusRegister,"ax",%progbits
 318              		.align	2
 319              		.global	PhaseCounter_ReadStatusRegister
 320              		.thumb
 321              		.thumb_func
 322              		.type	PhaseCounter_ReadStatusRegister, %function
 323              	PhaseCounter_ReadStatusRegister:
 324              	.LFB5:
 235:.\Generated_Source\PSoC5/PhaseCounter.c **** 
 236:.\Generated_Source\PSoC5/PhaseCounter.c **** 
 237:.\Generated_Source\PSoC5/PhaseCounter.c **** /*******************************************************************************
 238:.\Generated_Source\PSoC5/PhaseCounter.c **** * Function Name: PhaseCounter_ReadStatusRegister
 239:.\Generated_Source\PSoC5/PhaseCounter.c **** ********************************************************************************
 240:.\Generated_Source\PSoC5/PhaseCounter.c **** * Summary:
 241:.\Generated_Source\PSoC5/PhaseCounter.c **** *   Reads the status register and returns it's state. This function should use
 242:.\Generated_Source\PSoC5/PhaseCounter.c **** *       defined types for the bit-field information as the bits in this
ARM GAS  C:\Users\SUZUKI~1\AppData\Local\Temp\ccuFc3hg.s 			page 11


 243:.\Generated_Source\PSoC5/PhaseCounter.c **** *       register may be permuteable.
 244:.\Generated_Source\PSoC5/PhaseCounter.c **** *
 245:.\Generated_Source\PSoC5/PhaseCounter.c **** * Parameters:  
 246:.\Generated_Source\PSoC5/PhaseCounter.c **** *  void
 247:.\Generated_Source\PSoC5/PhaseCounter.c **** *
 248:.\Generated_Source\PSoC5/PhaseCounter.c **** * Return: 
 249:.\Generated_Source\PSoC5/PhaseCounter.c **** *  (uint8) The contents of the status register
 250:.\Generated_Source\PSoC5/PhaseCounter.c **** *
 251:.\Generated_Source\PSoC5/PhaseCounter.c **** * Side Effects:
 252:.\Generated_Source\PSoC5/PhaseCounter.c **** *   Status register bits may be clear on read. 
 253:.\Generated_Source\PSoC5/PhaseCounter.c **** *
 254:.\Generated_Source\PSoC5/PhaseCounter.c **** *******************************************************************************/
 255:.\Generated_Source\PSoC5/PhaseCounter.c **** uint8   PhaseCounter_ReadStatusRegister(void) 
 256:.\Generated_Source\PSoC5/PhaseCounter.c **** {
 325              		.loc 1 256 0
 326              		.cfi_startproc
 327              		@ args = 0, pretend = 0, frame = 0
 328              		@ frame_needed = 1, uses_anonymous_args = 0
 329              		@ link register save eliminated.
 330 0000 80B4     		push	{r7}
 331              	.LCFI11:
 332              		.cfi_def_cfa_offset 4
 333 0002 00AF     		add	r7, sp, #0
 334              		.cfi_offset 7, -4
 335              	.LCFI12:
 336              		.cfi_def_cfa_register 7
 257:.\Generated_Source\PSoC5/PhaseCounter.c ****     return PhaseCounter_STATUS;
 337              		.loc 1 257 0
 338 0004 44F60873 		movw	r3, #:lower16:1073762056
 339 0008 C4F20003 		movt	r3, #:upper16:1073762056
 340 000c 1B78     		ldrb	r3, [r3, #0]
 341 000e DBB2     		uxtb	r3, r3
 258:.\Generated_Source\PSoC5/PhaseCounter.c **** }
 342              		.loc 1 258 0
 343 0010 1846     		mov	r0, r3
 344 0012 BD46     		mov	sp, r7
 345 0014 80BC     		pop	{r7}
 346 0016 7047     		bx	lr
 347              		.cfi_endproc
 348              	.LFE5:
 349              		.size	PhaseCounter_ReadStatusRegister, .-PhaseCounter_ReadStatusRegister
 350              		.section	.text.PhaseCounter_ReadControlRegister,"ax",%progbits
 351              		.align	2
 352              		.global	PhaseCounter_ReadControlRegister
 353              		.thumb
 354              		.thumb_func
 355              		.type	PhaseCounter_ReadControlRegister, %function
 356              	PhaseCounter_ReadControlRegister:
 357              	.LFB6:
 259:.\Generated_Source\PSoC5/PhaseCounter.c **** 
 260:.\Generated_Source\PSoC5/PhaseCounter.c **** 
 261:.\Generated_Source\PSoC5/PhaseCounter.c **** #if(!PhaseCounter_ControlRegRemoved)
 262:.\Generated_Source\PSoC5/PhaseCounter.c **** /*******************************************************************************
 263:.\Generated_Source\PSoC5/PhaseCounter.c **** * Function Name: PhaseCounter_ReadControlRegister
 264:.\Generated_Source\PSoC5/PhaseCounter.c **** ********************************************************************************
 265:.\Generated_Source\PSoC5/PhaseCounter.c **** * Summary:
 266:.\Generated_Source\PSoC5/PhaseCounter.c **** *   Reads the control register and returns it's state. This function should use
ARM GAS  C:\Users\SUZUKI~1\AppData\Local\Temp\ccuFc3hg.s 			page 12


 267:.\Generated_Source\PSoC5/PhaseCounter.c **** *       defined types for the bit-field information as the bits in this
 268:.\Generated_Source\PSoC5/PhaseCounter.c **** *       register may be permuteable.
 269:.\Generated_Source\PSoC5/PhaseCounter.c **** *
 270:.\Generated_Source\PSoC5/PhaseCounter.c **** * Parameters:  
 271:.\Generated_Source\PSoC5/PhaseCounter.c **** *  void
 272:.\Generated_Source\PSoC5/PhaseCounter.c **** *
 273:.\Generated_Source\PSoC5/PhaseCounter.c **** * Return: 
 274:.\Generated_Source\PSoC5/PhaseCounter.c **** *  (uint8) The contents of the control register
 275:.\Generated_Source\PSoC5/PhaseCounter.c **** *
 276:.\Generated_Source\PSoC5/PhaseCounter.c **** *******************************************************************************/
 277:.\Generated_Source\PSoC5/PhaseCounter.c **** uint8   PhaseCounter_ReadControlRegister(void) 
 278:.\Generated_Source\PSoC5/PhaseCounter.c **** {
 358              		.loc 1 278 0
 359              		.cfi_startproc
 360              		@ args = 0, pretend = 0, frame = 0
 361              		@ frame_needed = 1, uses_anonymous_args = 0
 362              		@ link register save eliminated.
 363 0000 80B4     		push	{r7}
 364              	.LCFI13:
 365              		.cfi_def_cfa_offset 4
 366 0002 00AF     		add	r7, sp, #0
 367              		.cfi_offset 7, -4
 368              	.LCFI14:
 369              		.cfi_def_cfa_register 7
 279:.\Generated_Source\PSoC5/PhaseCounter.c ****     return PhaseCounter_CONTROL;
 370              		.loc 1 279 0
 371 0004 44F60073 		movw	r3, #:lower16:1073762048
 372 0008 C4F20003 		movt	r3, #:upper16:1073762048
 373 000c 1B78     		ldrb	r3, [r3, #0]
 374 000e DBB2     		uxtb	r3, r3
 280:.\Generated_Source\PSoC5/PhaseCounter.c **** }
 375              		.loc 1 280 0
 376 0010 1846     		mov	r0, r3
 377 0012 BD46     		mov	sp, r7
 378 0014 80BC     		pop	{r7}
 379 0016 7047     		bx	lr
 380              		.cfi_endproc
 381              	.LFE6:
 382              		.size	PhaseCounter_ReadControlRegister, .-PhaseCounter_ReadControlRegister
 383              		.section	.text.PhaseCounter_WriteControlRegister,"ax",%progbits
 384              		.align	2
 385              		.global	PhaseCounter_WriteControlRegister
 386              		.thumb
 387              		.thumb_func
 388              		.type	PhaseCounter_WriteControlRegister, %function
 389              	PhaseCounter_WriteControlRegister:
 390              	.LFB7:
 281:.\Generated_Source\PSoC5/PhaseCounter.c **** 
 282:.\Generated_Source\PSoC5/PhaseCounter.c **** 
 283:.\Generated_Source\PSoC5/PhaseCounter.c **** /*******************************************************************************
 284:.\Generated_Source\PSoC5/PhaseCounter.c **** * Function Name: PhaseCounter_WriteControlRegister
 285:.\Generated_Source\PSoC5/PhaseCounter.c **** ********************************************************************************
 286:.\Generated_Source\PSoC5/PhaseCounter.c **** * Summary:
 287:.\Generated_Source\PSoC5/PhaseCounter.c **** *   Sets the bit-field of the control register.  This function should use
 288:.\Generated_Source\PSoC5/PhaseCounter.c **** *       defined types for the bit-field information as the bits in this
 289:.\Generated_Source\PSoC5/PhaseCounter.c **** *       register may be permuteable.
 290:.\Generated_Source\PSoC5/PhaseCounter.c **** *
ARM GAS  C:\Users\SUZUKI~1\AppData\Local\Temp\ccuFc3hg.s 			page 13


 291:.\Generated_Source\PSoC5/PhaseCounter.c **** * Parameters:  
 292:.\Generated_Source\PSoC5/PhaseCounter.c **** *  void
 293:.\Generated_Source\PSoC5/PhaseCounter.c **** *
 294:.\Generated_Source\PSoC5/PhaseCounter.c **** * Return: 
 295:.\Generated_Source\PSoC5/PhaseCounter.c **** *  (uint8) The contents of the control register
 296:.\Generated_Source\PSoC5/PhaseCounter.c **** *
 297:.\Generated_Source\PSoC5/PhaseCounter.c **** *******************************************************************************/
 298:.\Generated_Source\PSoC5/PhaseCounter.c **** void    PhaseCounter_WriteControlRegister(uint8 control) 
 299:.\Generated_Source\PSoC5/PhaseCounter.c **** {
 391              		.loc 1 299 0
 392              		.cfi_startproc
 393              		@ args = 0, pretend = 0, frame = 8
 394              		@ frame_needed = 1, uses_anonymous_args = 0
 395              		@ link register save eliminated.
 396 0000 80B4     		push	{r7}
 397              	.LCFI15:
 398              		.cfi_def_cfa_offset 4
 399 0002 83B0     		sub	sp, sp, #12
 400              	.LCFI16:
 401              		.cfi_def_cfa_offset 16
 402 0004 00AF     		add	r7, sp, #0
 403              		.cfi_offset 7, -4
 404              	.LCFI17:
 405              		.cfi_def_cfa_register 7
 406 0006 0346     		mov	r3, r0
 407 0008 FB71     		strb	r3, [r7, #7]
 300:.\Generated_Source\PSoC5/PhaseCounter.c ****     PhaseCounter_CONTROL = control;
 408              		.loc 1 300 0
 409 000a 44F60073 		movw	r3, #:lower16:1073762048
 410 000e C4F20003 		movt	r3, #:upper16:1073762048
 411 0012 FA79     		ldrb	r2, [r7, #7]
 412 0014 1A70     		strb	r2, [r3, #0]
 301:.\Generated_Source\PSoC5/PhaseCounter.c **** }
 413              		.loc 1 301 0
 414 0016 07F10C07 		add	r7, r7, #12
 415 001a BD46     		mov	sp, r7
 416 001c 80BC     		pop	{r7}
 417 001e 7047     		bx	lr
 418              		.cfi_endproc
 419              	.LFE7:
 420              		.size	PhaseCounter_WriteControlRegister, .-PhaseCounter_WriteControlRegister
 421              		.section	.text.PhaseCounter_ReadCounter,"ax",%progbits
 422              		.align	2
 423              		.global	PhaseCounter_ReadCounter
 424              		.thumb
 425              		.thumb_func
 426              		.type	PhaseCounter_ReadCounter, %function
 427              	PhaseCounter_ReadCounter:
 428              	.LFB8:
 302:.\Generated_Source\PSoC5/PhaseCounter.c **** 
 303:.\Generated_Source\PSoC5/PhaseCounter.c **** #endif  /* (!PhaseCounter_ControlRegRemoved) */
 304:.\Generated_Source\PSoC5/PhaseCounter.c **** 
 305:.\Generated_Source\PSoC5/PhaseCounter.c **** 
 306:.\Generated_Source\PSoC5/PhaseCounter.c **** #if (!(PhaseCounter_UsingFixedFunction && (CY_PSOC5A)))
 307:.\Generated_Source\PSoC5/PhaseCounter.c **** /*******************************************************************************
 308:.\Generated_Source\PSoC5/PhaseCounter.c **** * Function Name: PhaseCounter_WriteCounter
 309:.\Generated_Source\PSoC5/PhaseCounter.c **** ********************************************************************************
ARM GAS  C:\Users\SUZUKI~1\AppData\Local\Temp\ccuFc3hg.s 			page 14


 310:.\Generated_Source\PSoC5/PhaseCounter.c **** * Summary:
 311:.\Generated_Source\PSoC5/PhaseCounter.c **** *   This funtion is used to set the counter to a specific value
 312:.\Generated_Source\PSoC5/PhaseCounter.c **** *
 313:.\Generated_Source\PSoC5/PhaseCounter.c **** * Parameters:  
 314:.\Generated_Source\PSoC5/PhaseCounter.c **** *  counter:  New counter value. 
 315:.\Generated_Source\PSoC5/PhaseCounter.c **** *
 316:.\Generated_Source\PSoC5/PhaseCounter.c **** * Return: 
 317:.\Generated_Source\PSoC5/PhaseCounter.c **** *  void 
 318:.\Generated_Source\PSoC5/PhaseCounter.c **** *
 319:.\Generated_Source\PSoC5/PhaseCounter.c **** *******************************************************************************/
 320:.\Generated_Source\PSoC5/PhaseCounter.c **** void PhaseCounter_WriteCounter(uint16 counter) \
 321:.\Generated_Source\PSoC5/PhaseCounter.c ****                                    
 322:.\Generated_Source\PSoC5/PhaseCounter.c **** {
 323:.\Generated_Source\PSoC5/PhaseCounter.c ****     #if(PhaseCounter_UsingFixedFunction)
 324:.\Generated_Source\PSoC5/PhaseCounter.c ****         /* assert if block is already enabled */
 325:.\Generated_Source\PSoC5/PhaseCounter.c ****         CYASSERT (!(PhaseCounter_GLOBAL_ENABLE & PhaseCounter_BLOCK_EN_MASK));
 326:.\Generated_Source\PSoC5/PhaseCounter.c ****         /* If block is disabled, enable it and then write the counter */
 327:.\Generated_Source\PSoC5/PhaseCounter.c ****         PhaseCounter_GLOBAL_ENABLE |= PhaseCounter_BLOCK_EN_MASK;
 328:.\Generated_Source\PSoC5/PhaseCounter.c ****         CY_SET_REG16(PhaseCounter_COUNTER_LSB_PTR, (uint16)counter);
 329:.\Generated_Source\PSoC5/PhaseCounter.c ****         PhaseCounter_GLOBAL_ENABLE &= ~PhaseCounter_BLOCK_EN_MASK;
 330:.\Generated_Source\PSoC5/PhaseCounter.c ****     #else
 331:.\Generated_Source\PSoC5/PhaseCounter.c ****         CY_SET_REG16(PhaseCounter_COUNTER_LSB_PTR, counter);
 332:.\Generated_Source\PSoC5/PhaseCounter.c ****     #endif /* (PhaseCounter_UsingFixedFunction) */
 333:.\Generated_Source\PSoC5/PhaseCounter.c **** }
 334:.\Generated_Source\PSoC5/PhaseCounter.c **** #endif /* (!(PhaseCounter_UsingFixedFunction && (CY_PSOC5A))) */
 335:.\Generated_Source\PSoC5/PhaseCounter.c **** 
 336:.\Generated_Source\PSoC5/PhaseCounter.c **** 
 337:.\Generated_Source\PSoC5/PhaseCounter.c **** /*******************************************************************************
 338:.\Generated_Source\PSoC5/PhaseCounter.c **** * Function Name: PhaseCounter_ReadCounter
 339:.\Generated_Source\PSoC5/PhaseCounter.c **** ********************************************************************************
 340:.\Generated_Source\PSoC5/PhaseCounter.c **** * Summary:
 341:.\Generated_Source\PSoC5/PhaseCounter.c **** * Returns the current value of the counter.  It doesn't matter
 342:.\Generated_Source\PSoC5/PhaseCounter.c **** * if the counter is enabled or running.
 343:.\Generated_Source\PSoC5/PhaseCounter.c **** *
 344:.\Generated_Source\PSoC5/PhaseCounter.c **** * Parameters:  
 345:.\Generated_Source\PSoC5/PhaseCounter.c **** *  void:  
 346:.\Generated_Source\PSoC5/PhaseCounter.c **** *
 347:.\Generated_Source\PSoC5/PhaseCounter.c **** * Return: 
 348:.\Generated_Source\PSoC5/PhaseCounter.c **** *  (uint16) The present value of the counter.
 349:.\Generated_Source\PSoC5/PhaseCounter.c **** *
 350:.\Generated_Source\PSoC5/PhaseCounter.c **** *******************************************************************************/
 351:.\Generated_Source\PSoC5/PhaseCounter.c **** uint16 PhaseCounter_ReadCounter(void) 
 352:.\Generated_Source\PSoC5/PhaseCounter.c **** {
 429              		.loc 1 352 0
 430              		.cfi_startproc
 431              		@ args = 0, pretend = 0, frame = 0
 432              		@ frame_needed = 1, uses_anonymous_args = 0
 433              		@ link register save eliminated.
 434 0000 80B4     		push	{r7}
 435              	.LCFI18:
 436              		.cfi_def_cfa_offset 4
 437 0002 00AF     		add	r7, sp, #0
 438              		.cfi_offset 7, -4
 439              	.LCFI19:
 440              		.cfi_def_cfa_register 7
 353:.\Generated_Source\PSoC5/PhaseCounter.c ****     /* Force capture by reading Accumulator */
 354:.\Generated_Source\PSoC5/PhaseCounter.c ****     /* Must first do a software capture to be able to read the counter */
ARM GAS  C:\Users\SUZUKI~1\AppData\Local\Temp\ccuFc3hg.s 			page 15


 355:.\Generated_Source\PSoC5/PhaseCounter.c ****     /* It is up to the user code to make sure there isn't already captured data in the FIFO */
 356:.\Generated_Source\PSoC5/PhaseCounter.c ****     CY_GET_REG8(PhaseCounter_COUNTER_LSB_PTR);
 441              		.loc 1 356 0
 442 0004 44F60473 		movw	r3, #:lower16:1073762052
 443 0008 C4F20003 		movt	r3, #:upper16:1073762052
 444 000c 1B78     		ldrb	r3, [r3, #0]
 357:.\Generated_Source\PSoC5/PhaseCounter.c ****     
 358:.\Generated_Source\PSoC5/PhaseCounter.c ****     /* Read the data from the FIFO (or capture register for Fixed Function)*/
 359:.\Generated_Source\PSoC5/PhaseCounter.c ****     return (CY_GET_REG16(PhaseCounter_STATICCOUNT_LSB_PTR));
 445              		.loc 1 359 0
 446 000e 44F60673 		movw	r3, #:lower16:1073762054
 447 0012 C4F20003 		movt	r3, #:upper16:1073762054
 448 0016 1B88     		ldrh	r3, [r3, #0]	@ movhi
 449 0018 9BB2     		uxth	r3, r3
 360:.\Generated_Source\PSoC5/PhaseCounter.c **** }
 450              		.loc 1 360 0
 451 001a 1846     		mov	r0, r3
 452 001c BD46     		mov	sp, r7
 453 001e 80BC     		pop	{r7}
 454 0020 7047     		bx	lr
 455              		.cfi_endproc
 456              	.LFE8:
 457              		.size	PhaseCounter_ReadCounter, .-PhaseCounter_ReadCounter
 458 0022 00BF     		.section	.text.PhaseCounter_ReadCapture,"ax",%progbits
 459              		.align	2
 460              		.global	PhaseCounter_ReadCapture
 461              		.thumb
 462              		.thumb_func
 463              		.type	PhaseCounter_ReadCapture, %function
 464              	PhaseCounter_ReadCapture:
 465              	.LFB9:
 361:.\Generated_Source\PSoC5/PhaseCounter.c **** 
 362:.\Generated_Source\PSoC5/PhaseCounter.c **** 
 363:.\Generated_Source\PSoC5/PhaseCounter.c **** /*******************************************************************************
 364:.\Generated_Source\PSoC5/PhaseCounter.c **** * Function Name: PhaseCounter_ReadCapture
 365:.\Generated_Source\PSoC5/PhaseCounter.c **** ********************************************************************************
 366:.\Generated_Source\PSoC5/PhaseCounter.c **** * Summary:
 367:.\Generated_Source\PSoC5/PhaseCounter.c **** *   This function returns the last value captured.
 368:.\Generated_Source\PSoC5/PhaseCounter.c **** *
 369:.\Generated_Source\PSoC5/PhaseCounter.c **** * Parameters:  
 370:.\Generated_Source\PSoC5/PhaseCounter.c **** *  void
 371:.\Generated_Source\PSoC5/PhaseCounter.c **** *
 372:.\Generated_Source\PSoC5/PhaseCounter.c **** * Return: 
 373:.\Generated_Source\PSoC5/PhaseCounter.c **** *  (uint16) Present Capture value.
 374:.\Generated_Source\PSoC5/PhaseCounter.c **** *
 375:.\Generated_Source\PSoC5/PhaseCounter.c **** *******************************************************************************/
 376:.\Generated_Source\PSoC5/PhaseCounter.c **** uint16 PhaseCounter_ReadCapture(void) 
 377:.\Generated_Source\PSoC5/PhaseCounter.c **** {
 466              		.loc 1 377 0
 467              		.cfi_startproc
 468              		@ args = 0, pretend = 0, frame = 0
 469              		@ frame_needed = 1, uses_anonymous_args = 0
 470              		@ link register save eliminated.
 471 0000 80B4     		push	{r7}
 472              	.LCFI20:
 473              		.cfi_def_cfa_offset 4
 474 0002 00AF     		add	r7, sp, #0
ARM GAS  C:\Users\SUZUKI~1\AppData\Local\Temp\ccuFc3hg.s 			page 16


 475              		.cfi_offset 7, -4
 476              	.LCFI21:
 477              		.cfi_def_cfa_register 7
 378:.\Generated_Source\PSoC5/PhaseCounter.c ****    return ( CY_GET_REG16(PhaseCounter_STATICCOUNT_LSB_PTR) );  
 478              		.loc 1 378 0
 479 0004 44F60673 		movw	r3, #:lower16:1073762054
 480 0008 C4F20003 		movt	r3, #:upper16:1073762054
 481 000c 1B88     		ldrh	r3, [r3, #0]	@ movhi
 482 000e 9BB2     		uxth	r3, r3
 379:.\Generated_Source\PSoC5/PhaseCounter.c **** }
 483              		.loc 1 379 0
 484 0010 1846     		mov	r0, r3
 485 0012 BD46     		mov	sp, r7
 486 0014 80BC     		pop	{r7}
 487 0016 7047     		bx	lr
 488              		.cfi_endproc
 489              	.LFE9:
 490              		.size	PhaseCounter_ReadCapture, .-PhaseCounter_ReadCapture
 491              		.section	.text.PhaseCounter_WritePeriod,"ax",%progbits
 492              		.align	2
 493              		.global	PhaseCounter_WritePeriod
 494              		.thumb
 495              		.thumb_func
 496              		.type	PhaseCounter_WritePeriod, %function
 497              	PhaseCounter_WritePeriod:
 498              	.LFB10:
 380:.\Generated_Source\PSoC5/PhaseCounter.c **** 
 381:.\Generated_Source\PSoC5/PhaseCounter.c **** 
 382:.\Generated_Source\PSoC5/PhaseCounter.c **** /*******************************************************************************
 383:.\Generated_Source\PSoC5/PhaseCounter.c **** * Function Name: PhaseCounter_WritePeriod
 384:.\Generated_Source\PSoC5/PhaseCounter.c **** ********************************************************************************
 385:.\Generated_Source\PSoC5/PhaseCounter.c **** * Summary:
 386:.\Generated_Source\PSoC5/PhaseCounter.c **** * Changes the period of the counter.  The new period 
 387:.\Generated_Source\PSoC5/PhaseCounter.c **** * will be loaded the next time terminal count is detected.
 388:.\Generated_Source\PSoC5/PhaseCounter.c **** *
 389:.\Generated_Source\PSoC5/PhaseCounter.c **** * Parameters:  
 390:.\Generated_Source\PSoC5/PhaseCounter.c **** *  period: (uint16) A value of 0 will result in
 391:.\Generated_Source\PSoC5/PhaseCounter.c **** *         the counter remaining at zero.  
 392:.\Generated_Source\PSoC5/PhaseCounter.c **** *
 393:.\Generated_Source\PSoC5/PhaseCounter.c **** * Return: 
 394:.\Generated_Source\PSoC5/PhaseCounter.c **** *  void
 395:.\Generated_Source\PSoC5/PhaseCounter.c **** *
 396:.\Generated_Source\PSoC5/PhaseCounter.c **** *******************************************************************************/
 397:.\Generated_Source\PSoC5/PhaseCounter.c **** void PhaseCounter_WritePeriod(uint16 period) 
 398:.\Generated_Source\PSoC5/PhaseCounter.c **** {
 499              		.loc 1 398 0
 500              		.cfi_startproc
 501              		@ args = 0, pretend = 0, frame = 8
 502              		@ frame_needed = 1, uses_anonymous_args = 0
 503              		@ link register save eliminated.
 504 0000 80B4     		push	{r7}
 505              	.LCFI22:
 506              		.cfi_def_cfa_offset 4
 507 0002 83B0     		sub	sp, sp, #12
 508              	.LCFI23:
 509              		.cfi_def_cfa_offset 16
 510 0004 00AF     		add	r7, sp, #0
ARM GAS  C:\Users\SUZUKI~1\AppData\Local\Temp\ccuFc3hg.s 			page 17


 511              		.cfi_offset 7, -4
 512              	.LCFI24:
 513              		.cfi_def_cfa_register 7
 514 0006 0346     		mov	r3, r0
 515 0008 FB80     		strh	r3, [r7, #6]	@ movhi
 399:.\Generated_Source\PSoC5/PhaseCounter.c ****     #if(PhaseCounter_UsingFixedFunction)
 400:.\Generated_Source\PSoC5/PhaseCounter.c ****         CY_SET_REG16(PhaseCounter_PERIOD_LSB_PTR,(uint16)period);
 516              		.loc 1 400 0
 517 000a 44F60273 		movw	r3, #:lower16:1073762050
 518 000e C4F20003 		movt	r3, #:upper16:1073762050
 519 0012 FA88     		ldrh	r2, [r7, #6]	@ movhi
 520 0014 1A80     		strh	r2, [r3, #0]	@ movhi
 401:.\Generated_Source\PSoC5/PhaseCounter.c ****     #else
 402:.\Generated_Source\PSoC5/PhaseCounter.c ****         CY_SET_REG16(PhaseCounter_PERIOD_LSB_PTR,period);
 403:.\Generated_Source\PSoC5/PhaseCounter.c ****     #endif /* (PhaseCounter_UsingFixedFunction) */
 404:.\Generated_Source\PSoC5/PhaseCounter.c **** }
 521              		.loc 1 404 0
 522 0016 07F10C07 		add	r7, r7, #12
 523 001a BD46     		mov	sp, r7
 524 001c 80BC     		pop	{r7}
 525 001e 7047     		bx	lr
 526              		.cfi_endproc
 527              	.LFE10:
 528              		.size	PhaseCounter_WritePeriod, .-PhaseCounter_WritePeriod
 529              		.section	.text.PhaseCounter_ReadPeriod,"ax",%progbits
 530              		.align	2
 531              		.global	PhaseCounter_ReadPeriod
 532              		.thumb
 533              		.thumb_func
 534              		.type	PhaseCounter_ReadPeriod, %function
 535              	PhaseCounter_ReadPeriod:
 536              	.LFB11:
 405:.\Generated_Source\PSoC5/PhaseCounter.c **** 
 406:.\Generated_Source\PSoC5/PhaseCounter.c **** 
 407:.\Generated_Source\PSoC5/PhaseCounter.c **** /*******************************************************************************
 408:.\Generated_Source\PSoC5/PhaseCounter.c **** * Function Name: PhaseCounter_ReadPeriod
 409:.\Generated_Source\PSoC5/PhaseCounter.c **** ********************************************************************************
 410:.\Generated_Source\PSoC5/PhaseCounter.c **** * Summary:
 411:.\Generated_Source\PSoC5/PhaseCounter.c **** * Reads the current period value without affecting counter operation.
 412:.\Generated_Source\PSoC5/PhaseCounter.c **** *
 413:.\Generated_Source\PSoC5/PhaseCounter.c **** * Parameters:  
 414:.\Generated_Source\PSoC5/PhaseCounter.c **** *  void:  
 415:.\Generated_Source\PSoC5/PhaseCounter.c **** *
 416:.\Generated_Source\PSoC5/PhaseCounter.c **** * Return: 
 417:.\Generated_Source\PSoC5/PhaseCounter.c **** *  (uint16) Present period value.
 418:.\Generated_Source\PSoC5/PhaseCounter.c **** *
 419:.\Generated_Source\PSoC5/PhaseCounter.c **** *******************************************************************************/
 420:.\Generated_Source\PSoC5/PhaseCounter.c **** uint16 PhaseCounter_ReadPeriod(void) 
 421:.\Generated_Source\PSoC5/PhaseCounter.c **** {
 537              		.loc 1 421 0
 538              		.cfi_startproc
 539              		@ args = 0, pretend = 0, frame = 0
 540              		@ frame_needed = 1, uses_anonymous_args = 0
 541              		@ link register save eliminated.
 542 0000 80B4     		push	{r7}
 543              	.LCFI25:
 544              		.cfi_def_cfa_offset 4
ARM GAS  C:\Users\SUZUKI~1\AppData\Local\Temp\ccuFc3hg.s 			page 18


 545 0002 00AF     		add	r7, sp, #0
 546              		.cfi_offset 7, -4
 547              	.LCFI26:
 548              		.cfi_def_cfa_register 7
 422:.\Generated_Source\PSoC5/PhaseCounter.c ****    return ( CY_GET_REG16(PhaseCounter_PERIOD_LSB_PTR));
 549              		.loc 1 422 0
 550 0004 44F60273 		movw	r3, #:lower16:1073762050
 551 0008 C4F20003 		movt	r3, #:upper16:1073762050
 552 000c 1B88     		ldrh	r3, [r3, #0]	@ movhi
 553 000e 9BB2     		uxth	r3, r3
 423:.\Generated_Source\PSoC5/PhaseCounter.c **** }
 554              		.loc 1 423 0
 555 0010 1846     		mov	r0, r3
 556 0012 BD46     		mov	sp, r7
 557 0014 80BC     		pop	{r7}
 558 0016 7047     		bx	lr
 559              		.cfi_endproc
 560              	.LFE11:
 561              		.size	PhaseCounter_ReadPeriod, .-PhaseCounter_ReadPeriod
 562              		.text
 563              	.Letext0:
