ARM GAS  C:\Users\SUZUKI~1\AppData\Local\Temp\ccStm1gg.s 			page 1


   1              		.syntax unified
   2              		.cpu cortex-m3
   3              		.fpu softvfp
   4              		.eabi_attribute 20, 1
   5              		.eabi_attribute 21, 1
   6              		.eabi_attribute 23, 3
   7              		.eabi_attribute 24, 1
   8              		.eabi_attribute 25, 1
   9              		.eabi_attribute 26, 1
  10              		.eabi_attribute 30, 6
  11              		.eabi_attribute 18, 4
  12              		.thumb
  13              		.file	"main.c"
  14              		.section	.debug_abbrev,"",%progbits
  15              	.Ldebug_abbrev0:
  16              		.section	.debug_info,"",%progbits
  17              	.Ldebug_info0:
  18              		.section	.debug_line,"",%progbits
  19              	.Ldebug_line0:
  20 0000 79000000 		.text
  20      02005300 
  20      00000201 
  20      FB0E0D00 
  20      01010101 
  21              	.Ltext0:
  22              		.cfi_sections	.debug_frame
  23              		.global	cdat
  24              		.section	.rodata
  25              		.align	2
  26              		.type	cdat, %object
  27              		.size	cdat, 20
  28              	cdat:
  29 0000 00       		.byte	0
  30 0001 01       		.byte	1
  31 0002 02       		.byte	2
  32 0003 03       		.byte	3
  33 0004 04       		.byte	4
  34 0005 05       		.byte	5
  35 0006 06       		.byte	6
  36 0007 07       		.byte	7
  37 0008 08       		.byte	8
  38 0009 09       		.byte	9
  39 000a 0A       		.byte	10
  40 000b 0B       		.byte	11
  41 000c 0C       		.byte	12
  42 000d 0D       		.byte	13
  43 000e 0E       		.byte	14
  44 000f 0F       		.byte	15
  45 0010 10       		.byte	16
  46 0011 11       		.byte	17
  47 0012 12       		.byte	18
  48 0013 13       		.byte	19
  49              		.global	BASE_OFFSET
  50              		.align	2
  51              		.type	BASE_OFFSET, %object
  52              		.size	BASE_OFFSET, 48
  53              	BASE_OFFSET:
ARM GAS  C:\Users\SUZUKI~1\AppData\Local\Temp\ccStm1gg.s 			page 2


  54 0014 2000     		.short	32
  55 0016 2100     		.short	33
  56 0018 6000     		.short	96
  57 001a 6100     		.short	97
  58 001c A000     		.short	160
  59 001e A100     		.short	161
  60 0020 E000     		.short	224
  61 0022 E100     		.short	225
  62 0024 2001     		.short	288
  63 0026 2101     		.short	289
  64 0028 6001     		.short	352
  65 002a 6101     		.short	353
  66 002c 4001     		.short	320
  67 002e 4101     		.short	321
  68 0030 0001     		.short	256
  69 0032 0101     		.short	257
  70 0034 C000     		.short	192
  71 0036 C100     		.short	193
  72 0038 8000     		.short	128
  73 003a 8100     		.short	129
  74 003c 0000     		.short	0
  75 003e 0100     		.short	1
  76 0040 00000000 		.space	4
  77              		.section	.text.main,"ax",%progbits
  78              		.align	2
  79              		.global	main
  80              		.thumb
  81              		.thumb_func
  82              		.type	main, %function
  83              	main:
  84              	.LFB29:
  85              		.file 1 ".\\main.c"
   1:.\main.c      **** /* ========================================
   2:.\main.c      ****  *
   3:.\main.c      ****  * Copyright YOUR COMPANY, THE YEAR
   4:.\main.c      ****  * All Rights Reserved
   5:.\main.c      ****  * UNPUBLISHED, LICENSED SOFTWARE.
   6:.\main.c      ****  *
   7:.\main.c      ****  * CONFIDENTIAL AND PROPRIETARY INFORMATION
   8:.\main.c      ****  * WHICH IS THE PROPERTY OF your company.
   9:.\main.c      ****  *
  10:.\main.c      ****  * ========================================
  11:.\main.c      **** */
  12:.\main.c      **** #include <device.h>
  13:.\main.c      **** #define DMA_1_BYTES_PER_BURST 1
  14:.\main.c      **** #define DMA_1_REQUEST_PER_BURST 1
  15:.\main.c      **** #define DMA_1_SRC_BASE (buf)
  16:.\main.c      **** #define DMA_1_DST_BASE (CYDEV_PERIPH_BASE)
  17:.\main.c      **** 
  18:.\main.c      **** const uint8 CYCODE cdat[20] = {0,1,2,3,4,5,6,7,8,9,10,11,12,13,14,15,16,17,18,19};
  19:.\main.c      **** const uint16 BASE_OFFSET[24] = {32,33,96,97,160,161,224,225,288,289,352,353,320,321,256,257,192,193
  20:.\main.c      **** 
  21:.\main.c      **** void main()
  22:.\main.c      **** {
  86              		.loc 1 22 0
  87              		.cfi_startproc
  88              		@ args = 0, pretend = 0, frame = 416
ARM GAS  C:\Users\SUZUKI~1\AppData\Local\Temp\ccStm1gg.s 			page 3


  89              		@ frame_needed = 1, uses_anonymous_args = 0
  90 0000 90B5     		push	{r4, r7, lr}
  91              	.LCFI0:
  92              		.cfi_def_cfa_offset 12
  93 0002 E9B0     		sub	sp, sp, #420
  94              	.LCFI1:
  95              		.cfi_def_cfa_offset 432
  96 0004 00AF     		add	r7, sp, #0
  97              		.cfi_offset 14, -4
  98              		.cfi_offset 7, -8
  99              		.cfi_offset 4, -12
 100              	.LCFI2:
 101              		.cfi_def_cfa_register 7
  23:.\main.c      ****     uint8 DMA_1_Chan;
  24:.\main.c      **** 	uint8 DMA_1_TD[24];
  25:.\main.c      **** 	uint8 buf[384];
  26:.\main.c      **** 	int16 i;
  27:.\main.c      **** 	
  28:.\main.c      **** 	for(i = 0; i < 384; i++) {
 102              		.loc 1 28 0
 103 0006 4FF00003 		mov	r3, #0
 104 000a A7F89E31 		strh	r3, [r7, #414]	@ movhi
 105 000e 0DE0     		b	.L2
 106              	.L3:
  29:.\main.c      **** //		buf[i] = (i & 0x01) ? 0xff : 0;
  30:.\main.c      **** 		buf[i] = i;
 107              		.loc 1 30 0
 108 0010 B7F99E31 		ldrsh	r3, [r7, #414]
 109 0014 B7F89E21 		ldrh	r2, [r7, #414]	@ movhi
 110 0018 D1B2     		uxtb	r1, r2
 111 001a 07F10402 		add	r2, r7, #4
 112 001e D154     		strb	r1, [r2, r3]
 113              		.loc 1 28 0
 114 0020 B7F89E31 		ldrh	r3, [r7, #414]	@ movhi
 115 0024 03F10103 		add	r3, r3, #1
 116 0028 A7F89E31 		strh	r3, [r7, #414]	@ movhi
 117              	.L2:
 118 002c B7F99E21 		ldrsh	r2, [r7, #414]
 119 0030 40F27F13 		movw	r3, #383
 120 0034 9A42     		cmp	r2, r3
 121 0036 EBDD     		ble	.L3
  31:.\main.c      **** 	}
  32:.\main.c      **** 	
  33:.\main.c      **** 	DMA_1_Chan = DMA_1_DmaInitialize(DMA_1_BYTES_PER_BURST, DMA_1_REQUEST_PER_BURST, 
  34:.\main.c      **** 									HI16(DMA_1_SRC_BASE), HI16(DMA_1_DST_BASE));
 122              		.loc 1 34 0
 123 0038 07F10403 		add	r3, r7, #4
 124 003c 4FEA1343 		lsr	r3, r3, #16
 125              		.loc 1 33 0
 126 0040 9BB2     		uxth	r3, r3
 127 0042 4FF00100 		mov	r0, #1
 128 0046 4FF00101 		mov	r1, #1
 129 004a 1A46     		mov	r2, r3
 130 004c 4FF48043 		mov	r3, #16384
 131 0050 FFF7FEFF 		bl	DMA_1_DmaInitialize
 132 0054 0346     		mov	r3, r0
 133 0056 87F89D31 		strb	r3, [r7, #413]
ARM GAS  C:\Users\SUZUKI~1\AppData\Local\Temp\ccStm1gg.s 			page 4


  35:.\main.c      **** 	for(i = 0; i < 24; i++) {
 134              		.loc 1 35 0
 135 005a 4FF00003 		mov	r3, #0
 136 005e A7F89E31 		strh	r3, [r7, #414]	@ movhi
 137 0062 57E0     		b	.L4
 138              	.L5:
  36:.\main.c      **** 		DMA_1_TD[i] = CyDmaTdAllocate();
 139              		.loc 1 36 0
 140 0064 B7F99E41 		ldrsh	r4, [r7, #414]
 141 0068 FFF7FEFF 		bl	CyDmaTdAllocate
 142 006c 0346     		mov	r3, r0
 143 006e 1A46     		mov	r2, r3
 144 0070 07F5D071 		add	r1, r7, #416
 145 0074 01EB0403 		add	r3, r1, r4
 146 0078 03F81C2C 		strb	r2, [r3, #-28]
  37:.\main.c      **** 		CyDmaTdSetConfiguration(DMA_1_TD[i], 1, DMA_1_TD[(i+1)%24], TD_INC_SRC_ADR/* | TD_AUTO_EXEC_NEXT*
 147              		.loc 1 37 0
 148 007c B7F99E31 		ldrsh	r3, [r7, #414]
 149 0080 07F5D072 		add	r2, r7, #416
 150 0084 1344     		add	r3, r2, r3
 151 0086 13F81C0C 		ldrb	r0, [r3, #-28]	@ zero_extendqisi2
 152 008a B7F99E31 		ldrsh	r3, [r7, #414]
 153 008e 03F10101 		add	r1, r3, #1
 154 0092 4AF6AB23 		movw	r3, #:lower16:715827883
 155 0096 C2F6AA23 		movt	r3, #:upper16:715827883
 156 009a 83FB0123 		smull	r2, r3, r3, r1
 157 009e 4FEAA302 		asr	r2, r3, #2
 158 00a2 4FEAE173 		asr	r3, r1, #31
 159 00a6 C3EB0202 		rsb	r2, r3, r2
 160 00aa 1346     		mov	r3, r2
 161 00ac 4FEA4303 		lsl	r3, r3, #1
 162 00b0 1344     		add	r3, r3, r2
 163 00b2 4FEAC303 		lsl	r3, r3, #3
 164 00b6 C3EB0102 		rsb	r2, r3, r1
 165 00ba 07F5D071 		add	r1, r7, #416
 166 00be 01EB0203 		add	r3, r1, r2
 167 00c2 13F81C3C 		ldrb	r3, [r3, #-28]	@ zero_extendqisi2
 168 00c6 4FF00101 		mov	r1, #1
 169 00ca 1A46     		mov	r2, r3
 170 00cc 4FF00103 		mov	r3, #1
 171 00d0 FFF7FEFF 		bl	CyDmaTdSetConfiguration
  38:.\main.c      **** 		CyDmaTdSetAddress(DMA_1_TD[i], LO16((uint32)buf+BASE_OFFSET[i]), LO16((uint32)matdrv2_1_FIFO0_PTR
 172              		.loc 1 38 0
 173 00d4 B7F99E31 		ldrsh	r3, [r7, #414]
 174 00d8 07F5D072 		add	r2, r7, #416
 175 00dc 1344     		add	r3, r2, r3
 176 00de 13F81C2C 		ldrb	r2, [r3, #-28]	@ zero_extendqisi2
 177 00e2 07F10403 		add	r3, r7, #4
 178 00e6 99B2     		uxth	r1, r3
 179 00e8 B7F99E01 		ldrsh	r0, [r7, #414]
 180 00ec 40F20003 		movw	r3, #:lower16:BASE_OFFSET
 181 00f0 C0F20003 		movt	r3, #:upper16:BASE_OFFSET
 182 00f4 33F81030 		ldrh	r3, [r3, r0, lsl #1]
 183 00f8 0B44     		add	r3, r1, r3
 184 00fa 9BB2     		uxth	r3, r3
 185 00fc 1046     		mov	r0, r2
 186 00fe 1946     		mov	r1, r3
ARM GAS  C:\Users\SUZUKI~1\AppData\Local\Temp\ccStm1gg.s 			page 5


 187 0100 46F24952 		movw	r2, #25929
 188 0104 FFF7FEFF 		bl	CyDmaTdSetAddress
 189              		.loc 1 35 0
 190 0108 B7F89E31 		ldrh	r3, [r7, #414]	@ movhi
 191 010c 03F10103 		add	r3, r3, #1
 192 0110 A7F89E31 		strh	r3, [r7, #414]	@ movhi
 193              	.L4:
 194 0114 B7F99E31 		ldrsh	r3, [r7, #414]
 195 0118 172B     		cmp	r3, #23
 196 011a A3DD     		ble	.L5
  39:.\main.c      **** 	}
  40:.\main.c      **** 	CyDmaChSetInitialTd(DMA_1_Chan, DMA_1_TD[0]);
 197              		.loc 1 40 0
 198 011c 97F88431 		ldrb	r3, [r7, #388]	@ zero_extendqisi2
 199 0120 97F89D21 		ldrb	r2, [r7, #413]	@ zero_extendqisi2
 200 0124 1046     		mov	r0, r2
 201 0126 1946     		mov	r1, r3
 202 0128 FFF7FEFF 		bl	CyDmaChSetInitialTd
  41:.\main.c      **** 	CyDmaChEnable(DMA_1_Chan, 1);
 203              		.loc 1 41 0
 204 012c 97F89D31 		ldrb	r3, [r7, #413]	@ zero_extendqisi2
 205 0130 1846     		mov	r0, r3
 206 0132 4FF00101 		mov	r1, #1
 207 0136 FFF7FEFF 		bl	CyDmaChEnable
  42:.\main.c      **** 
  43:.\main.c      ****     CyGlobalIntEnable;
 208              		.loc 1 43 0
 209              	@ 43 ".\main.c" 1
 210 013a 62B6     		CPSIE   i
 211              	@ 0 "" 2
 212              		.thumb
 213              	.L6:
  44:.\main.c      **** 	while(1) {}
 214              		.loc 1 44 0
 215 013c FEE7     		b	.L6
 216              		.cfi_endproc
 217              	.LFE29:
 218              		.size	main, .-main
 219 013e 00BF     		.text
 220              	.Letext0:
