ARM GAS  C:\Users\SUZUKI~1\AppData\Local\Temp\ccEpigAn.s 			page 1


   1              		.syntax unified
   2              		.cpu cortex-m3
   3              		.fpu softvfp
   4              		.eabi_attribute 20, 1
   5              		.eabi_attribute 21, 1
   6              		.eabi_attribute 23, 3
   7              		.eabi_attribute 24, 1
   8              		.eabi_attribute 25, 1
   9              		.eabi_attribute 26, 1
  10              		.eabi_attribute 30, 6
  11              		.eabi_attribute 18, 4
  12              		.thumb
  13              		.file	"matdrv2_1_matdrv2.c"
  14              		.section	.debug_abbrev,"",%progbits
  15              	.Ldebug_abbrev0:
  16              		.section	.debug_info,"",%progbits
  17              	.Ldebug_info0:
  18              		.section	.debug_line,"",%progbits
  19              	.Ldebug_line0:
  20 0000 69000000 		.text
  20      02004300 
  20      00000201 
  20      FB0E0D00 
  20      01010101 
  21              	.Ltext0:
  22              		.cfi_sections	.debug_frame
  23              		.section	.text.matdrv2_1_Start,"ax",%progbits
  24              		.align	2
  25              		.global	matdrv2_1_Start
  26              		.thumb
  27              		.thumb_func
  28              		.type	matdrv2_1_Start, %function
  29              	matdrv2_1_Start:
  30              	.LFB0:
  31              		.file 1 ".\\Generated_Source\\PSoC5\\matdrv2_1_matdrv2.c"
   1:.\Generated_Source\PSoC5/matdrv2_1_matdrv2.c **** /* ========================================
   2:.\Generated_Source\PSoC5/matdrv2_1_matdrv2.c ****  *
   3:.\Generated_Source\PSoC5/matdrv2_1_matdrv2.c ****  * Copyright YOUR COMPANY, THE YEAR
   4:.\Generated_Source\PSoC5/matdrv2_1_matdrv2.c ****  * All Rights Reserved
   5:.\Generated_Source\PSoC5/matdrv2_1_matdrv2.c ****  * UNPUBLISHED, LICENSED SOFTWARE.
   6:.\Generated_Source\PSoC5/matdrv2_1_matdrv2.c ****  *
   7:.\Generated_Source\PSoC5/matdrv2_1_matdrv2.c ****  * CONFIDENTIAL AND PROPRIETARY INFORMATION
   8:.\Generated_Source\PSoC5/matdrv2_1_matdrv2.c ****  * WHICH IS THE PROPERTY OF your company.
   9:.\Generated_Source\PSoC5/matdrv2_1_matdrv2.c ****  *
  10:.\Generated_Source\PSoC5/matdrv2_1_matdrv2.c ****  * ========================================
  11:.\Generated_Source\PSoC5/matdrv2_1_matdrv2.c **** */
  12:.\Generated_Source\PSoC5/matdrv2_1_matdrv2.c **** 
  13:.\Generated_Source\PSoC5/matdrv2_1_matdrv2.c **** void matdrv2_1_Start(void)
  14:.\Generated_Source\PSoC5/matdrv2_1_matdrv2.c **** {
  32              		.loc 1 14 0
  33              		.cfi_startproc
  34              		@ args = 0, pretend = 0, frame = 0
  35              		@ frame_needed = 1, uses_anonymous_args = 0
  36              		@ link register save eliminated.
  37 0000 80B4     		push	{r7}
  38              	.LCFI0:
  39              		.cfi_def_cfa_offset 4
ARM GAS  C:\Users\SUZUKI~1\AppData\Local\Temp\ccEpigAn.s 			page 2


  40 0002 00AF     		add	r7, sp, #0
  41              		.cfi_offset 7, -4
  42              	.LCFI1:
  43              		.cfi_def_cfa_register 7
  15:.\Generated_Source\PSoC5/matdrv2_1_matdrv2.c **** 	/* nothing to do */
  16:.\Generated_Source\PSoC5/matdrv2_1_matdrv2.c **** 	return;
  17:.\Generated_Source\PSoC5/matdrv2_1_matdrv2.c **** }
  44              		.loc 1 17 0
  45 0004 BD46     		mov	sp, r7
  46 0006 80BC     		pop	{r7}
  47 0008 7047     		bx	lr
  48              		.cfi_endproc
  49              	.LFE0:
  50              		.size	matdrv2_1_Start, .-matdrv2_1_Start
  51 000a 00BF     		.section	.text.matdrv2_1_Stop,"ax",%progbits
  52              		.align	2
  53              		.global	matdrv2_1_Stop
  54              		.thumb
  55              		.thumb_func
  56              		.type	matdrv2_1_Stop, %function
  57              	matdrv2_1_Stop:
  58              	.LFB1:
  18:.\Generated_Source\PSoC5/matdrv2_1_matdrv2.c **** 
  19:.\Generated_Source\PSoC5/matdrv2_1_matdrv2.c **** void matdrv2_1_Stop(void)
  20:.\Generated_Source\PSoC5/matdrv2_1_matdrv2.c **** {
  59              		.loc 1 20 0
  60              		.cfi_startproc
  61              		@ args = 0, pretend = 0, frame = 0
  62              		@ frame_needed = 1, uses_anonymous_args = 0
  63              		@ link register save eliminated.
  64 0000 80B4     		push	{r7}
  65              	.LCFI2:
  66              		.cfi_def_cfa_offset 4
  67 0002 00AF     		add	r7, sp, #0
  68              		.cfi_offset 7, -4
  69              	.LCFI3:
  70              		.cfi_def_cfa_register 7
  21:.\Generated_Source\PSoC5/matdrv2_1_matdrv2.c **** 	/* nothing to do */
  22:.\Generated_Source\PSoC5/matdrv2_1_matdrv2.c **** 	return;
  23:.\Generated_Source\PSoC5/matdrv2_1_matdrv2.c **** }
  71              		.loc 1 23 0
  72 0004 BD46     		mov	sp, r7
  73 0006 80BC     		pop	{r7}
  74 0008 7047     		bx	lr
  75              		.cfi_endproc
  76              	.LFE1:
  77              		.size	matdrv2_1_Stop, .-matdrv2_1_Stop
  78 000a 00BF     		.text
  79              	.Letext0:
