ARM GAS  C:\Users\SUZUKI~1\AppData\Local\Temp\cccyIThI.s 			page 1


   1              		.syntax unified
   2              		.cpu cortex-m3
   3              		.fpu softvfp
   4              		.eabi_attribute 20, 1
   5              		.eabi_attribute 21, 1
   6              		.eabi_attribute 23, 3
   7              		.eabi_attribute 24, 1
   8              		.eabi_attribute 25, 1
   9              		.eabi_attribute 26, 1
  10              		.eabi_attribute 30, 4
  11              		.eabi_attribute 18, 4
  12              		.thumb
  13              		.file	"ADC_SAR_1.c"
  14              		.section	.debug_abbrev,"",%progbits
  15              	.Ldebug_abbrev0:
  16              		.section	.debug_info,"",%progbits
  17              	.Ldebug_info0:
  18              		.section	.debug_line,"",%progbits
  19              	.Ldebug_line0:
  20 0000 16020000 		.text
  20      02006200 
  20      00000201 
  20      FB0E0D00 
  20      01010101 
  21              	.Ltext0:
  22              		.cfi_sections	.debug_frame
  23              		.section	.text.ADC_SAR_1_SetPower,"ax",%progbits
  24              		.align	1
  25              		.global	ADC_SAR_1_SetPower
  26              		.thumb
  27              		.thumb_func
  28              		.type	ADC_SAR_1_SetPower, %function
  29              	ADC_SAR_1_SetPower:
  30              	.LFB4:
  31              		.file 1 ".\\Generated_Source\\PSoC5\\ADC_SAR_1.c"
   1:.\Generated_Source\PSoC5/ADC_SAR_1.c **** /*******************************************************************************
   2:.\Generated_Source\PSoC5/ADC_SAR_1.c **** * File Name: ADC_SAR_1.c
   3:.\Generated_Source\PSoC5/ADC_SAR_1.c **** * Version 2.0
   4:.\Generated_Source\PSoC5/ADC_SAR_1.c **** *
   5:.\Generated_Source\PSoC5/ADC_SAR_1.c **** * Description:
   6:.\Generated_Source\PSoC5/ADC_SAR_1.c **** *  This file provides the source code to the API for the Successive
   7:.\Generated_Source\PSoC5/ADC_SAR_1.c **** *  approximation ADC Component.
   8:.\Generated_Source\PSoC5/ADC_SAR_1.c **** *
   9:.\Generated_Source\PSoC5/ADC_SAR_1.c **** * Note:
  10:.\Generated_Source\PSoC5/ADC_SAR_1.c **** *
  11:.\Generated_Source\PSoC5/ADC_SAR_1.c **** ********************************************************************************
  12:.\Generated_Source\PSoC5/ADC_SAR_1.c **** * Copyright 2008-2012, Cypress Semiconductor Corporation.  All rights reserved.
  13:.\Generated_Source\PSoC5/ADC_SAR_1.c **** * You may use this file only in accordance with the license, terms, conditions,
  14:.\Generated_Source\PSoC5/ADC_SAR_1.c **** * disclaimers, and limitations in the end user license agreement accompanying
  15:.\Generated_Source\PSoC5/ADC_SAR_1.c **** * the software package with which this file was provided.
  16:.\Generated_Source\PSoC5/ADC_SAR_1.c **** *******************************************************************************/
  17:.\Generated_Source\PSoC5/ADC_SAR_1.c **** 
  18:.\Generated_Source\PSoC5/ADC_SAR_1.c **** #include "CyLib.h"
  19:.\Generated_Source\PSoC5/ADC_SAR_1.c **** #include "ADC_SAR_1.h"
  20:.\Generated_Source\PSoC5/ADC_SAR_1.c **** 
  21:.\Generated_Source\PSoC5/ADC_SAR_1.c **** #if(ADC_SAR_1_DEFAULT_INTERNAL_CLK)
  22:.\Generated_Source\PSoC5/ADC_SAR_1.c ****     #include "ADC_SAR_1_theACLK.h"
ARM GAS  C:\Users\SUZUKI~1\AppData\Local\Temp\cccyIThI.s 			page 2


  23:.\Generated_Source\PSoC5/ADC_SAR_1.c **** #endif /* End ADC_SAR_1_DEFAULT_INTERNAL_CLK */
  24:.\Generated_Source\PSoC5/ADC_SAR_1.c **** 
  25:.\Generated_Source\PSoC5/ADC_SAR_1.c **** 
  26:.\Generated_Source\PSoC5/ADC_SAR_1.c **** /***************************************
  27:.\Generated_Source\PSoC5/ADC_SAR_1.c **** * Forward function references
  28:.\Generated_Source\PSoC5/ADC_SAR_1.c **** ***************************************/
  29:.\Generated_Source\PSoC5/ADC_SAR_1.c **** static void ADC_SAR_1_CalcGain(uint8 resolution);
  30:.\Generated_Source\PSoC5/ADC_SAR_1.c **** 
  31:.\Generated_Source\PSoC5/ADC_SAR_1.c **** 
  32:.\Generated_Source\PSoC5/ADC_SAR_1.c **** /***************************************
  33:.\Generated_Source\PSoC5/ADC_SAR_1.c **** * Global data allocation
  34:.\Generated_Source\PSoC5/ADC_SAR_1.c **** ***************************************/
  35:.\Generated_Source\PSoC5/ADC_SAR_1.c **** uint8 ADC_SAR_1_initVar = 0u;
  36:.\Generated_Source\PSoC5/ADC_SAR_1.c **** volatile int16 ADC_SAR_1_offset;
  37:.\Generated_Source\PSoC5/ADC_SAR_1.c **** volatile int16 ADC_SAR_1_countsPerVolt;   /* Gain compensation */
  38:.\Generated_Source\PSoC5/ADC_SAR_1.c **** volatile int16 ADC_SAR_1_shift;
  39:.\Generated_Source\PSoC5/ADC_SAR_1.c **** 
  40:.\Generated_Source\PSoC5/ADC_SAR_1.c **** 
  41:.\Generated_Source\PSoC5/ADC_SAR_1.c **** /***************************************
  42:.\Generated_Source\PSoC5/ADC_SAR_1.c **** * Local data allocation
  43:.\Generated_Source\PSoC5/ADC_SAR_1.c **** ***************************************/
  44:.\Generated_Source\PSoC5/ADC_SAR_1.c **** #if(CY_PSOC5A)
  45:.\Generated_Source\PSoC5/ADC_SAR_1.c ****     static uint8 ADC_SAR_1_resolution;
  46:.\Generated_Source\PSoC5/ADC_SAR_1.c **** #endif /* End CY_PSOC5A */
  47:.\Generated_Source\PSoC5/ADC_SAR_1.c **** 
  48:.\Generated_Source\PSoC5/ADC_SAR_1.c **** 
  49:.\Generated_Source\PSoC5/ADC_SAR_1.c **** /*******************************************************************************
  50:.\Generated_Source\PSoC5/ADC_SAR_1.c **** * Function Name: ADC_SAR_1_Start
  51:.\Generated_Source\PSoC5/ADC_SAR_1.c **** ********************************************************************************
  52:.\Generated_Source\PSoC5/ADC_SAR_1.c **** *
  53:.\Generated_Source\PSoC5/ADC_SAR_1.c **** * Summary:
  54:.\Generated_Source\PSoC5/ADC_SAR_1.c **** *  Performs all required initialization for this component and enables the
  55:.\Generated_Source\PSoC5/ADC_SAR_1.c **** *  power.
  56:.\Generated_Source\PSoC5/ADC_SAR_1.c **** *
  57:.\Generated_Source\PSoC5/ADC_SAR_1.c **** * Parameters:
  58:.\Generated_Source\PSoC5/ADC_SAR_1.c **** *  None.
  59:.\Generated_Source\PSoC5/ADC_SAR_1.c **** *
  60:.\Generated_Source\PSoC5/ADC_SAR_1.c **** * Return:
  61:.\Generated_Source\PSoC5/ADC_SAR_1.c **** *  None.
  62:.\Generated_Source\PSoC5/ADC_SAR_1.c **** *
  63:.\Generated_Source\PSoC5/ADC_SAR_1.c **** * Global variables:
  64:.\Generated_Source\PSoC5/ADC_SAR_1.c **** *  The ADC_SAR_1_initVar variable is used to indicate when/if initial
  65:.\Generated_Source\PSoC5/ADC_SAR_1.c **** *  configuration of this component has happened. The variable is initialized to
  66:.\Generated_Source\PSoC5/ADC_SAR_1.c **** *  zero and set to 1 the first time ADC_Start() is called. This allows for
  67:.\Generated_Source\PSoC5/ADC_SAR_1.c **** *  component Re-Start without re-initialization in all subsequent calls to the
  68:.\Generated_Source\PSoC5/ADC_SAR_1.c **** *  ADC_SAR_1_Start() routine.
  69:.\Generated_Source\PSoC5/ADC_SAR_1.c **** *  If re-initialization of the component is required the variable should be set
  70:.\Generated_Source\PSoC5/ADC_SAR_1.c **** *  to zero before call of ADC_SAR_1_Start() routine, or the user may call
  71:.\Generated_Source\PSoC5/ADC_SAR_1.c **** *  ADC_SAR_1_Init() and ADC_SAR_1_Enable() as done in the
  72:.\Generated_Source\PSoC5/ADC_SAR_1.c **** *  ADC_SAR_1_Start() routine.
  73:.\Generated_Source\PSoC5/ADC_SAR_1.c **** *
  74:.\Generated_Source\PSoC5/ADC_SAR_1.c **** *******************************************************************************/
  75:.\Generated_Source\PSoC5/ADC_SAR_1.c **** void ADC_SAR_1_Start(void)
  76:.\Generated_Source\PSoC5/ADC_SAR_1.c **** {
  77:.\Generated_Source\PSoC5/ADC_SAR_1.c **** 
  78:.\Generated_Source\PSoC5/ADC_SAR_1.c ****     /* If not Initialized then initialize all required hardware and software */
  79:.\Generated_Source\PSoC5/ADC_SAR_1.c ****     if(ADC_SAR_1_initVar == 0u)
ARM GAS  C:\Users\SUZUKI~1\AppData\Local\Temp\cccyIThI.s 			page 3


  80:.\Generated_Source\PSoC5/ADC_SAR_1.c ****     {
  81:.\Generated_Source\PSoC5/ADC_SAR_1.c ****         ADC_SAR_1_Init();
  82:.\Generated_Source\PSoC5/ADC_SAR_1.c ****         ADC_SAR_1_initVar = 1u;
  83:.\Generated_Source\PSoC5/ADC_SAR_1.c ****     }
  84:.\Generated_Source\PSoC5/ADC_SAR_1.c ****     ADC_SAR_1_Enable();
  85:.\Generated_Source\PSoC5/ADC_SAR_1.c **** }
  86:.\Generated_Source\PSoC5/ADC_SAR_1.c **** 
  87:.\Generated_Source\PSoC5/ADC_SAR_1.c **** 
  88:.\Generated_Source\PSoC5/ADC_SAR_1.c **** /*******************************************************************************
  89:.\Generated_Source\PSoC5/ADC_SAR_1.c **** * Function Name: ADC_SAR_1_Init
  90:.\Generated_Source\PSoC5/ADC_SAR_1.c **** ********************************************************************************
  91:.\Generated_Source\PSoC5/ADC_SAR_1.c **** *
  92:.\Generated_Source\PSoC5/ADC_SAR_1.c **** * Summary:
  93:.\Generated_Source\PSoC5/ADC_SAR_1.c **** *  Initialize component's parameters to the parameters set by user in the
  94:.\Generated_Source\PSoC5/ADC_SAR_1.c **** *  customizer of the component placed onto schematic. Usually called in
  95:.\Generated_Source\PSoC5/ADC_SAR_1.c **** *  ADC_SAR_1_Start().
  96:.\Generated_Source\PSoC5/ADC_SAR_1.c **** *
  97:.\Generated_Source\PSoC5/ADC_SAR_1.c **** * Parameters:
  98:.\Generated_Source\PSoC5/ADC_SAR_1.c **** *  None.
  99:.\Generated_Source\PSoC5/ADC_SAR_1.c **** *
 100:.\Generated_Source\PSoC5/ADC_SAR_1.c **** * Return:
 101:.\Generated_Source\PSoC5/ADC_SAR_1.c **** *  None.
 102:.\Generated_Source\PSoC5/ADC_SAR_1.c **** *
 103:.\Generated_Source\PSoC5/ADC_SAR_1.c **** * Global variables:
 104:.\Generated_Source\PSoC5/ADC_SAR_1.c **** *  The ADC_SAR_1_offset variable is initialized to 0.
 105:.\Generated_Source\PSoC5/ADC_SAR_1.c **** *
 106:.\Generated_Source\PSoC5/ADC_SAR_1.c **** *******************************************************************************/
 107:.\Generated_Source\PSoC5/ADC_SAR_1.c **** void ADC_SAR_1_Init(void)
 108:.\Generated_Source\PSoC5/ADC_SAR_1.c **** {
 109:.\Generated_Source\PSoC5/ADC_SAR_1.c **** 
 110:.\Generated_Source\PSoC5/ADC_SAR_1.c ****     /* This is only valid if there is an internal clock */
 111:.\Generated_Source\PSoC5/ADC_SAR_1.c ****     #if(ADC_SAR_1_DEFAULT_INTERNAL_CLK)
 112:.\Generated_Source\PSoC5/ADC_SAR_1.c ****         ADC_SAR_1_theACLK_SetMode(CYCLK_DUTY);
 113:.\Generated_Source\PSoC5/ADC_SAR_1.c ****     #endif /* End ADC_SAR_1_DEFAULT_INTERNAL_CLK */
 114:.\Generated_Source\PSoC5/ADC_SAR_1.c **** 
 115:.\Generated_Source\PSoC5/ADC_SAR_1.c ****     #if(ADC_SAR_1_IRQ_REMOVE == 0u)
 116:.\Generated_Source\PSoC5/ADC_SAR_1.c ****         /* Start and set interrupt vector */
 117:.\Generated_Source\PSoC5/ADC_SAR_1.c ****         CyIntSetPriority(ADC_SAR_1_INTC_NUMBER, ADC_SAR_1_INTC_PRIOR_NUMBER);
 118:.\Generated_Source\PSoC5/ADC_SAR_1.c ****         (void)CyIntSetVector(ADC_SAR_1_INTC_NUMBER, &ADC_SAR_1_ISR);
 119:.\Generated_Source\PSoC5/ADC_SAR_1.c ****     #endif   /* End ADC_SAR_1_IRQ_REMOVE */        
 120:.\Generated_Source\PSoC5/ADC_SAR_1.c **** 
 121:.\Generated_Source\PSoC5/ADC_SAR_1.c ****     /* Enable IRQ mode*/
 122:.\Generated_Source\PSoC5/ADC_SAR_1.c ****     ADC_SAR_1_SAR_CSR1_REG |= ADC_SAR_1_SAR_IRQ_MASK_EN | ADC_SAR_1_SAR_IRQ_MODE_EDGE;
 123:.\Generated_Source\PSoC5/ADC_SAR_1.c **** 
 124:.\Generated_Source\PSoC5/ADC_SAR_1.c ****     /*Set SAR ADC resolution ADC */
 125:.\Generated_Source\PSoC5/ADC_SAR_1.c ****     ADC_SAR_1_SetResolution(ADC_SAR_1_DEFAULT_RESOLUTION);
 126:.\Generated_Source\PSoC5/ADC_SAR_1.c ****     ADC_SAR_1_offset = 0;
 127:.\Generated_Source\PSoC5/ADC_SAR_1.c **** }
 128:.\Generated_Source\PSoC5/ADC_SAR_1.c **** 
 129:.\Generated_Source\PSoC5/ADC_SAR_1.c **** 
 130:.\Generated_Source\PSoC5/ADC_SAR_1.c **** /*******************************************************************************
 131:.\Generated_Source\PSoC5/ADC_SAR_1.c **** * Function Name: ADC_SAR_1_Enable
 132:.\Generated_Source\PSoC5/ADC_SAR_1.c **** ********************************************************************************
 133:.\Generated_Source\PSoC5/ADC_SAR_1.c **** *
 134:.\Generated_Source\PSoC5/ADC_SAR_1.c **** * Summary:
 135:.\Generated_Source\PSoC5/ADC_SAR_1.c **** *  Enables the reference, clock and power for SAR ADC.
 136:.\Generated_Source\PSoC5/ADC_SAR_1.c **** *
ARM GAS  C:\Users\SUZUKI~1\AppData\Local\Temp\cccyIThI.s 			page 4


 137:.\Generated_Source\PSoC5/ADC_SAR_1.c **** * Parameters:
 138:.\Generated_Source\PSoC5/ADC_SAR_1.c **** *  None.
 139:.\Generated_Source\PSoC5/ADC_SAR_1.c **** *
 140:.\Generated_Source\PSoC5/ADC_SAR_1.c **** * Return:
 141:.\Generated_Source\PSoC5/ADC_SAR_1.c **** *  None.
 142:.\Generated_Source\PSoC5/ADC_SAR_1.c **** *
 143:.\Generated_Source\PSoC5/ADC_SAR_1.c **** *******************************************************************************/
 144:.\Generated_Source\PSoC5/ADC_SAR_1.c **** void ADC_SAR_1_Enable(void)
 145:.\Generated_Source\PSoC5/ADC_SAR_1.c **** {
 146:.\Generated_Source\PSoC5/ADC_SAR_1.c ****     uint8 tmpReg;
 147:.\Generated_Source\PSoC5/ADC_SAR_1.c ****     uint8 enableInterrupts;
 148:.\Generated_Source\PSoC5/ADC_SAR_1.c ****     enableInterrupts = CyEnterCriticalSection();
 149:.\Generated_Source\PSoC5/ADC_SAR_1.c **** 
 150:.\Generated_Source\PSoC5/ADC_SAR_1.c ****     /* Enable the SAR ADC block in Active Power Mode */
 151:.\Generated_Source\PSoC5/ADC_SAR_1.c ****     ADC_SAR_1_PWRMGR_SAR_REG |= ADC_SAR_1_ACT_PWR_SAR_EN;
 152:.\Generated_Source\PSoC5/ADC_SAR_1.c **** 
 153:.\Generated_Source\PSoC5/ADC_SAR_1.c ****      /* Enable the SAR ADC in Standby Power Mode*/
 154:.\Generated_Source\PSoC5/ADC_SAR_1.c ****     ADC_SAR_1_STBY_PWRMGR_SAR_REG |= ADC_SAR_1_STBY_PWR_SAR_EN;
 155:.\Generated_Source\PSoC5/ADC_SAR_1.c **** 
 156:.\Generated_Source\PSoC5/ADC_SAR_1.c ****     /* This is only valid if there is an internal clock */
 157:.\Generated_Source\PSoC5/ADC_SAR_1.c ****     #if(ADC_SAR_1_DEFAULT_INTERNAL_CLK)
 158:.\Generated_Source\PSoC5/ADC_SAR_1.c ****         ADC_SAR_1_PWRMGR_CLK_REG |= ADC_SAR_1_ACT_PWR_CLK_EN;
 159:.\Generated_Source\PSoC5/ADC_SAR_1.c ****         ADC_SAR_1_STBY_PWRMGR_CLK_REG |= ADC_SAR_1_STBY_PWR_CLK_EN;
 160:.\Generated_Source\PSoC5/ADC_SAR_1.c ****     #endif /* End ADC_SAR_1_DEFAULT_INTERNAL_CLK */
 161:.\Generated_Source\PSoC5/ADC_SAR_1.c **** 
 162:.\Generated_Source\PSoC5/ADC_SAR_1.c ****     /* Enable VCM buffer and Enable Int Ref Amp */
 163:.\Generated_Source\PSoC5/ADC_SAR_1.c ****     tmpReg = ADC_SAR_1_SAR_CSR3_REG;
 164:.\Generated_Source\PSoC5/ADC_SAR_1.c ****     #if(CY_PSOC5A) /* Make sure that full power is applied for VREF buffer */
 165:.\Generated_Source\PSoC5/ADC_SAR_1.c ****         tmpReg &= (uint8)~ADC_SAR_1_SAR_PWR_CTRL_VREF_DIV_BY4;
 166:.\Generated_Source\PSoC5/ADC_SAR_1.c ****     #endif /* CY_PSOC5A */
 167:.\Generated_Source\PSoC5/ADC_SAR_1.c ****     tmpReg |= ADC_SAR_1_SAR_EN_BUF_VCM_EN;
 168:.\Generated_Source\PSoC5/ADC_SAR_1.c ****     /* PD_BUF_VREF is OFF in External reference or Vdda reference mode */
 169:.\Generated_Source\PSoC5/ADC_SAR_1.c ****     #if((ADC_SAR_1_DEFAULT_REFERENCE == ADC_SAR_1__EXT_REF) || \
 170:.\Generated_Source\PSoC5/ADC_SAR_1.c ****         (ADC_SAR_1_DEFAULT_RANGE == ADC_SAR_1__VNEG_VDDA_DIFF))
 171:.\Generated_Source\PSoC5/ADC_SAR_1.c ****         tmpReg &= (uint8)~ADC_SAR_1_SAR_EN_BUF_VREF_EN;
 172:.\Generated_Source\PSoC5/ADC_SAR_1.c ****     #else /* In INTREF or INTREF Bypassed this buffer is ON */
 173:.\Generated_Source\PSoC5/ADC_SAR_1.c ****         tmpReg |= ADC_SAR_1_SAR_EN_BUF_VREF_EN;
 174:.\Generated_Source\PSoC5/ADC_SAR_1.c ****     #endif /* ADC_SAR_1_DEFAULT_REFERENCE == ADC_SAR_1__EXT_REF */
 175:.\Generated_Source\PSoC5/ADC_SAR_1.c ****     ADC_SAR_1_SAR_CSR3_REG = tmpReg;
 176:.\Generated_Source\PSoC5/ADC_SAR_1.c **** 
 177:.\Generated_Source\PSoC5/ADC_SAR_1.c ****     /* Set reference for ADC */
 178:.\Generated_Source\PSoC5/ADC_SAR_1.c ****     #if(ADC_SAR_1_DEFAULT_RANGE == ADC_SAR_1__VNEG_VDDA_DIFF)
 179:.\Generated_Source\PSoC5/ADC_SAR_1.c ****         #if(ADC_SAR_1_DEFAULT_REFERENCE == ADC_SAR_1__EXT_REF)
 180:.\Generated_Source\PSoC5/ADC_SAR_1.c ****             ADC_SAR_1_SAR_CSR6_REG = ADC_SAR_1_INT_BYPASS_EXT_VREF; /* S2 */
 181:.\Generated_Source\PSoC5/ADC_SAR_1.c ****         #else /* Internal Vdda reference or obsolete bypass mode */
 182:.\Generated_Source\PSoC5/ADC_SAR_1.c ****             ADC_SAR_1_SAR_CSR6_REG = ADC_SAR_1_VDDA_VREF;           /* S7 */
 183:.\Generated_Source\PSoC5/ADC_SAR_1.c ****         #endif /* ADC_SAR_1_DEFAULT_REFERENCE == ADC_SAR_1__EXT_REF */
 184:.\Generated_Source\PSoC5/ADC_SAR_1.c ****     #else  /* Reference goes through internal buffer */
 185:.\Generated_Source\PSoC5/ADC_SAR_1.c ****         #if(ADC_SAR_1_DEFAULT_REFERENCE == ADC_SAR_1__INT_REF_NOT_BYPASSED)
 186:.\Generated_Source\PSoC5/ADC_SAR_1.c ****             ADC_SAR_1_SAR_CSR6_REG = ADC_SAR_1_INT_VREF;            /* S3 + S4 */
 187:.\Generated_Source\PSoC5/ADC_SAR_1.c ****         #else /* INTREF Bypassed of External */
 188:.\Generated_Source\PSoC5/ADC_SAR_1.c ****             ADC_SAR_1_SAR_CSR6_REG = ADC_SAR_1_INT_BYPASS_EXT_VREF; /* S2 */
 189:.\Generated_Source\PSoC5/ADC_SAR_1.c ****         #endif /* ADC_SAR_1_DEFAULT_REFERENCE == ADC_SAR_1__INT_REF_NOT_BYPASSED */
 190:.\Generated_Source\PSoC5/ADC_SAR_1.c ****     #endif /* VNEG_VDDA_DIFF */
 191:.\Generated_Source\PSoC5/ADC_SAR_1.c **** 
 192:.\Generated_Source\PSoC5/ADC_SAR_1.c ****     /* Low non-overlap delay for sampling clock signals (for 1MSPS) */
 193:.\Generated_Source\PSoC5/ADC_SAR_1.c ****     #if(ADC_SAR_1_HIGH_POWER_PULSE == 0u) /* MinPulseWidth <= 50 ns */
ARM GAS  C:\Users\SUZUKI~1\AppData\Local\Temp\cccyIThI.s 			page 5


 194:.\Generated_Source\PSoC5/ADC_SAR_1.c ****         ADC_SAR_1_SAR_CSR5_REG &= (uint8)~ADC_SAR_1_SAR_DLY_INC;
 195:.\Generated_Source\PSoC5/ADC_SAR_1.c ****     #else /* Set High non-overlap delay for sampling clock signals (for <500KSPS)*/
 196:.\Generated_Source\PSoC5/ADC_SAR_1.c ****         ADC_SAR_1_SAR_CSR5_REG |= ADC_SAR_1_SAR_DLY_INC;
 197:.\Generated_Source\PSoC5/ADC_SAR_1.c ****     #endif /* ADC_SAR_1_CLOCK_FREQUENCY > (ADC_SAR_1_MAX_FREQUENCY / 2) */
 198:.\Generated_Source\PSoC5/ADC_SAR_1.c **** 
 199:.\Generated_Source\PSoC5/ADC_SAR_1.c ****      /* Delay control for comparator latch enable, low delay, (Default for 1MSPS) */
 200:.\Generated_Source\PSoC5/ADC_SAR_1.c ****     #if(ADC_SAR_1_HIGH_POWER_PULSE == 0u) /* MinPulseWidth <= 50 ns */
 201:.\Generated_Source\PSoC5/ADC_SAR_1.c ****         ADC_SAR_1_SAR_CSR5_REG |= ADC_SAR_1_SAR_DCEN;
 202:.\Generated_Source\PSoC5/ADC_SAR_1.c ****     #else /* Delay control for comparator latch enable, high delay (for <500ksps)*/
 203:.\Generated_Source\PSoC5/ADC_SAR_1.c ****         ADC_SAR_1_SAR_CSR5_REG &= (uint8)~ADC_SAR_1_SAR_DCEN;
 204:.\Generated_Source\PSoC5/ADC_SAR_1.c ****     #endif /* ADC_SAR_1_CLOCK_FREQUENCY > (ADC_SAR_1_MAX_FREQUENCY / 2) */
 205:.\Generated_Source\PSoC5/ADC_SAR_1.c **** 
 206:.\Generated_Source\PSoC5/ADC_SAR_1.c ****     /* Set default power and other configurations for control register 0 in multiple lines */
 207:.\Generated_Source\PSoC5/ADC_SAR_1.c ****     ADC_SAR_1_SAR_CSR0_REG = (uint8)((uint8)ADC_SAR_1_DEFAULT_POWER << ADC_SAR_1_SAR_POWER_SHIFT)
 208:.\Generated_Source\PSoC5/ADC_SAR_1.c ****     /* SAR_HIZ_CLEAR:   Should not be used for LP */
 209:.\Generated_Source\PSoC5/ADC_SAR_1.c ****     #if ((CY_PSOC5LP) || (ADC_SAR_1_DEFAULT_REFERENCE != ADC_SAR_1__EXT_REF))
 210:.\Generated_Source\PSoC5/ADC_SAR_1.c ****         | ADC_SAR_1_SAR_HIZ_CLEAR
 211:.\Generated_Source\PSoC5/ADC_SAR_1.c ****     #endif /* SAR_HIZ_CLEAR */
 212:.\Generated_Source\PSoC5/ADC_SAR_1.c ****     /*Set Convertion mode */
 213:.\Generated_Source\PSoC5/ADC_SAR_1.c ****     #if(ADC_SAR_1_DEFAULT_CONV_MODE != ADC_SAR_1__FREE_RUNNING)      /* If triggered mode */
 214:.\Generated_Source\PSoC5/ADC_SAR_1.c ****         | ADC_SAR_1_SAR_MX_SOF_UDB           /* source: UDB */
 215:.\Generated_Source\PSoC5/ADC_SAR_1.c ****         | ADC_SAR_1_SAR_SOF_MODE_EDGE        /* Set edge-sensitive sof source */
 216:.\Generated_Source\PSoC5/ADC_SAR_1.c ****     #endif /* ADC_SAR_1_DEFAULT_CONV_MODE */
 217:.\Generated_Source\PSoC5/ADC_SAR_1.c ****     ; /* end of multiple line initialization */
 218:.\Generated_Source\PSoC5/ADC_SAR_1.c **** 
 219:.\Generated_Source\PSoC5/ADC_SAR_1.c ****     /* Enable clock for SAR ADC*/
 220:.\Generated_Source\PSoC5/ADC_SAR_1.c ****     ADC_SAR_1_SAR_CLK_REG |= ADC_SAR_1_SAR_MX_CLK_EN;
 221:.\Generated_Source\PSoC5/ADC_SAR_1.c **** 
 222:.\Generated_Source\PSoC5/ADC_SAR_1.c ****     #if(CY_PSOC5A)
 223:.\Generated_Source\PSoC5/ADC_SAR_1.c ****         /* Software Reset */
 224:.\Generated_Source\PSoC5/ADC_SAR_1.c ****         ADC_SAR_1_SAR_CSR0_REG |= ADC_SAR_1_SAR_RESET_SOFT_ACTIVE;
 225:.\Generated_Source\PSoC5/ADC_SAR_1.c ****         CyDelayUs(2u); /* 2us delay is required for the lowest 1Mhz clock connected to SAR */
 226:.\Generated_Source\PSoC5/ADC_SAR_1.c ****         ADC_SAR_1_SAR_CSR0_REG &= (uint8)~ADC_SAR_1_SAR_RESET_SOFT_ACTIVE;
 227:.\Generated_Source\PSoC5/ADC_SAR_1.c ****     #else
 228:.\Generated_Source\PSoC5/ADC_SAR_1.c ****         CyDelayUs(10u); /* The block is ready to use 10 us after the enable signal is set high. */
 229:.\Generated_Source\PSoC5/ADC_SAR_1.c ****     #endif /* End CY_PSOC5A */
 230:.\Generated_Source\PSoC5/ADC_SAR_1.c **** 
 231:.\Generated_Source\PSoC5/ADC_SAR_1.c ****     #if(ADC_SAR_1_IRQ_REMOVE == 0u)
 232:.\Generated_Source\PSoC5/ADC_SAR_1.c ****         /* Clear a pending interrupt */
 233:.\Generated_Source\PSoC5/ADC_SAR_1.c ****         CyIntClearPending(ADC_SAR_1_INTC_NUMBER);
 234:.\Generated_Source\PSoC5/ADC_SAR_1.c ****     #endif   /* End ADC_SAR_1_IRQ_REMOVE */        
 235:.\Generated_Source\PSoC5/ADC_SAR_1.c **** 
 236:.\Generated_Source\PSoC5/ADC_SAR_1.c ****     CyExitCriticalSection(enableInterrupts);
 237:.\Generated_Source\PSoC5/ADC_SAR_1.c **** }
 238:.\Generated_Source\PSoC5/ADC_SAR_1.c **** 
 239:.\Generated_Source\PSoC5/ADC_SAR_1.c **** 
 240:.\Generated_Source\PSoC5/ADC_SAR_1.c **** /*******************************************************************************
 241:.\Generated_Source\PSoC5/ADC_SAR_1.c **** * Function Name: ADC_SAR_1_Stop
 242:.\Generated_Source\PSoC5/ADC_SAR_1.c **** ********************************************************************************
 243:.\Generated_Source\PSoC5/ADC_SAR_1.c **** *
 244:.\Generated_Source\PSoC5/ADC_SAR_1.c **** * Summary:
 245:.\Generated_Source\PSoC5/ADC_SAR_1.c **** *  Stops convertion and reduce the power to the minimum.
 246:.\Generated_Source\PSoC5/ADC_SAR_1.c **** *
 247:.\Generated_Source\PSoC5/ADC_SAR_1.c **** * Parameters:
 248:.\Generated_Source\PSoC5/ADC_SAR_1.c **** *  None.
 249:.\Generated_Source\PSoC5/ADC_SAR_1.c **** *
 250:.\Generated_Source\PSoC5/ADC_SAR_1.c **** * Return:
ARM GAS  C:\Users\SUZUKI~1\AppData\Local\Temp\cccyIThI.s 			page 6


 251:.\Generated_Source\PSoC5/ADC_SAR_1.c **** *  None.
 252:.\Generated_Source\PSoC5/ADC_SAR_1.c **** *
 253:.\Generated_Source\PSoC5/ADC_SAR_1.c **** *******************************************************************************/
 254:.\Generated_Source\PSoC5/ADC_SAR_1.c **** void ADC_SAR_1_Stop(void)
 255:.\Generated_Source\PSoC5/ADC_SAR_1.c **** {
 256:.\Generated_Source\PSoC5/ADC_SAR_1.c ****     uint8 enableInterrupts;
 257:.\Generated_Source\PSoC5/ADC_SAR_1.c ****     enableInterrupts = CyEnterCriticalSection();
 258:.\Generated_Source\PSoC5/ADC_SAR_1.c **** 
 259:.\Generated_Source\PSoC5/ADC_SAR_1.c ****     /* Stop all conversions */
 260:.\Generated_Source\PSoC5/ADC_SAR_1.c ****     ADC_SAR_1_SAR_CSR0_REG &= (uint8)~ADC_SAR_1_SAR_SOF_START_CONV;
 261:.\Generated_Source\PSoC5/ADC_SAR_1.c **** 
 262:.\Generated_Source\PSoC5/ADC_SAR_1.c ****     #if(CY_PSOC5A)
 263:.\Generated_Source\PSoC5/ADC_SAR_1.c ****         /* Leave the SAR block powered and reduce the power to the minimum */
 264:.\Generated_Source\PSoC5/ADC_SAR_1.c ****         ADC_SAR_1_SAR_CSR0_REG |= ADC_SAR_1_ICONT_LV_3;
 265:.\Generated_Source\PSoC5/ADC_SAR_1.c ****          /* Disconnect Bypass Cap */
 266:.\Generated_Source\PSoC5/ADC_SAR_1.c ****         ADC_SAR_1_SAR_CSR6_REG &= (uint8)~ADC_SAR_1_INT_BYPASS_EXT_VREF;
 267:.\Generated_Source\PSoC5/ADC_SAR_1.c ****         /* Disable reference buffer and reduce the reference power to the minimum */
 268:.\Generated_Source\PSoC5/ADC_SAR_1.c ****         ADC_SAR_1_SAR_CSR3_REG &= (uint8)~ADC_SAR_1_SAR_EN_BUF_VREF_EN; /*VCM buffer is absent in P
 269:.\Generated_Source\PSoC5/ADC_SAR_1.c ****         ADC_SAR_1_SAR_CSR3_REG |= ADC_SAR_1_SAR_PWR_CTRL_VREF_DIV_BY4;
 270:.\Generated_Source\PSoC5/ADC_SAR_1.c ****     #else
 271:.\Generated_Source\PSoC5/ADC_SAR_1.c ****         /* Disable the SAR ADC block in Active Power Mode */
 272:.\Generated_Source\PSoC5/ADC_SAR_1.c ****         ADC_SAR_1_PWRMGR_SAR_REG &= (uint8)~ADC_SAR_1_ACT_PWR_SAR_EN;
 273:.\Generated_Source\PSoC5/ADC_SAR_1.c ****         /* Disable the SAR ADC in Standby Power Mode */
 274:.\Generated_Source\PSoC5/ADC_SAR_1.c ****         ADC_SAR_1_STBY_PWRMGR_SAR_REG &= (uint8)~ADC_SAR_1_STBY_PWR_SAR_EN;
 275:.\Generated_Source\PSoC5/ADC_SAR_1.c ****     #endif /* End CY_PSOC5A */
 276:.\Generated_Source\PSoC5/ADC_SAR_1.c **** 
 277:.\Generated_Source\PSoC5/ADC_SAR_1.c ****     /* This is only valid if there is an internal clock */
 278:.\Generated_Source\PSoC5/ADC_SAR_1.c ****     #if(ADC_SAR_1_DEFAULT_INTERNAL_CLK)
 279:.\Generated_Source\PSoC5/ADC_SAR_1.c ****         ADC_SAR_1_PWRMGR_CLK_REG &= (uint8)~ADC_SAR_1_ACT_PWR_CLK_EN;
 280:.\Generated_Source\PSoC5/ADC_SAR_1.c ****         ADC_SAR_1_STBY_PWRMGR_CLK_REG &= (uint8)~ADC_SAR_1_STBY_PWR_CLK_EN;
 281:.\Generated_Source\PSoC5/ADC_SAR_1.c ****     #endif /* End ADC_SAR_1_DEFAULT_INTERNAL_CLK */
 282:.\Generated_Source\PSoC5/ADC_SAR_1.c **** 
 283:.\Generated_Source\PSoC5/ADC_SAR_1.c ****     CyExitCriticalSection(enableInterrupts);
 284:.\Generated_Source\PSoC5/ADC_SAR_1.c **** 
 285:.\Generated_Source\PSoC5/ADC_SAR_1.c **** }
 286:.\Generated_Source\PSoC5/ADC_SAR_1.c **** 
 287:.\Generated_Source\PSoC5/ADC_SAR_1.c **** 
 288:.\Generated_Source\PSoC5/ADC_SAR_1.c **** /*******************************************************************************
 289:.\Generated_Source\PSoC5/ADC_SAR_1.c **** * Function Name: ADC_SAR_1_SetPower
 290:.\Generated_Source\PSoC5/ADC_SAR_1.c **** ********************************************************************************
 291:.\Generated_Source\PSoC5/ADC_SAR_1.c **** *
 292:.\Generated_Source\PSoC5/ADC_SAR_1.c **** * Summary:
 293:.\Generated_Source\PSoC5/ADC_SAR_1.c **** *  Sets the Power mode.
 294:.\Generated_Source\PSoC5/ADC_SAR_1.c **** *
 295:.\Generated_Source\PSoC5/ADC_SAR_1.c **** * Parameters:
 296:.\Generated_Source\PSoC5/ADC_SAR_1.c **** *  power:  Power setting for ADC
 297:.\Generated_Source\PSoC5/ADC_SAR_1.c **** *  0 ->    Normal
 298:.\Generated_Source\PSoC5/ADC_SAR_1.c **** *  1 ->    Half power
 299:.\Generated_Source\PSoC5/ADC_SAR_1.c **** *  2 ->    1/3rd power
 300:.\Generated_Source\PSoC5/ADC_SAR_1.c **** *  3 ->    Quarter power.
 301:.\Generated_Source\PSoC5/ADC_SAR_1.c **** *
 302:.\Generated_Source\PSoC5/ADC_SAR_1.c **** * Return:
 303:.\Generated_Source\PSoC5/ADC_SAR_1.c **** *  None.
 304:.\Generated_Source\PSoC5/ADC_SAR_1.c **** *
 305:.\Generated_Source\PSoC5/ADC_SAR_1.c **** *******************************************************************************/
 306:.\Generated_Source\PSoC5/ADC_SAR_1.c **** void ADC_SAR_1_SetPower(uint8 power)
 307:.\Generated_Source\PSoC5/ADC_SAR_1.c **** {
ARM GAS  C:\Users\SUZUKI~1\AppData\Local\Temp\cccyIThI.s 			page 7


  32              		.loc 1 307 0
  33              		.cfi_startproc
  34              		@ args = 0, pretend = 0, frame = 0
  35              		@ frame_needed = 0, uses_anonymous_args = 0
  36              		@ link register save eliminated.
  37              	.LVL0:
 308:.\Generated_Source\PSoC5/ADC_SAR_1.c ****     uint8 tmpReg;
 309:.\Generated_Source\PSoC5/ADC_SAR_1.c **** 
 310:.\Generated_Source\PSoC5/ADC_SAR_1.c ****     /* mask off invalid power settings */
 311:.\Generated_Source\PSoC5/ADC_SAR_1.c ****     power &= ADC_SAR_1_SAR_API_POWER_MASK;
 312:.\Generated_Source\PSoC5/ADC_SAR_1.c **** 
 313:.\Generated_Source\PSoC5/ADC_SAR_1.c ****     /* Set Power parameter  */
 314:.\Generated_Source\PSoC5/ADC_SAR_1.c ****     tmpReg = ADC_SAR_1_SAR_CSR0_REG & (uint8)~ADC_SAR_1_SAR_POWER_MASK;
  38              		.loc 1 314 0
  39 0000 044B     		ldr	r3, .L3
 315:.\Generated_Source\PSoC5/ADC_SAR_1.c ****     tmpReg |= (uint8)(power << ADC_SAR_1_SAR_POWER_SHIFT);
  40              		.loc 1 315 0
  41 0002 00F00300 		and	r0, r0, #3
  42              	.LVL1:
  43              		.loc 1 314 0
  44 0006 1A78     		ldrb	r2, [r3, #0]	@ zero_extendqisi2
  45 0008 02F03F02 		and	r2, r2, #63
  46              	.LVL2:
  47              		.loc 1 315 0
  48 000c 42EA8012 		orr	r2, r2, r0, lsl #6
  49              	.LVL3:
 316:.\Generated_Source\PSoC5/ADC_SAR_1.c ****     ADC_SAR_1_SAR_CSR0_REG = tmpReg;
  50              		.loc 1 316 0
  51 0010 1A70     		strb	r2, [r3, #0]
 317:.\Generated_Source\PSoC5/ADC_SAR_1.c **** }
  52              		.loc 1 317 0
  53 0012 7047     		bx	lr
  54              	.L4:
  55              		.align	2
  56              	.L3:
  57 0014 00590040 		.word	1073764608
  58              		.cfi_endproc
  59              	.LFE4:
  60              		.size	ADC_SAR_1_SetPower, .-ADC_SAR_1_SetPower
  61              		.section	.text.ADC_SAR_1_StartConvert,"ax",%progbits
  62              		.align	1
  63              		.global	ADC_SAR_1_StartConvert
  64              		.thumb
  65              		.thumb_func
  66              		.type	ADC_SAR_1_StartConvert, %function
  67              	ADC_SAR_1_StartConvert:
  68              	.LFB6:
 318:.\Generated_Source\PSoC5/ADC_SAR_1.c **** 
 319:.\Generated_Source\PSoC5/ADC_SAR_1.c **** 
 320:.\Generated_Source\PSoC5/ADC_SAR_1.c **** /*******************************************************************************
 321:.\Generated_Source\PSoC5/ADC_SAR_1.c **** * Function Name: ADC_SAR_1_SetResolution
 322:.\Generated_Source\PSoC5/ADC_SAR_1.c **** ********************************************************************************
 323:.\Generated_Source\PSoC5/ADC_SAR_1.c **** *
 324:.\Generated_Source\PSoC5/ADC_SAR_1.c **** * Summary:
 325:.\Generated_Source\PSoC5/ADC_SAR_1.c **** *  Sets the Relution of the SAR.
 326:.\Generated_Source\PSoC5/ADC_SAR_1.c **** *  This function does not affect the actual conversion with PSoC5 ES1 silicon.
 327:.\Generated_Source\PSoC5/ADC_SAR_1.c **** *
ARM GAS  C:\Users\SUZUKI~1\AppData\Local\Temp\cccyIThI.s 			page 8


 328:.\Generated_Source\PSoC5/ADC_SAR_1.c **** * Parameters:
 329:.\Generated_Source\PSoC5/ADC_SAR_1.c **** *  resolution:
 330:.\Generated_Source\PSoC5/ADC_SAR_1.c **** *  12 ->    RES12
 331:.\Generated_Source\PSoC5/ADC_SAR_1.c **** *  10 ->    RES10
 332:.\Generated_Source\PSoC5/ADC_SAR_1.c **** *  8  ->    RES8
 333:.\Generated_Source\PSoC5/ADC_SAR_1.c **** *
 334:.\Generated_Source\PSoC5/ADC_SAR_1.c **** * Return:
 335:.\Generated_Source\PSoC5/ADC_SAR_1.c **** *  None.
 336:.\Generated_Source\PSoC5/ADC_SAR_1.c **** *
 337:.\Generated_Source\PSoC5/ADC_SAR_1.c **** * Side Effects:
 338:.\Generated_Source\PSoC5/ADC_SAR_1.c **** *  The ADC resolution cannot be changed during a conversion cycle. The
 339:.\Generated_Source\PSoC5/ADC_SAR_1.c **** *  recommended best practice is to stop conversions with
 340:.\Generated_Source\PSoC5/ADC_SAR_1.c **** *  ADC_StopConvert(), change the resolution, then restart the
 341:.\Generated_Source\PSoC5/ADC_SAR_1.c **** *  conversions with ADC_StartConvert().
 342:.\Generated_Source\PSoC5/ADC_SAR_1.c **** *  If you decide not to stop conversions before calling this API, you
 343:.\Generated_Source\PSoC5/ADC_SAR_1.c **** *  should use ADC_IsEndConversion() to wait until conversion is complete
 344:.\Generated_Source\PSoC5/ADC_SAR_1.c **** *  before changing the resolution.
 345:.\Generated_Source\PSoC5/ADC_SAR_1.c **** *  If you call ADC_SetResolution() during a conversion, the resolution will
 346:.\Generated_Source\PSoC5/ADC_SAR_1.c **** *  not be changed until the current conversion is complete. Data will not be
 347:.\Generated_Source\PSoC5/ADC_SAR_1.c **** *  available in the new resolution for another 6 + "New Resolution(in bits)"
 348:.\Generated_Source\PSoC5/ADC_SAR_1.c **** *  clock cycles.
 349:.\Generated_Source\PSoC5/ADC_SAR_1.c **** *  You may need add a delay of this number of clock cycles after
 350:.\Generated_Source\PSoC5/ADC_SAR_1.c **** *  ADC_SetResolution() is called before data is valid again.
 351:.\Generated_Source\PSoC5/ADC_SAR_1.c **** *  Affects ADC_CountsTo_Volts(), ADC_CountsTo_mVolts(), and
 352:.\Generated_Source\PSoC5/ADC_SAR_1.c **** *  ADC_CountsTo_uVolts() by calculating the correct conversion between ADC
 353:.\Generated_Source\PSoC5/ADC_SAR_1.c **** *  counts and the applied input voltage. Calculation depends on resolution,
 354:.\Generated_Source\PSoC5/ADC_SAR_1.c **** *  input range, and voltage reference.
 355:.\Generated_Source\PSoC5/ADC_SAR_1.c **** *
 356:.\Generated_Source\PSoC5/ADC_SAR_1.c **** *******************************************************************************/
 357:.\Generated_Source\PSoC5/ADC_SAR_1.c **** void ADC_SAR_1_SetResolution(uint8 resolution)
 358:.\Generated_Source\PSoC5/ADC_SAR_1.c **** {
 359:.\Generated_Source\PSoC5/ADC_SAR_1.c ****     uint8 tmpReg;
 360:.\Generated_Source\PSoC5/ADC_SAR_1.c **** 
 361:.\Generated_Source\PSoC5/ADC_SAR_1.c ****     /* remember resolution for the GetResult APIs */
 362:.\Generated_Source\PSoC5/ADC_SAR_1.c ****     #if(CY_PSOC5A)
 363:.\Generated_Source\PSoC5/ADC_SAR_1.c ****         ADC_SAR_1_resolution = resolution;
 364:.\Generated_Source\PSoC5/ADC_SAR_1.c ****     #endif /* End CY_PSOC5A */
 365:.\Generated_Source\PSoC5/ADC_SAR_1.c **** 
 366:.\Generated_Source\PSoC5/ADC_SAR_1.c ****     /* Set SAR ADC resolution and sample width: 18 conversion cycles at 12bits + 1 gap */
 367:.\Generated_Source\PSoC5/ADC_SAR_1.c ****     switch (resolution)
 368:.\Generated_Source\PSoC5/ADC_SAR_1.c ****     {
 369:.\Generated_Source\PSoC5/ADC_SAR_1.c ****         case (uint8)ADC_SAR_1__BITS_12:
 370:.\Generated_Source\PSoC5/ADC_SAR_1.c ****             tmpReg = ADC_SAR_1_SAR_RESOLUTION_12BIT | ADC_SAR_1_SAR_SAMPLE_WIDTH;
 371:.\Generated_Source\PSoC5/ADC_SAR_1.c ****             break;
 372:.\Generated_Source\PSoC5/ADC_SAR_1.c ****         case (uint8)ADC_SAR_1__BITS_10:
 373:.\Generated_Source\PSoC5/ADC_SAR_1.c ****             /* Use 12bits for PSoC5 production silicon and shift the
 374:.\Generated_Source\PSoC5/ADC_SAR_1.c ****             *  results for lower resolution in GetResult16() API
 375:.\Generated_Source\PSoC5/ADC_SAR_1.c ****             */
 376:.\Generated_Source\PSoC5/ADC_SAR_1.c ****             #if(CY_PSOC5A)
 377:.\Generated_Source\PSoC5/ADC_SAR_1.c ****                 tmpReg = ADC_SAR_1_SAR_RESOLUTION_12BIT | ADC_SAR_1_SAR_SAMPLE_WIDTH;
 378:.\Generated_Source\PSoC5/ADC_SAR_1.c ****             #else
 379:.\Generated_Source\PSoC5/ADC_SAR_1.c ****                 tmpReg = ADC_SAR_1_SAR_RESOLUTION_10BIT | ADC_SAR_1_SAR_SAMPLE_WIDTH;
 380:.\Generated_Source\PSoC5/ADC_SAR_1.c ****             #endif /* End CY_PSOC5A */
 381:.\Generated_Source\PSoC5/ADC_SAR_1.c ****             break;
 382:.\Generated_Source\PSoC5/ADC_SAR_1.c ****         case (uint8)ADC_SAR_1__BITS_8:
 383:.\Generated_Source\PSoC5/ADC_SAR_1.c ****             #if(CY_PSOC5A)
 384:.\Generated_Source\PSoC5/ADC_SAR_1.c ****                 tmpReg = ADC_SAR_1_SAR_RESOLUTION_12BIT | ADC_SAR_1_SAR_SAMPLE_WIDTH;
ARM GAS  C:\Users\SUZUKI~1\AppData\Local\Temp\cccyIThI.s 			page 9


 385:.\Generated_Source\PSoC5/ADC_SAR_1.c ****             #else
 386:.\Generated_Source\PSoC5/ADC_SAR_1.c ****                 tmpReg = ADC_SAR_1_SAR_RESOLUTION_8BIT | ADC_SAR_1_SAR_SAMPLE_WIDTH;
 387:.\Generated_Source\PSoC5/ADC_SAR_1.c ****             #endif /* End CY_PSOC5A */
 388:.\Generated_Source\PSoC5/ADC_SAR_1.c ****             break;
 389:.\Generated_Source\PSoC5/ADC_SAR_1.c ****         default:
 390:.\Generated_Source\PSoC5/ADC_SAR_1.c ****             tmpReg = ADC_SAR_1_SAR_RESOLUTION_12BIT | ADC_SAR_1_SAR_SAMPLE_WIDTH;
 391:.\Generated_Source\PSoC5/ADC_SAR_1.c ****             /* Halt CPU in debug mode if resolution is out of valid range */
 392:.\Generated_Source\PSoC5/ADC_SAR_1.c ****             CYASSERT(0u != 0u);
 393:.\Generated_Source\PSoC5/ADC_SAR_1.c ****             break;
 394:.\Generated_Source\PSoC5/ADC_SAR_1.c ****     }
 395:.\Generated_Source\PSoC5/ADC_SAR_1.c ****     ADC_SAR_1_SAR_CSR2_REG = tmpReg;
 396:.\Generated_Source\PSoC5/ADC_SAR_1.c **** 
 397:.\Generated_Source\PSoC5/ADC_SAR_1.c ****      /* Calculate gain for convert counts to volts */
 398:.\Generated_Source\PSoC5/ADC_SAR_1.c ****     ADC_SAR_1_CalcGain(resolution);
 399:.\Generated_Source\PSoC5/ADC_SAR_1.c **** }
 400:.\Generated_Source\PSoC5/ADC_SAR_1.c **** 
 401:.\Generated_Source\PSoC5/ADC_SAR_1.c **** 
 402:.\Generated_Source\PSoC5/ADC_SAR_1.c **** #if(ADC_SAR_1_DEFAULT_CONV_MODE != ADC_SAR_1__HARDWARE_TRIGGER)
 403:.\Generated_Source\PSoC5/ADC_SAR_1.c **** 
 404:.\Generated_Source\PSoC5/ADC_SAR_1.c **** 
 405:.\Generated_Source\PSoC5/ADC_SAR_1.c ****     /*******************************************************************************
 406:.\Generated_Source\PSoC5/ADC_SAR_1.c ****     * Function Name: ADC_SAR_1_StartConvert
 407:.\Generated_Source\PSoC5/ADC_SAR_1.c ****     ********************************************************************************
 408:.\Generated_Source\PSoC5/ADC_SAR_1.c ****     *
 409:.\Generated_Source\PSoC5/ADC_SAR_1.c ****     * Summary:
 410:.\Generated_Source\PSoC5/ADC_SAR_1.c ****     *  Starts ADC conversion using the given mode. The API is available in the 
 411:.\Generated_Source\PSoC5/ADC_SAR_1.c ****     *  free running and the software trigger mode.
 412:.\Generated_Source\PSoC5/ADC_SAR_1.c ****     *
 413:.\Generated_Source\PSoC5/ADC_SAR_1.c ****     * Parameters:
 414:.\Generated_Source\PSoC5/ADC_SAR_1.c ****     *  None.
 415:.\Generated_Source\PSoC5/ADC_SAR_1.c ****     *
 416:.\Generated_Source\PSoC5/ADC_SAR_1.c ****     * Return:
 417:.\Generated_Source\PSoC5/ADC_SAR_1.c ****     *  None.
 418:.\Generated_Source\PSoC5/ADC_SAR_1.c ****     *
 419:.\Generated_Source\PSoC5/ADC_SAR_1.c ****     * Theory:
 420:.\Generated_Source\PSoC5/ADC_SAR_1.c ****     *  Forces the ADC to initiate a conversion. In Free Running mode, the ADC will
 421:.\Generated_Source\PSoC5/ADC_SAR_1.c ****     *  run continuously. In a software trigger mode the function also acts as a 
 422:.\Generated_Source\PSoC5/ADC_SAR_1.c ****     *  software version of the SOC. Here every conversion has to be triggered by 
 423:.\Generated_Source\PSoC5/ADC_SAR_1.c ****     *  the routine. This writes into the SOC bit in SAR_CTRL reg.
 424:.\Generated_Source\PSoC5/ADC_SAR_1.c ****     *
 425:.\Generated_Source\PSoC5/ADC_SAR_1.c ****     * Side Effects:
 426:.\Generated_Source\PSoC5/ADC_SAR_1.c ****     *  In a software trigger mode the function switches source for SOF from the 
 427:.\Generated_Source\PSoC5/ADC_SAR_1.c ****     *  external pin to the internal SOF generation. Application should not call 
 428:.\Generated_Source\PSoC5/ADC_SAR_1.c ****     *  StartConvert if external source used for SOF.
 429:.\Generated_Source\PSoC5/ADC_SAR_1.c ****     *******************************************************************************/
 430:.\Generated_Source\PSoC5/ADC_SAR_1.c ****     void ADC_SAR_1_StartConvert(void)
 431:.\Generated_Source\PSoC5/ADC_SAR_1.c ****     {
  69              		.loc 1 431 0
  70              		.cfi_startproc
  71              		@ args = 0, pretend = 0, frame = 0
  72              		@ frame_needed = 0, uses_anonymous_args = 0
  73              		@ link register save eliminated.
 432:.\Generated_Source\PSoC5/ADC_SAR_1.c ****         #if(ADC_SAR_1_DEFAULT_CONV_MODE != ADC_SAR_1__FREE_RUNNING)  /* If software triggered mode 
 433:.\Generated_Source\PSoC5/ADC_SAR_1.c ****             ADC_SAR_1_SAR_CSR0_REG &= (uint8)~ADC_SAR_1_SAR_MX_SOF_UDB;   /* source: SOF bit */
  74              		.loc 1 433 0
  75 0000 044B     		ldr	r3, .L7
  76 0002 1A78     		ldrb	r2, [r3, #0]	@ zero_extendqisi2
ARM GAS  C:\Users\SUZUKI~1\AppData\Local\Temp\cccyIThI.s 			page 10


  77 0004 02F0FB02 		and	r2, r2, #251
  78 0008 1A70     		strb	r2, [r3, #0]
 434:.\Generated_Source\PSoC5/ADC_SAR_1.c ****         #endif /* End ADC_SAR_1_DEFAULT_CONV_MODE */
 435:.\Generated_Source\PSoC5/ADC_SAR_1.c **** 
 436:.\Generated_Source\PSoC5/ADC_SAR_1.c ****         /* Start the conversion */
 437:.\Generated_Source\PSoC5/ADC_SAR_1.c ****         ADC_SAR_1_SAR_CSR0_REG |= ADC_SAR_1_SAR_SOF_START_CONV;
  79              		.loc 1 437 0
  80 000a 1A78     		ldrb	r2, [r3, #0]	@ zero_extendqisi2
  81 000c 42F00102 		orr	r2, r2, #1
  82 0010 1A70     		strb	r2, [r3, #0]
 438:.\Generated_Source\PSoC5/ADC_SAR_1.c ****     }
  83              		.loc 1 438 0
  84 0012 7047     		bx	lr
  85              	.L8:
  86              		.align	2
  87              	.L7:
  88 0014 00590040 		.word	1073764608
  89              		.cfi_endproc
  90              	.LFE6:
  91              		.size	ADC_SAR_1_StartConvert, .-ADC_SAR_1_StartConvert
  92              		.section	.text.ADC_SAR_1_StopConvert,"ax",%progbits
  93              		.align	1
  94              		.global	ADC_SAR_1_StopConvert
  95              		.thumb
  96              		.thumb_func
  97              		.type	ADC_SAR_1_StopConvert, %function
  98              	ADC_SAR_1_StopConvert:
  99              	.LFB7:
 439:.\Generated_Source\PSoC5/ADC_SAR_1.c **** 
 440:.\Generated_Source\PSoC5/ADC_SAR_1.c **** 
 441:.\Generated_Source\PSoC5/ADC_SAR_1.c ****     /*******************************************************************************
 442:.\Generated_Source\PSoC5/ADC_SAR_1.c ****     * Function Name: ADC_SAR_1_StopConvert
 443:.\Generated_Source\PSoC5/ADC_SAR_1.c ****     ********************************************************************************
 444:.\Generated_Source\PSoC5/ADC_SAR_1.c ****     *
 445:.\Generated_Source\PSoC5/ADC_SAR_1.c ****     * Summary:
 446:.\Generated_Source\PSoC5/ADC_SAR_1.c ****     *  Stops ADC conversion using the given mode. The API is available in the 
 447:.\Generated_Source\PSoC5/ADC_SAR_1.c ****     *  free running and the software trigger mode.
 448:.\Generated_Source\PSoC5/ADC_SAR_1.c ****     *
 449:.\Generated_Source\PSoC5/ADC_SAR_1.c ****     * Parameters:
 450:.\Generated_Source\PSoC5/ADC_SAR_1.c ****     *  None.
 451:.\Generated_Source\PSoC5/ADC_SAR_1.c ****     *
 452:.\Generated_Source\PSoC5/ADC_SAR_1.c ****     * Return:
 453:.\Generated_Source\PSoC5/ADC_SAR_1.c ****     *  None.
 454:.\Generated_Source\PSoC5/ADC_SAR_1.c ****     *
 455:.\Generated_Source\PSoC5/ADC_SAR_1.c ****     * Theory:
 456:.\Generated_Source\PSoC5/ADC_SAR_1.c ****     *  Stops ADC conversion in Free Running mode.
 457:.\Generated_Source\PSoC5/ADC_SAR_1.c ****     *  This writes into the SOC bit in SAR_CTRL reg.
 458:.\Generated_Source\PSoC5/ADC_SAR_1.c ****     *
 459:.\Generated_Source\PSoC5/ADC_SAR_1.c ****     * Side Effects:
 460:.\Generated_Source\PSoC5/ADC_SAR_1.c ****     *  In a software trigger mode the function set a software version of the SOC 
 461:.\Generated_Source\PSoC5/ADC_SAR_1.c ****     *  to low level and switch SOF source to hardware SOF input.
 462:.\Generated_Source\PSoC5/ADC_SAR_1.c ****     *
 463:.\Generated_Source\PSoC5/ADC_SAR_1.c ****     *******************************************************************************/
 464:.\Generated_Source\PSoC5/ADC_SAR_1.c ****     void ADC_SAR_1_StopConvert(void)
 465:.\Generated_Source\PSoC5/ADC_SAR_1.c ****     {
 100              		.loc 1 465 0
 101              		.cfi_startproc
ARM GAS  C:\Users\SUZUKI~1\AppData\Local\Temp\cccyIThI.s 			page 11


 102              		@ args = 0, pretend = 0, frame = 0
 103              		@ frame_needed = 0, uses_anonymous_args = 0
 104              		@ link register save eliminated.
 466:.\Generated_Source\PSoC5/ADC_SAR_1.c ****         /* Stop all conversions */
 467:.\Generated_Source\PSoC5/ADC_SAR_1.c ****         ADC_SAR_1_SAR_CSR0_REG &= (uint8)~ADC_SAR_1_SAR_SOF_START_CONV;
 105              		.loc 1 467 0
 106 0000 044B     		ldr	r3, .L11
 107 0002 1A78     		ldrb	r2, [r3, #0]	@ zero_extendqisi2
 108 0004 02F0FE02 		and	r2, r2, #254
 109 0008 1A70     		strb	r2, [r3, #0]
 468:.\Generated_Source\PSoC5/ADC_SAR_1.c **** 
 469:.\Generated_Source\PSoC5/ADC_SAR_1.c ****         #if(ADC_SAR_1_DEFAULT_CONV_MODE != ADC_SAR_1__FREE_RUNNING)  /* If software triggered mode 
 470:.\Generated_Source\PSoC5/ADC_SAR_1.c ****             /* Return source to UDB for hardware SOF signal */
 471:.\Generated_Source\PSoC5/ADC_SAR_1.c ****             ADC_SAR_1_SAR_CSR0_REG |= ADC_SAR_1_SAR_MX_SOF_UDB;    /* source: UDB */
 110              		.loc 1 471 0
 111 000a 1A78     		ldrb	r2, [r3, #0]	@ zero_extendqisi2
 112 000c 42F00402 		orr	r2, r2, #4
 113 0010 1A70     		strb	r2, [r3, #0]
 472:.\Generated_Source\PSoC5/ADC_SAR_1.c ****         #endif /* End ADC_SAR_1_DEFAULT_CONV_MODE */
 473:.\Generated_Source\PSoC5/ADC_SAR_1.c **** 
 474:.\Generated_Source\PSoC5/ADC_SAR_1.c ****     }
 114              		.loc 1 474 0
 115 0012 7047     		bx	lr
 116              	.L12:
 117              		.align	2
 118              	.L11:
 119 0014 00590040 		.word	1073764608
 120              		.cfi_endproc
 121              	.LFE7:
 122              		.size	ADC_SAR_1_StopConvert, .-ADC_SAR_1_StopConvert
 123              		.section	.text.ADC_SAR_1_GetResult8,"ax",%progbits
 124              		.align	1
 125              		.global	ADC_SAR_1_GetResult8
 126              		.thumb
 127              		.thumb_func
 128              		.type	ADC_SAR_1_GetResult8, %function
 129              	ADC_SAR_1_GetResult8:
 130              	.LFB9:
 475:.\Generated_Source\PSoC5/ADC_SAR_1.c **** 
 476:.\Generated_Source\PSoC5/ADC_SAR_1.c **** #endif /* End ADC_SAR_1_DEFAULT_CONV_MODE != ADC_SAR_1__HARDWARE_TRIGGER */
 477:.\Generated_Source\PSoC5/ADC_SAR_1.c **** 
 478:.\Generated_Source\PSoC5/ADC_SAR_1.c **** 
 479:.\Generated_Source\PSoC5/ADC_SAR_1.c **** /*******************************************************************************
 480:.\Generated_Source\PSoC5/ADC_SAR_1.c **** * Function Name: ADC_SAR_1_IsEndConversion
 481:.\Generated_Source\PSoC5/ADC_SAR_1.c **** ********************************************************************************
 482:.\Generated_Source\PSoC5/ADC_SAR_1.c **** *
 483:.\Generated_Source\PSoC5/ADC_SAR_1.c **** * Summary:
 484:.\Generated_Source\PSoC5/ADC_SAR_1.c **** *  Queries the ADC to see if conversion is complete
 485:.\Generated_Source\PSoC5/ADC_SAR_1.c **** *
 486:.\Generated_Source\PSoC5/ADC_SAR_1.c **** * Parameters:
 487:.\Generated_Source\PSoC5/ADC_SAR_1.c **** *  retMode:  Wait mode,
 488:.\Generated_Source\PSoC5/ADC_SAR_1.c **** *   0 if return with answer imediately.
 489:.\Generated_Source\PSoC5/ADC_SAR_1.c **** *   1 if wait until conversion is complete, then return.
 490:.\Generated_Source\PSoC5/ADC_SAR_1.c **** *
 491:.\Generated_Source\PSoC5/ADC_SAR_1.c **** * Return:
 492:.\Generated_Source\PSoC5/ADC_SAR_1.c **** *  (uint8)  0 =>  Conversion not complete.
 493:.\Generated_Source\PSoC5/ADC_SAR_1.c **** *           1 =>  Conversion complete.
ARM GAS  C:\Users\SUZUKI~1\AppData\Local\Temp\cccyIThI.s 			page 12


 494:.\Generated_Source\PSoC5/ADC_SAR_1.c **** *
 495:.\Generated_Source\PSoC5/ADC_SAR_1.c **** *******************************************************************************/
 496:.\Generated_Source\PSoC5/ADC_SAR_1.c **** uint8 ADC_SAR_1_IsEndConversion(uint8 retMode)
 497:.\Generated_Source\PSoC5/ADC_SAR_1.c **** {
 498:.\Generated_Source\PSoC5/ADC_SAR_1.c ****     uint8 status;
 499:.\Generated_Source\PSoC5/ADC_SAR_1.c **** 
 500:.\Generated_Source\PSoC5/ADC_SAR_1.c ****     do
 501:.\Generated_Source\PSoC5/ADC_SAR_1.c ****     {
 502:.\Generated_Source\PSoC5/ADC_SAR_1.c ****         status = ADC_SAR_1_SAR_CSR1_REG & ADC_SAR_1_SAR_EOF_1;
 503:.\Generated_Source\PSoC5/ADC_SAR_1.c ****     } while ((status != ADC_SAR_1_SAR_EOF_1) && (retMode == ADC_SAR_1_WAIT_FOR_RESULT));
 504:.\Generated_Source\PSoC5/ADC_SAR_1.c ****     /* If convertion complete, wait until EOF bit released */
 505:.\Generated_Source\PSoC5/ADC_SAR_1.c ****     if(status == ADC_SAR_1_SAR_EOF_1)
 506:.\Generated_Source\PSoC5/ADC_SAR_1.c ****     {
 507:.\Generated_Source\PSoC5/ADC_SAR_1.c ****         /* wait one ADC clock to let the EOC status bit release */
 508:.\Generated_Source\PSoC5/ADC_SAR_1.c ****         CyDelayUs(1u);
 509:.\Generated_Source\PSoC5/ADC_SAR_1.c ****         /* Do the unconditional read operation of the CSR1 register to make sure the EOC bit has be
 510:.\Generated_Source\PSoC5/ADC_SAR_1.c ****         CY_GET_REG8(ADC_SAR_1_SAR_CSR1_PTR);
 511:.\Generated_Source\PSoC5/ADC_SAR_1.c ****     }
 512:.\Generated_Source\PSoC5/ADC_SAR_1.c **** 
 513:.\Generated_Source\PSoC5/ADC_SAR_1.c ****     return(status);
 514:.\Generated_Source\PSoC5/ADC_SAR_1.c **** }
 515:.\Generated_Source\PSoC5/ADC_SAR_1.c **** 
 516:.\Generated_Source\PSoC5/ADC_SAR_1.c **** 
 517:.\Generated_Source\PSoC5/ADC_SAR_1.c **** /*******************************************************************************
 518:.\Generated_Source\PSoC5/ADC_SAR_1.c **** * Function Name: ADC_SAR_1_GetResult8
 519:.\Generated_Source\PSoC5/ADC_SAR_1.c **** ********************************************************************************
 520:.\Generated_Source\PSoC5/ADC_SAR_1.c **** *
 521:.\Generated_Source\PSoC5/ADC_SAR_1.c **** * Summary:
 522:.\Generated_Source\PSoC5/ADC_SAR_1.c **** *  Returns an 8-bit result or the LSB of the last conversion.
 523:.\Generated_Source\PSoC5/ADC_SAR_1.c **** *  ADC_SAR_1_IsEndConversion() should be called to verify that the data
 524:.\Generated_Source\PSoC5/ADC_SAR_1.c **** *   sample is ready
 525:.\Generated_Source\PSoC5/ADC_SAR_1.c **** *
 526:.\Generated_Source\PSoC5/ADC_SAR_1.c **** * Parameters:
 527:.\Generated_Source\PSoC5/ADC_SAR_1.c **** *  None.
 528:.\Generated_Source\PSoC5/ADC_SAR_1.c **** *
 529:.\Generated_Source\PSoC5/ADC_SAR_1.c **** * Return:
 530:.\Generated_Source\PSoC5/ADC_SAR_1.c **** *  ADC result.
 531:.\Generated_Source\PSoC5/ADC_SAR_1.c **** *
 532:.\Generated_Source\PSoC5/ADC_SAR_1.c **** * Global Variables:
 533:.\Generated_Source\PSoC5/ADC_SAR_1.c **** *  ADC_SAR_1_shift - used to convert the ADC counts to the 2's
 534:.\Generated_Source\PSoC5/ADC_SAR_1.c **** *  compliment form.
 535:.\Generated_Source\PSoC5/ADC_SAR_1.c **** *  ADC_SAR_1_resolution - used to shift the results for lower
 536:.\Generated_Source\PSoC5/ADC_SAR_1.c **** *   resolution.
 537:.\Generated_Source\PSoC5/ADC_SAR_1.c **** *
 538:.\Generated_Source\PSoC5/ADC_SAR_1.c **** *******************************************************************************/
 539:.\Generated_Source\PSoC5/ADC_SAR_1.c **** int8 ADC_SAR_1_GetResult8( void )
 540:.\Generated_Source\PSoC5/ADC_SAR_1.c **** {
 131              		.loc 1 540 0
 132              		.cfi_startproc
 133              		@ args = 0, pretend = 0, frame = 0
 134              		@ frame_needed = 0, uses_anonymous_args = 0
 135              		@ link register save eliminated.
 541:.\Generated_Source\PSoC5/ADC_SAR_1.c **** 
 542:.\Generated_Source\PSoC5/ADC_SAR_1.c ****     #if(CY_PSOC5A)
 543:.\Generated_Source\PSoC5/ADC_SAR_1.c **** 
 544:.\Generated_Source\PSoC5/ADC_SAR_1.c ****         uint16 res;
 545:.\Generated_Source\PSoC5/ADC_SAR_1.c **** 
ARM GAS  C:\Users\SUZUKI~1\AppData\Local\Temp\cccyIThI.s 			page 13


 546:.\Generated_Source\PSoC5/ADC_SAR_1.c ****         res = CY_GET_REG16(ADC_SAR_1_SAR_WRK_PTR);
 547:.\Generated_Source\PSoC5/ADC_SAR_1.c **** 
 548:.\Generated_Source\PSoC5/ADC_SAR_1.c ****         /* Use 12bits for PSoC5 production silicon and shift the results for lower resolution in th
 549:.\Generated_Source\PSoC5/ADC_SAR_1.c ****         switch (ADC_SAR_1_resolution)
 136              		.loc 1 549 0
 137 0000 084A     		ldr	r2, .L19
 138              		.loc 1 546 0
 139 0002 094B     		ldr	r3, .L19+4
 140              		.loc 1 549 0
 141 0004 1278     		ldrb	r2, [r2, #0]	@ zero_extendqisi2
 142              		.loc 1 546 0
 143 0006 1B88     		ldrh	r3, [r3, #0]
 144              		.loc 1 549 0
 145 0008 082A     		cmp	r2, #8
 146              		.loc 1 546 0
 147 000a 9BB2     		uxth	r3, r3
 148              	.LVL4:
 149              		.loc 1 549 0
 150 000c 03D0     		beq	.L15
 151 000e 0A2A     		cmp	r2, #10
 152 0010 02D1     		bne	.L14
 550:.\Generated_Source\PSoC5/ADC_SAR_1.c ****         {
 551:.\Generated_Source\PSoC5/ADC_SAR_1.c ****             case (uint8)ADC_SAR_1__BITS_10:
 552:.\Generated_Source\PSoC5/ADC_SAR_1.c ****                 res >>= 2u;
 153              		.loc 1 552 0
 154 0012 9B08     		lsrs	r3, r3, #2
 155              	.LVL5:
 553:.\Generated_Source\PSoC5/ADC_SAR_1.c ****                 break;
 156              		.loc 1 553 0
 157 0014 00E0     		b	.L14
 158              	.L15:
 554:.\Generated_Source\PSoC5/ADC_SAR_1.c ****             case (uint8)ADC_SAR_1__BITS_8:
 555:.\Generated_Source\PSoC5/ADC_SAR_1.c ****                 res >>= 4u;
 159              		.loc 1 555 0
 160 0016 1B09     		lsrs	r3, r3, #4
 161              	.LVL6:
 162              	.L14:
 556:.\Generated_Source\PSoC5/ADC_SAR_1.c ****                 break;
 557:.\Generated_Source\PSoC5/ADC_SAR_1.c ****             default: /* Do not shift for 12 bits */
 558:.\Generated_Source\PSoC5/ADC_SAR_1.c ****                 break;
 559:.\Generated_Source\PSoC5/ADC_SAR_1.c ****         }
 560:.\Generated_Source\PSoC5/ADC_SAR_1.c ****         return( (int8)((int16)res - ADC_SAR_1_shift) );
 163              		.loc 1 560 0
 164 0018 044A     		ldr	r2, .L19+8
 165 001a 1288     		ldrh	r2, [r2, #0]
 166 001c 9B1A     		subs	r3, r3, r2
 167              	.LVL7:
 561:.\Generated_Source\PSoC5/ADC_SAR_1.c ****     #else
 562:.\Generated_Source\PSoC5/ADC_SAR_1.c ****         return( (int8)ADC_SAR_1_SAR_WRK0_REG - (int8)ADC_SAR_1_shift);
 563:.\Generated_Source\PSoC5/ADC_SAR_1.c ****     #endif /* End CY_PSOC5A */
 564:.\Generated_Source\PSoC5/ADC_SAR_1.c **** 
 565:.\Generated_Source\PSoC5/ADC_SAR_1.c **** }
 168              		.loc 1 565 0
 169 001e 58B2     		sxtb	r0, r3
 170 0020 7047     		bx	lr
 171              	.L20:
 172 0022 00BF     		.align	2
ARM GAS  C:\Users\SUZUKI~1\AppData\Local\Temp\cccyIThI.s 			page 14


 173              	.L19:
 174 0024 00000000 		.word	.LANCHOR0
 175 0028 A05B0040 		.word	1073765280
 176 002c 00000000 		.word	ADC_SAR_1_shift
 177              		.cfi_endproc
 178              	.LFE9:
 179              		.size	ADC_SAR_1_GetResult8, .-ADC_SAR_1_GetResult8
 180              		.section	.text.ADC_SAR_1_GetResult16,"ax",%progbits
 181              		.align	1
 182              		.global	ADC_SAR_1_GetResult16
 183              		.thumb
 184              		.thumb_func
 185              		.type	ADC_SAR_1_GetResult16, %function
 186              	ADC_SAR_1_GetResult16:
 187              	.LFB10:
 566:.\Generated_Source\PSoC5/ADC_SAR_1.c **** 
 567:.\Generated_Source\PSoC5/ADC_SAR_1.c **** 
 568:.\Generated_Source\PSoC5/ADC_SAR_1.c **** /*******************************************************************************
 569:.\Generated_Source\PSoC5/ADC_SAR_1.c **** * Function Name: ADC_SAR_1_GetResult16
 570:.\Generated_Source\PSoC5/ADC_SAR_1.c **** ********************************************************************************
 571:.\Generated_Source\PSoC5/ADC_SAR_1.c **** *
 572:.\Generated_Source\PSoC5/ADC_SAR_1.c **** * Summary:
 573:.\Generated_Source\PSoC5/ADC_SAR_1.c **** *  Gets the data available in the SAR DATA registers.
 574:.\Generated_Source\PSoC5/ADC_SAR_1.c **** *  ADC_SAR_1_IsEndConversion() should be called to verify that the data
 575:.\Generated_Source\PSoC5/ADC_SAR_1.c **** *   sample is ready
 576:.\Generated_Source\PSoC5/ADC_SAR_1.c **** *
 577:.\Generated_Source\PSoC5/ADC_SAR_1.c **** * Parameters:
 578:.\Generated_Source\PSoC5/ADC_SAR_1.c **** *  None.
 579:.\Generated_Source\PSoC5/ADC_SAR_1.c **** *
 580:.\Generated_Source\PSoC5/ADC_SAR_1.c **** * Return:
 581:.\Generated_Source\PSoC5/ADC_SAR_1.c **** *  ADC result. WORD value which has the converted 12bits. In the differential
 582:.\Generated_Source\PSoC5/ADC_SAR_1.c **** *  input mode the SAR ADC outputs digitally converted data in binary offset
 583:.\Generated_Source\PSoC5/ADC_SAR_1.c **** *  scheme, this function converts the data into 2's compliment form.
 584:.\Generated_Source\PSoC5/ADC_SAR_1.c **** *
 585:.\Generated_Source\PSoC5/ADC_SAR_1.c **** * Global Variables:
 586:.\Generated_Source\PSoC5/ADC_SAR_1.c **** *  ADC_SAR_1_shift - used to convert the ADC counts to the 2's
 587:.\Generated_Source\PSoC5/ADC_SAR_1.c **** *  compliment form.
 588:.\Generated_Source\PSoC5/ADC_SAR_1.c **** *  ADC_SAR_1_resolution - used to shift the results for lower
 589:.\Generated_Source\PSoC5/ADC_SAR_1.c **** *   resolution.
 590:.\Generated_Source\PSoC5/ADC_SAR_1.c **** *
 591:.\Generated_Source\PSoC5/ADC_SAR_1.c **** *******************************************************************************/
 592:.\Generated_Source\PSoC5/ADC_SAR_1.c **** int16 ADC_SAR_1_GetResult16( void )
 593:.\Generated_Source\PSoC5/ADC_SAR_1.c **** {
 188              		.loc 1 593 0
 189              		.cfi_startproc
 190              		@ args = 0, pretend = 0, frame = 0
 191              		@ frame_needed = 0, uses_anonymous_args = 0
 192              		@ link register save eliminated.
 594:.\Generated_Source\PSoC5/ADC_SAR_1.c ****     uint16 res;
 595:.\Generated_Source\PSoC5/ADC_SAR_1.c **** 
 596:.\Generated_Source\PSoC5/ADC_SAR_1.c ****     res = CY_GET_REG16(ADC_SAR_1_SAR_WRK_PTR);
 597:.\Generated_Source\PSoC5/ADC_SAR_1.c **** 
 598:.\Generated_Source\PSoC5/ADC_SAR_1.c ****     #if(CY_PSOC5A)
 599:.\Generated_Source\PSoC5/ADC_SAR_1.c ****         /* Use 12bits for PSoC5 production silicon and shift the results for lower resolution in th
 600:.\Generated_Source\PSoC5/ADC_SAR_1.c ****         switch (ADC_SAR_1_resolution)
 193              		.loc 1 600 0
 194 0000 084A     		ldr	r2, .L26
ARM GAS  C:\Users\SUZUKI~1\AppData\Local\Temp\cccyIThI.s 			page 15


 195              		.loc 1 596 0
 196 0002 094B     		ldr	r3, .L26+4
 197              		.loc 1 600 0
 198 0004 1278     		ldrb	r2, [r2, #0]	@ zero_extendqisi2
 199              		.loc 1 596 0
 200 0006 1B88     		ldrh	r3, [r3, #0]
 201              		.loc 1 600 0
 202 0008 082A     		cmp	r2, #8
 203              		.loc 1 596 0
 204 000a 9BB2     		uxth	r3, r3
 205              	.LVL8:
 206              		.loc 1 600 0
 207 000c 03D0     		beq	.L23
 208 000e 0A2A     		cmp	r2, #10
 209 0010 02D1     		bne	.L22
 601:.\Generated_Source\PSoC5/ADC_SAR_1.c ****         {
 602:.\Generated_Source\PSoC5/ADC_SAR_1.c ****             case (uint8)ADC_SAR_1__BITS_10:
 603:.\Generated_Source\PSoC5/ADC_SAR_1.c ****                 res >>= 2u;
 210              		.loc 1 603 0
 211 0012 9B08     		lsrs	r3, r3, #2
 212              	.LVL9:
 604:.\Generated_Source\PSoC5/ADC_SAR_1.c ****                 break;
 213              		.loc 1 604 0
 214 0014 00E0     		b	.L22
 215              	.L23:
 605:.\Generated_Source\PSoC5/ADC_SAR_1.c ****             case (uint8)ADC_SAR_1__BITS_8:
 606:.\Generated_Source\PSoC5/ADC_SAR_1.c ****                 res >>= 4u;
 216              		.loc 1 606 0
 217 0016 1B09     		lsrs	r3, r3, #4
 218              	.LVL10:
 219              	.L22:
 607:.\Generated_Source\PSoC5/ADC_SAR_1.c ****                 break;
 608:.\Generated_Source\PSoC5/ADC_SAR_1.c ****             default: /* Do not shift for 12 bits */
 609:.\Generated_Source\PSoC5/ADC_SAR_1.c ****                 break;
 610:.\Generated_Source\PSoC5/ADC_SAR_1.c ****         }
 611:.\Generated_Source\PSoC5/ADC_SAR_1.c ****     #endif /* End CY_PSOC5A */
 612:.\Generated_Source\PSoC5/ADC_SAR_1.c **** 
 613:.\Generated_Source\PSoC5/ADC_SAR_1.c ****     return( (int16)res - ADC_SAR_1_shift );
 220              		.loc 1 613 0
 221 0018 044A     		ldr	r2, .L26+8
 222 001a 1288     		ldrh	r2, [r2, #0]
 223 001c 9B1A     		subs	r3, r3, r2
 224              	.LVL11:
 614:.\Generated_Source\PSoC5/ADC_SAR_1.c **** }
 225              		.loc 1 614 0
 226 001e 18B2     		sxth	r0, r3
 227 0020 7047     		bx	lr
 228              	.L27:
 229 0022 00BF     		.align	2
 230              	.L26:
 231 0024 00000000 		.word	.LANCHOR0
 232 0028 A05B0040 		.word	1073765280
 233 002c 00000000 		.word	ADC_SAR_1_shift
 234              		.cfi_endproc
 235              	.LFE10:
 236              		.size	ADC_SAR_1_GetResult16, .-ADC_SAR_1_GetResult16
 237              		.section	.text.ADC_SAR_1_SetOffset,"ax",%progbits
ARM GAS  C:\Users\SUZUKI~1\AppData\Local\Temp\cccyIThI.s 			page 16


 238              		.align	1
 239              		.global	ADC_SAR_1_SetOffset
 240              		.thumb
 241              		.thumb_func
 242              		.type	ADC_SAR_1_SetOffset, %function
 243              	ADC_SAR_1_SetOffset:
 244              	.LFB11:
 615:.\Generated_Source\PSoC5/ADC_SAR_1.c **** 
 616:.\Generated_Source\PSoC5/ADC_SAR_1.c **** 
 617:.\Generated_Source\PSoC5/ADC_SAR_1.c **** /*******************************************************************************
 618:.\Generated_Source\PSoC5/ADC_SAR_1.c **** * Function Name: ADC_SAR_1_SetOffset
 619:.\Generated_Source\PSoC5/ADC_SAR_1.c **** ********************************************************************************
 620:.\Generated_Source\PSoC5/ADC_SAR_1.c **** *
 621:.\Generated_Source\PSoC5/ADC_SAR_1.c **** * Summary:
 622:.\Generated_Source\PSoC5/ADC_SAR_1.c **** *  This function sets the offset for voltage readings.
 623:.\Generated_Source\PSoC5/ADC_SAR_1.c **** *
 624:.\Generated_Source\PSoC5/ADC_SAR_1.c **** * Parameters:
 625:.\Generated_Source\PSoC5/ADC_SAR_1.c **** *  int16: Offset in counts
 626:.\Generated_Source\PSoC5/ADC_SAR_1.c **** *
 627:.\Generated_Source\PSoC5/ADC_SAR_1.c **** * Return:
 628:.\Generated_Source\PSoC5/ADC_SAR_1.c **** *  None.
 629:.\Generated_Source\PSoC5/ADC_SAR_1.c **** *
 630:.\Generated_Source\PSoC5/ADC_SAR_1.c **** * Global Variables:
 631:.\Generated_Source\PSoC5/ADC_SAR_1.c **** *  The ADC_SAR_1_offset variable modified. This variable is used for
 632:.\Generated_Source\PSoC5/ADC_SAR_1.c **** *  offset calibration purpose.
 633:.\Generated_Source\PSoC5/ADC_SAR_1.c **** *  Affects the ADC_SAR_1_CountsTo_Volts,
 634:.\Generated_Source\PSoC5/ADC_SAR_1.c **** *  ADC_SAR_1_CountsTo_mVolts, ADC_SAR_1_CountsTo_uVolts functions
 635:.\Generated_Source\PSoC5/ADC_SAR_1.c **** *  by subtracting the given offset.
 636:.\Generated_Source\PSoC5/ADC_SAR_1.c **** *
 637:.\Generated_Source\PSoC5/ADC_SAR_1.c **** *******************************************************************************/
 638:.\Generated_Source\PSoC5/ADC_SAR_1.c **** void ADC_SAR_1_SetOffset(int16 offset)
 639:.\Generated_Source\PSoC5/ADC_SAR_1.c **** {
 245              		.loc 1 639 0
 246              		.cfi_startproc
 247              		@ args = 0, pretend = 0, frame = 0
 248              		@ frame_needed = 0, uses_anonymous_args = 0
 249              		@ link register save eliminated.
 250              	.LVL12:
 640:.\Generated_Source\PSoC5/ADC_SAR_1.c ****     ADC_SAR_1_offset = offset;
 251              		.loc 1 640 0
 252 0000 014B     		ldr	r3, .L30
 253 0002 1880     		strh	r0, [r3, #0]	@ movhi
 641:.\Generated_Source\PSoC5/ADC_SAR_1.c **** }
 254              		.loc 1 641 0
 255 0004 7047     		bx	lr
 256              	.L31:
 257 0006 00BF     		.align	2
 258              	.L30:
 259 0008 00000000 		.word	ADC_SAR_1_offset
 260              		.cfi_endproc
 261              	.LFE11:
 262              		.size	ADC_SAR_1_SetOffset, .-ADC_SAR_1_SetOffset
 263              		.section	.text.ADC_SAR_1_SetResolution,"ax",%progbits
 264              		.align	1
 265              		.global	ADC_SAR_1_SetResolution
 266              		.thumb
 267              		.thumb_func
ARM GAS  C:\Users\SUZUKI~1\AppData\Local\Temp\cccyIThI.s 			page 17


 268              		.type	ADC_SAR_1_SetResolution, %function
 269              	ADC_SAR_1_SetResolution:
 270              	.LFB5:
 271              		.loc 1 358 0
 272              		.cfi_startproc
 273              		@ args = 0, pretend = 0, frame = 0
 274              		@ frame_needed = 0, uses_anonymous_args = 0
 275              		@ link register save eliminated.
 276              	.LVL13:
 277              		.loc 1 363 0
 278 0000 104B     		ldr	r3, .L37
 279              		.loc 1 395 0
 280 0002 6FF03A02 		mvn	r2, #58
 281              		.loc 1 363 0
 282 0006 1870     		strb	r0, [r3, #0]
 283              	.LBB4:
 642:.\Generated_Source\PSoC5/ADC_SAR_1.c **** 
 643:.\Generated_Source\PSoC5/ADC_SAR_1.c **** 
 644:.\Generated_Source\PSoC5/ADC_SAR_1.c **** /*******************************************************************************
 645:.\Generated_Source\PSoC5/ADC_SAR_1.c **** * Function Name: ADC_SAR_1_CalcGain
 646:.\Generated_Source\PSoC5/ADC_SAR_1.c **** ********************************************************************************
 647:.\Generated_Source\PSoC5/ADC_SAR_1.c **** *
 648:.\Generated_Source\PSoC5/ADC_SAR_1.c **** * Summary:
 649:.\Generated_Source\PSoC5/ADC_SAR_1.c **** *  This function calculates the ADC gain in counts per volt.
 650:.\Generated_Source\PSoC5/ADC_SAR_1.c **** *
 651:.\Generated_Source\PSoC5/ADC_SAR_1.c **** * Parameters:
 652:.\Generated_Source\PSoC5/ADC_SAR_1.c **** *  uint8: resolution
 653:.\Generated_Source\PSoC5/ADC_SAR_1.c **** *
 654:.\Generated_Source\PSoC5/ADC_SAR_1.c **** * Return:
 655:.\Generated_Source\PSoC5/ADC_SAR_1.c **** *  None.
 656:.\Generated_Source\PSoC5/ADC_SAR_1.c **** *
 657:.\Generated_Source\PSoC5/ADC_SAR_1.c **** * Global Variables:
 658:.\Generated_Source\PSoC5/ADC_SAR_1.c **** *  ADC_SAR_1_shift variable initialized. This variable is used to
 659:.\Generated_Source\PSoC5/ADC_SAR_1.c **** *  convert the ADC counts to the 2's compliment form.
 660:.\Generated_Source\PSoC5/ADC_SAR_1.c **** *  ADC_SAR_1_countsPerVolt variable initialized. This variable is used
 661:.\Generated_Source\PSoC5/ADC_SAR_1.c **** *  for gain calibration purpose.
 662:.\Generated_Source\PSoC5/ADC_SAR_1.c **** *
 663:.\Generated_Source\PSoC5/ADC_SAR_1.c **** *******************************************************************************/
 664:.\Generated_Source\PSoC5/ADC_SAR_1.c **** static void ADC_SAR_1_CalcGain( uint8 resolution )
 665:.\Generated_Source\PSoC5/ADC_SAR_1.c **** {
 666:.\Generated_Source\PSoC5/ADC_SAR_1.c ****     int32 counts;
 667:.\Generated_Source\PSoC5/ADC_SAR_1.c ****     #if(!((ADC_SAR_1_DEFAULT_RANGE == ADC_SAR_1__VSS_TO_VREF) || \
 668:.\Generated_Source\PSoC5/ADC_SAR_1.c ****          (ADC_SAR_1_DEFAULT_RANGE == ADC_SAR_1__VSSA_TO_VDDA) || \
 669:.\Generated_Source\PSoC5/ADC_SAR_1.c ****          (ADC_SAR_1_DEFAULT_RANGE == ADC_SAR_1__VSSA_TO_VDAC)) )
 670:.\Generated_Source\PSoC5/ADC_SAR_1.c ****         uint16 diff_zero;
 671:.\Generated_Source\PSoC5/ADC_SAR_1.c ****     #endif /* End ADC_SAR_1_DEFAULT_RANGE */
 672:.\Generated_Source\PSoC5/ADC_SAR_1.c **** 
 673:.\Generated_Source\PSoC5/ADC_SAR_1.c ****     switch (resolution)
 674:.\Generated_Source\PSoC5/ADC_SAR_1.c ****     {
 675:.\Generated_Source\PSoC5/ADC_SAR_1.c ****         case (uint8)ADC_SAR_1__BITS_12:
 676:.\Generated_Source\PSoC5/ADC_SAR_1.c ****             counts = (int32)ADC_SAR_1_SAR_WRK_MAX;
 677:.\Generated_Source\PSoC5/ADC_SAR_1.c ****             #if(!((ADC_SAR_1_DEFAULT_RANGE == ADC_SAR_1__VSS_TO_VREF) || \
 678:.\Generated_Source\PSoC5/ADC_SAR_1.c ****                  (ADC_SAR_1_DEFAULT_RANGE == ADC_SAR_1__VSSA_TO_VDDA) || \
 679:.\Generated_Source\PSoC5/ADC_SAR_1.c ****                  (ADC_SAR_1_DEFAULT_RANGE == ADC_SAR_1__VSSA_TO_VDAC)) )
 680:.\Generated_Source\PSoC5/ADC_SAR_1.c ****                 diff_zero = ADC_SAR_1_SAR_DIFF_SHIFT;
 681:.\Generated_Source\PSoC5/ADC_SAR_1.c ****             #endif /* End ADC_SAR_1_DEFAULT_RANGE */
 682:.\Generated_Source\PSoC5/ADC_SAR_1.c ****             break;
ARM GAS  C:\Users\SUZUKI~1\AppData\Local\Temp\cccyIThI.s 			page 18


 683:.\Generated_Source\PSoC5/ADC_SAR_1.c ****         case (uint8)ADC_SAR_1__BITS_10:
 684:.\Generated_Source\PSoC5/ADC_SAR_1.c ****             counts = (int32)(ADC_SAR_1_SAR_WRK_MAX >> 2u);
 685:.\Generated_Source\PSoC5/ADC_SAR_1.c ****             #if(!((ADC_SAR_1_DEFAULT_RANGE == ADC_SAR_1__VSS_TO_VREF) || \
 686:.\Generated_Source\PSoC5/ADC_SAR_1.c ****                  (ADC_SAR_1_DEFAULT_RANGE == ADC_SAR_1__VSSA_TO_VDDA) || \
 687:.\Generated_Source\PSoC5/ADC_SAR_1.c ****                  (ADC_SAR_1_DEFAULT_RANGE == ADC_SAR_1__VSSA_TO_VDAC)) )
 688:.\Generated_Source\PSoC5/ADC_SAR_1.c ****                 diff_zero = ADC_SAR_1_SAR_DIFF_SHIFT >> 2u;
 689:.\Generated_Source\PSoC5/ADC_SAR_1.c ****             #endif /* End ADC_SAR_1_DEFAULT_RANGE */
 690:.\Generated_Source\PSoC5/ADC_SAR_1.c ****             break;
 691:.\Generated_Source\PSoC5/ADC_SAR_1.c ****         case (uint8)ADC_SAR_1__BITS_8:
 692:.\Generated_Source\PSoC5/ADC_SAR_1.c ****             counts = (int32)(ADC_SAR_1_SAR_WRK_MAX >> 4u);
 693:.\Generated_Source\PSoC5/ADC_SAR_1.c ****             #if(!((ADC_SAR_1_DEFAULT_RANGE == ADC_SAR_1__VSS_TO_VREF) || \
 694:.\Generated_Source\PSoC5/ADC_SAR_1.c ****                  (ADC_SAR_1_DEFAULT_RANGE == ADC_SAR_1__VSSA_TO_VDDA) || \
 695:.\Generated_Source\PSoC5/ADC_SAR_1.c ****                  (ADC_SAR_1_DEFAULT_RANGE == ADC_SAR_1__VSSA_TO_VDAC)) )
 696:.\Generated_Source\PSoC5/ADC_SAR_1.c ****                 diff_zero = ADC_SAR_1_SAR_DIFF_SHIFT >> 4u;
 697:.\Generated_Source\PSoC5/ADC_SAR_1.c ****             #endif /* End ADC_SAR_1_DEFAULT_RANGE */
 698:.\Generated_Source\PSoC5/ADC_SAR_1.c ****             break;
 699:.\Generated_Source\PSoC5/ADC_SAR_1.c ****         default: /* Halt CPU in debug mode if resolution is out of valid range */
 700:.\Generated_Source\PSoC5/ADC_SAR_1.c ****             counts = 0;
 701:.\Generated_Source\PSoC5/ADC_SAR_1.c ****             #if(!((ADC_SAR_1_DEFAULT_RANGE == ADC_SAR_1__VSS_TO_VREF) || \
 702:.\Generated_Source\PSoC5/ADC_SAR_1.c ****                  (ADC_SAR_1_DEFAULT_RANGE == ADC_SAR_1__VSSA_TO_VDDA) || \
 703:.\Generated_Source\PSoC5/ADC_SAR_1.c ****                  (ADC_SAR_1_DEFAULT_RANGE == ADC_SAR_1__VSSA_TO_VDAC)) )
 704:.\Generated_Source\PSoC5/ADC_SAR_1.c ****                 diff_zero = 0u;
 705:.\Generated_Source\PSoC5/ADC_SAR_1.c ****             #endif /* End ADC_SAR_1_DEFAULT_RANGE */
 706:.\Generated_Source\PSoC5/ADC_SAR_1.c ****             CYASSERT(0u != 0u);
 707:.\Generated_Source\PSoC5/ADC_SAR_1.c ****             break;
 708:.\Generated_Source\PSoC5/ADC_SAR_1.c ****     }
 709:.\Generated_Source\PSoC5/ADC_SAR_1.c ****     counts *= 1000; /* To avoid float point arithmetic*/
 710:.\Generated_Source\PSoC5/ADC_SAR_1.c ****     ADC_SAR_1_countsPerVolt = (int16)(counts / ADC_SAR_1_DEFAULT_REF_VOLTAGE_MV / 2);
 711:.\Generated_Source\PSoC5/ADC_SAR_1.c **** 
 712:.\Generated_Source\PSoC5/ADC_SAR_1.c ****     #if( (ADC_SAR_1_DEFAULT_RANGE == ADC_SAR_1__VSS_TO_VREF) || \
 713:.\Generated_Source\PSoC5/ADC_SAR_1.c ****          (ADC_SAR_1_DEFAULT_RANGE == ADC_SAR_1__VSSA_TO_VDDA) || \
 714:.\Generated_Source\PSoC5/ADC_SAR_1.c ****          (ADC_SAR_1_DEFAULT_RANGE == ADC_SAR_1__VSSA_TO_VDAC) )
 715:.\Generated_Source\PSoC5/ADC_SAR_1.c ****         ADC_SAR_1_shift = 0;
 716:.\Generated_Source\PSoC5/ADC_SAR_1.c ****     #else
 717:.\Generated_Source\PSoC5/ADC_SAR_1.c ****         ADC_SAR_1_shift = diff_zero;
 718:.\Generated_Source\PSoC5/ADC_SAR_1.c ****     #endif /* End ADC_SAR_1_DEFAULT_RANGE */
 719:.\Generated_Source\PSoC5/ADC_SAR_1.c **** }
 720:.\Generated_Source\PSoC5/ADC_SAR_1.c **** 
 721:.\Generated_Source\PSoC5/ADC_SAR_1.c **** 
 722:.\Generated_Source\PSoC5/ADC_SAR_1.c **** /*******************************************************************************
 723:.\Generated_Source\PSoC5/ADC_SAR_1.c **** * Function Name: ADC_SAR_1_SetGain
 724:.\Generated_Source\PSoC5/ADC_SAR_1.c **** ********************************************************************************
 725:.\Generated_Source\PSoC5/ADC_SAR_1.c **** *
 726:.\Generated_Source\PSoC5/ADC_SAR_1.c **** * Summary:
 727:.\Generated_Source\PSoC5/ADC_SAR_1.c **** *  This function sets the ADC gain in counts per volt.
 728:.\Generated_Source\PSoC5/ADC_SAR_1.c **** *
 729:.\Generated_Source\PSoC5/ADC_SAR_1.c **** * Parameters:
 730:.\Generated_Source\PSoC5/ADC_SAR_1.c **** *  int16  adcGain  counts per volt
 731:.\Generated_Source\PSoC5/ADC_SAR_1.c **** *
 732:.\Generated_Source\PSoC5/ADC_SAR_1.c **** * Return:
 733:.\Generated_Source\PSoC5/ADC_SAR_1.c **** *  None.
 734:.\Generated_Source\PSoC5/ADC_SAR_1.c **** *
 735:.\Generated_Source\PSoC5/ADC_SAR_1.c **** * Global Variables:
 736:.\Generated_Source\PSoC5/ADC_SAR_1.c **** *  ADC_SAR_1_countsPerVolt variable modified. This variable is used
 737:.\Generated_Source\PSoC5/ADC_SAR_1.c **** *  for gain calibration purpose.
 738:.\Generated_Source\PSoC5/ADC_SAR_1.c **** *
 739:.\Generated_Source\PSoC5/ADC_SAR_1.c **** *******************************************************************************/
ARM GAS  C:\Users\SUZUKI~1\AppData\Local\Temp\cccyIThI.s 			page 19


 740:.\Generated_Source\PSoC5/ADC_SAR_1.c **** void ADC_SAR_1_SetGain(int16 adcGain)
 741:.\Generated_Source\PSoC5/ADC_SAR_1.c **** {
 742:.\Generated_Source\PSoC5/ADC_SAR_1.c ****     ADC_SAR_1_countsPerVolt = adcGain;
 743:.\Generated_Source\PSoC5/ADC_SAR_1.c **** }
 744:.\Generated_Source\PSoC5/ADC_SAR_1.c **** 
 745:.\Generated_Source\PSoC5/ADC_SAR_1.c **** 
 746:.\Generated_Source\PSoC5/ADC_SAR_1.c **** /*******************************************************************************
 747:.\Generated_Source\PSoC5/ADC_SAR_1.c **** * Function Name: ADC_SAR_1_CountsTo_mVolts
 748:.\Generated_Source\PSoC5/ADC_SAR_1.c **** ********************************************************************************
 749:.\Generated_Source\PSoC5/ADC_SAR_1.c **** *
 750:.\Generated_Source\PSoC5/ADC_SAR_1.c **** * Summary:
 751:.\Generated_Source\PSoC5/ADC_SAR_1.c **** *  This function converts ADC counts to mVolts
 752:.\Generated_Source\PSoC5/ADC_SAR_1.c **** *
 753:.\Generated_Source\PSoC5/ADC_SAR_1.c **** * Parameters:
 754:.\Generated_Source\PSoC5/ADC_SAR_1.c **** *  int16  adcCounts   Reading from ADC.
 755:.\Generated_Source\PSoC5/ADC_SAR_1.c **** *
 756:.\Generated_Source\PSoC5/ADC_SAR_1.c **** * Return:
 757:.\Generated_Source\PSoC5/ADC_SAR_1.c **** *  int16  Result in mVolts
 758:.\Generated_Source\PSoC5/ADC_SAR_1.c **** *
 759:.\Generated_Source\PSoC5/ADC_SAR_1.c **** * Global Variables:
 760:.\Generated_Source\PSoC5/ADC_SAR_1.c **** *  ADC_SAR_1_offset variable used.
 761:.\Generated_Source\PSoC5/ADC_SAR_1.c **** *  ADC_SAR_1_countsPerVolt variable used.
 762:.\Generated_Source\PSoC5/ADC_SAR_1.c **** *
 763:.\Generated_Source\PSoC5/ADC_SAR_1.c **** *******************************************************************************/
 764:.\Generated_Source\PSoC5/ADC_SAR_1.c **** int16 ADC_SAR_1_CountsTo_mVolts(int16 adcCounts)
 765:.\Generated_Source\PSoC5/ADC_SAR_1.c **** {
 766:.\Generated_Source\PSoC5/ADC_SAR_1.c **** 
 767:.\Generated_Source\PSoC5/ADC_SAR_1.c ****     int16 mVolts;
 768:.\Generated_Source\PSoC5/ADC_SAR_1.c **** 
 769:.\Generated_Source\PSoC5/ADC_SAR_1.c ****     /* Subtract ADC offset */
 770:.\Generated_Source\PSoC5/ADC_SAR_1.c ****     adcCounts -= ADC_SAR_1_offset;
 771:.\Generated_Source\PSoC5/ADC_SAR_1.c **** 
 772:.\Generated_Source\PSoC5/ADC_SAR_1.c ****     mVolts = (int16)(( (int32)adcCounts * 1000 ) / ADC_SAR_1_countsPerVolt) ;
 773:.\Generated_Source\PSoC5/ADC_SAR_1.c **** 
 774:.\Generated_Source\PSoC5/ADC_SAR_1.c ****     return( mVolts );
 775:.\Generated_Source\PSoC5/ADC_SAR_1.c **** }
 776:.\Generated_Source\PSoC5/ADC_SAR_1.c **** 
 777:.\Generated_Source\PSoC5/ADC_SAR_1.c **** 
 778:.\Generated_Source\PSoC5/ADC_SAR_1.c **** /*******************************************************************************
 779:.\Generated_Source\PSoC5/ADC_SAR_1.c **** * Function Name: ADC_SAR_1_CountsTo_uVolts
 780:.\Generated_Source\PSoC5/ADC_SAR_1.c **** ********************************************************************************
 781:.\Generated_Source\PSoC5/ADC_SAR_1.c **** *
 782:.\Generated_Source\PSoC5/ADC_SAR_1.c **** * Summary:
 783:.\Generated_Source\PSoC5/ADC_SAR_1.c **** *  This function converts ADC counts to micro Volts
 784:.\Generated_Source\PSoC5/ADC_SAR_1.c **** *
 785:.\Generated_Source\PSoC5/ADC_SAR_1.c **** * Parameters:
 786:.\Generated_Source\PSoC5/ADC_SAR_1.c **** *  int16  adcCounts   Reading from ADC.
 787:.\Generated_Source\PSoC5/ADC_SAR_1.c **** *
 788:.\Generated_Source\PSoC5/ADC_SAR_1.c **** * Return:
 789:.\Generated_Source\PSoC5/ADC_SAR_1.c **** *  int32  Result in micro Volts
 790:.\Generated_Source\PSoC5/ADC_SAR_1.c **** *
 791:.\Generated_Source\PSoC5/ADC_SAR_1.c **** * Global Variables:
 792:.\Generated_Source\PSoC5/ADC_SAR_1.c **** *  ADC_SAR_1_offset variable used.
 793:.\Generated_Source\PSoC5/ADC_SAR_1.c **** *  ADC_SAR_1_countsPerVolt variable used.
 794:.\Generated_Source\PSoC5/ADC_SAR_1.c **** *
 795:.\Generated_Source\PSoC5/ADC_SAR_1.c **** *******************************************************************************/
 796:.\Generated_Source\PSoC5/ADC_SAR_1.c **** int32 ADC_SAR_1_CountsTo_uVolts(int16 adcCounts)
ARM GAS  C:\Users\SUZUKI~1\AppData\Local\Temp\cccyIThI.s 			page 20


 797:.\Generated_Source\PSoC5/ADC_SAR_1.c **** {
 798:.\Generated_Source\PSoC5/ADC_SAR_1.c **** 
 799:.\Generated_Source\PSoC5/ADC_SAR_1.c ****     int32 uVolts;
 800:.\Generated_Source\PSoC5/ADC_SAR_1.c **** 
 801:.\Generated_Source\PSoC5/ADC_SAR_1.c ****     /* Subtract ADC offset */
 802:.\Generated_Source\PSoC5/ADC_SAR_1.c ****     adcCounts -= ADC_SAR_1_offset;
 803:.\Generated_Source\PSoC5/ADC_SAR_1.c ****     /* To convert adcCounts to microVolts it is required to be multiplied
 804:.\Generated_Source\PSoC5/ADC_SAR_1.c ****     *  on 1 million. It is multiplied on 500000 and later on 2 to
 805:.\Generated_Source\PSoC5/ADC_SAR_1.c ****     *  to avoid 32bit arithmetic overflows.
 806:.\Generated_Source\PSoC5/ADC_SAR_1.c ****     */
 807:.\Generated_Source\PSoC5/ADC_SAR_1.c ****     uVolts = (( (int32)adcCounts * 500000 ) / ADC_SAR_1_countsPerVolt) * 2;
 808:.\Generated_Source\PSoC5/ADC_SAR_1.c **** 
 809:.\Generated_Source\PSoC5/ADC_SAR_1.c ****     return( uVolts );
 810:.\Generated_Source\PSoC5/ADC_SAR_1.c **** }
 811:.\Generated_Source\PSoC5/ADC_SAR_1.c **** 
 812:.\Generated_Source\PSoC5/ADC_SAR_1.c **** 
 813:.\Generated_Source\PSoC5/ADC_SAR_1.c **** /*******************************************************************************
 814:.\Generated_Source\PSoC5/ADC_SAR_1.c **** * Function Name: ADC_SAR_1_CountsTo_Volts
 815:.\Generated_Source\PSoC5/ADC_SAR_1.c **** ********************************************************************************
 816:.\Generated_Source\PSoC5/ADC_SAR_1.c **** *
 817:.\Generated_Source\PSoC5/ADC_SAR_1.c **** * Summary:
 818:.\Generated_Source\PSoC5/ADC_SAR_1.c **** *  This function converts ADC counts to Volts
 819:.\Generated_Source\PSoC5/ADC_SAR_1.c **** *
 820:.\Generated_Source\PSoC5/ADC_SAR_1.c **** * Parameters:
 821:.\Generated_Source\PSoC5/ADC_SAR_1.c **** *  int16  adcCounts   Reading from ADC.
 822:.\Generated_Source\PSoC5/ADC_SAR_1.c **** *
 823:.\Generated_Source\PSoC5/ADC_SAR_1.c **** * Return:
 824:.\Generated_Source\PSoC5/ADC_SAR_1.c **** *  float  Result in mVolts
 825:.\Generated_Source\PSoC5/ADC_SAR_1.c **** *
 826:.\Generated_Source\PSoC5/ADC_SAR_1.c **** * Global Variables:
 827:.\Generated_Source\PSoC5/ADC_SAR_1.c **** *  ADC_SAR_1_offset variable used.
 828:.\Generated_Source\PSoC5/ADC_SAR_1.c **** *  ADC_SAR_1_countsPerVolt variable used.
 829:.\Generated_Source\PSoC5/ADC_SAR_1.c **** *
 830:.\Generated_Source\PSoC5/ADC_SAR_1.c **** *******************************************************************************/
 831:.\Generated_Source\PSoC5/ADC_SAR_1.c **** float32 ADC_SAR_1_CountsTo_Volts(int16 adcCounts)
 832:.\Generated_Source\PSoC5/ADC_SAR_1.c **** {
 833:.\Generated_Source\PSoC5/ADC_SAR_1.c ****     float32 volts;
 834:.\Generated_Source\PSoC5/ADC_SAR_1.c **** 
 835:.\Generated_Source\PSoC5/ADC_SAR_1.c ****     /* Subtract ADC offset */
 836:.\Generated_Source\PSoC5/ADC_SAR_1.c ****     adcCounts -= ADC_SAR_1_offset;
 837:.\Generated_Source\PSoC5/ADC_SAR_1.c **** 
 838:.\Generated_Source\PSoC5/ADC_SAR_1.c ****     volts = (float32)adcCounts / (float32)ADC_SAR_1_countsPerVolt;
 839:.\Generated_Source\PSoC5/ADC_SAR_1.c **** 
 840:.\Generated_Source\PSoC5/ADC_SAR_1.c ****     return( volts );
 841:.\Generated_Source\PSoC5/ADC_SAR_1.c **** }
 284              		.loc 1 841 0
 285 0008 0838     		subs	r0, r0, #8
 286              	.LVL14:
 287              	.LBE4:
 288              		.loc 1 395 0
 289 000a 0F4B     		ldr	r3, .L37+4
 290              	.LBB6:
 291              		.loc 1 841 0
 292 000c C0B2     		uxtb	r0, r0
 293 000e 0428     		cmp	r0, #4
 294              	.LBE6:
 295              		.loc 1 395 0
ARM GAS  C:\Users\SUZUKI~1\AppData\Local\Temp\cccyIThI.s 			page 21


 296 0010 1A70     		strb	r2, [r3, #0]
 297              	.LBB7:
 298              		.loc 1 841 0
 299 0012 02D9     		bls	.L33
 300 0014 3B32     		adds	r2, r2, #59
 301              	.LVL15:
 302 0016 1346     		mov	r3, r2
 303              	.LVL16:
 304 0018 05E0     		b	.L34
 305              	.LVL17:
 306              	.L33:
 307 001a 0C4A     		ldr	r2, .L37+8
 308 001c 52F82030 		ldr	r3, [r2, r0, lsl #2]
 309              	.LVL18:
 310 0020 02EB4000 		add	r0, r2, r0, lsl #1
 311 0024 828A     		ldrh	r2, [r0, #20]
 312              	.LVL19:
 313              	.L34:
 314              	.LBB5:
 315              		.loc 1 710 0
 316 0026 4FF47A71 		mov	r1, #1000
 317 002a 4B43     		muls	r3, r1, r3
 318              	.LVL20:
 319 002c 44BF     		itt	mi
 320 002e 03F5FE63 		addmi	r3, r3, #2032
 321 0032 0F33     		addmi	r3, r3, #15
 322 0034 DB12     		asrs	r3, r3, #11
 323 0036 0649     		ldr	r1, .L37+12
 324 0038 9BB2     		uxth	r3, r3
 325 003a 0B80     		strh	r3, [r1, #0]	@ movhi
 326              		.loc 1 717 0
 327 003c 054B     		ldr	r3, .L37+16
 328 003e 1A80     		strh	r2, [r3, #0]	@ movhi
 329              	.LBE5:
 330              	.LBE7:
 331              		.loc 1 399 0
 332 0040 7047     		bx	lr
 333              	.L38:
 334 0042 00BF     		.align	2
 335              	.L37:
 336 0044 00000000 		.word	.LANCHOR0
 337 0048 02590040 		.word	1073764610
 338 004c 00000000 		.word	.LANCHOR1
 339 0050 00000000 		.word	ADC_SAR_1_countsPerVolt
 340 0054 00000000 		.word	ADC_SAR_1_shift
 341              		.cfi_endproc
 342              	.LFE5:
 343              		.size	ADC_SAR_1_SetResolution, .-ADC_SAR_1_SetResolution
 344              		.section	.text.ADC_SAR_1_SetGain,"ax",%progbits
 345              		.align	1
 346              		.global	ADC_SAR_1_SetGain
 347              		.thumb
 348              		.thumb_func
 349              		.type	ADC_SAR_1_SetGain, %function
 350              	ADC_SAR_1_SetGain:
 351              	.LFB13:
 352              		.loc 1 741 0
ARM GAS  C:\Users\SUZUKI~1\AppData\Local\Temp\cccyIThI.s 			page 22


 353              		.cfi_startproc
 354              		@ args = 0, pretend = 0, frame = 0
 355              		@ frame_needed = 0, uses_anonymous_args = 0
 356              		@ link register save eliminated.
 357              	.LVL21:
 358              		.loc 1 742 0
 359 0000 014B     		ldr	r3, .L41
 360 0002 1880     		strh	r0, [r3, #0]	@ movhi
 361              		.loc 1 743 0
 362 0004 7047     		bx	lr
 363              	.L42:
 364 0006 00BF     		.align	2
 365              	.L41:
 366 0008 00000000 		.word	ADC_SAR_1_countsPerVolt
 367              		.cfi_endproc
 368              	.LFE13:
 369              		.size	ADC_SAR_1_SetGain, .-ADC_SAR_1_SetGain
 370              		.section	.text.ADC_SAR_1_CountsTo_mVolts,"ax",%progbits
 371              		.align	1
 372              		.global	ADC_SAR_1_CountsTo_mVolts
 373              		.thumb
 374              		.thumb_func
 375              		.type	ADC_SAR_1_CountsTo_mVolts, %function
 376              	ADC_SAR_1_CountsTo_mVolts:
 377              	.LFB14:
 378              		.loc 1 765 0
 379              		.cfi_startproc
 380              		@ args = 0, pretend = 0, frame = 0
 381              		@ frame_needed = 0, uses_anonymous_args = 0
 382              		@ link register save eliminated.
 383              	.LVL22:
 384              		.loc 1 770 0
 385 0000 064B     		ldr	r3, .L45
 386              		.loc 1 772 0
 387 0002 074A     		ldr	r2, .L45+4
 388              		.loc 1 770 0
 389 0004 1B88     		ldrh	r3, [r3, #0]
 390              		.loc 1 772 0
 391 0006 1288     		ldrh	r2, [r2, #0]
 392              		.loc 1 770 0
 393 0008 C31A     		subs	r3, r0, r3
 394              		.loc 1 772 0
 395 000a 1BB2     		sxth	r3, r3
 396 000c 4FF47A70 		mov	r0, #1000
 397              	.LVL23:
 398 0010 5843     		muls	r0, r3, r0
 399 0012 12B2     		sxth	r2, r2
 400 0014 90FBF2F0 		sdiv	r0, r0, r2
 401              		.loc 1 775 0
 402 0018 00B2     		sxth	r0, r0
 403 001a 7047     		bx	lr
 404              	.L46:
 405              		.align	2
 406              	.L45:
 407 001c 00000000 		.word	ADC_SAR_1_offset
 408 0020 00000000 		.word	ADC_SAR_1_countsPerVolt
 409              		.cfi_endproc
ARM GAS  C:\Users\SUZUKI~1\AppData\Local\Temp\cccyIThI.s 			page 23


 410              	.LFE14:
 411              		.size	ADC_SAR_1_CountsTo_mVolts, .-ADC_SAR_1_CountsTo_mVolts
 412              		.section	.text.ADC_SAR_1_CountsTo_uVolts,"ax",%progbits
 413              		.align	1
 414              		.global	ADC_SAR_1_CountsTo_uVolts
 415              		.thumb
 416              		.thumb_func
 417              		.type	ADC_SAR_1_CountsTo_uVolts, %function
 418              	ADC_SAR_1_CountsTo_uVolts:
 419              	.LFB15:
 420              		.loc 1 797 0
 421              		.cfi_startproc
 422              		@ args = 0, pretend = 0, frame = 0
 423              		@ frame_needed = 0, uses_anonymous_args = 0
 424              		@ link register save eliminated.
 425              	.LVL24:
 426              		.loc 1 802 0
 427 0000 064B     		ldr	r3, .L49
 428              		.loc 1 807 0
 429 0002 074A     		ldr	r2, .L49+4
 430              		.loc 1 802 0
 431 0004 1B88     		ldrh	r3, [r3, #0]
 432              		.loc 1 807 0
 433 0006 1288     		ldrh	r2, [r2, #0]
 434              		.loc 1 802 0
 435 0008 C31A     		subs	r3, r0, r3
 436              		.loc 1 807 0
 437 000a 0648     		ldr	r0, .L49+8
 438              	.LVL25:
 439 000c 1BB2     		sxth	r3, r3
 440 000e 5843     		muls	r0, r3, r0
 441 0010 12B2     		sxth	r2, r2
 442 0012 90FBF2F0 		sdiv	r0, r0, r2
 443              		.loc 1 810 0
 444 0016 4000     		lsls	r0, r0, #1
 445 0018 7047     		bx	lr
 446              	.L50:
 447 001a 00BF     		.align	2
 448              	.L49:
 449 001c 00000000 		.word	ADC_SAR_1_offset
 450 0020 00000000 		.word	ADC_SAR_1_countsPerVolt
 451 0024 20A10700 		.word	500000
 452              		.cfi_endproc
 453              	.LFE15:
 454              		.size	ADC_SAR_1_CountsTo_uVolts, .-ADC_SAR_1_CountsTo_uVolts
 455              		.global	__aeabi_i2f
 456              		.global	__aeabi_fdiv
 457              		.section	.text.ADC_SAR_1_CountsTo_Volts,"ax",%progbits
 458              		.align	1
 459              		.global	ADC_SAR_1_CountsTo_Volts
 460              		.thumb
 461              		.thumb_func
 462              		.type	ADC_SAR_1_CountsTo_Volts, %function
 463              	ADC_SAR_1_CountsTo_Volts:
 464              	.LFB16:
 465              		.loc 1 832 0
 466              		.cfi_startproc
ARM GAS  C:\Users\SUZUKI~1\AppData\Local\Temp\cccyIThI.s 			page 24


 467              		@ args = 0, pretend = 0, frame = 0
 468              		@ frame_needed = 0, uses_anonymous_args = 0
 469              	.LVL26:
 470 0000 38B5     		push	{r3, r4, r5, lr}
 471              	.LCFI0:
 472              		.cfi_def_cfa_offset 16
 473              		.loc 1 836 0
 474 0002 094B     		ldr	r3, .L53
 475              		.cfi_offset 14, -4
 476              		.cfi_offset 5, -8
 477              		.cfi_offset 4, -12
 478              		.cfi_offset 3, -16
 479 0004 1B88     		ldrh	r3, [r3, #0]
 480 0006 C01A     		subs	r0, r0, r3
 481              	.LVL27:
 482              		.loc 1 838 0
 483 0008 084B     		ldr	r3, .L53+4
 484 000a 00B2     		sxth	r0, r0
 485 000c 1D88     		ldrh	r5, [r3, #0]
 486 000e FFF7FEFF 		bl	__aeabi_i2f
 487 0012 ADB2     		uxth	r5, r5
 488 0014 0446     		mov	r4, r0
 489 0016 28B2     		sxth	r0, r5
 490 0018 FFF7FEFF 		bl	__aeabi_i2f
 491 001c 0146     		mov	r1, r0
 492 001e 2046     		mov	r0, r4
 493 0020 FFF7FEFF 		bl	__aeabi_fdiv
 494              		.loc 1 841 0
 495 0024 38BD     		pop	{r3, r4, r5, pc}
 496              	.L54:
 497 0026 00BF     		.align	2
 498              	.L53:
 499 0028 00000000 		.word	ADC_SAR_1_offset
 500 002c 00000000 		.word	ADC_SAR_1_countsPerVolt
 501              		.cfi_endproc
 502              	.LFE16:
 503              		.size	ADC_SAR_1_CountsTo_Volts, .-ADC_SAR_1_CountsTo_Volts
 504              		.section	.text.ADC_SAR_1_IsEndConversion,"ax",%progbits
 505              		.align	1
 506              		.global	ADC_SAR_1_IsEndConversion
 507              		.thumb
 508              		.thumb_func
 509              		.type	ADC_SAR_1_IsEndConversion, %function
 510              	ADC_SAR_1_IsEndConversion:
 511              	.LFB8:
 512              		.loc 1 497 0
 513              		.cfi_startproc
 514              		@ args = 0, pretend = 0, frame = 0
 515              		@ frame_needed = 0, uses_anonymous_args = 0
 516              	.LVL28:
 517 0000 38B5     		push	{r3, r4, r5, lr}
 518              	.LCFI1:
 519              		.cfi_def_cfa_offset 16
 520              	.LVL29:
 521              	.L57:
 522              		.loc 1 502 0
 523 0002 074D     		ldr	r5, .L60
ARM GAS  C:\Users\SUZUKI~1\AppData\Local\Temp\cccyIThI.s 			page 25


 524              		.cfi_offset 14, -4
 525              		.cfi_offset 5, -8
 526              		.cfi_offset 4, -12
 527              		.cfi_offset 3, -16
 528 0004 2C78     		ldrb	r4, [r5, #0]	@ zero_extendqisi2
 529              	.LVL30:
 530 0006 04F00104 		and	r4, r4, #1
 531              	.LVL31:
 532              		.loc 1 503 0
 533 000a 14B9     		cbnz	r4, .L56
 534 000c 0028     		cmp	r0, #0
 535 000e F8D0     		beq	.L57
 536 0010 03E0     		b	.L58
 537              	.L56:
 538              		.loc 1 508 0
 539 0012 2046     		mov	r0, r4
 540              	.LVL32:
 541 0014 FFF7FEFF 		bl	CyDelayUs
 542              		.loc 1 510 0
 543 0018 2B78     		ldrb	r3, [r5, #0]	@ zero_extendqisi2
 544              	.LVL33:
 545              	.L58:
 546              		.loc 1 514 0
 547 001a 2046     		mov	r0, r4
 548              	.LVL34:
 549 001c 38BD     		pop	{r3, r4, r5, pc}
 550              	.L61:
 551 001e 00BF     		.align	2
 552              	.L60:
 553 0020 01590040 		.word	1073764609
 554              		.cfi_endproc
 555              	.LFE8:
 556              		.size	ADC_SAR_1_IsEndConversion, .-ADC_SAR_1_IsEndConversion
 557              		.section	.text.ADC_SAR_1_Stop,"ax",%progbits
 558              		.align	1
 559              		.global	ADC_SAR_1_Stop
 560              		.thumb
 561              		.thumb_func
 562              		.type	ADC_SAR_1_Stop, %function
 563              	ADC_SAR_1_Stop:
 564              	.LFB3:
 565              		.loc 1 255 0
 566              		.cfi_startproc
 567              		@ args = 0, pretend = 0, frame = 0
 568              		@ frame_needed = 0, uses_anonymous_args = 0
 569 0000 10B5     		push	{r4, lr}
 570              	.LCFI2:
 571              		.cfi_def_cfa_offset 8
 572              		.loc 1 257 0
 573              		.cfi_offset 14, -4
 574              		.cfi_offset 4, -8
 575 0002 FFF7FEFF 		bl	CyEnterCriticalSection
 576              		.loc 1 260 0
 577 0006 124B     		ldr	r3, .L64
 578 0008 1A78     		ldrb	r2, [r3, #0]	@ zero_extendqisi2
 579 000a 02F0FE02 		and	r2, r2, #254
 580 000e 1A70     		strb	r2, [r3, #0]
ARM GAS  C:\Users\SUZUKI~1\AppData\Local\Temp\cccyIThI.s 			page 26


 581              		.loc 1 264 0
 582 0010 1A78     		ldrb	r2, [r3, #0]	@ zero_extendqisi2
 583 0012 42F0C002 		orr	r2, r2, #192
 584 0016 1A70     		strb	r2, [r3, #0]
 585              		.loc 1 266 0
 586 0018 0633     		adds	r3, r3, #6
 587 001a 1A78     		ldrb	r2, [r3, #0]	@ zero_extendqisi2
 588 001c 02F0FB02 		and	r2, r2, #251
 589 0020 1A70     		strb	r2, [r3, #0]
 590              		.loc 1 268 0
 591 0022 033B     		subs	r3, r3, #3
 592 0024 1A78     		ldrb	r2, [r3, #0]	@ zero_extendqisi2
 593 0026 02F0FE02 		and	r2, r2, #254
 594 002a 1A70     		strb	r2, [r3, #0]
 595              		.loc 1 269 0
 596 002c 1A78     		ldrb	r2, [r3, #0]	@ zero_extendqisi2
 597 002e 42F00C02 		orr	r2, r2, #12
 598 0032 1A70     		strb	r2, [r3, #0]
 599              		.loc 1 279 0
 600 0034 074B     		ldr	r3, .L64+4
 601 0036 1A78     		ldrb	r2, [r3, #0]	@ zero_extendqisi2
 602 0038 02F0FE02 		and	r2, r2, #254
 603 003c 1A70     		strb	r2, [r3, #0]
 604              		.loc 1 280 0
 605 003e 1033     		adds	r3, r3, #16
 606 0040 1A78     		ldrb	r2, [r3, #0]	@ zero_extendqisi2
 607 0042 02F0FE02 		and	r2, r2, #254
 608 0046 1A70     		strb	r2, [r3, #0]
 609              		.loc 1 285 0
 610 0048 BDE81040 		pop	{r4, lr}
 611              		.loc 1 283 0
 612 004c FFF7FEBF 		b	CyExitCriticalSection
 613              	.L65:
 614              		.align	2
 615              	.L64:
 616 0050 00590040 		.word	1073764608
 617 0054 A1430040 		.word	1073759137
 618              		.cfi_endproc
 619              	.LFE3:
 620              		.size	ADC_SAR_1_Stop, .-ADC_SAR_1_Stop
 621              		.section	.text.ADC_SAR_1_Enable,"ax",%progbits
 622              		.align	1
 623              		.global	ADC_SAR_1_Enable
 624              		.thumb
 625              		.thumb_func
 626              		.type	ADC_SAR_1_Enable, %function
 627              	ADC_SAR_1_Enable:
 628              	.LFB2:
 629              		.loc 1 145 0
 630              		.cfi_startproc
 631              		@ args = 0, pretend = 0, frame = 0
 632              		@ frame_needed = 0, uses_anonymous_args = 0
 633 0000 70B5     		push	{r4, r5, r6, lr}
 634              	.LCFI3:
 635              		.cfi_def_cfa_offset 16
 636              		.loc 1 148 0
 637              		.cfi_offset 14, -4
ARM GAS  C:\Users\SUZUKI~1\AppData\Local\Temp\cccyIThI.s 			page 27


 638              		.cfi_offset 6, -8
 639              		.cfi_offset 5, -12
 640              		.cfi_offset 4, -16
 641 0002 FFF7FEFF 		bl	CyEnterCriticalSection
 642              		.loc 1 151 0
 643 0006 224B     		ldr	r3, .L68
 644              		.loc 1 207 0
 645 0008 224C     		ldr	r4, .L68+4
 646              		.loc 1 151 0
 647 000a 1A78     		ldrb	r2, [r3, #0]	@ zero_extendqisi2
 648              		.loc 1 148 0
 649 000c 0546     		mov	r5, r0
 650              		.loc 1 151 0
 651 000e 42F00102 		orr	r2, r2, #1
 652 0012 1A70     		strb	r2, [r3, #0]
 653              		.loc 1 154 0
 654 0014 1033     		adds	r3, r3, #16
 655 0016 1A78     		ldrb	r2, [r3, #0]	@ zero_extendqisi2
 656              		.loc 1 225 0
 657 0018 0220     		movs	r0, #2
 658              		.loc 1 154 0
 659 001a 42F00102 		orr	r2, r2, #1
 660 001e 1A70     		strb	r2, [r3, #0]
 661              		.loc 1 158 0
 662 0020 1A3B     		subs	r3, r3, #26
 663 0022 1A78     		ldrb	r2, [r3, #0]	@ zero_extendqisi2
 664 0024 42F00102 		orr	r2, r2, #1
 665 0028 1A70     		strb	r2, [r3, #0]
 666              		.loc 1 159 0
 667 002a 1033     		adds	r3, r3, #16
 668 002c 1A78     		ldrb	r2, [r3, #0]	@ zero_extendqisi2
 669 002e 42F00102 		orr	r2, r2, #1
 670 0032 1A70     		strb	r2, [r3, #0]
 671              		.loc 1 163 0
 672 0034 184B     		ldr	r3, .L68+8
 673 0036 1A78     		ldrb	r2, [r3, #0]	@ zero_extendqisi2
 674              		.loc 1 165 0
 675 0038 02F0F302 		and	r2, r2, #243
 676              	.LVL35:
 677              		.loc 1 173 0
 678 003c 42F00302 		orr	r2, r2, #3
 679              	.LVL36:
 680              		.loc 1 175 0
 681 0040 1A70     		strb	r2, [r3, #0]
 682              		.loc 1 186 0
 683 0042 1822     		movs	r2, #24
 684              	.LVL37:
 685 0044 0333     		adds	r3, r3, #3
 686 0046 1A70     		strb	r2, [r3, #0]
 687              		.loc 1 196 0
 688 0048 013B     		subs	r3, r3, #1
 689 004a 1A78     		ldrb	r2, [r3, #0]	@ zero_extendqisi2
 690 004c 42F04002 		orr	r2, r2, #64
 691 0050 1A70     		strb	r2, [r3, #0]
 692              		.loc 1 203 0
 693 0052 1A78     		ldrb	r2, [r3, #0]	@ zero_extendqisi2
 694 0054 02F0DF02 		and	r2, r2, #223
ARM GAS  C:\Users\SUZUKI~1\AppData\Local\Temp\cccyIThI.s 			page 28


 695 0058 1A70     		strb	r2, [r3, #0]
 696              		.loc 1 207 0
 697 005a 6FF03103 		mvn	r3, #49
 698 005e 2370     		strb	r3, [r4, #0]
 699              		.loc 1 220 0
 700 0060 0E4B     		ldr	r3, .L68+12
 701 0062 1A78     		ldrb	r2, [r3, #0]	@ zero_extendqisi2
 702 0064 42F00802 		orr	r2, r2, #8
 703 0068 1A70     		strb	r2, [r3, #0]
 704              		.loc 1 224 0
 705 006a 2378     		ldrb	r3, [r4, #0]	@ zero_extendqisi2
 706 006c 43F02003 		orr	r3, r3, #32
 707 0070 2370     		strb	r3, [r4, #0]
 708              		.loc 1 225 0
 709 0072 FFF7FEFF 		bl	CyDelayUs
 710              		.loc 1 226 0
 711 0076 2378     		ldrb	r3, [r4, #0]	@ zero_extendqisi2
 712              		.loc 1 233 0
 713 0078 0222     		movs	r2, #2
 714              		.loc 1 226 0
 715 007a 03F0DF03 		and	r3, r3, #223
 716 007e 2370     		strb	r3, [r4, #0]
 717              		.loc 1 233 0
 718 0080 074B     		ldr	r3, .L68+16
 719              		.loc 1 236 0
 720 0082 2846     		mov	r0, r5
 721              		.loc 1 233 0
 722 0084 1A60     		str	r2, [r3, #0]
 723              		.loc 1 237 0
 724 0086 BDE87040 		pop	{r4, r5, r6, lr}
 725              		.loc 1 236 0
 726 008a FFF7FEBF 		b	CyExitCriticalSection
 727              	.L69:
 728 008e 00BF     		.align	2
 729              	.L68:
 730 0090 AB430040 		.word	1073759147
 731 0094 00590040 		.word	1073764608
 732 0098 03590040 		.word	1073764611
 733 009c 275B0040 		.word	1073765159
 734 00a0 80E200E0 		.word	-536812928
 735              		.cfi_endproc
 736              	.LFE2:
 737              		.size	ADC_SAR_1_Enable, .-ADC_SAR_1_Enable
 738              		.section	.text.ADC_SAR_1_Init,"ax",%progbits
 739              		.align	1
 740              		.global	ADC_SAR_1_Init
 741              		.thumb
 742              		.thumb_func
 743              		.type	ADC_SAR_1_Init, %function
 744              	ADC_SAR_1_Init:
 745              	.LFB1:
 746              		.loc 1 108 0
 747              		.cfi_startproc
 748              		@ args = 0, pretend = 0, frame = 0
 749              		@ frame_needed = 0, uses_anonymous_args = 0
 750 0000 08B5     		push	{r3, lr}
 751              	.LCFI4:
ARM GAS  C:\Users\SUZUKI~1\AppData\Local\Temp\cccyIThI.s 			page 29


 752              		.cfi_def_cfa_offset 8
 753              		.loc 1 112 0
 754 0002 1020     		movs	r0, #16
 755              		.cfi_offset 14, -4
 756              		.cfi_offset 3, -8
 757 0004 FFF7FEFF 		bl	ADC_SAR_1_theACLK_SetModeRegister
 758              		.loc 1 117 0
 759 0008 0120     		movs	r0, #1
 760 000a 0721     		movs	r1, #7
 761 000c FFF7FEFF 		bl	CyIntSetPriority
 762              		.loc 1 118 0
 763 0010 0849     		ldr	r1, .L72
 764 0012 0120     		movs	r0, #1
 765 0014 FFF7FEFF 		bl	CyIntSetVector
 766              		.loc 1 122 0
 767 0018 074B     		ldr	r3, .L72+4
 768              		.loc 1 125 0
 769 001a 0C20     		movs	r0, #12
 770              		.loc 1 122 0
 771 001c 1A78     		ldrb	r2, [r3, #0]	@ zero_extendqisi2
 772 001e 42F00602 		orr	r2, r2, #6
 773 0022 1A70     		strb	r2, [r3, #0]
 774              		.loc 1 125 0
 775 0024 FFF7FEFF 		bl	ADC_SAR_1_SetResolution
 776              		.loc 1 126 0
 777 0028 044B     		ldr	r3, .L72+8
 778 002a 4FF00002 		mov	r2, #0	@ movhi
 779 002e 1A80     		strh	r2, [r3, #0]	@ movhi
 780              		.loc 1 127 0
 781 0030 08BD     		pop	{r3, pc}
 782              	.L73:
 783 0032 00BF     		.align	2
 784              	.L72:
 785 0034 00000000 		.word	ADC_SAR_1_ISR
 786 0038 01590040 		.word	1073764609
 787 003c 00000000 		.word	ADC_SAR_1_offset
 788              		.cfi_endproc
 789              	.LFE1:
 790              		.size	ADC_SAR_1_Init, .-ADC_SAR_1_Init
 791              		.section	.text.ADC_SAR_1_Start,"ax",%progbits
 792              		.align	1
 793              		.global	ADC_SAR_1_Start
 794              		.thumb
 795              		.thumb_func
 796              		.type	ADC_SAR_1_Start, %function
 797              	ADC_SAR_1_Start:
 798              	.LFB0:
 799              		.loc 1 76 0
 800              		.cfi_startproc
 801              		@ args = 0, pretend = 0, frame = 0
 802              		@ frame_needed = 0, uses_anonymous_args = 0
 803 0000 10B5     		push	{r4, lr}
 804              	.LCFI5:
 805              		.cfi_def_cfa_offset 8
 806              		.loc 1 79 0
 807 0002 054C     		ldr	r4, .L77
 808              		.cfi_offset 14, -4
ARM GAS  C:\Users\SUZUKI~1\AppData\Local\Temp\cccyIThI.s 			page 30


 809              		.cfi_offset 4, -8
 810 0004 6378     		ldrb	r3, [r4, #1]	@ zero_extendqisi2
 811 0006 1BB9     		cbnz	r3, .L75
 812              		.loc 1 81 0
 813 0008 FFF7FEFF 		bl	ADC_SAR_1_Init
 814              		.loc 1 82 0
 815 000c 0123     		movs	r3, #1
 816 000e 6370     		strb	r3, [r4, #1]
 817              	.L75:
 818              		.loc 1 85 0
 819 0010 BDE81040 		pop	{r4, lr}
 820              		.loc 1 84 0
 821 0014 FFF7FEBF 		b	ADC_SAR_1_Enable
 822              	.L78:
 823              		.align	2
 824              	.L77:
 825 0018 00000000 		.word	.LANCHOR0
 826              		.cfi_endproc
 827              	.LFE0:
 828              		.size	ADC_SAR_1_Start, .-ADC_SAR_1_Start
 829              		.global	ADC_SAR_1_initVar
 830              		.comm	ADC_SAR_1_offset,2,2
 831              		.comm	ADC_SAR_1_countsPerVolt,2,2
 832              		.comm	ADC_SAR_1_shift,2,2
 833              		.section	.rodata
 834              		.align	2
 835              		.set	.LANCHOR1,. + 0
 836              		.type	CSWTCH.24, %object
 837              		.size	CSWTCH.24, 20
 838              	CSWTCH.24:
 839 0000 FF000000 		.word	255
 840 0004 00000000 		.word	0
 841 0008 FF030000 		.word	1023
 842 000c 00000000 		.word	0
 843 0010 FF0F0000 		.word	4095
 844              		.type	CSWTCH.25, %object
 845              		.size	CSWTCH.25, 10
 846              	CSWTCH.25:
 847 0014 8000     		.short	128
 848 0016 0000     		.short	0
 849 0018 0002     		.short	512
 850 001a 0000     		.short	0
 851 001c 0008     		.short	2048
 852 001e 0000     		.bss
 853              		.set	.LANCHOR0,. + 0
 854              		.type	ADC_SAR_1_resolution, %object
 855              		.size	ADC_SAR_1_resolution, 1
 856              	ADC_SAR_1_resolution:
 857 0000 00       		.space	1
 858              		.type	ADC_SAR_1_initVar, %object
 859              		.size	ADC_SAR_1_initVar, 1
 860              	ADC_SAR_1_initVar:
 861 0001 00       		.space	1
 862              		.text
 863              	.Letext0:
