ARM GAS  C:\Users\SUZUKI~1\AppData\Local\Temp\ccM22Nsb.s 			page 1


   1              		.syntax unified
   2              		.cpu cortex-m3
   3              		.fpu softvfp
   4              		.eabi_attribute 20, 1
   5              		.eabi_attribute 21, 1
   6              		.eabi_attribute 23, 3
   7              		.eabi_attribute 24, 1
   8              		.eabi_attribute 25, 1
   9              		.eabi_attribute 26, 1
  10              		.eabi_attribute 30, 4
  11              		.eabi_attribute 18, 4
  12              		.thumb
  13              		.file	"Counter_ADC_PM.c"
  14              		.section	.debug_abbrev,"",%progbits
  15              	.Ldebug_abbrev0:
  16              		.section	.debug_info,"",%progbits
  17              	.Ldebug_info0:
  18              		.section	.debug_line,"",%progbits
  19              	.Ldebug_line0:
  20 0000 DF000000 		.text
  20      02007800 
  20      00000201 
  20      FB0E0D00 
  20      01010101 
  21              	.Ltext0:
  22              		.cfi_sections	.debug_frame
  23              		.section	.text.Counter_ADC_RestoreConfig,"ax",%progbits
  24              		.align	1
  25              		.global	Counter_ADC_RestoreConfig
  26              		.thumb
  27              		.thumb_func
  28              		.type	Counter_ADC_RestoreConfig, %function
  29              	Counter_ADC_RestoreConfig:
  30              	.LFB1:
  31              		.file 1 ".\\Generated_Source\\PSoC5\\Counter_ADC_PM.c"
   1:.\Generated_Source\PSoC5/Counter_ADC_PM.c **** /*******************************************************************************
   2:.\Generated_Source\PSoC5/Counter_ADC_PM.c **** * File Name: Counter_ADC_PM.c  
   3:.\Generated_Source\PSoC5/Counter_ADC_PM.c **** * Version 2.30
   4:.\Generated_Source\PSoC5/Counter_ADC_PM.c **** *
   5:.\Generated_Source\PSoC5/Counter_ADC_PM.c **** *  Description:
   6:.\Generated_Source\PSoC5/Counter_ADC_PM.c **** *    This file provides the power management source code to API for the
   7:.\Generated_Source\PSoC5/Counter_ADC_PM.c **** *    Counter.  
   8:.\Generated_Source\PSoC5/Counter_ADC_PM.c **** *
   9:.\Generated_Source\PSoC5/Counter_ADC_PM.c **** *   Note:
  10:.\Generated_Source\PSoC5/Counter_ADC_PM.c **** *     None
  11:.\Generated_Source\PSoC5/Counter_ADC_PM.c **** *
  12:.\Generated_Source\PSoC5/Counter_ADC_PM.c **** *******************************************************************************
  13:.\Generated_Source\PSoC5/Counter_ADC_PM.c **** * Copyright 2008-2012, Cypress Semiconductor Corporation.  All rights reserved.
  14:.\Generated_Source\PSoC5/Counter_ADC_PM.c **** * You may use this file only in accordance with the license, terms, conditions, 
  15:.\Generated_Source\PSoC5/Counter_ADC_PM.c **** * disclaimers, and limitations in the end user license agreement accompanying 
  16:.\Generated_Source\PSoC5/Counter_ADC_PM.c **** * the software package with which this file was provided.
  17:.\Generated_Source\PSoC5/Counter_ADC_PM.c **** ********************************************************************************/
  18:.\Generated_Source\PSoC5/Counter_ADC_PM.c **** 
  19:.\Generated_Source\PSoC5/Counter_ADC_PM.c **** #include "Counter_ADC.h"
  20:.\Generated_Source\PSoC5/Counter_ADC_PM.c **** 
  21:.\Generated_Source\PSoC5/Counter_ADC_PM.c **** static Counter_ADC_backupStruct Counter_ADC_backup;
  22:.\Generated_Source\PSoC5/Counter_ADC_PM.c **** 
ARM GAS  C:\Users\SUZUKI~1\AppData\Local\Temp\ccM22Nsb.s 			page 2


  23:.\Generated_Source\PSoC5/Counter_ADC_PM.c **** 
  24:.\Generated_Source\PSoC5/Counter_ADC_PM.c **** /*******************************************************************************
  25:.\Generated_Source\PSoC5/Counter_ADC_PM.c **** * Function Name: Counter_ADC_SaveConfig
  26:.\Generated_Source\PSoC5/Counter_ADC_PM.c **** ********************************************************************************
  27:.\Generated_Source\PSoC5/Counter_ADC_PM.c **** * Summary:
  28:.\Generated_Source\PSoC5/Counter_ADC_PM.c **** *     Save the current user configuration
  29:.\Generated_Source\PSoC5/Counter_ADC_PM.c **** *
  30:.\Generated_Source\PSoC5/Counter_ADC_PM.c **** * Parameters:  
  31:.\Generated_Source\PSoC5/Counter_ADC_PM.c **** *  void
  32:.\Generated_Source\PSoC5/Counter_ADC_PM.c **** *
  33:.\Generated_Source\PSoC5/Counter_ADC_PM.c **** * Return: 
  34:.\Generated_Source\PSoC5/Counter_ADC_PM.c **** *  void
  35:.\Generated_Source\PSoC5/Counter_ADC_PM.c **** *
  36:.\Generated_Source\PSoC5/Counter_ADC_PM.c **** * Global variables:
  37:.\Generated_Source\PSoC5/Counter_ADC_PM.c **** *  Counter_ADC_backup:  Variables of this global structure are modified to 
  38:.\Generated_Source\PSoC5/Counter_ADC_PM.c **** *  store the values of non retention configuration registers when Sleep() API is 
  39:.\Generated_Source\PSoC5/Counter_ADC_PM.c **** *  called.
  40:.\Generated_Source\PSoC5/Counter_ADC_PM.c **** *
  41:.\Generated_Source\PSoC5/Counter_ADC_PM.c **** *******************************************************************************/
  42:.\Generated_Source\PSoC5/Counter_ADC_PM.c **** void Counter_ADC_SaveConfig(void) 
  43:.\Generated_Source\PSoC5/Counter_ADC_PM.c **** {
  44:.\Generated_Source\PSoC5/Counter_ADC_PM.c ****     #if (!Counter_ADC_UsingFixedFunction)
  45:.\Generated_Source\PSoC5/Counter_ADC_PM.c ****         /* Backup the UDB non-rentention registers for PSoC5A */
  46:.\Generated_Source\PSoC5/Counter_ADC_PM.c ****         #if (CY_PSOC5A)
  47:.\Generated_Source\PSoC5/Counter_ADC_PM.c ****             Counter_ADC_backup.CounterUdb = Counter_ADC_ReadCounter();
  48:.\Generated_Source\PSoC5/Counter_ADC_PM.c ****             Counter_ADC_backup.CounterPeriod = Counter_ADC_ReadPeriod();
  49:.\Generated_Source\PSoC5/Counter_ADC_PM.c ****             Counter_ADC_backup.CompareValue = Counter_ADC_ReadCompare();
  50:.\Generated_Source\PSoC5/Counter_ADC_PM.c ****             Counter_ADC_backup.InterruptMaskValue = Counter_ADC_STATUS_MASK;
  51:.\Generated_Source\PSoC5/Counter_ADC_PM.c ****         #endif /* (CY_PSOC5A) */
  52:.\Generated_Source\PSoC5/Counter_ADC_PM.c ****         
  53:.\Generated_Source\PSoC5/Counter_ADC_PM.c ****         #if (CY_PSOC3 || CY_PSOC5LP)
  54:.\Generated_Source\PSoC5/Counter_ADC_PM.c ****             Counter_ADC_backup.CounterUdb = Counter_ADC_ReadCounter();
  55:.\Generated_Source\PSoC5/Counter_ADC_PM.c ****             Counter_ADC_backup.InterruptMaskValue = Counter_ADC_STATUS_MASK;
  56:.\Generated_Source\PSoC5/Counter_ADC_PM.c ****         #endif /* (CY_PSOC3 || CY_PSOC5LP) */
  57:.\Generated_Source\PSoC5/Counter_ADC_PM.c ****         
  58:.\Generated_Source\PSoC5/Counter_ADC_PM.c ****         #if(!Counter_ADC_ControlRegRemoved)
  59:.\Generated_Source\PSoC5/Counter_ADC_PM.c ****             Counter_ADC_backup.CounterControlRegister = Counter_ADC_ReadControlRegister();
  60:.\Generated_Source\PSoC5/Counter_ADC_PM.c ****         #endif /* (!Counter_ADC_ControlRegRemoved) */
  61:.\Generated_Source\PSoC5/Counter_ADC_PM.c ****     #endif /* (!Counter_ADC_UsingFixedFunction) */
  62:.\Generated_Source\PSoC5/Counter_ADC_PM.c **** }
  63:.\Generated_Source\PSoC5/Counter_ADC_PM.c **** 
  64:.\Generated_Source\PSoC5/Counter_ADC_PM.c **** 
  65:.\Generated_Source\PSoC5/Counter_ADC_PM.c **** /*******************************************************************************
  66:.\Generated_Source\PSoC5/Counter_ADC_PM.c **** * Function Name: Counter_ADC_RestoreConfig
  67:.\Generated_Source\PSoC5/Counter_ADC_PM.c **** ********************************************************************************
  68:.\Generated_Source\PSoC5/Counter_ADC_PM.c **** *
  69:.\Generated_Source\PSoC5/Counter_ADC_PM.c **** * Summary:
  70:.\Generated_Source\PSoC5/Counter_ADC_PM.c **** *  Restores the current user configuration.
  71:.\Generated_Source\PSoC5/Counter_ADC_PM.c **** *
  72:.\Generated_Source\PSoC5/Counter_ADC_PM.c **** * Parameters:  
  73:.\Generated_Source\PSoC5/Counter_ADC_PM.c **** *  void
  74:.\Generated_Source\PSoC5/Counter_ADC_PM.c **** *
  75:.\Generated_Source\PSoC5/Counter_ADC_PM.c **** * Return: 
  76:.\Generated_Source\PSoC5/Counter_ADC_PM.c **** *  void
  77:.\Generated_Source\PSoC5/Counter_ADC_PM.c **** *
  78:.\Generated_Source\PSoC5/Counter_ADC_PM.c **** * Global variables:
  79:.\Generated_Source\PSoC5/Counter_ADC_PM.c **** *  Counter_ADC_backup:  Variables of this global structure are used to 
ARM GAS  C:\Users\SUZUKI~1\AppData\Local\Temp\ccM22Nsb.s 			page 3


  80:.\Generated_Source\PSoC5/Counter_ADC_PM.c **** *  restore the values of non retention registers on wakeup from sleep mode.
  81:.\Generated_Source\PSoC5/Counter_ADC_PM.c **** *
  82:.\Generated_Source\PSoC5/Counter_ADC_PM.c **** *******************************************************************************/
  83:.\Generated_Source\PSoC5/Counter_ADC_PM.c **** void Counter_ADC_RestoreConfig(void) 
  84:.\Generated_Source\PSoC5/Counter_ADC_PM.c **** {      
  32              		.loc 1 84 0
  33              		.cfi_startproc
  34              		@ args = 0, pretend = 0, frame = 0
  35              		@ frame_needed = 0, uses_anonymous_args = 0
  36 0000 10B5     		push	{r4, lr}
  37              	.LCFI0:
  38              		.cfi_def_cfa_offset 8
  85:.\Generated_Source\PSoC5/Counter_ADC_PM.c ****     #if (!Counter_ADC_UsingFixedFunction)     
  86:.\Generated_Source\PSoC5/Counter_ADC_PM.c ****         /* Restore the UDB non-rentention registers for PSoC5A */
  87:.\Generated_Source\PSoC5/Counter_ADC_PM.c ****         #if (CY_PSOC5A)
  88:.\Generated_Source\PSoC5/Counter_ADC_PM.c ****             /* Interrupt State Backup for Critical Region*/
  89:.\Generated_Source\PSoC5/Counter_ADC_PM.c ****             uint8 Counter_ADC_interruptState;
  90:.\Generated_Source\PSoC5/Counter_ADC_PM.c ****         
  91:.\Generated_Source\PSoC5/Counter_ADC_PM.c ****             Counter_ADC_WriteCounter(Counter_ADC_backup.CounterUdb);
  39              		.loc 1 91 0
  40 0002 0D4C     		ldr	r4, .L3
  41              		.cfi_offset 14, -4
  42              		.cfi_offset 4, -8
  43 0004 6088     		ldrh	r0, [r4, #2]
  44 0006 FFF7FEFF 		bl	Counter_ADC_WriteCounter
  92:.\Generated_Source\PSoC5/Counter_ADC_PM.c ****             Counter_ADC_WritePeriod(Counter_ADC_backup.CounterPeriod);
  45              		.loc 1 92 0
  46 000a A088     		ldrh	r0, [r4, #4]
  47 000c FFF7FEFF 		bl	Counter_ADC_WritePeriod
  93:.\Generated_Source\PSoC5/Counter_ADC_PM.c ****             Counter_ADC_WriteCompare(Counter_ADC_backup.CompareValue);
  48              		.loc 1 93 0
  49 0010 E088     		ldrh	r0, [r4, #6]
  50 0012 FFF7FEFF 		bl	Counter_ADC_WriteCompare
  94:.\Generated_Source\PSoC5/Counter_ADC_PM.c ****             /* Enter Critical Region*/
  95:.\Generated_Source\PSoC5/Counter_ADC_PM.c ****             Counter_ADC_interruptState = CyEnterCriticalSection();
  51              		.loc 1 95 0
  52 0016 FFF7FEFF 		bl	CyEnterCriticalSection
  96:.\Generated_Source\PSoC5/Counter_ADC_PM.c ****         
  97:.\Generated_Source\PSoC5/Counter_ADC_PM.c ****             Counter_ADC_STATUS_AUX_CTRL |= Counter_ADC_STATUS_ACTL_INT_EN_MASK;
  53              		.loc 1 97 0
  54 001a 084B     		ldr	r3, .L3+4
  55 001c 1A78     		ldrb	r2, [r3, #0]	@ zero_extendqisi2
  56 001e 42F01002 		orr	r2, r2, #16
  57 0022 1A70     		strb	r2, [r3, #0]
  98:.\Generated_Source\PSoC5/Counter_ADC_PM.c ****             /* Exit Critical Region*/
  99:.\Generated_Source\PSoC5/Counter_ADC_PM.c ****             CyExitCriticalSection(Counter_ADC_interruptState);
  58              		.loc 1 99 0
  59 0024 FFF7FEFF 		bl	CyExitCriticalSection
 100:.\Generated_Source\PSoC5/Counter_ADC_PM.c ****             Counter_ADC_STATUS_MASK = Counter_ADC_backup.InterruptMaskValue;
  60              		.loc 1 100 0
  61 0028 227A     		ldrb	r2, [r4, #8]	@ zero_extendqisi2
  62 002a 054B     		ldr	r3, .L3+8
  63 002c 1A70     		strb	r2, [r3, #0]
 101:.\Generated_Source\PSoC5/Counter_ADC_PM.c ****         #endif  /* (CY_PSOC5A) */
 102:.\Generated_Source\PSoC5/Counter_ADC_PM.c ****         
 103:.\Generated_Source\PSoC5/Counter_ADC_PM.c ****         #if (CY_PSOC3 || CY_PSOC5LP)
 104:.\Generated_Source\PSoC5/Counter_ADC_PM.c ****             Counter_ADC_WriteCounter(Counter_ADC_backup.CounterUdb);
ARM GAS  C:\Users\SUZUKI~1\AppData\Local\Temp\ccM22Nsb.s 			page 4


 105:.\Generated_Source\PSoC5/Counter_ADC_PM.c ****             Counter_ADC_STATUS_MASK = Counter_ADC_backup.InterruptMaskValue;
 106:.\Generated_Source\PSoC5/Counter_ADC_PM.c ****         #endif /* (CY_PSOC3 || CY_PSOC5LP) */
 107:.\Generated_Source\PSoC5/Counter_ADC_PM.c ****         
 108:.\Generated_Source\PSoC5/Counter_ADC_PM.c ****         #if(!Counter_ADC_ControlRegRemoved)
 109:.\Generated_Source\PSoC5/Counter_ADC_PM.c ****             Counter_ADC_WriteControlRegister(Counter_ADC_backup.CounterControlRegister);
  64              		.loc 1 109 0
  65 002e 607A     		ldrb	r0, [r4, #9]	@ zero_extendqisi2
 110:.\Generated_Source\PSoC5/Counter_ADC_PM.c ****         #endif /* (!Counter_ADC_ControlRegRemoved) */
 111:.\Generated_Source\PSoC5/Counter_ADC_PM.c ****     #endif /* (!Counter_ADC_UsingFixedFunction) */
 112:.\Generated_Source\PSoC5/Counter_ADC_PM.c **** }
  66              		.loc 1 112 0
  67 0030 BDE81040 		pop	{r4, lr}
  68              		.loc 1 109 0
  69 0034 FFF7FEBF 		b	Counter_ADC_WriteControlRegister
  70              	.L4:
  71              		.align	2
  72              	.L3:
  73 0038 00000000 		.word	.LANCHOR0
  74 003c 96650040 		.word	1073767830
  75 0040 86650040 		.word	1073767814
  76              		.cfi_endproc
  77              	.LFE1:
  78              		.size	Counter_ADC_RestoreConfig, .-Counter_ADC_RestoreConfig
  79              		.section	.text.Counter_ADC_Wakeup,"ax",%progbits
  80              		.align	1
  81              		.global	Counter_ADC_Wakeup
  82              		.thumb
  83              		.thumb_func
  84              		.type	Counter_ADC_Wakeup, %function
  85              	Counter_ADC_Wakeup:
  86              	.LFB3:
 113:.\Generated_Source\PSoC5/Counter_ADC_PM.c **** 
 114:.\Generated_Source\PSoC5/Counter_ADC_PM.c **** 
 115:.\Generated_Source\PSoC5/Counter_ADC_PM.c **** /*******************************************************************************
 116:.\Generated_Source\PSoC5/Counter_ADC_PM.c **** * Function Name: Counter_ADC_Sleep
 117:.\Generated_Source\PSoC5/Counter_ADC_PM.c **** ********************************************************************************
 118:.\Generated_Source\PSoC5/Counter_ADC_PM.c **** * Summary:
 119:.\Generated_Source\PSoC5/Counter_ADC_PM.c **** *     Stop and Save the user configuration
 120:.\Generated_Source\PSoC5/Counter_ADC_PM.c **** *
 121:.\Generated_Source\PSoC5/Counter_ADC_PM.c **** * Parameters:  
 122:.\Generated_Source\PSoC5/Counter_ADC_PM.c **** *  void
 123:.\Generated_Source\PSoC5/Counter_ADC_PM.c **** *
 124:.\Generated_Source\PSoC5/Counter_ADC_PM.c **** * Return: 
 125:.\Generated_Source\PSoC5/Counter_ADC_PM.c **** *  void
 126:.\Generated_Source\PSoC5/Counter_ADC_PM.c **** *
 127:.\Generated_Source\PSoC5/Counter_ADC_PM.c **** * Global variables:
 128:.\Generated_Source\PSoC5/Counter_ADC_PM.c **** *  Counter_ADC_backup.enableState:  Is modified depending on the enable 
 129:.\Generated_Source\PSoC5/Counter_ADC_PM.c **** *  state of the block before entering sleep mode.
 130:.\Generated_Source\PSoC5/Counter_ADC_PM.c **** *
 131:.\Generated_Source\PSoC5/Counter_ADC_PM.c **** *******************************************************************************/
 132:.\Generated_Source\PSoC5/Counter_ADC_PM.c **** void Counter_ADC_Sleep(void) 
 133:.\Generated_Source\PSoC5/Counter_ADC_PM.c **** {
 134:.\Generated_Source\PSoC5/Counter_ADC_PM.c ****     #if(!Counter_ADC_ControlRegRemoved)
 135:.\Generated_Source\PSoC5/Counter_ADC_PM.c ****         /* Save Counter's enable state */
 136:.\Generated_Source\PSoC5/Counter_ADC_PM.c ****         if(Counter_ADC_CTRL_ENABLE == (Counter_ADC_CONTROL & Counter_ADC_CTRL_ENABLE))
 137:.\Generated_Source\PSoC5/Counter_ADC_PM.c ****         {
 138:.\Generated_Source\PSoC5/Counter_ADC_PM.c ****             /* Counter is enabled */
ARM GAS  C:\Users\SUZUKI~1\AppData\Local\Temp\ccM22Nsb.s 			page 5


 139:.\Generated_Source\PSoC5/Counter_ADC_PM.c ****             Counter_ADC_backup.CounterEnableState = 1u;
 140:.\Generated_Source\PSoC5/Counter_ADC_PM.c ****         }
 141:.\Generated_Source\PSoC5/Counter_ADC_PM.c ****         else
 142:.\Generated_Source\PSoC5/Counter_ADC_PM.c ****         {
 143:.\Generated_Source\PSoC5/Counter_ADC_PM.c ****             /* Counter is disabled */
 144:.\Generated_Source\PSoC5/Counter_ADC_PM.c ****             Counter_ADC_backup.CounterEnableState = 0u;
 145:.\Generated_Source\PSoC5/Counter_ADC_PM.c ****         }
 146:.\Generated_Source\PSoC5/Counter_ADC_PM.c ****     #else
 147:.\Generated_Source\PSoC5/Counter_ADC_PM.c ****         Counter_ADC_backup.CounterEnableState = 1u;
 148:.\Generated_Source\PSoC5/Counter_ADC_PM.c ****         if(Counter_ADC_backup.CounterEnableState != 0u)
 149:.\Generated_Source\PSoC5/Counter_ADC_PM.c ****         {
 150:.\Generated_Source\PSoC5/Counter_ADC_PM.c ****             Counter_ADC_backup.CounterEnableState = 0u;
 151:.\Generated_Source\PSoC5/Counter_ADC_PM.c ****         }
 152:.\Generated_Source\PSoC5/Counter_ADC_PM.c ****     #endif /* (!Counter_ADC_ControlRegRemoved) */
 153:.\Generated_Source\PSoC5/Counter_ADC_PM.c ****     
 154:.\Generated_Source\PSoC5/Counter_ADC_PM.c ****     Counter_ADC_Stop();
 155:.\Generated_Source\PSoC5/Counter_ADC_PM.c ****     Counter_ADC_SaveConfig();
 156:.\Generated_Source\PSoC5/Counter_ADC_PM.c **** }
 157:.\Generated_Source\PSoC5/Counter_ADC_PM.c **** 
 158:.\Generated_Source\PSoC5/Counter_ADC_PM.c **** 
 159:.\Generated_Source\PSoC5/Counter_ADC_PM.c **** /*******************************************************************************
 160:.\Generated_Source\PSoC5/Counter_ADC_PM.c **** * Function Name: Counter_ADC_Wakeup
 161:.\Generated_Source\PSoC5/Counter_ADC_PM.c **** ********************************************************************************
 162:.\Generated_Source\PSoC5/Counter_ADC_PM.c **** *
 163:.\Generated_Source\PSoC5/Counter_ADC_PM.c **** * Summary:
 164:.\Generated_Source\PSoC5/Counter_ADC_PM.c **** *  Restores and enables the user configuration
 165:.\Generated_Source\PSoC5/Counter_ADC_PM.c **** *  
 166:.\Generated_Source\PSoC5/Counter_ADC_PM.c **** * Parameters:  
 167:.\Generated_Source\PSoC5/Counter_ADC_PM.c **** *  void
 168:.\Generated_Source\PSoC5/Counter_ADC_PM.c **** *
 169:.\Generated_Source\PSoC5/Counter_ADC_PM.c **** * Return: 
 170:.\Generated_Source\PSoC5/Counter_ADC_PM.c **** *  void
 171:.\Generated_Source\PSoC5/Counter_ADC_PM.c **** *
 172:.\Generated_Source\PSoC5/Counter_ADC_PM.c **** * Global variables:
 173:.\Generated_Source\PSoC5/Counter_ADC_PM.c **** *  Counter_ADC_backup.enableState:  Is used to restore the enable state of 
 174:.\Generated_Source\PSoC5/Counter_ADC_PM.c **** *  block on wakeup from sleep mode.
 175:.\Generated_Source\PSoC5/Counter_ADC_PM.c **** *
 176:.\Generated_Source\PSoC5/Counter_ADC_PM.c **** *******************************************************************************/
 177:.\Generated_Source\PSoC5/Counter_ADC_PM.c **** void Counter_ADC_Wakeup(void) 
 178:.\Generated_Source\PSoC5/Counter_ADC_PM.c **** {
  87              		.loc 1 178 0
  88              		.cfi_startproc
  89              		@ args = 0, pretend = 0, frame = 0
  90              		@ frame_needed = 0, uses_anonymous_args = 0
  91 0000 10B5     		push	{r4, lr}
  92              	.LCFI1:
  93              		.cfi_def_cfa_offset 8
 179:.\Generated_Source\PSoC5/Counter_ADC_PM.c ****     Counter_ADC_RestoreConfig();
  94              		.loc 1 179 0
  95              		.cfi_offset 14, -4
  96              		.cfi_offset 4, -8
  97 0002 FFF7FEFF 		bl	Counter_ADC_RestoreConfig
 180:.\Generated_Source\PSoC5/Counter_ADC_PM.c ****     #if(!Counter_ADC_ControlRegRemoved)
 181:.\Generated_Source\PSoC5/Counter_ADC_PM.c ****         if(Counter_ADC_backup.CounterEnableState == 1u)
  98              		.loc 1 181 0
  99 0006 044B     		ldr	r3, .L9
 100 0008 1B78     		ldrb	r3, [r3, #0]	@ zero_extendqisi2
ARM GAS  C:\Users\SUZUKI~1\AppData\Local\Temp\ccM22Nsb.s 			page 6


 101 000a 012B     		cmp	r3, #1
 102 000c 03D1     		bne	.L7
 182:.\Generated_Source\PSoC5/Counter_ADC_PM.c ****         {
 183:.\Generated_Source\PSoC5/Counter_ADC_PM.c ****             /* Enable Counter's operation */
 184:.\Generated_Source\PSoC5/Counter_ADC_PM.c ****             Counter_ADC_Enable();
 185:.\Generated_Source\PSoC5/Counter_ADC_PM.c ****         } /* Do nothing if Counter was disabled before */    
 186:.\Generated_Source\PSoC5/Counter_ADC_PM.c ****     #endif /* (!Counter_ADC_ControlRegRemoved) */
 187:.\Generated_Source\PSoC5/Counter_ADC_PM.c ****     
 188:.\Generated_Source\PSoC5/Counter_ADC_PM.c **** }
 103              		.loc 1 188 0
 104 000e BDE81040 		pop	{r4, lr}
 105              		.loc 1 184 0
 106 0012 FFF7FEBF 		b	Counter_ADC_Enable
 107              	.L7:
 108 0016 10BD     		pop	{r4, pc}
 109              	.L10:
 110              		.align	2
 111              	.L9:
 112 0018 00000000 		.word	.LANCHOR0
 113              		.cfi_endproc
 114              	.LFE3:
 115              		.size	Counter_ADC_Wakeup, .-Counter_ADC_Wakeup
 116              		.section	.text.Counter_ADC_SaveConfig,"ax",%progbits
 117              		.align	1
 118              		.global	Counter_ADC_SaveConfig
 119              		.thumb
 120              		.thumb_func
 121              		.type	Counter_ADC_SaveConfig, %function
 122              	Counter_ADC_SaveConfig:
 123              	.LFB0:
 124              		.loc 1 43 0
 125              		.cfi_startproc
 126              		@ args = 0, pretend = 0, frame = 0
 127              		@ frame_needed = 0, uses_anonymous_args = 0
 128 0000 10B5     		push	{r4, lr}
 129              	.LCFI2:
 130              		.cfi_def_cfa_offset 8
 131              		.loc 1 47 0
 132              		.cfi_offset 14, -4
 133              		.cfi_offset 4, -8
 134 0002 FFF7FEFF 		bl	Counter_ADC_ReadCounter
 135 0006 074C     		ldr	r4, .L13
 136 0008 6080     		strh	r0, [r4, #2]	@ movhi
 137              		.loc 1 48 0
 138 000a FFF7FEFF 		bl	Counter_ADC_ReadPeriod
 139 000e A080     		strh	r0, [r4, #4]	@ movhi
 140              		.loc 1 49 0
 141 0010 FFF7FEFF 		bl	Counter_ADC_ReadCompare
 142              		.loc 1 50 0
 143 0014 044B     		ldr	r3, .L13+4
 144              		.loc 1 49 0
 145 0016 E080     		strh	r0, [r4, #6]	@ movhi
 146              		.loc 1 50 0
 147 0018 1B78     		ldrb	r3, [r3, #0]	@ zero_extendqisi2
 148 001a 2372     		strb	r3, [r4, #8]
 149              		.loc 1 59 0
 150 001c FFF7FEFF 		bl	Counter_ADC_ReadControlRegister
ARM GAS  C:\Users\SUZUKI~1\AppData\Local\Temp\ccM22Nsb.s 			page 7


 151 0020 6072     		strb	r0, [r4, #9]
 152              		.loc 1 62 0
 153 0022 10BD     		pop	{r4, pc}
 154              	.L14:
 155              		.align	2
 156              	.L13:
 157 0024 00000000 		.word	.LANCHOR0
 158 0028 86650040 		.word	1073767814
 159              		.cfi_endproc
 160              	.LFE0:
 161              		.size	Counter_ADC_SaveConfig, .-Counter_ADC_SaveConfig
 162              		.section	.text.Counter_ADC_Sleep,"ax",%progbits
 163              		.align	1
 164              		.global	Counter_ADC_Sleep
 165              		.thumb
 166              		.thumb_func
 167              		.type	Counter_ADC_Sleep, %function
 168              	Counter_ADC_Sleep:
 169              	.LFB2:
 170              		.loc 1 133 0
 171              		.cfi_startproc
 172              		@ args = 0, pretend = 0, frame = 0
 173              		@ frame_needed = 0, uses_anonymous_args = 0
 174 0000 10B5     		push	{r4, lr}
 175              	.LCFI3:
 176              		.cfi_def_cfa_offset 8
 177              		.loc 1 136 0
 178 0002 084B     		ldr	r3, .L20
 179 0004 1B78     		ldrb	r3, [r3, #0]	@ zero_extendqisi2
 180 0006 13F0800F 		tst	r3, #128
 181 000a 074B     		ldr	r3, .L20+4
 182 000c 01D0     		beq	.L16
 183              		.cfi_offset 14, -4
 184              		.cfi_offset 4, -8
 185              		.loc 1 139 0
 186 000e 0122     		movs	r2, #1
 187 0010 00E0     		b	.L19
 188              	.L16:
 189              		.loc 1 144 0
 190 0012 0022     		movs	r2, #0
 191              	.L19:
 192 0014 1A70     		strb	r2, [r3, #0]
 193              		.loc 1 154 0
 194 0016 FFF7FEFF 		bl	Counter_ADC_Stop
 195              		.loc 1 156 0
 196 001a BDE81040 		pop	{r4, lr}
 197              		.loc 1 155 0
 198 001e FFF7FEBF 		b	Counter_ADC_SaveConfig
 199              	.L21:
 200 0022 00BF     		.align	2
 201              	.L20:
 202 0024 76650040 		.word	1073767798
 203 0028 00000000 		.word	.LANCHOR0
 204              		.cfi_endproc
 205              	.LFE2:
 206              		.size	Counter_ADC_Sleep, .-Counter_ADC_Sleep
 207              		.bss
ARM GAS  C:\Users\SUZUKI~1\AppData\Local\Temp\ccM22Nsb.s 			page 8


 208              		.align	2
 209              		.set	.LANCHOR0,. + 0
 210              		.type	Counter_ADC_backup, %object
 211              		.size	Counter_ADC_backup, 10
 212              	Counter_ADC_backup:
 213 0000 00000000 		.space	10
 213      00000000 
 213      0000
 214 000a 0000     		.text
 215              	.Letext0:
