ARM GAS  C:\Users\SUZUKI~1\AppData\Local\Temp\cc8hPzbE.s 			page 1


   1              		.syntax unified
   2              		.cpu cortex-m3
   3              		.fpu softvfp
   4              		.eabi_attribute 20, 1
   5              		.eabi_attribute 21, 1
   6              		.eabi_attribute 23, 3
   7              		.eabi_attribute 24, 1
   8              		.eabi_attribute 25, 1
   9              		.eabi_attribute 26, 1
  10              		.eabi_attribute 30, 4
  11              		.eabi_attribute 18, 4
  12              		.thumb
  13              		.file	"DMA_SOUND_dma.c"
  14              		.section	.debug_abbrev,"",%progbits
  15              	.Ldebug_abbrev0:
  16              		.section	.debug_info,"",%progbits
  17              	.Ldebug_info0:
  18              		.section	.debug_line,"",%progbits
  19              	.Ldebug_line0:
  20 0000 9C000000 		.text
  20      02006500 
  20      00000201 
  20      FB0E0D00 
  20      01010101 
  21              	.Ltext0:
  22              		.cfi_sections	.debug_frame
  23              		.section	.text.DMA_SOUND_DmaRelease,"ax",%progbits
  24              		.align	1
  25              		.global	DMA_SOUND_DmaRelease
  26              		.thumb
  27              		.thumb_func
  28              		.type	DMA_SOUND_DmaRelease, %function
  29              	DMA_SOUND_DmaRelease:
  30              	.LFB1:
  31              		.file 1 ".\\Generated_Source\\PSoC5\\DMA_SOUND_dma.c"
   1:.\Generated_Source\PSoC5/DMA_SOUND_dma.c **** /***************************************************************************
   2:.\Generated_Source\PSoC5/DMA_SOUND_dma.c **** * File Name: DMA_SOUND_dma.c  
   3:.\Generated_Source\PSoC5/DMA_SOUND_dma.c **** * Version 1.60
   4:.\Generated_Source\PSoC5/DMA_SOUND_dma.c **** *
   5:.\Generated_Source\PSoC5/DMA_SOUND_dma.c **** *  Description:
   6:.\Generated_Source\PSoC5/DMA_SOUND_dma.c **** *   Provides an API for the DMAC component. The API includes functions
   7:.\Generated_Source\PSoC5/DMA_SOUND_dma.c **** *   for the DMA controller, DMA channels and Transfer Descriptors.
   8:.\Generated_Source\PSoC5/DMA_SOUND_dma.c **** *
   9:.\Generated_Source\PSoC5/DMA_SOUND_dma.c **** *
  10:.\Generated_Source\PSoC5/DMA_SOUND_dma.c **** *   Note:
  11:.\Generated_Source\PSoC5/DMA_SOUND_dma.c **** *     This module requires the developer to finish or fill in the auto
  12:.\Generated_Source\PSoC5/DMA_SOUND_dma.c **** *     generated funcions and setup the dma channel and TD's.
  13:.\Generated_Source\PSoC5/DMA_SOUND_dma.c **** *
  14:.\Generated_Source\PSoC5/DMA_SOUND_dma.c **** ********************************************************************************
  15:.\Generated_Source\PSoC5/DMA_SOUND_dma.c **** * Copyright 2008-2010, Cypress Semiconductor Corporation.  All rights reserved.
  16:.\Generated_Source\PSoC5/DMA_SOUND_dma.c **** * You may use this file only in accordance with the license, terms, conditions, 
  17:.\Generated_Source\PSoC5/DMA_SOUND_dma.c **** * disclaimers, and limitations in the end user license agreement accompanying 
  18:.\Generated_Source\PSoC5/DMA_SOUND_dma.c **** * the software package with which this file was provided.
  19:.\Generated_Source\PSoC5/DMA_SOUND_dma.c **** ********************************************************************************/
  20:.\Generated_Source\PSoC5/DMA_SOUND_dma.c **** #include <CYLIB.H>
  21:.\Generated_Source\PSoC5/DMA_SOUND_dma.c **** #include <CYDMAC.H>
  22:.\Generated_Source\PSoC5/DMA_SOUND_dma.c **** #include <DMA_SOUND_dma.H>
ARM GAS  C:\Users\SUZUKI~1\AppData\Local\Temp\cc8hPzbE.s 			page 2


  23:.\Generated_Source\PSoC5/DMA_SOUND_dma.c **** 
  24:.\Generated_Source\PSoC5/DMA_SOUND_dma.c **** 
  25:.\Generated_Source\PSoC5/DMA_SOUND_dma.c **** 
  26:.\Generated_Source\PSoC5/DMA_SOUND_dma.c **** /****************************************************************************
  27:.\Generated_Source\PSoC5/DMA_SOUND_dma.c **** * 
  28:.\Generated_Source\PSoC5/DMA_SOUND_dma.c **** * The following defines are available in Cyfitter.h
  29:.\Generated_Source\PSoC5/DMA_SOUND_dma.c **** * 
  30:.\Generated_Source\PSoC5/DMA_SOUND_dma.c **** * 
  31:.\Generated_Source\PSoC5/DMA_SOUND_dma.c **** * 
  32:.\Generated_Source\PSoC5/DMA_SOUND_dma.c **** * DMA_SOUND__DRQ_CTL_REG
  33:.\Generated_Source\PSoC5/DMA_SOUND_dma.c **** * 
  34:.\Generated_Source\PSoC5/DMA_SOUND_dma.c **** * 
  35:.\Generated_Source\PSoC5/DMA_SOUND_dma.c **** * DMA_SOUND__DRQ_NUMBER
  36:.\Generated_Source\PSoC5/DMA_SOUND_dma.c **** * 
  37:.\Generated_Source\PSoC5/DMA_SOUND_dma.c **** * Number of TD's used by this channel.
  38:.\Generated_Source\PSoC5/DMA_SOUND_dma.c **** * DMA_SOUND__NUMBEROF_TDS
  39:.\Generated_Source\PSoC5/DMA_SOUND_dma.c **** * 
  40:.\Generated_Source\PSoC5/DMA_SOUND_dma.c **** * Priority of this channel.
  41:.\Generated_Source\PSoC5/DMA_SOUND_dma.c **** * DMA_SOUND__PRIORITY
  42:.\Generated_Source\PSoC5/DMA_SOUND_dma.c **** * 
  43:.\Generated_Source\PSoC5/DMA_SOUND_dma.c **** * True if DMA_SOUND_TERMIN_SEL is used.
  44:.\Generated_Source\PSoC5/DMA_SOUND_dma.c **** * DMA_SOUND__TERMIN_EN
  45:.\Generated_Source\PSoC5/DMA_SOUND_dma.c **** * 
  46:.\Generated_Source\PSoC5/DMA_SOUND_dma.c **** * TERMIN interrupt line to signal terminate.
  47:.\Generated_Source\PSoC5/DMA_SOUND_dma.c **** * DMA_SOUND__TERMIN_SEL
  48:.\Generated_Source\PSoC5/DMA_SOUND_dma.c **** * 
  49:.\Generated_Source\PSoC5/DMA_SOUND_dma.c **** * 
  50:.\Generated_Source\PSoC5/DMA_SOUND_dma.c **** * True if DMA_SOUND_TERMOUT0_SEL is used.
  51:.\Generated_Source\PSoC5/DMA_SOUND_dma.c **** * DMA_SOUND__TERMOUT0_EN
  52:.\Generated_Source\PSoC5/DMA_SOUND_dma.c **** * 
  53:.\Generated_Source\PSoC5/DMA_SOUND_dma.c **** * 
  54:.\Generated_Source\PSoC5/DMA_SOUND_dma.c **** * TERMOUT0 interrupt line to signal completion.
  55:.\Generated_Source\PSoC5/DMA_SOUND_dma.c **** * DMA_SOUND__TERMOUT0_SEL
  56:.\Generated_Source\PSoC5/DMA_SOUND_dma.c **** * 
  57:.\Generated_Source\PSoC5/DMA_SOUND_dma.c **** * 
  58:.\Generated_Source\PSoC5/DMA_SOUND_dma.c **** * True if DMA_SOUND_TERMOUT1_SEL is used.
  59:.\Generated_Source\PSoC5/DMA_SOUND_dma.c **** * DMA_SOUND__TERMOUT1_EN
  60:.\Generated_Source\PSoC5/DMA_SOUND_dma.c **** * 
  61:.\Generated_Source\PSoC5/DMA_SOUND_dma.c **** * 
  62:.\Generated_Source\PSoC5/DMA_SOUND_dma.c **** * TERMOUT1 interrupt line to signal completion.
  63:.\Generated_Source\PSoC5/DMA_SOUND_dma.c **** * DMA_SOUND__TERMOUT1_SEL
  64:.\Generated_Source\PSoC5/DMA_SOUND_dma.c **** * 
  65:.\Generated_Source\PSoC5/DMA_SOUND_dma.c **** ****************************************************************************/
  66:.\Generated_Source\PSoC5/DMA_SOUND_dma.c **** 
  67:.\Generated_Source\PSoC5/DMA_SOUND_dma.c **** 
  68:.\Generated_Source\PSoC5/DMA_SOUND_dma.c **** /* Zero based index of DMA_SOUND dma channel */
  69:.\Generated_Source\PSoC5/DMA_SOUND_dma.c **** uint8 DMA_SOUND_DmaHandle = DMA_INVALID_CHANNEL;
  70:.\Generated_Source\PSoC5/DMA_SOUND_dma.c **** 
  71:.\Generated_Source\PSoC5/DMA_SOUND_dma.c **** /*********************************************************************
  72:.\Generated_Source\PSoC5/DMA_SOUND_dma.c **** * Function Name: uint8 DMA_SOUND_DmaInitalize
  73:.\Generated_Source\PSoC5/DMA_SOUND_dma.c **** **********************************************************************
  74:.\Generated_Source\PSoC5/DMA_SOUND_dma.c **** * Summary:
  75:.\Generated_Source\PSoC5/DMA_SOUND_dma.c **** *   Allocates and initialises a channel of the DMAC to be used by the
  76:.\Generated_Source\PSoC5/DMA_SOUND_dma.c **** *   caller.
  77:.\Generated_Source\PSoC5/DMA_SOUND_dma.c **** *
  78:.\Generated_Source\PSoC5/DMA_SOUND_dma.c **** * Parameters:
  79:.\Generated_Source\PSoC5/DMA_SOUND_dma.c **** *   BurstCount.
ARM GAS  C:\Users\SUZUKI~1\AppData\Local\Temp\cc8hPzbE.s 			page 3


  80:.\Generated_Source\PSoC5/DMA_SOUND_dma.c **** *       
  81:.\Generated_Source\PSoC5/DMA_SOUND_dma.c **** *       
  82:.\Generated_Source\PSoC5/DMA_SOUND_dma.c **** *   ReqestPerBurst.
  83:.\Generated_Source\PSoC5/DMA_SOUND_dma.c **** *       
  84:.\Generated_Source\PSoC5/DMA_SOUND_dma.c **** *       
  85:.\Generated_Source\PSoC5/DMA_SOUND_dma.c **** *   UpperSrcAddress.
  86:.\Generated_Source\PSoC5/DMA_SOUND_dma.c **** *       
  87:.\Generated_Source\PSoC5/DMA_SOUND_dma.c **** *       
  88:.\Generated_Source\PSoC5/DMA_SOUND_dma.c **** *   UpperDestAddress.
  89:.\Generated_Source\PSoC5/DMA_SOUND_dma.c **** *       
  90:.\Generated_Source\PSoC5/DMA_SOUND_dma.c **** *
  91:.\Generated_Source\PSoC5/DMA_SOUND_dma.c **** * Return:
  92:.\Generated_Source\PSoC5/DMA_SOUND_dma.c **** *   The channel that can be used by the caller for DMA activity.
  93:.\Generated_Source\PSoC5/DMA_SOUND_dma.c **** *   DMA_INVALID_CHANNEL (0xFF) if there are no channels left. 
  94:.\Generated_Source\PSoC5/DMA_SOUND_dma.c **** *
  95:.\Generated_Source\PSoC5/DMA_SOUND_dma.c **** *
  96:.\Generated_Source\PSoC5/DMA_SOUND_dma.c **** *******************************************************************/
  97:.\Generated_Source\PSoC5/DMA_SOUND_dma.c **** uint8 DMA_SOUND_DmaInitialize(uint8 BurstCount, uint8 ReqestPerBurst, uint16 UpperSrcAddress, uint1
  98:.\Generated_Source\PSoC5/DMA_SOUND_dma.c **** {
  99:.\Generated_Source\PSoC5/DMA_SOUND_dma.c **** 
 100:.\Generated_Source\PSoC5/DMA_SOUND_dma.c ****     /* Allocate a DMA channel. */
 101:.\Generated_Source\PSoC5/DMA_SOUND_dma.c ****     DMA_SOUND_DmaHandle = DMA_SOUND__DRQ_NUMBER;
 102:.\Generated_Source\PSoC5/DMA_SOUND_dma.c **** 
 103:.\Generated_Source\PSoC5/DMA_SOUND_dma.c ****     if(DMA_SOUND_DmaHandle != DMA_INVALID_CHANNEL)
 104:.\Generated_Source\PSoC5/DMA_SOUND_dma.c ****     {
 105:.\Generated_Source\PSoC5/DMA_SOUND_dma.c ****         /* Configure the channel. */
 106:.\Generated_Source\PSoC5/DMA_SOUND_dma.c ****         CyDmaChSetConfiguration(DMA_SOUND_DmaHandle,
 107:.\Generated_Source\PSoC5/DMA_SOUND_dma.c ****                                 BurstCount,
 108:.\Generated_Source\PSoC5/DMA_SOUND_dma.c ****                                 ReqestPerBurst,
 109:.\Generated_Source\PSoC5/DMA_SOUND_dma.c ****                                 DMA_SOUND__TERMOUT0_SEL,
 110:.\Generated_Source\PSoC5/DMA_SOUND_dma.c ****                                 DMA_SOUND__TERMOUT1_SEL,
 111:.\Generated_Source\PSoC5/DMA_SOUND_dma.c ****                                 DMA_SOUND__TERMIN_SEL);
 112:.\Generated_Source\PSoC5/DMA_SOUND_dma.c **** 
 113:.\Generated_Source\PSoC5/DMA_SOUND_dma.c ****         /* Set the extended address for the transfers */
 114:.\Generated_Source\PSoC5/DMA_SOUND_dma.c ****         CyDmaChSetExtendedAddress(DMA_SOUND_DmaHandle, UpperSrcAddress, UpperDestAddress);
 115:.\Generated_Source\PSoC5/DMA_SOUND_dma.c **** 
 116:.\Generated_Source\PSoC5/DMA_SOUND_dma.c ****         /* Set the priority for this channel */
 117:.\Generated_Source\PSoC5/DMA_SOUND_dma.c ****         CyDmaChPriority(DMA_SOUND_DmaHandle, DMA_SOUND__PRIORITY);
 118:.\Generated_Source\PSoC5/DMA_SOUND_dma.c ****     }
 119:.\Generated_Source\PSoC5/DMA_SOUND_dma.c **** 
 120:.\Generated_Source\PSoC5/DMA_SOUND_dma.c ****     return DMA_SOUND_DmaHandle;
 121:.\Generated_Source\PSoC5/DMA_SOUND_dma.c **** }
 122:.\Generated_Source\PSoC5/DMA_SOUND_dma.c **** 
 123:.\Generated_Source\PSoC5/DMA_SOUND_dma.c **** /*********************************************************************
 124:.\Generated_Source\PSoC5/DMA_SOUND_dma.c **** * Function Name: void DMA_SOUND_DmaRelease
 125:.\Generated_Source\PSoC5/DMA_SOUND_dma.c **** **********************************************************************
 126:.\Generated_Source\PSoC5/DMA_SOUND_dma.c **** * Summary:
 127:.\Generated_Source\PSoC5/DMA_SOUND_dma.c **** *   Frees the channel associated with DMA_SOUND.
 128:.\Generated_Source\PSoC5/DMA_SOUND_dma.c **** *
 129:.\Generated_Source\PSoC5/DMA_SOUND_dma.c **** *
 130:.\Generated_Source\PSoC5/DMA_SOUND_dma.c **** * Parameters:
 131:.\Generated_Source\PSoC5/DMA_SOUND_dma.c **** *   void.
 132:.\Generated_Source\PSoC5/DMA_SOUND_dma.c **** *
 133:.\Generated_Source\PSoC5/DMA_SOUND_dma.c **** *
 134:.\Generated_Source\PSoC5/DMA_SOUND_dma.c **** *
 135:.\Generated_Source\PSoC5/DMA_SOUND_dma.c **** * Return:
 136:.\Generated_Source\PSoC5/DMA_SOUND_dma.c **** *   void.
ARM GAS  C:\Users\SUZUKI~1\AppData\Local\Temp\cc8hPzbE.s 			page 4


 137:.\Generated_Source\PSoC5/DMA_SOUND_dma.c **** *
 138:.\Generated_Source\PSoC5/DMA_SOUND_dma.c **** *******************************************************************/
 139:.\Generated_Source\PSoC5/DMA_SOUND_dma.c **** void DMA_SOUND_DmaRelease(void) 
 140:.\Generated_Source\PSoC5/DMA_SOUND_dma.c **** {
  32              		.loc 1 140 0
  33              		.cfi_startproc
  34              		@ args = 0, pretend = 0, frame = 0
  35              		@ frame_needed = 0, uses_anonymous_args = 0
  36              		@ link register save eliminated.
 141:.\Generated_Source\PSoC5/DMA_SOUND_dma.c ****     /* Disable the channel, even if someone just did! */
 142:.\Generated_Source\PSoC5/DMA_SOUND_dma.c ****     CyDmaChDisable(DMA_SOUND_DmaHandle);
  37              		.loc 1 142 0
  38 0000 014B     		ldr	r3, .L3
  39 0002 1878     		ldrb	r0, [r3, #0]	@ zero_extendqisi2
 143:.\Generated_Source\PSoC5/DMA_SOUND_dma.c **** 
 144:.\Generated_Source\PSoC5/DMA_SOUND_dma.c **** 
 145:.\Generated_Source\PSoC5/DMA_SOUND_dma.c ****     /* Free Transfer Descriptors. */
 146:.\Generated_Source\PSoC5/DMA_SOUND_dma.c **** 
 147:.\Generated_Source\PSoC5/DMA_SOUND_dma.c **** 
 148:.\Generated_Source\PSoC5/DMA_SOUND_dma.c **** }
  40              		.loc 1 148 0
  41              		.loc 1 142 0
  42 0004 FFF7FEBF 		b	CyDmaChDisable
  43              	.L4:
  44              		.align	2
  45              	.L3:
  46 0008 00000000 		.word	.LANCHOR0
  47              		.cfi_endproc
  48              	.LFE1:
  49              		.size	DMA_SOUND_DmaRelease, .-DMA_SOUND_DmaRelease
  50              		.section	.text.DMA_SOUND_DmaInitialize,"ax",%progbits
  51              		.align	1
  52              		.global	DMA_SOUND_DmaInitialize
  53              		.thumb
  54              		.thumb_func
  55              		.type	DMA_SOUND_DmaInitialize, %function
  56              	DMA_SOUND_DmaInitialize:
  57              	.LFB0:
  58              		.loc 1 98 0
  59              		.cfi_startproc
  60              		@ args = 0, pretend = 0, frame = 0
  61              		@ frame_needed = 0, uses_anonymous_args = 0
  62              	.LVL0:
  63 0000 F7B5     		push	{r0, r1, r2, r4, r5, r6, r7, lr}
  64              	.LCFI0:
  65              		.cfi_def_cfa_offset 32
  66              	.LVL1:
  67              		.loc 1 98 0
  68 0002 8C46     		mov	ip, r1
  69              	.LVL2:
  70 0004 8646     		mov	lr, r0
  71              		.cfi_offset 14, -4
  72              		.cfi_offset 7, -8
  73              		.cfi_offset 6, -12
  74              		.cfi_offset 5, -16
  75              		.cfi_offset 4, -20
  76              		.cfi_offset 2, -24
ARM GAS  C:\Users\SUZUKI~1\AppData\Local\Temp\cc8hPzbE.s 			page 5


  77              		.cfi_offset 1, -28
  78              		.cfi_offset 0, -32
  79              	.LVL3:
  80              		.loc 1 101 0
  81 0006 0C4C     		ldr	r4, .L7
  82 0008 0225     		movs	r5, #2
  83              		.loc 1 106 0
  84 000a 7146     		mov	r1, lr
  85              	.LVL4:
  86              		.loc 1 98 0
  87 000c 1746     		mov	r7, r2
  88              	.LVL5:
  89 000e 1E46     		mov	r6, r3
  90              		.loc 1 106 0
  91 0010 6246     		mov	r2, ip
  92              	.LVL6:
  93 0012 0023     		movs	r3, #0
  94              	.LVL7:
  95 0014 2846     		mov	r0, r5
  96              	.LVL8:
  97 0016 0093     		str	r3, [sp, #0]
  98 0018 0193     		str	r3, [sp, #4]
  99              		.loc 1 101 0
 100 001a 2570     		strb	r5, [r4, #0]
 101              		.loc 1 106 0
 102 001c FFF7FEFF 		bl	CyDmaChSetConfiguration
 103              	.LVL9:
 104              		.loc 1 114 0
 105 0020 3946     		mov	r1, r7
 106 0022 3246     		mov	r2, r6
 107 0024 2078     		ldrb	r0, [r4, #0]	@ zero_extendqisi2
 108 0026 FFF7FEFF 		bl	CyDmaChSetExtendedAddress
 109              		.loc 1 117 0
 110 002a 2078     		ldrb	r0, [r4, #0]	@ zero_extendqisi2
 111 002c 2946     		mov	r1, r5
 112 002e FFF7FEFF 		bl	CyDmaChPriority
 113              		.loc 1 121 0
 114 0032 2078     		ldrb	r0, [r4, #0]	@ zero_extendqisi2
 115 0034 FEBD     		pop	{r1, r2, r3, r4, r5, r6, r7, pc}
 116              	.L8:
 117 0036 00BF     		.align	2
 118              	.L7:
 119 0038 00000000 		.word	.LANCHOR0
 120              		.cfi_endproc
 121              	.LFE0:
 122              		.size	DMA_SOUND_DmaInitialize, .-DMA_SOUND_DmaInitialize
 123              		.global	DMA_SOUND_DmaHandle
 124              		.data
 125              		.set	.LANCHOR0,. + 0
 126              		.type	DMA_SOUND_DmaHandle, %object
 127              		.size	DMA_SOUND_DmaHandle, 1
 128              	DMA_SOUND_DmaHandle:
 129 0000 FF       		.byte	-1
 130              		.text
 131              	.Letext0:
