ARM GAS  C:\Users\SUZUKI~1\AppData\Local\Temp\ccra9FCA.s 			page 1


   1              		.syntax unified
   2              		.cpu cortex-m3
   3              		.fpu softvfp
   4              		.eabi_attribute 20, 1
   5              		.eabi_attribute 21, 1
   6              		.eabi_attribute 23, 3
   7              		.eabi_attribute 24, 1
   8              		.eabi_attribute 25, 1
   9              		.eabi_attribute 26, 1
  10              		.eabi_attribute 30, 6
  11              		.eabi_attribute 18, 4
  12              		.thumb
  13              		.file	"font.c"
  14              		.section	.debug_abbrev,"",%progbits
  15              	.Ldebug_abbrev0:
  16              		.section	.debug_info,"",%progbits
  17              	.Ldebug_info0:
  18              		.section	.debug_line,"",%progbits
  19              	.Ldebug_line0:
  20 0000 C2020000 		.text
  20      02003901 
  20      00000201 
  20      FB0E0D00 
  20      01010101 
  21              	.Ltext0:
  22              		.cfi_sections	.debug_frame
  23              		.global	ASCII
  24              		.data
  25              		.align	2
  26              		.type	ASCII, %object
  27              		.size	ASCII, 1520
  28              	ASCII:
  29 0000 0000     		.short	0
  30 0002 0000     		.short	0
  31 0004 0000     		.short	0
  32 0006 0000     		.short	0
  33 0008 0000     		.short	0
  34 000a 0000     		.short	0
  35 000c 0000     		.short	0
  36 000e 0000     		.short	0
  37 0010 0000     		.short	0
  38 0012 0000     		.short	0
  39 0014 0000     		.short	0
  40 0016 E67F     		.short	32742
  41 0018 0078     		.short	30720
  42 001a 0000     		.short	0
  43 001c 0000     		.short	0
  44 001e 0000     		.short	0
  45 0020 0000     		.short	0
  46 0022 0090     		.short	-28672
  47 0024 00E0     		.short	-8192
  48 0026 0000     		.short	0
  49 0028 0090     		.short	-28672
  50 002a 00E0     		.short	-8192
  51 002c 0000     		.short	0
  52 002e 0000     		.short	0
  53 0030 2000     		.short	32
ARM GAS  C:\Users\SUZUKI~1\AppData\Local\Temp\ccra9FCA.s 			page 2


  54 0032 3E08     		.short	2110
  55 0034 E00F     		.short	4064
  56 0036 2078     		.short	30752
  57 0038 3E08     		.short	2110
  58 003a E00F     		.short	4064
  59 003c 2078     		.short	30752
  60 003e 0008     		.short	2048
  61 0040 301C     		.short	7216
  62 0042 0822     		.short	8712
  63 0044 0441     		.short	16644
  64 0046 FFFF     		.short	-1
  65 0048 0441     		.short	16644
  66 004a 8820     		.short	8328
  67 004c 7018     		.short	6256
  68 004e 0000     		.short	0
  69 0050 033C     		.short	15363
  70 0052 0C42     		.short	16908
  71 0054 3042     		.short	16944
  72 0056 C03C     		.short	15552
  73 0058 3C03     		.short	828
  74 005a 420C     		.short	3138
  75 005c 4230     		.short	12354
  76 005e 3CC0     		.short	-16324
  77 0060 7000     		.short	112
  78 0062 8838     		.short	14472
  79 0064 0445     		.short	17668
  80 0066 0443     		.short	17156
  81 0068 C844     		.short	17608
  82 006a 3038     		.short	14384
  83 006c C800     		.short	200
  84 006e 0400     		.short	4
  85 0070 0000     		.short	0
  86 0072 0090     		.short	-28672
  87 0074 00E0     		.short	-8192
  88 0076 0000     		.short	0
  89 0078 0000     		.short	0
  90 007a 0000     		.short	0
  91 007c 0000     		.short	0
  92 007e 0000     		.short	0
  93 0080 0000     		.short	0
  94 0082 0000     		.short	0
  95 0084 0000     		.short	0
  96 0086 F007     		.short	2032
  97 0088 0C18     		.short	6156
  98 008a 0220     		.short	8194
  99 008c 0140     		.short	16385
 100 008e 0000     		.short	0
 101 0090 0000     		.short	0
 102 0092 0140     		.short	16385
 103 0094 0220     		.short	8194
 104 0096 0C18     		.short	6156
 105 0098 F007     		.short	2032
 106 009a 0000     		.short	0
 107 009c 0000     		.short	0
 108 009e 0000     		.short	0
 109 00a0 4004     		.short	1088
 110 00a2 8002     		.short	640
ARM GAS  C:\Users\SUZUKI~1\AppData\Local\Temp\ccra9FCA.s 			page 3


 111 00a4 0001     		.short	256
 112 00a6 E00F     		.short	4064
 113 00a8 0001     		.short	256
 114 00aa 8002     		.short	640
 115 00ac 4004     		.short	1088
 116 00ae 0000     		.short	0
 117 00b0 0001     		.short	256
 118 00b2 0001     		.short	256
 119 00b4 0001     		.short	256
 120 00b6 F01F     		.short	8176
 121 00b8 0001     		.short	256
 122 00ba 0001     		.short	256
 123 00bc 0001     		.short	256
 124 00be 0000     		.short	0
 125 00c0 0000     		.short	0
 126 00c2 0900     		.short	9
 127 00c4 0E00     		.short	14
 128 00c6 0000     		.short	0
 129 00c8 0000     		.short	0
 130 00ca 0000     		.short	0
 131 00cc 0000     		.short	0
 132 00ce 0000     		.short	0
 133 00d0 0001     		.short	256
 134 00d2 0001     		.short	256
 135 00d4 0001     		.short	256
 136 00d6 0001     		.short	256
 137 00d8 0001     		.short	256
 138 00da 0001     		.short	256
 139 00dc 0001     		.short	256
 140 00de 0000     		.short	0
 141 00e0 0000     		.short	0
 142 00e2 0C00     		.short	12
 143 00e4 0C00     		.short	12
 144 00e6 0000     		.short	0
 145 00e8 0000     		.short	0
 146 00ea 0000     		.short	0
 147 00ec 0000     		.short	0
 148 00ee 0000     		.short	0
 149 00f0 0600     		.short	6
 150 00f2 1800     		.short	24
 151 00f4 6000     		.short	96
 152 00f6 8001     		.short	384
 153 00f8 0006     		.short	1536
 154 00fa 0018     		.short	6144
 155 00fc 0060     		.short	24576
 156 00fe 0000     		.short	0
 157 0100 0000     		.short	0
 158 0102 E00F     		.short	4064
 159 0104 1830     		.short	12312
 160 0106 0440     		.short	16388
 161 0108 0440     		.short	16388
 162 010a 1830     		.short	12312
 163 010c E00F     		.short	4064
 164 010e 0000     		.short	0
 165 0110 0000     		.short	0
 166 0112 0008     		.short	2048
 167 0114 0010     		.short	4096
ARM GAS  C:\Users\SUZUKI~1\AppData\Local\Temp\ccra9FCA.s 			page 4


 168 0116 FC7F     		.short	32764
 169 0118 0000     		.short	0
 170 011a 0000     		.short	0
 171 011c 0000     		.short	0
 172 011e 0000     		.short	0
 173 0120 0000     		.short	0
 174 0122 1C18     		.short	6172
 175 0124 6420     		.short	8292
 176 0126 8440     		.short	16516
 177 0128 0441     		.short	16644
 178 012a 0422     		.short	8708
 179 012c 041C     		.short	7172
 180 012e 0000     		.short	0
 181 0130 3018     		.short	6192
 182 0132 0820     		.short	8200
 183 0134 0441     		.short	16644
 184 0136 0441     		.short	16644
 185 0138 0441     		.short	16644
 186 013a 8822     		.short	8840
 187 013c 701C     		.short	7280
 188 013e 0000     		.short	0
 189 0140 C000     		.short	192
 190 0142 4003     		.short	832
 191 0144 400C     		.short	3136
 192 0146 4030     		.short	12352
 193 0148 FC7F     		.short	32764
 194 014a 4000     		.short	64
 195 014c 4000     		.short	64
 196 014e 0000     		.short	0
 197 0150 3007     		.short	1840
 198 0152 087A     		.short	31240
 199 0154 0444     		.short	17412
 200 0156 0444     		.short	17412
 201 0158 0444     		.short	17412
 202 015a 0842     		.short	16904
 203 015c F001     		.short	496
 204 015e 0000     		.short	0
 205 0160 F00F     		.short	4080
 206 0162 0831     		.short	12552
 207 0164 0442     		.short	16900
 208 0166 0442     		.short	16900
 209 0168 0442     		.short	16900
 210 016a 0821     		.short	8456
 211 016c F000     		.short	240
 212 016e 0000     		.short	0
 213 0170 0040     		.short	16384
 214 0172 0040     		.short	16384
 215 0174 0040     		.short	16384
 216 0176 7E40     		.short	16510
 217 0178 8047     		.short	18304
 218 017a 0058     		.short	22528
 219 017c 0060     		.short	24576
 220 017e 0000     		.short	0
 221 0180 701C     		.short	7280
 222 0182 8822     		.short	8840
 223 0184 0441     		.short	16644
 224 0186 0441     		.short	16644
ARM GAS  C:\Users\SUZUKI~1\AppData\Local\Temp\ccra9FCA.s 			page 5


 225 0188 0441     		.short	16644
 226 018a 8822     		.short	8840
 227 018c 701C     		.short	7280
 228 018e 0000     		.short	0
 229 0190 101E     		.short	7696
 230 0192 0821     		.short	8456
 231 0194 8440     		.short	16516
 232 0196 8440     		.short	16516
 233 0198 8440     		.short	16516
 234 019a 0821     		.short	8456
 235 019c F01F     		.short	8176
 236 019e 0000     		.short	0
 237 01a0 0000     		.short	0
 238 01a2 0000     		.short	0
 239 01a4 0000     		.short	0
 240 01a6 180C     		.short	3096
 241 01a8 180C     		.short	3096
 242 01aa 0000     		.short	0
 243 01ac 0000     		.short	0
 244 01ae 0000     		.short	0
 245 01b0 0000     		.short	0
 246 01b2 0000     		.short	0
 247 01b4 0000     		.short	0
 248 01b6 240C     		.short	3108
 249 01b8 380C     		.short	3128
 250 01ba 0000     		.short	0
 251 01bc 0000     		.short	0
 252 01be 0000     		.short	0
 253 01c0 0000     		.short	0
 254 01c2 0000     		.short	0
 255 01c4 8001     		.short	384
 256 01c6 4002     		.short	576
 257 01c8 2004     		.short	1056
 258 01ca 1008     		.short	2064
 259 01cc 0810     		.short	4104
 260 01ce 0000     		.short	0
 261 01d0 4004     		.short	1088
 262 01d2 4004     		.short	1088
 263 01d4 4004     		.short	1088
 264 01d6 4004     		.short	1088
 265 01d8 4004     		.short	1088
 266 01da 4004     		.short	1088
 267 01dc 4004     		.short	1088
 268 01de 0000     		.short	0
 269 01e0 0000     		.short	0
 270 01e2 0810     		.short	4104
 271 01e4 1008     		.short	2064
 272 01e6 2004     		.short	1056
 273 01e8 4002     		.short	576
 274 01ea 8001     		.short	384
 275 01ec 0000     		.short	0
 276 01ee 0000     		.short	0
 277 01f0 001C     		.short	7168
 278 01f2 0020     		.short	8192
 279 01f4 0040     		.short	16384
 280 01f6 6640     		.short	16486
 281 01f8 8041     		.short	16768
ARM GAS  C:\Users\SUZUKI~1\AppData\Local\Temp\ccra9FCA.s 			page 6


 282 01fa 0022     		.short	8704
 283 01fc 001C     		.short	7168
 284 01fe 0000     		.short	0
 285 0200 C007     		.short	1984
 286 0202 3018     		.short	6192
 287 0204 8827     		.short	10120
 288 0206 444C     		.short	19524
 289 0208 4448     		.short	18500
 290 020a 8427     		.short	10116
 291 020c 4818     		.short	6216
 292 020e 8007     		.short	1920
 293 0210 3C00     		.short	60
 294 0212 C003     		.short	960
 295 0214 401C     		.short	7232
 296 0216 4060     		.short	24640
 297 0218 401C     		.short	7232
 298 021a C003     		.short	960
 299 021c 3C00     		.short	60
 300 021e 0000     		.short	0
 301 0220 FC7F     		.short	32764
 302 0222 0441     		.short	16644
 303 0224 0441     		.short	16644
 304 0226 0441     		.short	16644
 305 0228 0423     		.short	8964
 306 022a 881C     		.short	7304
 307 022c 7000     		.short	112
 308 022e 0000     		.short	0
 309 0230 E00F     		.short	4064
 310 0232 1830     		.short	12312
 311 0234 0440     		.short	16388
 312 0236 0440     		.short	16388
 313 0238 0440     		.short	16388
 314 023a 0820     		.short	8200
 315 023c 1010     		.short	4112
 316 023e 0000     		.short	0
 317 0240 FC7F     		.short	32764
 318 0242 0440     		.short	16388
 319 0244 0440     		.short	16388
 320 0246 0440     		.short	16388
 321 0248 0820     		.short	8200
 322 024a 3018     		.short	6192
 323 024c C007     		.short	1984
 324 024e 0000     		.short	0
 325 0250 FC7F     		.short	32764
 326 0252 0441     		.short	16644
 327 0254 0441     		.short	16644
 328 0256 0441     		.short	16644
 329 0258 0441     		.short	16644
 330 025a 0441     		.short	16644
 331 025c 0440     		.short	16388
 332 025e 0000     		.short	0
 333 0260 FC7F     		.short	32764
 334 0262 0041     		.short	16640
 335 0264 0041     		.short	16640
 336 0266 0041     		.short	16640
 337 0268 0041     		.short	16640
 338 026a 0041     		.short	16640
ARM GAS  C:\Users\SUZUKI~1\AppData\Local\Temp\ccra9FCA.s 			page 7


 339 026c 0040     		.short	16384
 340 026e 0000     		.short	0
 341 0270 E007     		.short	2016
 342 0272 1818     		.short	6168
 343 0274 0820     		.short	8200
 344 0276 0440     		.short	16388
 345 0278 0441     		.short	16644
 346 027a 0821     		.short	8456
 347 027c FC11     		.short	4604
 348 027e 0000     		.short	0
 349 0280 FC7F     		.short	32764
 350 0282 0001     		.short	256
 351 0284 0001     		.short	256
 352 0286 0001     		.short	256
 353 0288 0001     		.short	256
 354 028a 0001     		.short	256
 355 028c FC7F     		.short	32764
 356 028e 0000     		.short	0
 357 0290 0000     		.short	0
 358 0292 0000     		.short	0
 359 0294 0440     		.short	16388
 360 0296 FC7F     		.short	32764
 361 0298 0440     		.short	16388
 362 029a 0000     		.short	0
 363 029c 0000     		.short	0
 364 029e 0000     		.short	0
 365 02a0 0000     		.short	0
 366 02a2 1000     		.short	16
 367 02a4 0800     		.short	8
 368 02a6 0400     		.short	4
 369 02a8 0400     		.short	4
 370 02aa 0800     		.short	8
 371 02ac F07F     		.short	32752
 372 02ae 0000     		.short	0
 373 02b0 0000     		.short	0
 374 02b2 FC7F     		.short	32764
 375 02b4 8001     		.short	384
 376 02b6 0002     		.short	512
 377 02b8 0007     		.short	1792
 378 02ba C018     		.short	6336
 379 02bc 3060     		.short	24624
 380 02be 0C00     		.short	12
 381 02c0 0000     		.short	0
 382 02c2 FC7F     		.short	32764
 383 02c4 0400     		.short	4
 384 02c6 0400     		.short	4
 385 02c8 0400     		.short	4
 386 02ca 0400     		.short	4
 387 02cc 0400     		.short	4
 388 02ce 0000     		.short	0
 389 02d0 FC7F     		.short	32764
 390 02d2 001C     		.short	7168
 391 02d4 8003     		.short	896
 392 02d6 7800     		.short	120
 393 02d8 8003     		.short	896
 394 02da 001C     		.short	7168
 395 02dc FC7F     		.short	32764
ARM GAS  C:\Users\SUZUKI~1\AppData\Local\Temp\ccra9FCA.s 			page 8


 396 02de 0000     		.short	0
 397 02e0 FC7F     		.short	32764
 398 02e2 0030     		.short	12288
 399 02e4 000C     		.short	3072
 400 02e6 8003     		.short	896
 401 02e8 6000     		.short	96
 402 02ea 1800     		.short	24
 403 02ec FC7F     		.short	32764
 404 02ee 0000     		.short	0
 405 02f0 E00F     		.short	4064
 406 02f2 1830     		.short	12312
 407 02f4 0440     		.short	16388
 408 02f6 0440     		.short	16388
 409 02f8 0440     		.short	16388
 410 02fa 1830     		.short	12312
 411 02fc E00F     		.short	4064
 412 02fe 0000     		.short	0
 413 0300 FC7F     		.short	32764
 414 0302 0041     		.short	16640
 415 0304 0041     		.short	16640
 416 0306 0041     		.short	16640
 417 0308 0041     		.short	16640
 418 030a 0022     		.short	8704
 419 030c 001C     		.short	7168
 420 030e 0000     		.short	0
 421 0310 E00F     		.short	4064
 422 0312 1830     		.short	12312
 423 0314 2440     		.short	16420
 424 0316 2440     		.short	16420
 425 0318 2640     		.short	16422
 426 031a 1930     		.short	12313
 427 031c E10F     		.short	4065
 428 031e 0000     		.short	0
 429 0320 FC7F     		.short	32764
 430 0322 0041     		.short	16640
 431 0324 0041     		.short	16640
 432 0326 0041     		.short	16640
 433 0328 8041     		.short	16768
 434 032a 7022     		.short	8816
 435 032c 0C1C     		.short	7180
 436 032e 0000     		.short	0
 437 0330 301C     		.short	7216
 438 0332 0822     		.short	8712
 439 0334 0442     		.short	16900
 440 0336 0441     		.short	16644
 441 0338 0441     		.short	16644
 442 033a 8820     		.short	8328
 443 033c 7018     		.short	6256
 444 033e 0000     		.short	0
 445 0340 0040     		.short	16384
 446 0342 0040     		.short	16384
 447 0344 0040     		.short	16384
 448 0346 FC7F     		.short	32764
 449 0348 0040     		.short	16384
 450 034a 0040     		.short	16384
 451 034c 0040     		.short	16384
 452 034e 0000     		.short	0
ARM GAS  C:\Users\SUZUKI~1\AppData\Local\Temp\ccra9FCA.s 			page 9


 453 0350 F07F     		.short	32752
 454 0352 0800     		.short	8
 455 0354 0400     		.short	4
 456 0356 0400     		.short	4
 457 0358 0400     		.short	4
 458 035a 0800     		.short	8
 459 035c F07F     		.short	32752
 460 035e 0000     		.short	0
 461 0360 0078     		.short	30720
 462 0362 0007     		.short	1792
 463 0364 E000     		.short	224
 464 0366 1C00     		.short	28
 465 0368 E000     		.short	224
 466 036a 0007     		.short	1792
 467 036c 0078     		.short	30720
 468 036e 0000     		.short	0
 469 0370 807F     		.short	32640
 470 0372 7C00     		.short	124
 471 0374 C001     		.short	448
 472 0376 007E     		.short	32256
 473 0378 C001     		.short	448
 474 037a 7C00     		.short	124
 475 037c 807F     		.short	32640
 476 037e 0000     		.short	0
 477 0380 0C40     		.short	16396
 478 0382 3030     		.short	12336
 479 0384 C00D     		.short	3520
 480 0386 0002     		.short	512
 481 0388 C00D     		.short	3520
 482 038a 3030     		.short	12336
 483 038c 0C40     		.short	16396
 484 038e 0000     		.short	0
 485 0390 0060     		.short	24576
 486 0392 001C     		.short	7168
 487 0394 0003     		.short	768
 488 0396 FC00     		.short	252
 489 0398 0003     		.short	768
 490 039a 001C     		.short	7168
 491 039c 0060     		.short	24576
 492 039e 0000     		.short	0
 493 03a0 0C40     		.short	16396
 494 03a2 3440     		.short	16436
 495 03a4 C440     		.short	16580
 496 03a6 0443     		.short	17156
 497 03a8 044C     		.short	19460
 498 03aa 0470     		.short	28676
 499 03ac 0440     		.short	16388
 500 03ae 0000     		.short	0
 501 03b0 0000     		.short	0
 502 03b2 0000     		.short	0
 503 03b4 0000     		.short	0
 504 03b6 FFFF     		.short	-1
 505 03b8 0180     		.short	-32767
 506 03ba 0180     		.short	-32767
 507 03bc 0180     		.short	-32767
 508 03be 0000     		.short	0
 509 03c0 0060     		.short	24576
ARM GAS  C:\Users\SUZUKI~1\AppData\Local\Temp\ccra9FCA.s 			page 10


 510 03c2 0018     		.short	6144
 511 03c4 0006     		.short	1536
 512 03c6 8001     		.short	384
 513 03c8 6000     		.short	96
 514 03ca 1800     		.short	24
 515 03cc 0600     		.short	6
 516 03ce 0000     		.short	0
 517 03d0 0180     		.short	-32767
 518 03d2 0180     		.short	-32767
 519 03d4 0180     		.short	-32767
 520 03d6 FFFF     		.short	-1
 521 03d8 0000     		.short	0
 522 03da 0000     		.short	0
 523 03dc 0000     		.short	0
 524 03de 0000     		.short	0
 525 03e0 0010     		.short	4096
 526 03e2 0020     		.short	8192
 527 03e4 0040     		.short	16384
 528 03e6 0080     		.short	-32768
 529 03e8 0040     		.short	16384
 530 03ea 0020     		.short	8192
 531 03ec 0010     		.short	4096
 532 03ee 0000     		.short	0
 533 03f0 0200     		.short	2
 534 03f2 0200     		.short	2
 535 03f4 0200     		.short	2
 536 03f6 0200     		.short	2
 537 03f8 0200     		.short	2
 538 03fa 0200     		.short	2
 539 03fc 0200     		.short	2
 540 03fe 0000     		.short	0
 541 0400 0000     		.short	0
 542 0402 0000     		.short	0
 543 0404 00E0     		.short	-8192
 544 0406 0090     		.short	-28672
 545 0408 0000     		.short	0
 546 040a 0000     		.short	0
 547 040c 0000     		.short	0
 548 040e 0000     		.short	0
 549 0410 3800     		.short	56
 550 0412 4402     		.short	580
 551 0414 8404     		.short	1156
 552 0416 8404     		.short	1156
 553 0418 8404     		.short	1156
 554 041a 8804     		.short	1160
 555 041c FC03     		.short	1020
 556 041e 0000     		.short	0
 557 0420 FC7F     		.short	32764
 558 0422 0802     		.short	520
 559 0424 0404     		.short	1028
 560 0426 0404     		.short	1028
 561 0428 0404     		.short	1028
 562 042a 0802     		.short	520
 563 042c F001     		.short	496
 564 042e 0000     		.short	0
 565 0430 F001     		.short	496
 566 0432 0802     		.short	520
ARM GAS  C:\Users\SUZUKI~1\AppData\Local\Temp\ccra9FCA.s 			page 11


 567 0434 0404     		.short	1028
 568 0436 0404     		.short	1028
 569 0438 0404     		.short	1028
 570 043a 0802     		.short	520
 571 043c 1001     		.short	272
 572 043e 0000     		.short	0
 573 0440 F001     		.short	496
 574 0442 0802     		.short	520
 575 0444 0404     		.short	1028
 576 0446 0404     		.short	1028
 577 0448 0404     		.short	1028
 578 044a 0802     		.short	520
 579 044c FC7F     		.short	32764
 580 044e 0000     		.short	0
 581 0450 F001     		.short	496
 582 0452 4802     		.short	584
 583 0454 4404     		.short	1092
 584 0456 4404     		.short	1092
 585 0458 4404     		.short	1092
 586 045a 4802     		.short	584
 587 045c D001     		.short	464
 588 045e 0000     		.short	0
 589 0460 0000     		.short	0
 590 0462 0004     		.short	1024
 591 0464 0004     		.short	1024
 592 0466 FC3F     		.short	16380
 593 0468 0044     		.short	17408
 594 046a 0044     		.short	17408
 595 046c 0000     		.short	0
 596 046e 0000     		.short	0
 597 0470 0E00     		.short	14
 598 0472 B103     		.short	945
 599 0474 5104     		.short	1105
 600 0476 5104     		.short	1105
 601 0478 5104     		.short	1105
 602 047a 8903     		.short	905
 603 047c 0604     		.short	1030
 604 047e 0004     		.short	1024
 605 0480 0000     		.short	0
 606 0482 FC7F     		.short	32764
 607 0484 0002     		.short	512
 608 0486 0004     		.short	1024
 609 0488 0004     		.short	1024
 610 048a 0004     		.short	1024
 611 048c FC03     		.short	1020
 612 048e 0000     		.short	0
 613 0490 0000     		.short	0
 614 0492 0000     		.short	0
 615 0494 0004     		.short	1024
 616 0496 FC67     		.short	26620
 617 0498 0000     		.short	0
 618 049a 0000     		.short	0
 619 049c 0000     		.short	0
 620 049e 0000     		.short	0
 621 04a0 0000     		.short	0
 622 04a2 0100     		.short	1
 623 04a4 0100     		.short	1
ARM GAS  C:\Users\SUZUKI~1\AppData\Local\Temp\ccra9FCA.s 			page 12


 624 04a6 0204     		.short	1026
 625 04a8 FC67     		.short	26620
 626 04aa 0000     		.short	0
 627 04ac 0000     		.short	0
 628 04ae 0000     		.short	0
 629 04b0 0000     		.short	0
 630 04b2 FC7F     		.short	32764
 631 04b4 4000     		.short	64
 632 04b6 8000     		.short	128
 633 04b8 4001     		.short	320
 634 04ba 3002     		.short	560
 635 04bc 0C04     		.short	1036
 636 04be 0000     		.short	0
 637 04c0 0000     		.short	0
 638 04c2 0000     		.short	0
 639 04c4 0040     		.short	16384
 640 04c6 FC7F     		.short	32764
 641 04c8 0000     		.short	0
 642 04ca 0000     		.short	0
 643 04cc 0000     		.short	0
 644 04ce 0000     		.short	0
 645 04d0 FC07     		.short	2044
 646 04d2 0004     		.short	1024
 647 04d4 0004     		.short	1024
 648 04d6 FC03     		.short	1020
 649 04d8 0004     		.short	1024
 650 04da 0004     		.short	1024
 651 04dc FC03     		.short	1020
 652 04de 0000     		.short	0
 653 04e0 0000     		.short	0
 654 04e2 FC07     		.short	2044
 655 04e4 0002     		.short	512
 656 04e6 0004     		.short	1024
 657 04e8 0004     		.short	1024
 658 04ea 0004     		.short	1024
 659 04ec FC03     		.short	1020
 660 04ee 0000     		.short	0
 661 04f0 F001     		.short	496
 662 04f2 0802     		.short	520
 663 04f4 0404     		.short	1028
 664 04f6 0404     		.short	1028
 665 04f8 0404     		.short	1028
 666 04fa 0802     		.short	520
 667 04fc F001     		.short	496
 668 04fe 0000     		.short	0
 669 0500 FF07     		.short	2047
 670 0502 1002     		.short	528
 671 0504 0804     		.short	1032
 672 0506 0804     		.short	1032
 673 0508 0804     		.short	1032
 674 050a 1002     		.short	528
 675 050c E001     		.short	480
 676 050e 0000     		.short	0
 677 0510 E001     		.short	480
 678 0512 1002     		.short	528
 679 0514 0804     		.short	1032
 680 0516 0804     		.short	1032
ARM GAS  C:\Users\SUZUKI~1\AppData\Local\Temp\ccra9FCA.s 			page 13


 681 0518 0804     		.short	1032
 682 051a 1002     		.short	528
 683 051c FF07     		.short	2047
 684 051e 0000     		.short	0
 685 0520 0000     		.short	0
 686 0522 0000     		.short	0
 687 0524 FC07     		.short	2044
 688 0526 0002     		.short	512
 689 0528 0004     		.short	1024
 690 052a 0004     		.short	1024
 691 052c 0000     		.short	0
 692 052e 0000     		.short	0
 693 0530 0000     		.short	0
 694 0532 8803     		.short	904
 695 0534 8404     		.short	1156
 696 0536 4404     		.short	1092
 697 0538 4404     		.short	1092
 698 053a 2404     		.short	1060
 699 053c 3802     		.short	568
 700 053e 0000     		.short	0
 701 0540 0000     		.short	0
 702 0542 0004     		.short	1024
 703 0544 0004     		.short	1024
 704 0546 F83F     		.short	16376
 705 0548 0404     		.short	1028
 706 054a 0404     		.short	1028
 707 054c 0000     		.short	0
 708 054e 0000     		.short	0
 709 0550 0000     		.short	0
 710 0552 F807     		.short	2040
 711 0554 0400     		.short	4
 712 0556 0400     		.short	4
 713 0558 0400     		.short	4
 714 055a 0800     		.short	8
 715 055c FC07     		.short	2044
 716 055e 0000     		.short	0
 717 0560 0007     		.short	1792
 718 0562 C000     		.short	192
 719 0564 3000     		.short	48
 720 0566 0C00     		.short	12
 721 0568 3000     		.short	48
 722 056a C000     		.short	192
 723 056c 0007     		.short	1792
 724 056e 0000     		.short	0
 725 0570 E007     		.short	2016
 726 0572 1C00     		.short	28
 727 0574 6000     		.short	96
 728 0576 8007     		.short	1920
 729 0578 6000     		.short	96
 730 057a 1C00     		.short	28
 731 057c E007     		.short	2016
 732 057e 0000     		.short	0
 733 0580 0404     		.short	1028
 734 0582 0802     		.short	520
 735 0584 B001     		.short	432
 736 0586 4000     		.short	64
 737 0588 B001     		.short	432
ARM GAS  C:\Users\SUZUKI~1\AppData\Local\Temp\ccra9FCA.s 			page 14


 738 058a 0802     		.short	520
 739 058c 0404     		.short	1028
 740 058e 0000     		.short	0
 741 0590 0106     		.short	1537
 742 0592 8101     		.short	385
 743 0594 6200     		.short	98
 744 0596 1C00     		.short	28
 745 0598 7000     		.short	112
 746 059a 8001     		.short	384
 747 059c 0006     		.short	1536
 748 059e 0000     		.short	0
 749 05a0 0400     		.short	4
 750 05a2 0C04     		.short	1036
 751 05a4 1404     		.short	1044
 752 05a6 6404     		.short	1124
 753 05a8 8405     		.short	1412
 754 05aa 0406     		.short	1540
 755 05ac 0404     		.short	1028
 756 05ae 0000     		.short	0
 757 05b0 0000     		.short	0
 758 05b2 0000     		.short	0
 759 05b4 0000     		.short	0
 760 05b6 0001     		.short	256
 761 05b8 FE7E     		.short	32510
 762 05ba 0180     		.short	-32767
 763 05bc 0000     		.short	0
 764 05be 0000     		.short	0
 765 05c0 0000     		.short	0
 766 05c2 0000     		.short	0
 767 05c4 0000     		.short	0
 768 05c6 FFFF     		.short	-1
 769 05c8 0000     		.short	0
 770 05ca 0000     		.short	0
 771 05cc 0000     		.short	0
 772 05ce 0000     		.short	0
 773 05d0 0000     		.short	0
 774 05d2 0180     		.short	-32767
 775 05d4 FE7E     		.short	32510
 776 05d6 0001     		.short	256
 777 05d8 0000     		.short	0
 778 05da 0000     		.short	0
 779 05dc 0000     		.short	0
 780 05de 0000     		.short	0
 781 05e0 0008     		.short	2048
 782 05e2 0010     		.short	4096
 783 05e4 0010     		.short	4096
 784 05e6 0008     		.short	2048
 785 05e8 0004     		.short	1024
 786 05ea 0004     		.short	1024
 787 05ec 0008     		.short	2048
 788 05ee 0000     		.short	0
 789              		.comm	sd,596,4
 790              		.comm	hfont,548,4
 791              		.comm	htable,548,4
 792              		.section	.text.openFont,"ax",%progbits
 793              		.align	2
 794              		.global	openFont
ARM GAS  C:\Users\SUZUKI~1\AppData\Local\Temp\ccra9FCA.s 			page 15


 795              		.thumb
 796              		.thumb_func
 797              		.type	openFont, %function
 798              	openFont:
 799              	.LFB29:
 800              		.file 1 ".\\font.c"
   1:.\font.c      **** /* ========================================
   2:.\font.c      ****  *
   3:.\font.c      ****  * Copyright YOUR COMPANY, THE YEAR
   4:.\font.c      ****  * All Rights Reserved
   5:.\font.c      ****  * UNPUBLISHED, LICENSED SOFTWARE.
   6:.\font.c      ****  *
   7:.\font.c      ****  * CONFIDENTIAL AND PROPRIETARY INFORMATION
   8:.\font.c      ****  * WHICH IS THE PROPERTY OF your company.
   9:.\font.c      ****  *
  10:.\font.c      ****  * ========================================
  11:.\font.c      **** */
  12:.\font.c      **** 
  13:.\font.c      **** #include <device.h>
  14:.\font.c      **** #include <stdlib.h>
  15:.\font.c      **** #include "sdc/ff.h"
  16:.\font.c      **** #include "sd.h"
  17:.\font.c      **** #include "font.h"
  18:.\font.c      **** #include "uart.h"
  19:.\font.c      **** #include "fixedascii.h"
  20:.\font.c      **** 
  21:.\font.c      **** SDSTATUS sd;
  22:.\font.c      **** FIL hfont;
  23:.\font.c      **** FIL htable;
  24:.\font.c      **** 
  25:.\font.c      **** uint32 unpackHex4(char *buf);
  26:.\font.c      **** uint32 unpackHex6(char *buf);
  27:.\font.c      **** uint8 hex2int(uint8 ch);
  28:.\font.c      **** inline char *getBoundingBox(char *ptr, int8 *width, int8 *height, int8 *xorg, int8 *yorg);
  29:.\font.c      **** inline char *getBitmapData(char *ptr, uint8 *bitmapbuf);
  30:.\font.c      **** char *strsrc(const char *src, char marker, uint32 max);
  31:.\font.c      **** inline uint8 applyRasterOperation(uint8 dist, uint8 src, uint8 rop);
  32:.\font.c      **** inline uint8 extractBitColor(uint8 *buf, uint8 i, uint8 j);
  33:.\font.c      **** 
  34:.\font.c      **** 
  35:.\font.c      **** uint8 openFont(char *font, char *table)
  36:.\font.c      **** {
 801              		.loc 1 36 0
 802              		.cfi_startproc
 803              		@ args = 0, pretend = 0, frame = 8
 804              		@ frame_needed = 1, uses_anonymous_args = 0
 805 0000 80B5     		push	{r7, lr}
 806              	.LCFI0:
 807              		.cfi_def_cfa_offset 8
 808 0002 82B0     		sub	sp, sp, #8
 809              	.LCFI1:
 810              		.cfi_def_cfa_offset 16
 811 0004 00AF     		add	r7, sp, #0
 812              		.cfi_offset 14, -4
 813              		.cfi_offset 7, -8
 814              	.LCFI2:
 815              		.cfi_def_cfa_register 7
ARM GAS  C:\Users\SUZUKI~1\AppData\Local\Temp\ccra9FCA.s 			page 16


 816 0006 7860     		str	r0, [r7, #4]
 817 0008 3960     		str	r1, [r7, #0]
  37:.\font.c      **** 	if(SD_Init(&sd) == 0) {
 818              		.loc 1 37 0
 819 000a 40F20000 		movw	r0, #:lower16:sd
 820 000e C0F20000 		movt	r0, #:upper16:sd
 821 0012 FFF7FEFF 		bl	SD_Init
 822 0016 0346     		mov	r3, r0
 823 0018 002B     		cmp	r3, #0
 824 001a 02D1     		bne	.L2
  38:.\font.c      **** 		return 2;
 825              		.loc 1 38 0
 826 001c 4FF00203 		mov	r3, #2
 827 0020 23E0     		b	.L3
 828              	.L2:
  39:.\font.c      **** 	}
  40:.\font.c      **** 	if(SD_OpenFile(&sd, &hfont, font) == 0) {
 829              		.loc 1 40 0
 830 0022 40F20000 		movw	r0, #:lower16:sd
 831 0026 C0F20000 		movt	r0, #:upper16:sd
 832 002a 40F20001 		movw	r1, #:lower16:hfont
 833 002e C0F20001 		movt	r1, #:upper16:hfont
 834 0032 7A68     		ldr	r2, [r7, #4]
 835 0034 FFF7FEFF 		bl	SD_OpenFile
 836 0038 0346     		mov	r3, r0
 837 003a 002B     		cmp	r3, #0
 838 003c 02D1     		bne	.L4
  41:.\font.c      **** 		return 6;
 839              		.loc 1 41 0
 840 003e 4FF00603 		mov	r3, #6
 841 0042 12E0     		b	.L3
 842              	.L4:
  42:.\font.c      **** 	}
  43:.\font.c      **** 	if(SD_OpenFile(&sd, &htable, table) == 0) {
 843              		.loc 1 43 0
 844 0044 40F20000 		movw	r0, #:lower16:sd
 845 0048 C0F20000 		movt	r0, #:upper16:sd
 846 004c 40F20001 		movw	r1, #:lower16:htable
 847 0050 C0F20001 		movt	r1, #:upper16:htable
 848 0054 3A68     		ldr	r2, [r7, #0]
 849 0056 FFF7FEFF 		bl	SD_OpenFile
 850 005a 0346     		mov	r3, r0
 851 005c 002B     		cmp	r3, #0
 852 005e 02D1     		bne	.L5
  44:.\font.c      **** 		return 5;
 853              		.loc 1 44 0
 854 0060 4FF00503 		mov	r3, #5
 855 0064 01E0     		b	.L3
 856              	.L5:
  45:.\font.c      **** 	}
  46:.\font.c      **** 	return 1;
 857              		.loc 1 46 0
 858 0066 4FF00103 		mov	r3, #1
 859              	.L3:
  47:.\font.c      **** }
 860              		.loc 1 47 0
 861 006a 1846     		mov	r0, r3
ARM GAS  C:\Users\SUZUKI~1\AppData\Local\Temp\ccra9FCA.s 			page 17


 862 006c 07F10807 		add	r7, r7, #8
 863 0070 BD46     		mov	sp, r7
 864 0072 80BD     		pop	{r7, pc}
 865              		.cfi_endproc
 866              	.LFE29:
 867              		.size	openFont, .-openFont
 868              		.section	.text.closeFont,"ax",%progbits
 869              		.align	2
 870              		.global	closeFont
 871              		.thumb
 872              		.thumb_func
 873              		.type	closeFont, %function
 874              	closeFont:
 875              	.LFB30:
  48:.\font.c      **** 
  49:.\font.c      **** uint8 closeFont(void)
  50:.\font.c      **** {
 876              		.loc 1 50 0
 877              		.cfi_startproc
 878              		@ args = 0, pretend = 0, frame = 0
 879              		@ frame_needed = 1, uses_anonymous_args = 0
 880 0000 80B5     		push	{r7, lr}
 881              	.LCFI3:
 882              		.cfi_def_cfa_offset 8
 883 0002 00AF     		add	r7, sp, #0
 884              		.cfi_offset 14, -4
 885              		.cfi_offset 7, -8
 886              	.LCFI4:
 887              		.cfi_def_cfa_register 7
  51:.\font.c      **** 	SD_CloseFile(&sd, &hfont);
 888              		.loc 1 51 0
 889 0004 40F20000 		movw	r0, #:lower16:sd
 890 0008 C0F20000 		movt	r0, #:upper16:sd
 891 000c 40F20001 		movw	r1, #:lower16:hfont
 892 0010 C0F20001 		movt	r1, #:upper16:hfont
 893 0014 FFF7FEFF 		bl	SD_CloseFile
  52:.\font.c      **** 	SD_CloseFile(&sd, &htable);
 894              		.loc 1 52 0
 895 0018 40F20000 		movw	r0, #:lower16:sd
 896 001c C0F20000 		movt	r0, #:upper16:sd
 897 0020 40F20001 		movw	r1, #:lower16:htable
 898 0024 C0F20001 		movt	r1, #:upper16:htable
 899 0028 FFF7FEFF 		bl	SD_CloseFile
  53:.\font.c      **** 	return(1);
 900              		.loc 1 53 0
 901 002c 4FF00103 		mov	r3, #1
  54:.\font.c      **** }
 902              		.loc 1 54 0
 903 0030 1846     		mov	r0, r3
 904 0032 80BD     		pop	{r7, pc}
 905              		.cfi_endproc
 906              	.LFE30:
 907              		.size	closeFont, .-closeFont
 908              		.section	.text.getFontAddress,"ax",%progbits
 909              		.align	2
 910              		.global	getFontAddress
 911              		.thumb
ARM GAS  C:\Users\SUZUKI~1\AppData\Local\Temp\ccra9FCA.s 			page 18


 912              		.thumb_func
 913              		.type	getFontAddress, %function
 914              	getFontAddress:
 915              	.LFB31:
  55:.\font.c      **** 
  56:.\font.c      **** uint32 getFontAddress(uint32 unicode)
  57:.\font.c      **** {
 916              		.loc 1 57 0
 917              		.cfi_startproc
 918              		@ args = 0, pretend = 0, frame = 32
 919              		@ frame_needed = 1, uses_anonymous_args = 0
 920 0000 80B5     		push	{r7, lr}
 921              	.LCFI5:
 922              		.cfi_def_cfa_offset 8
 923 0002 88B0     		sub	sp, sp, #32
 924              	.LCFI6:
 925              		.cfi_def_cfa_offset 40
 926 0004 00AF     		add	r7, sp, #0
 927              		.cfi_offset 14, -4
 928              		.cfi_offset 7, -8
 929              	.LCFI7:
 930              		.cfi_def_cfa_register 7
 931 0006 7860     		str	r0, [r7, #4]
  58:.\font.c      **** 	char buf[16];
  59:.\font.c      **** //	uint8 i;
  60:.\font.c      **** 	unsigned int len;
  61:.\font.c      **** 	f_lseek(&htable, unicode * 7);
 932              		.loc 1 61 0
 933 0008 7A68     		ldr	r2, [r7, #4]
 934 000a 1346     		mov	r3, r2
 935 000c 4FEAC303 		lsl	r3, r3, #3
 936 0010 C2EB0303 		rsb	r3, r2, r3
 937 0014 40F20000 		movw	r0, #:lower16:htable
 938 0018 C0F20000 		movt	r0, #:upper16:htable
 939 001c 1946     		mov	r1, r3
 940 001e FFF7FEFF 		bl	f_lseek
  62:.\font.c      **** 	f_read(&htable, (uint8*)buf, 6, &len);
 941              		.loc 1 62 0
 942 0022 07F11002 		add	r2, r7, #16
 943 0026 07F10C03 		add	r3, r7, #12
 944 002a 40F20000 		movw	r0, #:lower16:htable
 945 002e C0F20000 		movt	r0, #:upper16:htable
 946 0032 1146     		mov	r1, r2
 947 0034 4FF00602 		mov	r2, #6
 948 0038 FFF7FEFF 		bl	f_read
  63:.\font.c      **** //	uprintf("\r\nunicode : %x = %d (%d) is mapped on ", unicode, unicode, unicode *6);
  64:.\font.c      **** //	for(i = 0; i < 8; i++) { uputc(buf[i]); }
  65:.\font.c      **** //	uprintf("\r\n\r\n");
  66:.\font.c      **** 	return(unpackHex6(buf));
 949              		.loc 1 66 0
 950 003c 07F11003 		add	r3, r7, #16
 951 0040 1846     		mov	r0, r3
 952 0042 FFF7FEFF 		bl	unpackHex6
 953 0046 0346     		mov	r3, r0
  67:.\font.c      **** }
 954              		.loc 1 67 0
 955 0048 1846     		mov	r0, r3
ARM GAS  C:\Users\SUZUKI~1\AppData\Local\Temp\ccra9FCA.s 			page 19


 956 004a 07F12007 		add	r7, r7, #32
 957 004e BD46     		mov	sp, r7
 958 0050 80BD     		pop	{r7, pc}
 959              		.cfi_endproc
 960              	.LFE31:
 961              		.size	getFontAddress, .-getFontAddress
 962 0052 00BF     		.section	.text.unpackHex4,"ax",%progbits
 963              		.align	2
 964              		.global	unpackHex4
 965              		.thumb
 966              		.thumb_func
 967              		.type	unpackHex4, %function
 968              	unpackHex4:
 969              	.LFB32:
  68:.\font.c      **** 
  69:.\font.c      **** uint32 unpackHex4(char *buf)
  70:.\font.c      **** {
 970              		.loc 1 70 0
 971              		.cfi_startproc
 972              		@ args = 0, pretend = 0, frame = 16
 973              		@ frame_needed = 1, uses_anonymous_args = 0
 974 0000 80B5     		push	{r7, lr}
 975              	.LCFI8:
 976              		.cfi_def_cfa_offset 8
 977 0002 84B0     		sub	sp, sp, #16
 978              	.LCFI9:
 979              		.cfi_def_cfa_offset 24
 980 0004 00AF     		add	r7, sp, #0
 981              		.cfi_offset 14, -4
 982              		.cfi_offset 7, -8
 983              	.LCFI10:
 984              		.cfi_def_cfa_register 7
 985 0006 7860     		str	r0, [r7, #4]
  71:.\font.c      **** 	uint32 hex = 0;
 986              		.loc 1 71 0
 987 0008 4FF00003 		mov	r3, #0
 988 000c BB60     		str	r3, [r7, #8]
  72:.\font.c      **** 	uint8 i;
  73:.\font.c      **** 	for(i = 0; i < 4; i++) {
 989              		.loc 1 73 0
 990 000e 4FF00003 		mov	r3, #0
 991 0012 FB73     		strb	r3, [r7, #15]
 992 0014 15E0     		b	.L12
 993              	.L13:
  74:.\font.c      **** 		hex <<= 4;
 994              		.loc 1 74 0
 995 0016 BB68     		ldr	r3, [r7, #8]
 996 0018 4FEA0313 		lsl	r3, r3, #4
 997 001c BB60     		str	r3, [r7, #8]
  75:.\font.c      **** 		hex |= (uint32)hex2int(*buf++);
 998              		.loc 1 75 0
 999 001e 7B68     		ldr	r3, [r7, #4]
 1000 0020 1B78     		ldrb	r3, [r3, #0]	@ zero_extendqisi2
 1001 0022 7A68     		ldr	r2, [r7, #4]
 1002 0024 02F10102 		add	r2, r2, #1
 1003 0028 7A60     		str	r2, [r7, #4]
 1004 002a 1846     		mov	r0, r3
ARM GAS  C:\Users\SUZUKI~1\AppData\Local\Temp\ccra9FCA.s 			page 20


 1005 002c FFF7FEFF 		bl	hex2int
 1006 0030 0346     		mov	r3, r0
 1007 0032 BA68     		ldr	r2, [r7, #8]
 1008 0034 42EA0303 		orr	r3, r2, r3
 1009 0038 BB60     		str	r3, [r7, #8]
 1010              		.loc 1 73 0
 1011 003a FB7B     		ldrb	r3, [r7, #15]
 1012 003c 03F10103 		add	r3, r3, #1
 1013 0040 FB73     		strb	r3, [r7, #15]
 1014              	.L12:
 1015 0042 FB7B     		ldrb	r3, [r7, #15]	@ zero_extendqisi2
 1016 0044 032B     		cmp	r3, #3
 1017 0046 E6D9     		bls	.L13
  76:.\font.c      **** 	}
  77:.\font.c      **** 	return(hex);
 1018              		.loc 1 77 0
 1019 0048 BB68     		ldr	r3, [r7, #8]
  78:.\font.c      **** }
 1020              		.loc 1 78 0
 1021 004a 1846     		mov	r0, r3
 1022 004c 07F11007 		add	r7, r7, #16
 1023 0050 BD46     		mov	sp, r7
 1024 0052 80BD     		pop	{r7, pc}
 1025              		.cfi_endproc
 1026              	.LFE32:
 1027              		.size	unpackHex4, .-unpackHex4
 1028              		.section	.text.unpackHex6,"ax",%progbits
 1029              		.align	2
 1030              		.global	unpackHex6
 1031              		.thumb
 1032              		.thumb_func
 1033              		.type	unpackHex6, %function
 1034              	unpackHex6:
 1035              	.LFB33:
  79:.\font.c      **** 
  80:.\font.c      **** uint32 unpackHex6(char *buf)
  81:.\font.c      **** {
 1036              		.loc 1 81 0
 1037              		.cfi_startproc
 1038              		@ args = 0, pretend = 0, frame = 16
 1039              		@ frame_needed = 1, uses_anonymous_args = 0
 1040 0000 80B5     		push	{r7, lr}
 1041              	.LCFI11:
 1042              		.cfi_def_cfa_offset 8
 1043 0002 84B0     		sub	sp, sp, #16
 1044              	.LCFI12:
 1045              		.cfi_def_cfa_offset 24
 1046 0004 00AF     		add	r7, sp, #0
 1047              		.cfi_offset 14, -4
 1048              		.cfi_offset 7, -8
 1049              	.LCFI13:
 1050              		.cfi_def_cfa_register 7
 1051 0006 7860     		str	r0, [r7, #4]
  82:.\font.c      **** 	uint32 hex = 0;
 1052              		.loc 1 82 0
 1053 0008 4FF00003 		mov	r3, #0
 1054 000c BB60     		str	r3, [r7, #8]
ARM GAS  C:\Users\SUZUKI~1\AppData\Local\Temp\ccra9FCA.s 			page 21


  83:.\font.c      **** 	uint8 i;
  84:.\font.c      **** 	for(i = 0; i < 6; i++) {
 1055              		.loc 1 84 0
 1056 000e 4FF00003 		mov	r3, #0
 1057 0012 FB73     		strb	r3, [r7, #15]
 1058 0014 15E0     		b	.L16
 1059              	.L17:
  85:.\font.c      **** 		hex <<= 4;
 1060              		.loc 1 85 0
 1061 0016 BB68     		ldr	r3, [r7, #8]
 1062 0018 4FEA0313 		lsl	r3, r3, #4
 1063 001c BB60     		str	r3, [r7, #8]
  86:.\font.c      **** 		hex |= (uint32)hex2int(*buf++);
 1064              		.loc 1 86 0
 1065 001e 7B68     		ldr	r3, [r7, #4]
 1066 0020 1B78     		ldrb	r3, [r3, #0]	@ zero_extendqisi2
 1067 0022 7A68     		ldr	r2, [r7, #4]
 1068 0024 02F10102 		add	r2, r2, #1
 1069 0028 7A60     		str	r2, [r7, #4]
 1070 002a 1846     		mov	r0, r3
 1071 002c FFF7FEFF 		bl	hex2int
 1072 0030 0346     		mov	r3, r0
 1073 0032 BA68     		ldr	r2, [r7, #8]
 1074 0034 42EA0303 		orr	r3, r2, r3
 1075 0038 BB60     		str	r3, [r7, #8]
 1076              		.loc 1 84 0
 1077 003a FB7B     		ldrb	r3, [r7, #15]
 1078 003c 03F10103 		add	r3, r3, #1
 1079 0040 FB73     		strb	r3, [r7, #15]
 1080              	.L16:
 1081 0042 FB7B     		ldrb	r3, [r7, #15]	@ zero_extendqisi2
 1082 0044 052B     		cmp	r3, #5
 1083 0046 E6D9     		bls	.L17
  87:.\font.c      **** 	}
  88:.\font.c      **** 	return(hex);
 1084              		.loc 1 88 0
 1085 0048 BB68     		ldr	r3, [r7, #8]
  89:.\font.c      **** }
 1086              		.loc 1 89 0
 1087 004a 1846     		mov	r0, r3
 1088 004c 07F11007 		add	r7, r7, #16
 1089 0050 BD46     		mov	sp, r7
 1090 0052 80BD     		pop	{r7, pc}
 1091              		.cfi_endproc
 1092              	.LFE33:
 1093              		.size	unpackHex6, .-unpackHex6
 1094              		.section	.text.hex2int,"ax",%progbits
 1095              		.align	2
 1096              		.global	hex2int
 1097              		.thumb
 1098              		.thumb_func
 1099              		.type	hex2int, %function
 1100              	hex2int:
 1101              	.LFB34:
  90:.\font.c      **** 
  91:.\font.c      **** uint8 hex2int(uint8 ch)
  92:.\font.c      **** {
ARM GAS  C:\Users\SUZUKI~1\AppData\Local\Temp\ccra9FCA.s 			page 22


 1102              		.loc 1 92 0
 1103              		.cfi_startproc
 1104              		@ args = 0, pretend = 0, frame = 16
 1105              		@ frame_needed = 1, uses_anonymous_args = 0
 1106              		@ link register save eliminated.
 1107 0000 80B4     		push	{r7}
 1108              	.LCFI14:
 1109              		.cfi_def_cfa_offset 4
 1110 0002 85B0     		sub	sp, sp, #20
 1111              	.LCFI15:
 1112              		.cfi_def_cfa_offset 24
 1113 0004 00AF     		add	r7, sp, #0
 1114              		.cfi_offset 7, -4
 1115              	.LCFI16:
 1116              		.cfi_def_cfa_register 7
 1117 0006 0346     		mov	r3, r0
 1118 0008 FB71     		strb	r3, [r7, #7]
 1119              	.LBB2:
  93:.\font.c      **** 	switch(toupper(ch)) {
 1120              		.loc 1 93 0
 1121 000a FB79     		ldrb	r3, [r7, #7]	@ zero_extendqisi2
 1122 000c FB60     		str	r3, [r7, #12]
 1123 000e 40F20003 		movw	r3, #:lower16:__ctype_ptr__
 1124 0012 C0F20003 		movt	r3, #:upper16:__ctype_ptr__
 1125 0016 1A68     		ldr	r2, [r3, #0]
 1126 0018 FB68     		ldr	r3, [r7, #12]
 1127 001a 03F10103 		add	r3, r3, #1
 1128 001e 1344     		add	r3, r2, r3
 1129 0020 1B78     		ldrb	r3, [r3, #0]	@ zero_extendqisi2
 1130 0022 03F00203 		and	r3, r3, #2
 1131 0026 002B     		cmp	r3, #0
 1132 0028 03D0     		beq	.L20
 1133 002a FB68     		ldr	r3, [r7, #12]
 1134 002c A3F12003 		sub	r3, r3, #32
 1135 0030 00E0     		b	.L21
 1136              	.L20:
 1137 0032 FB68     		ldr	r3, [r7, #12]
 1138              	.L21:
 1139              	.LBE2:
 1140 0034 A3F13003 		sub	r3, r3, #48
 1141 0038 162B     		cmp	r3, #22
 1142 003a 61D8     		bhi	.L22
 1143 003c 01A2     		adr	r2, .L39
 1144 003e 52F823F0 		ldr	pc, [r2, r3, lsl #2]
 1145 0042 00BF     		.align	2
 1146              	.L39:
 1147 0044 A1000000 		.word	.L23+1
 1148 0048 A7000000 		.word	.L24+1
 1149 004c AD000000 		.word	.L25+1
 1150 0050 B3000000 		.word	.L26+1
 1151 0054 B9000000 		.word	.L27+1
 1152 0058 BF000000 		.word	.L28+1
 1153 005c C5000000 		.word	.L29+1
 1154 0060 CB000000 		.word	.L30+1
 1155 0064 D1000000 		.word	.L31+1
 1156 0068 D7000000 		.word	.L32+1
 1157 006c 01010000 		.word	.L22+1
ARM GAS  C:\Users\SUZUKI~1\AppData\Local\Temp\ccra9FCA.s 			page 23


 1158 0070 01010000 		.word	.L22+1
 1159 0074 01010000 		.word	.L22+1
 1160 0078 01010000 		.word	.L22+1
 1161 007c 01010000 		.word	.L22+1
 1162 0080 01010000 		.word	.L22+1
 1163 0084 01010000 		.word	.L22+1
 1164 0088 DD000000 		.word	.L33+1
 1165 008c E3000000 		.word	.L34+1
 1166 0090 E9000000 		.word	.L35+1
 1167 0094 EF000000 		.word	.L36+1
 1168 0098 F5000000 		.word	.L37+1
 1169 009c FB000000 		.word	.L38+1
 1170              	.L23:
  94:.\font.c      **** 		case '0': return(0);
 1171              		.loc 1 94 0
 1172 00a0 4FF00003 		mov	r3, #0
 1173 00a4 2EE0     		b	.L40
 1174              	.L24:
  95:.\font.c      **** 		case '1': return(1);
 1175              		.loc 1 95 0
 1176 00a6 4FF00103 		mov	r3, #1
 1177 00aa 2BE0     		b	.L40
 1178              	.L25:
  96:.\font.c      **** 		case '2': return(2);
 1179              		.loc 1 96 0
 1180 00ac 4FF00203 		mov	r3, #2
 1181 00b0 28E0     		b	.L40
 1182              	.L26:
  97:.\font.c      **** 		case '3': return(3);
 1183              		.loc 1 97 0
 1184 00b2 4FF00303 		mov	r3, #3
 1185 00b6 25E0     		b	.L40
 1186              	.L27:
  98:.\font.c      **** 		case '4': return(4);
 1187              		.loc 1 98 0
 1188 00b8 4FF00403 		mov	r3, #4
 1189 00bc 22E0     		b	.L40
 1190              	.L28:
  99:.\font.c      **** 		case '5': return(5);
 1191              		.loc 1 99 0
 1192 00be 4FF00503 		mov	r3, #5
 1193 00c2 1FE0     		b	.L40
 1194              	.L29:
 100:.\font.c      **** 		case '6': return(6);
 1195              		.loc 1 100 0
 1196 00c4 4FF00603 		mov	r3, #6
 1197 00c8 1CE0     		b	.L40
 1198              	.L30:
 101:.\font.c      **** 		case '7': return(7);
 1199              		.loc 1 101 0
 1200 00ca 4FF00703 		mov	r3, #7
 1201 00ce 19E0     		b	.L40
 1202              	.L31:
 102:.\font.c      **** 		case '8': return(8);
 1203              		.loc 1 102 0
 1204 00d0 4FF00803 		mov	r3, #8
 1205 00d4 16E0     		b	.L40
ARM GAS  C:\Users\SUZUKI~1\AppData\Local\Temp\ccra9FCA.s 			page 24


 1206              	.L32:
 103:.\font.c      **** 		case '9': return(9);
 1207              		.loc 1 103 0
 1208 00d6 4FF00903 		mov	r3, #9
 1209 00da 13E0     		b	.L40
 1210              	.L33:
 104:.\font.c      **** 		case 'A': return(10);
 1211              		.loc 1 104 0
 1212 00dc 4FF00A03 		mov	r3, #10
 1213 00e0 10E0     		b	.L40
 1214              	.L34:
 105:.\font.c      **** 		case 'B': return(11);
 1215              		.loc 1 105 0
 1216 00e2 4FF00B03 		mov	r3, #11
 1217 00e6 0DE0     		b	.L40
 1218              	.L35:
 106:.\font.c      **** 		case 'C': return(12);
 1219              		.loc 1 106 0
 1220 00e8 4FF00C03 		mov	r3, #12
 1221 00ec 0AE0     		b	.L40
 1222              	.L36:
 107:.\font.c      **** 		case 'D': return(13);
 1223              		.loc 1 107 0
 1224 00ee 4FF00D03 		mov	r3, #13
 1225 00f2 07E0     		b	.L40
 1226              	.L37:
 108:.\font.c      **** 		case 'E': return(14);
 1227              		.loc 1 108 0
 1228 00f4 4FF00E03 		mov	r3, #14
 1229 00f8 04E0     		b	.L40
 1230              	.L38:
 109:.\font.c      **** 		case 'F': return(15);
 1231              		.loc 1 109 0
 1232 00fa 4FF00F03 		mov	r3, #15
 1233 00fe 01E0     		b	.L40
 1234              	.L22:
 110:.\font.c      **** 	}
 111:.\font.c      **** 	return(0);
 1235              		.loc 1 111 0
 1236 0100 4FF00003 		mov	r3, #0
 1237              	.L40:
 112:.\font.c      **** }
 1238              		.loc 1 112 0
 1239 0104 1846     		mov	r0, r3
 1240 0106 07F11407 		add	r7, r7, #20
 1241 010a BD46     		mov	sp, r7
 1242 010c 80BC     		pop	{r7}
 1243 010e 7047     		bx	lr
 1244              		.cfi_endproc
 1245              	.LFE34:
 1246              		.size	hex2int, .-hex2int
 1247              		.section	.text.expandFontBitmap,"ax",%progbits
 1248              		.align	2
 1249              		.global	expandFontBitmap
 1250              		.thumb
 1251              		.thumb_func
 1252              		.type	expandFontBitmap, %function
ARM GAS  C:\Users\SUZUKI~1\AppData\Local\Temp\ccra9FCA.s 			page 25


 1253              	expandFontBitmap:
 1254              	.LFB35:
 113:.\font.c      **** 
 114:.\font.c      **** void expandFontBitmap(uint32 addr, uint8 *dest, uint8 color, uint8 mode)
 115:.\font.c      **** {
 1255              		.loc 1 115 0
 1256              		.cfi_startproc
 1257              		@ args = 0, pretend = 0, frame = 320
 1258              		@ frame_needed = 1, uses_anonymous_args = 0
 1259 0000 B0B5     		push	{r4, r5, r7, lr}
 1260              	.LCFI17:
 1261              		.cfi_def_cfa_offset 16
 1262 0002 D2B0     		sub	sp, sp, #328
 1263              	.LCFI18:
 1264              		.cfi_def_cfa_offset 344
 1265 0004 02AF     		add	r7, sp, #8
 1266              		.cfi_offset 14, -4
 1267              		.cfi_offset 7, -8
 1268              		.cfi_offset 5, -12
 1269              		.cfi_offset 4, -16
 1270              	.LCFI19:
 1271              		.cfi_def_cfa 7, 336
 1272 0006 07F10C0C 		add	ip, r7, #12
 1273 000a CCF80000 		str	r0, [ip, #0]
 1274 000e 07F10800 		add	r0, r7, #8
 1275 0012 0160     		str	r1, [r0, #0]
 1276 0014 1146     		mov	r1, r2
 1277 0016 1A46     		mov	r2, r3
 1278 0018 07F10803 		add	r3, r7, #8
 1279 001c 03F1FF33 		add	r3, r3, #-1
 1280 0020 1970     		strb	r1, [r3, #0]
 1281 0022 07F10603 		add	r3, r7, #6
 1282 0026 1A70     		strb	r2, [r3, #0]
 116:.\font.c      **** 	char readbuf[READ_BUFFER_SIZE];
 117:.\font.c      **** 	char *p;
 118:.\font.c      **** 	int8 height, width, i, j;
 119:.\font.c      **** 	uint8 bitmapbuf[FONT_BITMAP_BUFFER_SIZE];
 120:.\font.c      **** 	unsigned int len;
 121:.\font.c      **** 	/* get bdf font data */
 122:.\font.c      **** 	f_lseek(&hfont, addr);
 1283              		.loc 1 122 0
 1284 0028 07F10C03 		add	r3, r7, #12
 1285 002c 40F20000 		movw	r0, #:lower16:hfont
 1286 0030 C0F20000 		movt	r0, #:upper16:hfont
 1287 0034 1968     		ldr	r1, [r3, #0]
 1288 0036 FFF7FEFF 		bl	f_lseek
 123:.\font.c      **** 	f_read(&hfont, readbuf, READ_BUFFER_SIZE, &len);
 1289              		.loc 1 123 0
 1290 003a 07F13802 		add	r2, r7, #56
 1291 003e 07F11003 		add	r3, r7, #16
 1292 0042 40F20000 		movw	r0, #:lower16:hfont
 1293 0046 C0F20000 		movt	r0, #:upper16:hfont
 1294 004a 1146     		mov	r1, r2
 1295 004c 4FF48072 		mov	r2, #256
 1296 0050 FFF7FEFF 		bl	f_read
 124:.\font.c      **** //	for(j = 0; j < len; j++) {uputc(readbuf[j]);}
 125:.\font.c      **** //	uprintf("len = %d (%d)\r\n", len, READ_BUFFER_SIZE);
ARM GAS  C:\Users\SUZUKI~1\AppData\Local\Temp\ccra9FCA.s 			page 26


 126:.\font.c      **** 	if(READ_BUFFER_SIZE != len) {
 1297              		.loc 1 126 0
 1298 0054 07F11003 		add	r3, r7, #16
 1299 0058 1B68     		ldr	r3, [r3, #0]
 1300 005a B3F5807F 		cmp	r3, #256
 1301 005e 40F08480 		bne	.L52
 1302              	.L43:
 127:.\font.c      **** 		return;
 128:.\font.c      **** 	}
 129:.\font.c      **** 	p = readbuf;
 1303              		.loc 1 129 0
 1304 0062 07F13803 		add	r3, r7, #56
 1305 0066 C7F83831 		str	r3, [r7, #312]
 130:.\font.c      **** 	p = getBoundingBox(p, &width, &height, NULL, NULL);
 1306              		.loc 1 130 0
 1307 006a 07F13602 		add	r2, r7, #54
 1308 006e 07F13803 		add	r3, r7, #56
 1309 0072 03F1FF33 		add	r3, r3, #-1
 1310 0076 4FF00001 		mov	r1, #0
 1311 007a 0091     		str	r1, [sp, #0]
 1312 007c D7F83801 		ldr	r0, [r7, #312]
 1313 0080 1146     		mov	r1, r2
 1314 0082 1A46     		mov	r2, r3
 1315 0084 4FF00003 		mov	r3, #0
 1316 0088 FFF7FEFF 		bl	getBoundingBox
 1317 008c 0346     		mov	r3, r0
 1318 008e C7F83831 		str	r3, [r7, #312]
 131:.\font.c      **** //	uprintf("w = %d, h = %d\r\n", width, height);
 132:.\font.c      **** 	p = getBitmapData(p, bitmapbuf);
 1319              		.loc 1 132 0
 1320 0092 07F11403 		add	r3, r7, #20
 1321 0096 D7F83801 		ldr	r0, [r7, #312]
 1322 009a 1946     		mov	r1, r3
 1323 009c FFF7FEFF 		bl	getBitmapData
 1324 00a0 0346     		mov	r3, r0
 1325 00a2 C7F83831 		str	r3, [r7, #312]
 133:.\font.c      **** 	for(i = 0; i < width; i++) {
 1326              		.loc 1 133 0
 1327 00a6 4FF00003 		mov	r3, #0
 1328 00aa 87F83E31 		strb	r3, [r7, #318]
 1329 00ae 53E0     		b	.L45
 1330              	.L50:
 134:.\font.c      **** 		for(j = 0; j < height; j++) {
 1331              		.loc 1 134 0
 1332 00b0 4FF00003 		mov	r3, #0
 1333 00b4 87F83F31 		strb	r3, [r7, #319]
 1334 00b8 3EE0     		b	.L46
 1335              	.L49:
 135:.\font.c      **** 			/* dest[i + j*16] にアクセスする */
 136:.\font.c      **** 			dest[j+i*16] = applyRasterOperation(dest[j+i*16], extractBitColor(bitmapbuf, i, j) ? color : 0, 
 1336              		.loc 1 136 0
 1337 00ba 97F93F21 		ldrsb	r2, [r7, #319]
 1338 00be 97F93E31 		ldrsb	r3, [r7, #318]
 1339 00c2 4FEA0313 		lsl	r3, r3, #4
 1340 00c6 1344     		add	r3, r2, r3
 1341 00c8 1A46     		mov	r2, r3
 1342 00ca 07F10803 		add	r3, r7, #8
ARM GAS  C:\Users\SUZUKI~1\AppData\Local\Temp\ccra9FCA.s 			page 27


 1343 00ce 1B68     		ldr	r3, [r3, #0]
 1344 00d0 02EB0304 		add	r4, r2, r3
 1345 00d4 97F93F21 		ldrsb	r2, [r7, #319]
 1346 00d8 97F93E31 		ldrsb	r3, [r7, #318]
 1347 00dc 4FEA0313 		lsl	r3, r3, #4
 1348 00e0 1344     		add	r3, r2, r3
 1349 00e2 1A46     		mov	r2, r3
 1350 00e4 07F10803 		add	r3, r7, #8
 1351 00e8 1B68     		ldr	r3, [r3, #0]
 1352 00ea 1344     		add	r3, r2, r3
 1353 00ec 1D78     		ldrb	r5, [r3, #0]	@ zero_extendqisi2
 1354 00ee 97F83E21 		ldrb	r2, [r7, #318]	@ zero_extendqisi2
 1355 00f2 97F83F31 		ldrb	r3, [r7, #319]	@ zero_extendqisi2
 1356 00f6 07F11401 		add	r1, r7, #20
 1357 00fa 0846     		mov	r0, r1
 1358 00fc 1146     		mov	r1, r2
 1359 00fe 1A46     		mov	r2, r3
 1360 0100 FFF7FEFF 		bl	extractBitColor
 1361 0104 0346     		mov	r3, r0
 1362 0106 002B     		cmp	r3, #0
 1363 0108 05D0     		beq	.L47
 1364 010a 07F10803 		add	r3, r7, #8
 1365 010e 03F1FF33 		add	r3, r3, #-1
 1366 0112 1B78     		ldrb	r3, [r3, #0]	@ zero_extendqisi2
 1367 0114 01E0     		b	.L48
 1368              	.L47:
 1369 0116 4FF00003 		mov	r3, #0
 1370              	.L48:
 1371 011a 07F10602 		add	r2, r7, #6
 1372 011e 1278     		ldrb	r2, [r2, #0]	@ zero_extendqisi2
 1373 0120 2846     		mov	r0, r5
 1374 0122 1946     		mov	r1, r3
 1375 0124 FFF7FEFF 		bl	applyRasterOperation
 1376 0128 0346     		mov	r3, r0
 1377 012a 2370     		strb	r3, [r4, #0]
 1378              		.loc 1 134 0
 1379 012c 97F83F31 		ldrb	r3, [r7, #319]
 1380 0130 03F10103 		add	r3, r3, #1
 1381 0134 87F83F31 		strb	r3, [r7, #319]
 1382              	.L46:
 1383 0138 07F13803 		add	r3, r7, #56
 1384 013c 03F1FF33 		add	r3, r3, #-1
 1385 0140 1B78     		ldrb	r3, [r3, #0]	@ zero_extendqisi2
 1386 0142 97F93F21 		ldrsb	r2, [r7, #319]
 1387 0146 5BB2     		sxtb	r3, r3
 1388 0148 9A42     		cmp	r2, r3
 1389 014a B6DB     		blt	.L49
 1390              		.loc 1 133 0
 1391 014c 97F83E31 		ldrb	r3, [r7, #318]
 1392 0150 03F10103 		add	r3, r3, #1
 1393 0154 87F83E31 		strb	r3, [r7, #318]
 1394              	.L45:
 1395 0158 07F13603 		add	r3, r7, #54
 1396 015c 1B78     		ldrb	r3, [r3, #0]	@ zero_extendqisi2
 1397 015e 97F93E21 		ldrsb	r2, [r7, #318]
 1398 0162 5BB2     		sxtb	r3, r3
 1399 0164 9A42     		cmp	r2, r3
ARM GAS  C:\Users\SUZUKI~1\AppData\Local\Temp\ccra9FCA.s 			page 28


 1400 0166 A3DB     		blt	.L50
 137:.\font.c      **** //			uprintf("%d", dest[j+i*16]);
 138:.\font.c      **** 		}
 139:.\font.c      **** //		uprintf("\r\n");
 140:.\font.c      **** 	}
 141:.\font.c      **** 	return;
 1401              		.loc 1 141 0
 1402 0168 00E0     		b	.L51
 1403              	.L52:
 1404              		.loc 1 127 0
 1405 016a 00BF     		nop
 1406              	.L51:
 142:.\font.c      **** }
 1407              		.loc 1 142 0
 1408 016c 07F5A077 		add	r7, r7, #320
 1409 0170 BD46     		mov	sp, r7
 1410 0172 B0BD     		pop	{r4, r5, r7, pc}
 1411              		.cfi_endproc
 1412              	.LFE35:
 1413              		.size	expandFontBitmap, .-expandFontBitmap
 1414              		.section	.text.expandFontBitmapPackedMemory,"ax",%progbits
 1415              		.align	2
 1416              		.global	expandFontBitmapPackedMemory
 1417              		.thumb
 1418              		.thumb_func
 1419              		.type	expandFontBitmapPackedMemory, %function
 1420              	expandFontBitmapPackedMemory:
 1421              	.LFB36:
 143:.\font.c      **** 
 144:.\font.c      **** void expandFontBitmapPackedMemory(uint32 addr, uint8 *dest, uint8 color, uint8 mode)
 145:.\font.c      **** {
 1422              		.loc 1 145 0
 1423              		.cfi_startproc
 1424              		@ args = 0, pretend = 0, frame = 320
 1425              		@ frame_needed = 1, uses_anonymous_args = 0
 1426 0000 80B5     		push	{r7, lr}
 1427              	.LCFI20:
 1428              		.cfi_def_cfa_offset 8
 1429 0002 D2B0     		sub	sp, sp, #328
 1430              	.LCFI21:
 1431              		.cfi_def_cfa_offset 336
 1432 0004 02AF     		add	r7, sp, #8
 1433              		.cfi_offset 14, -4
 1434              		.cfi_offset 7, -8
 1435              	.LCFI22:
 1436              		.cfi_def_cfa 7, 328
 1437 0006 07F10C0C 		add	ip, r7, #12
 1438 000a CCF80000 		str	r0, [ip, #0]
 1439 000e 07F10800 		add	r0, r7, #8
 1440 0012 0160     		str	r1, [r0, #0]
 1441 0014 1146     		mov	r1, r2
 1442 0016 1A46     		mov	r2, r3
 1443 0018 07F10803 		add	r3, r7, #8
 1444 001c 03F1FF33 		add	r3, r3, #-1
 1445 0020 1970     		strb	r1, [r3, #0]
 1446 0022 07F10603 		add	r3, r7, #6
 1447 0026 1A70     		strb	r2, [r3, #0]
ARM GAS  C:\Users\SUZUKI~1\AppData\Local\Temp\ccra9FCA.s 			page 29


 146:.\font.c      **** 	char readbuf[READ_BUFFER_SIZE];
 147:.\font.c      **** 	char *p;
 148:.\font.c      **** 	int8 height, width, i, j;
 149:.\font.c      **** 	uint8 bitmapbuf[FONT_BITMAP_BUFFER_SIZE];
 150:.\font.c      **** 	unsigned int len;
 151:.\font.c      **** 	/* get bdf font data */
 152:.\font.c      **** 	f_lseek(&hfont, addr);
 1448              		.loc 1 152 0
 1449 0028 07F10C03 		add	r3, r7, #12
 1450 002c 40F20000 		movw	r0, #:lower16:hfont
 1451 0030 C0F20000 		movt	r0, #:upper16:hfont
 1452 0034 1968     		ldr	r1, [r3, #0]
 1453 0036 FFF7FEFF 		bl	f_lseek
 153:.\font.c      **** 	f_read(&hfont, readbuf, READ_BUFFER_SIZE, &len);
 1454              		.loc 1 153 0
 1455 003a 07F13802 		add	r2, r7, #56
 1456 003e 07F11003 		add	r3, r7, #16
 1457 0042 40F20000 		movw	r0, #:lower16:hfont
 1458 0046 C0F20000 		movt	r0, #:upper16:hfont
 1459 004a 1146     		mov	r1, r2
 1460 004c 4FF48072 		mov	r2, #256
 1461 0050 FFF7FEFF 		bl	f_read
 154:.\font.c      **** 	if(READ_BUFFER_SIZE != len) {
 1462              		.loc 1 154 0
 1463 0054 07F11003 		add	r3, r7, #16
 1464 0058 1B68     		ldr	r3, [r3, #0]
 1465 005a B3F5807F 		cmp	r3, #256
 1466 005e 40F0BF80 		bne	.L63
 1467              	.L54:
 155:.\font.c      **** 		return;
 156:.\font.c      **** 	}
 157:.\font.c      **** 	p = readbuf;
 1468              		.loc 1 157 0
 1469 0062 07F13803 		add	r3, r7, #56
 1470 0066 C7F83831 		str	r3, [r7, #312]
 158:.\font.c      **** 	p = getBoundingBox(p, &width, &height, NULL, NULL);
 1471              		.loc 1 158 0
 1472 006a 07F13602 		add	r2, r7, #54
 1473 006e 07F13803 		add	r3, r7, #56
 1474 0072 03F1FF33 		add	r3, r3, #-1
 1475 0076 4FF00001 		mov	r1, #0
 1476 007a 0091     		str	r1, [sp, #0]
 1477 007c D7F83801 		ldr	r0, [r7, #312]
 1478 0080 1146     		mov	r1, r2
 1479 0082 1A46     		mov	r2, r3
 1480 0084 4FF00003 		mov	r3, #0
 1481 0088 FFF7FEFF 		bl	getBoundingBox
 1482 008c 0346     		mov	r3, r0
 1483 008e C7F83831 		str	r3, [r7, #312]
 159:.\font.c      **** 	p = getBitmapData(p, bitmapbuf);
 1484              		.loc 1 159 0
 1485 0092 07F11403 		add	r3, r7, #20
 1486 0096 D7F83801 		ldr	r0, [r7, #312]
 1487 009a 1946     		mov	r1, r3
 1488 009c FFF7FEFF 		bl	getBitmapData
 1489 00a0 0346     		mov	r3, r0
 1490 00a2 C7F83831 		str	r3, [r7, #312]
ARM GAS  C:\Users\SUZUKI~1\AppData\Local\Temp\ccra9FCA.s 			page 30


 160:.\font.c      **** 	for(i = 0; i < width; i++) {
 1491              		.loc 1 160 0
 1492 00a6 4FF00003 		mov	r3, #0
 1493 00aa 87F83E31 		strb	r3, [r7, #318]
 1494 00ae 8DE0     		b	.L56
 1495              	.L61:
 161:.\font.c      **** 		for(j = 0; j < height; j++) {
 1496              		.loc 1 161 0
 1497 00b0 4FF00003 		mov	r3, #0
 1498 00b4 87F83F31 		strb	r3, [r7, #319]
 1499 00b8 77E0     		b	.L57
 1500              	.L60:
 162:.\font.c      **** 			/* dest[i + j*16] にアクセスする */
 163:.\font.c      **** //			dest[j+i*16] = applyRasterOperation(dest[j+i*16], extractBitColor(bitmapbuf, i, j) ? color : 0
 164:.\font.c      **** 			if(extractBitColor(bitmapbuf, i, j)) {
 1501              		.loc 1 164 0
 1502 00ba 97F83E21 		ldrb	r2, [r7, #318]	@ zero_extendqisi2
 1503 00be 97F83F31 		ldrb	r3, [r7, #319]	@ zero_extendqisi2
 1504 00c2 07F11401 		add	r1, r7, #20
 1505 00c6 0846     		mov	r0, r1
 1506 00c8 1146     		mov	r1, r2
 1507 00ca 1A46     		mov	r2, r3
 1508 00cc FFF7FEFF 		bl	extractBitColor
 1509 00d0 0346     		mov	r3, r0
 1510 00d2 002B     		cmp	r3, #0
 1511 00d4 30D0     		beq	.L58
 165:.\font.c      **** 				dest[i*2 + j/8] |= (0x80>>(j&0x07));
 1512              		.loc 1 165 0
 1513 00d6 97F93E31 		ldrsb	r3, [r7, #318]
 1514 00da 4FEA4301 		lsl	r1, r3, #1
 1515 00de 97F93F31 		ldrsb	r3, [r7, #319]
 1516 00e2 03F10702 		add	r2, r3, #7
 1517 00e6 002B     		cmp	r3, #0
 1518 00e8 B8BF     		it	lt
 1519 00ea 1346     		movlt	r3, r2
 1520 00ec 4FEAE303 		asr	r3, r3, #3
 1521 00f0 DBB2     		uxtb	r3, r3
 1522 00f2 5AB2     		sxtb	r2, r3
 1523 00f4 0A44     		add	r2, r1, r2
 1524 00f6 1146     		mov	r1, r2
 1525 00f8 07F10802 		add	r2, r7, #8
 1526 00fc 1268     		ldr	r2, [r2, #0]
 1527 00fe 0A44     		add	r2, r1, r2
 1528 0100 97F93E11 		ldrsb	r1, [r7, #318]
 1529 0104 4FEA4101 		lsl	r1, r1, #1
 1530 0108 5BB2     		sxtb	r3, r3
 1531 010a 0B44     		add	r3, r1, r3
 1532 010c 1946     		mov	r1, r3
 1533 010e 07F10803 		add	r3, r7, #8
 1534 0112 1B68     		ldr	r3, [r3, #0]
 1535 0114 0B44     		add	r3, r1, r3
 1536 0116 1B78     		ldrb	r3, [r3, #0]	@ zero_extendqisi2
 1537 0118 1946     		mov	r1, r3
 1538 011a 97F83F31 		ldrb	r3, [r7, #319]	@ zero_extendqisi2
 1539 011e 03F00703 		and	r3, r3, #7
 1540 0122 4FF08000 		mov	r0, #128
 1541 0126 40FA03F3 		asr	r3, r0, r3
ARM GAS  C:\Users\SUZUKI~1\AppData\Local\Temp\ccra9FCA.s 			page 31


 1542 012a DBB2     		uxtb	r3, r3
 1543 012c 41EA0303 		orr	r3, r1, r3
 1544 0130 DBB2     		uxtb	r3, r3
 1545 0132 DBB2     		uxtb	r3, r3
 1546 0134 1370     		strb	r3, [r2, #0]
 1547 0136 32E0     		b	.L59
 1548              	.L58:
 166:.\font.c      **** 			} else {
 167:.\font.c      **** 				dest[i*2 + j/8] &= ~(0x80>>(j&0x07));
 1549              		.loc 1 167 0
 1550 0138 97F93E31 		ldrsb	r3, [r7, #318]
 1551 013c 4FEA4301 		lsl	r1, r3, #1
 1552 0140 97F93F31 		ldrsb	r3, [r7, #319]
 1553 0144 03F10702 		add	r2, r3, #7
 1554 0148 002B     		cmp	r3, #0
 1555 014a B8BF     		it	lt
 1556 014c 1346     		movlt	r3, r2
 1557 014e 4FEAE303 		asr	r3, r3, #3
 1558 0152 DBB2     		uxtb	r3, r3
 1559 0154 5AB2     		sxtb	r2, r3
 1560 0156 0A44     		add	r2, r1, r2
 1561 0158 1146     		mov	r1, r2
 1562 015a 07F10802 		add	r2, r7, #8
 1563 015e 1268     		ldr	r2, [r2, #0]
 1564 0160 0A44     		add	r2, r1, r2
 1565 0162 97F93E11 		ldrsb	r1, [r7, #318]
 1566 0166 4FEA4101 		lsl	r1, r1, #1
 1567 016a 5BB2     		sxtb	r3, r3
 1568 016c 0B44     		add	r3, r1, r3
 1569 016e 1946     		mov	r1, r3
 1570 0170 07F10803 		add	r3, r7, #8
 1571 0174 1B68     		ldr	r3, [r3, #0]
 1572 0176 0B44     		add	r3, r1, r3
 1573 0178 1B78     		ldrb	r3, [r3, #0]	@ zero_extendqisi2
 1574 017a 1946     		mov	r1, r3
 1575 017c 97F83F31 		ldrb	r3, [r7, #319]	@ zero_extendqisi2
 1576 0180 03F00703 		and	r3, r3, #7
 1577 0184 4FF08000 		mov	r0, #128
 1578 0188 40FA03F3 		asr	r3, r0, r3
 1579 018c DBB2     		uxtb	r3, r3
 1580 018e 6FEA0303 		mvn	r3, r3
 1581 0192 DBB2     		uxtb	r3, r3
 1582 0194 01EA0303 		and	r3, r1, r3
 1583 0198 DBB2     		uxtb	r3, r3
 1584 019a DBB2     		uxtb	r3, r3
 1585 019c 1370     		strb	r3, [r2, #0]
 1586              	.L59:
 1587              		.loc 1 161 0
 1588 019e 97F83F31 		ldrb	r3, [r7, #319]
 1589 01a2 03F10103 		add	r3, r3, #1
 1590 01a6 87F83F31 		strb	r3, [r7, #319]
 1591              	.L57:
 1592 01aa 07F13803 		add	r3, r7, #56
 1593 01ae 03F1FF33 		add	r3, r3, #-1
 1594 01b2 1B78     		ldrb	r3, [r3, #0]	@ zero_extendqisi2
 1595 01b4 97F93F21 		ldrsb	r2, [r7, #319]
 1596 01b8 5BB2     		sxtb	r3, r3
ARM GAS  C:\Users\SUZUKI~1\AppData\Local\Temp\ccra9FCA.s 			page 32


 1597 01ba 9A42     		cmp	r2, r3
 1598 01bc FFF67DAF 		blt	.L60
 1599              		.loc 1 160 0
 1600 01c0 97F83E31 		ldrb	r3, [r7, #318]
 1601 01c4 03F10103 		add	r3, r3, #1
 1602 01c8 87F83E31 		strb	r3, [r7, #318]
 1603              	.L56:
 1604 01cc 07F13603 		add	r3, r7, #54
 1605 01d0 1B78     		ldrb	r3, [r3, #0]	@ zero_extendqisi2
 1606 01d2 97F93E21 		ldrsb	r2, [r7, #318]
 1607 01d6 5BB2     		sxtb	r3, r3
 1608 01d8 9A42     		cmp	r2, r3
 1609 01da FFF669AF 		blt	.L61
 168:.\font.c      **** 			}
 169:.\font.c      **** 		}
 170:.\font.c      **** 	}
 171:.\font.c      **** 	return;
 1610              		.loc 1 171 0
 1611 01de 00E0     		b	.L62
 1612              	.L63:
 1613              		.loc 1 155 0
 1614 01e0 00BF     		nop
 1615              	.L62:
 172:.\font.c      **** }
 1616              		.loc 1 172 0
 1617 01e2 07F5A077 		add	r7, r7, #320
 1618 01e6 BD46     		mov	sp, r7
 1619 01e8 80BD     		pop	{r7, pc}
 1620              		.cfi_endproc
 1621              	.LFE36:
 1622              		.size	expandFontBitmapPackedMemory, .-expandFontBitmapPackedMemory
 1623 01ea 00BF     		.section	.text.expandAsciiBitmap,"ax",%progbits
 1624              		.align	2
 1625              		.global	expandAsciiBitmap
 1626              		.thumb
 1627              		.thumb_func
 1628              		.type	expandAsciiBitmap, %function
 1629              	expandAsciiBitmap:
 1630              	.LFB37:
 173:.\font.c      **** 
 174:.\font.c      **** void expandAsciiBitmap(uint8 ascii, uint8 *dest, uint8 color, uint8 mode)
 175:.\font.c      **** {
 1631              		.loc 1 175 0
 1632              		.cfi_startproc
 1633              		@ args = 0, pretend = 0, frame = 24
 1634              		@ frame_needed = 1, uses_anonymous_args = 0
 1635              		@ link register save eliminated.
 1636 0000 80B4     		push	{r7}
 1637              	.LCFI23:
 1638              		.cfi_def_cfa_offset 4
 1639 0002 87B0     		sub	sp, sp, #28
 1640              	.LCFI24:
 1641              		.cfi_def_cfa_offset 32
 1642 0004 00AF     		add	r7, sp, #0
 1643              		.cfi_offset 7, -4
 1644              	.LCFI25:
 1645              		.cfi_def_cfa_register 7
ARM GAS  C:\Users\SUZUKI~1\AppData\Local\Temp\ccra9FCA.s 			page 33


 1646 0006 B960     		str	r1, [r7, #8]
 1647 0008 0146     		mov	r1, r0
 1648 000a F973     		strb	r1, [r7, #15]
 1649 000c FA71     		strb	r2, [r7, #7]
 1650 000e BB71     		strb	r3, [r7, #6]
 176:.\font.c      **** 	int i;
 177:.\font.c      **** 	uint16 tmp;
 178:.\font.c      **** 	for(i = 0; i < 8; i++) {
 1651              		.loc 1 178 0
 1652 0010 4FF00003 		mov	r3, #0
 1653 0014 3B61     		str	r3, [r7, #16]
 1654 0016 27E0     		b	.L65
 1655              	.L66:
 179:.\font.c      **** 		tmp = ASCII[(ascii - 0x20)*8 + i];
 1656              		.loc 1 179 0
 1657 0018 FB7B     		ldrb	r3, [r7, #15]	@ zero_extendqisi2
 1658 001a A3F12003 		sub	r3, r3, #32
 1659 001e 4FEAC302 		lsl	r2, r3, #3
 1660 0022 3B69     		ldr	r3, [r7, #16]
 1661 0024 1A44     		add	r2, r2, r3
 1662 0026 40F20003 		movw	r3, #:lower16:ASCII
 1663 002a C0F20003 		movt	r3, #:upper16:ASCII
 1664 002e 33F81230 		ldrh	r3, [r3, r2, lsl #1]	@ movhi
 1665 0032 FB82     		strh	r3, [r7, #22]	@ movhi
 180:.\font.c      **** 		dest[i*2] = (tmp>>8) & 0xff;
 1666              		.loc 1 180 0
 1667 0034 3B69     		ldr	r3, [r7, #16]
 1668 0036 4FEA4303 		lsl	r3, r3, #1
 1669 003a 1A46     		mov	r2, r3
 1670 003c BB68     		ldr	r3, [r7, #8]
 1671 003e 1344     		add	r3, r2, r3
 1672 0040 FA8A     		ldrh	r2, [r7, #22]
 1673 0042 4FEA1222 		lsr	r2, r2, #8
 1674 0046 92B2     		uxth	r2, r2
 1675 0048 D2B2     		uxtb	r2, r2
 1676 004a 1A70     		strb	r2, [r3, #0]
 181:.\font.c      **** 		dest[i*2 + 1] = tmp&0xff;
 1677              		.loc 1 181 0
 1678 004c 3B69     		ldr	r3, [r7, #16]
 1679 004e 4FEA4303 		lsl	r3, r3, #1
 1680 0052 03F10102 		add	r2, r3, #1
 1681 0056 BB68     		ldr	r3, [r7, #8]
 1682 0058 1344     		add	r3, r2, r3
 1683 005a FA8A     		ldrh	r2, [r7, #22]	@ movhi
 1684 005c D2B2     		uxtb	r2, r2
 1685 005e 1A70     		strb	r2, [r3, #0]
 1686              		.loc 1 178 0
 1687 0060 3B69     		ldr	r3, [r7, #16]
 1688 0062 03F10103 		add	r3, r3, #1
 1689 0066 3B61     		str	r3, [r7, #16]
 1690              	.L65:
 1691 0068 3B69     		ldr	r3, [r7, #16]
 1692 006a 072B     		cmp	r3, #7
 1693 006c D4DD     		ble	.L66
 182:.\font.c      **** 	}
 183:.\font.c      **** 	return;
 184:.\font.c      **** }
ARM GAS  C:\Users\SUZUKI~1\AppData\Local\Temp\ccra9FCA.s 			page 34


 1694              		.loc 1 184 0
 1695 006e 07F11C07 		add	r7, r7, #28
 1696 0072 BD46     		mov	sp, r7
 1697 0074 80BC     		pop	{r7}
 1698 0076 7047     		bx	lr
 1699              		.cfi_endproc
 1700              	.LFE37:
 1701              		.size	expandAsciiBitmap, .-expandAsciiBitmap
 1702              		.section	.rodata
 1703              		.align	2
 1704              	.LC0:
 1705 0000 42425800 		.ascii	"BBX\000"
 1706              		.section	.text.getBoundingBox,"ax",%progbits
 1707              		.align	2
 1708              		.global	getBoundingBox
 1709              		.thumb
 1710              		.thumb_func
 1711              		.type	getBoundingBox, %function
 1712              	getBoundingBox:
 1713              	.LFB38:
 185:.\font.c      **** 
 186:.\font.c      **** inline char *getBoundingBox(char *ptr, int8 *width, int8 *height, int8 *xorg, int8 *yorg)
 187:.\font.c      **** {
 1714              		.loc 1 187 0
 1715              		.cfi_startproc
 1716              		@ args = 4, pretend = 0, frame = 16
 1717              		@ frame_needed = 1, uses_anonymous_args = 0
 1718 0000 80B5     		push	{r7, lr}
 1719              	.LCFI26:
 1720              		.cfi_def_cfa_offset 8
 1721 0002 84B0     		sub	sp, sp, #16
 1722              	.LCFI27:
 1723              		.cfi_def_cfa_offset 24
 1724 0004 00AF     		add	r7, sp, #0
 1725              		.cfi_offset 14, -4
 1726              		.cfi_offset 7, -8
 1727              	.LCFI28:
 1728              		.cfi_def_cfa_register 7
 1729 0006 F860     		str	r0, [r7, #12]
 1730 0008 B960     		str	r1, [r7, #8]
 1731 000a 7A60     		str	r2, [r7, #4]
 1732 000c 3B60     		str	r3, [r7, #0]
 188:.\font.c      **** 	ptr = strstr(ptr, "BBX");
 1733              		.loc 1 188 0
 1734 000e F868     		ldr	r0, [r7, #12]
 1735 0010 40F20001 		movw	r1, #:lower16:.LC0
 1736 0014 C0F20001 		movt	r1, #:upper16:.LC0
 1737 0018 FFF7FEFF 		bl	strstr
 1738 001c 0346     		mov	r3, r0
 1739 001e FB60     		str	r3, [r7, #12]
 189:.\font.c      **** 	ptr = strsrc(ptr, ' ', READ_BUFFER_SIZE);
 1740              		.loc 1 189 0
 1741 0020 F868     		ldr	r0, [r7, #12]
 1742 0022 4FF02001 		mov	r1, #32
 1743 0026 4FF48072 		mov	r2, #256
 1744 002a FFF7FEFF 		bl	strsrc
 1745 002e 0346     		mov	r3, r0
ARM GAS  C:\Users\SUZUKI~1\AppData\Local\Temp\ccra9FCA.s 			page 35


 1746 0030 FB60     		str	r3, [r7, #12]
 190:.\font.c      **** 	if(width) { *width = atoi(ptr); }
 1747              		.loc 1 190 0
 1748 0032 BB68     		ldr	r3, [r7, #8]
 1749 0034 002B     		cmp	r3, #0
 1750 0036 06D0     		beq	.L69
 1751 0038 F868     		ldr	r0, [r7, #12]
 1752 003a FFF7FEFF 		bl	atoi
 1753 003e 0346     		mov	r3, r0
 1754 0040 DAB2     		uxtb	r2, r3
 1755 0042 BB68     		ldr	r3, [r7, #8]
 1756 0044 1A70     		strb	r2, [r3, #0]
 1757              	.L69:
 191:.\font.c      **** 	ptr = strsrc(ptr, ' ', READ_BUFFER_SIZE);
 1758              		.loc 1 191 0
 1759 0046 F868     		ldr	r0, [r7, #12]
 1760 0048 4FF02001 		mov	r1, #32
 1761 004c 4FF48072 		mov	r2, #256
 1762 0050 FFF7FEFF 		bl	strsrc
 1763 0054 0346     		mov	r3, r0
 1764 0056 FB60     		str	r3, [r7, #12]
 192:.\font.c      **** 	if(height) { *height = atoi(ptr); }
 1765              		.loc 1 192 0
 1766 0058 7B68     		ldr	r3, [r7, #4]
 1767 005a 002B     		cmp	r3, #0
 1768 005c 06D0     		beq	.L70
 1769 005e F868     		ldr	r0, [r7, #12]
 1770 0060 FFF7FEFF 		bl	atoi
 1771 0064 0346     		mov	r3, r0
 1772 0066 DAB2     		uxtb	r2, r3
 1773 0068 7B68     		ldr	r3, [r7, #4]
 1774 006a 1A70     		strb	r2, [r3, #0]
 1775              	.L70:
 193:.\font.c      **** 	ptr = strsrc(ptr, ' ', READ_BUFFER_SIZE);
 1776              		.loc 1 193 0
 1777 006c F868     		ldr	r0, [r7, #12]
 1778 006e 4FF02001 		mov	r1, #32
 1779 0072 4FF48072 		mov	r2, #256
 1780 0076 FFF7FEFF 		bl	strsrc
 1781 007a 0346     		mov	r3, r0
 1782 007c FB60     		str	r3, [r7, #12]
 194:.\font.c      **** 	if(xorg) { *xorg = atoi(ptr); }
 1783              		.loc 1 194 0
 1784 007e 3B68     		ldr	r3, [r7, #0]
 1785 0080 002B     		cmp	r3, #0
 1786 0082 06D0     		beq	.L71
 1787 0084 F868     		ldr	r0, [r7, #12]
 1788 0086 FFF7FEFF 		bl	atoi
 1789 008a 0346     		mov	r3, r0
 1790 008c DAB2     		uxtb	r2, r3
 1791 008e 3B68     		ldr	r3, [r7, #0]
 1792 0090 1A70     		strb	r2, [r3, #0]
 1793              	.L71:
 195:.\font.c      **** 	ptr = strsrc(ptr, ' ', READ_BUFFER_SIZE);
 1794              		.loc 1 195 0
 1795 0092 F868     		ldr	r0, [r7, #12]
 1796 0094 4FF02001 		mov	r1, #32
ARM GAS  C:\Users\SUZUKI~1\AppData\Local\Temp\ccra9FCA.s 			page 36


 1797 0098 4FF48072 		mov	r2, #256
 1798 009c FFF7FEFF 		bl	strsrc
 1799 00a0 0346     		mov	r3, r0
 1800 00a2 FB60     		str	r3, [r7, #12]
 196:.\font.c      **** 	if(yorg) { *yorg = atoi(ptr); }
 1801              		.loc 1 196 0
 1802 00a4 BB69     		ldr	r3, [r7, #24]
 1803 00a6 002B     		cmp	r3, #0
 1804 00a8 06D0     		beq	.L72
 1805 00aa F868     		ldr	r0, [r7, #12]
 1806 00ac FFF7FEFF 		bl	atoi
 1807 00b0 0346     		mov	r3, r0
 1808 00b2 DAB2     		uxtb	r2, r3
 1809 00b4 BB69     		ldr	r3, [r7, #24]
 1810 00b6 1A70     		strb	r2, [r3, #0]
 1811              	.L72:
 197:.\font.c      **** 	ptr = strsrc(ptr, '\n', READ_BUFFER_SIZE);
 1812              		.loc 1 197 0
 1813 00b8 F868     		ldr	r0, [r7, #12]
 1814 00ba 4FF00A01 		mov	r1, #10
 1815 00be 4FF48072 		mov	r2, #256
 1816 00c2 FFF7FEFF 		bl	strsrc
 1817 00c6 0346     		mov	r3, r0
 1818 00c8 FB60     		str	r3, [r7, #12]
 198:.\font.c      **** 	return(ptr);
 1819              		.loc 1 198 0
 1820 00ca FB68     		ldr	r3, [r7, #12]
 199:.\font.c      **** }
 1821              		.loc 1 199 0
 1822 00cc 1846     		mov	r0, r3
 1823 00ce 07F11007 		add	r7, r7, #16
 1824 00d2 BD46     		mov	sp, r7
 1825 00d4 80BD     		pop	{r7, pc}
 1826              		.cfi_endproc
 1827              	.LFE38:
 1828              		.size	getBoundingBox, .-getBoundingBox
 1829 00d6 00BF     		.section	.rodata
 1830              		.align	2
 1831              	.LC1:
 1832 0004 4249544D 		.ascii	"BITMAP\000"
 1832      415000
 1833 000b 00       		.align	2
 1834              	.LC2:
 1835 000c 454E4443 		.ascii	"ENDCHAR\000"
 1835      48415200 
 1836              		.section	.text.getBitmapData,"ax",%progbits
 1837              		.align	2
 1838              		.global	getBitmapData
 1839              		.thumb
 1840              		.thumb_func
 1841              		.type	getBitmapData, %function
 1842              	getBitmapData:
 1843              	.LFB39:
 200:.\font.c      **** 
 201:.\font.c      **** inline char *getBitmapData(char *ptr, uint8 *bitmapbuf)
 202:.\font.c      **** {
 1844              		.loc 1 202 0
ARM GAS  C:\Users\SUZUKI~1\AppData\Local\Temp\ccra9FCA.s 			page 37


 1845              		.cfi_startproc
 1846              		@ args = 0, pretend = 0, frame = 16
 1847              		@ frame_needed = 1, uses_anonymous_args = 0
 1848 0000 90B5     		push	{r4, r7, lr}
 1849              	.LCFI29:
 1850              		.cfi_def_cfa_offset 12
 1851 0002 85B0     		sub	sp, sp, #20
 1852              	.LCFI30:
 1853              		.cfi_def_cfa_offset 32
 1854 0004 00AF     		add	r7, sp, #0
 1855              		.cfi_offset 14, -4
 1856              		.cfi_offset 7, -8
 1857              		.cfi_offset 4, -12
 1858              	.LCFI31:
 1859              		.cfi_def_cfa_register 7
 1860 0006 7860     		str	r0, [r7, #4]
 1861 0008 3960     		str	r1, [r7, #0]
 203:.\font.c      **** 	register uint16 num;
 204:.\font.c      **** 	char *pterm;
 205:.\font.c      **** //	uint8 i;
 206:.\font.c      **** 	ptr = strstr(ptr, "BITMAP");
 1862              		.loc 1 206 0
 1863 000a 7868     		ldr	r0, [r7, #4]
 1864 000c 40F20001 		movw	r1, #:lower16:.LC1
 1865 0010 C0F20001 		movt	r1, #:upper16:.LC1
 1866 0014 FFF7FEFF 		bl	strstr
 1867 0018 0346     		mov	r3, r0
 1868 001a 7B60     		str	r3, [r7, #4]
 207:.\font.c      **** //	for(i = 0; i < 8; i++) { uputc(ptr[i]); }
 208:.\font.c      **** 	ptr = strsrc(ptr, '\n', READ_BUFFER_SIZE);
 1869              		.loc 1 208 0
 1870 001c 7868     		ldr	r0, [r7, #4]
 1871 001e 4FF00A01 		mov	r1, #10
 1872 0022 4FF48072 		mov	r2, #256
 1873 0026 FFF7FEFF 		bl	strsrc
 1874 002a 0346     		mov	r3, r0
 1875 002c 7B60     		str	r3, [r7, #4]
 209:.\font.c      **** //	for(i = 0; i < 8; i++) { uputc(ptr[i]); }
 210:.\font.c      **** 	pterm = strstr(ptr, "ENDCHAR");
 1876              		.loc 1 210 0
 1877 002e 7868     		ldr	r0, [r7, #4]
 1878 0030 40F20001 		movw	r1, #:lower16:.LC2
 1879 0034 C0F20001 		movt	r1, #:upper16:.LC2
 1880 0038 FFF7FEFF 		bl	strstr
 1881 003c 0346     		mov	r3, r0
 1882 003e FB60     		str	r3, [r7, #12]
 1883 0040 00E0     		b	.L76
 1884              	.L78:
 211:.\font.c      **** //	for(i = 0; i < 8; i++) { uputc(pterm[i]); }
 212:.\font.c      **** 	while(1) {
 213:.\font.c      **** 		num = unpackHex4(ptr);
 214:.\font.c      **** //		uprintf("%c%c%c%c - %x\r\n", *ptr, *(ptr+1), *(ptr+2), *(ptr+3), num);
 215:.\font.c      **** 		*((uint16*)bitmapbuf) = num;
 216:.\font.c      **** 		bitmapbuf += 2;
 217:.\font.c      **** 		ptr = strsrc(ptr, '\n', READ_BUFFER_SIZE);
 218:.\font.c      **** //		for(i = 0; i < 8; i++) { uputc(ptr[i]); }
 219:.\font.c      **** 		if(ptr >= pterm) { break; }
ARM GAS  C:\Users\SUZUKI~1\AppData\Local\Temp\ccra9FCA.s 			page 38


 220:.\font.c      **** 	}
 1885              		.loc 1 220 0
 1886 0042 00BF     		nop
 1887              	.L76:
 1888              		.loc 1 213 0
 1889 0044 7868     		ldr	r0, [r7, #4]
 1890 0046 FFF7FEFF 		bl	unpackHex4
 1891 004a 0346     		mov	r3, r0
 1892 004c 9CB2     		uxth	r4, r3
 1893              		.loc 1 215 0
 1894 004e 3B68     		ldr	r3, [r7, #0]
 1895 0050 2246     		mov	r2, r4	@ movhi
 1896 0052 1A80     		strh	r2, [r3, #0]	@ movhi
 1897              		.loc 1 216 0
 1898 0054 3B68     		ldr	r3, [r7, #0]
 1899 0056 03F10203 		add	r3, r3, #2
 1900 005a 3B60     		str	r3, [r7, #0]
 1901              		.loc 1 217 0
 1902 005c 7868     		ldr	r0, [r7, #4]
 1903 005e 4FF00A01 		mov	r1, #10
 1904 0062 4FF48072 		mov	r2, #256
 1905 0066 FFF7FEFF 		bl	strsrc
 1906 006a 0346     		mov	r3, r0
 1907 006c 7B60     		str	r3, [r7, #4]
 1908              		.loc 1 219 0
 1909 006e 7A68     		ldr	r2, [r7, #4]
 1910 0070 FB68     		ldr	r3, [r7, #12]
 1911 0072 9A42     		cmp	r2, r3
 1912 0074 E5D3     		bcc	.L78
 221:.\font.c      **** 	return(ptr);
 1913              		.loc 1 221 0
 1914 0076 7B68     		ldr	r3, [r7, #4]
 222:.\font.c      **** }
 1915              		.loc 1 222 0
 1916 0078 1846     		mov	r0, r3
 1917 007a 07F11407 		add	r7, r7, #20
 1918 007e BD46     		mov	sp, r7
 1919 0080 90BD     		pop	{r4, r7, pc}
 1920              		.cfi_endproc
 1921              	.LFE39:
 1922              		.size	getBitmapData, .-getBitmapData
 1923 0082 00BF     		.section	.text.strsrc,"ax",%progbits
 1924              		.align	2
 1925              		.global	strsrc
 1926              		.thumb
 1927              		.thumb_func
 1928              		.type	strsrc, %function
 1929              	strsrc:
 1930              	.LFB40:
 223:.\font.c      **** 
 224:.\font.c      **** // search a marker from string
 225:.\font.c      **** char *strsrc(const char *src, char marker, uint32 max)
 226:.\font.c      **** {
 1931              		.loc 1 226 0
 1932              		.cfi_startproc
 1933              		@ args = 0, pretend = 0, frame = 16
 1934              		@ frame_needed = 1, uses_anonymous_args = 0
ARM GAS  C:\Users\SUZUKI~1\AppData\Local\Temp\ccra9FCA.s 			page 39


 1935              		@ link register save eliminated.
 1936 0000 90B4     		push	{r4, r7}
 1937              	.LCFI32:
 1938              		.cfi_def_cfa_offset 8
 1939 0002 84B0     		sub	sp, sp, #16
 1940              	.LCFI33:
 1941              		.cfi_def_cfa_offset 24
 1942 0004 00AF     		add	r7, sp, #0
 1943              		.cfi_offset 7, -4
 1944              		.cfi_offset 4, -8
 1945              	.LCFI34:
 1946              		.cfi_def_cfa_register 7
 1947 0006 F860     		str	r0, [r7, #12]
 1948 0008 0B46     		mov	r3, r1
 1949 000a 7A60     		str	r2, [r7, #4]
 1950 000c FB72     		strb	r3, [r7, #11]
 227:.\font.c      **** 	register uint32 i = 0;
 1951              		.loc 1 227 0
 1952 000e 4FF00004 		mov	r4, #0
 1953              	.L85:
 228:.\font.c      **** 	while(1) {
 229:.\font.c      **** 		if(*src == marker) { return(++src); }
 1954              		.loc 1 229 0
 1955 0012 FB68     		ldr	r3, [r7, #12]
 1956 0014 1B78     		ldrb	r3, [r3, #0]	@ zero_extendqisi2
 1957 0016 FA7A     		ldrb	r2, [r7, #11]	@ zero_extendqisi2
 1958 0018 9A42     		cmp	r2, r3
 1959 001a 05D1     		bne	.L80
 1960 001c FB68     		ldr	r3, [r7, #12]
 1961 001e 03F10103 		add	r3, r3, #1
 1962 0022 FB60     		str	r3, [r7, #12]
 1963 0024 FB68     		ldr	r3, [r7, #12]
 1964 0026 17E0     		b	.L81
 1965              	.L80:
 230:.\font.c      **** 		if(*src == '\n' || *src == '\0') { return 0; }
 1966              		.loc 1 230 0
 1967 0028 FB68     		ldr	r3, [r7, #12]
 1968 002a 1B78     		ldrb	r3, [r3, #0]	@ zero_extendqisi2
 1969 002c 0A2B     		cmp	r3, #10
 1970 002e 03D0     		beq	.L82
 1971 0030 FB68     		ldr	r3, [r7, #12]
 1972 0032 1B78     		ldrb	r3, [r3, #0]	@ zero_extendqisi2
 1973 0034 002B     		cmp	r3, #0
 1974 0036 02D1     		bne	.L83
 1975              	.L82:
 1976 0038 4FF00003 		mov	r3, #0
 1977 003c 0CE0     		b	.L81
 1978              	.L83:
 231:.\font.c      **** 		if(++i == max) { break; }
 1979              		.loc 1 231 0
 1980 003e 04F10104 		add	r4, r4, #1
 1981 0042 7B68     		ldr	r3, [r7, #4]
 1982 0044 9C42     		cmp	r4, r3
 1983 0046 02D1     		bne	.L84
 232:.\font.c      **** 		src++;
 233:.\font.c      **** 	}
 234:.\font.c      **** 	return 0;
ARM GAS  C:\Users\SUZUKI~1\AppData\Local\Temp\ccra9FCA.s 			page 40


 1984              		.loc 1 234 0
 1985 0048 4FF00003 		mov	r3, #0
 1986 004c 04E0     		b	.L81
 1987              	.L84:
 1988              		.loc 1 232 0
 1989 004e FB68     		ldr	r3, [r7, #12]
 1990 0050 03F10103 		add	r3, r3, #1
 1991 0054 FB60     		str	r3, [r7, #12]
 1992              		.loc 1 233 0
 1993 0056 DCE7     		b	.L85
 1994              	.L81:
 235:.\font.c      **** }
 1995              		.loc 1 235 0
 1996 0058 1846     		mov	r0, r3
 1997 005a 07F11007 		add	r7, r7, #16
 1998 005e BD46     		mov	sp, r7
 1999 0060 90BC     		pop	{r4, r7}
 2000 0062 7047     		bx	lr
 2001              		.cfi_endproc
 2002              	.LFE40:
 2003              		.size	strsrc, .-strsrc
 2004              		.section	.text.applyRasterOperation,"ax",%progbits
 2005              		.align	2
 2006              		.global	applyRasterOperation
 2007              		.thumb
 2008              		.thumb_func
 2009              		.type	applyRasterOperation, %function
 2010              	applyRasterOperation:
 2011              	.LFB41:
 236:.\font.c      **** 
 237:.\font.c      **** inline uint8 applyRasterOperation(uint8 dest, uint8 src, uint8 rop)
 238:.\font.c      **** {
 2012              		.loc 1 238 0
 2013              		.cfi_startproc
 2014              		@ args = 0, pretend = 0, frame = 16
 2015              		@ frame_needed = 1, uses_anonymous_args = 0
 2016              		@ link register save eliminated.
 2017 0000 80B4     		push	{r7}
 2018              	.LCFI35:
 2019              		.cfi_def_cfa_offset 4
 2020 0002 85B0     		sub	sp, sp, #20
 2021              	.LCFI36:
 2022              		.cfi_def_cfa_offset 24
 2023 0004 00AF     		add	r7, sp, #0
 2024              		.cfi_offset 7, -4
 2025              	.LCFI37:
 2026              		.cfi_def_cfa_register 7
 2027 0006 1346     		mov	r3, r2
 2028 0008 0246     		mov	r2, r0
 2029 000a FA71     		strb	r2, [r7, #7]
 2030 000c 0A46     		mov	r2, r1
 2031 000e BA71     		strb	r2, [r7, #6]
 2032 0010 7B71     		strb	r3, [r7, #5]
 239:.\font.c      **** 	uint8 res;
 240:.\font.c      **** 	switch(rop) {
 2033              		.loc 1 240 0
 2034 0012 7B79     		ldrb	r3, [r7, #5]	@ zero_extendqisi2
ARM GAS  C:\Users\SUZUKI~1\AppData\Local\Temp\ccra9FCA.s 			page 41


 2035 0014 A3F10203 		sub	r3, r3, #2
 2036 0018 042B     		cmp	r3, #4
 2037 001a 0DD8     		bhi	.L88
 2038 001c 01A2     		adr	r2, .L94
 2039 001e 52F823F0 		ldr	pc, [r2, r3, lsl #2]
 2040 0022 00BF     		.align	2
 2041              	.L94:
 2042 0024 3F000000 		.word	.L89+1
 2043 0028 49000000 		.word	.L90+1
 2044 002c 7B000000 		.word	.L91+1
 2045 0030 87000000 		.word	.L92+1
 2046 0034 B9000000 		.word	.L93+1
 2047              	.L88:
 241:.\font.c      **** 		default: 			// default: FONT_ROP_COPY
 242:.\font.c      **** 		case FONT_ROP_COPY: res = src; break;
 2048              		.loc 1 242 0
 2049 0038 BB79     		ldrb	r3, [r7, #6]
 2050 003a FB73     		strb	r3, [r7, #15]
 2051 003c 41E0     		b	.L95
 2052              	.L89:
 243:.\font.c      **** 		case FONT_ROP_ADD:  res = ((dest + src)&0x0f) | ((dest + src)&0xf0); break;
 2053              		.loc 1 243 0
 2054 003e FA79     		ldrb	r2, [r7, #7]
 2055 0040 BB79     		ldrb	r3, [r7, #6]
 2056 0042 1344     		add	r3, r2, r3
 2057 0044 FB73     		strb	r3, [r7, #15]
 2058 0046 3CE0     		b	.L95
 2059              	.L90:
 244:.\font.c      **** 		case FONT_ROP_OR:   res = ((dest&0x0f) > (src&0x0f) ? (dest&0x0f) : (src&0x0f))
 2060              		.loc 1 244 0
 2061 0048 BB79     		ldrb	r3, [r7, #6]	@ zero_extendqisi2
 2062 004a 03F00F02 		and	r2, r3, #15
 2063 004e FB79     		ldrb	r3, [r7, #7]	@ zero_extendqisi2
 2064 0050 03F00F03 		and	r3, r3, #15
 2065 0054 9A42     		cmp	r2, r3
 2066 0056 A8BF     		it	ge
 2067 0058 1346     		movge	r3, r2
 2068 005a DAB2     		uxtb	r2, r3
 245:.\font.c      **** 						   | ((dest&0xf0) > (src&0xf0) ? (dest&0xf0) : (src&0xf0)); break;
 2069              		.loc 1 245 0
 2070 005c BB79     		ldrb	r3, [r7, #6]	@ zero_extendqisi2
 2071 005e 03F0F001 		and	r1, r3, #240
 2072 0062 FB79     		ldrb	r3, [r7, #7]	@ zero_extendqisi2
 2073 0064 03F0F003 		and	r3, r3, #240
 2074              		.loc 1 244 0
 2075 0068 9942     		cmp	r1, r3
 2076 006a A8BF     		it	ge
 2077 006c 0B46     		movge	r3, r1
 2078 006e DBB2     		uxtb	r3, r3
 2079 0070 42EA0303 		orr	r3, r2, r3
 2080 0074 DBB2     		uxtb	r3, r3
 2081 0076 FB73     		strb	r3, [r7, #15]
 2082              		.loc 1 245 0
 2083 0078 23E0     		b	.L95
 2084              	.L91:
 246:.\font.c      **** 		case FONT_ROP_BITWISE_OR: res = dest | src; break;
 2085              		.loc 1 246 0
ARM GAS  C:\Users\SUZUKI~1\AppData\Local\Temp\ccra9FCA.s 			page 42


 2086 007a FA79     		ldrb	r2, [r7, #7]
 2087 007c BB79     		ldrb	r3, [r7, #6]
 2088 007e 42EA0303 		orr	r3, r2, r3
 2089 0082 FB73     		strb	r3, [r7, #15]
 2090 0084 1DE0     		b	.L95
 2091              	.L92:
 247:.\font.c      **** 		case FONT_ROP_AND:  res = ((dest&0x0f) < (src&0x0f) ? (dest&0x0f) : (src&0x0f))
 2092              		.loc 1 247 0
 2093 0086 BB79     		ldrb	r3, [r7, #6]	@ zero_extendqisi2
 2094 0088 03F00F02 		and	r2, r3, #15
 2095 008c FB79     		ldrb	r3, [r7, #7]	@ zero_extendqisi2
 2096 008e 03F00F03 		and	r3, r3, #15
 2097 0092 9A42     		cmp	r2, r3
 2098 0094 B8BF     		it	lt
 2099 0096 1346     		movlt	r3, r2
 2100 0098 DAB2     		uxtb	r2, r3
 248:.\font.c      **** 						   | ((dest&0xf0) < (src&0xf0) ? (dest&0xf0) : (src&0xf0)); break;
 2101              		.loc 1 248 0
 2102 009a BB79     		ldrb	r3, [r7, #6]	@ zero_extendqisi2
 2103 009c 03F0F001 		and	r1, r3, #240
 2104 00a0 FB79     		ldrb	r3, [r7, #7]	@ zero_extendqisi2
 2105 00a2 03F0F003 		and	r3, r3, #240
 2106              		.loc 1 247 0
 2107 00a6 9942     		cmp	r1, r3
 2108 00a8 B8BF     		it	lt
 2109 00aa 0B46     		movlt	r3, r1
 2110 00ac DBB2     		uxtb	r3, r3
 2111 00ae 42EA0303 		orr	r3, r2, r3
 2112 00b2 DBB2     		uxtb	r3, r3
 2113 00b4 FB73     		strb	r3, [r7, #15]
 2114              		.loc 1 248 0
 2115 00b6 04E0     		b	.L95
 2116              	.L93:
 249:.\font.c      **** 		case FONT_ROP_BITWISE_AND: res = dest & src; break;
 2117              		.loc 1 249 0
 2118 00b8 FA79     		ldrb	r2, [r7, #7]
 2119 00ba BB79     		ldrb	r3, [r7, #6]
 2120 00bc 02EA0303 		and	r3, r2, r3
 2121 00c0 FB73     		strb	r3, [r7, #15]
 2122              	.L95:
 250:.\font.c      **** 	}
 251:.\font.c      **** 	return(res);
 2123              		.loc 1 251 0
 2124 00c2 FB7B     		ldrb	r3, [r7, #15]	@ zero_extendqisi2
 252:.\font.c      **** }
 2125              		.loc 1 252 0
 2126 00c4 1846     		mov	r0, r3
 2127 00c6 07F11407 		add	r7, r7, #20
 2128 00ca BD46     		mov	sp, r7
 2129 00cc 80BC     		pop	{r7}
 2130 00ce 7047     		bx	lr
 2131              		.cfi_endproc
 2132              	.LFE41:
 2133              		.size	applyRasterOperation, .-applyRasterOperation
 2134              		.section	.text.extractBitColor,"ax",%progbits
 2135              		.align	2
 2136              		.global	extractBitColor
ARM GAS  C:\Users\SUZUKI~1\AppData\Local\Temp\ccra9FCA.s 			page 43


 2137              		.thumb
 2138              		.thumb_func
 2139              		.type	extractBitColor, %function
 2140              	extractBitColor:
 2141              	.LFB42:
 253:.\font.c      **** 
 254:.\font.c      **** inline uint8 extractBitColor(uint8 *buf, uint8 i, uint8 j)
 255:.\font.c      **** {
 2142              		.loc 1 255 0
 2143              		.cfi_startproc
 2144              		@ args = 0, pretend = 0, frame = 8
 2145              		@ frame_needed = 1, uses_anonymous_args = 0
 2146              		@ link register save eliminated.
 2147 0000 80B4     		push	{r7}
 2148              	.LCFI38:
 2149              		.cfi_def_cfa_offset 4
 2150 0002 83B0     		sub	sp, sp, #12
 2151              	.LCFI39:
 2152              		.cfi_def_cfa_offset 16
 2153 0004 00AF     		add	r7, sp, #0
 2154              		.cfi_offset 7, -4
 2155              	.LCFI40:
 2156              		.cfi_def_cfa_register 7
 2157 0006 7860     		str	r0, [r7, #4]
 2158 0008 1346     		mov	r3, r2
 2159 000a 0A46     		mov	r2, r1
 2160 000c FA70     		strb	r2, [r7, #3]
 2161 000e BB70     		strb	r3, [r7, #2]
 256:.\font.c      **** 	j <<= 1;
 2162              		.loc 1 256 0
 2163 0010 BB78     		ldrb	r3, [r7, #2]
 2164 0012 4FEA4303 		lsl	r3, r3, #1
 2165 0016 BB70     		strb	r3, [r7, #2]
 257:.\font.c      **** 	if(i >= 8) {
 2166              		.loc 1 257 0
 2167 0018 FB78     		ldrb	r3, [r7, #3]	@ zero_extendqisi2
 2168 001a 072B     		cmp	r3, #7
 2169 001c 04D9     		bls	.L98
 258:.\font.c      **** 		i-=8;
 2170              		.loc 1 258 0
 2171 001e FB78     		ldrb	r3, [r7, #3]
 2172 0020 A3F10803 		sub	r3, r3, #8
 2173 0024 FB70     		strb	r3, [r7, #3]
 2174 0026 03E0     		b	.L99
 2175              	.L98:
 259:.\font.c      **** 	} else {
 260:.\font.c      **** 		j++;
 2176              		.loc 1 260 0
 2177 0028 BB78     		ldrb	r3, [r7, #2]
 2178 002a 03F10103 		add	r3, r3, #1
 2179 002e BB70     		strb	r3, [r7, #2]
 2180              	.L99:
 261:.\font.c      **** 	}
 262:.\font.c      **** 	return((buf[j] & (0x80>>i)) ? 1 : 0);
 2181              		.loc 1 262 0
 2182 0030 BA78     		ldrb	r2, [r7, #2]	@ zero_extendqisi2
 2183 0032 7B68     		ldr	r3, [r7, #4]
ARM GAS  C:\Users\SUZUKI~1\AppData\Local\Temp\ccra9FCA.s 			page 44


 2184 0034 1344     		add	r3, r2, r3
 2185 0036 1B78     		ldrb	r3, [r3, #0]	@ zero_extendqisi2
 2186 0038 1A46     		mov	r2, r3
 2187 003a FB78     		ldrb	r3, [r7, #3]	@ zero_extendqisi2
 2188 003c 4FF08001 		mov	r1, #128
 2189 0040 41FA03F3 		asr	r3, r1, r3
 2190 0044 02EA0303 		and	r3, r2, r3
 2191 0048 002B     		cmp	r3, #0
 2192 004a 0CBF     		ite	eq
 2193 004c 0023     		moveq	r3, #0
 2194 004e 0123     		movne	r3, #1
 263:.\font.c      **** }
 2195              		.loc 1 263 0
 2196 0050 1846     		mov	r0, r3
 2197 0052 07F10C07 		add	r7, r7, #12
 2198 0056 BD46     		mov	sp, r7
 2199 0058 80BC     		pop	{r7}
 2200 005a 7047     		bx	lr
 2201              		.cfi_endproc
 2202              	.LFE42:
 2203              		.size	extractBitColor, .-extractBitColor
 2204              		.text
 2205              	.Letext0:
