ARM GAS  C:\Users\SUZUKI~1\AppData\Local\Temp\ccy86h0S.s 			page 1


   1              		.syntax unified
   2              		.cpu cortex-m3
   3              		.fpu softvfp
   4              		.eabi_attribute 20, 1
   5              		.eabi_attribute 21, 1
   6              		.eabi_attribute 23, 3
   7              		.eabi_attribute 24, 1
   8              		.eabi_attribute 25, 1
   9              		.eabi_attribute 26, 1
  10              		.eabi_attribute 30, 2
  11              		.eabi_attribute 18, 4
  12              		.thumb
  13              		.file	"CyLib.c"
  14              		.section	.debug_abbrev,"",%progbits
  15              	.Ldebug_abbrev0:
  16              		.section	.debug_info,"",%progbits
  17              	.Ldebug_info0:
  18              		.section	.debug_line,"",%progbits
  19              	.Ldebug_line0:
  20 0000 A9080000 		.text
  20      02005E00 
  20      00000201 
  20      FB0E0D00 
  20      01010101 
  21              	.Ltext0:
  22              		.cfi_sections	.debug_frame
  23              		.section	.text.CyPLL_OUT_Stop,"ax",%progbits
  24              		.align	2
  25              		.global	CyPLL_OUT_Stop
  26              		.thumb
  27              		.thumb_func
  28              		.type	CyPLL_OUT_Stop, %function
  29              	CyPLL_OUT_Stop:
  30              	.LFB1:
  31              		.file 1 ".\\Generated_Source\\PSoC5\\CyLib.c"
   1:.\Generated_Source\PSoC5/CyLib.c **** /*******************************************************************************
   2:.\Generated_Source\PSoC5/CyLib.c **** * File Name: CyLib.c
   3:.\Generated_Source\PSoC5/CyLib.c **** * Version 3.10
   4:.\Generated_Source\PSoC5/CyLib.c **** *
   5:.\Generated_Source\PSoC5/CyLib.c **** *  Description:
   6:.\Generated_Source\PSoC5/CyLib.c **** *   Provides system API for the clocking, interrupts and watchdog timer.
   7:.\Generated_Source\PSoC5/CyLib.c **** *
   8:.\Generated_Source\PSoC5/CyLib.c **** *  Note:
   9:.\Generated_Source\PSoC5/CyLib.c **** *   Documentation of the API's in this file is located in the
  10:.\Generated_Source\PSoC5/CyLib.c **** *   System Reference Guide provided with PSoC Creator.
  11:.\Generated_Source\PSoC5/CyLib.c **** *
  12:.\Generated_Source\PSoC5/CyLib.c **** ********************************************************************************
  13:.\Generated_Source\PSoC5/CyLib.c **** * Copyright 2008-2012, Cypress Semiconductor Corporation.  All rights reserved.
  14:.\Generated_Source\PSoC5/CyLib.c **** * You may use this file only in accordance with the license, terms, conditions,
  15:.\Generated_Source\PSoC5/CyLib.c **** * disclaimers, and limitations in the end user license agreement accompanying
  16:.\Generated_Source\PSoC5/CyLib.c **** * the software package with which this file was provided.
  17:.\Generated_Source\PSoC5/CyLib.c **** *******************************************************************************/
  18:.\Generated_Source\PSoC5/CyLib.c **** 
  19:.\Generated_Source\PSoC5/CyLib.c **** #include "CyLib.h"
  20:.\Generated_Source\PSoC5/CyLib.c **** 
  21:.\Generated_Source\PSoC5/CyLib.c **** uint8 CYXDATA CyResetStatus;
  22:.\Generated_Source\PSoC5/CyLib.c **** 
ARM GAS  C:\Users\SUZUKI~1\AppData\Local\Temp\ccy86h0S.s 			page 2


  23:.\Generated_Source\PSoC5/CyLib.c **** uint32 cydelay_freq_hz  = BCLK__BUS_CLK__HZ;
  24:.\Generated_Source\PSoC5/CyLib.c **** uint32 cydelay_freq_khz = (BCLK__BUS_CLK__HZ + 999u) / 1000u;
  25:.\Generated_Source\PSoC5/CyLib.c **** uint8  cydelay_freq_mhz = (uint8)((BCLK__BUS_CLK__HZ + 999999u) / 1000000u);
  26:.\Generated_Source\PSoC5/CyLib.c **** uint32 cydelay_32k_ms   = 32768 * ((BCLK__BUS_CLK__HZ + 999u) / 1000u);
  27:.\Generated_Source\PSoC5/CyLib.c **** 
  28:.\Generated_Source\PSoC5/CyLib.c **** /* Function Prototypes */
  29:.\Generated_Source\PSoC5/CyLib.c **** uint8 CyUSB_PowerOnCheck(void)  ;
  30:.\Generated_Source\PSoC5/CyLib.c **** void CyIMO_SetTrimValue(uint8 freq) ;
  31:.\Generated_Source\PSoC5/CyLib.c **** void CyBusClk_Internal_SetDivider(uint16 divider);
  32:.\Generated_Source\PSoC5/CyLib.c **** 
  33:.\Generated_Source\PSoC5/CyLib.c **** 
  34:.\Generated_Source\PSoC5/CyLib.c **** /*******************************************************************************
  35:.\Generated_Source\PSoC5/CyLib.c **** * Function Name: CyPLL_OUT_Start
  36:.\Generated_Source\PSoC5/CyLib.c **** ********************************************************************************
  37:.\Generated_Source\PSoC5/CyLib.c **** *
  38:.\Generated_Source\PSoC5/CyLib.c **** * Summary:
  39:.\Generated_Source\PSoC5/CyLib.c **** *   Enables the PLL.  Optionally waits for it to become stable.
  40:.\Generated_Source\PSoC5/CyLib.c **** *   Waits at least 250 us or until it is detected that the PLL is stable.
  41:.\Generated_Source\PSoC5/CyLib.c **** *
  42:.\Generated_Source\PSoC5/CyLib.c **** * Parameters:
  43:.\Generated_Source\PSoC5/CyLib.c **** *   wait:
  44:.\Generated_Source\PSoC5/CyLib.c **** *    0: Return immediately after configuration
  45:.\Generated_Source\PSoC5/CyLib.c **** *    1: Wait for PLL lock or timeout.
  46:.\Generated_Source\PSoC5/CyLib.c **** *
  47:.\Generated_Source\PSoC5/CyLib.c **** * Return:
  48:.\Generated_Source\PSoC5/CyLib.c **** *   Status
  49:.\Generated_Source\PSoC5/CyLib.c **** *    CYRET_SUCCESS - Completed successfully
  50:.\Generated_Source\PSoC5/CyLib.c **** *    CYRET_TIMEOUT - Timeout occurred without detecting a stable clock.
  51:.\Generated_Source\PSoC5/CyLib.c **** *     If the input source of the clock is jittery, then the lock indication
  52:.\Generated_Source\PSoC5/CyLib.c **** *     may not occur.  However, after the timeout has expired the generated PLL
  53:.\Generated_Source\PSoC5/CyLib.c **** *     clock can still be used.
  54:.\Generated_Source\PSoC5/CyLib.c **** *
  55:.\Generated_Source\PSoC5/CyLib.c **** * Side Effects:
  56:.\Generated_Source\PSoC5/CyLib.c **** *  If wait is enabled: This function wses the Fast Time Wheel to time the wait.
  57:.\Generated_Source\PSoC5/CyLib.c **** *  Any other use of the Fast Time Wheel will be stopped during the period of
  58:.\Generated_Source\PSoC5/CyLib.c **** *  this function and then restored. This function also uses the 100 KHz ILO.
  59:.\Generated_Source\PSoC5/CyLib.c **** *  If not enabled, this function will enable the 100 KHz ILO for the period of
  60:.\Generated_Source\PSoC5/CyLib.c **** *  this function.
  61:.\Generated_Source\PSoC5/CyLib.c **** *
  62:.\Generated_Source\PSoC5/CyLib.c **** *  No changes to the setup of the ILO, Fast Time Wheel, Central Time Wheel or
  63:.\Generated_Source\PSoC5/CyLib.c **** *  Once Per Second interrupt may be made by interrupt routines during the period
  64:.\Generated_Source\PSoC5/CyLib.c **** *  of this function execution. The current operation of the ILO, Central Time
  65:.\Generated_Source\PSoC5/CyLib.c **** *  Wheel and Once Per Second interrupt are maintained during the operation of
  66:.\Generated_Source\PSoC5/CyLib.c **** *  this function provided the reading of the Power Manager Interrupt Status
  67:.\Generated_Source\PSoC5/CyLib.c **** *  Register is only done using the CyPmReadStatus() function.
  68:.\Generated_Source\PSoC5/CyLib.c **** *
  69:.\Generated_Source\PSoC5/CyLib.c **** *******************************************************************************/
  70:.\Generated_Source\PSoC5/CyLib.c **** cystatus CyPLL_OUT_Start(uint8 wait) 
  71:.\Generated_Source\PSoC5/CyLib.c **** {
  72:.\Generated_Source\PSoC5/CyLib.c ****     cystatus status = CYRET_SUCCESS;
  73:.\Generated_Source\PSoC5/CyLib.c **** 
  74:.\Generated_Source\PSoC5/CyLib.c ****     uint8 iloEnableState;
  75:.\Generated_Source\PSoC5/CyLib.c ****     uint8 pmTwCfg0;
  76:.\Generated_Source\PSoC5/CyLib.c ****     uint8 pmTwCfg2;
  77:.\Generated_Source\PSoC5/CyLib.c **** 
  78:.\Generated_Source\PSoC5/CyLib.c **** 
  79:.\Generated_Source\PSoC5/CyLib.c ****     /* Enables the PLL circuit  */
ARM GAS  C:\Users\SUZUKI~1\AppData\Local\Temp\ccy86h0S.s 			page 3


  80:.\Generated_Source\PSoC5/CyLib.c ****     CY_CLK_PLL_CFG0_REG |= CY_CLK_PLL_ENABLE;
  81:.\Generated_Source\PSoC5/CyLib.c **** 
  82:.\Generated_Source\PSoC5/CyLib.c ****     if(wait != 0)
  83:.\Generated_Source\PSoC5/CyLib.c ****     {
  84:.\Generated_Source\PSoC5/CyLib.c ****         /* Save 100 KHz ILO, FTW interval, enable and interrupt enable */
  85:.\Generated_Source\PSoC5/CyLib.c ****         iloEnableState = SLOWCLK_ILO_CR0;
  86:.\Generated_Source\PSoC5/CyLib.c ****         pmTwCfg0 = CY_PM_TW_CFG0_REG;
  87:.\Generated_Source\PSoC5/CyLib.c ****         pmTwCfg2 = CY_PM_TW_CFG2_REG;
  88:.\Generated_Source\PSoC5/CyLib.c **** 
  89:.\Generated_Source\PSoC5/CyLib.c ****         CyPmFtwSetInterval(CY_CLK_PLL_FTW_INTERVAL);
  90:.\Generated_Source\PSoC5/CyLib.c **** 
  91:.\Generated_Source\PSoC5/CyLib.c ****         status = CYRET_TIMEOUT;
  92:.\Generated_Source\PSoC5/CyLib.c **** 
  93:.\Generated_Source\PSoC5/CyLib.c **** 
  94:.\Generated_Source\PSoC5/CyLib.c ****         while(CyPmReadStatus(CY_PM_FTW_INT) != CY_PM_FTW_INT)
  95:.\Generated_Source\PSoC5/CyLib.c ****         {
  96:.\Generated_Source\PSoC5/CyLib.c ****             /* Wait for the interrupt status */
  97:.\Generated_Source\PSoC5/CyLib.c ****             if(0u != (CY_CLK_PLL_SR_REG & CY_CLK_PLL_LOCK_STATUS))
  98:.\Generated_Source\PSoC5/CyLib.c ****             {
  99:.\Generated_Source\PSoC5/CyLib.c ****                 if(0u != (CY_CLK_PLL_SR_REG & CY_CLK_PLL_LOCK_STATUS))
 100:.\Generated_Source\PSoC5/CyLib.c ****                 {
 101:.\Generated_Source\PSoC5/CyLib.c ****                     status = CYRET_SUCCESS;
 102:.\Generated_Source\PSoC5/CyLib.c ****                     break;
 103:.\Generated_Source\PSoC5/CyLib.c ****                 }
 104:.\Generated_Source\PSoC5/CyLib.c ****             }
 105:.\Generated_Source\PSoC5/CyLib.c ****         }
 106:.\Generated_Source\PSoC5/CyLib.c **** 
 107:.\Generated_Source\PSoC5/CyLib.c **** 
 108:.\Generated_Source\PSoC5/CyLib.c ****         /* Restore 100 KHz ILO, FTW interval, enable and interrupt enable */
 109:.\Generated_Source\PSoC5/CyLib.c ****         if(0u == (iloEnableState & ILO_CONTROL_100KHZ_ON))
 110:.\Generated_Source\PSoC5/CyLib.c ****         {
 111:.\Generated_Source\PSoC5/CyLib.c ****             CyILO_Stop100K();
 112:.\Generated_Source\PSoC5/CyLib.c ****         }
 113:.\Generated_Source\PSoC5/CyLib.c ****         CY_PM_TW_CFG0_REG = pmTwCfg0;
 114:.\Generated_Source\PSoC5/CyLib.c ****         CY_PM_TW_CFG2_REG = pmTwCfg2;
 115:.\Generated_Source\PSoC5/CyLib.c ****     }
 116:.\Generated_Source\PSoC5/CyLib.c **** 
 117:.\Generated_Source\PSoC5/CyLib.c ****     return(status);
 118:.\Generated_Source\PSoC5/CyLib.c **** }
 119:.\Generated_Source\PSoC5/CyLib.c **** 
 120:.\Generated_Source\PSoC5/CyLib.c **** 
 121:.\Generated_Source\PSoC5/CyLib.c **** /*******************************************************************************
 122:.\Generated_Source\PSoC5/CyLib.c **** * Function Name: CyPLL_OUT_Stop
 123:.\Generated_Source\PSoC5/CyLib.c **** ********************************************************************************
 124:.\Generated_Source\PSoC5/CyLib.c **** *
 125:.\Generated_Source\PSoC5/CyLib.c **** * Summary:
 126:.\Generated_Source\PSoC5/CyLib.c **** *  Disables the PLL.
 127:.\Generated_Source\PSoC5/CyLib.c **** *
 128:.\Generated_Source\PSoC5/CyLib.c **** * Parameters:
 129:.\Generated_Source\PSoC5/CyLib.c **** *  None
 130:.\Generated_Source\PSoC5/CyLib.c **** *
 131:.\Generated_Source\PSoC5/CyLib.c **** * Return:
 132:.\Generated_Source\PSoC5/CyLib.c **** *  None
 133:.\Generated_Source\PSoC5/CyLib.c **** *
 134:.\Generated_Source\PSoC5/CyLib.c **** *******************************************************************************/
 135:.\Generated_Source\PSoC5/CyLib.c **** void CyPLL_OUT_Stop(void) 
 136:.\Generated_Source\PSoC5/CyLib.c **** {
ARM GAS  C:\Users\SUZUKI~1\AppData\Local\Temp\ccy86h0S.s 			page 4


  32              		.loc 1 136 0
  33              		.cfi_startproc
  34              		@ args = 0, pretend = 0, frame = 0
  35              		@ frame_needed = 0, uses_anonymous_args = 0
  36              		@ link register save eliminated.
 137:.\Generated_Source\PSoC5/CyLib.c ****     CY_CLK_PLL_CFG0_REG &= ~CY_CLK_PLL_ENABLE;
  37              		.loc 1 137 0
  38 0000 44F22023 		movw	r3, #:lower16:1073758752
  39 0004 C4F20003 		movt	r3, #:upper16:1073758752
  40 0008 1878     		ldrb	r0, [r3, #0]	@ zero_extendqisi2
  41 000a 00F0FE02 		and	r2, r0, #254
  42 000e 1A70     		strb	r2, [r3, #0]
 138:.\Generated_Source\PSoC5/CyLib.c **** }
  43              		.loc 1 138 0
  44 0010 7047     		bx	lr
  45              		.cfi_endproc
  46              	.LFE1:
  47              		.size	CyPLL_OUT_Stop, .-CyPLL_OUT_Stop
  48 0012 00BF     		.section	.text.CyPLL_OUT_SetPQ,"ax",%progbits
  49              		.align	2
  50              		.global	CyPLL_OUT_SetPQ
  51              		.thumb
  52              		.thumb_func
  53              		.type	CyPLL_OUT_SetPQ, %function
  54              	CyPLL_OUT_SetPQ:
  55              	.LFB2:
 139:.\Generated_Source\PSoC5/CyLib.c **** 
 140:.\Generated_Source\PSoC5/CyLib.c **** 
 141:.\Generated_Source\PSoC5/CyLib.c **** /*******************************************************************************
 142:.\Generated_Source\PSoC5/CyLib.c **** * Function Name: CyPLL_OUT_SetPQ
 143:.\Generated_Source\PSoC5/CyLib.c **** ********************************************************************************
 144:.\Generated_Source\PSoC5/CyLib.c **** *
 145:.\Generated_Source\PSoC5/CyLib.c **** * Summary:
 146:.\Generated_Source\PSoC5/CyLib.c **** *  Sets the P and Q dividers and the charge pump current.
 147:.\Generated_Source\PSoC5/CyLib.c **** *  The Frequency Out will be P/Q * Frequency In.
 148:.\Generated_Source\PSoC5/CyLib.c **** *  The PLL must be disabled before calling this function.
 149:.\Generated_Source\PSoC5/CyLib.c **** *
 150:.\Generated_Source\PSoC5/CyLib.c **** * Parameters:
 151:.\Generated_Source\PSoC5/CyLib.c **** *  uint8 P:
 152:.\Generated_Source\PSoC5/CyLib.c **** *   Valid range [8 - 255].
 153:.\Generated_Source\PSoC5/CyLib.c **** *
 154:.\Generated_Source\PSoC5/CyLib.c **** *  uint8 Q:
 155:.\Generated_Source\PSoC5/CyLib.c **** *   Valid range [1 - 16]. Input Frequency / Q must be in range of 1 to 3 MHz.
 156:.\Generated_Source\PSoC5/CyLib.c **** 
 157:.\Generated_Source\PSoC5/CyLib.c **** *  uint8 current:
 158:.\Generated_Source\PSoC5/CyLib.c **** *   Valid range [1 - 7]. Charge pump current in uA. Refer to the device TRM and
 159:.\Generated_Source\PSoC5/CyLib.c **** *   datasheet for more information.
 160:.\Generated_Source\PSoC5/CyLib.c **** *
 161:.\Generated_Source\PSoC5/CyLib.c **** * Return:
 162:.\Generated_Source\PSoC5/CyLib.c **** *  None
 163:.\Generated_Source\PSoC5/CyLib.c **** *
 164:.\Generated_Source\PSoC5/CyLib.c **** * Side Effects:
 165:.\Generated_Source\PSoC5/CyLib.c **** *  If as result of this function execution the CPU clock frequency is increased
 166:.\Generated_Source\PSoC5/CyLib.c **** *  then the number of clock cycles the cache will wait before it samples data
 167:.\Generated_Source\PSoC5/CyLib.c **** *  coming back from Flash must be adjusted by calling CyFlash_SetWaitCycles()
 168:.\Generated_Source\PSoC5/CyLib.c **** *  with appropriate parameter. It can be optionally called if CPU clock
 169:.\Generated_Source\PSoC5/CyLib.c **** *  frequency is lowered in order to improve CPU performance.
ARM GAS  C:\Users\SUZUKI~1\AppData\Local\Temp\ccy86h0S.s 			page 5


 170:.\Generated_Source\PSoC5/CyLib.c **** *  See CyFlash_SetWaitCycles() description for more information.
 171:.\Generated_Source\PSoC5/CyLib.c **** *
 172:.\Generated_Source\PSoC5/CyLib.c **** *******************************************************************************/
 173:.\Generated_Source\PSoC5/CyLib.c **** void CyPLL_OUT_SetPQ(uint8 P, uint8 Q, uint8 current) 
 174:.\Generated_Source\PSoC5/CyLib.c **** {
  56              		.loc 1 174 0
  57              		.cfi_startproc
  58              		@ args = 0, pretend = 0, frame = 0
  59              		@ frame_needed = 0, uses_anonymous_args = 0
  60              		@ link register save eliminated.
  61              	.LVL0:
  62 0000 10B4     		push	{r4}
  63              	.LCFI0:
  64              		.cfi_def_cfa_offset 4
 175:.\Generated_Source\PSoC5/CyLib.c ****     /* Halt CPU in debug mode if PLL is enabled */
 176:.\Generated_Source\PSoC5/CyLib.c ****     CYASSERT(0u == (CY_CLK_PLL_CFG0_REG & CY_CLK_PLL_ENABLE));
  65              		.loc 1 176 0
  66 0002 44F22023 		movw	r3, #:lower16:1073758752
  67 0006 C4F20003 		movt	r3, #:upper16:1073758752
  68 000a 93F800C0 		ldrb	ip, [r3, #0]	@ zero_extendqisi2
  69 000e 1CF0010F 		tst	ip, #1
  70 0012 01D0     		beq	.L4
  71              		.cfi_offset 4, -4
  72 0014 1B78     		ldrb	r3, [r3, #0]	@ zero_extendqisi2
  73              	.LBB74:
  74              	.LBB75:
 177:.\Generated_Source\PSoC5/CyLib.c **** 
 178:.\Generated_Source\PSoC5/CyLib.c ****     /* Halt CPU in debug mode if P divider is less than required */
 179:.\Generated_Source\PSoC5/CyLib.c ****     CYASSERT(P >= CY_CLK_PLL_MIN_P_VALUE);
 180:.\Generated_Source\PSoC5/CyLib.c **** 
 181:.\Generated_Source\PSoC5/CyLib.c ****     /* Halt CPU in debug mode if Q divider is out of range */
 182:.\Generated_Source\PSoC5/CyLib.c ****     CYASSERT((Q <= CY_CLK_PLL_MAX_Q_VALUE) && (Q >= CY_CLK_PLL_MIN_Q_VALUE));
 183:.\Generated_Source\PSoC5/CyLib.c **** 
 184:.\Generated_Source\PSoC5/CyLib.c ****     /* Halt CPU in debug mode if pump current is out of range */
 185:.\Generated_Source\PSoC5/CyLib.c ****     CYASSERT((current >= CY_CLK_PLL_MIN_CUR_VALUE) && (current <= CY_CLK_PLL_MAX_CUR_VALUE));
 186:.\Generated_Source\PSoC5/CyLib.c **** 
 187:.\Generated_Source\PSoC5/CyLib.c **** 
 188:.\Generated_Source\PSoC5/CyLib.c ****     /* Set new values */
 189:.\Generated_Source\PSoC5/CyLib.c ****     CY_CLK_PLL_P_REG = P;
 190:.\Generated_Source\PSoC5/CyLib.c ****     CY_CLK_PLL_Q_REG = Q - 1;
 191:.\Generated_Source\PSoC5/CyLib.c ****     CY_CLK_PLL_CFG1_REG = (CY_CLK_PLL_CFG1_REG & CY_CLK_PLL_CURRENT_MASK) |
 192:.\Generated_Source\PSoC5/CyLib.c ****                             ((current - 1) << CY_CLK_PLL_CURRENT_POSITION);
 193:.\Generated_Source\PSoC5/CyLib.c **** }
 194:.\Generated_Source\PSoC5/CyLib.c **** 
 195:.\Generated_Source\PSoC5/CyLib.c **** 
 196:.\Generated_Source\PSoC5/CyLib.c **** /*******************************************************************************
 197:.\Generated_Source\PSoC5/CyLib.c **** * Function Name: CyPLL_OUT_SetSource
 198:.\Generated_Source\PSoC5/CyLib.c **** ********************************************************************************
 199:.\Generated_Source\PSoC5/CyLib.c **** *
 200:.\Generated_Source\PSoC5/CyLib.c **** * Summary:
 201:.\Generated_Source\PSoC5/CyLib.c **** *  Sets the input clock source to the PLL. The PLL must be disabled before
 202:.\Generated_Source\PSoC5/CyLib.c **** *  calling this function.
 203:.\Generated_Source\PSoC5/CyLib.c **** *
 204:.\Generated_Source\PSoC5/CyLib.c **** * Parameters:
 205:.\Generated_Source\PSoC5/CyLib.c **** *   source: One of the three available PLL clock sources
 206:.\Generated_Source\PSoC5/CyLib.c **** *            0 :        IMO
 207:.\Generated_Source\PSoC5/CyLib.c **** *            1 :        MHz Crystal
ARM GAS  C:\Users\SUZUKI~1\AppData\Local\Temp\ccy86h0S.s 			page 6


 208:.\Generated_Source\PSoC5/CyLib.c **** *            2 :        DSI
 209:.\Generated_Source\PSoC5/CyLib.c **** *
 210:.\Generated_Source\PSoC5/CyLib.c **** * Return:
 211:.\Generated_Source\PSoC5/CyLib.c **** *  None
 212:.\Generated_Source\PSoC5/CyLib.c **** *
 213:.\Generated_Source\PSoC5/CyLib.c **** * Side Effects:
 214:.\Generated_Source\PSoC5/CyLib.c **** *  If as result of this function execution the CPU clock frequency is increased
 215:.\Generated_Source\PSoC5/CyLib.c **** *  then the number of clock cycles the cache will wait before it samples data
 216:.\Generated_Source\PSoC5/CyLib.c **** *  coming back from Flash must be adjusted by calling CyFlash_SetWaitCycles()
 217:.\Generated_Source\PSoC5/CyLib.c **** *  with appropriate parameter. It can be optionally called if CPU clock
 218:.\Generated_Source\PSoC5/CyLib.c **** *  frequency is lowered in order to improve CPU performance.
 219:.\Generated_Source\PSoC5/CyLib.c **** *  See CyFlash_SetWaitCycles() description for more information.
 220:.\Generated_Source\PSoC5/CyLib.c **** *
 221:.\Generated_Source\PSoC5/CyLib.c **** *******************************************************************************/
 222:.\Generated_Source\PSoC5/CyLib.c **** void CyPLL_OUT_SetSource(uint8 source) 
 223:.\Generated_Source\PSoC5/CyLib.c **** {
 224:.\Generated_Source\PSoC5/CyLib.c ****     /* Halt CPU in debug mode if PLL is enabled */
 225:.\Generated_Source\PSoC5/CyLib.c ****     CYASSERT(0u == (CY_CLK_PLL_CFG0_REG & CY_CLK_PLL_ENABLE));
 226:.\Generated_Source\PSoC5/CyLib.c **** 
 227:.\Generated_Source\PSoC5/CyLib.c ****     switch(source)
 228:.\Generated_Source\PSoC5/CyLib.c ****     {
 229:.\Generated_Source\PSoC5/CyLib.c ****         case CY_PLL_SOURCE_IMO:
 230:.\Generated_Source\PSoC5/CyLib.c ****         case CY_PLL_SOURCE_XTAL:
 231:.\Generated_Source\PSoC5/CyLib.c ****         case CY_PLL_SOURCE_DSI:
 232:.\Generated_Source\PSoC5/CyLib.c ****             CLKDIST_CR = ((CLKDIST_CR & CLOCK_CONTROL_DIST_MASK) | source);
 233:.\Generated_Source\PSoC5/CyLib.c ****         break;
 234:.\Generated_Source\PSoC5/CyLib.c **** 
 235:.\Generated_Source\PSoC5/CyLib.c ****         default:
 236:.\Generated_Source\PSoC5/CyLib.c ****             CYASSERT(0);
 237:.\Generated_Source\PSoC5/CyLib.c ****         break;
 238:.\Generated_Source\PSoC5/CyLib.c ****     }
 239:.\Generated_Source\PSoC5/CyLib.c **** }
 240:.\Generated_Source\PSoC5/CyLib.c **** 
 241:.\Generated_Source\PSoC5/CyLib.c **** 
 242:.\Generated_Source\PSoC5/CyLib.c **** /*******************************************************************************
 243:.\Generated_Source\PSoC5/CyLib.c **** * Function Name: CyIMO_Start
 244:.\Generated_Source\PSoC5/CyLib.c **** ********************************************************************************
 245:.\Generated_Source\PSoC5/CyLib.c **** *
 246:.\Generated_Source\PSoC5/CyLib.c **** * Summary:
 247:.\Generated_Source\PSoC5/CyLib.c **** *  Enables the IMO. Optionally waits at least 6 us for it to settle.
 248:.\Generated_Source\PSoC5/CyLib.c **** *
 249:.\Generated_Source\PSoC5/CyLib.c **** * Parameters:
 250:.\Generated_Source\PSoC5/CyLib.c **** *  uint8 wait:
 251:.\Generated_Source\PSoC5/CyLib.c **** *   0: Return immediately after configuration
 252:.\Generated_Source\PSoC5/CyLib.c **** *   1: Wait for at least 6us for the IMO to settle.
 253:.\Generated_Source\PSoC5/CyLib.c **** *
 254:.\Generated_Source\PSoC5/CyLib.c **** * Return:
 255:.\Generated_Source\PSoC5/CyLib.c **** *  None
 256:.\Generated_Source\PSoC5/CyLib.c **** *
 257:.\Generated_Source\PSoC5/CyLib.c **** * Side Effects:
 258:.\Generated_Source\PSoC5/CyLib.c **** *  If wait is enabled: This function wses the Fast Time Wheel to time the wait.
 259:.\Generated_Source\PSoC5/CyLib.c **** *  Any other use of the Fast Time Wheel will be stopped during the period of
 260:.\Generated_Source\PSoC5/CyLib.c **** *  this function and then restored. This function also uses the 100 KHz ILO.
 261:.\Generated_Source\PSoC5/CyLib.c **** *  If not enabled, this function will enable the 100 KHz ILO for the period of
 262:.\Generated_Source\PSoC5/CyLib.c **** *  this function.
 263:.\Generated_Source\PSoC5/CyLib.c **** *
 264:.\Generated_Source\PSoC5/CyLib.c **** *  No changes to the setup of the ILO, Fast Time Wheel, Central Time Wheel or
ARM GAS  C:\Users\SUZUKI~1\AppData\Local\Temp\ccy86h0S.s 			page 7


 265:.\Generated_Source\PSoC5/CyLib.c **** *  Once Per Second interrupt may be made by interrupt routines during the period
 266:.\Generated_Source\PSoC5/CyLib.c **** *  of this function execution. The current operation of the ILO, Central Time
 267:.\Generated_Source\PSoC5/CyLib.c **** *  Wheel and Once Per Second interrupt are maintained during the operation of
 268:.\Generated_Source\PSoC5/CyLib.c **** *  this function provided the reading of the Power Manager Interrupt Status
 269:.\Generated_Source\PSoC5/CyLib.c **** *  Register is only done using the CyPmReadStatus() function.
 270:.\Generated_Source\PSoC5/CyLib.c **** *
 271:.\Generated_Source\PSoC5/CyLib.c **** *******************************************************************************/
 272:.\Generated_Source\PSoC5/CyLib.c **** void CyIMO_Start(uint8 wait) 
 273:.\Generated_Source\PSoC5/CyLib.c **** {
 274:.\Generated_Source\PSoC5/CyLib.c ****     uint8 pm_tw_cfg2_state;
 275:.\Generated_Source\PSoC5/CyLib.c ****     uint8 pm_tw_cfg0_state;
 276:.\Generated_Source\PSoC5/CyLib.c ****     uint8 ilo_clock_state;
 277:.\Generated_Source\PSoC5/CyLib.c **** 
 278:.\Generated_Source\PSoC5/CyLib.c ****     /* Set the bit to enable the clock. */
 279:.\Generated_Source\PSoC5/CyLib.c ****     PM_ACT_CFG0 |= IMO_PM_ENABLE;
 280:.\Generated_Source\PSoC5/CyLib.c **** 
 281:.\Generated_Source\PSoC5/CyLib.c ****     /* Wait for 6 us */
 282:.\Generated_Source\PSoC5/CyLib.c ****     if(wait)
 283:.\Generated_Source\PSoC5/CyLib.c ****     {
 284:.\Generated_Source\PSoC5/CyLib.c ****         /* Need to turn on the 100KHz ILO if it happens to not already be running.*/
 285:.\Generated_Source\PSoC5/CyLib.c ****         ilo_clock_state = SLOWCLK_ILO_CR0;
 286:.\Generated_Source\PSoC5/CyLib.c ****         if(!(ilo_clock_state & ILO_CONTROL_100KHZ_ON))
 287:.\Generated_Source\PSoC5/CyLib.c ****         {
 288:.\Generated_Source\PSoC5/CyLib.c ****             CyILO_Start100K();
 289:.\Generated_Source\PSoC5/CyLib.c ****         }
 290:.\Generated_Source\PSoC5/CyLib.c **** 
 291:.\Generated_Source\PSoC5/CyLib.c ****         /* Use ILO 100 KHz */
 292:.\Generated_Source\PSoC5/CyLib.c ****         pm_tw_cfg2_state = PM_TW_CFG2;
 293:.\Generated_Source\PSoC5/CyLib.c ****         pm_tw_cfg0_state = PM_TW_CFG0;
 294:.\Generated_Source\PSoC5/CyLib.c **** 
 295:.\Generated_Source\PSoC5/CyLib.c ****         /* FTW_EN (bit 0) must be clear to change the period*/
 296:.\Generated_Source\PSoC5/CyLib.c ****         PM_TW_CFG2 &= FTW_CLEAR_FTW_BITS;
 297:.\Generated_Source\PSoC5/CyLib.c **** 
 298:.\Generated_Source\PSoC5/CyLib.c ****         /* Set the FTW interval of 1 100KHz ILO clocks
 299:.\Generated_Source\PSoC5/CyLib.c ****         Should result in status getting set at a (100/1)KHz rate*/
 300:.\Generated_Source\PSoC5/CyLib.c ****         PM_TW_CFG0 = 1-1;
 301:.\Generated_Source\PSoC5/CyLib.c ****         /* Enable FTW, but not the interrupt*/
 302:.\Generated_Source\PSoC5/CyLib.c ****         PM_TW_CFG2 = FTW_ENABLE;
 303:.\Generated_Source\PSoC5/CyLib.c **** 
 304:.\Generated_Source\PSoC5/CyLib.c ****         /* Read FTW value */
 305:.\Generated_Source\PSoC5/CyLib.c ****         while (CyPmReadStatus(1) == 0)
 306:.\Generated_Source\PSoC5/CyLib.c ****         {
 307:.\Generated_Source\PSoC5/CyLib.c ****             /* Wait for the interrupt status*/
 308:.\Generated_Source\PSoC5/CyLib.c ****         }
 309:.\Generated_Source\PSoC5/CyLib.c **** 
 310:.\Generated_Source\PSoC5/CyLib.c ****         /* Reset the clock */
 311:.\Generated_Source\PSoC5/CyLib.c ****         if(!(ilo_clock_state & ILO_CONTROL_100KHZ_ON))
 312:.\Generated_Source\PSoC5/CyLib.c ****         {
 313:.\Generated_Source\PSoC5/CyLib.c ****             CyILO_Stop100K();
 314:.\Generated_Source\PSoC5/CyLib.c ****         }
 315:.\Generated_Source\PSoC5/CyLib.c **** 
 316:.\Generated_Source\PSoC5/CyLib.c ****         /* Restore the FTW */
 317:.\Generated_Source\PSoC5/CyLib.c ****         PM_TW_CFG0 = pm_tw_cfg0_state;
 318:.\Generated_Source\PSoC5/CyLib.c ****         PM_TW_CFG2 = pm_tw_cfg2_state;
 319:.\Generated_Source\PSoC5/CyLib.c ****     }
 320:.\Generated_Source\PSoC5/CyLib.c **** }
 321:.\Generated_Source\PSoC5/CyLib.c **** 
ARM GAS  C:\Users\SUZUKI~1\AppData\Local\Temp\ccy86h0S.s 			page 8


 322:.\Generated_Source\PSoC5/CyLib.c **** 
 323:.\Generated_Source\PSoC5/CyLib.c **** /*******************************************************************************
 324:.\Generated_Source\PSoC5/CyLib.c **** * Function Name: CyIMO_Stop
 325:.\Generated_Source\PSoC5/CyLib.c **** ********************************************************************************
 326:.\Generated_Source\PSoC5/CyLib.c **** *
 327:.\Generated_Source\PSoC5/CyLib.c **** * Summary:
 328:.\Generated_Source\PSoC5/CyLib.c **** *   Disables the IMO.
 329:.\Generated_Source\PSoC5/CyLib.c **** *
 330:.\Generated_Source\PSoC5/CyLib.c **** * Parameters:
 331:.\Generated_Source\PSoC5/CyLib.c **** *  None
 332:.\Generated_Source\PSoC5/CyLib.c **** *
 333:.\Generated_Source\PSoC5/CyLib.c **** * Return:
 334:.\Generated_Source\PSoC5/CyLib.c **** *  None
 335:.\Generated_Source\PSoC5/CyLib.c **** *
 336:.\Generated_Source\PSoC5/CyLib.c **** *******************************************************************************/
 337:.\Generated_Source\PSoC5/CyLib.c **** void CyIMO_Stop(void) 
 338:.\Generated_Source\PSoC5/CyLib.c **** {
 339:.\Generated_Source\PSoC5/CyLib.c ****     /* Clear the bit to disable the clock. */
 340:.\Generated_Source\PSoC5/CyLib.c ****     PM_ACT_CFG0 &= ~IMO_PM_ENABLE;
 341:.\Generated_Source\PSoC5/CyLib.c **** }
 342:.\Generated_Source\PSoC5/CyLib.c **** 
 343:.\Generated_Source\PSoC5/CyLib.c **** 
 344:.\Generated_Source\PSoC5/CyLib.c **** /*******************************************************************************
 345:.\Generated_Source\PSoC5/CyLib.c **** * Function Name: CyUSB_PowerOnCheck
 346:.\Generated_Source\PSoC5/CyLib.c **** ********************************************************************************
 347:.\Generated_Source\PSoC5/CyLib.c **** *
 348:.\Generated_Source\PSoC5/CyLib.c **** * Summary:
 349:.\Generated_Source\PSoC5/CyLib.c **** *  Returns the USB power status value. A private function to cy_boot.
 350:.\Generated_Source\PSoC5/CyLib.c **** *
 351:.\Generated_Source\PSoC5/CyLib.c **** * Parameters:
 352:.\Generated_Source\PSoC5/CyLib.c **** *   None
 353:.\Generated_Source\PSoC5/CyLib.c **** *
 354:.\Generated_Source\PSoC5/CyLib.c **** * Return:
 355:.\Generated_Source\PSoC5/CyLib.c **** *   uint8: one if the USB is enabled, 0 if not enabled.
 356:.\Generated_Source\PSoC5/CyLib.c **** *
 357:.\Generated_Source\PSoC5/CyLib.c **** *******************************************************************************/
 358:.\Generated_Source\PSoC5/CyLib.c **** uint8 CyUSB_PowerOnCheck(void)  
 359:.\Generated_Source\PSoC5/CyLib.c **** {
 360:.\Generated_Source\PSoC5/CyLib.c ****     uint8 powered_on = 0u;
 361:.\Generated_Source\PSoC5/CyLib.c **** 
 362:.\Generated_Source\PSoC5/CyLib.c ****     /* Check whether device is in Active or AltActiv and if USB is powered on */
 363:.\Generated_Source\PSoC5/CyLib.c ****     if((((CY_PM_MODE_CSR_REG & CY_PM_MODE_CSR_MASK) == CY_PM_MODE_CSR_ACTIVE) &&
 364:.\Generated_Source\PSoC5/CyLib.c ****          (CY_PM_ACT_CFG5_REG & CY_ACT_USB_ENABLED)) ||
 365:.\Generated_Source\PSoC5/CyLib.c ****       (((CY_PM_MODE_CSR_REG & CY_PM_MODE_CSR_MASK) == CY_PM_MODE_CSR_ALT_ACT) &&
 366:.\Generated_Source\PSoC5/CyLib.c ****         (CY_PM_STBY_CFG5_REG & CY_ALT_ACT_USB_ENABLED)))
 367:.\Generated_Source\PSoC5/CyLib.c ****     {
 368:.\Generated_Source\PSoC5/CyLib.c ****         powered_on = 1;
 369:.\Generated_Source\PSoC5/CyLib.c ****     }
 370:.\Generated_Source\PSoC5/CyLib.c **** 
 371:.\Generated_Source\PSoC5/CyLib.c ****     return (powered_on);
 372:.\Generated_Source\PSoC5/CyLib.c **** }
 373:.\Generated_Source\PSoC5/CyLib.c **** 
 374:.\Generated_Source\PSoC5/CyLib.c **** 
 375:.\Generated_Source\PSoC5/CyLib.c **** /*******************************************************************************
 376:.\Generated_Source\PSoC5/CyLib.c **** * Function Name: CyIMO_SetTrimValue
 377:.\Generated_Source\PSoC5/CyLib.c **** ********************************************************************************
 378:.\Generated_Source\PSoC5/CyLib.c **** *
ARM GAS  C:\Users\SUZUKI~1\AppData\Local\Temp\ccy86h0S.s 			page 9


 379:.\Generated_Source\PSoC5/CyLib.c **** * Summary:
 380:.\Generated_Source\PSoC5/CyLib.c **** *  Sets the IMO factory trim values.
 381:.\Generated_Source\PSoC5/CyLib.c **** *
 382:.\Generated_Source\PSoC5/CyLib.c **** * Parameters:
 383:.\Generated_Source\PSoC5/CyLib.c **** *  uint8 freq - frequency for which trims must be set
 384:.\Generated_Source\PSoC5/CyLib.c **** *
 385:.\Generated_Source\PSoC5/CyLib.c **** * Return:
 386:.\Generated_Source\PSoC5/CyLib.c **** *  None
 387:.\Generated_Source\PSoC5/CyLib.c **** *
 388:.\Generated_Source\PSoC5/CyLib.c **** *******************************************************************************/
 389:.\Generated_Source\PSoC5/CyLib.c **** void CyIMO_SetTrimValue(uint8 freq) 
 390:.\Generated_Source\PSoC5/CyLib.c **** {
 391:.\Generated_Source\PSoC5/CyLib.c ****     uint8 usb_power_on = CyUSB_PowerOnCheck();
 392:.\Generated_Source\PSoC5/CyLib.c **** 
 393:.\Generated_Source\PSoC5/CyLib.c ****     /* If USB is powered */
 394:.\Generated_Source\PSoC5/CyLib.c ****     if(usb_power_on == 1)
 395:.\Generated_Source\PSoC5/CyLib.c ****     {
 396:.\Generated_Source\PSoC5/CyLib.c ****         /* Unlock USB write */
 397:.\Generated_Source\PSoC5/CyLib.c ****         CY_USB_CR1 &= ~CLOCK_USB_ENABLE;
 398:.\Generated_Source\PSoC5/CyLib.c ****     }
 399:.\Generated_Source\PSoC5/CyLib.c ****     switch(freq)
 400:.\Generated_Source\PSoC5/CyLib.c ****     {
 401:.\Generated_Source\PSoC5/CyLib.c ****     case CY_IMO_FREQ_3MHZ:
 402:.\Generated_Source\PSoC5/CyLib.c ****         IMO_TR1 = CY_GET_XTND_REG8(FLSHID_CUST_TABLES_IMO_3MHZ_PTR);
 403:.\Generated_Source\PSoC5/CyLib.c ****         break;
 404:.\Generated_Source\PSoC5/CyLib.c **** 
 405:.\Generated_Source\PSoC5/CyLib.c ****     case CY_IMO_FREQ_6MHZ:
 406:.\Generated_Source\PSoC5/CyLib.c ****         IMO_TR1 = CY_GET_XTND_REG8(FLSHID_CUST_TABLES_IMO_6MHZ_PTR);
 407:.\Generated_Source\PSoC5/CyLib.c ****         break;
 408:.\Generated_Source\PSoC5/CyLib.c **** 
 409:.\Generated_Source\PSoC5/CyLib.c ****     case CY_IMO_FREQ_12MHZ:
 410:.\Generated_Source\PSoC5/CyLib.c ****         IMO_TR1 = CY_GET_XTND_REG8(FLSHID_CUST_TABLES_IMO_12MHZ_PTR);
 411:.\Generated_Source\PSoC5/CyLib.c ****         break;
 412:.\Generated_Source\PSoC5/CyLib.c **** 
 413:.\Generated_Source\PSoC5/CyLib.c ****     case CY_IMO_FREQ_24MHZ:
 414:.\Generated_Source\PSoC5/CyLib.c ****         IMO_TR1 = CY_GET_XTND_REG8(FLSHID_CUST_TABLES_IMO_24MHZ_PTR);
 415:.\Generated_Source\PSoC5/CyLib.c ****         break;
 416:.\Generated_Source\PSoC5/CyLib.c **** 
 417:.\Generated_Source\PSoC5/CyLib.c ****     case CY_IMO_FREQ_48MHZ:
 418:.\Generated_Source\PSoC5/CyLib.c ****         IMO_TR1 = CY_GET_XTND_REG8(FLSHID_MFG_CFG_IMO_TR1_PTR);
 419:.\Generated_Source\PSoC5/CyLib.c ****         break;
 420:.\Generated_Source\PSoC5/CyLib.c **** 
 421:.\Generated_Source\PSoC5/CyLib.c ****     /* The IMO frequencies above 48 MHz are not supported by PSoC5 */
 422:.\Generated_Source\PSoC5/CyLib.c ****     #if(!CY_PSOC5A)
 423:.\Generated_Source\PSoC5/CyLib.c **** 
 424:.\Generated_Source\PSoC5/CyLib.c ****         case CY_IMO_FREQ_62MHZ:
 425:.\Generated_Source\PSoC5/CyLib.c ****             IMO_TR1 = CY_GET_XTND_REG8(FLSHID_CUST_TABLES_IMO_67MHZ_PTR);
 426:.\Generated_Source\PSoC5/CyLib.c ****             break;
 427:.\Generated_Source\PSoC5/CyLib.c **** 
 428:.\Generated_Source\PSoC5/CyLib.c ****     #endif  /* (!CY_PSOC5A) */
 429:.\Generated_Source\PSoC5/CyLib.c **** 
 430:.\Generated_Source\PSoC5/CyLib.c ****     case CY_IMO_FREQ_USB:
 431:.\Generated_Source\PSoC5/CyLib.c ****         IMO_TR1 = CY_GET_XTND_REG8(FLSHID_CUST_TABLES_IMO_USB_PTR);
 432:.\Generated_Source\PSoC5/CyLib.c **** 
 433:.\Generated_Source\PSoC5/CyLib.c ****         /* If USB is powered */
 434:.\Generated_Source\PSoC5/CyLib.c ****         if(usb_power_on == 1)
 435:.\Generated_Source\PSoC5/CyLib.c ****         {
ARM GAS  C:\Users\SUZUKI~1\AppData\Local\Temp\ccy86h0S.s 			page 10


 436:.\Generated_Source\PSoC5/CyLib.c ****             /* Lock the USB Oscillator */
 437:.\Generated_Source\PSoC5/CyLib.c ****             CY_USB_CR1 |= CLOCK_USB_ENABLE;
 438:.\Generated_Source\PSoC5/CyLib.c ****         }
 439:.\Generated_Source\PSoC5/CyLib.c ****         break;
 440:.\Generated_Source\PSoC5/CyLib.c **** 
 441:.\Generated_Source\PSoC5/CyLib.c ****     default:
 442:.\Generated_Source\PSoC5/CyLib.c ****             CYASSERT(0);
 443:.\Generated_Source\PSoC5/CyLib.c ****         break;
 444:.\Generated_Source\PSoC5/CyLib.c ****     }
 445:.\Generated_Source\PSoC5/CyLib.c **** 
 446:.\Generated_Source\PSoC5/CyLib.c **** }
 447:.\Generated_Source\PSoC5/CyLib.c **** 
 448:.\Generated_Source\PSoC5/CyLib.c **** 
 449:.\Generated_Source\PSoC5/CyLib.c **** /*******************************************************************************
 450:.\Generated_Source\PSoC5/CyLib.c **** * Function Name: CyIMO_SetFreq
 451:.\Generated_Source\PSoC5/CyLib.c **** ********************************************************************************
 452:.\Generated_Source\PSoC5/CyLib.c **** *
 453:.\Generated_Source\PSoC5/CyLib.c **** * Summary:
 454:.\Generated_Source\PSoC5/CyLib.c **** *  Sets the frequency of the IMO. Changes may be made while the IMO is running.
 455:.\Generated_Source\PSoC5/CyLib.c **** *
 456:.\Generated_Source\PSoC5/CyLib.c **** * Parameters:
 457:.\Generated_Source\PSoC5/CyLib.c **** *  freq: Frequency of IMO operation
 458:.\Generated_Source\PSoC5/CyLib.c **** *       CY_IMO_FREQ_3MHZ  to set  3   MHz
 459:.\Generated_Source\PSoC5/CyLib.c **** *       CY_IMO_FREQ_6MHZ  to set  6   MHz
 460:.\Generated_Source\PSoC5/CyLib.c **** *       CY_IMO_FREQ_12MHZ to set 12   MHz
 461:.\Generated_Source\PSoC5/CyLib.c **** *       CY_IMO_FREQ_24MHZ to set 24   MHz
 462:.\Generated_Source\PSoC5/CyLib.c **** *       CY_IMO_FREQ_48MHZ to set 48   MHz
 463:.\Generated_Source\PSoC5/CyLib.c **** *       CY_IMO_FREQ_62MHZ to set 62.6 MHz (unsupported by PSoC 5)
 464:.\Generated_Source\PSoC5/CyLib.c **** *       CY_IMO_FREQ_USB   to set 24   MHz (Trimmed for USB operation)
 465:.\Generated_Source\PSoC5/CyLib.c **** *
 466:.\Generated_Source\PSoC5/CyLib.c **** * Return:
 467:.\Generated_Source\PSoC5/CyLib.c **** *  None
 468:.\Generated_Source\PSoC5/CyLib.c **** *
 469:.\Generated_Source\PSoC5/CyLib.c **** * Side Effects:
 470:.\Generated_Source\PSoC5/CyLib.c **** *  If as result of this function execution the CPU clock frequency is increased
 471:.\Generated_Source\PSoC5/CyLib.c **** *  then the number of clock cycles the cache will wait before it samples data
 472:.\Generated_Source\PSoC5/CyLib.c **** *  coming back from Flash must be adjusted by calling CyFlash_SetWaitCycles()
 473:.\Generated_Source\PSoC5/CyLib.c **** *  with appropriate parameter. It can be optionally called if CPU clock
 474:.\Generated_Source\PSoC5/CyLib.c **** *  frequency is lowered in order to improve CPU performance.
 475:.\Generated_Source\PSoC5/CyLib.c **** *  See CyFlash_SetWaitCycles() description for more information.
 476:.\Generated_Source\PSoC5/CyLib.c **** *
 477:.\Generated_Source\PSoC5/CyLib.c **** *  When the USB setting is chosen, the USB clock locking circuit is enabled.
 478:.\Generated_Source\PSoC5/CyLib.c **** *  Otherwise this circuit is disabled. The USB block must be powered before
 479:.\Generated_Source\PSoC5/CyLib.c **** *  selecting the USB setting.
 480:.\Generated_Source\PSoC5/CyLib.c **** *
 481:.\Generated_Source\PSoC5/CyLib.c **** *******************************************************************************/
 482:.\Generated_Source\PSoC5/CyLib.c **** void CyIMO_SetFreq(uint8 freq) 
 483:.\Generated_Source\PSoC5/CyLib.c **** {
 484:.\Generated_Source\PSoC5/CyLib.c ****     uint8 current_freq;
 485:.\Generated_Source\PSoC5/CyLib.c ****     uint8 next_freq;
 486:.\Generated_Source\PSoC5/CyLib.c **** 
 487:.\Generated_Source\PSoC5/CyLib.c ****     /***************************************************************************
 488:.\Generated_Source\PSoC5/CyLib.c ****     * When changing the IMO frequency the Trim values must also be set
 489:.\Generated_Source\PSoC5/CyLib.c ****     * accordingly.This requires reading the current frequency. If the new
 490:.\Generated_Source\PSoC5/CyLib.c ****     * frequency is faster, then set the new trim and then change the frequency,
 491:.\Generated_Source\PSoC5/CyLib.c ****     * otherwise change the frequency and then set the new trim values.
 492:.\Generated_Source\PSoC5/CyLib.c ****     ***************************************************************************/
ARM GAS  C:\Users\SUZUKI~1\AppData\Local\Temp\ccy86h0S.s 			page 11


 493:.\Generated_Source\PSoC5/CyLib.c **** 
 494:.\Generated_Source\PSoC5/CyLib.c ****     current_freq = FASTCLK_IMO_CR & ~CLOCK_IMO_RANGE_CLEAR;
 495:.\Generated_Source\PSoC5/CyLib.c **** 
 496:.\Generated_Source\PSoC5/CyLib.c ****     /* Check if the requested frequency is USB. */
 497:.\Generated_Source\PSoC5/CyLib.c ****     next_freq = (freq == CY_IMO_FREQ_USB) ? CY_IMO_FREQ_24MHZ : freq;
 498:.\Generated_Source\PSoC5/CyLib.c **** 
 499:.\Generated_Source\PSoC5/CyLib.c ****     switch (current_freq)
 500:.\Generated_Source\PSoC5/CyLib.c ****     {
 501:.\Generated_Source\PSoC5/CyLib.c ****     case 0:
 502:.\Generated_Source\PSoC5/CyLib.c ****         current_freq = CY_IMO_FREQ_12MHZ;
 503:.\Generated_Source\PSoC5/CyLib.c ****         break;
 504:.\Generated_Source\PSoC5/CyLib.c **** 
 505:.\Generated_Source\PSoC5/CyLib.c ****     case 1:
 506:.\Generated_Source\PSoC5/CyLib.c ****         current_freq = CY_IMO_FREQ_6MHZ;
 507:.\Generated_Source\PSoC5/CyLib.c ****         break;
 508:.\Generated_Source\PSoC5/CyLib.c **** 
 509:.\Generated_Source\PSoC5/CyLib.c ****     case 2:
 510:.\Generated_Source\PSoC5/CyLib.c ****         current_freq = CY_IMO_FREQ_24MHZ;
 511:.\Generated_Source\PSoC5/CyLib.c ****         break;
 512:.\Generated_Source\PSoC5/CyLib.c **** 
 513:.\Generated_Source\PSoC5/CyLib.c ****     case 3:
 514:.\Generated_Source\PSoC5/CyLib.c ****         current_freq = CY_IMO_FREQ_3MHZ;
 515:.\Generated_Source\PSoC5/CyLib.c ****         break;
 516:.\Generated_Source\PSoC5/CyLib.c **** 
 517:.\Generated_Source\PSoC5/CyLib.c ****     case 4:
 518:.\Generated_Source\PSoC5/CyLib.c ****         current_freq = CY_IMO_FREQ_48MHZ;
 519:.\Generated_Source\PSoC5/CyLib.c ****         break;
 520:.\Generated_Source\PSoC5/CyLib.c **** 
 521:.\Generated_Source\PSoC5/CyLib.c ****     /* The IMO frequencies above 48 MHz are not supported by PSoC5 */
 522:.\Generated_Source\PSoC5/CyLib.c ****     #if(!CY_PSOC5A)
 523:.\Generated_Source\PSoC5/CyLib.c **** 
 524:.\Generated_Source\PSoC5/CyLib.c ****         case 5:
 525:.\Generated_Source\PSoC5/CyLib.c ****             current_freq = CY_IMO_FREQ_62MHZ;
 526:.\Generated_Source\PSoC5/CyLib.c ****             break;
 527:.\Generated_Source\PSoC5/CyLib.c **** 
 528:.\Generated_Source\PSoC5/CyLib.c ****     #endif  /* (!CY_PSOC5A) */
 529:.\Generated_Source\PSoC5/CyLib.c **** 
 530:.\Generated_Source\PSoC5/CyLib.c ****     default:
 531:.\Generated_Source\PSoC5/CyLib.c ****         CYASSERT((uint32) 0);
 532:.\Generated_Source\PSoC5/CyLib.c ****         break;
 533:.\Generated_Source\PSoC5/CyLib.c ****     }
 534:.\Generated_Source\PSoC5/CyLib.c **** 
 535:.\Generated_Source\PSoC5/CyLib.c ****     if (next_freq >= current_freq)
 536:.\Generated_Source\PSoC5/CyLib.c ****     {
 537:.\Generated_Source\PSoC5/CyLib.c ****         /* Set the new trim first */
 538:.\Generated_Source\PSoC5/CyLib.c ****         CyIMO_SetTrimValue(freq);
 539:.\Generated_Source\PSoC5/CyLib.c ****     }
 540:.\Generated_Source\PSoC5/CyLib.c **** 
 541:.\Generated_Source\PSoC5/CyLib.c ****     /* Set the usbclk_on bit when using CY_IMO_FREQ_USB, if not clear it */
 542:.\Generated_Source\PSoC5/CyLib.c ****     switch(freq)
 543:.\Generated_Source\PSoC5/CyLib.c ****     {
 544:.\Generated_Source\PSoC5/CyLib.c ****     case CY_IMO_FREQ_3MHZ:
 545:.\Generated_Source\PSoC5/CyLib.c ****         FASTCLK_IMO_CR = ((FASTCLK_IMO_CR & CLOCK_IMO_RANGE_CLEAR) |
 546:.\Generated_Source\PSoC5/CyLib.c ****             CLOCK_IMO_3MHZ_VALUE) & ~FASTCLK_IMO_USBCLK_ON_SET;
 547:.\Generated_Source\PSoC5/CyLib.c ****         break;
 548:.\Generated_Source\PSoC5/CyLib.c **** 
 549:.\Generated_Source\PSoC5/CyLib.c ****     case CY_IMO_FREQ_6MHZ:
ARM GAS  C:\Users\SUZUKI~1\AppData\Local\Temp\ccy86h0S.s 			page 12


 550:.\Generated_Source\PSoC5/CyLib.c ****         FASTCLK_IMO_CR = ((FASTCLK_IMO_CR & CLOCK_IMO_RANGE_CLEAR) |
 551:.\Generated_Source\PSoC5/CyLib.c ****             CLOCK_IMO_6MHZ_VALUE) & ~FASTCLK_IMO_USBCLK_ON_SET;
 552:.\Generated_Source\PSoC5/CyLib.c ****         break;
 553:.\Generated_Source\PSoC5/CyLib.c **** 
 554:.\Generated_Source\PSoC5/CyLib.c ****     case CY_IMO_FREQ_12MHZ:
 555:.\Generated_Source\PSoC5/CyLib.c ****         FASTCLK_IMO_CR = ((FASTCLK_IMO_CR & CLOCK_IMO_RANGE_CLEAR) |
 556:.\Generated_Source\PSoC5/CyLib.c ****             CLOCK_IMO_12MHZ_VALUE) & ~FASTCLK_IMO_USBCLK_ON_SET;
 557:.\Generated_Source\PSoC5/CyLib.c ****         break;
 558:.\Generated_Source\PSoC5/CyLib.c **** 
 559:.\Generated_Source\PSoC5/CyLib.c ****     case CY_IMO_FREQ_24MHZ:
 560:.\Generated_Source\PSoC5/CyLib.c ****         FASTCLK_IMO_CR = ((FASTCLK_IMO_CR & CLOCK_IMO_RANGE_CLEAR) |
 561:.\Generated_Source\PSoC5/CyLib.c ****             CLOCK_IMO_24MHZ_VALUE) & ~FASTCLK_IMO_USBCLK_ON_SET;
 562:.\Generated_Source\PSoC5/CyLib.c ****         break;
 563:.\Generated_Source\PSoC5/CyLib.c **** 
 564:.\Generated_Source\PSoC5/CyLib.c ****     case CY_IMO_FREQ_48MHZ:
 565:.\Generated_Source\PSoC5/CyLib.c ****         FASTCLK_IMO_CR = ((FASTCLK_IMO_CR & CLOCK_IMO_RANGE_CLEAR) |
 566:.\Generated_Source\PSoC5/CyLib.c ****             CLOCK_IMO_48MHZ_VALUE) & ~FASTCLK_IMO_USBCLK_ON_SET;
 567:.\Generated_Source\PSoC5/CyLib.c ****         break;
 568:.\Generated_Source\PSoC5/CyLib.c **** 
 569:.\Generated_Source\PSoC5/CyLib.c ****     /* The IMO frequencies above 48 MHz are not supported by PSoC5 */
 570:.\Generated_Source\PSoC5/CyLib.c ****     #if(!CY_PSOC5A)
 571:.\Generated_Source\PSoC5/CyLib.c **** 
 572:.\Generated_Source\PSoC5/CyLib.c ****     case CY_IMO_FREQ_62MHZ:
 573:.\Generated_Source\PSoC5/CyLib.c ****         FASTCLK_IMO_CR = ((FASTCLK_IMO_CR & CLOCK_IMO_RANGE_CLEAR) |
 574:.\Generated_Source\PSoC5/CyLib.c ****             CLOCK_IMO_62MHZ_VALUE) & ~FASTCLK_IMO_USBCLK_ON_SET;
 575:.\Generated_Source\PSoC5/CyLib.c ****         break;
 576:.\Generated_Source\PSoC5/CyLib.c **** 
 577:.\Generated_Source\PSoC5/CyLib.c ****     #endif  /* (!CY_PSOC5A) */
 578:.\Generated_Source\PSoC5/CyLib.c **** 
 579:.\Generated_Source\PSoC5/CyLib.c ****     case CY_IMO_FREQ_USB:
 580:.\Generated_Source\PSoC5/CyLib.c ****         FASTCLK_IMO_CR = ((FASTCLK_IMO_CR & CLOCK_IMO_RANGE_CLEAR) |
 581:.\Generated_Source\PSoC5/CyLib.c ****             CLOCK_IMO_24MHZ_VALUE) | FASTCLK_IMO_USBCLK_ON_SET;
 582:.\Generated_Source\PSoC5/CyLib.c ****         break;
 583:.\Generated_Source\PSoC5/CyLib.c **** 
 584:.\Generated_Source\PSoC5/CyLib.c ****     default:
 585:.\Generated_Source\PSoC5/CyLib.c ****         CYASSERT((uint32) 0);
 586:.\Generated_Source\PSoC5/CyLib.c ****         break;
 587:.\Generated_Source\PSoC5/CyLib.c ****     }
 588:.\Generated_Source\PSoC5/CyLib.c **** 
 589:.\Generated_Source\PSoC5/CyLib.c ****     /* Turn on the IMO Doubler, if switching to CY_IMO_FREQ_USB */
 590:.\Generated_Source\PSoC5/CyLib.c ****     if (freq == CY_IMO_FREQ_USB)
 591:.\Generated_Source\PSoC5/CyLib.c ****     {
 592:.\Generated_Source\PSoC5/CyLib.c ****         CyIMO_EnableDoubler();
 593:.\Generated_Source\PSoC5/CyLib.c ****     }
 594:.\Generated_Source\PSoC5/CyLib.c ****     else
 595:.\Generated_Source\PSoC5/CyLib.c ****     {
 596:.\Generated_Source\PSoC5/CyLib.c ****         CyIMO_DisableDoubler();
 597:.\Generated_Source\PSoC5/CyLib.c ****     }
 598:.\Generated_Source\PSoC5/CyLib.c **** 
 599:.\Generated_Source\PSoC5/CyLib.c ****     if (next_freq < current_freq)
 600:.\Generated_Source\PSoC5/CyLib.c ****     {
 601:.\Generated_Source\PSoC5/CyLib.c ****         /* Set the new trim after setting the frequency */
 602:.\Generated_Source\PSoC5/CyLib.c ****         CyIMO_SetTrimValue(freq);
 603:.\Generated_Source\PSoC5/CyLib.c ****     }
 604:.\Generated_Source\PSoC5/CyLib.c **** }
 605:.\Generated_Source\PSoC5/CyLib.c **** 
 606:.\Generated_Source\PSoC5/CyLib.c **** 
ARM GAS  C:\Users\SUZUKI~1\AppData\Local\Temp\ccy86h0S.s 			page 13


 607:.\Generated_Source\PSoC5/CyLib.c **** /*******************************************************************************
 608:.\Generated_Source\PSoC5/CyLib.c **** * Function Name: CyIMO_SetSource
 609:.\Generated_Source\PSoC5/CyLib.c **** ********************************************************************************
 610:.\Generated_Source\PSoC5/CyLib.c **** *
 611:.\Generated_Source\PSoC5/CyLib.c **** * Summary:
 612:.\Generated_Source\PSoC5/CyLib.c **** *  Sets the source of the clock output from the IMO block.
 613:.\Generated_Source\PSoC5/CyLib.c **** *
 614:.\Generated_Source\PSoC5/CyLib.c **** *  The output from the IMO is by default the IMO itself. Optionally the MHz
 615:.\Generated_Source\PSoC5/CyLib.c **** *  Crystal or a DSI input can be the source of the IMO output instead.
 616:.\Generated_Source\PSoC5/CyLib.c **** *
 617:.\Generated_Source\PSoC5/CyLib.c **** * Parameters:
 618:.\Generated_Source\PSoC5/CyLib.c **** *   source, CY_IMO_SOURCE_DSI to set the DSI as source.
 619:.\Generated_Source\PSoC5/CyLib.c **** *           CY_IMO_SOURCE_XTAL to set the MHz as source.
 620:.\Generated_Source\PSoC5/CyLib.c **** *           CY_IMO_SOURCE_IMO to set the IMO itself.
 621:.\Generated_Source\PSoC5/CyLib.c **** *
 622:.\Generated_Source\PSoC5/CyLib.c **** * Return:
 623:.\Generated_Source\PSoC5/CyLib.c **** *  None
 624:.\Generated_Source\PSoC5/CyLib.c **** *
 625:.\Generated_Source\PSoC5/CyLib.c **** * Side Effects:
 626:.\Generated_Source\PSoC5/CyLib.c **** *  If as result of this function execution the CPU clock frequency is increased
 627:.\Generated_Source\PSoC5/CyLib.c **** *  then the number of clock cycles the cache will wait before it samples data
 628:.\Generated_Source\PSoC5/CyLib.c **** *  coming back from Flash must be adjusted by calling CyFlash_SetWaitCycles()
 629:.\Generated_Source\PSoC5/CyLib.c **** *  with appropriate parameter. It can be optionally called if CPU clock
 630:.\Generated_Source\PSoC5/CyLib.c **** *  frequency is lowered in order to improve CPU performance.
 631:.\Generated_Source\PSoC5/CyLib.c **** *  See CyFlash_SetWaitCycles() description for more information.
 632:.\Generated_Source\PSoC5/CyLib.c **** *
 633:.\Generated_Source\PSoC5/CyLib.c **** *******************************************************************************/
 634:.\Generated_Source\PSoC5/CyLib.c **** void CyIMO_SetSource(uint8 source) 
 635:.\Generated_Source\PSoC5/CyLib.c **** {
 636:.\Generated_Source\PSoC5/CyLib.c ****     /* Set the xclken bit of FASTCLK_IMO_CR regigster */
 637:.\Generated_Source\PSoC5/CyLib.c ****     switch(source)
 638:.\Generated_Source\PSoC5/CyLib.c ****     {
 639:.\Generated_Source\PSoC5/CyLib.c ****     case CY_IMO_SOURCE_DSI:
 640:.\Generated_Source\PSoC5/CyLib.c ****         CLKDIST_CR &= ~CLOCK_IMO2X_XTAL;
 641:.\Generated_Source\PSoC5/CyLib.c ****         FASTCLK_IMO_CR |= CLOCK_IMO_IMO;
 642:.\Generated_Source\PSoC5/CyLib.c ****         break;
 643:.\Generated_Source\PSoC5/CyLib.c **** 
 644:.\Generated_Source\PSoC5/CyLib.c ****     case CY_IMO_SOURCE_XTAL:
 645:.\Generated_Source\PSoC5/CyLib.c ****         CLKDIST_CR |= CLOCK_IMO2X_XTAL;
 646:.\Generated_Source\PSoC5/CyLib.c ****         FASTCLK_IMO_CR |= CLOCK_IMO_IMO;
 647:.\Generated_Source\PSoC5/CyLib.c ****         break;
 648:.\Generated_Source\PSoC5/CyLib.c **** 
 649:.\Generated_Source\PSoC5/CyLib.c ****     case CY_IMO_SOURCE_IMO:
 650:.\Generated_Source\PSoC5/CyLib.c ****         FASTCLK_IMO_CR &= ~CLOCK_IMO_IMO;
 651:.\Generated_Source\PSoC5/CyLib.c ****         break;
 652:.\Generated_Source\PSoC5/CyLib.c **** 
 653:.\Generated_Source\PSoC5/CyLib.c ****     default:
 654:.\Generated_Source\PSoC5/CyLib.c ****         /* Incorrect source value */
 655:.\Generated_Source\PSoC5/CyLib.c ****         CYASSERT((uint32) 0);
 656:.\Generated_Source\PSoC5/CyLib.c ****         break;
 657:.\Generated_Source\PSoC5/CyLib.c ****     }
 658:.\Generated_Source\PSoC5/CyLib.c **** }
 659:.\Generated_Source\PSoC5/CyLib.c **** 
 660:.\Generated_Source\PSoC5/CyLib.c **** 
 661:.\Generated_Source\PSoC5/CyLib.c **** /*******************************************************************************
 662:.\Generated_Source\PSoC5/CyLib.c **** * Function Name: CyIMO_EnableDoubler
 663:.\Generated_Source\PSoC5/CyLib.c **** ********************************************************************************
ARM GAS  C:\Users\SUZUKI~1\AppData\Local\Temp\ccy86h0S.s 			page 14


 664:.\Generated_Source\PSoC5/CyLib.c **** *
 665:.\Generated_Source\PSoC5/CyLib.c **** * Summary:
 666:.\Generated_Source\PSoC5/CyLib.c **** *  Enables the IMO doubler.  The 2x frequency clock is used to convert a 24 MHz
 667:.\Generated_Source\PSoC5/CyLib.c **** *  input to a 48 MHz output for use by the USB block.
 668:.\Generated_Source\PSoC5/CyLib.c **** *
 669:.\Generated_Source\PSoC5/CyLib.c **** * Parameters:
 670:.\Generated_Source\PSoC5/CyLib.c **** *  None
 671:.\Generated_Source\PSoC5/CyLib.c **** *
 672:.\Generated_Source\PSoC5/CyLib.c **** * Return:
 673:.\Generated_Source\PSoC5/CyLib.c **** *  None
 674:.\Generated_Source\PSoC5/CyLib.c **** *
 675:.\Generated_Source\PSoC5/CyLib.c **** *******************************************************************************/
 676:.\Generated_Source\PSoC5/CyLib.c **** void CyIMO_EnableDoubler(void) 
 677:.\Generated_Source\PSoC5/CyLib.c **** {
 678:.\Generated_Source\PSoC5/CyLib.c ****     /* Set the FASTCLK_IMO_CR_PTR regigster's 4th bit */
 679:.\Generated_Source\PSoC5/CyLib.c ****     FASTCLK_IMO_CR |= IMO_DOUBLER_ENABLE;
 680:.\Generated_Source\PSoC5/CyLib.c **** }
 681:.\Generated_Source\PSoC5/CyLib.c **** 
 682:.\Generated_Source\PSoC5/CyLib.c **** 
 683:.\Generated_Source\PSoC5/CyLib.c **** /*******************************************************************************
 684:.\Generated_Source\PSoC5/CyLib.c **** * Function Name: CyIMO_DisableDoubler
 685:.\Generated_Source\PSoC5/CyLib.c **** ********************************************************************************
 686:.\Generated_Source\PSoC5/CyLib.c **** *
 687:.\Generated_Source\PSoC5/CyLib.c **** * Summary:
 688:.\Generated_Source\PSoC5/CyLib.c **** *   Disables the IMO doubler.
 689:.\Generated_Source\PSoC5/CyLib.c **** *
 690:.\Generated_Source\PSoC5/CyLib.c **** * Parameters:
 691:.\Generated_Source\PSoC5/CyLib.c **** *  None
 692:.\Generated_Source\PSoC5/CyLib.c **** *
 693:.\Generated_Source\PSoC5/CyLib.c **** * Return:
 694:.\Generated_Source\PSoC5/CyLib.c **** *  None
 695:.\Generated_Source\PSoC5/CyLib.c **** *
 696:.\Generated_Source\PSoC5/CyLib.c **** *******************************************************************************/
 697:.\Generated_Source\PSoC5/CyLib.c **** void CyIMO_DisableDoubler(void) 
 698:.\Generated_Source\PSoC5/CyLib.c **** {
 699:.\Generated_Source\PSoC5/CyLib.c ****     FASTCLK_IMO_CR &= ~IMO_DOUBLER_ENABLE;
 700:.\Generated_Source\PSoC5/CyLib.c **** }
 701:.\Generated_Source\PSoC5/CyLib.c **** 
 702:.\Generated_Source\PSoC5/CyLib.c **** 
 703:.\Generated_Source\PSoC5/CyLib.c **** /*******************************************************************************
 704:.\Generated_Source\PSoC5/CyLib.c **** * Function Name: CyMasterClk_SetSource
 705:.\Generated_Source\PSoC5/CyLib.c **** ********************************************************************************
 706:.\Generated_Source\PSoC5/CyLib.c **** *
 707:.\Generated_Source\PSoC5/CyLib.c **** * Summary:
 708:.\Generated_Source\PSoC5/CyLib.c **** *  Sets the source of the master clock.
 709:.\Generated_Source\PSoC5/CyLib.c **** *
 710:.\Generated_Source\PSoC5/CyLib.c **** * Parameters:
 711:.\Generated_Source\PSoC5/CyLib.c **** *   source: One of the four available Master clock sources.
 712:.\Generated_Source\PSoC5/CyLib.c **** *     CY_MASTER_SOURCE_IMO
 713:.\Generated_Source\PSoC5/CyLib.c **** *     CY_MASTER_SOURCE_PLL
 714:.\Generated_Source\PSoC5/CyLib.c **** *     CY_MASTER_SOURCE_XTAL
 715:.\Generated_Source\PSoC5/CyLib.c **** *     CY_MASTER_SOURCE_DSI
 716:.\Generated_Source\PSoC5/CyLib.c **** *
 717:.\Generated_Source\PSoC5/CyLib.c **** * Return:
 718:.\Generated_Source\PSoC5/CyLib.c **** *  None
 719:.\Generated_Source\PSoC5/CyLib.c **** *
 720:.\Generated_Source\PSoC5/CyLib.c **** * Side Effects:
ARM GAS  C:\Users\SUZUKI~1\AppData\Local\Temp\ccy86h0S.s 			page 15


 721:.\Generated_Source\PSoC5/CyLib.c **** *  The current source and the new source must both be running and stable before
 722:.\Generated_Source\PSoC5/CyLib.c **** *  calling this function.
 723:.\Generated_Source\PSoC5/CyLib.c **** *
 724:.\Generated_Source\PSoC5/CyLib.c **** *  If as result of this function execution the CPU clock frequency is increased
 725:.\Generated_Source\PSoC5/CyLib.c **** *  then the number of clock cycles the cache will wait before it samples data
 726:.\Generated_Source\PSoC5/CyLib.c **** *  coming back from Flash must be adjusted by calling CyFlash_SetWaitCycles()
 727:.\Generated_Source\PSoC5/CyLib.c **** *  with appropriate parameter. It can be optionally called if CPU clock
 728:.\Generated_Source\PSoC5/CyLib.c **** *  frequency is lowered in order to improve CPU performance.
 729:.\Generated_Source\PSoC5/CyLib.c **** *  See CyFlash_SetWaitCycles() description for more information.
 730:.\Generated_Source\PSoC5/CyLib.c **** *
 731:.\Generated_Source\PSoC5/CyLib.c **** *******************************************************************************/
 732:.\Generated_Source\PSoC5/CyLib.c **** void CyMasterClk_SetSource(uint8 source) 
 733:.\Generated_Source\PSoC5/CyLib.c **** {
 734:.\Generated_Source\PSoC5/CyLib.c ****     uint8 master_reg_1;
 735:.\Generated_Source\PSoC5/CyLib.c **** 
 736:.\Generated_Source\PSoC5/CyLib.c ****     #if(CY_PSOC5A)
 737:.\Generated_Source\PSoC5/CyLib.c **** 
 738:.\Generated_Source\PSoC5/CyLib.c ****         uint8 master_reg_0;
 739:.\Generated_Source\PSoC5/CyLib.c **** 
 740:.\Generated_Source\PSoC5/CyLib.c ****         /* Read the current setting */
 741:.\Generated_Source\PSoC5/CyLib.c ****         master_reg_0 = CLKDIST_MSTR0;
 742:.\Generated_Source\PSoC5/CyLib.c **** 
 743:.\Generated_Source\PSoC5/CyLib.c ****         /* Write a non-zero period to the master mux clock divider */
 744:.\Generated_Source\PSoC5/CyLib.c ****         if (master_reg_0 == 0x00u)
 745:.\Generated_Source\PSoC5/CyLib.c ****         {
 746:.\Generated_Source\PSoC5/CyLib.c ****             CLKDIST_MSTR0 = 3;
 747:.\Generated_Source\PSoC5/CyLib.c ****         }
 748:.\Generated_Source\PSoC5/CyLib.c **** 
 749:.\Generated_Source\PSoC5/CyLib.c ****     #endif  /* (CY_PSOC5A) */
 750:.\Generated_Source\PSoC5/CyLib.c **** 
 751:.\Generated_Source\PSoC5/CyLib.c ****     /* Read the current setting */
 752:.\Generated_Source\PSoC5/CyLib.c ****     master_reg_1 = CLKDIST_MSTR1;
 753:.\Generated_Source\PSoC5/CyLib.c ****     CLKDIST_MSTR1 = (master_reg_1 & MASTER_CLK_SRC_CLEAR) | (source & ~MASTER_CLK_SRC_CLEAR);
 754:.\Generated_Source\PSoC5/CyLib.c **** 
 755:.\Generated_Source\PSoC5/CyLib.c ****     #if(CY_PSOC5A)
 756:.\Generated_Source\PSoC5/CyLib.c **** 
 757:.\Generated_Source\PSoC5/CyLib.c ****         /* Restore zero period (if desired) to the master mux clock divider */
 758:.\Generated_Source\PSoC5/CyLib.c ****         if (master_reg_0 == 0x00u)
 759:.\Generated_Source\PSoC5/CyLib.c ****         {
 760:.\Generated_Source\PSoC5/CyLib.c ****             CLKDIST_MSTR0 = 0;
 761:.\Generated_Source\PSoC5/CyLib.c ****         }
 762:.\Generated_Source\PSoC5/CyLib.c **** 
 763:.\Generated_Source\PSoC5/CyLib.c ****     #endif  /* (CY_PSOC5A) */
 764:.\Generated_Source\PSoC5/CyLib.c **** }
 765:.\Generated_Source\PSoC5/CyLib.c **** 
 766:.\Generated_Source\PSoC5/CyLib.c **** 
 767:.\Generated_Source\PSoC5/CyLib.c **** /*******************************************************************************
 768:.\Generated_Source\PSoC5/CyLib.c **** * Function Name: CyMasterClk_SetDivider
 769:.\Generated_Source\PSoC5/CyLib.c **** ********************************************************************************
 770:.\Generated_Source\PSoC5/CyLib.c **** *
 771:.\Generated_Source\PSoC5/CyLib.c **** * Summary:
 772:.\Generated_Source\PSoC5/CyLib.c **** *  Sets the divider value used to generate Master Clock.
 773:.\Generated_Source\PSoC5/CyLib.c **** *
 774:.\Generated_Source\PSoC5/CyLib.c **** * Parameters:
 775:.\Generated_Source\PSoC5/CyLib.c **** *  uint8 divider:
 776:.\Generated_Source\PSoC5/CyLib.c **** *   Valid range [0-255]. The clock will be divided by this value + 1.
 777:.\Generated_Source\PSoC5/CyLib.c **** *   For example to divide by 2 this parameter should be set to 1.
ARM GAS  C:\Users\SUZUKI~1\AppData\Local\Temp\ccy86h0S.s 			page 16


 778:.\Generated_Source\PSoC5/CyLib.c **** *
 779:.\Generated_Source\PSoC5/CyLib.c **** * Return:
 780:.\Generated_Source\PSoC5/CyLib.c **** *  None
 781:.\Generated_Source\PSoC5/CyLib.c **** *
 782:.\Generated_Source\PSoC5/CyLib.c **** * Side Effects:
 783:.\Generated_Source\PSoC5/CyLib.c **** *  If as result of this function execution the CPU clock frequency is increased
 784:.\Generated_Source\PSoC5/CyLib.c **** *  then the number of clock cycles the cache will wait before it samples data
 785:.\Generated_Source\PSoC5/CyLib.c **** *  coming back from Flash must be adjusted by calling CyFlash_SetWaitCycles()
 786:.\Generated_Source\PSoC5/CyLib.c **** *  with appropriate parameter. It can be optionally called if CPU clock
 787:.\Generated_Source\PSoC5/CyLib.c **** *  frequency is lowered in order to improve CPU performance.
 788:.\Generated_Source\PSoC5/CyLib.c **** *  See CyFlash_SetWaitCycles() description for more information.
 789:.\Generated_Source\PSoC5/CyLib.c **** *
 790:.\Generated_Source\PSoC5/CyLib.c **** *  When changing the Master or Bus clock divider value from div-by-n to div-by-1
 791:.\Generated_Source\PSoC5/CyLib.c **** *  the first clock cycle output after the div-by-1 can be up to 4 ns shorter
 792:.\Generated_Source\PSoC5/CyLib.c **** *  than the final/expected div-by-1 period.
 793:.\Generated_Source\PSoC5/CyLib.c **** *
 794:.\Generated_Source\PSoC5/CyLib.c **** *******************************************************************************/
 795:.\Generated_Source\PSoC5/CyLib.c **** void CyMasterClk_SetDivider(uint8 divider) 
 796:.\Generated_Source\PSoC5/CyLib.c **** {
 797:.\Generated_Source\PSoC5/CyLib.c ****     CLKDIST_MSTR0 = divider;
 798:.\Generated_Source\PSoC5/CyLib.c **** }
 799:.\Generated_Source\PSoC5/CyLib.c **** 
 800:.\Generated_Source\PSoC5/CyLib.c **** 
 801:.\Generated_Source\PSoC5/CyLib.c **** /*******************************************************************************
 802:.\Generated_Source\PSoC5/CyLib.c **** * Function Name: CyBusClk_Internal_SetDivider
 803:.\Generated_Source\PSoC5/CyLib.c **** ********************************************************************************
 804:.\Generated_Source\PSoC5/CyLib.c **** *
 805:.\Generated_Source\PSoC5/CyLib.c **** * Summary:
 806:.\Generated_Source\PSoC5/CyLib.c **** *  Function used by CyBusClk_SetDivider(). For internal use only.
 807:.\Generated_Source\PSoC5/CyLib.c **** *
 808:.\Generated_Source\PSoC5/CyLib.c **** * Parameters:
 809:.\Generated_Source\PSoC5/CyLib.c **** *   divider: Valid range [0-65535].
 810:.\Generated_Source\PSoC5/CyLib.c **** *   The clock will be divided by this value + 1.
 811:.\Generated_Source\PSoC5/CyLib.c **** *   For example to divide by 2 this parameter should be set to 1.
 812:.\Generated_Source\PSoC5/CyLib.c **** *
 813:.\Generated_Source\PSoC5/CyLib.c **** * Return:
 814:.\Generated_Source\PSoC5/CyLib.c **** *  None
 815:.\Generated_Source\PSoC5/CyLib.c **** *
 816:.\Generated_Source\PSoC5/CyLib.c **** *******************************************************************************/
 817:.\Generated_Source\PSoC5/CyLib.c **** void CyBusClk_Internal_SetDivider(uint16 divider)
 818:.\Generated_Source\PSoC5/CyLib.c **** {
 819:.\Generated_Source\PSoC5/CyLib.c ****     /* Clear all the masks (CLKDIST_AMASK, CLKDIST_DMASK) */
 820:.\Generated_Source\PSoC5/CyLib.c ****     CLKDIST_AMASK &= BUS_AMASK_CLEAR;
 821:.\Generated_Source\PSoC5/CyLib.c ****     CLKDIST_DMASK = BUS_DMASK_CLEAR;
 822:.\Generated_Source\PSoC5/CyLib.c **** 
 823:.\Generated_Source\PSoC5/CyLib.c ****     CLKDIST_BCFG2 |= CLKDIST_WRK0_MASK_SET;
 824:.\Generated_Source\PSoC5/CyLib.c **** 
 825:.\Generated_Source\PSoC5/CyLib.c ****     /* Change both bytes before we enable/start the clock. */
 826:.\Generated_Source\PSoC5/CyLib.c ****     CY_SET_REG16(CLKDIST_WRK0_PTR, divider);
 827:.\Generated_Source\PSoC5/CyLib.c **** 
 828:.\Generated_Source\PSoC5/CyLib.c ****     /* Load the value, set the CLKDIST_LD LOAD bit*/
 829:.\Generated_Source\PSoC5/CyLib.c ****     CLKDIST_LD |= CLKDIST_LD_LOAD_SET;
 830:.\Generated_Source\PSoC5/CyLib.c **** }
 831:.\Generated_Source\PSoC5/CyLib.c **** 
 832:.\Generated_Source\PSoC5/CyLib.c **** 
 833:.\Generated_Source\PSoC5/CyLib.c **** /*******************************************************************************
 834:.\Generated_Source\PSoC5/CyLib.c **** * Function Name: CyBusClk_SetDivider
ARM GAS  C:\Users\SUZUKI~1\AppData\Local\Temp\ccy86h0S.s 			page 17


 835:.\Generated_Source\PSoC5/CyLib.c **** ********************************************************************************
 836:.\Generated_Source\PSoC5/CyLib.c **** *
 837:.\Generated_Source\PSoC5/CyLib.c **** * Summary:
 838:.\Generated_Source\PSoC5/CyLib.c **** *  Sets the divider value used to generate Bus Clock.
 839:.\Generated_Source\PSoC5/CyLib.c **** *
 840:.\Generated_Source\PSoC5/CyLib.c **** * Parameters:
 841:.\Generated_Source\PSoC5/CyLib.c **** *  divider: Valid range [0-65535]. The clock will be divided by this value + 1.
 842:.\Generated_Source\PSoC5/CyLib.c **** *  For example to divide by 2 this parameter should be set to 1.
 843:.\Generated_Source\PSoC5/CyLib.c **** *
 844:.\Generated_Source\PSoC5/CyLib.c **** * Return:
 845:.\Generated_Source\PSoC5/CyLib.c **** *  None
 846:.\Generated_Source\PSoC5/CyLib.c **** *
 847:.\Generated_Source\PSoC5/CyLib.c **** * Side Effects:
 848:.\Generated_Source\PSoC5/CyLib.c **** *  If as result of this function execution the CPU clock frequency is increased
 849:.\Generated_Source\PSoC5/CyLib.c **** *  then the number of clock cycles the cache will wait before it samples data
 850:.\Generated_Source\PSoC5/CyLib.c **** *  coming back from Flash must be adjusted by calling CyFlash_SetWaitCycles()
 851:.\Generated_Source\PSoC5/CyLib.c **** *  with appropriate parameter. It can be optionally called if CPU clock
 852:.\Generated_Source\PSoC5/CyLib.c **** *  frequency is lowered in order to improve CPU performance.
 853:.\Generated_Source\PSoC5/CyLib.c **** *  See CyFlash_SetWaitCycles() description for more information.
 854:.\Generated_Source\PSoC5/CyLib.c **** *
 855:.\Generated_Source\PSoC5/CyLib.c **** *******************************************************************************/
 856:.\Generated_Source\PSoC5/CyLib.c **** void CyBusClk_SetDivider(uint16 divider) 
 857:.\Generated_Source\PSoC5/CyLib.c **** {
 858:.\Generated_Source\PSoC5/CyLib.c ****     uint16 current_busclk_divider;
 859:.\Generated_Source\PSoC5/CyLib.c ****     uint8 current_masterclk_divider;
 860:.\Generated_Source\PSoC5/CyLib.c **** 
 861:.\Generated_Source\PSoC5/CyLib.c ****     /* Bus clock divider value */
 862:.\Generated_Source\PSoC5/CyLib.c ****     current_busclk_divider = CY_GET_REG16(CLKDIST_BCFG0_PTR);
 863:.\Generated_Source\PSoC5/CyLib.c **** 
 864:.\Generated_Source\PSoC5/CyLib.c ****     /* Work around to set the bus clock divider value */
 865:.\Generated_Source\PSoC5/CyLib.c ****     if ((divider == 0) || (current_busclk_divider == 0))
 866:.\Generated_Source\PSoC5/CyLib.c ****     {
 867:.\Generated_Source\PSoC5/CyLib.c ****         /* Save away the master clock divider value */
 868:.\Generated_Source\PSoC5/CyLib.c ****         current_masterclk_divider = CY_GET_REG8(CLKDIST_MSTR0_PTR);
 869:.\Generated_Source\PSoC5/CyLib.c ****         if (current_masterclk_divider < MASTERCLK_DIVIDER_VALUE)
 870:.\Generated_Source\PSoC5/CyLib.c ****         {
 871:.\Generated_Source\PSoC5/CyLib.c ****             /* Set master clock divider to 7 */
 872:.\Generated_Source\PSoC5/CyLib.c ****             CyMasterClk_SetDivider(MASTERCLK_DIVIDER_VALUE);
 873:.\Generated_Source\PSoC5/CyLib.c ****         }
 874:.\Generated_Source\PSoC5/CyLib.c **** 
 875:.\Generated_Source\PSoC5/CyLib.c ****         if (divider == 0)
 876:.\Generated_Source\PSoC5/CyLib.c ****         {
 877:.\Generated_Source\PSoC5/CyLib.c ****             /* Set the SSS bit and the divider register desired value */
 878:.\Generated_Source\PSoC5/CyLib.c ****             CLKDIST_BCFG2 |= CLKDIST_BCFG2_SSS_SET;
 879:.\Generated_Source\PSoC5/CyLib.c ****             CyBusClk_Internal_SetDivider(divider);
 880:.\Generated_Source\PSoC5/CyLib.c ****         }
 881:.\Generated_Source\PSoC5/CyLib.c ****         else
 882:.\Generated_Source\PSoC5/CyLib.c ****         {
 883:.\Generated_Source\PSoC5/CyLib.c ****             CyBusClk_Internal_SetDivider(divider);
 884:.\Generated_Source\PSoC5/CyLib.c ****             CLKDIST_BCFG2 &= ~CLKDIST_BCFG2_SSS_SET;
 885:.\Generated_Source\PSoC5/CyLib.c ****         }
 886:.\Generated_Source\PSoC5/CyLib.c **** 
 887:.\Generated_Source\PSoC5/CyLib.c ****         /* Restore the master clock */
 888:.\Generated_Source\PSoC5/CyLib.c ****         CyMasterClk_SetDivider(current_masterclk_divider);
 889:.\Generated_Source\PSoC5/CyLib.c ****     }
 890:.\Generated_Source\PSoC5/CyLib.c ****     else
 891:.\Generated_Source\PSoC5/CyLib.c ****     {
ARM GAS  C:\Users\SUZUKI~1\AppData\Local\Temp\ccy86h0S.s 			page 18


 892:.\Generated_Source\PSoC5/CyLib.c ****         CyBusClk_Internal_SetDivider(divider);
 893:.\Generated_Source\PSoC5/CyLib.c ****     }
 894:.\Generated_Source\PSoC5/CyLib.c **** }
 895:.\Generated_Source\PSoC5/CyLib.c **** 
 896:.\Generated_Source\PSoC5/CyLib.c **** 
 897:.\Generated_Source\PSoC5/CyLib.c **** #if(CY_PSOC3)
 898:.\Generated_Source\PSoC5/CyLib.c **** 
 899:.\Generated_Source\PSoC5/CyLib.c ****     /*******************************************************************************
 900:.\Generated_Source\PSoC5/CyLib.c ****     * Function Name: CyCpuClk_SetDivider
 901:.\Generated_Source\PSoC5/CyLib.c ****     ********************************************************************************
 902:.\Generated_Source\PSoC5/CyLib.c ****     *
 903:.\Generated_Source\PSoC5/CyLib.c ****     * Summary:
 904:.\Generated_Source\PSoC5/CyLib.c ****     *  Sets the divider value used to generate the CPU Clock. Only applicable for
 905:.\Generated_Source\PSoC5/CyLib.c ****     *  PSoC 3 parts.
 906:.\Generated_Source\PSoC5/CyLib.c ****     *
 907:.\Generated_Source\PSoC5/CyLib.c ****     * Parameters:
 908:.\Generated_Source\PSoC5/CyLib.c ****     *  divider: Valid range [0-15]. The clock will be divided by this value + 1.
 909:.\Generated_Source\PSoC5/CyLib.c ****     *  For example to divide by 2 this parameter should be set to 1.
 910:.\Generated_Source\PSoC5/CyLib.c ****     *
 911:.\Generated_Source\PSoC5/CyLib.c ****     * Return:
 912:.\Generated_Source\PSoC5/CyLib.c ****     *  None
 913:.\Generated_Source\PSoC5/CyLib.c ****     *
 914:.\Generated_Source\PSoC5/CyLib.c ****     * Side Effects:
 915:.\Generated_Source\PSoC5/CyLib.c ****     *  If as result of this function execution the CPU clock frequency is increased
 916:.\Generated_Source\PSoC5/CyLib.c ****     *  then the number of clock cycles the cache will wait before it samples data
 917:.\Generated_Source\PSoC5/CyLib.c ****     *  coming back from Flash must be adjusted by calling CyFlash_SetWaitCycles()
 918:.\Generated_Source\PSoC5/CyLib.c ****     *  with appropriate parameter. It can be optionally called if CPU clock
 919:.\Generated_Source\PSoC5/CyLib.c ****     *  frequency is lowered in order to improve CPU performance.
 920:.\Generated_Source\PSoC5/CyLib.c ****     *  See CyFlash_SetWaitCycles() description for more information.
 921:.\Generated_Source\PSoC5/CyLib.c ****     *
 922:.\Generated_Source\PSoC5/CyLib.c ****     *******************************************************************************/
 923:.\Generated_Source\PSoC5/CyLib.c ****     void CyCpuClk_SetDivider(uint8 divider) 
 924:.\Generated_Source\PSoC5/CyLib.c ****     {
 925:.\Generated_Source\PSoC5/CyLib.c ****             CLKDIST_MSTR1 = (CLKDIST_MSTR1 & CLKDIST_MSTR1_DIV_CLEAR) |
 926:.\Generated_Source\PSoC5/CyLib.c ****                                 (divider << CLKDIST_DIV_POSITION);
 927:.\Generated_Source\PSoC5/CyLib.c ****     }
 928:.\Generated_Source\PSoC5/CyLib.c **** 
 929:.\Generated_Source\PSoC5/CyLib.c **** #endif /* (CY_PSOC3) */
 930:.\Generated_Source\PSoC5/CyLib.c **** 
 931:.\Generated_Source\PSoC5/CyLib.c **** 
 932:.\Generated_Source\PSoC5/CyLib.c **** /*******************************************************************************
 933:.\Generated_Source\PSoC5/CyLib.c **** * Function Name: CyUsbClk_SetSource
 934:.\Generated_Source\PSoC5/CyLib.c **** ********************************************************************************
 935:.\Generated_Source\PSoC5/CyLib.c **** *
 936:.\Generated_Source\PSoC5/CyLib.c **** * Summary:
 937:.\Generated_Source\PSoC5/CyLib.c **** *  Sets the source of the USB clock.
 938:.\Generated_Source\PSoC5/CyLib.c **** *
 939:.\Generated_Source\PSoC5/CyLib.c **** * Parameters:
 940:.\Generated_Source\PSoC5/CyLib.c **** *  source: One of the four available USB clock sources
 941:.\Generated_Source\PSoC5/CyLib.c **** *             USB_CLK_IMO2X     - IMO 2x
 942:.\Generated_Source\PSoC5/CyLib.c **** *             USB_CLK_IMO       - IMO
 943:.\Generated_Source\PSoC5/CyLib.c **** *             USB_CLK_PLL       - PLL
 944:.\Generated_Source\PSoC5/CyLib.c **** *             USB_CLK_DSI       - DSI
 945:.\Generated_Source\PSoC5/CyLib.c **** *
 946:.\Generated_Source\PSoC5/CyLib.c **** * Return:
 947:.\Generated_Source\PSoC5/CyLib.c **** *  None
 948:.\Generated_Source\PSoC5/CyLib.c **** *
ARM GAS  C:\Users\SUZUKI~1\AppData\Local\Temp\ccy86h0S.s 			page 19


 949:.\Generated_Source\PSoC5/CyLib.c **** *******************************************************************************/
 950:.\Generated_Source\PSoC5/CyLib.c **** void CyUsbClk_SetSource(uint8 source) 
 951:.\Generated_Source\PSoC5/CyLib.c **** {
 952:.\Generated_Source\PSoC5/CyLib.c ****     CLKDIST_UCFG = (CLKDIST_UCFG & ~USB_CLKDIST_CONFIG_MASK) |
 953:.\Generated_Source\PSoC5/CyLib.c ****                         (USB_CLKDIST_CONFIG_MASK & source);
 954:.\Generated_Source\PSoC5/CyLib.c **** }
 955:.\Generated_Source\PSoC5/CyLib.c **** 
 956:.\Generated_Source\PSoC5/CyLib.c **** 
 957:.\Generated_Source\PSoC5/CyLib.c **** /*******************************************************************************
 958:.\Generated_Source\PSoC5/CyLib.c **** * Function Name: CyILO_Start1K
 959:.\Generated_Source\PSoC5/CyLib.c **** ********************************************************************************
 960:.\Generated_Source\PSoC5/CyLib.c **** *
 961:.\Generated_Source\PSoC5/CyLib.c **** * Summary:
 962:.\Generated_Source\PSoC5/CyLib.c **** *  Enables the ILO 1 KHz oscillator.
 963:.\Generated_Source\PSoC5/CyLib.c **** *
 964:.\Generated_Source\PSoC5/CyLib.c **** *  Note The ILO 1 KHz oscillator is always enabled by default, regardless of the
 965:.\Generated_Source\PSoC5/CyLib.c **** *  selection in the Clock Editor. Therefore, this API is only needed if the
 966:.\Generated_Source\PSoC5/CyLib.c **** *  oscillator was turned off manually.
 967:.\Generated_Source\PSoC5/CyLib.c **** *
 968:.\Generated_Source\PSoC5/CyLib.c **** * Parameters:
 969:.\Generated_Source\PSoC5/CyLib.c **** *  None
 970:.\Generated_Source\PSoC5/CyLib.c **** *
 971:.\Generated_Source\PSoC5/CyLib.c **** * Return:
 972:.\Generated_Source\PSoC5/CyLib.c **** *  None
 973:.\Generated_Source\PSoC5/CyLib.c **** *
 974:.\Generated_Source\PSoC5/CyLib.c **** *******************************************************************************/
 975:.\Generated_Source\PSoC5/CyLib.c **** void CyILO_Start1K(void) 
 976:.\Generated_Source\PSoC5/CyLib.c **** {
 977:.\Generated_Source\PSoC5/CyLib.c ****     /* Set the bit 1 of ILO RS */
 978:.\Generated_Source\PSoC5/CyLib.c ****     SLOWCLK_ILO_CR0 |= ILO_CONTROL_1KHZ_ON;
 979:.\Generated_Source\PSoC5/CyLib.c **** }
 980:.\Generated_Source\PSoC5/CyLib.c **** 
 981:.\Generated_Source\PSoC5/CyLib.c **** 
 982:.\Generated_Source\PSoC5/CyLib.c **** /*******************************************************************************
 983:.\Generated_Source\PSoC5/CyLib.c **** * Function Name: CyILO_Stop1K
 984:.\Generated_Source\PSoC5/CyLib.c **** ********************************************************************************
 985:.\Generated_Source\PSoC5/CyLib.c **** *
 986:.\Generated_Source\PSoC5/CyLib.c **** * Summary:
 987:.\Generated_Source\PSoC5/CyLib.c **** *  Disables the ILO 1 KHz oscillator.
 988:.\Generated_Source\PSoC5/CyLib.c **** *
 989:.\Generated_Source\PSoC5/CyLib.c **** *  Note The ILO 1 KHz oscillator must be enabled if Sleep or Hibernate low power
 990:.\Generated_Source\PSoC5/CyLib.c **** *  mode APIs are expected to be used. For more information, refer to the Power
 991:.\Generated_Source\PSoC5/CyLib.c **** *  Management section of this document.
 992:.\Generated_Source\PSoC5/CyLib.c **** *
 993:.\Generated_Source\PSoC5/CyLib.c **** * Parameters:
 994:.\Generated_Source\PSoC5/CyLib.c **** *  None
 995:.\Generated_Source\PSoC5/CyLib.c **** *
 996:.\Generated_Source\PSoC5/CyLib.c **** * Return:
 997:.\Generated_Source\PSoC5/CyLib.c **** *  None
 998:.\Generated_Source\PSoC5/CyLib.c **** *
 999:.\Generated_Source\PSoC5/CyLib.c **** * Side Effects:
1000:.\Generated_Source\PSoC5/CyLib.c **** *  PSoC5: Stopping the ILO 1 kHz could break the active WDT functionality.
1001:.\Generated_Source\PSoC5/CyLib.c **** *
1002:.\Generated_Source\PSoC5/CyLib.c **** *******************************************************************************/
1003:.\Generated_Source\PSoC5/CyLib.c **** void CyILO_Stop1K(void) 
1004:.\Generated_Source\PSoC5/CyLib.c **** {
1005:.\Generated_Source\PSoC5/CyLib.c ****     /* Clear the bit 1 of ILO RS */
ARM GAS  C:\Users\SUZUKI~1\AppData\Local\Temp\ccy86h0S.s 			page 20


1006:.\Generated_Source\PSoC5/CyLib.c ****     SLOWCLK_ILO_CR0 &= ~ILO_CONTROL_1KHZ_ON;
1007:.\Generated_Source\PSoC5/CyLib.c **** }
1008:.\Generated_Source\PSoC5/CyLib.c **** 
1009:.\Generated_Source\PSoC5/CyLib.c **** 
1010:.\Generated_Source\PSoC5/CyLib.c **** /*******************************************************************************
1011:.\Generated_Source\PSoC5/CyLib.c **** * Function Name: CyILO_Start100K
1012:.\Generated_Source\PSoC5/CyLib.c **** ********************************************************************************
1013:.\Generated_Source\PSoC5/CyLib.c **** *
1014:.\Generated_Source\PSoC5/CyLib.c **** * Summary:
1015:.\Generated_Source\PSoC5/CyLib.c **** *  Enables the ILO 100 KHz oscillator.
1016:.\Generated_Source\PSoC5/CyLib.c **** *
1017:.\Generated_Source\PSoC5/CyLib.c **** * Parameters:
1018:.\Generated_Source\PSoC5/CyLib.c **** *  None
1019:.\Generated_Source\PSoC5/CyLib.c **** *
1020:.\Generated_Source\PSoC5/CyLib.c **** * Return:
1021:.\Generated_Source\PSoC5/CyLib.c **** *  None
1022:.\Generated_Source\PSoC5/CyLib.c **** *
1023:.\Generated_Source\PSoC5/CyLib.c **** *******************************************************************************/
1024:.\Generated_Source\PSoC5/CyLib.c **** void CyILO_Start100K(void) 
1025:.\Generated_Source\PSoC5/CyLib.c **** {
1026:.\Generated_Source\PSoC5/CyLib.c ****     /* Set the bit 2 of ILO RS */
1027:.\Generated_Source\PSoC5/CyLib.c ****     SLOWCLK_ILO_CR0 |= ILO_CONTROL_100KHZ_ON;
1028:.\Generated_Source\PSoC5/CyLib.c **** }
1029:.\Generated_Source\PSoC5/CyLib.c **** 
1030:.\Generated_Source\PSoC5/CyLib.c **** 
1031:.\Generated_Source\PSoC5/CyLib.c **** /*******************************************************************************
1032:.\Generated_Source\PSoC5/CyLib.c **** * Function Name: CyILO_Stop100K
1033:.\Generated_Source\PSoC5/CyLib.c **** ********************************************************************************
1034:.\Generated_Source\PSoC5/CyLib.c **** *
1035:.\Generated_Source\PSoC5/CyLib.c **** * Summary:
1036:.\Generated_Source\PSoC5/CyLib.c **** *  Disables the ILO 100 KHz oscillator.
1037:.\Generated_Source\PSoC5/CyLib.c **** *
1038:.\Generated_Source\PSoC5/CyLib.c **** * Parameters:
1039:.\Generated_Source\PSoC5/CyLib.c **** *  None
1040:.\Generated_Source\PSoC5/CyLib.c **** *
1041:.\Generated_Source\PSoC5/CyLib.c **** * Return:
1042:.\Generated_Source\PSoC5/CyLib.c **** *  None
1043:.\Generated_Source\PSoC5/CyLib.c **** *
1044:.\Generated_Source\PSoC5/CyLib.c **** *******************************************************************************/
1045:.\Generated_Source\PSoC5/CyLib.c **** void CyILO_Stop100K(void) 
1046:.\Generated_Source\PSoC5/CyLib.c **** {
1047:.\Generated_Source\PSoC5/CyLib.c ****     /* Clear the bit 2 of ILO RS */
1048:.\Generated_Source\PSoC5/CyLib.c ****     SLOWCLK_ILO_CR0 &= ~ILO_CONTROL_100KHZ_ON;
1049:.\Generated_Source\PSoC5/CyLib.c **** }
1050:.\Generated_Source\PSoC5/CyLib.c **** 
1051:.\Generated_Source\PSoC5/CyLib.c **** 
1052:.\Generated_Source\PSoC5/CyLib.c **** /*******************************************************************************
1053:.\Generated_Source\PSoC5/CyLib.c **** * Function Name: CyILO_Enable33K
1054:.\Generated_Source\PSoC5/CyLib.c **** ********************************************************************************
1055:.\Generated_Source\PSoC5/CyLib.c **** *
1056:.\Generated_Source\PSoC5/CyLib.c **** * Summary:
1057:.\Generated_Source\PSoC5/CyLib.c **** *  Enables the ILO 33 KHz divider.
1058:.\Generated_Source\PSoC5/CyLib.c **** *
1059:.\Generated_Source\PSoC5/CyLib.c **** *  Note that the 33 KHz clock is generated from the 100 KHz oscillator,
1060:.\Generated_Source\PSoC5/CyLib.c **** *  so it must also be running in order to generate the 33 KHz output.
1061:.\Generated_Source\PSoC5/CyLib.c **** *
1062:.\Generated_Source\PSoC5/CyLib.c **** * Parameters:
ARM GAS  C:\Users\SUZUKI~1\AppData\Local\Temp\ccy86h0S.s 			page 21


1063:.\Generated_Source\PSoC5/CyLib.c **** *  None
1064:.\Generated_Source\PSoC5/CyLib.c **** *
1065:.\Generated_Source\PSoC5/CyLib.c **** * Return:
1066:.\Generated_Source\PSoC5/CyLib.c **** *  None
1067:.\Generated_Source\PSoC5/CyLib.c **** *
1068:.\Generated_Source\PSoC5/CyLib.c **** *******************************************************************************/
1069:.\Generated_Source\PSoC5/CyLib.c **** void CyILO_Enable33K(void) 
1070:.\Generated_Source\PSoC5/CyLib.c **** {
1071:.\Generated_Source\PSoC5/CyLib.c ****     /* Set the bit 5 of ILO RS */
1072:.\Generated_Source\PSoC5/CyLib.c ****     SLOWCLK_ILO_CR0 |= ILO_CONTROL_33KHZ_ON;
1073:.\Generated_Source\PSoC5/CyLib.c **** }
1074:.\Generated_Source\PSoC5/CyLib.c **** 
1075:.\Generated_Source\PSoC5/CyLib.c **** 
1076:.\Generated_Source\PSoC5/CyLib.c **** /*******************************************************************************
1077:.\Generated_Source\PSoC5/CyLib.c **** * Function Name: CyILO_Disable33K
1078:.\Generated_Source\PSoC5/CyLib.c **** ********************************************************************************
1079:.\Generated_Source\PSoC5/CyLib.c **** *
1080:.\Generated_Source\PSoC5/CyLib.c **** * Summary:
1081:.\Generated_Source\PSoC5/CyLib.c **** *  Disables the ILO 33 KHz divider.
1082:.\Generated_Source\PSoC5/CyLib.c **** *
1083:.\Generated_Source\PSoC5/CyLib.c **** *  Note that the 33 KHz clock is generated from the 100 KHz oscillator, but this
1084:.\Generated_Source\PSoC5/CyLib.c **** *  API does not disable the 100 KHz clock.
1085:.\Generated_Source\PSoC5/CyLib.c **** *
1086:.\Generated_Source\PSoC5/CyLib.c **** * Parameters:
1087:.\Generated_Source\PSoC5/CyLib.c **** *  None
1088:.\Generated_Source\PSoC5/CyLib.c **** *
1089:.\Generated_Source\PSoC5/CyLib.c **** * Return:
1090:.\Generated_Source\PSoC5/CyLib.c **** *  None
1091:.\Generated_Source\PSoC5/CyLib.c **** *
1092:.\Generated_Source\PSoC5/CyLib.c **** *******************************************************************************/
1093:.\Generated_Source\PSoC5/CyLib.c **** void CyILO_Disable33K(void) 
1094:.\Generated_Source\PSoC5/CyLib.c **** {
1095:.\Generated_Source\PSoC5/CyLib.c ****     /* Clear the bit 5 of ILO RS */
1096:.\Generated_Source\PSoC5/CyLib.c ****     SLOWCLK_ILO_CR0 &= ~ILO_CONTROL_33KHZ_ON;
1097:.\Generated_Source\PSoC5/CyLib.c **** }
1098:.\Generated_Source\PSoC5/CyLib.c **** 
1099:.\Generated_Source\PSoC5/CyLib.c **** 
1100:.\Generated_Source\PSoC5/CyLib.c **** /*******************************************************************************
1101:.\Generated_Source\PSoC5/CyLib.c **** * Function Name: CyILO_SetSource
1102:.\Generated_Source\PSoC5/CyLib.c **** ********************************************************************************
1103:.\Generated_Source\PSoC5/CyLib.c **** *
1104:.\Generated_Source\PSoC5/CyLib.c **** * Summary:
1105:.\Generated_Source\PSoC5/CyLib.c **** *  Sets the source of the clock output from the ILO block.
1106:.\Generated_Source\PSoC5/CyLib.c **** *
1107:.\Generated_Source\PSoC5/CyLib.c **** * Parameters:
1108:.\Generated_Source\PSoC5/CyLib.c **** *  source: One of the three available ILO output sources
1109:.\Generated_Source\PSoC5/CyLib.c **** *       Value        Define                Source
1110:.\Generated_Source\PSoC5/CyLib.c **** *       0            CY_ILO_SOURCE_100K    ILO 100 KHz
1111:.\Generated_Source\PSoC5/CyLib.c **** *       1            CY_ILO_SOURCE_33K     ILO 33 KHz
1112:.\Generated_Source\PSoC5/CyLib.c **** *       2            CY_ILO_SOURCE_1K      ILO 1 KHz
1113:.\Generated_Source\PSoC5/CyLib.c **** *
1114:.\Generated_Source\PSoC5/CyLib.c **** * Return:
1115:.\Generated_Source\PSoC5/CyLib.c **** *  None
1116:.\Generated_Source\PSoC5/CyLib.c **** *
1117:.\Generated_Source\PSoC5/CyLib.c **** *******************************************************************************/
1118:.\Generated_Source\PSoC5/CyLib.c **** void CyILO_SetSource(uint8 source) 
1119:.\Generated_Source\PSoC5/CyLib.c **** {
ARM GAS  C:\Users\SUZUKI~1\AppData\Local\Temp\ccy86h0S.s 			page 22


1120:.\Generated_Source\PSoC5/CyLib.c ****     CLKDIST_CR = (CLKDIST_CR & CY_ILO_SOURCE_BITS_CLEAR) |
1121:.\Generated_Source\PSoC5/CyLib.c ****                     ((source << 2) & ~CY_ILO_SOURCE_BITS_CLEAR);
1122:.\Generated_Source\PSoC5/CyLib.c **** }
1123:.\Generated_Source\PSoC5/CyLib.c **** 
1124:.\Generated_Source\PSoC5/CyLib.c **** 
1125:.\Generated_Source\PSoC5/CyLib.c **** /*******************************************************************************
1126:.\Generated_Source\PSoC5/CyLib.c **** * Function Name: CyILO_SetPowerMode
1127:.\Generated_Source\PSoC5/CyLib.c **** ********************************************************************************
1128:.\Generated_Source\PSoC5/CyLib.c **** *
1129:.\Generated_Source\PSoC5/CyLib.c **** * Summary:
1130:.\Generated_Source\PSoC5/CyLib.c **** *  Sets the power mode used by the ILO during power down. Allows for lower power
1131:.\Generated_Source\PSoC5/CyLib.c **** *  down power usage resulting in a slower startup time.
1132:.\Generated_Source\PSoC5/CyLib.c **** *
1133:.\Generated_Source\PSoC5/CyLib.c **** * Parameters:
1134:.\Generated_Source\PSoC5/CyLib.c **** *  uint8 mode
1135:.\Generated_Source\PSoC5/CyLib.c **** *   CY_ILO_FAST_START - Faster start-up, internal bias left on when powered down
1136:.\Generated_Source\PSoC5/CyLib.c **** *   CY_ILO_SLOW_START - Slower start-up, internal bias off when powered down
1137:.\Generated_Source\PSoC5/CyLib.c **** *
1138:.\Generated_Source\PSoC5/CyLib.c **** * Return:
1139:.\Generated_Source\PSoC5/CyLib.c **** *   Prevous power mode state.
1140:.\Generated_Source\PSoC5/CyLib.c **** *
1141:.\Generated_Source\PSoC5/CyLib.c **** *******************************************************************************/
1142:.\Generated_Source\PSoC5/CyLib.c **** uint8 CyILO_SetPowerMode(uint8 mode) 
1143:.\Generated_Source\PSoC5/CyLib.c **** {
1144:.\Generated_Source\PSoC5/CyLib.c ****     uint8 state;
1145:.\Generated_Source\PSoC5/CyLib.c **** 
1146:.\Generated_Source\PSoC5/CyLib.c ****     /* Get current state. */
1147:.\Generated_Source\PSoC5/CyLib.c ****     state = SLOWCLK_ILO_CR0;
1148:.\Generated_Source\PSoC5/CyLib.c **** 
1149:.\Generated_Source\PSoC5/CyLib.c ****     /* Set the the oscillator power mode. */
1150:.\Generated_Source\PSoC5/CyLib.c ****     if(mode != CY_ILO_FAST_START)
1151:.\Generated_Source\PSoC5/CyLib.c ****     {
1152:.\Generated_Source\PSoC5/CyLib.c ****         SLOWCLK_ILO_CR0 = (state | ILO_CONTROL_PD_MODE);
1153:.\Generated_Source\PSoC5/CyLib.c ****     }
1154:.\Generated_Source\PSoC5/CyLib.c ****     else
1155:.\Generated_Source\PSoC5/CyLib.c ****     {
1156:.\Generated_Source\PSoC5/CyLib.c ****         SLOWCLK_ILO_CR0 = (state & ~ILO_CONTROL_PD_MODE);
1157:.\Generated_Source\PSoC5/CyLib.c ****     }
1158:.\Generated_Source\PSoC5/CyLib.c **** 
1159:.\Generated_Source\PSoC5/CyLib.c ****     /* Return the old mode. */
1160:.\Generated_Source\PSoC5/CyLib.c ****     return ((state & ILO_CONTROL_PD_MODE) >> ILO_CONTROL_PD_POSITION);
1161:.\Generated_Source\PSoC5/CyLib.c **** }
1162:.\Generated_Source\PSoC5/CyLib.c **** 
1163:.\Generated_Source\PSoC5/CyLib.c **** 
1164:.\Generated_Source\PSoC5/CyLib.c **** /*******************************************************************************
1165:.\Generated_Source\PSoC5/CyLib.c **** * Function Name: CyXTAL_32KHZ_Start
1166:.\Generated_Source\PSoC5/CyLib.c **** ********************************************************************************
1167:.\Generated_Source\PSoC5/CyLib.c **** *
1168:.\Generated_Source\PSoC5/CyLib.c **** * Summary:
1169:.\Generated_Source\PSoC5/CyLib.c **** *  Enables the 32 KHz Crystal Oscillator.
1170:.\Generated_Source\PSoC5/CyLib.c **** *
1171:.\Generated_Source\PSoC5/CyLib.c **** * Parameters:
1172:.\Generated_Source\PSoC5/CyLib.c **** *  None
1173:.\Generated_Source\PSoC5/CyLib.c **** *
1174:.\Generated_Source\PSoC5/CyLib.c **** * Return:
1175:.\Generated_Source\PSoC5/CyLib.c **** *  None
1176:.\Generated_Source\PSoC5/CyLib.c **** *
ARM GAS  C:\Users\SUZUKI~1\AppData\Local\Temp\ccy86h0S.s 			page 23


1177:.\Generated_Source\PSoC5/CyLib.c **** *******************************************************************************/
1178:.\Generated_Source\PSoC5/CyLib.c **** void CyXTAL_32KHZ_Start(void) 
1179:.\Generated_Source\PSoC5/CyLib.c **** {
1180:.\Generated_Source\PSoC5/CyLib.c ****     volatile uint32 i;
1181:.\Generated_Source\PSoC5/CyLib.c **** 
1182:.\Generated_Source\PSoC5/CyLib.c ****     CY_CLK_XTAL32_TST_REG = CY_CLK_XTAL32_TST_DEFAULT;
1183:.\Generated_Source\PSoC5/CyLib.c ****     CY_CLK_XTAL32_TR_REG  = CY_CLK_XTAL32_TR_STARTUP;
1184:.\Generated_Source\PSoC5/CyLib.c ****     CY_CLK_XTAL32_CFG_REG = (CY_CLK_XTAL32_CFG_REG & ~CY_CLK_XTAL32_CFG_LP_MASK) | CY_CLK_XTAL32_CF
1185:.\Generated_Source\PSoC5/CyLib.c **** 
1186:.\Generated_Source\PSoC5/CyLib.c ****     #if(CY_PSOC3)
1187:.\Generated_Source\PSoC5/CyLib.c ****         CY_CLK_XTAL32_CR_REG |= CY_CLK_XTAL32_CR_PDBEN;
1188:.\Generated_Source\PSoC5/CyLib.c ****     #endif  /* (CY_PSOC3) */
1189:.\Generated_Source\PSoC5/CyLib.c **** 
1190:.\Generated_Source\PSoC5/CyLib.c ****     /* Enable operation of the 32K Crystal Oscillator */
1191:.\Generated_Source\PSoC5/CyLib.c ****     CY_CLK_XTAL32_CR_REG |= CY_CLK_XTAL32_CR_EN;
1192:.\Generated_Source\PSoC5/CyLib.c **** 
1193:.\Generated_Source\PSoC5/CyLib.c ****     for (i = 1000u; i > 0u; i--)
1194:.\Generated_Source\PSoC5/CyLib.c ****     {
1195:.\Generated_Source\PSoC5/CyLib.c ****         if(0u != (CyXTAL_32KHZ_ReadStatus() & CY_XTAL32K_ANA_STAT))
1196:.\Generated_Source\PSoC5/CyLib.c ****         {
1197:.\Generated_Source\PSoC5/CyLib.c ****             /* Ready - switch to the hign power mode */
1198:.\Generated_Source\PSoC5/CyLib.c ****             (void) CyXTAL_32KHZ_SetPowerMode(0u);
1199:.\Generated_Source\PSoC5/CyLib.c **** 
1200:.\Generated_Source\PSoC5/CyLib.c ****             break;
1201:.\Generated_Source\PSoC5/CyLib.c ****         }
1202:.\Generated_Source\PSoC5/CyLib.c ****         CyDelayUs(1u);
1203:.\Generated_Source\PSoC5/CyLib.c ****     }
1204:.\Generated_Source\PSoC5/CyLib.c **** }
1205:.\Generated_Source\PSoC5/CyLib.c **** 
1206:.\Generated_Source\PSoC5/CyLib.c **** 
1207:.\Generated_Source\PSoC5/CyLib.c **** /*******************************************************************************
1208:.\Generated_Source\PSoC5/CyLib.c **** * Function Name: CyXTAL_32KHZ_Stop
1209:.\Generated_Source\PSoC5/CyLib.c **** ********************************************************************************
1210:.\Generated_Source\PSoC5/CyLib.c **** *
1211:.\Generated_Source\PSoC5/CyLib.c **** * Summary:
1212:.\Generated_Source\PSoC5/CyLib.c **** *  Disables the 32KHz Crystal Oscillator.
1213:.\Generated_Source\PSoC5/CyLib.c **** *
1214:.\Generated_Source\PSoC5/CyLib.c **** * Parameters:
1215:.\Generated_Source\PSoC5/CyLib.c **** *  None
1216:.\Generated_Source\PSoC5/CyLib.c **** *
1217:.\Generated_Source\PSoC5/CyLib.c **** * Return:
1218:.\Generated_Source\PSoC5/CyLib.c **** *  None
1219:.\Generated_Source\PSoC5/CyLib.c **** *
1220:.\Generated_Source\PSoC5/CyLib.c **** *******************************************************************************/
1221:.\Generated_Source\PSoC5/CyLib.c **** void CyXTAL_32KHZ_Stop(void) 
1222:.\Generated_Source\PSoC5/CyLib.c **** {
1223:.\Generated_Source\PSoC5/CyLib.c ****     CY_CLK_XTAL32_TST_REG  = CY_CLK_XTAL32_TST_DEFAULT;
1224:.\Generated_Source\PSoC5/CyLib.c ****     CY_CLK_XTAL32_TR_REG   = CY_CLK_XTAL32_TR_POWERDOWN;
1225:.\Generated_Source\PSoC5/CyLib.c ****     CY_CLK_XTAL32_CFG_REG = (CY_CLK_XTAL32_CFG_REG & ~CY_CLK_XTAL32_CFG_LP_MASK) | CY_CLK_XTAL32_CF
1226:.\Generated_Source\PSoC5/CyLib.c ****     CY_CLK_XTAL32_CR_REG &= ~(CY_CLK_XTAL32_CR_EN | CY_CLK_XTAL32_CR_LPM);
1227:.\Generated_Source\PSoC5/CyLib.c **** 
1228:.\Generated_Source\PSoC5/CyLib.c ****     #if(CY_PSOC3)
1229:.\Generated_Source\PSoC5/CyLib.c ****         CY_CLK_XTAL32_CR_REG &= ~CY_CLK_XTAL32_CR_PDBEN;
1230:.\Generated_Source\PSoC5/CyLib.c ****     #endif  /* (CY_PSOC3) */
1231:.\Generated_Source\PSoC5/CyLib.c **** }
1232:.\Generated_Source\PSoC5/CyLib.c **** 
1233:.\Generated_Source\PSoC5/CyLib.c **** 
ARM GAS  C:\Users\SUZUKI~1\AppData\Local\Temp\ccy86h0S.s 			page 24


1234:.\Generated_Source\PSoC5/CyLib.c **** /*******************************************************************************
1235:.\Generated_Source\PSoC5/CyLib.c **** * Function Name: CyXTAL_32KHZ_ReadStatus
1236:.\Generated_Source\PSoC5/CyLib.c **** ********************************************************************************
1237:.\Generated_Source\PSoC5/CyLib.c **** *
1238:.\Generated_Source\PSoC5/CyLib.c **** * Summary:
1239:.\Generated_Source\PSoC5/CyLib.c **** *  Returns status of the 32 KHz oscillator.
1240:.\Generated_Source\PSoC5/CyLib.c **** *
1241:.\Generated_Source\PSoC5/CyLib.c **** * Parameters:
1242:.\Generated_Source\PSoC5/CyLib.c **** *  None
1243:.\Generated_Source\PSoC5/CyLib.c **** *
1244:.\Generated_Source\PSoC5/CyLib.c **** * Return:
1245:.\Generated_Source\PSoC5/CyLib.c **** *  Value     Define                    Source
1246:.\Generated_Source\PSoC5/CyLib.c **** *  20        CY_XTAL32K_ANA_STAT       Analog measurement
1247:.\Generated_Source\PSoC5/CyLib.c **** *                                       1: Stable
1248:.\Generated_Source\PSoC5/CyLib.c **** *                                       0: Not stable
1249:.\Generated_Source\PSoC5/CyLib.c **** *
1250:.\Generated_Source\PSoC5/CyLib.c **** *******************************************************************************/
1251:.\Generated_Source\PSoC5/CyLib.c **** uint8 CyXTAL_32KHZ_ReadStatus(void) 
1252:.\Generated_Source\PSoC5/CyLib.c **** {
1253:.\Generated_Source\PSoC5/CyLib.c ****     return(CY_CLK_XTAL32_CR_REG & CY_XTAL32K_ANA_STAT);
1254:.\Generated_Source\PSoC5/CyLib.c **** }
1255:.\Generated_Source\PSoC5/CyLib.c **** 
1256:.\Generated_Source\PSoC5/CyLib.c **** 
1257:.\Generated_Source\PSoC5/CyLib.c **** /*******************************************************************************
1258:.\Generated_Source\PSoC5/CyLib.c **** * Function Name: CyXTAL_32KHZ_SetPowerMode
1259:.\Generated_Source\PSoC5/CyLib.c **** ********************************************************************************
1260:.\Generated_Source\PSoC5/CyLib.c **** *
1261:.\Generated_Source\PSoC5/CyLib.c **** * Summary:
1262:.\Generated_Source\PSoC5/CyLib.c **** *  Sets the power mode for the 32 KHz oscillator used during sleep mode.
1263:.\Generated_Source\PSoC5/CyLib.c **** *  Allows for lower power during sleep when there are fewer sources of noise.
1264:.\Generated_Source\PSoC5/CyLib.c **** *  During active mode the oscillator is always run in high power mode.
1265:.\Generated_Source\PSoC5/CyLib.c **** *
1266:.\Generated_Source\PSoC5/CyLib.c **** * Parameters:
1267:.\Generated_Source\PSoC5/CyLib.c **** *  uint8 mode
1268:.\Generated_Source\PSoC5/CyLib.c **** *       0: High power mode
1269:.\Generated_Source\PSoC5/CyLib.c **** *       1: Low power mode during sleep
1270:.\Generated_Source\PSoC5/CyLib.c **** *
1271:.\Generated_Source\PSoC5/CyLib.c **** * Return:
1272:.\Generated_Source\PSoC5/CyLib.c **** *  Previous power mode.
1273:.\Generated_Source\PSoC5/CyLib.c **** *
1274:.\Generated_Source\PSoC5/CyLib.c **** *******************************************************************************/
1275:.\Generated_Source\PSoC5/CyLib.c **** uint8 CyXTAL_32KHZ_SetPowerMode(uint8 mode) 
1276:.\Generated_Source\PSoC5/CyLib.c **** {
1277:.\Generated_Source\PSoC5/CyLib.c ****     uint8 state = (0u != (CY_CLK_XTAL32_CR_REG & CY_CLK_XTAL32_CR_LPM)) ? 1u : 0u;
1278:.\Generated_Source\PSoC5/CyLib.c **** 
1279:.\Generated_Source\PSoC5/CyLib.c ****     CY_CLK_XTAL32_TST_REG = CY_CLK_XTAL32_TST_DEFAULT;
1280:.\Generated_Source\PSoC5/CyLib.c **** 
1281:.\Generated_Source\PSoC5/CyLib.c ****     if(1u == mode)
1282:.\Generated_Source\PSoC5/CyLib.c ****     {
1283:.\Generated_Source\PSoC5/CyLib.c ****         /* Low power mode during Sleep */
1284:.\Generated_Source\PSoC5/CyLib.c ****         CY_CLK_XTAL32_TR_REG  = CY_CLK_XTAL32_TR_LOW_POWER;
1285:.\Generated_Source\PSoC5/CyLib.c ****         CyDelayUs(10u);
1286:.\Generated_Source\PSoC5/CyLib.c ****         CY_CLK_XTAL32_CFG_REG = (CY_CLK_XTAL32_CFG_REG & ~CY_CLK_XTAL32_CFG_LP_MASK) | CY_CLK_XTAL3
1287:.\Generated_Source\PSoC5/CyLib.c ****         CyDelayUs(20u);
1288:.\Generated_Source\PSoC5/CyLib.c ****         CY_CLK_XTAL32_CR_REG |= CY_CLK_XTAL32_CR_LPM;
1289:.\Generated_Source\PSoC5/CyLib.c ****     }
1290:.\Generated_Source\PSoC5/CyLib.c ****     else
ARM GAS  C:\Users\SUZUKI~1\AppData\Local\Temp\ccy86h0S.s 			page 25


1291:.\Generated_Source\PSoC5/CyLib.c ****     {
1292:.\Generated_Source\PSoC5/CyLib.c ****         /* High power mode */
1293:.\Generated_Source\PSoC5/CyLib.c ****         CY_CLK_XTAL32_TR_REG  = CY_CLK_XTAL32_TR_HIGH_POWER;
1294:.\Generated_Source\PSoC5/CyLib.c ****         CyDelayUs(10u);
1295:.\Generated_Source\PSoC5/CyLib.c ****         CY_CLK_XTAL32_CFG_REG = (CY_CLK_XTAL32_CFG_REG & ~CY_CLK_XTAL32_CFG_LP_MASK) | CY_CLK_XTAL3
1296:.\Generated_Source\PSoC5/CyLib.c ****         CY_CLK_XTAL32_CR_REG &= ~CY_CLK_XTAL32_CR_LPM;
1297:.\Generated_Source\PSoC5/CyLib.c ****     }
1298:.\Generated_Source\PSoC5/CyLib.c **** 
1299:.\Generated_Source\PSoC5/CyLib.c ****     return(state);
1300:.\Generated_Source\PSoC5/CyLib.c **** }
1301:.\Generated_Source\PSoC5/CyLib.c **** 
1302:.\Generated_Source\PSoC5/CyLib.c **** 
1303:.\Generated_Source\PSoC5/CyLib.c **** /*******************************************************************************
1304:.\Generated_Source\PSoC5/CyLib.c **** * Function Name: CyXTAL_Start
1305:.\Generated_Source\PSoC5/CyLib.c **** ********************************************************************************
1306:.\Generated_Source\PSoC5/CyLib.c **** *
1307:.\Generated_Source\PSoC5/CyLib.c **** * Summary:
1308:.\Generated_Source\PSoC5/CyLib.c **** *  Enables the megahertz crystal.
1309:.\Generated_Source\PSoC5/CyLib.c **** *
1310:.\Generated_Source\PSoC5/CyLib.c **** *  PSoC3:
1311:.\Generated_Source\PSoC5/CyLib.c **** *  Waits until the XERR bit is low (no error) for a millisecond or until the
1312:.\Generated_Source\PSoC5/CyLib.c **** *  number of milliseconds specified by the wait parameter has expired.
1313:.\Generated_Source\PSoC5/CyLib.c **** *
1314:.\Generated_Source\PSoC5/CyLib.c **** *  PSoC5:
1315:.\Generated_Source\PSoC5/CyLib.c **** *  Waits for CY_CLK_XMHZ_MIN_TIMEOUT milliseconds (or number of milliseconds
1316:.\Generated_Source\PSoC5/CyLib.c **** *  specified by parameter if it is greater than CY_CLK_XMHZ_MIN_TIMEOUT. The
1317:.\Generated_Source\PSoC5/CyLib.c **** *  XERR bit status is not checked.
1318:.\Generated_Source\PSoC5/CyLib.c **** *
1319:.\Generated_Source\PSoC5/CyLib.c **** * Parameters:
1320:.\Generated_Source\PSoC5/CyLib.c **** *   wait: Valid range [0-255].
1321:.\Generated_Source\PSoC5/CyLib.c **** *   This is the timeout value in milliseconds.
1322:.\Generated_Source\PSoC5/CyLib.c **** *   The appropriate value is crystal specific.
1323:.\Generated_Source\PSoC5/CyLib.c **** *
1324:.\Generated_Source\PSoC5/CyLib.c **** * Return:
1325:.\Generated_Source\PSoC5/CyLib.c **** *   CYRET_SUCCESS - Completed successfully
1326:.\Generated_Source\PSoC5/CyLib.c **** *   CYRET_TIMEOUT - Timeout occurred without detecting a low value on XERR.
1327:.\Generated_Source\PSoC5/CyLib.c **** *
1328:.\Generated_Source\PSoC5/CyLib.c **** * Side Effects and Restrictions:
1329:.\Generated_Source\PSoC5/CyLib.c **** *  If wait is enabled (non-zero wait). Uses the Fast Timewheel to time the wait.
1330:.\Generated_Source\PSoC5/CyLib.c **** *  Any other use of the Fast Timewheel (FTW) will be stopped during the period
1331:.\Generated_Source\PSoC5/CyLib.c **** *  of this function and then restored.
1332:.\Generated_Source\PSoC5/CyLib.c **** *
1333:.\Generated_Source\PSoC5/CyLib.c **** *  Uses the 100KHz ILO.  If not enabled, this function will enable the 100KHz
1334:.\Generated_Source\PSoC5/CyLib.c **** *  ILO for the period of this function. No changes to the setup of the ILO,
1335:.\Generated_Source\PSoC5/CyLib.c **** *  Fast Timewheel, Central Timewheel or Once Per Second interrupt may be made
1336:.\Generated_Source\PSoC5/CyLib.c **** *  by interrupt routines during the period of this function.
1337:.\Generated_Source\PSoC5/CyLib.c **** *
1338:.\Generated_Source\PSoC5/CyLib.c **** *  The current operation of the ILO, Central Timewheel and Once Per Second
1339:.\Generated_Source\PSoC5/CyLib.c **** *  interrupt are maintained during the operation of this function provided the
1340:.\Generated_Source\PSoC5/CyLib.c **** *  reading of the Power Manager Interrupt Status Register is only done using the
1341:.\Generated_Source\PSoC5/CyLib.c **** *  CyPmReadStatus() function.
1342:.\Generated_Source\PSoC5/CyLib.c **** *
1343:.\Generated_Source\PSoC5/CyLib.c **** *******************************************************************************/
1344:.\Generated_Source\PSoC5/CyLib.c **** cystatus CyXTAL_Start(uint8 wait) 
1345:.\Generated_Source\PSoC5/CyLib.c **** {
1346:.\Generated_Source\PSoC5/CyLib.c ****     cystatus status = CYRET_SUCCESS;
1347:.\Generated_Source\PSoC5/CyLib.c **** 
ARM GAS  C:\Users\SUZUKI~1\AppData\Local\Temp\ccy86h0S.s 			page 26


1348:.\Generated_Source\PSoC5/CyLib.c ****     #if(CY_PSOC5A)
1349:.\Generated_Source\PSoC5/CyLib.c ****         volatile uint8  timeout = (wait < CY_CLK_XMHZ_MIN_TIMEOUT) ? CY_CLK_XMHZ_MIN_TIMEOUT : wait
1350:.\Generated_Source\PSoC5/CyLib.c ****     #else
1351:.\Generated_Source\PSoC5/CyLib.c ****         volatile uint8  timeout = wait;
1352:.\Generated_Source\PSoC5/CyLib.c ****     #endif  /* (CY_PSOC5A) */
1353:.\Generated_Source\PSoC5/CyLib.c **** 
1354:.\Generated_Source\PSoC5/CyLib.c ****     volatile uint8 count;
1355:.\Generated_Source\PSoC5/CyLib.c ****     uint8 iloEnableState;
1356:.\Generated_Source\PSoC5/CyLib.c ****     uint8 pmTwCfg0;
1357:.\Generated_Source\PSoC5/CyLib.c ****     uint8 pmTwCfg2;
1358:.\Generated_Source\PSoC5/CyLib.c **** 
1359:.\Generated_Source\PSoC5/CyLib.c **** 
1360:.\Generated_Source\PSoC5/CyLib.c ****     /* Enables the MHz crystal oscillator circuit  */
1361:.\Generated_Source\PSoC5/CyLib.c ****     CY_CLK_XMHZ_CSR_REG |= CY_CLK_XMHZ_CSR_ENABLE;
1362:.\Generated_Source\PSoC5/CyLib.c **** 
1363:.\Generated_Source\PSoC5/CyLib.c **** 
1364:.\Generated_Source\PSoC5/CyLib.c ****     if(wait > 0)
1365:.\Generated_Source\PSoC5/CyLib.c ****     {
1366:.\Generated_Source\PSoC5/CyLib.c ****         /* Save 100 KHz ILO, FTW interval, enable and interrupt enable */
1367:.\Generated_Source\PSoC5/CyLib.c ****         iloEnableState = SLOWCLK_ILO_CR0;
1368:.\Generated_Source\PSoC5/CyLib.c ****         pmTwCfg0 = CY_PM_TW_CFG0_REG;
1369:.\Generated_Source\PSoC5/CyLib.c ****         pmTwCfg2 = CY_PM_TW_CFG2_REG;
1370:.\Generated_Source\PSoC5/CyLib.c **** 
1371:.\Generated_Source\PSoC5/CyLib.c ****         /* Set 250 us interval */
1372:.\Generated_Source\PSoC5/CyLib.c ****         CyPmFtwSetInterval(CY_CLK_XMHZ_FTW_INTERVAL);
1373:.\Generated_Source\PSoC5/CyLib.c ****         status = CYRET_TIMEOUT;
1374:.\Generated_Source\PSoC5/CyLib.c **** 
1375:.\Generated_Source\PSoC5/CyLib.c **** 
1376:.\Generated_Source\PSoC5/CyLib.c ****         for( ; timeout > 0; timeout--)
1377:.\Generated_Source\PSoC5/CyLib.c ****         {
1378:.\Generated_Source\PSoC5/CyLib.c ****             #if(!CY_PSOC5A)
1379:.\Generated_Source\PSoC5/CyLib.c **** 
1380:.\Generated_Source\PSoC5/CyLib.c ****                 /* Read XERR bit to clear it */
1381:.\Generated_Source\PSoC5/CyLib.c ****                 (void) CY_CLK_XMHZ_CSR_REG;
1382:.\Generated_Source\PSoC5/CyLib.c **** 
1383:.\Generated_Source\PSoC5/CyLib.c ****             #endif  /* (!CY_PSOC5A) */
1384:.\Generated_Source\PSoC5/CyLib.c **** 
1385:.\Generated_Source\PSoC5/CyLib.c **** 
1386:.\Generated_Source\PSoC5/CyLib.c ****             /* Wait for a millisecond - 4 x 250 us */
1387:.\Generated_Source\PSoC5/CyLib.c ****             for(count = 4u; count > 0u; count--)
1388:.\Generated_Source\PSoC5/CyLib.c ****             {
1389:.\Generated_Source\PSoC5/CyLib.c ****                 while(!(CY_PM_FTW_INT == CyPmReadStatus(CY_PM_FTW_INT)))
1390:.\Generated_Source\PSoC5/CyLib.c ****                 {
1391:.\Generated_Source\PSoC5/CyLib.c ****                     /* Wait for the FTW interrupt event */
1392:.\Generated_Source\PSoC5/CyLib.c ****                 }
1393:.\Generated_Source\PSoC5/CyLib.c ****             }
1394:.\Generated_Source\PSoC5/CyLib.c **** 
1395:.\Generated_Source\PSoC5/CyLib.c **** 
1396:.\Generated_Source\PSoC5/CyLib.c ****             #if(!CY_PSOC5A)
1397:.\Generated_Source\PSoC5/CyLib.c **** 
1398:.\Generated_Source\PSoC5/CyLib.c ****                 /*******************************************************************
1399:.\Generated_Source\PSoC5/CyLib.c ****                 * High output indicates oscillator failure.
1400:.\Generated_Source\PSoC5/CyLib.c ****                 * Only can be used after start-up interval (1 ms) is completed.
1401:.\Generated_Source\PSoC5/CyLib.c ****                 *******************************************************************/
1402:.\Generated_Source\PSoC5/CyLib.c ****                 if(0u == (CY_CLK_XMHZ_CSR_REG & CY_CLK_XMHZ_CSR_XERR))
1403:.\Generated_Source\PSoC5/CyLib.c ****                 {
1404:.\Generated_Source\PSoC5/CyLib.c ****                     status = CYRET_SUCCESS;
ARM GAS  C:\Users\SUZUKI~1\AppData\Local\Temp\ccy86h0S.s 			page 27


1405:.\Generated_Source\PSoC5/CyLib.c ****                     break;
1406:.\Generated_Source\PSoC5/CyLib.c ****                 }
1407:.\Generated_Source\PSoC5/CyLib.c **** 
1408:.\Generated_Source\PSoC5/CyLib.c ****             #endif  /* (!CY_PSOC5A) */
1409:.\Generated_Source\PSoC5/CyLib.c ****         }
1410:.\Generated_Source\PSoC5/CyLib.c **** 
1411:.\Generated_Source\PSoC5/CyLib.c **** 
1412:.\Generated_Source\PSoC5/CyLib.c ****         /* Restore 100 KHz ILO, FTW interval, enable and interrupt enable */
1413:.\Generated_Source\PSoC5/CyLib.c ****         if(0u == (iloEnableState & ILO_CONTROL_100KHZ_ON))
1414:.\Generated_Source\PSoC5/CyLib.c ****         {
1415:.\Generated_Source\PSoC5/CyLib.c ****             CyILO_Stop100K();
1416:.\Generated_Source\PSoC5/CyLib.c ****         }
1417:.\Generated_Source\PSoC5/CyLib.c ****         CY_PM_TW_CFG0_REG = pmTwCfg0;
1418:.\Generated_Source\PSoC5/CyLib.c ****         CY_PM_TW_CFG2_REG = pmTwCfg2;
1419:.\Generated_Source\PSoC5/CyLib.c ****     }
1420:.\Generated_Source\PSoC5/CyLib.c **** 
1421:.\Generated_Source\PSoC5/CyLib.c ****     return(status);
1422:.\Generated_Source\PSoC5/CyLib.c **** }
1423:.\Generated_Source\PSoC5/CyLib.c **** 
1424:.\Generated_Source\PSoC5/CyLib.c **** 
1425:.\Generated_Source\PSoC5/CyLib.c **** /*******************************************************************************
1426:.\Generated_Source\PSoC5/CyLib.c **** * Function Name: CyXTAL_Stop
1427:.\Generated_Source\PSoC5/CyLib.c **** ********************************************************************************
1428:.\Generated_Source\PSoC5/CyLib.c **** *
1429:.\Generated_Source\PSoC5/CyLib.c **** * Summary:
1430:.\Generated_Source\PSoC5/CyLib.c **** *  Disables the megahertz crystal oscillator.
1431:.\Generated_Source\PSoC5/CyLib.c **** *
1432:.\Generated_Source\PSoC5/CyLib.c **** * Parameters:
1433:.\Generated_Source\PSoC5/CyLib.c **** *  None
1434:.\Generated_Source\PSoC5/CyLib.c **** *
1435:.\Generated_Source\PSoC5/CyLib.c **** * Return:
1436:.\Generated_Source\PSoC5/CyLib.c **** *  None
1437:.\Generated_Source\PSoC5/CyLib.c **** *
1438:.\Generated_Source\PSoC5/CyLib.c **** *******************************************************************************/
1439:.\Generated_Source\PSoC5/CyLib.c **** void CyXTAL_Stop(void) 
1440:.\Generated_Source\PSoC5/CyLib.c **** {
1441:.\Generated_Source\PSoC5/CyLib.c ****     /* Disable the the oscillator. */
1442:.\Generated_Source\PSoC5/CyLib.c ****     FASTCLK_XMHZ_CSR &= ~XMHZ_CONTROL_ENABLE;
1443:.\Generated_Source\PSoC5/CyLib.c **** }
1444:.\Generated_Source\PSoC5/CyLib.c **** 
1445:.\Generated_Source\PSoC5/CyLib.c **** 
1446:.\Generated_Source\PSoC5/CyLib.c **** #if(!CY_PSOC5A)
1447:.\Generated_Source\PSoC5/CyLib.c **** 
1448:.\Generated_Source\PSoC5/CyLib.c ****     /*******************************************************************************
1449:.\Generated_Source\PSoC5/CyLib.c ****     * Function Name: CyXTAL_EnableErrStatus
1450:.\Generated_Source\PSoC5/CyLib.c ****     ********************************************************************************
1451:.\Generated_Source\PSoC5/CyLib.c ****     *
1452:.\Generated_Source\PSoC5/CyLib.c ****     * Summary:
1453:.\Generated_Source\PSoC5/CyLib.c ****     *  Enables the generation of the XERR status bit for the megahertz crystal.
1454:.\Generated_Source\PSoC5/CyLib.c ****     *  This function is not available for PSoC5.
1455:.\Generated_Source\PSoC5/CyLib.c ****     *
1456:.\Generated_Source\PSoC5/CyLib.c ****     * Parameters:
1457:.\Generated_Source\PSoC5/CyLib.c ****     *  None
1458:.\Generated_Source\PSoC5/CyLib.c ****     *
1459:.\Generated_Source\PSoC5/CyLib.c ****     * Return:
1460:.\Generated_Source\PSoC5/CyLib.c ****     *  None
1461:.\Generated_Source\PSoC5/CyLib.c ****     *
ARM GAS  C:\Users\SUZUKI~1\AppData\Local\Temp\ccy86h0S.s 			page 28


1462:.\Generated_Source\PSoC5/CyLib.c ****     *******************************************************************************/
1463:.\Generated_Source\PSoC5/CyLib.c ****     void CyXTAL_EnableErrStatus(void) 
1464:.\Generated_Source\PSoC5/CyLib.c ****     {
1465:.\Generated_Source\PSoC5/CyLib.c ****         /* If oscillator has insufficient amplitude, XERR bit will be high. */
1466:.\Generated_Source\PSoC5/CyLib.c ****         CY_CLK_XMHZ_CSR_REG &= ~CY_CLK_XMHZ_CSR_XFB;
1467:.\Generated_Source\PSoC5/CyLib.c ****     }
1468:.\Generated_Source\PSoC5/CyLib.c **** 
1469:.\Generated_Source\PSoC5/CyLib.c **** 
1470:.\Generated_Source\PSoC5/CyLib.c ****     /*******************************************************************************
1471:.\Generated_Source\PSoC5/CyLib.c ****     * Function Name: CyXTAL_DisableErrStatus
1472:.\Generated_Source\PSoC5/CyLib.c ****     ********************************************************************************
1473:.\Generated_Source\PSoC5/CyLib.c ****     *
1474:.\Generated_Source\PSoC5/CyLib.c ****     * Summary:
1475:.\Generated_Source\PSoC5/CyLib.c ****     *  Disables the generation of the XERR status bit for the megahertz crystal.
1476:.\Generated_Source\PSoC5/CyLib.c ****     *  This function is not available for PSoC5.
1477:.\Generated_Source\PSoC5/CyLib.c ****     *
1478:.\Generated_Source\PSoC5/CyLib.c ****     * Parameters:
1479:.\Generated_Source\PSoC5/CyLib.c ****     *  None
1480:.\Generated_Source\PSoC5/CyLib.c ****     *
1481:.\Generated_Source\PSoC5/CyLib.c ****     * Return:
1482:.\Generated_Source\PSoC5/CyLib.c ****     *  None
1483:.\Generated_Source\PSoC5/CyLib.c ****     *
1484:.\Generated_Source\PSoC5/CyLib.c ****     *******************************************************************************/
1485:.\Generated_Source\PSoC5/CyLib.c ****     void CyXTAL_DisableErrStatus(void) 
1486:.\Generated_Source\PSoC5/CyLib.c ****     {
1487:.\Generated_Source\PSoC5/CyLib.c ****         /* If oscillator has insufficient amplitude, XERR bit will be high. */
1488:.\Generated_Source\PSoC5/CyLib.c ****         CY_CLK_XMHZ_CSR_REG |= CY_CLK_XMHZ_CSR_XFB;
1489:.\Generated_Source\PSoC5/CyLib.c ****     }
1490:.\Generated_Source\PSoC5/CyLib.c **** 
1491:.\Generated_Source\PSoC5/CyLib.c **** 
1492:.\Generated_Source\PSoC5/CyLib.c ****     /*******************************************************************************
1493:.\Generated_Source\PSoC5/CyLib.c ****     * Function Name: CyXTAL_ReadStatus
1494:.\Generated_Source\PSoC5/CyLib.c ****     ********************************************************************************
1495:.\Generated_Source\PSoC5/CyLib.c ****     *
1496:.\Generated_Source\PSoC5/CyLib.c ****     * Summary:
1497:.\Generated_Source\PSoC5/CyLib.c ****     *  Reads the XERR status bit for the megahertz crystal. This status bit is a
1498:.\Generated_Source\PSoC5/CyLib.c ****     *  sticky clear on read value. This function is not available for PSoC5.
1499:.\Generated_Source\PSoC5/CyLib.c ****     *
1500:.\Generated_Source\PSoC5/CyLib.c ****     * Parameters:
1501:.\Generated_Source\PSoC5/CyLib.c ****     *  None
1502:.\Generated_Source\PSoC5/CyLib.c ****     *
1503:.\Generated_Source\PSoC5/CyLib.c ****     * Return:
1504:.\Generated_Source\PSoC5/CyLib.c ****     *   Status
1505:.\Generated_Source\PSoC5/CyLib.c ****     *    0: No error
1506:.\Generated_Source\PSoC5/CyLib.c ****     *    1: Error
1507:.\Generated_Source\PSoC5/CyLib.c ****     *
1508:.\Generated_Source\PSoC5/CyLib.c ****     *******************************************************************************/
1509:.\Generated_Source\PSoC5/CyLib.c ****     uint8 CyXTAL_ReadStatus(void) 
1510:.\Generated_Source\PSoC5/CyLib.c ****     {
1511:.\Generated_Source\PSoC5/CyLib.c ****         /***************************************************************************
1512:.\Generated_Source\PSoC5/CyLib.c ****         * High output indicates oscillator failure. Only use this after start-up
1513:.\Generated_Source\PSoC5/CyLib.c ****         * interval is completed. This can be used for status and failure recovery.
1514:.\Generated_Source\PSoC5/CyLib.c ****         ***************************************************************************/
1515:.\Generated_Source\PSoC5/CyLib.c ****         return((0u != (CY_CLK_XMHZ_CSR_REG & CY_CLK_XMHZ_CSR_XERR)) ? 1u : 0u);
1516:.\Generated_Source\PSoC5/CyLib.c ****     }
1517:.\Generated_Source\PSoC5/CyLib.c **** 
1518:.\Generated_Source\PSoC5/CyLib.c **** 
ARM GAS  C:\Users\SUZUKI~1\AppData\Local\Temp\ccy86h0S.s 			page 29


1519:.\Generated_Source\PSoC5/CyLib.c ****     /*******************************************************************************
1520:.\Generated_Source\PSoC5/CyLib.c ****     * Function Name: CyXTAL_EnableFaultRecovery
1521:.\Generated_Source\PSoC5/CyLib.c ****     ********************************************************************************
1522:.\Generated_Source\PSoC5/CyLib.c ****     *
1523:.\Generated_Source\PSoC5/CyLib.c ****     * Summary:
1524:.\Generated_Source\PSoC5/CyLib.c ****     *  Enables the fault recovery circuit which will switch to the IMO in the case
1525:.\Generated_Source\PSoC5/CyLib.c ****     *  of a fault in the megahertz crystal circuit. The crystal must be up and
1526:.\Generated_Source\PSoC5/CyLib.c ****     *  running with the XERR bit at 0, before calling this function to prevent
1527:.\Generated_Source\PSoC5/CyLib.c ****     *  immediate fault switchover. This function is not available for PSoC5.
1528:.\Generated_Source\PSoC5/CyLib.c ****     *
1529:.\Generated_Source\PSoC5/CyLib.c ****     * Parameters:
1530:.\Generated_Source\PSoC5/CyLib.c ****     *  None
1531:.\Generated_Source\PSoC5/CyLib.c ****     *
1532:.\Generated_Source\PSoC5/CyLib.c ****     * Return:
1533:.\Generated_Source\PSoC5/CyLib.c ****     *  None
1534:.\Generated_Source\PSoC5/CyLib.c ****     *
1535:.\Generated_Source\PSoC5/CyLib.c ****     *******************************************************************************/
1536:.\Generated_Source\PSoC5/CyLib.c ****     void CyXTAL_EnableFaultRecovery(void) 
1537:.\Generated_Source\PSoC5/CyLib.c ****     {
1538:.\Generated_Source\PSoC5/CyLib.c ****         CY_CLK_XMHZ_CSR_REG |= CY_CLK_XMHZ_CSR_XPROT;
1539:.\Generated_Source\PSoC5/CyLib.c ****     }
1540:.\Generated_Source\PSoC5/CyLib.c **** 
1541:.\Generated_Source\PSoC5/CyLib.c **** 
1542:.\Generated_Source\PSoC5/CyLib.c ****     /*******************************************************************************
1543:.\Generated_Source\PSoC5/CyLib.c ****     * Function Name: CyXTAL_DisableFaultRecovery
1544:.\Generated_Source\PSoC5/CyLib.c ****     ********************************************************************************
1545:.\Generated_Source\PSoC5/CyLib.c ****     *
1546:.\Generated_Source\PSoC5/CyLib.c ****     * Summary:
1547:.\Generated_Source\PSoC5/CyLib.c ****     *  Disables the fault recovery circuit which will switch to the IMO in the case
1548:.\Generated_Source\PSoC5/CyLib.c ****     *  of a fault in the megahertz crystal circuit. This function is not available
1549:.\Generated_Source\PSoC5/CyLib.c ****     *  for PSoC5.
1550:.\Generated_Source\PSoC5/CyLib.c ****     *
1551:.\Generated_Source\PSoC5/CyLib.c ****     * Parameters:
1552:.\Generated_Source\PSoC5/CyLib.c ****     *  None
1553:.\Generated_Source\PSoC5/CyLib.c ****     *
1554:.\Generated_Source\PSoC5/CyLib.c ****     * Return:
1555:.\Generated_Source\PSoC5/CyLib.c ****     *  None
1556:.\Generated_Source\PSoC5/CyLib.c ****     *
1557:.\Generated_Source\PSoC5/CyLib.c ****     *******************************************************************************/
1558:.\Generated_Source\PSoC5/CyLib.c ****     void CyXTAL_DisableFaultRecovery(void) 
1559:.\Generated_Source\PSoC5/CyLib.c ****     {
1560:.\Generated_Source\PSoC5/CyLib.c ****         CY_CLK_XMHZ_CSR_REG &= ~CY_CLK_XMHZ_CSR_XPROT;
1561:.\Generated_Source\PSoC5/CyLib.c ****     }
1562:.\Generated_Source\PSoC5/CyLib.c **** 
1563:.\Generated_Source\PSoC5/CyLib.c **** #endif  /* (!CY_PSOC5A) */
1564:.\Generated_Source\PSoC5/CyLib.c **** 
1565:.\Generated_Source\PSoC5/CyLib.c **** /*******************************************************************************
1566:.\Generated_Source\PSoC5/CyLib.c **** * Function Name: CyXTAL_SetStartup
1567:.\Generated_Source\PSoC5/CyLib.c **** ********************************************************************************
1568:.\Generated_Source\PSoC5/CyLib.c **** *
1569:.\Generated_Source\PSoC5/CyLib.c **** * Summary:
1570:.\Generated_Source\PSoC5/CyLib.c **** *  Sets the startup settings for the crystal. Logic model outputs a frequency
1571:.\Generated_Source\PSoC5/CyLib.c **** *  (setting + 4) MHz when enabled.
1572:.\Generated_Source\PSoC5/CyLib.c **** *
1573:.\Generated_Source\PSoC5/CyLib.c **** *  This is artificial as the actual frequency is determined by an attached
1574:.\Generated_Source\PSoC5/CyLib.c **** *  external crystal.
1575:.\Generated_Source\PSoC5/CyLib.c **** *
ARM GAS  C:\Users\SUZUKI~1\AppData\Local\Temp\ccy86h0S.s 			page 30


1576:.\Generated_Source\PSoC5/CyLib.c **** * Parameters:
1577:.\Generated_Source\PSoC5/CyLib.c **** *  setting: Valid range [0-31].
1578:.\Generated_Source\PSoC5/CyLib.c **** *   Value is dependent on the frequency and quality of the crystal being used.
1579:.\Generated_Source\PSoC5/CyLib.c **** *   Refer to the device TRM and datasheet for more information.
1580:.\Generated_Source\PSoC5/CyLib.c **** *
1581:.\Generated_Source\PSoC5/CyLib.c **** * Return:
1582:.\Generated_Source\PSoC5/CyLib.c **** *  None
1583:.\Generated_Source\PSoC5/CyLib.c **** *
1584:.\Generated_Source\PSoC5/CyLib.c **** *******************************************************************************/
1585:.\Generated_Source\PSoC5/CyLib.c **** void CyXTAL_SetStartup(uint8 setting) 
1586:.\Generated_Source\PSoC5/CyLib.c **** {
1587:.\Generated_Source\PSoC5/CyLib.c ****     CY_CLK_XMHZ_CFG0_REG = (CY_CLK_XMHZ_CFG0_REG & ~CY_CLK_XMHZ_CFG0_XCFG_MASK) |
1588:.\Generated_Source\PSoC5/CyLib.c ****                            (setting & CY_CLK_XMHZ_CFG0_XCFG_MASK);
1589:.\Generated_Source\PSoC5/CyLib.c **** }
1590:.\Generated_Source\PSoC5/CyLib.c **** 
1591:.\Generated_Source\PSoC5/CyLib.c **** 
1592:.\Generated_Source\PSoC5/CyLib.c **** #if(CY_PSOC3 || CY_PSOC5LP)
1593:.\Generated_Source\PSoC5/CyLib.c ****     /*******************************************************************************
1594:.\Generated_Source\PSoC5/CyLib.c ****     * Function Name: CyXTAL_SetFbVoltage
1595:.\Generated_Source\PSoC5/CyLib.c ****     ********************************************************************************
1596:.\Generated_Source\PSoC5/CyLib.c ****     *
1597:.\Generated_Source\PSoC5/CyLib.c ****     * Summary:
1598:.\Generated_Source\PSoC5/CyLib.c ****     *  Sets the feedback reference voltage to use for the crystal circuit.
1599:.\Generated_Source\PSoC5/CyLib.c ****     *  This function is only available for PSoC3 and PSoC 5LP.
1600:.\Generated_Source\PSoC5/CyLib.c ****     *
1601:.\Generated_Source\PSoC5/CyLib.c ****     * Parameters:
1602:.\Generated_Source\PSoC5/CyLib.c ****     *  setting: Valid range [0-15].
1603:.\Generated_Source\PSoC5/CyLib.c ****     *  Refer to the device TRM and datasheet for more information.
1604:.\Generated_Source\PSoC5/CyLib.c ****     *
1605:.\Generated_Source\PSoC5/CyLib.c ****     * Return:
1606:.\Generated_Source\PSoC5/CyLib.c ****     *  None
1607:.\Generated_Source\PSoC5/CyLib.c ****     *
1608:.\Generated_Source\PSoC5/CyLib.c ****     *******************************************************************************/
1609:.\Generated_Source\PSoC5/CyLib.c ****     void CyXTAL_SetFbVoltage(uint8 setting) 
1610:.\Generated_Source\PSoC5/CyLib.c ****     {
1611:.\Generated_Source\PSoC5/CyLib.c ****         CY_CLK_XMHZ_CFG1_REG = ((CY_CLK_XMHZ_CFG1_REG & ~CY_CLK_XMHZ_CFG1_VREF_FB_MASK) |
1612:.\Generated_Source\PSoC5/CyLib.c ****                                 (setting & CY_CLK_XMHZ_CFG1_VREF_FB_MASK));
1613:.\Generated_Source\PSoC5/CyLib.c ****     }
1614:.\Generated_Source\PSoC5/CyLib.c **** 
1615:.\Generated_Source\PSoC5/CyLib.c **** 
1616:.\Generated_Source\PSoC5/CyLib.c ****     /*******************************************************************************
1617:.\Generated_Source\PSoC5/CyLib.c ****     * Function Name: CyXTAL_SetWdVoltage
1618:.\Generated_Source\PSoC5/CyLib.c ****     ********************************************************************************
1619:.\Generated_Source\PSoC5/CyLib.c ****     *
1620:.\Generated_Source\PSoC5/CyLib.c ****     * Summary:
1621:.\Generated_Source\PSoC5/CyLib.c ****     *  Sets the reference voltage used by the watchdog to detect a failure in the
1622:.\Generated_Source\PSoC5/CyLib.c ****     *  crystal circuit. This function is only available for PSoC3 and PSoC 5LP.
1623:.\Generated_Source\PSoC5/CyLib.c ****     *
1624:.\Generated_Source\PSoC5/CyLib.c ****     * Parameters:
1625:.\Generated_Source\PSoC5/CyLib.c ****     *  setting: Valid range [0-7].
1626:.\Generated_Source\PSoC5/CyLib.c ****     *  Refer to the device TRM and datasheet for more information.
1627:.\Generated_Source\PSoC5/CyLib.c ****     *
1628:.\Generated_Source\PSoC5/CyLib.c ****     * Return:
1629:.\Generated_Source\PSoC5/CyLib.c ****     *  None
1630:.\Generated_Source\PSoC5/CyLib.c ****     *
1631:.\Generated_Source\PSoC5/CyLib.c ****     *******************************************************************************/
1632:.\Generated_Source\PSoC5/CyLib.c ****     void CyXTAL_SetWdVoltage(uint8 setting) 
ARM GAS  C:\Users\SUZUKI~1\AppData\Local\Temp\ccy86h0S.s 			page 31


1633:.\Generated_Source\PSoC5/CyLib.c ****     {
1634:.\Generated_Source\PSoC5/CyLib.c ****         CY_CLK_XMHZ_CFG1_REG = ((CY_CLK_XMHZ_CFG1_REG & ~CY_CLK_XMHZ_CFG1_VREF_WD_MASK) |
1635:.\Generated_Source\PSoC5/CyLib.c ****                                 ((setting << 4) & CY_CLK_XMHZ_CFG1_VREF_WD_MASK));
1636:.\Generated_Source\PSoC5/CyLib.c ****     }
1637:.\Generated_Source\PSoC5/CyLib.c **** 
1638:.\Generated_Source\PSoC5/CyLib.c **** #endif /* (CY_PSOC3 || CY_PSOC5LP) */
1639:.\Generated_Source\PSoC5/CyLib.c **** 
1640:.\Generated_Source\PSoC5/CyLib.c **** 
1641:.\Generated_Source\PSoC5/CyLib.c **** /*******************************************************************************
1642:.\Generated_Source\PSoC5/CyLib.c **** * Function Name: CyHalt
1643:.\Generated_Source\PSoC5/CyLib.c **** ********************************************************************************
1644:.\Generated_Source\PSoC5/CyLib.c **** *
1645:.\Generated_Source\PSoC5/CyLib.c **** * Summary:
1646:.\Generated_Source\PSoC5/CyLib.c **** *  Halts the CPU.
1647:.\Generated_Source\PSoC5/CyLib.c **** *
1648:.\Generated_Source\PSoC5/CyLib.c **** * Parameters:
1649:.\Generated_Source\PSoC5/CyLib.c **** *  uint8 reason: Value to be used during debugging.
1650:.\Generated_Source\PSoC5/CyLib.c **** *
1651:.\Generated_Source\PSoC5/CyLib.c **** * Return:
1652:.\Generated_Source\PSoC5/CyLib.c **** *  None
1653:.\Generated_Source\PSoC5/CyLib.c **** *
1654:.\Generated_Source\PSoC5/CyLib.c **** *******************************************************************************/
1655:.\Generated_Source\PSoC5/CyLib.c **** void CyHalt(uint8 reason) CYREENTRANT
1656:.\Generated_Source\PSoC5/CyLib.c **** {
1657:.\Generated_Source\PSoC5/CyLib.c ****     reason = reason;
1658:.\Generated_Source\PSoC5/CyLib.c **** 
1659:.\Generated_Source\PSoC5/CyLib.c ****     #if defined (__ARMCC_VERSION)
1660:.\Generated_Source\PSoC5/CyLib.c ****         __breakpoint(0x0);
1661:.\Generated_Source\PSoC5/CyLib.c ****     #elif defined(__GNUC__)
1662:.\Generated_Source\PSoC5/CyLib.c ****         __asm("    bkpt    1");
  75              		.loc 1 1662 0
  76              	@ 1662 ".\Generated_Source\PSoC5\CyLib.c" 1
  77 0016 01BE     		    bkpt    1
  78              	@ 0 "" 2
  79              		.thumb
  80              	.L4:
  81              	.LBE75:
  82              	.LBE74:
  83              		.loc 1 179 0
  84 0018 0728     		cmp	r0, #7
  85 001a 00D8     		bhi	.L5
  86              	.LBB76:
  87              	.LBB77:
  88              		.loc 1 1662 0
  89              	@ 1662 ".\Generated_Source\PSoC5\CyLib.c" 1
  90 001c 01BE     		    bkpt    1
  91              	@ 0 "" 2
  92              		.thumb
  93              	.L5:
  94              	.LBE77:
  95              	.LBE76:
  96              		.loc 1 182 0
  97 001e 0139     		subs	r1, r1, #1
  98              	.LVL1:
  99 0020 C9B2     		uxtb	r1, r1
 100 0022 0F29     		cmp	r1, #15
 101 0024 00D9     		bls	.L6
ARM GAS  C:\Users\SUZUKI~1\AppData\Local\Temp\ccy86h0S.s 			page 32


 102              	.LBB78:
 103              	.LBB79:
 104              		.loc 1 1662 0
 105              	@ 1662 ".\Generated_Source\PSoC5\CyLib.c" 1
 106 0026 01BE     		    bkpt    1
 107              	@ 0 "" 2
 108              		.thumb
 109              	.L6:
 110              	.LBE79:
 111              	.LBE78:
 112              		.loc 1 185 0
 113 0028 531E     		subs	r3, r2, #1
 114 002a 5FFA83FC 		uxtb	ip, r3
 115 002e BCF1060F 		cmp	ip, #6
 116 0032 00D9     		bls	.L7
 117              	.LBB80:
 118              	.LBB81:
 119              		.loc 1 1662 0
 120              	@ 1662 ".\Generated_Source\PSoC5\CyLib.c" 1
 121 0034 01BE     		    bkpt    1
 122              	@ 0 "" 2
 123              		.thumb
 124              	.L7:
 125              	.LBE81:
 126              	.LBE80:
 127              		.loc 1 189 0
 128 0036 44F22224 		movw	r4, #:lower16:1073758754
 129              		.loc 1 190 0
 130 003a 44F22322 		movw	r2, #:lower16:1073758755
 131              	.LVL2:
 132 003e C4F20002 		movt	r2, #:upper16:1073758755
 133              		.loc 1 189 0
 134 0042 C4F20004 		movt	r4, #:upper16:1073758754
 135              		.loc 1 191 0
 136 0046 44F22123 		movw	r3, #:lower16:1073758753
 137              		.loc 1 189 0
 138 004a 2070     		strb	r0, [r4, #0]
 139              		.loc 1 191 0
 140 004c C4F20003 		movt	r3, #:upper16:1073758753
 141              		.loc 1 190 0
 142 0050 1170     		strb	r1, [r2, #0]
 143              		.loc 1 191 0
 144 0052 1978     		ldrb	r1, [r3, #0]	@ zero_extendqisi2
 145 0054 01F08F02 		and	r2, r1, #143
 146 0058 42EA0C1C 		orr	ip, r2, ip, lsl #4
 147 005c 5FFA8CF0 		uxtb	r0, ip
 148              	.LVL3:
 149 0060 1870     		strb	r0, [r3, #0]
 150              		.loc 1 193 0
 151 0062 10BC     		pop	{r4}
 152 0064 7047     		bx	lr
 153              		.cfi_endproc
 154              	.LFE2:
 155              		.size	CyPLL_OUT_SetPQ, .-CyPLL_OUT_SetPQ
 156 0066 00BF     		.section	.text.CyPLL_OUT_SetSource,"ax",%progbits
 157              		.align	2
 158              		.global	CyPLL_OUT_SetSource
ARM GAS  C:\Users\SUZUKI~1\AppData\Local\Temp\ccy86h0S.s 			page 33


 159              		.thumb
 160              		.thumb_func
 161              		.type	CyPLL_OUT_SetSource, %function
 162              	CyPLL_OUT_SetSource:
 163              	.LFB3:
 164              		.loc 1 223 0
 165              		.cfi_startproc
 166              		@ args = 0, pretend = 0, frame = 0
 167              		@ frame_needed = 0, uses_anonymous_args = 0
 168              		@ link register save eliminated.
 169              	.LVL4:
 170              		.loc 1 225 0
 171 0000 44F22023 		movw	r3, #:lower16:1073758752
 172 0004 C4F20003 		movt	r3, #:upper16:1073758752
 173 0008 1A78     		ldrb	r2, [r3, #0]	@ zero_extendqisi2
 174 000a 12F0010F 		tst	r2, #1
 175 000e 01D0     		beq	.L11
 176 0010 1B78     		ldrb	r3, [r3, #0]	@ zero_extendqisi2
 177              	.LBB82:
 178              	.LBB83:
 179              		.loc 1 1662 0
 180              	@ 1662 ".\Generated_Source\PSoC5\CyLib.c" 1
 181 0012 01BE     		    bkpt    1
 182              	@ 0 "" 2
 183              		.thumb
 184              	.L11:
 185              	.LBE83:
 186              	.LBE82:
 187              		.loc 1 227 0
 188 0014 0228     		cmp	r0, #2
 189 0016 0AD8     		bhi	.L12
 190              		.loc 1 232 0
 191 0018 44F20003 		movw	r3, #:lower16:1073758208
 192 001c C4F20003 		movt	r3, #:upper16:1073758208
 193 0020 93F800C0 		ldrb	ip, [r3, #0]	@ zero_extendqisi2
 194 0024 0CF0FC01 		and	r1, ip, #252
 195 0028 0843     		orrs	r0, r0, r1
 196              	.LVL5:
 197 002a 1870     		strb	r0, [r3, #0]
 198              		.loc 1 233 0
 199 002c 7047     		bx	lr
 200              	.LVL6:
 201              	.L12:
 202              	.LBB84:
 203              	.LBB85:
 204              		.loc 1 1662 0
 205              	@ 1662 ".\Generated_Source\PSoC5\CyLib.c" 1
 206 002e 01BE     		    bkpt    1
 207              	@ 0 "" 2
 208              		.thumb
 209 0030 7047     		bx	lr
 210              	.LBE85:
 211              	.LBE84:
 212              		.cfi_endproc
 213              	.LFE3:
 214              		.size	CyPLL_OUT_SetSource, .-CyPLL_OUT_SetSource
 215 0032 00BF     		.section	.text.CyIMO_Stop,"ax",%progbits
ARM GAS  C:\Users\SUZUKI~1\AppData\Local\Temp\ccy86h0S.s 			page 34


 216              		.align	2
 217              		.global	CyIMO_Stop
 218              		.thumb
 219              		.thumb_func
 220              		.type	CyIMO_Stop, %function
 221              	CyIMO_Stop:
 222              	.LFB5:
 223              		.loc 1 338 0
 224              		.cfi_startproc
 225              		@ args = 0, pretend = 0, frame = 0
 226              		@ frame_needed = 0, uses_anonymous_args = 0
 227              		@ link register save eliminated.
 228              		.loc 1 340 0
 229 0000 44F2A033 		movw	r3, #:lower16:1073759136
 230 0004 C4F20003 		movt	r3, #:upper16:1073759136
 231 0008 1878     		ldrb	r0, [r3, #0]	@ zero_extendqisi2
 232 000a 00F0EF02 		and	r2, r0, #239
 233 000e 1A70     		strb	r2, [r3, #0]
 234              		.loc 1 341 0
 235 0010 7047     		bx	lr
 236              		.cfi_endproc
 237              	.LFE5:
 238              		.size	CyIMO_Stop, .-CyIMO_Stop
 239              		.section	.text.CyUSB_PowerOnCheck,"ax",%progbits
 240              		.align	2
 241              		.global	CyUSB_PowerOnCheck
 242              		.thumb
 243              		.thumb_func
 244              		.type	CyUSB_PowerOnCheck, %function
 245              	CyUSB_PowerOnCheck:
 246              	.LFB6:
 247              		.loc 1 359 0
 248              		.cfi_startproc
 249              		@ args = 0, pretend = 0, frame = 0
 250              		@ frame_needed = 0, uses_anonymous_args = 0
 251              		@ link register save eliminated.
 252              		.loc 1 363 0
 253 0000 44F29330 		movw	r0, #:lower16:1073759123
 254 0004 C4F20000 		movt	r0, #:upper16:1073759123
 255 0008 0378     		ldrb	r3, [r0, #0]	@ zero_extendqisi2
 256 000a 13F0070F 		tst	r3, #7
 257 000e 09D1     		bne	.L19
 258              		.loc 1 364 0
 259 0010 44F2A532 		movw	r2, #:lower16:1073759141
 260 0014 C4F20002 		movt	r2, #:upper16:1073759141
 261 0018 1178     		ldrb	r1, [r2, #0]	@ zero_extendqisi2
 262              		.loc 1 363 0
 263 001a 11F0010F 		tst	r1, #1
 264 001e 01D0     		beq	.L19
 265 0020 0120     		movs	r0, #1
 266              	.LVL7:
 267 0022 7047     		bx	lr
 268              	.LVL8:
 269              	.L19:
 270              		.loc 1 365 0
 271 0024 44F29330 		movw	r0, #:lower16:1073759123
 272 0028 C4F20000 		movt	r0, #:upper16:1073759123
ARM GAS  C:\Users\SUZUKI~1\AppData\Local\Temp\ccy86h0S.s 			page 35


 273 002c 0378     		ldrb	r3, [r0, #0]	@ zero_extendqisi2
 274              		.loc 1 363 0
 275 002e 03F0070C 		and	ip, r3, #7
 276 0032 BCF1010F 		cmp	ip, #1
 277 0036 01D0     		beq	.L21
 278 0038 0020     		movs	r0, #0
 279              	.LVL9:
 280 003a 7047     		bx	lr
 281              	.LVL10:
 282              	.L21:
 283              		.loc 1 366 0
 284 003c 44F2B532 		movw	r2, #:lower16:1073759157
 285 0040 C4F20002 		movt	r2, #:upper16:1073759157
 286 0044 1178     		ldrb	r1, [r2, #0]	@ zero_extendqisi2
 287 0046 01F00100 		and	r0, r1, #1
 288              	.LVL11:
 289              	.LVL12:
 290              		.loc 1 372 0
 291 004a 7047     		bx	lr
 292              		.cfi_endproc
 293              	.LFE6:
 294              		.size	CyUSB_PowerOnCheck, .-CyUSB_PowerOnCheck
 295              		.section	.text.CyIMO_SetTrimValue,"ax",%progbits
 296              		.align	2
 297              		.global	CyIMO_SetTrimValue
 298              		.thumb
 299              		.thumb_func
 300              		.type	CyIMO_SetTrimValue, %function
 301              	CyIMO_SetTrimValue:
 302              	.LFB7:
 303              		.loc 1 390 0
 304              		.cfi_startproc
 305              		@ args = 0, pretend = 0, frame = 0
 306              		@ frame_needed = 0, uses_anonymous_args = 0
 307              		@ link register save eliminated.
 308              	.LVL13:
 309              	.LBB94:
 310              	.LBB96:
 311              		.loc 1 363 0
 312 0000 44F29331 		movw	r1, #:lower16:1073759123
 313 0004 C4F20001 		movt	r1, #:upper16:1073759123
 314 0008 0B78     		ldrb	r3, [r1, #0]	@ zero_extendqisi2
 315 000a 13F0070F 		tst	r3, #7
 316 000e 12D1     		bne	.L24
 317              		.loc 1 364 0
 318 0010 44F2A533 		movw	r3, #:lower16:1073759141
 319 0014 C4F20003 		movt	r3, #:upper16:1073759141
 320 0018 1A78     		ldrb	r2, [r3, #0]	@ zero_extendqisi2
 321              		.loc 1 363 0
 322 001a 12F0010F 		tst	r2, #1
 323 001e 0AD0     		beq	.L24
 324              	.LBE96:
 325              	.LBE94:
 326              		.loc 1 397 0
 327 0020 46F20903 		movw	r3, #:lower16:1073766409
 328 0024 C4F20003 		movt	r3, #:upper16:1073766409
 329 0028 93F800C0 		ldrb	ip, [r3, #0]	@ zero_extendqisi2
ARM GAS  C:\Users\SUZUKI~1\AppData\Local\Temp\ccy86h0S.s 			page 36


 330 002c 0122     		movs	r2, #1
 331              	.LVL14:
 332 002e 0CF0FD01 		and	r1, ip, #253
 333 0032 1970     		strb	r1, [r3, #0]
 334 0034 0AE0     		b	.L36
 335              	.LVL15:
 336              	.L24:
 337              	.LBB98:
 338              	.LBB95:
 339              		.loc 1 365 0
 340 0036 44F29332 		movw	r2, #:lower16:1073759123
 341 003a C4F20002 		movt	r2, #:upper16:1073759123
 342 003e 1178     		ldrb	r1, [r2, #0]	@ zero_extendqisi2
 343              		.loc 1 363 0
 344 0040 01F0070C 		and	ip, r1, #7
 345 0044 BCF1010F 		cmp	ip, #1
 346 0048 09D0     		beq	.L39
 347              	.L26:
 348 004a 0022     		movs	r2, #0
 349              	.LVL16:
 350              	.L36:
 351              	.LBE95:
 352              	.LBE98:
 353              		.loc 1 399 0
 354 004c 0828     		cmp	r0, #8
 355 004e 19D8     		bhi	.L27
 356 0050 DFE800F0 		tbb	[pc, r0]
 357              	.L34:
 358 0054 4B       		.byte	(.L28-.L34)/2
 359 0055 56       		.byte	(.L29-.L34)/2
 360 0056 1A       		.byte	(.L30-.L34)/2
 361 0057 25       		.byte	(.L31-.L34)/2
 362 0058 32       		.byte	(.L32-.L34)/2
 363 0059 18       		.byte	(.L27-.L34)/2
 364 005a 18       		.byte	(.L27-.L34)/2
 365 005b 18       		.byte	(.L27-.L34)/2
 366 005c 3D       		.byte	(.L33-.L34)/2
 367 005d 00       		.align	1
 368              	.LVL17:
 369              	.L39:
 370              	.LBB99:
 371              	.LBB97:
 372              		.loc 1 366 0
 373 005e 44F2B531 		movw	r1, #:lower16:1073759157
 374 0062 C4F20001 		movt	r1, #:upper16:1073759157
 375 0066 0B78     		ldrb	r3, [r1, #0]	@ zero_extendqisi2
 376              		.loc 1 363 0
 377 0068 13F0010F 		tst	r3, #1
 378 006c EDD0     		beq	.L26
 379              	.LBE97:
 380              	.LBE99:
 381              		.loc 1 397 0
 382 006e 46F20903 		movw	r3, #:lower16:1073766409
 383 0072 C4F20003 		movt	r3, #:upper16:1073766409
 384 0076 93F800C0 		ldrb	ip, [r3, #0]	@ zero_extendqisi2
 385 007a 0122     		movs	r2, #1
 386              	.LVL18:
ARM GAS  C:\Users\SUZUKI~1\AppData\Local\Temp\ccy86h0S.s 			page 37


 387 007c 0CF0FD01 		and	r1, ip, #253
 388 0080 1970     		strb	r1, [r3, #0]
 389 0082 E3E7     		b	.L36
 390              	.L27:
 391              	.LBB100:
 392              	.LBB101:
 393              		.loc 1 1662 0
 394              	@ 1662 ".\Generated_Source\PSoC5\CyLib.c" 1
 395 0084 01BE     		    bkpt    1
 396              	@ 0 "" 2
 397              		.thumb
 398 0086 7047     		bx	lr
 399              	.L30:
 400              	.LBE101:
 401              	.LBE100:
 402              		.loc 1 410 0
 403 0088 40F20A11 		movw	r1, #:lower16:1224737034
 404 008c C4F60011 		movt	r1, #:upper16:1224737034
 405 0090 0A78     		ldrb	r2, [r1, #0]	@ zero_extendqisi2
 406              	.LVL19:
 407 0092 44F2A163 		movw	r3, #:lower16:1073759905
 408 0096 C4F20003 		movt	r3, #:upper16:1073759905
 409 009a 1A70     		strb	r2, [r3, #0]
 410              		.loc 1 411 0
 411 009c 7047     		bx	lr
 412              	.LVL20:
 413              	.L31:
 414              		.loc 1 414 0
 415 009e 40F20B12 		movw	r2, #:lower16:1224737035
 416              	.LVL21:
 417 00a2 C4F60012 		movt	r2, #:upper16:1224737035
 418 00a6 92F800C0 		ldrb	ip, [r2, #0]	@ zero_extendqisi2
 419 00aa 44F2A160 		movw	r0, #:lower16:1073759905
 420              	.LVL22:
 421 00ae C4F20000 		movt	r0, #:upper16:1073759905
 422 00b2 80F800C0 		strb	ip, [r0, #0]
 423              		.loc 1 415 0
 424 00b6 7047     		bx	lr
 425              	.LVL23:
 426              	.L32:
 427              		.loc 1 418 0
 428 00b8 40F28310 		movw	r0, #:lower16:1224737155
 429              	.LVL24:
 430 00bc C4F60010 		movt	r0, #:upper16:1224737155
 431 00c0 0178     		ldrb	r1, [r0, #0]	@ zero_extendqisi2
 432 00c2 44F2A163 		movw	r3, #:lower16:1073759905
 433 00c6 C4F20003 		movt	r3, #:upper16:1073759905
 434 00ca 1970     		strb	r1, [r3, #0]
 435              		.loc 1 419 0
 436 00cc 7047     		bx	lr
 437              	.LVL25:
 438              	.L33:
 439              		.loc 1 431 0
 440 00ce 40F20F13 		movw	r3, #:lower16:1224737039
 441 00d2 C4F60013 		movt	r3, #:upper16:1224737039
 442 00d6 93F800C0 		ldrb	ip, [r3, #0]	@ zero_extendqisi2
 443 00da 44F2A161 		movw	r1, #:lower16:1073759905
ARM GAS  C:\Users\SUZUKI~1\AppData\Local\Temp\ccy86h0S.s 			page 38


 444 00de C4F20001 		movt	r1, #:upper16:1073759905
 445 00e2 81F800C0 		strb	ip, [r1, #0]
 446              		.loc 1 434 0
 447 00e6 C2B9     		cbnz	r2, .L40
 448 00e8 7047     		bx	lr
 449              	.L28:
 450              		.loc 1 402 0
 451 00ea 40F20813 		movw	r3, #:lower16:1224737032
 452 00ee C4F60013 		movt	r3, #:upper16:1224737032
 453 00f2 1878     		ldrb	r0, [r3, #0]	@ zero_extendqisi2
 454              	.LVL26:
 455 00f4 44F2A162 		movw	r2, #:lower16:1073759905
 456              	.LVL27:
 457 00f8 C4F20002 		movt	r2, #:upper16:1073759905
 458 00fc 1070     		strb	r0, [r2, #0]
 459              		.loc 1 403 0
 460 00fe 7047     		bx	lr
 461              	.LVL28:
 462              	.L29:
 463              		.loc 1 406 0
 464 0100 40F20910 		movw	r0, #:lower16:1224737033
 465              	.LVL29:
 466 0104 C4F60010 		movt	r0, #:upper16:1224737033
 467 0108 90F800C0 		ldrb	ip, [r0, #0]	@ zero_extendqisi2
 468 010c 44F2A161 		movw	r1, #:lower16:1073759905
 469 0110 C4F20001 		movt	r1, #:upper16:1073759905
 470 0114 81F800C0 		strb	ip, [r1, #0]
 471              		.loc 1 407 0
 472 0118 7047     		bx	lr
 473              	.LVL30:
 474              	.L40:
 475              		.loc 1 437 0
 476 011a 46F20900 		movw	r0, #:lower16:1073766409
 477              	.LVL31:
 478 011e C4F20000 		movt	r0, #:upper16:1073766409
 479 0122 90F800C0 		ldrb	ip, [r0, #0]	@ zero_extendqisi2
 480 0126 4CF00202 		orr	r2, ip, #2
 481              	.LVL32:
 482 012a 0270     		strb	r2, [r0, #0]
 483 012c 7047     		bx	lr
 484              		.cfi_endproc
 485              	.LFE7:
 486              		.size	CyIMO_SetTrimValue, .-CyIMO_SetTrimValue
 487 012e 00BF     		.section	.text.CyIMO_SetSource,"ax",%progbits
 488              		.align	2
 489              		.global	CyIMO_SetSource
 490              		.thumb
 491              		.thumb_func
 492              		.type	CyIMO_SetSource, %function
 493              	CyIMO_SetSource:
 494              	.LFB9:
 495              		.loc 1 635 0
 496              		.cfi_startproc
 497              		@ args = 0, pretend = 0, frame = 0
 498              		@ frame_needed = 0, uses_anonymous_args = 0
 499              		@ link register save eliminated.
 500              	.LVL33:
ARM GAS  C:\Users\SUZUKI~1\AppData\Local\Temp\ccy86h0S.s 			page 39


 501              		.loc 1 637 0
 502 0000 0128     		cmp	r0, #1
 503 0002 0DD0     		beq	.L44
 504 0004 03D3     		bcc	.L43
 505 0006 0228     		cmp	r0, #2
 506 0008 1CD0     		beq	.L50
 507              	.LBB102:
 508              	.LBB103:
 509              		.loc 1 1662 0
 510              	@ 1662 ".\Generated_Source\PSoC5\CyLib.c" 1
 511 000a 01BE     		    bkpt    1
 512              	@ 0 "" 2
 513              		.thumb
 514 000c 7047     		bx	lr
 515              	.L43:
 516              	.LBE103:
 517              	.LBE102:
 518              		.loc 1 650 0
 519 000e 44F20023 		movw	r3, #:lower16:1073758720
 520 0012 C4F20003 		movt	r3, #:upper16:1073758720
 521 0016 1878     		ldrb	r0, [r3, #0]	@ zero_extendqisi2
 522              	.LVL34:
 523 0018 00F0DF01 		and	r1, r0, #223
 524 001c 1970     		strb	r1, [r3, #0]
 525              		.loc 1 651 0
 526 001e 7047     		bx	lr
 527              	.LVL35:
 528              	.L44:
 529              		.loc 1 645 0
 530 0020 44F20002 		movw	r2, #:lower16:1073758208
 531 0024 C4F20002 		movt	r2, #:upper16:1073758208
 532 0028 1078     		ldrb	r0, [r2, #0]	@ zero_extendqisi2
 533              	.LVL36:
 534              		.loc 1 646 0
 535 002a 44F20023 		movw	r3, #:lower16:1073758720
 536              		.loc 1 645 0
 537 002e 40F04001 		orr	r1, r0, #64
 538 0032 1170     		strb	r1, [r2, #0]
 539              		.loc 1 646 0
 540 0034 C4F20003 		movt	r3, #:upper16:1073758720
 541 0038 93F800C0 		ldrb	ip, [r3, #0]	@ zero_extendqisi2
 542 003c 4CF02002 		orr	r2, ip, #32
 543 0040 1A70     		strb	r2, [r3, #0]
 544              		.loc 1 647 0
 545 0042 7047     		bx	lr
 546              	.LVL37:
 547              	.L50:
 548              		.loc 1 640 0
 549 0044 44F20002 		movw	r2, #:lower16:1073758208
 550 0048 C4F20002 		movt	r2, #:upper16:1073758208
 551 004c 1178     		ldrb	r1, [r2, #0]	@ zero_extendqisi2
 552              		.loc 1 641 0
 553 004e 44F20023 		movw	r3, #:lower16:1073758720
 554              		.loc 1 640 0
 555 0052 01F0BF01 		and	r1, r1, #191
 556              		.loc 1 645 0
 557 0056 1170     		strb	r1, [r2, #0]
ARM GAS  C:\Users\SUZUKI~1\AppData\Local\Temp\ccy86h0S.s 			page 40


 558              		.loc 1 646 0
 559 0058 C4F20003 		movt	r3, #:upper16:1073758720
 560 005c 93F800C0 		ldrb	ip, [r3, #0]	@ zero_extendqisi2
 561 0060 4CF02002 		orr	r2, ip, #32
 562 0064 1A70     		strb	r2, [r3, #0]
 563              		.loc 1 647 0
 564 0066 7047     		bx	lr
 565              		.cfi_endproc
 566              	.LFE9:
 567              		.size	CyIMO_SetSource, .-CyIMO_SetSource
 568              		.section	.text.CyIMO_EnableDoubler,"ax",%progbits
 569              		.align	2
 570              		.global	CyIMO_EnableDoubler
 571              		.thumb
 572              		.thumb_func
 573              		.type	CyIMO_EnableDoubler, %function
 574              	CyIMO_EnableDoubler:
 575              	.LFB10:
 576              		.loc 1 677 0
 577              		.cfi_startproc
 578              		@ args = 0, pretend = 0, frame = 0
 579              		@ frame_needed = 0, uses_anonymous_args = 0
 580              		@ link register save eliminated.
 581              		.loc 1 679 0
 582 0000 44F20023 		movw	r3, #:lower16:1073758720
 583 0004 C4F20003 		movt	r3, #:upper16:1073758720
 584 0008 1878     		ldrb	r0, [r3, #0]	@ zero_extendqisi2
 585 000a 40F01002 		orr	r2, r0, #16
 586 000e 1A70     		strb	r2, [r3, #0]
 587              		.loc 1 680 0
 588 0010 7047     		bx	lr
 589              		.cfi_endproc
 590              	.LFE10:
 591              		.size	CyIMO_EnableDoubler, .-CyIMO_EnableDoubler
 592              		.section	.text.CyIMO_DisableDoubler,"ax",%progbits
 593              		.align	2
 594              		.global	CyIMO_DisableDoubler
 595              		.thumb
 596              		.thumb_func
 597              		.type	CyIMO_DisableDoubler, %function
 598              	CyIMO_DisableDoubler:
 599              	.LFB11:
 600              		.loc 1 698 0
 601              		.cfi_startproc
 602              		@ args = 0, pretend = 0, frame = 0
 603              		@ frame_needed = 0, uses_anonymous_args = 0
 604              		@ link register save eliminated.
 605              		.loc 1 699 0
 606 0000 44F20023 		movw	r3, #:lower16:1073758720
 607 0004 C4F20003 		movt	r3, #:upper16:1073758720
 608 0008 1878     		ldrb	r0, [r3, #0]	@ zero_extendqisi2
 609 000a 00F0EF02 		and	r2, r0, #239
 610 000e 1A70     		strb	r2, [r3, #0]
 611              		.loc 1 700 0
 612 0010 7047     		bx	lr
 613              		.cfi_endproc
 614              	.LFE11:
ARM GAS  C:\Users\SUZUKI~1\AppData\Local\Temp\ccy86h0S.s 			page 41


 615              		.size	CyIMO_DisableDoubler, .-CyIMO_DisableDoubler
 616              		.section	.text.CyMasterClk_SetSource,"ax",%progbits
 617              		.align	2
 618              		.global	CyMasterClk_SetSource
 619              		.thumb
 620              		.thumb_func
 621              		.type	CyMasterClk_SetSource, %function
 622              	CyMasterClk_SetSource:
 623              	.LFB12:
 624              		.loc 1 733 0
 625              		.cfi_startproc
 626              		@ args = 0, pretend = 0, frame = 0
 627              		@ frame_needed = 0, uses_anonymous_args = 0
 628              		@ link register save eliminated.
 629              	.LVL38:
 630              		.loc 1 741 0
 631 0000 44F20403 		movw	r3, #:lower16:1073758212
 632 0004 C4F20003 		movt	r3, #:upper16:1073758212
 633 0008 1A78     		ldrb	r2, [r3, #0]	@ zero_extendqisi2
 634              		.loc 1 744 0
 635 000a 1146     		mov	r1, r2
 636              	.LVL39:
 637 000c 92B9     		cbnz	r2, .L56
 638              		.loc 1 746 0
 639 000e 4FF0030C 		mov	ip, #3
 640              		.loc 1 752 0
 641 0012 44F20502 		movw	r2, #:lower16:1073758213
 642              		.loc 1 746 0
 643 0016 83F800C0 		strb	ip, [r3, #0]
 644              		.loc 1 752 0
 645 001a C4F20002 		movt	r2, #:upper16:1073758213
 646 001e 92F800C0 		ldrb	ip, [r2, #0]	@ zero_extendqisi2
 647              		.loc 1 753 0
 648 0022 00F00300 		and	r0, r0, #3
 649              	.LVL40:
 650 0026 0CF0FC0C 		and	ip, ip, #252
 651 002a 40EA0C00 		orr	r0, r0, ip
 652 002e 1070     		strb	r0, [r2, #0]
 653              		.loc 1 760 0
 654 0030 1970     		strb	r1, [r3, #0]
 655 0032 7047     		bx	lr
 656              	.LVL41:
 657              	.L56:
 658              		.loc 1 752 0
 659 0034 44F20503 		movw	r3, #:lower16:1073758213
 660 0038 C4F20003 		movt	r3, #:upper16:1073758213
 661 003c 93F800C0 		ldrb	ip, [r3, #0]	@ zero_extendqisi2
 662              		.loc 1 753 0
 663 0040 00F00301 		and	r1, r0, #3
 664              	.LVL42:
 665 0044 0CF0FC02 		and	r2, ip, #252
 666 0048 1143     		orrs	r1, r1, r2
 667 004a 1970     		strb	r1, [r3, #0]
 668 004c 7047     		bx	lr
 669              		.cfi_endproc
 670              	.LFE12:
 671              		.size	CyMasterClk_SetSource, .-CyMasterClk_SetSource
ARM GAS  C:\Users\SUZUKI~1\AppData\Local\Temp\ccy86h0S.s 			page 42


 672 004e 00BF     		.section	.text.CyMasterClk_SetDivider,"ax",%progbits
 673              		.align	2
 674              		.global	CyMasterClk_SetDivider
 675              		.thumb
 676              		.thumb_func
 677              		.type	CyMasterClk_SetDivider, %function
 678              	CyMasterClk_SetDivider:
 679              	.LFB13:
 680              		.loc 1 796 0
 681              		.cfi_startproc
 682              		@ args = 0, pretend = 0, frame = 0
 683              		@ frame_needed = 0, uses_anonymous_args = 0
 684              		@ link register save eliminated.
 685              	.LVL43:
 686              		.loc 1 797 0
 687 0000 44F20403 		movw	r3, #:lower16:1073758212
 688 0004 C4F20003 		movt	r3, #:upper16:1073758212
 689 0008 1870     		strb	r0, [r3, #0]
 690              		.loc 1 798 0
 691 000a 7047     		bx	lr
 692              		.cfi_endproc
 693              	.LFE13:
 694              		.size	CyMasterClk_SetDivider, .-CyMasterClk_SetDivider
 695              		.section	.text.CyBusClk_Internal_SetDivider,"ax",%progbits
 696              		.align	2
 697              		.global	CyBusClk_Internal_SetDivider
 698              		.thumb
 699              		.thumb_func
 700              		.type	CyBusClk_Internal_SetDivider, %function
 701              	CyBusClk_Internal_SetDivider:
 702              	.LFB14:
 703              		.loc 1 818 0
 704              		.cfi_startproc
 705              		@ args = 0, pretend = 0, frame = 0
 706              		@ frame_needed = 0, uses_anonymous_args = 0
 707              		@ link register save eliminated.
 708              	.LVL44:
 709 0000 10B4     		push	{r4}
 710              	.LCFI1:
 711              		.cfi_def_cfa_offset 4
 712              		.loc 1 820 0
 713 0002 44F21404 		movw	r4, #:lower16:1073758228
 714              		.cfi_offset 4, -4
 715 0006 C4F20004 		movt	r4, #:upper16:1073758228
 716 000a 2378     		ldrb	r3, [r4, #0]	@ zero_extendqisi2
 717              		.loc 1 821 0
 718 000c 44F21001 		movw	r1, #:lower16:1073758224
 719              		.loc 1 820 0
 720 0010 03F0F00C 		and	ip, r3, #240
 721              		.loc 1 821 0
 722 0014 C4F20001 		movt	r1, #:upper16:1073758224
 723 0018 0022     		movs	r2, #0
 724              		.loc 1 823 0
 725 001a 44F20803 		movw	r3, #:lower16:1073758216
 726              		.loc 1 820 0
 727 001e 84F800C0 		strb	ip, [r4, #0]
 728              		.loc 1 823 0
ARM GAS  C:\Users\SUZUKI~1\AppData\Local\Temp\ccy86h0S.s 			page 43


 729 0022 C4F20003 		movt	r3, #:upper16:1073758216
 730              		.loc 1 821 0
 731 0026 0A70     		strb	r2, [r1, #0]
 732              		.loc 1 823 0
 733 0028 1C78     		ldrb	r4, [r3, #0]	@ zero_extendqisi2
 734              		.loc 1 826 0
 735 002a 44F20202 		movw	r2, #:lower16:1073758210
 736              		.loc 1 823 0
 737 002e 44F08001 		orr	r1, r4, #128
 738              		.loc 1 826 0
 739 0032 C4F20002 		movt	r2, #:upper16:1073758210
 740              		.loc 1 829 0
 741 0036 44F20104 		movw	r4, #:lower16:1073758209
 742              		.loc 1 823 0
 743 003a 1970     		strb	r1, [r3, #0]
 744              		.loc 1 829 0
 745 003c C4F20004 		movt	r4, #:upper16:1073758209
 746              		.loc 1 826 0
 747 0040 1080     		strh	r0, [r2, #0]	@ movhi
 748              		.loc 1 829 0
 749 0042 2078     		ldrb	r0, [r4, #0]	@ zero_extendqisi2
 750              	.LVL45:
 751 0044 40F00103 		orr	r3, r0, #1
 752 0048 2370     		strb	r3, [r4, #0]
 753              		.loc 1 830 0
 754 004a 10BC     		pop	{r4}
 755 004c 7047     		bx	lr
 756              		.cfi_endproc
 757              	.LFE14:
 758              		.size	CyBusClk_Internal_SetDivider, .-CyBusClk_Internal_SetDivider
 759              		.section	.text.CyBusClk_SetDivider,"ax",%progbits
 760              		.align	2
 761              		.global	CyBusClk_SetDivider
 762              		.thumb
 763              		.thumb_func
 764              		.type	CyBusClk_SetDivider, %function
 765              	CyBusClk_SetDivider:
 766              	.LFB15:
 767              		.loc 1 857 0
 768              		.cfi_startproc
 769              		@ args = 0, pretend = 0, frame = 0
 770              		@ frame_needed = 0, uses_anonymous_args = 0
 771              		@ link register save eliminated.
 772              	.LVL46:
 773              		.loc 1 862 0
 774 0000 44F20601 		movw	r1, #:lower16:1073758214
 775 0004 C4F20001 		movt	r1, #:upper16:1073758214
 776 0008 0B88     		ldrh	r3, [r1, #0]
 777              		.loc 1 865 0
 778 000a D0F10102 		rsbs	r2, r0, #1
 779 000e 38BF     		it	cc
 780 0010 0022     		movcc	r2, #0
 781 0012 002B     		cmp	r3, #0
 782 0014 14BF     		ite	ne
 783 0016 1346     		movne	r3, r2
 784 0018 42F00103 		orreq	r3, r2, #1
 785              		.loc 1 857 0
ARM GAS  C:\Users\SUZUKI~1\AppData\Local\Temp\ccy86h0S.s 			page 44


 786 001c 30B4     		push	{r4, r5}
 787              	.LCFI2:
 788              		.cfi_def_cfa_offset 8
 789              		.loc 1 865 0
 790 001e 002B     		cmp	r3, #0
 791 0020 3CD0     		beq	.L64
 792              		.cfi_offset 5, -4
 793              		.cfi_offset 4, -8
 794              		.loc 1 868 0
 795 0022 44F20404 		movw	r4, #:lower16:1073758212
 796 0026 C4F20004 		movt	r4, #:upper16:1073758212
 797 002a 2178     		ldrb	r1, [r4, #0]	@ zero_extendqisi2
 798              		.loc 1 869 0
 799 002c 0629     		cmp	r1, #6
 800              	.LVL47:
 801              	.LBB104:
 802              	.LBB105:
 803              		.loc 1 797 0
 804 002e 9CBF     		itt	ls
 805 0030 4FF0070C 		movls	ip, #7
 806 0034 84F800C0 		strbls	ip, [r4, #0]
 807              	.LBE105:
 808              	.LBE104:
 809              		.loc 1 875 0
 810 0038 002A     		cmp	r2, #0
 811 003a 55D1     		bne	.L70
 812              	.LBB106:
 813              	.LBB107:
 814              		.loc 1 820 0
 815 003c 44F21404 		movw	r4, #:lower16:1073758228
 816 0040 C4F20004 		movt	r4, #:upper16:1073758228
 817 0044 2378     		ldrb	r3, [r4, #0]	@ zero_extendqisi2
 818              		.loc 1 821 0
 819 0046 44F21005 		movw	r5, #:lower16:1073758224
 820              		.loc 1 820 0
 821 004a 03F0F00C 		and	ip, r3, #240
 822              		.loc 1 821 0
 823 004e C4F20005 		movt	r5, #:upper16:1073758224
 824              		.loc 1 823 0
 825 0052 44F20803 		movw	r3, #:lower16:1073758216
 826              		.loc 1 820 0
 827 0056 84F800C0 		strb	ip, [r4, #0]
 828              		.loc 1 823 0
 829 005a C4F20003 		movt	r3, #:upper16:1073758216
 830              		.loc 1 821 0
 831 005e 2A70     		strb	r2, [r5, #0]
 832              		.loc 1 823 0
 833 0060 1A78     		ldrb	r2, [r3, #0]	@ zero_extendqisi2
 834              		.loc 1 826 0
 835 0062 44F20204 		movw	r4, #:lower16:1073758210
 836              		.loc 1 823 0
 837 0066 42F0800C 		orr	ip, r2, #128
 838              		.loc 1 826 0
 839 006a C4F20004 		movt	r4, #:upper16:1073758210
 840              		.loc 1 829 0
 841 006e 44F20102 		movw	r2, #:lower16:1073758209
 842              		.loc 1 823 0
ARM GAS  C:\Users\SUZUKI~1\AppData\Local\Temp\ccy86h0S.s 			page 45


 843 0072 83F800C0 		strb	ip, [r3, #0]
 844              		.loc 1 829 0
 845 0076 C4F20002 		movt	r2, #:upper16:1073758209
 846              		.loc 1 826 0
 847 007a 2080     		strh	r0, [r4, #0]	@ movhi
 848              		.loc 1 829 0
 849 007c 92F800C0 		ldrb	ip, [r2, #0]	@ zero_extendqisi2
 850 0080 4CF00100 		orr	r0, ip, #1
 851              	.LVL48:
 852 0084 1070     		strb	r0, [r2, #0]
 853              	.LBE107:
 854              	.LBE106:
 855              		.loc 1 884 0
 856 0086 93F800C0 		ldrb	ip, [r3, #0]	@ zero_extendqisi2
 857 008a 0CF0BF02 		and	r2, ip, #191
 858 008e 1A70     		strb	r2, [r3, #0]
 859              	.L67:
 860              	.LBB108:
 861              	.LBB109:
 862              		.loc 1 797 0
 863 0090 44F20400 		movw	r0, #:lower16:1073758212
 864 0094 C4F20000 		movt	r0, #:upper16:1073758212
 865 0098 0170     		strb	r1, [r0, #0]
 866 009a 23E0     		b	.L69
 867              	.LVL49:
 868              	.L64:
 869              	.LBE109:
 870              	.LBE108:
 871              	.LBB110:
 872              	.LBB111:
 873              		.loc 1 820 0
 874 009c 44F21401 		movw	r1, #:lower16:1073758228
 875 00a0 C4F20001 		movt	r1, #:upper16:1073758228
 876 00a4 0A78     		ldrb	r2, [r1, #0]	@ zero_extendqisi2
 877              		.loc 1 821 0
 878 00a6 44F21004 		movw	r4, #:lower16:1073758224
 879              		.loc 1 820 0
 880 00aa 02F0F00C 		and	ip, r2, #240
 881              		.loc 1 821 0
 882 00ae C4F20004 		movt	r4, #:upper16:1073758224
 883              		.loc 1 823 0
 884 00b2 44F20802 		movw	r2, #:lower16:1073758216
 885              		.loc 1 820 0
 886 00b6 81F800C0 		strb	ip, [r1, #0]
 887              		.loc 1 823 0
 888 00ba C4F20002 		movt	r2, #:upper16:1073758216
 889              		.loc 1 821 0
 890 00be 2370     		strb	r3, [r4, #0]
 891              		.loc 1 823 0
 892 00c0 1378     		ldrb	r3, [r2, #0]	@ zero_extendqisi2
 893              		.loc 1 826 0
 894 00c2 44F20201 		movw	r1, #:lower16:1073758210
 895              		.loc 1 823 0
 896 00c6 43F0800C 		orr	ip, r3, #128
 897              		.loc 1 826 0
 898 00ca C4F20001 		movt	r1, #:upper16:1073758210
 899              		.loc 1 829 0
ARM GAS  C:\Users\SUZUKI~1\AppData\Local\Temp\ccy86h0S.s 			page 46


 900 00ce 44F20103 		movw	r3, #:lower16:1073758209
 901              		.loc 1 823 0
 902 00d2 82F800C0 		strb	ip, [r2, #0]
 903              		.loc 1 829 0
 904 00d6 C4F20003 		movt	r3, #:upper16:1073758209
 905              		.loc 1 826 0
 906 00da 0880     		strh	r0, [r1, #0]	@ movhi
 907              		.loc 1 829 0
 908 00dc 1A78     		ldrb	r2, [r3, #0]	@ zero_extendqisi2
 909 00de 42F00101 		orr	r1, r2, #1
 910 00e2 1970     		strb	r1, [r3, #0]
 911              	.LVL50:
 912              	.L69:
 913              	.LBE111:
 914              	.LBE110:
 915              		.loc 1 894 0
 916 00e4 30BC     		pop	{r4, r5}
 917 00e6 7047     		bx	lr
 918              	.L70:
 919              		.loc 1 878 0
 920 00e8 44F20803 		movw	r3, #:lower16:1073758216
 921 00ec C4F20003 		movt	r3, #:upper16:1073758216
 922 00f0 1C78     		ldrb	r4, [r3, #0]	@ zero_extendqisi2
 923              	.LBB112:
 924              	.LBB113:
 925              		.loc 1 820 0
 926 00f2 44F21402 		movw	r2, #:lower16:1073758228
 927              	.LBE113:
 928              	.LBE112:
 929              		.loc 1 878 0
 930 00f6 44F04000 		orr	r0, r4, #64
 931              	.LVL51:
 932 00fa 1870     		strb	r0, [r3, #0]
 933              	.LBB115:
 934              	.LBB114:
 935              		.loc 1 820 0
 936 00fc C4F20002 		movt	r2, #:upper16:1073758228
 937 0100 92F800C0 		ldrb	ip, [r2, #0]	@ zero_extendqisi2
 938              		.loc 1 821 0
 939 0104 44F21000 		movw	r0, #:lower16:1073758224
 940              		.loc 1 820 0
 941 0108 0CF0F004 		and	r4, ip, #240
 942              		.loc 1 821 0
 943 010c C4F20000 		movt	r0, #:upper16:1073758224
 944 0110 4FF0000C 		mov	ip, #0
 945              		.loc 1 820 0
 946 0114 1470     		strb	r4, [r2, #0]
 947              		.loc 1 821 0
 948 0116 80F800C0 		strb	ip, [r0, #0]
 949              		.loc 1 823 0
 950 011a 1C78     		ldrb	r4, [r3, #0]	@ zero_extendqisi2
 951              		.loc 1 826 0
 952 011c 44F20200 		movw	r0, #:lower16:1073758210
 953 0120 C4F20000 		movt	r0, #:upper16:1073758210
 954              		.loc 1 823 0
 955 0124 44F08004 		orr	r4, r4, #128
 956              		.loc 1 829 0
ARM GAS  C:\Users\SUZUKI~1\AppData\Local\Temp\ccy86h0S.s 			page 47


 957 0128 44F20102 		movw	r2, #:lower16:1073758209
 958              		.loc 1 823 0
 959 012c 1C70     		strb	r4, [r3, #0]
 960              		.loc 1 829 0
 961 012e C4F20002 		movt	r2, #:upper16:1073758209
 962              		.loc 1 826 0
 963 0132 A0F800C0 		strh	ip, [r0, #0]	@ movhi
 964              		.loc 1 829 0
 965 0136 92F800C0 		ldrb	ip, [r2, #0]	@ zero_extendqisi2
 966 013a 4CF00100 		orr	r0, ip, #1
 967 013e 1070     		strb	r0, [r2, #0]
 968 0140 A6E7     		b	.L67
 969              	.LBE114:
 970              	.LBE115:
 971              		.cfi_endproc
 972              	.LFE15:
 973              		.size	CyBusClk_SetDivider, .-CyBusClk_SetDivider
 974 0142 00BF     		.section	.text.CyUsbClk_SetSource,"ax",%progbits
 975              		.align	2
 976              		.global	CyUsbClk_SetSource
 977              		.thumb
 978              		.thumb_func
 979              		.type	CyUsbClk_SetSource, %function
 980              	CyUsbClk_SetSource:
 981              	.LFB16:
 982              		.loc 1 951 0
 983              		.cfi_startproc
 984              		@ args = 0, pretend = 0, frame = 0
 985              		@ frame_needed = 0, uses_anonymous_args = 0
 986              		@ link register save eliminated.
 987              	.LVL52:
 988              		.loc 1 952 0
 989 0000 44F20903 		movw	r3, #:lower16:1073758217
 990 0004 C4F20003 		movt	r3, #:upper16:1073758217
 991 0008 93F800C0 		ldrb	ip, [r3, #0]	@ zero_extendqisi2
 992 000c 00F00300 		and	r0, r0, #3
 993              	.LVL53:
 994 0010 0CF0FC01 		and	r1, ip, #252
 995 0014 40EA0102 		orr	r2, r0, r1
 996 0018 1A70     		strb	r2, [r3, #0]
 997              		.loc 1 954 0
 998 001a 7047     		bx	lr
 999              		.cfi_endproc
 1000              	.LFE16:
 1001              		.size	CyUsbClk_SetSource, .-CyUsbClk_SetSource
 1002              		.section	.text.CyILO_Start1K,"ax",%progbits
 1003              		.align	2
 1004              		.global	CyILO_Start1K
 1005              		.thumb
 1006              		.thumb_func
 1007              		.type	CyILO_Start1K, %function
 1008              	CyILO_Start1K:
 1009              	.LFB17:
 1010              		.loc 1 976 0
 1011              		.cfi_startproc
 1012              		@ args = 0, pretend = 0, frame = 0
 1013              		@ frame_needed = 0, uses_anonymous_args = 0
ARM GAS  C:\Users\SUZUKI~1\AppData\Local\Temp\ccy86h0S.s 			page 48


 1014              		@ link register save eliminated.
 1015              		.loc 1 978 0
 1016 0000 44F20033 		movw	r3, #:lower16:1073758976
 1017 0004 C4F20003 		movt	r3, #:upper16:1073758976
 1018 0008 1878     		ldrb	r0, [r3, #0]	@ zero_extendqisi2
 1019 000a 40F00202 		orr	r2, r0, #2
 1020 000e 1A70     		strb	r2, [r3, #0]
 1021              		.loc 1 979 0
 1022 0010 7047     		bx	lr
 1023              		.cfi_endproc
 1024              	.LFE17:
 1025              		.size	CyILO_Start1K, .-CyILO_Start1K
 1026              		.section	.text.CyILO_Stop1K,"ax",%progbits
 1027              		.align	2
 1028              		.global	CyILO_Stop1K
 1029              		.thumb
 1030              		.thumb_func
 1031              		.type	CyILO_Stop1K, %function
 1032              	CyILO_Stop1K:
 1033              	.LFB18:
 1034              		.loc 1 1004 0
 1035              		.cfi_startproc
 1036              		@ args = 0, pretend = 0, frame = 0
 1037              		@ frame_needed = 0, uses_anonymous_args = 0
 1038              		@ link register save eliminated.
 1039              		.loc 1 1006 0
 1040 0000 44F20033 		movw	r3, #:lower16:1073758976
 1041 0004 C4F20003 		movt	r3, #:upper16:1073758976
 1042 0008 1878     		ldrb	r0, [r3, #0]	@ zero_extendqisi2
 1043 000a 00F0FD02 		and	r2, r0, #253
 1044 000e 1A70     		strb	r2, [r3, #0]
 1045              		.loc 1 1007 0
 1046 0010 7047     		bx	lr
 1047              		.cfi_endproc
 1048              	.LFE18:
 1049              		.size	CyILO_Stop1K, .-CyILO_Stop1K
 1050              		.section	.text.CyILO_Start100K,"ax",%progbits
 1051              		.align	2
 1052              		.global	CyILO_Start100K
 1053              		.thumb
 1054              		.thumb_func
 1055              		.type	CyILO_Start100K, %function
 1056              	CyILO_Start100K:
 1057              	.LFB19:
 1058              		.loc 1 1025 0
 1059              		.cfi_startproc
 1060              		@ args = 0, pretend = 0, frame = 0
 1061              		@ frame_needed = 0, uses_anonymous_args = 0
 1062              		@ link register save eliminated.
 1063              		.loc 1 1027 0
 1064 0000 44F20033 		movw	r3, #:lower16:1073758976
 1065 0004 C4F20003 		movt	r3, #:upper16:1073758976
 1066 0008 1878     		ldrb	r0, [r3, #0]	@ zero_extendqisi2
 1067 000a 40F00402 		orr	r2, r0, #4
 1068 000e 1A70     		strb	r2, [r3, #0]
 1069              		.loc 1 1028 0
 1070 0010 7047     		bx	lr
ARM GAS  C:\Users\SUZUKI~1\AppData\Local\Temp\ccy86h0S.s 			page 49


 1071              		.cfi_endproc
 1072              	.LFE19:
 1073              		.size	CyILO_Start100K, .-CyILO_Start100K
 1074              		.section	.text.CyILO_Stop100K,"ax",%progbits
 1075              		.align	2
 1076              		.global	CyILO_Stop100K
 1077              		.thumb
 1078              		.thumb_func
 1079              		.type	CyILO_Stop100K, %function
 1080              	CyILO_Stop100K:
 1081              	.LFB20:
 1082              		.loc 1 1046 0
 1083              		.cfi_startproc
 1084              		@ args = 0, pretend = 0, frame = 0
 1085              		@ frame_needed = 0, uses_anonymous_args = 0
 1086              		@ link register save eliminated.
 1087              		.loc 1 1048 0
 1088 0000 44F20033 		movw	r3, #:lower16:1073758976
 1089 0004 C4F20003 		movt	r3, #:upper16:1073758976
 1090 0008 1878     		ldrb	r0, [r3, #0]	@ zero_extendqisi2
 1091 000a 00F0FB02 		and	r2, r0, #251
 1092 000e 1A70     		strb	r2, [r3, #0]
 1093              		.loc 1 1049 0
 1094 0010 7047     		bx	lr
 1095              		.cfi_endproc
 1096              	.LFE20:
 1097              		.size	CyILO_Stop100K, .-CyILO_Stop100K
 1098              		.section	.text.CyILO_Enable33K,"ax",%progbits
 1099              		.align	2
 1100              		.global	CyILO_Enable33K
 1101              		.thumb
 1102              		.thumb_func
 1103              		.type	CyILO_Enable33K, %function
 1104              	CyILO_Enable33K:
 1105              	.LFB21:
 1106              		.loc 1 1070 0
 1107              		.cfi_startproc
 1108              		@ args = 0, pretend = 0, frame = 0
 1109              		@ frame_needed = 0, uses_anonymous_args = 0
 1110              		@ link register save eliminated.
 1111              		.loc 1 1072 0
 1112 0000 44F20033 		movw	r3, #:lower16:1073758976
 1113 0004 C4F20003 		movt	r3, #:upper16:1073758976
 1114 0008 1878     		ldrb	r0, [r3, #0]	@ zero_extendqisi2
 1115 000a 40F02002 		orr	r2, r0, #32
 1116 000e 1A70     		strb	r2, [r3, #0]
 1117              		.loc 1 1073 0
 1118 0010 7047     		bx	lr
 1119              		.cfi_endproc
 1120              	.LFE21:
 1121              		.size	CyILO_Enable33K, .-CyILO_Enable33K
 1122              		.section	.text.CyILO_Disable33K,"ax",%progbits
 1123              		.align	2
 1124              		.global	CyILO_Disable33K
 1125              		.thumb
 1126              		.thumb_func
 1127              		.type	CyILO_Disable33K, %function
ARM GAS  C:\Users\SUZUKI~1\AppData\Local\Temp\ccy86h0S.s 			page 50


 1128              	CyILO_Disable33K:
 1129              	.LFB22:
 1130              		.loc 1 1094 0
 1131              		.cfi_startproc
 1132              		@ args = 0, pretend = 0, frame = 0
 1133              		@ frame_needed = 0, uses_anonymous_args = 0
 1134              		@ link register save eliminated.
 1135              		.loc 1 1096 0
 1136 0000 44F20033 		movw	r3, #:lower16:1073758976
 1137 0004 C4F20003 		movt	r3, #:upper16:1073758976
 1138 0008 1878     		ldrb	r0, [r3, #0]	@ zero_extendqisi2
 1139 000a 00F0DF02 		and	r2, r0, #223
 1140 000e 1A70     		strb	r2, [r3, #0]
 1141              		.loc 1 1097 0
 1142 0010 7047     		bx	lr
 1143              		.cfi_endproc
 1144              	.LFE22:
 1145              		.size	CyILO_Disable33K, .-CyILO_Disable33K
 1146              		.section	.text.CyILO_SetSource,"ax",%progbits
 1147              		.align	2
 1148              		.global	CyILO_SetSource
 1149              		.thumb
 1150              		.thumb_func
 1151              		.type	CyILO_SetSource, %function
 1152              	CyILO_SetSource:
 1153              	.LFB23:
 1154              		.loc 1 1119 0
 1155              		.cfi_startproc
 1156              		@ args = 0, pretend = 0, frame = 0
 1157              		@ frame_needed = 0, uses_anonymous_args = 0
 1158              		@ link register save eliminated.
 1159              	.LVL54:
 1160              		.loc 1 1120 0
 1161 0000 44F20003 		movw	r3, #:lower16:1073758208
 1162 0004 C4F20003 		movt	r3, #:upper16:1073758208
 1163 0008 93F800C0 		ldrb	ip, [r3, #0]	@ zero_extendqisi2
 1164 000c 8200     		lsls	r2, r0, #2
 1165 000e 02F00C00 		and	r0, r2, #12
 1166              	.LVL55:
 1167 0012 0CF0F301 		and	r1, ip, #243
 1168 0016 40EA0102 		orr	r2, r0, r1
 1169 001a 1A70     		strb	r2, [r3, #0]
 1170              		.loc 1 1122 0
 1171 001c 7047     		bx	lr
 1172              		.cfi_endproc
 1173              	.LFE23:
 1174              		.size	CyILO_SetSource, .-CyILO_SetSource
 1175 001e 00BF     		.section	.text.CyILO_SetPowerMode,"ax",%progbits
 1176              		.align	2
 1177              		.global	CyILO_SetPowerMode
 1178              		.thumb
 1179              		.thumb_func
 1180              		.type	CyILO_SetPowerMode, %function
 1181              	CyILO_SetPowerMode:
 1182              	.LFB24:
 1183              		.loc 1 1143 0
 1184              		.cfi_startproc
ARM GAS  C:\Users\SUZUKI~1\AppData\Local\Temp\ccy86h0S.s 			page 51


 1185              		@ args = 0, pretend = 0, frame = 0
 1186              		@ frame_needed = 0, uses_anonymous_args = 0
 1187              		@ link register save eliminated.
 1188              	.LVL56:
 1189              		.loc 1 1147 0
 1190 0000 44F20033 		movw	r3, #:lower16:1073758976
 1191 0004 C4F20003 		movt	r3, #:upper16:1073758976
 1192 0008 1A78     		ldrb	r2, [r3, #0]	@ zero_extendqisi2
 1193              		.loc 1 1150 0
 1194 000a 28B9     		cbnz	r0, .L91
 1195              		.loc 1 1156 0
 1196 000c 02F0EF00 		and	r0, r2, #239
 1197              	.LVL57:
 1198 0010 1870     		strb	r0, [r3, #0]
 1199              		.loc 1 1161 0
 1200 0012 C2F30010 		ubfx	r0, r2, #4, #1
 1201 0016 7047     		bx	lr
 1202              	.LVL58:
 1203              	.L91:
 1204              		.loc 1 1152 0
 1205 0018 42F01001 		orr	r1, r2, #16
 1206              	.LVL59:
 1207 001c 1970     		strb	r1, [r3, #0]
 1208              		.loc 1 1161 0
 1209 001e C2F30010 		ubfx	r0, r2, #4, #1
 1210              	.LVL60:
 1211 0022 7047     		bx	lr
 1212              		.cfi_endproc
 1213              	.LFE24:
 1214              		.size	CyILO_SetPowerMode, .-CyILO_SetPowerMode
 1215              		.section	.text.CyXTAL_32KHZ_Stop,"ax",%progbits
 1216              		.align	2
 1217              		.global	CyXTAL_32KHZ_Stop
 1218              		.thumb
 1219              		.thumb_func
 1220              		.type	CyXTAL_32KHZ_Stop, %function
 1221              	CyXTAL_32KHZ_Stop:
 1222              	.LFB26:
 1223              		.loc 1 1222 0
 1224              		.cfi_startproc
 1225              		@ args = 0, pretend = 0, frame = 0
 1226              		@ frame_needed = 0, uses_anonymous_args = 0
 1227              		@ link register save eliminated.
 1228              		.loc 1 1223 0
 1229 0000 44F20A30 		movw	r0, #:lower16:1073758986
 1230              		.loc 1 1224 0
 1231 0004 44F29863 		movw	r3, #:lower16:1073759896
 1232              		.loc 1 1223 0
 1233 0008 C4F20000 		movt	r0, #:upper16:1073758986
 1234              		.loc 1 1224 0
 1235 000c C4F20003 		movt	r3, #:upper16:1073759896
 1236              		.loc 1 1223 0
 1237 0010 6FF00C0C 		mvn	ip, #12
 1238              		.loc 1 1224 0
 1239 0014 0021     		movs	r1, #0
 1240              		.loc 1 1225 0
 1241 0016 44F20932 		movw	r2, #:lower16:1073758985
ARM GAS  C:\Users\SUZUKI~1\AppData\Local\Temp\ccy86h0S.s 			page 52


 1242              		.loc 1 1223 0
 1243 001a 80F800C0 		strb	ip, [r0, #0]
 1244              		.loc 1 1225 0
 1245 001e C4F20002 		movt	r2, #:upper16:1073758985
 1246              		.loc 1 1224 0
 1247 0022 1970     		strb	r1, [r3, #0]
 1248              		.loc 1 1225 0
 1249 0024 1078     		ldrb	r0, [r2, #0]	@ zero_extendqisi2
 1250              		.loc 1 1226 0
 1251 0026 44F20833 		movw	r3, #:lower16:1073758984
 1252              		.loc 1 1225 0
 1253 002a 00F0F30C 		and	ip, r0, #243
 1254 002e 4CF00401 		orr	r1, ip, #4
 1255 0032 1170     		strb	r1, [r2, #0]
 1256              		.loc 1 1226 0
 1257 0034 C4F20003 		movt	r3, #:upper16:1073758984
 1258 0038 1878     		ldrb	r0, [r3, #0]	@ zero_extendqisi2
 1259 003a 00F0FC02 		and	r2, r0, #252
 1260 003e 1A70     		strb	r2, [r3, #0]
 1261              		.loc 1 1231 0
 1262 0040 7047     		bx	lr
 1263              		.cfi_endproc
 1264              	.LFE26:
 1265              		.size	CyXTAL_32KHZ_Stop, .-CyXTAL_32KHZ_Stop
 1266 0042 00BF     		.section	.text.CyXTAL_32KHZ_ReadStatus,"ax",%progbits
 1267              		.align	2
 1268              		.global	CyXTAL_32KHZ_ReadStatus
 1269              		.thumb
 1270              		.thumb_func
 1271              		.type	CyXTAL_32KHZ_ReadStatus, %function
 1272              	CyXTAL_32KHZ_ReadStatus:
 1273              	.LFB27:
 1274              		.loc 1 1252 0
 1275              		.cfi_startproc
 1276              		@ args = 0, pretend = 0, frame = 0
 1277              		@ frame_needed = 0, uses_anonymous_args = 0
 1278              		@ link register save eliminated.
 1279              		.loc 1 1253 0
 1280 0000 44F20833 		movw	r3, #:lower16:1073758984
 1281 0004 C4F20003 		movt	r3, #:upper16:1073758984
 1282 0008 1878     		ldrb	r0, [r3, #0]	@ zero_extendqisi2
 1283              		.loc 1 1254 0
 1284 000a 00F02000 		and	r0, r0, #32
 1285 000e 7047     		bx	lr
 1286              		.cfi_endproc
 1287              	.LFE27:
 1288              		.size	CyXTAL_32KHZ_ReadStatus, .-CyXTAL_32KHZ_ReadStatus
 1289              		.section	.text.CyXTAL_Stop,"ax",%progbits
 1290              		.align	2
 1291              		.global	CyXTAL_Stop
 1292              		.thumb
 1293              		.thumb_func
 1294              		.type	CyXTAL_Stop, %function
 1295              	CyXTAL_Stop:
 1296              	.LFB30:
 1297              		.loc 1 1440 0
 1298              		.cfi_startproc
ARM GAS  C:\Users\SUZUKI~1\AppData\Local\Temp\ccy86h0S.s 			page 53


 1299              		@ args = 0, pretend = 0, frame = 0
 1300              		@ frame_needed = 0, uses_anonymous_args = 0
 1301              		@ link register save eliminated.
 1302              		.loc 1 1442 0
 1303 0000 44F21023 		movw	r3, #:lower16:1073758736
 1304 0004 C4F20003 		movt	r3, #:upper16:1073758736
 1305 0008 1878     		ldrb	r0, [r3, #0]	@ zero_extendqisi2
 1306 000a 00F0FE02 		and	r2, r0, #254
 1307 000e 1A70     		strb	r2, [r3, #0]
 1308              		.loc 1 1443 0
 1309 0010 7047     		bx	lr
 1310              		.cfi_endproc
 1311              	.LFE30:
 1312              		.size	CyXTAL_Stop, .-CyXTAL_Stop
 1313              		.section	.text.CyXTAL_SetStartup,"ax",%progbits
 1314              		.align	2
 1315              		.global	CyXTAL_SetStartup
 1316              		.thumb
 1317              		.thumb_func
 1318              		.type	CyXTAL_SetStartup, %function
 1319              	CyXTAL_SetStartup:
 1320              	.LFB31:
 1321              		.loc 1 1586 0
 1322              		.cfi_startproc
 1323              		@ args = 0, pretend = 0, frame = 0
 1324              		@ frame_needed = 0, uses_anonymous_args = 0
 1325              		@ link register save eliminated.
 1326              	.LVL61:
 1327              		.loc 1 1587 0
 1328 0000 44F21223 		movw	r3, #:lower16:1073758738
 1329 0004 C4F20003 		movt	r3, #:upper16:1073758738
 1330 0008 93F800C0 		ldrb	ip, [r3, #0]	@ zero_extendqisi2
 1331 000c 00F01F00 		and	r0, r0, #31
 1332              	.LVL62:
 1333 0010 0CF0E001 		and	r1, ip, #224
 1334 0014 40EA0102 		orr	r2, r0, r1
 1335 0018 1A70     		strb	r2, [r3, #0]
 1336              		.loc 1 1589 0
 1337 001a 7047     		bx	lr
 1338              		.cfi_endproc
 1339              	.LFE31:
 1340              		.size	CyXTAL_SetStartup, .-CyXTAL_SetStartup
 1341              		.section	.text.CyHalt,"ax",%progbits
 1342              		.align	2
 1343              		.global	CyHalt
 1344              		.thumb
 1345              		.thumb_func
 1346              		.type	CyHalt, %function
 1347              	CyHalt:
 1348              	.LFB32:
 1349              		.loc 1 1656 0
 1350              		.cfi_startproc
 1351              		@ args = 0, pretend = 0, frame = 0
 1352              		@ frame_needed = 0, uses_anonymous_args = 0
 1353              		@ link register save eliminated.
 1354              	.LVL63:
 1355              		.loc 1 1662 0
ARM GAS  C:\Users\SUZUKI~1\AppData\Local\Temp\ccy86h0S.s 			page 54


 1356              	@ 1662 ".\Generated_Source\PSoC5\CyLib.c" 1
 1357 0000 01BE     		    bkpt    1
 1358              	@ 0 "" 2
1663:.\Generated_Source\PSoC5/CyLib.c ****     #elif defined(__C51__)
1664:.\Generated_Source\PSoC5/CyLib.c ****         CYDEV_HALT_CPU;
1665:.\Generated_Source\PSoC5/CyLib.c ****     #endif  /* (__ARMCC_VERSION) */
1666:.\Generated_Source\PSoC5/CyLib.c **** }
 1359              		.loc 1 1666 0
 1360              		.thumb
 1361 0002 7047     		bx	lr
 1362              		.cfi_endproc
 1363              	.LFE32:
 1364              		.size	CyHalt, .-CyHalt
 1365              		.section	.text.CySoftwareReset,"ax",%progbits
 1366              		.align	2
 1367              		.global	CySoftwareReset
 1368              		.thumb
 1369              		.thumb_func
 1370              		.type	CySoftwareReset, %function
 1371              	CySoftwareReset:
 1372              	.LFB33:
1667:.\Generated_Source\PSoC5/CyLib.c **** 
1668:.\Generated_Source\PSoC5/CyLib.c **** 
1669:.\Generated_Source\PSoC5/CyLib.c **** /*******************************************************************************
1670:.\Generated_Source\PSoC5/CyLib.c **** * Function Name: CySoftwareReset
1671:.\Generated_Source\PSoC5/CyLib.c **** ********************************************************************************
1672:.\Generated_Source\PSoC5/CyLib.c **** *
1673:.\Generated_Source\PSoC5/CyLib.c **** * Summary:
1674:.\Generated_Source\PSoC5/CyLib.c **** *  Forces a software reset of the device.
1675:.\Generated_Source\PSoC5/CyLib.c **** *
1676:.\Generated_Source\PSoC5/CyLib.c **** * Parameters:
1677:.\Generated_Source\PSoC5/CyLib.c **** *  None
1678:.\Generated_Source\PSoC5/CyLib.c **** *
1679:.\Generated_Source\PSoC5/CyLib.c **** * Return:
1680:.\Generated_Source\PSoC5/CyLib.c **** *  None
1681:.\Generated_Source\PSoC5/CyLib.c **** *
1682:.\Generated_Source\PSoC5/CyLib.c **** *******************************************************************************/
1683:.\Generated_Source\PSoC5/CyLib.c **** void CySoftwareReset(void) 
1684:.\Generated_Source\PSoC5/CyLib.c **** {
 1373              		.loc 1 1684 0
 1374              		.cfi_startproc
 1375              		@ args = 0, pretend = 0, frame = 0
 1376              		@ frame_needed = 0, uses_anonymous_args = 0
 1377              		@ link register save eliminated.
1685:.\Generated_Source\PSoC5/CyLib.c ****     /* Perform software reset */
1686:.\Generated_Source\PSoC5/CyLib.c ****     *RESET_CR2 = 0x1;
 1378              		.loc 1 1686 0
 1379 0000 44F2F663 		movw	r3, #:lower16:1073759990
 1380 0004 C4F20003 		movt	r3, #:upper16:1073759990
 1381 0008 0122     		movs	r2, #1
 1382 000a 1A70     		strb	r2, [r3, #0]
1687:.\Generated_Source\PSoC5/CyLib.c **** }
 1383              		.loc 1 1687 0
 1384 000c 7047     		bx	lr
 1385              		.cfi_endproc
 1386              	.LFE33:
 1387              		.size	CySoftwareReset, .-CySoftwareReset
ARM GAS  C:\Users\SUZUKI~1\AppData\Local\Temp\ccy86h0S.s 			page 55


 1388 000e 00BF     		.section	.text.CyDelayFreq,"ax",%progbits
 1389              		.align	2
 1390              		.global	CyDelayFreq
 1391              		.thumb
 1392              		.thumb_func
 1393              		.type	CyDelayFreq, %function
 1394              	CyDelayFreq:
 1395              	.LFB36:
1688:.\Generated_Source\PSoC5/CyLib.c **** 
1689:.\Generated_Source\PSoC5/CyLib.c **** 
1690:.\Generated_Source\PSoC5/CyLib.c **** /*******************************************************************************
1691:.\Generated_Source\PSoC5/CyLib.c **** * Function Name: CyDelay
1692:.\Generated_Source\PSoC5/CyLib.c **** ********************************************************************************
1693:.\Generated_Source\PSoC5/CyLib.c **** *
1694:.\Generated_Source\PSoC5/CyLib.c **** * Summary:
1695:.\Generated_Source\PSoC5/CyLib.c **** *  Blocks for milliseconds.
1696:.\Generated_Source\PSoC5/CyLib.c **** *
1697:.\Generated_Source\PSoC5/CyLib.c **** *  Note:
1698:.\Generated_Source\PSoC5/CyLib.c **** *  CyDelay has been implemented with the instruction cache assumed enabled. When
1699:.\Generated_Source\PSoC5/CyLib.c **** *  instruction cache is disabled on PSoC5, CyDelay will be two times larger. For
1700:.\Generated_Source\PSoC5/CyLib.c **** *  example, with instruction cache disabled CyDelay(100) would result in about
1701:.\Generated_Source\PSoC5/CyLib.c **** *  200 ms delay instead of 100 ms.
1702:.\Generated_Source\PSoC5/CyLib.c **** *
1703:.\Generated_Source\PSoC5/CyLib.c **** * Parameters:
1704:.\Generated_Source\PSoC5/CyLib.c **** *  milliseconds: number of milliseconds to delay.
1705:.\Generated_Source\PSoC5/CyLib.c **** *
1706:.\Generated_Source\PSoC5/CyLib.c **** * Return:
1707:.\Generated_Source\PSoC5/CyLib.c **** *   None
1708:.\Generated_Source\PSoC5/CyLib.c **** *
1709:.\Generated_Source\PSoC5/CyLib.c **** *******************************************************************************/
1710:.\Generated_Source\PSoC5/CyLib.c **** void CyDelay(uint32 milliseconds) CYREENTRANT
1711:.\Generated_Source\PSoC5/CyLib.c **** {
1712:.\Generated_Source\PSoC5/CyLib.c ****     while (milliseconds > 32768)
1713:.\Generated_Source\PSoC5/CyLib.c ****     {
1714:.\Generated_Source\PSoC5/CyLib.c ****         /***********************************************************************
1715:.\Generated_Source\PSoC5/CyLib.c ****         * This loop prevents overflow.At 100MHz, milliseconds * delay_freq_khz
1716:.\Generated_Source\PSoC5/CyLib.c ****         * overflows at about 42 seconds.
1717:.\Generated_Source\PSoC5/CyLib.c ****         ***********************************************************************/
1718:.\Generated_Source\PSoC5/CyLib.c ****         CyDelayCycles(cydelay_32k_ms);
1719:.\Generated_Source\PSoC5/CyLib.c ****         milliseconds -= 32768;
1720:.\Generated_Source\PSoC5/CyLib.c ****     }
1721:.\Generated_Source\PSoC5/CyLib.c **** 
1722:.\Generated_Source\PSoC5/CyLib.c ****     CyDelayCycles(milliseconds * cydelay_freq_khz);
1723:.\Generated_Source\PSoC5/CyLib.c **** }
1724:.\Generated_Source\PSoC5/CyLib.c **** 
1725:.\Generated_Source\PSoC5/CyLib.c **** 
1726:.\Generated_Source\PSoC5/CyLib.c **** #if(!CY_PSOC3)
1727:.\Generated_Source\PSoC5/CyLib.c **** 
1728:.\Generated_Source\PSoC5/CyLib.c ****     /* For PSoC3 devices function is defined in CyBootAsmKeil.a51 file */
1729:.\Generated_Source\PSoC5/CyLib.c **** 
1730:.\Generated_Source\PSoC5/CyLib.c ****     /*******************************************************************************
1731:.\Generated_Source\PSoC5/CyLib.c ****     * Function Name: CyDelayUs
1732:.\Generated_Source\PSoC5/CyLib.c ****     ********************************************************************************
1733:.\Generated_Source\PSoC5/CyLib.c ****     *
1734:.\Generated_Source\PSoC5/CyLib.c ****     * Summary:
1735:.\Generated_Source\PSoC5/CyLib.c ****     *  Blocks for microseconds.
1736:.\Generated_Source\PSoC5/CyLib.c ****     *
ARM GAS  C:\Users\SUZUKI~1\AppData\Local\Temp\ccy86h0S.s 			page 56


1737:.\Generated_Source\PSoC5/CyLib.c ****     *  Note:
1738:.\Generated_Source\PSoC5/CyLib.c ****     *   CyDelay has been implemented with the instruction cache assumed enabled.
1739:.\Generated_Source\PSoC5/CyLib.c ****     *   When instruction cache is disabled on PSoC5, CyDelayUs will be two times
1740:.\Generated_Source\PSoC5/CyLib.c ****     *   larger. Ex: With instruction cache disabled CyDelayUs(100) would result
1741:.\Generated_Source\PSoC5/CyLib.c ****     *   in about 200us delay instead of 100us.
1742:.\Generated_Source\PSoC5/CyLib.c ****     *
1743:.\Generated_Source\PSoC5/CyLib.c ****     * Parameters:
1744:.\Generated_Source\PSoC5/CyLib.c ****     *  uint16 microseconds: number of microseconds to delay.
1745:.\Generated_Source\PSoC5/CyLib.c ****     *
1746:.\Generated_Source\PSoC5/CyLib.c ****     * Return:
1747:.\Generated_Source\PSoC5/CyLib.c ****     *  None
1748:.\Generated_Source\PSoC5/CyLib.c ****     *
1749:.\Generated_Source\PSoC5/CyLib.c ****     * Side Effects:
1750:.\Generated_Source\PSoC5/CyLib.c ****     *  CyDelayUS has been implemented with the instruction cache assumed enabled.
1751:.\Generated_Source\PSoC5/CyLib.c ****     *  When instruction cache is disabled on PSoC 5, CyDelayUs will be two times
1752:.\Generated_Source\PSoC5/CyLib.c ****     *  larger. For example, with instruction cache disabled CyDelayUs(100) would
1753:.\Generated_Source\PSoC5/CyLib.c ****     *  result in about 200 us delay instead of 100 us.
1754:.\Generated_Source\PSoC5/CyLib.c ****     *
1755:.\Generated_Source\PSoC5/CyLib.c ****     *  If the bus clock frequency is a small non-integer number, the actual delay
1756:.\Generated_Source\PSoC5/CyLib.c ****     *  can be up to twice as long as the nominal value. The actual delay cannot be
1757:.\Generated_Source\PSoC5/CyLib.c ****     *  shorter than the nominal one.
1758:.\Generated_Source\PSoC5/CyLib.c ****     *******************************************************************************/
1759:.\Generated_Source\PSoC5/CyLib.c ****     void CyDelayUs(uint16 microseconds) CYREENTRANT
1760:.\Generated_Source\PSoC5/CyLib.c ****     {
1761:.\Generated_Source\PSoC5/CyLib.c ****         CyDelayCycles((uint32)microseconds * cydelay_freq_mhz);
1762:.\Generated_Source\PSoC5/CyLib.c ****     }
1763:.\Generated_Source\PSoC5/CyLib.c **** 
1764:.\Generated_Source\PSoC5/CyLib.c **** #endif  /* (!CY_PSOC3) */
1765:.\Generated_Source\PSoC5/CyLib.c **** 
1766:.\Generated_Source\PSoC5/CyLib.c **** 
1767:.\Generated_Source\PSoC5/CyLib.c **** /*******************************************************************************
1768:.\Generated_Source\PSoC5/CyLib.c **** * Function Name: CyDelayFreq
1769:.\Generated_Source\PSoC5/CyLib.c **** ********************************************************************************
1770:.\Generated_Source\PSoC5/CyLib.c **** *
1771:.\Generated_Source\PSoC5/CyLib.c **** * Summary:
1772:.\Generated_Source\PSoC5/CyLib.c **** *  Sets clock frequency for CyDelay.
1773:.\Generated_Source\PSoC5/CyLib.c **** *
1774:.\Generated_Source\PSoC5/CyLib.c **** * Parameters:
1775:.\Generated_Source\PSoC5/CyLib.c **** *  freq: Frequency of bus clock in Hertz.
1776:.\Generated_Source\PSoC5/CyLib.c **** *
1777:.\Generated_Source\PSoC5/CyLib.c **** * Return:
1778:.\Generated_Source\PSoC5/CyLib.c **** *  None
1779:.\Generated_Source\PSoC5/CyLib.c **** *
1780:.\Generated_Source\PSoC5/CyLib.c **** *******************************************************************************/
1781:.\Generated_Source\PSoC5/CyLib.c **** void CyDelayFreq(uint32 freq) CYREENTRANT
1782:.\Generated_Source\PSoC5/CyLib.c **** {
 1396              		.loc 1 1782 0
 1397              		.cfi_startproc
 1398              		@ args = 0, pretend = 0, frame = 0
 1399              		@ frame_needed = 0, uses_anonymous_args = 0
 1400              		@ link register save eliminated.
 1401              	.LVL64:
 1402 0000 10B4     		push	{r4}
 1403              	.LCFI3:
 1404              		.cfi_def_cfa_offset 4
1783:.\Generated_Source\PSoC5/CyLib.c ****     if (freq != 0u)
 1405              		.loc 1 1783 0
ARM GAS  C:\Users\SUZUKI~1\AppData\Local\Temp\ccy86h0S.s 			page 57


 1406 0002 0346     		mov	r3, r0
 1407 0004 A0B9     		cbnz	r0, .L108
 1408              		.cfi_offset 4, -4
1784:.\Generated_Source\PSoC5/CyLib.c ****     {
1785:.\Generated_Source\PSoC5/CyLib.c ****         cydelay_freq_hz = freq;
1786:.\Generated_Source\PSoC5/CyLib.c ****     }
1787:.\Generated_Source\PSoC5/CyLib.c ****     else
1788:.\Generated_Source\PSoC5/CyLib.c ****     {
1789:.\Generated_Source\PSoC5/CyLib.c ****         cydelay_freq_hz = BCLK__BUS_CLK__HZ;
 1409              		.loc 1 1789 0
 1410 0006 40F20002 		movw	r2, #:lower16:.LANCHOR0
 1411 000a 45F20010 		movw	r0, #:lower16:36000000
 1412              	.LVL65:
 1413 000e C0F22520 		movt	r0, #:upper16:36000000
 1414 0012 C0F20002 		movt	r2, #:upper16:.LANCHOR0
 1415 0016 40F20003 		movw	r3, #:lower16:1179648000
 1416              	.LVL66:
 1417 001a 1060     		str	r0, [r2, #0]
 1418 001c C4F25063 		movt	r3, #:upper16:1179648000
 1419 0020 48F6A041 		movw	r1, #36000
 1420 0024 2420     		movs	r0, #36
 1421              	.L106:
1790:.\Generated_Source\PSoC5/CyLib.c ****     }
1791:.\Generated_Source\PSoC5/CyLib.c **** 
1792:.\Generated_Source\PSoC5/CyLib.c ****     cydelay_freq_mhz = (uint8)((cydelay_freq_hz + 999999u) / 1000000u);
1793:.\Generated_Source\PSoC5/CyLib.c ****     cydelay_freq_khz = (cydelay_freq_hz + 999u) / 1000u;
1794:.\Generated_Source\PSoC5/CyLib.c ****     cydelay_32k_ms   = 32768 * cydelay_freq_khz;
 1422              		.loc 1 1794 0
 1423 0026 D360     		str	r3, [r2, #12]
 1424              		.loc 1 1792 0
 1425 0028 1071     		strb	r0, [r2, #4]
 1426              		.loc 1 1793 0
 1427 002a 9160     		str	r1, [r2, #8]
1795:.\Generated_Source\PSoC5/CyLib.c **** }
 1428              		.loc 1 1795 0
 1429 002c 10BC     		pop	{r4}
 1430 002e 7047     		bx	lr
 1431              	.LVL67:
 1432              	.L108:
 1433              		.loc 1 1785 0
 1434 0030 00F57874 		add	r4, r0, #992
 1435 0034 44F23F22 		movw	r2, #:lower16:999999
 1436 0038 44F6D351 		movw	r1, #:lower16:274877907
 1437 003c 04F1070C 		add	ip, r4, #7
 1438 0040 C0F20F02 		movt	r2, #:upper16:999999
 1439 0044 C1F26201 		movt	r1, #:upper16:274877907
 1440 0048 4DF68360 		movw	r0, #:lower16:1125899907
 1441              	.LVL68:
 1442 004c 9A18     		adds	r2, r3, r2
 1443 004e A1FB0C41 		umull	r4, r1, r1, ip
 1444 0052 C4F21B30 		movt	r0, #:upper16:1125899907
 1445 0056 A0FB02C0 		umull	ip, r0, r0, r2
 1446 005a 40F20002 		movw	r2, #:lower16:.LANCHOR0
 1447 005e C0F20002 		movt	r2, #:upper16:.LANCHOR0
 1448 0062 8909     		lsrs	r1, r1, #6
 1449 0064 1360     		str	r3, [r2, #0]
 1450 0066 C0F38740 		ubfx	r0, r0, #18, #8
ARM GAS  C:\Users\SUZUKI~1\AppData\Local\Temp\ccy86h0S.s 			page 58


 1451 006a CB03     		lsls	r3, r1, #15
 1452              	.LVL69:
 1453 006c DBE7     		b	.L106
 1454              		.cfi_endproc
 1455              	.LFE36:
 1456              		.size	CyDelayFreq, .-CyDelayFreq
 1457 006e 00BF     		.section	.text.CyWdtStart,"ax",%progbits
 1458              		.align	2
 1459              		.global	CyWdtStart
 1460              		.thumb
 1461              		.thumb_func
 1462              		.type	CyWdtStart, %function
 1463              	CyWdtStart:
 1464              	.LFB37:
1796:.\Generated_Source\PSoC5/CyLib.c **** 
1797:.\Generated_Source\PSoC5/CyLib.c **** 
1798:.\Generated_Source\PSoC5/CyLib.c **** /*******************************************************************************
1799:.\Generated_Source\PSoC5/CyLib.c **** * Function Name: CyWdtStart
1800:.\Generated_Source\PSoC5/CyLib.c **** ********************************************************************************
1801:.\Generated_Source\PSoC5/CyLib.c **** *
1802:.\Generated_Source\PSoC5/CyLib.c **** * Summary:
1803:.\Generated_Source\PSoC5/CyLib.c **** *  Enables the watchdog timer.
1804:.\Generated_Source\PSoC5/CyLib.c **** *
1805:.\Generated_Source\PSoC5/CyLib.c **** *  The timer is configured for the specified count interval, the central
1806:.\Generated_Source\PSoC5/CyLib.c **** *  timewheel is cleared, the setting for low power mode is configured and the
1807:.\Generated_Source\PSoC5/CyLib.c **** *  watchdog timer is enabled.
1808:.\Generated_Source\PSoC5/CyLib.c **** *
1809:.\Generated_Source\PSoC5/CyLib.c **** *  Once enabled the watchdog cannot be disabled. The watchdog counts each time
1810:.\Generated_Source\PSoC5/CyLib.c **** *  the Central Time Wheel (CTW) reaches the period specified. The watchdog must
1811:.\Generated_Source\PSoC5/CyLib.c **** *  be cleared using the CyWdtClear() function before three ticks of the watchdog
1812:.\Generated_Source\PSoC5/CyLib.c **** *  timer occur. The CTW is free running, so this will occur after between 2 and
1813:.\Generated_Source\PSoC5/CyLib.c **** *  3 timer periods elapse.
1814:.\Generated_Source\PSoC5/CyLib.c **** *
1815:.\Generated_Source\PSoC5/CyLib.c **** *  PSoC5: The watchdog timer should not be used during sleep modes. Since the
