ARM GAS  C:\Users\SUZUKI~1\AppData\Local\Temp\ccCDLpxE.s 			page 1


   1              		.syntax unified
   2              		.cpu cortex-m3
   3              		.fpu softvfp
   4              		.eabi_attribute 20, 1
   5              		.eabi_attribute 21, 1
   6              		.eabi_attribute 23, 3
   7              		.eabi_attribute 24, 1
   8              		.eabi_attribute 25, 1
   9              		.eabi_attribute 26, 1
  10              		.eabi_attribute 30, 6
  11              		.eabi_attribute 18, 4
  12              		.thumb
  13              		.file	"dmareq_out.c"
  14              		.section	.debug_abbrev,"",%progbits
  15              	.Ldebug_abbrev0:
  16              		.section	.debug_info,"",%progbits
  17              	.Ldebug_info0:
  18              		.section	.debug_line,"",%progbits
  19              	.Ldebug_line0:
  20 0000 BB000000 		.text
  20      02006300 
  20      00000201 
  20      FB0E0D00 
  20      01010101 
  21              	.Ltext0:
  22              		.cfi_sections	.debug_frame
  23              		.section	.text.dmareq_out_Write,"ax",%progbits
  24              		.align	2
  25              		.global	dmareq_out_Write
  26              		.thumb
  27              		.thumb_func
  28              		.type	dmareq_out_Write, %function
  29              	dmareq_out_Write:
  30              	.LFB0:
  31              		.file 1 ".\\Generated_Source\\PSoC5\\dmareq_out.c"
   1:.\Generated_Source\PSoC5/dmareq_out.c **** /*******************************************************************************
   2:.\Generated_Source\PSoC5/dmareq_out.c **** * File Name: dmareq_out.c  
   3:.\Generated_Source\PSoC5/dmareq_out.c **** * Version 1.70
   4:.\Generated_Source\PSoC5/dmareq_out.c **** *
   5:.\Generated_Source\PSoC5/dmareq_out.c **** * Description:
   6:.\Generated_Source\PSoC5/dmareq_out.c **** *  This file contains API to enable firmware control of a Pins component.
   7:.\Generated_Source\PSoC5/dmareq_out.c **** *
   8:.\Generated_Source\PSoC5/dmareq_out.c **** * Note:
   9:.\Generated_Source\PSoC5/dmareq_out.c **** *
  10:.\Generated_Source\PSoC5/dmareq_out.c **** ********************************************************************************
  11:.\Generated_Source\PSoC5/dmareq_out.c **** * Copyright 2008-2010, Cypress Semiconductor Corporation.  All rights reserved.
  12:.\Generated_Source\PSoC5/dmareq_out.c **** * You may use this file only in accordance with the license, terms, conditions, 
  13:.\Generated_Source\PSoC5/dmareq_out.c **** * disclaimers, and limitations in the end user license agreement accompanying 
  14:.\Generated_Source\PSoC5/dmareq_out.c **** * the software package with which this file was provided.
  15:.\Generated_Source\PSoC5/dmareq_out.c **** ********************************************************************************/
  16:.\Generated_Source\PSoC5/dmareq_out.c **** 
  17:.\Generated_Source\PSoC5/dmareq_out.c **** #include "cytypes.h"
  18:.\Generated_Source\PSoC5/dmareq_out.c **** #include "dmareq_out.h"
  19:.\Generated_Source\PSoC5/dmareq_out.c **** 
  20:.\Generated_Source\PSoC5/dmareq_out.c **** /* APIs are not generated for P15[7:6] */
  21:.\Generated_Source\PSoC5/dmareq_out.c **** #if !(CY_PSOC5A &&\
  22:.\Generated_Source\PSoC5/dmareq_out.c **** 	 dmareq_out__PORT == 15 && (dmareq_out__MASK & 0xC0))
ARM GAS  C:\Users\SUZUKI~1\AppData\Local\Temp\ccCDLpxE.s 			page 2


  23:.\Generated_Source\PSoC5/dmareq_out.c **** 
  24:.\Generated_Source\PSoC5/dmareq_out.c **** /*******************************************************************************
  25:.\Generated_Source\PSoC5/dmareq_out.c **** * Function Name: dmareq_out_Write
  26:.\Generated_Source\PSoC5/dmareq_out.c **** ********************************************************************************
  27:.\Generated_Source\PSoC5/dmareq_out.c **** * Summary:
  28:.\Generated_Source\PSoC5/dmareq_out.c **** *  Assign a new value to the digital port's data output register.  
  29:.\Generated_Source\PSoC5/dmareq_out.c **** *
  30:.\Generated_Source\PSoC5/dmareq_out.c **** * Parameters:  
  31:.\Generated_Source\PSoC5/dmareq_out.c **** *  prtValue:  The value to be assigned to the Digital Port. 
  32:.\Generated_Source\PSoC5/dmareq_out.c **** *
  33:.\Generated_Source\PSoC5/dmareq_out.c **** * Return: 
  34:.\Generated_Source\PSoC5/dmareq_out.c **** *  void 
  35:.\Generated_Source\PSoC5/dmareq_out.c **** *  
  36:.\Generated_Source\PSoC5/dmareq_out.c **** *******************************************************************************/
  37:.\Generated_Source\PSoC5/dmareq_out.c **** void dmareq_out_Write(uint8 value) 
  38:.\Generated_Source\PSoC5/dmareq_out.c **** {
  32              		.loc 1 38 0
  33              		.cfi_startproc
  34              		@ args = 0, pretend = 0, frame = 16
  35              		@ frame_needed = 1, uses_anonymous_args = 0
  36              		@ link register save eliminated.
  37 0000 80B4     		push	{r7}
  38              	.LCFI0:
  39              		.cfi_def_cfa_offset 4
  40 0002 85B0     		sub	sp, sp, #20
  41              	.LCFI1:
  42              		.cfi_def_cfa_offset 24
  43 0004 00AF     		add	r7, sp, #0
  44              		.cfi_offset 7, -4
  45              	.LCFI2:
  46              		.cfi_def_cfa_register 7
  47 0006 0346     		mov	r3, r0
  48 0008 FB71     		strb	r3, [r7, #7]
  39:.\Generated_Source\PSoC5/dmareq_out.c ****     uint8 staticBits = dmareq_out_DR & ~dmareq_out_MASK;
  49              		.loc 1 39 0
  50 000a 45F20013 		movw	r3, #:lower16:1073762560
  51 000e C4F20003 		movt	r3, #:upper16:1073762560
  52 0012 1B78     		ldrb	r3, [r3, #0]
  53 0014 DBB2     		uxtb	r3, r3
  54 0016 23F03F03 		bic	r3, r3, #63
  55 001a FB73     		strb	r3, [r7, #15]
  40:.\Generated_Source\PSoC5/dmareq_out.c ****     dmareq_out_DR = staticBits | ((value << dmareq_out_SHIFT) & dmareq_out_MASK);
  56              		.loc 1 40 0
  57 001c 45F20013 		movw	r3, #:lower16:1073762560
  58 0020 C4F20003 		movt	r3, #:upper16:1073762560
  59 0024 FA79     		ldrb	r2, [r7, #7]	@ zero_extendqisi2
  60 0026 02F03F02 		and	r2, r2, #63
  61 002a F97B     		ldrb	r1, [r7, #15]
  62 002c 42EA0102 		orr	r2, r2, r1
  63 0030 D2B2     		uxtb	r2, r2
  64 0032 1A70     		strb	r2, [r3, #0]
  41:.\Generated_Source\PSoC5/dmareq_out.c **** }
  65              		.loc 1 41 0
  66 0034 07F11407 		add	r7, r7, #20
  67 0038 BD46     		mov	sp, r7
  68 003a 80BC     		pop	{r7}
  69 003c 7047     		bx	lr
ARM GAS  C:\Users\SUZUKI~1\AppData\Local\Temp\ccCDLpxE.s 			page 3


  70              		.cfi_endproc
  71              	.LFE0:
  72              		.size	dmareq_out_Write, .-dmareq_out_Write
  73 003e 00BF     		.section	.text.dmareq_out_SetDriveMode,"ax",%progbits
  74              		.align	2
  75              		.global	dmareq_out_SetDriveMode
  76              		.thumb
  77              		.thumb_func
  78              		.type	dmareq_out_SetDriveMode, %function
  79              	dmareq_out_SetDriveMode:
  80              	.LFB1:
  42:.\Generated_Source\PSoC5/dmareq_out.c **** 
  43:.\Generated_Source\PSoC5/dmareq_out.c **** 
  44:.\Generated_Source\PSoC5/dmareq_out.c **** /*******************************************************************************
  45:.\Generated_Source\PSoC5/dmareq_out.c **** * Function Name: dmareq_out_SetDriveMode
  46:.\Generated_Source\PSoC5/dmareq_out.c **** ********************************************************************************
  47:.\Generated_Source\PSoC5/dmareq_out.c **** * Summary:
  48:.\Generated_Source\PSoC5/dmareq_out.c **** *  Change the drive mode on the pins of the port.
  49:.\Generated_Source\PSoC5/dmareq_out.c **** * 
  50:.\Generated_Source\PSoC5/dmareq_out.c **** * Parameters:  
  51:.\Generated_Source\PSoC5/dmareq_out.c **** *  mode:  Change the pins to this drive mode.
  52:.\Generated_Source\PSoC5/dmareq_out.c **** *
  53:.\Generated_Source\PSoC5/dmareq_out.c **** * Return: 
  54:.\Generated_Source\PSoC5/dmareq_out.c **** *  void
  55:.\Generated_Source\PSoC5/dmareq_out.c **** *
  56:.\Generated_Source\PSoC5/dmareq_out.c **** *******************************************************************************/
  57:.\Generated_Source\PSoC5/dmareq_out.c **** void dmareq_out_SetDriveMode(uint8 mode) 
  58:.\Generated_Source\PSoC5/dmareq_out.c **** {
  81              		.loc 1 58 0
  82              		.cfi_startproc
  83              		@ args = 0, pretend = 0, frame = 8
  84              		@ frame_needed = 1, uses_anonymous_args = 0
  85              		@ link register save eliminated.
  86 0000 80B4     		push	{r7}
  87              	.LCFI3:
  88              		.cfi_def_cfa_offset 4
  89 0002 83B0     		sub	sp, sp, #12
  90              	.LCFI4:
  91              		.cfi_def_cfa_offset 16
  92 0004 00AF     		add	r7, sp, #0
  93              		.cfi_offset 7, -4
  94              	.LCFI5:
  95              		.cfi_def_cfa_register 7
  96 0006 0346     		mov	r3, r0
  97 0008 FB71     		strb	r3, [r7, #7]
  59:.\Generated_Source\PSoC5/dmareq_out.c **** 	CyPins_SetPinDriveMode(dmareq_out_0, mode);
  98              		.loc 1 59 0
  99 000a 45F20003 		movw	r3, #:lower16:1073762304
 100 000e C4F20003 		movt	r3, #:upper16:1073762304
 101 0012 45F20002 		movw	r2, #:lower16:1073762304
 102 0016 C4F20002 		movt	r2, #:upper16:1073762304
 103 001a 1278     		ldrb	r2, [r2, #0]
 104 001c D2B2     		uxtb	r2, r2
 105 001e 1146     		mov	r1, r2
 106 0020 01F0F101 		and	r1, r1, #241
 107 0024 FA79     		ldrb	r2, [r7, #7]	@ zero_extendqisi2
 108 0026 02F00E02 		and	r2, r2, #14
ARM GAS  C:\Users\SUZUKI~1\AppData\Local\Temp\ccCDLpxE.s 			page 4


 109 002a 41EA0202 		orr	r2, r1, r2
 110 002e D2B2     		uxtb	r2, r2
 111 0030 1A70     		strb	r2, [r3, #0]
  60:.\Generated_Source\PSoC5/dmareq_out.c **** 	CyPins_SetPinDriveMode(dmareq_out_1, mode);
 112              		.loc 1 60 0
 113 0032 45F20103 		movw	r3, #:lower16:1073762305
 114 0036 C4F20003 		movt	r3, #:upper16:1073762305
 115 003a 45F20102 		movw	r2, #:lower16:1073762305
 116 003e C4F20002 		movt	r2, #:upper16:1073762305
 117 0042 1278     		ldrb	r2, [r2, #0]
 118 0044 D2B2     		uxtb	r2, r2
 119 0046 1146     		mov	r1, r2
 120 0048 01F0F101 		and	r1, r1, #241
 121 004c FA79     		ldrb	r2, [r7, #7]	@ zero_extendqisi2
 122 004e 02F00E02 		and	r2, r2, #14
 123 0052 41EA0202 		orr	r2, r1, r2
 124 0056 D2B2     		uxtb	r2, r2
 125 0058 1A70     		strb	r2, [r3, #0]
  61:.\Generated_Source\PSoC5/dmareq_out.c **** 	CyPins_SetPinDriveMode(dmareq_out_2, mode);
 126              		.loc 1 61 0
 127 005a 45F20203 		movw	r3, #:lower16:1073762306
 128 005e C4F20003 		movt	r3, #:upper16:1073762306
 129 0062 45F20202 		movw	r2, #:lower16:1073762306
 130 0066 C4F20002 		movt	r2, #:upper16:1073762306
 131 006a 1278     		ldrb	r2, [r2, #0]
 132 006c D2B2     		uxtb	r2, r2
 133 006e 1146     		mov	r1, r2
 134 0070 01F0F101 		and	r1, r1, #241
 135 0074 FA79     		ldrb	r2, [r7, #7]	@ zero_extendqisi2
 136 0076 02F00E02 		and	r2, r2, #14
 137 007a 41EA0202 		orr	r2, r1, r2
 138 007e D2B2     		uxtb	r2, r2
 139 0080 1A70     		strb	r2, [r3, #0]
  62:.\Generated_Source\PSoC5/dmareq_out.c **** 	CyPins_SetPinDriveMode(dmareq_out_3, mode);
 140              		.loc 1 62 0
 141 0082 45F20303 		movw	r3, #:lower16:1073762307
 142 0086 C4F20003 		movt	r3, #:upper16:1073762307
 143 008a 45F20302 		movw	r2, #:lower16:1073762307
 144 008e C4F20002 		movt	r2, #:upper16:1073762307
 145 0092 1278     		ldrb	r2, [r2, #0]
 146 0094 D2B2     		uxtb	r2, r2
 147 0096 1146     		mov	r1, r2
 148 0098 01F0F101 		and	r1, r1, #241
 149 009c FA79     		ldrb	r2, [r7, #7]	@ zero_extendqisi2
 150 009e 02F00E02 		and	r2, r2, #14
 151 00a2 41EA0202 		orr	r2, r1, r2
 152 00a6 D2B2     		uxtb	r2, r2
 153 00a8 1A70     		strb	r2, [r3, #0]
  63:.\Generated_Source\PSoC5/dmareq_out.c **** 	CyPins_SetPinDriveMode(dmareq_out_4, mode);
 154              		.loc 1 63 0
 155 00aa 45F20403 		movw	r3, #:lower16:1073762308
 156 00ae C4F20003 		movt	r3, #:upper16:1073762308
 157 00b2 45F20402 		movw	r2, #:lower16:1073762308
 158 00b6 C4F20002 		movt	r2, #:upper16:1073762308
 159 00ba 1278     		ldrb	r2, [r2, #0]
 160 00bc D2B2     		uxtb	r2, r2
 161 00be 1146     		mov	r1, r2
ARM GAS  C:\Users\SUZUKI~1\AppData\Local\Temp\ccCDLpxE.s 			page 5


 162 00c0 01F0F101 		and	r1, r1, #241
 163 00c4 FA79     		ldrb	r2, [r7, #7]	@ zero_extendqisi2
 164 00c6 02F00E02 		and	r2, r2, #14
 165 00ca 41EA0202 		orr	r2, r1, r2
 166 00ce D2B2     		uxtb	r2, r2
 167 00d0 1A70     		strb	r2, [r3, #0]
  64:.\Generated_Source\PSoC5/dmareq_out.c **** 	CyPins_SetPinDriveMode(dmareq_out_5, mode);
 168              		.loc 1 64 0
 169 00d2 45F20503 		movw	r3, #:lower16:1073762309
 170 00d6 C4F20003 		movt	r3, #:upper16:1073762309
 171 00da 45F20502 		movw	r2, #:lower16:1073762309
 172 00de C4F20002 		movt	r2, #:upper16:1073762309
 173 00e2 1278     		ldrb	r2, [r2, #0]
 174 00e4 D2B2     		uxtb	r2, r2
 175 00e6 1146     		mov	r1, r2
 176 00e8 01F0F101 		and	r1, r1, #241
 177 00ec FA79     		ldrb	r2, [r7, #7]	@ zero_extendqisi2
 178 00ee 02F00E02 		and	r2, r2, #14
 179 00f2 41EA0202 		orr	r2, r1, r2
 180 00f6 D2B2     		uxtb	r2, r2
 181 00f8 1A70     		strb	r2, [r3, #0]
  65:.\Generated_Source\PSoC5/dmareq_out.c **** }
 182              		.loc 1 65 0
 183 00fa 07F10C07 		add	r7, r7, #12
 184 00fe BD46     		mov	sp, r7
 185 0100 80BC     		pop	{r7}
 186 0102 7047     		bx	lr
 187              		.cfi_endproc
 188              	.LFE1:
 189              		.size	dmareq_out_SetDriveMode, .-dmareq_out_SetDriveMode
 190              		.section	.text.dmareq_out_Read,"ax",%progbits
 191              		.align	2
 192              		.global	dmareq_out_Read
 193              		.thumb
 194              		.thumb_func
 195              		.type	dmareq_out_Read, %function
 196              	dmareq_out_Read:
 197              	.LFB2:
  66:.\Generated_Source\PSoC5/dmareq_out.c **** 
  67:.\Generated_Source\PSoC5/dmareq_out.c **** 
  68:.\Generated_Source\PSoC5/dmareq_out.c **** /*******************************************************************************
  69:.\Generated_Source\PSoC5/dmareq_out.c **** * Function Name: dmareq_out_Read
  70:.\Generated_Source\PSoC5/dmareq_out.c **** ********************************************************************************
  71:.\Generated_Source\PSoC5/dmareq_out.c **** * Summary:
  72:.\Generated_Source\PSoC5/dmareq_out.c **** *  Read the current value on the pins of the Digital Port in right justified 
  73:.\Generated_Source\PSoC5/dmareq_out.c **** *  form.
  74:.\Generated_Source\PSoC5/dmareq_out.c **** *
  75:.\Generated_Source\PSoC5/dmareq_out.c **** * Parameters:  
  76:.\Generated_Source\PSoC5/dmareq_out.c **** *  void 
  77:.\Generated_Source\PSoC5/dmareq_out.c **** *
  78:.\Generated_Source\PSoC5/dmareq_out.c **** * Return: 
  79:.\Generated_Source\PSoC5/dmareq_out.c **** *  Returns the current value of the Digital Port as a right justified number
  80:.\Generated_Source\PSoC5/dmareq_out.c **** *  
  81:.\Generated_Source\PSoC5/dmareq_out.c **** * Note:
  82:.\Generated_Source\PSoC5/dmareq_out.c **** *  Macro dmareq_out_ReadPS calls this function. 
  83:.\Generated_Source\PSoC5/dmareq_out.c **** *  
  84:.\Generated_Source\PSoC5/dmareq_out.c **** *******************************************************************************/
ARM GAS  C:\Users\SUZUKI~1\AppData\Local\Temp\ccCDLpxE.s 			page 6


  85:.\Generated_Source\PSoC5/dmareq_out.c **** uint8 dmareq_out_Read(void) 
  86:.\Generated_Source\PSoC5/dmareq_out.c **** {
 198              		.loc 1 86 0
 199              		.cfi_startproc
 200              		@ args = 0, pretend = 0, frame = 0
 201              		@ frame_needed = 1, uses_anonymous_args = 0
 202              		@ link register save eliminated.
 203 0000 80B4     		push	{r7}
 204              	.LCFI6:
 205              		.cfi_def_cfa_offset 4
 206 0002 00AF     		add	r7, sp, #0
 207              		.cfi_offset 7, -4
 208              	.LCFI7:
 209              		.cfi_def_cfa_register 7
  87:.\Generated_Source\PSoC5/dmareq_out.c ****     return (dmareq_out_PS & dmareq_out_MASK) >> dmareq_out_SHIFT;
 210              		.loc 1 87 0
 211 0004 45F20113 		movw	r3, #:lower16:1073762561
 212 0008 C4F20003 		movt	r3, #:upper16:1073762561
 213 000c 1B78     		ldrb	r3, [r3, #0]
 214 000e DBB2     		uxtb	r3, r3
 215 0010 03F03F03 		and	r3, r3, #63
  88:.\Generated_Source\PSoC5/dmareq_out.c **** }
 216              		.loc 1 88 0
 217 0014 1846     		mov	r0, r3
 218 0016 BD46     		mov	sp, r7
 219 0018 80BC     		pop	{r7}
 220 001a 7047     		bx	lr
 221              		.cfi_endproc
 222              	.LFE2:
 223              		.size	dmareq_out_Read, .-dmareq_out_Read
 224              		.section	.text.dmareq_out_ReadDataReg,"ax",%progbits
 225              		.align	2
 226              		.global	dmareq_out_ReadDataReg
 227              		.thumb
 228              		.thumb_func
 229              		.type	dmareq_out_ReadDataReg, %function
 230              	dmareq_out_ReadDataReg:
 231              	.LFB3:
  89:.\Generated_Source\PSoC5/dmareq_out.c **** 
  90:.\Generated_Source\PSoC5/dmareq_out.c **** 
  91:.\Generated_Source\PSoC5/dmareq_out.c **** /*******************************************************************************
  92:.\Generated_Source\PSoC5/dmareq_out.c **** * Function Name: dmareq_out_ReadDataReg
  93:.\Generated_Source\PSoC5/dmareq_out.c **** ********************************************************************************
  94:.\Generated_Source\PSoC5/dmareq_out.c **** * Summary:
  95:.\Generated_Source\PSoC5/dmareq_out.c **** *  Read the current value assigned to a Digital Port's data output register
  96:.\Generated_Source\PSoC5/dmareq_out.c **** *
  97:.\Generated_Source\PSoC5/dmareq_out.c **** * Parameters:  
  98:.\Generated_Source\PSoC5/dmareq_out.c **** *  void 
  99:.\Generated_Source\PSoC5/dmareq_out.c **** *
 100:.\Generated_Source\PSoC5/dmareq_out.c **** * Return: 
 101:.\Generated_Source\PSoC5/dmareq_out.c **** *  Returns the current value assigned to the Digital Port's data output register
 102:.\Generated_Source\PSoC5/dmareq_out.c **** *  
 103:.\Generated_Source\PSoC5/dmareq_out.c **** *******************************************************************************/
 104:.\Generated_Source\PSoC5/dmareq_out.c **** uint8 dmareq_out_ReadDataReg(void) 
 105:.\Generated_Source\PSoC5/dmareq_out.c **** {
 232              		.loc 1 105 0
 233              		.cfi_startproc
ARM GAS  C:\Users\SUZUKI~1\AppData\Local\Temp\ccCDLpxE.s 			page 7


 234              		@ args = 0, pretend = 0, frame = 0
 235              		@ frame_needed = 1, uses_anonymous_args = 0
 236              		@ link register save eliminated.
 237 0000 80B4     		push	{r7}
 238              	.LCFI8:
 239              		.cfi_def_cfa_offset 4
 240 0002 00AF     		add	r7, sp, #0
 241              		.cfi_offset 7, -4
 242              	.LCFI9:
 243              		.cfi_def_cfa_register 7
 106:.\Generated_Source\PSoC5/dmareq_out.c ****     return (dmareq_out_DR & dmareq_out_MASK) >> dmareq_out_SHIFT;
 244              		.loc 1 106 0
 245 0004 45F20013 		movw	r3, #:lower16:1073762560
 246 0008 C4F20003 		movt	r3, #:upper16:1073762560
 247 000c 1B78     		ldrb	r3, [r3, #0]
 248 000e DBB2     		uxtb	r3, r3
 249 0010 03F03F03 		and	r3, r3, #63
 107:.\Generated_Source\PSoC5/dmareq_out.c **** }
 250              		.loc 1 107 0
 251 0014 1846     		mov	r0, r3
 252 0016 BD46     		mov	sp, r7
 253 0018 80BC     		pop	{r7}
 254 001a 7047     		bx	lr
 255              		.cfi_endproc
 256              	.LFE3:
 257              		.size	dmareq_out_ReadDataReg, .-dmareq_out_ReadDataReg
 258              		.text
 259              	.Letext0:
