:4000000000200020190300008D1000008D1000008D1000008D1000008D1000008D1000008D1000008D1000008D1000008D1000008D1000008D1000008D1000008D100000CE
:400040008D1000008D1000008D1000008D1000008D1000008D1000008D1000008D1000008D1000008D1000008D1000008D1000008D1000008D1000008D1000008D100000B0
:400080008D1000008D1000008D1000008D1000008D1000008D1000008D1000008D1000008D1000008D1000008D1000008D1000008D1000008D1000008D1000008D10000070
:4000C00080B51448144B21E05C689968DD688C420CD0002205E0A6180832D6E9008941E902898C460831AA42F5D101E004EB050C1C696146002204E008320026002741E9DE
:4001000002670831A242F7D1143301380028DBD100F0A4FF010000003C1100004EF22813C1F6FF731A780AB901201870704700BF4EF20010C1F6FF7008B503682BB140F278
:400140000003C0F2000303B1984708BD70B500F05DFA4EF20413C1F6FF7333F810E04EF2301C4EF6B460C1F6FF7CC1F6FF7000231C5A9A1C0EEB0401155A23F80C10931C8A
:400180000EEB05044EF23011B3F5C07F22F80C40C1F6FF71ECD14EF6B064C1F6FF7462784EF22C15D30003F5F040021DC1F6FF7589B2207800F0C4F92178287800F06EF959
:4001C00028780121BDE8704000F022B970B54EF2B026C1F6FF760120320C01464FF4804300F0DAF94EF22C15C1F6FF75287000F0B5F94EF6B064C1F6FF74207000F0AEF9BC
:400200000221844602460123207884F801C000F07DF9002301212278607800F077F9617847F6000CC4F2000C0CEBC1004FF6FC724EF23011031DC1F6FF71C0F2000203EA5B
:40024000020289B2207800F07BF946F24A52B1B2607800F075F92178287800F01FF92878012100F0D5F840F24D10C0F20000BDE8704000F0B1B900BF38B500234EF2B02443
:40028000C1F6FF741A461A5501334EF2B021B3F5406FC1F6FF71F6D100234EF6B46289B2C1F6FF721D4645F0080E05F1010C01EB4E101FFA8CF598520233602DF3D14EF692
:4002C000B463C1F6FF7325F0080C681E01EB4C1285B2A3F8C0200233002DF4D1FFF776FF62B640F6FF30AC464FF0FF312BB283420DDD2170617002235A1C1955531CB3F595
:40030000406F1155F8D100252BB28342F1DC013504F803C0ADB2E9E7054B1C7844F001041C70044B1A78D2B2034B1A70FFF7C8FEE8460040F8460040BC76004010B540F230
:4003400000414EF60C54CEF20004C0F2FA514EF61453CEF20003216018684EF2000C40F4007240F200001A60C1F6FF7CC0F20000002319581A1D4CF803101458131D4EF2E8
:400380000001C02B4CF80240C1F6FF71F1D147F2BC62C4F2000292F800C04FF234004EF60853C1F6FF70CEF2000380F800C0196000F032F9BDE8104000F000B84EF22912A8
:4003C000C1F6FF726FF07F0C47F6F83082F801C0C4F200007E2347F6F0314FF07F0C82F800C0C4F2000103705A1ED0B2431E0A4602F80809DBB201F8083CA2F10801002B21
:40040000F2D147F60001C4F200010B70704700BF172815D847F210030001C4F2000313F800C047F21003002914BF212101210CF0DF02C4F20003C318114319700020704745
:400440000120704717280ED847F210030001C4F200031A5C01F0070C02F0F10242EA4C011954002070470120704700BF41F6FF739A4208BF4FF40052994208BF4FF40051AF
:40048000172808D8C30003F1804C0CF5EC408180C280002070470120704700BF172808D847F210020001C4F2000283185972002070470120704700BF30B417289DF80840C5
:4004C0009DF80CC01FD801F07F0103F00F05C30041EAC21245EA041503F1804347F2006403F5EC430CF00F01C4F200044FF0000CD2B2EDB204F830205D706046997083F830
:4005000003C030BC70470120FBE700BF10F0800F30B411D111F4704C0ED1C50005F1804447F6000504F5F044C4F2000525F83010A2706046E37000E0012030BC704700BF2A
:4005400010F0800F08D1C00000F1804303F5F0408180C280002070470120704710B500F037FC4EF22913C1F6FF735A78182A0DD91C78013A47F600015A70C4F2000111F867
:4005800034201A7000F028FC204610BDFF2400F023FC204610BD00BFF0B58C46002786464EF2241483B0C1F6FF74714616461D4662463B463846277000970197FFF77CFF5F
:4005C00031462A462078FFF751FF20780121FFF739FF207803B0F0BD30B44EF60854CEF200044EF280112568CEF2000101244EF200424EF200130C60CEF20002CEF2000304
:400600000021286411701C6030BC704746F26A53C4F20003187870472DE9F04FA7B072B644F60007C4F2000744F2800040F24D016FF03F0887F80080C4F20000C0F218014A
:4006400000F0CEFB44F2840040F25901C4F20000C0F2180100F0C4FB44F2003644F2000144F20022C4F20006C4F20001C4F200020825032040F208144FF0020C86F800C0FC
:40068000C4F600140D701070277844F2A16344F2222644F22024C4F20003C4F20006C4F200044FF00C0541F25102002119201F70358022808DF897102490249B0BB39DF867
:4006C0009790B9F1030F1CD044F22524C4F2000403E09DF89760032E13D09DF897502178782001F0010E4EEA450B0BF0030A8DF897A000F065FB249A501E2490249B002B5C
:40070000E7D144F2040344F2050644F2060444F2080744F2010100254FF0010CC4F20003C4F20006C4F20004C4F20007C4F200014FF0030E4FF0070B4FF0480A022044F228
:40074000A23283F800E0C4F2000286F800C01D7083F800B0257087F800A01D70087092F8009047F2100447F2200745F67C0149F00308C4F20004C4F20007C4F2000144F2BC
:40078000E86682F80080C4F2000625703D7081F800C096F800E041F2E004C0F200044EEA0C0B86F800B02946A288206800F0ECFB2289B4F806A029464AEA0240628900F04D
:4007C000E3FB2946228AE06800F0DEFB638AA08A294643EA0040E28A00F0D6FB2946A28BA06900F0D1FB278CB4F81E90294649EA0740628C00F0C8FB2946228D606A00F0FF
:40080000C3FBB4F82CC0B4F82A80294648EA0C40E28D00F0B9FBA28E2946206B00F0B4FB41F6002040F24C51C4F20100C4F60001802200F0E1FA40F26C07C4F600074FF099
:4008400090463268D3B222F0FF00BBB303F1FF3A690001F190415FFA8AF86C3108F101084FEA480491F800C091F80190A31E02220CF80090C3F3400C8B18A2421DD0BCF1AD
:40088000000F09D093F801A091F802E004220233A2420EF800A010D093F800C093F80190991C0CF8009093F802B091F801E004328B1CA2420BF800E0EED145440436BE4277
:4008C000BFD140F2E055C4F6000595F8008045F20021C4F2000140F2E15481F80080C4F6000494F800C045F20122C4F2000240F2E25082F800C0C4F60000077845F2022377
:40090000C4F2000340F2E3561F70C4F6000696F800B045F20325C4F2000540F2E45485F800B0C4F6000494F8009045F20421C4F2000140F2E55081F80090C4F6000090F8B6
:4009400000A045F20522C4F2000240F2E65382F800A0C4F6000393F8008045F2062E45F2082C45F2092745F20A2645F20B2545F20C2445F20D2045F20E210023C4F2000E51
:40098000C4F2000CC4F20007C4F20006C4F20005C4F20004C4F20000C4F2000140F2E8528EF80080C4F600028CF800303B7033702B70237003700B7092F800B045F210222B
:4009C000C4F2000240F2E95782F800B0C4F6000797F8009045F21126C4F2000640F2EA5586F80090C4F6000595F800A045F21221C4F2000140F2EB5481F800A0C4F60004C5
:400A000094F8008045F21320C4F2000040F2EC5280F80080C4F6000292F800E045F21427C4F2000740F2ED5687F800E0C4F6000696F800C045F21525C4F2000540F2EE544B
:400A400085F800C0C4F60004217845F2222045F22322C4F20000C4F2000223910190029245F2242045F22522C4F20000C4F200020390049245F2262045F22822C4F2000062
:400A8000C4F200020590069245F2292045F22A22C4F20000C4F200020790089245F22B2045F22C22C4F20000C4F2000209900A9245F22D2045F22E22C4F20000C4F200028C
:400AC0000B900C9245F2302045F23122C4F20000C4F200020D900E9245F2322045F23322C4F20000C4F200020F90109245F2342045F23522C4F20000C4F200021190129271
:400B000045F2362045F26022C4F20000C4F200021390149245F2612045F26222C4F20000C4F200021590169245F2632045F26422C4F20000C4F200021790189245F2652098
:400B400045F27822C4F20000C4F2000219901A9245F2792045F27A22C4F20000C4F200021B901C9245F27B2045F27C22C4F20000C4F200021D901E9245F27D2045F27E225A
:400B8000C4F20000C4F200021F90209247F2026047F20362C4F20000C4F20002219045F2162B229245F21829239845F2192A45F21A2845F21B2745F21C2645F21D2545F21A
:400BC0001E2445F2202E45F2212CC4F2000EC4F2000BC4F20009C4F2000AC4F20008C4F20007C4F20006C4F20005C4F20004C4F2000C8BF8000089F800308AF8003088F8D2
:400C000000303B7033702B7023708EF800308CF80030019E47F200613370029CC4F200012370039F45F203023B70049DC4F201022B7005980370069E3370079C2370089F28
:400C40003B70099D2B700A9803700B9E33700C9C23700D9F3B700E9D2B700F980370109E3370119C2370129F3B70139D2B7014980370159E3370169C2370179F3B70189D2D
:400C80002B70199803701A9E33701B9C23701C9F3B701D9D2B701E9803701F9E45F213003370209CC4F2010023700B704B70219F44F2C2343B702299C4F200040B7092F8F5
:400CC00000C040F2CC514CF00205157090F8009044F2A03549F0020B80F800B0C4F2000595F800A045F200104AF0400885F800802678C4F6000146F0100727700A22C4F2BF
:400D0000000000F079F845F2221040F2D851C4F600010822C4F2000000F06EF844F2AA3B45F67602C4F200024FF4447145F6200945F6240A45F6280845F62C0E45F6001C1B
:400D400045F6031745F6081645F60B10C4F2000B0292ABF800101E230C226FF03F01C4F2000EC4F2000CC4F20000C4F20009C4F2000AC4F20008C4F20007C4F2000689F8E6
:400D800000308AF8003088F800308EF800308CF800103A7031700270029944F2B034C4F2000444230B702046294600F025F8227802F0FD00207027B0BDE8F08F0000000053
:400DC0000230800803D000BF01380046FCD17047EFF3108072B6704780F31088704700BF03465FFA81FC03F801CBC1F30742C1F3072141705A707047032A2DE9F0070BD8C4
:400E00003AB1002311F803C000F803C001339342F8D1BDE8F007704782180C46034603E014F8011C03F8011C03F003061946A44601330134002EF3D11CF00304634608BF7C
:400E4000C1EB020C68D06542C4F1040A0CEB050733464FEACA0A5CF805604FEAC408551A08E057F8044F264604FA0AF449EA0404CC5004335C18032D26FA08F9A5F104057C
:400E80000CEB0306EDDC002302E0F15CE154013319199142F9D3BCE753F8404C41F8404C53F83C4C41F83C4C53F8384C41F8384C53F8344C41F8344C53F8304C41F8304C7E
:400EC00053F82C4C41F82C4C53F8284C41F8284C53F8244C41F8244C53F8204C41F8204C53F81C4C41F81C4C53F8184C41F8184C53F8144C41F8144C53F8104C41F8104C32
:400F000053F80C4C41F80C4C53F8084C41F8084C53F8044C41F8044C1C460D4640334031BCF13F0FACF1400CB6DC21462B46541B0FE051F8105C43F8105C51F80C5C43F8A0
:400F40000C5C51F8085C43F8085C51F8045C43F8045C0F2C0D469C4601F1100103F11003A4F11004E5DCCCEB0201002303E0EC584CF8034004335E19032903EB0C04A1F1A0
:400F80000401F4DC7FE700BF032AC9B230B407D822B10023C15401339342FBD130BC704700EB020C034601E003F8011C03F003041A460133002CF7D14FF00133C2EB0C045C
:400FC00003FB01F31FE042F8403C42F83C3C42F8383C42F8343C42F8303C42F82C3C42F8283C42F8243C42F8203C42F81C3C42F8183C42F8143C42F8103C42F80C3C42F83E
:40100000083C42F8043C154640323F2CA4F14004D9DC2A46C5EB0C0407E042F8103C42F80C3C42F8083C42F8043C154610320F2CA4F11004F1DC2A46C5EB0C0501E042F87B
:40104000043C14460432032DA5F10405F7DC01E004F8011B6445FBD3A0E700BF08B500F017F8074800B10068064901B109680022FFF702F9044B0BB1AFF30080FEE700BFCE
:40108000000000000000000000000000FEE7000070B541F2241641F22415C0F20006C0F20005761BB61006D0002455F8243001349847A642F9D841F2241541F22C16C0F28C
:4010C0000005C0F20006761B00F026F8B61006D0002455F8243001349847A642F9D870BD105100401000305100404000C05100401000F05100401000000001400010001430
:4011000001400006801A0140800100400140000A004C014000020000F8B500BFF8BC08BC9E467047310100003D030000F8B500BFF8BC08BC9E4670471D0100000000000064
:401140005011000000E0FF1F28010000100F0000000000000000000000000000000000000000000000000000000000000000000000000000000000000000000000000000C8
:40118000000000000000000000000000000000000000000000000000000000000000000000000000000000000000000000000000000000000000000000000000000000002F
:4011C00000000000000000000000000000000000000000000000000000000000000000000000000000000000000000000000000000000000000000000000000000000000EF
:4012000000000000000000000000000000000000000000000000000000000000000000000000000000000000000000000000000000000000000000000000000000000000AE
:40124000000000000000000000000000000000000000000002000400060008000A000C000E00010003000500070009000B000D000F000000FF0000000000000000000000F7
:40128000000000000000000000000000000000000000000000000000000000000000000000000000000000000000000000000000000000000000000000000000000000002E
:4012C00000000000000000000000000000000000000000000000000000000000000000000000000000000000000000000000000000000000000000000000000000000000EE
:4013000000000000000000000000000000000000000000000000000000000000000000000000000000000000000000000000000000000000000000000000000000000000AD
:40134000000000000000000000000000000000000000000000000000000000000000000000000000000000000000000000000000000000000000000000000000000000006D
:0200000480007A
:400000000264004001650040010701404E0801403B0901405D0A01403A0B0140010D0140020F014001170140491801404B190140191A01404A1B014004400140024101407D
:4000400002420140034301400B44014004450140044601400447014001480140084C01401C4D0140085001400251014088728A0F8838E6400002010202110305050308277D
:400080001020150318011A0E1C041D011E111F022427302031033407361837043A083E404034410642024401450C460E480549FF4AFF4BFF4C624DA04EF04F41500C5602A8
:4000C0005711580459045A045B046640670269106A306B106D106E106F12860187018B038F0392019402960497039B039C049D08A008A30FA504AC02B101B208B302B50C07
:40010000B607BA03BB0ABE44BF10D804D904DC1103200420074009080A820E480F0110021280170419451C101D821E0821142202274129012B2031083250374439883B10F2
:400140003C103E043F21441045924C204F2056405F206C106E446F047480760877188F40930B99809A029D049E409F02A280A420A510C054C2DDC429CA03CC5ECECED0F004
:40018000D220D620E640050307140D130F64114913101513172C1940237E2C013168330F340137103B0A3E103F404032410445EB470C481349FF4AFF4BFF4EF04F44500C66
:4001C0005401580459045A045B0466C06A406B028240830685288B018E409021911892089322952097189B209E3AA00BA112A230A320A420A701A80BAA10AC04AD38AF04F1
:40020000B038B13EB240B403B604B701B820BA02BE14BF40C002C650C710C828C9FFCA07CBFFCC40CD20CEF0CF05D008D608D804D904DA04DB04DD90E040E1A8E240E32073
:4002400004080640071209800B020C400E411201141015021611172018041D201E411F0620402109224A2320258128402C202E012F02310833223410360A38483D223E0235
:400280003F0440444108452049014A804B0450045611572059055A805B105C80658067019880C090C290C4F1CAD1CCE7CEEAD027D61FD81098808480E602EE800011047325
:4002C0000508060C087F09FF0C220DBC0F4212731304140F1670183319181C081F83200C21102273240425E72718280C293C2BC12D04311F324C3320340F35983630374058
:4003000039803A283B023F045418580459045B048261840486018A3C8B018E029008920196719A519F03A241A307A671AA61AE71B040B23CB302B403B501B63CB704B808D0
:40034000B902BA22BBA8BE44D804D904DC1100A00280032004140580074009080A800B040C800D020E9810401104120213101680171819041A801B701C041E121F10214143
:4003800022902314244025102722284029012C902D802E102F103280364037113B103C503E885E02670A85418D0490109128930A958096A2971099C19A0A9B599C109F227C
:4003C000A080A102A206A402A518A608A760B208C0FFC2FEC47FCAF1CCB8CE74D680D830E40AEE808281844186848A7D8C0D8E109001928094219640A27DA411A620A84003
:40040000AA89AC02B002B280B47CB601B880BA08BE51D804DC01010A0201030C05010604071109800AA40D040F40110412421310144015201602170419A61A041D181F8A6F
:400440002084222829092A052B10304031083252331139AC3A403B504004410148105010580259A05A0868026A028002819485028624870289808A048B808C10918A92A0F2
:4004800093109504960299019A02A202A310A452A508A608B110C0FFC23FC4FFCA03CC0FCE0ED005D60FE008E40F31203E20CC10CE209E20A5209E20A5208E209E20A5207D
:4004C0000B40521057805A805F1067808740C208D407D604D801968097909E10A780968097909E10A780968097909E10A780B120858087018F10968097909E10A780E008FC
:4005000050805540570158205F026180632064088020824087C288088A108B108C80968097909E10A1C0A311A780B140D407D607D803E001E407EC040003010102100C034C
:400540000D01100312101C03000310010000030000120F210F0000230F02002100120F210F12002100020731000801030F00003F0F04000200000F000F0000000401020208
:40058000083C01000020AA000000000542000000000EC00009FFFFFF000000000400000000000100040404041101000050015002C000500000105010301050B00000000087
:4005C0000000000000000000000000002000102F2F002F000000000000FFFF00FF000000252900000000000096CA0000000000000000000000000000000000000000000093
:4006000000000000000000000000000000000000000000000000000000000000000000000000000000000000000000000000000000000000000000000000000000000000BA
:40064000000000000000000000000000000000000000000000000000000000000000000000000000000000000000000000000000000000000000000000000000000000007A
:40068000000000000000000000000000000000000000000000000000000000000000000000000000000000000000000000000000000000000000000000000000000000003A
:4006C00000000000000000000000000000000000000000000000000000000000000000000000000000000000000000000000000000000000000000000000000000000000FA
:0200000490006A
:0400000000000006F6
:0200000490105A
:04000000AFAC90BC55
:0200000490303A
:020000008C9ED4
:0200000490501A
:0C00000000010E13606901010E1BED07EA
:0200000490402A
:4000000000000000000000000000000000000000000000000000000000000000000000000000000000000000000000000000000000000000000000000000000000000000C0
:00000001FF
