ARM GAS  C:\Users\SUZUKI~1\AppData\Local\Temp\ccpR06Mr.s 			page 1


   1              		.syntax unified
   2              		.cpu cortex-m3
   3              		.fpu softvfp
   4              		.eabi_attribute 20, 1
   5              		.eabi_attribute 21, 1
   6              		.eabi_attribute 23, 3
   7              		.eabi_attribute 24, 1
   8              		.eabi_attribute 25, 1
   9              		.eabi_attribute 26, 1
  10              		.eabi_attribute 30, 4
  11              		.eabi_attribute 18, 4
  12              		.thumb
  13              		.file	"CyFlash.c"
  14              		.section	.debug_abbrev,"",%progbits
  15              	.Ldebug_abbrev0:
  16              		.section	.debug_info,"",%progbits
  17              	.Ldebug_info0:
  18              		.section	.debug_line,"",%progbits
  19              	.Ldebug_line0:
  20 0000 5F010000 		.text
  20      02005F00 
  20      00000201 
  20      FB0E0D00 
  20      01010101 
  21              	.Ltext0:
  22              		.cfi_sections	.debug_frame
  23              		.section	.text.CyFlash_Start,"ax",%progbits
  24              		.align	1
  25              		.global	CyFlash_Start
  26              		.thumb
  27              		.thumb_func
  28              		.type	CyFlash_Start, %function
  29              	CyFlash_Start:
  30              	.LFB0:
  31              		.file 1 ".\\Generated_Source\\PSoC5\\CyFlash.c"
   1:.\Generated_Source\PSoC5/CyFlash.c **** /*******************************************************************************
   2:.\Generated_Source\PSoC5/CyFlash.c **** * File Name: CyFlash.c
   3:.\Generated_Source\PSoC5/CyFlash.c **** * Version 3.10
   4:.\Generated_Source\PSoC5/CyFlash.c **** *
   5:.\Generated_Source\PSoC5/CyFlash.c **** *  Description:
   6:.\Generated_Source\PSoC5/CyFlash.c **** *   Provides an API for the FLASH/EEPROM.
   7:.\Generated_Source\PSoC5/CyFlash.c **** *
   8:.\Generated_Source\PSoC5/CyFlash.c **** *  Note:
   9:.\Generated_Source\PSoC5/CyFlash.c **** *   This code is endian agnostic.
  10:.\Generated_Source\PSoC5/CyFlash.c **** *
  11:.\Generated_Source\PSoC5/CyFlash.c **** *  Note:
  12:.\Generated_Source\PSoC5/CyFlash.c **** *   Documentation of the API's in this file is located in the
  13:.\Generated_Source\PSoC5/CyFlash.c **** *   System Reference Guide provided with PSoC Creator.
  14:.\Generated_Source\PSoC5/CyFlash.c **** *
  15:.\Generated_Source\PSoC5/CyFlash.c **** ********************************************************************************
  16:.\Generated_Source\PSoC5/CyFlash.c **** * Copyright 2008-2012, Cypress Semiconductor Corporation. All rights reserved.
  17:.\Generated_Source\PSoC5/CyFlash.c **** * You may use this file only in accordance with the license, terms, conditions,
  18:.\Generated_Source\PSoC5/CyFlash.c **** * disclaimers, and limitations in the end user license agreement accompanying
  19:.\Generated_Source\PSoC5/CyFlash.c **** * the software package with which this file was provided.
  20:.\Generated_Source\PSoC5/CyFlash.c **** *******************************************************************************/
  21:.\Generated_Source\PSoC5/CyFlash.c **** 
  22:.\Generated_Source\PSoC5/CyFlash.c **** #include "CyFlash.h"
ARM GAS  C:\Users\SUZUKI~1\AppData\Local\Temp\ccpR06Mr.s 			page 2


  23:.\Generated_Source\PSoC5/CyFlash.c **** 
  24:.\Generated_Source\PSoC5/CyFlash.c **** 
  25:.\Generated_Source\PSoC5/CyFlash.c **** /*******************************************************************************
  26:.\Generated_Source\PSoC5/CyFlash.c **** * Holds die temperature, updated by CySetTemp(). Used for flash writting.
  27:.\Generated_Source\PSoC5/CyFlash.c **** * The first byte is the sign of the temperature (0 = negative, 1 = positive).
  28:.\Generated_Source\PSoC5/CyFlash.c **** * The second byte is the magnitude.
  29:.\Generated_Source\PSoC5/CyFlash.c **** *******************************************************************************/
  30:.\Generated_Source\PSoC5/CyFlash.c **** uint8 dieTemperature[CY_FLASH_DIE_TEMP_DATA_SIZE];
  31:.\Generated_Source\PSoC5/CyFlash.c **** 
  32:.\Generated_Source\PSoC5/CyFlash.c **** #if(CYDEV_ECC_ENABLE == 0)
  33:.\Generated_Source\PSoC5/CyFlash.c ****     static uint8 * rowBuffer = 0;
  34:.\Generated_Source\PSoC5/CyFlash.c **** #endif  /* (CYDEV_ECC_ENABLE == 0) */
  35:.\Generated_Source\PSoC5/CyFlash.c **** 
  36:.\Generated_Source\PSoC5/CyFlash.c **** 
  37:.\Generated_Source\PSoC5/CyFlash.c **** /*******************************************************************************
  38:.\Generated_Source\PSoC5/CyFlash.c **** * Function Name: CyFlash_Start
  39:.\Generated_Source\PSoC5/CyFlash.c **** ********************************************************************************
  40:.\Generated_Source\PSoC5/CyFlash.c **** *
  41:.\Generated_Source\PSoC5/CyFlash.c **** * Summary:
  42:.\Generated_Source\PSoC5/CyFlash.c **** *  Enable the EEPROM/Flash.
  43:.\Generated_Source\PSoC5/CyFlash.c **** *
  44:.\Generated_Source\PSoC5/CyFlash.c **** *  Note: For PSoC 5, this will enable both Flash and EEPROM. For PSoC 3 and
  45:.\Generated_Source\PSoC5/CyFlash.c **** *  PSOC 5LP  this will enable only Flash.
  46:.\Generated_Source\PSoC5/CyFlash.c **** *
  47:.\Generated_Source\PSoC5/CyFlash.c **** * Parameters:
  48:.\Generated_Source\PSoC5/CyFlash.c **** *  None
  49:.\Generated_Source\PSoC5/CyFlash.c **** *
  50:.\Generated_Source\PSoC5/CyFlash.c **** * Return:
  51:.\Generated_Source\PSoC5/CyFlash.c **** *  None
  52:.\Generated_Source\PSoC5/CyFlash.c **** *
  53:.\Generated_Source\PSoC5/CyFlash.c **** *******************************************************************************/
  54:.\Generated_Source\PSoC5/CyFlash.c **** void CyFlash_Start(void) 
  55:.\Generated_Source\PSoC5/CyFlash.c **** {
  32              		.loc 1 55 0
  33              		.cfi_startproc
  34              		@ args = 0, pretend = 0, frame = 0
  35              		@ frame_needed = 0, uses_anonymous_args = 0
  36              		@ link register save eliminated.
  56:.\Generated_Source\PSoC5/CyFlash.c ****     #if(CY_PSOC5A)
  57:.\Generated_Source\PSoC5/CyFlash.c **** 
  58:.\Generated_Source\PSoC5/CyFlash.c ****         /* Active Power Mode */
  59:.\Generated_Source\PSoC5/CyFlash.c ****         *PM_ACT_EEFLASH |= PM_FLASH_EE_MASK;
  37              		.loc 1 59 0
  38 0000 054B     		ldr	r3, .L3
  39 0002 1A78     		ldrb	r2, [r3, #0]	@ zero_extendqisi2
  40 0004 42F08002 		orr	r2, r2, #128
  41 0008 1A70     		strb	r2, [r3, #0]
  60:.\Generated_Source\PSoC5/CyFlash.c **** 
  61:.\Generated_Source\PSoC5/CyFlash.c ****         /* Standby Power Mode */
  62:.\Generated_Source\PSoC5/CyFlash.c ****         *PM_STBY_EEFLASH |= PM_FLASH_EE_MASK;
  42              		.loc 1 62 0
  43 000a 1033     		adds	r3, r3, #16
  44 000c 1A78     		ldrb	r2, [r3, #0]	@ zero_extendqisi2
  45 000e 42F08002 		orr	r2, r2, #128
  46 0012 1A70     		strb	r2, [r3, #0]
  63:.\Generated_Source\PSoC5/CyFlash.c **** 
  64:.\Generated_Source\PSoC5/CyFlash.c ****     #endif  /* (CY_PSOC5A) */
ARM GAS  C:\Users\SUZUKI~1\AppData\Local\Temp\ccpR06Mr.s 			page 3


  65:.\Generated_Source\PSoC5/CyFlash.c **** 
  66:.\Generated_Source\PSoC5/CyFlash.c ****     #if(CY_PSOC3 || CY_PSOC5LP)
  67:.\Generated_Source\PSoC5/CyFlash.c **** 
  68:.\Generated_Source\PSoC5/CyFlash.c ****         /* Active Power Mode */
  69:.\Generated_Source\PSoC5/CyFlash.c ****         *PM_ACT_FLASH_PTR |= PM_FLASH_MASK;
  70:.\Generated_Source\PSoC5/CyFlash.c **** 
  71:.\Generated_Source\PSoC5/CyFlash.c ****         /* Standby Power Mode */
  72:.\Generated_Source\PSoC5/CyFlash.c ****         *PM_STBY_FLASH_PTR |= PM_FLASH_MASK;
  73:.\Generated_Source\PSoC5/CyFlash.c **** 
  74:.\Generated_Source\PSoC5/CyFlash.c ****     #endif  /* (CY_PSOC3 || CY_PSOC5LP) */
  75:.\Generated_Source\PSoC5/CyFlash.c **** }
  47              		.loc 1 75 0
  48 0014 7047     		bx	lr
  49              	.L4:
  50 0016 00BF     		.align	2
  51              	.L3:
  52 0018 A0430040 		.word	1073759136
  53              		.cfi_endproc
  54              	.LFE0:
  55              		.size	CyFlash_Start, .-CyFlash_Start
  56              		.section	.text.CyFlash_Stop,"ax",%progbits
  57              		.align	1
  58              		.global	CyFlash_Stop
  59              		.thumb
  60              		.thumb_func
  61              		.type	CyFlash_Stop, %function
  62              	CyFlash_Stop:
  63              	.LFB1:
  76:.\Generated_Source\PSoC5/CyFlash.c **** 
  77:.\Generated_Source\PSoC5/CyFlash.c **** 
  78:.\Generated_Source\PSoC5/CyFlash.c **** /*******************************************************************************
  79:.\Generated_Source\PSoC5/CyFlash.c **** * Function Name: CyFlash_Stop
  80:.\Generated_Source\PSoC5/CyFlash.c **** ********************************************************************************
  81:.\Generated_Source\PSoC5/CyFlash.c **** *
  82:.\Generated_Source\PSoC5/CyFlash.c **** * Summary:
  83:.\Generated_Source\PSoC5/CyFlash.c **** *  Disable the EEPROM/Flash.
  84:.\Generated_Source\PSoC5/CyFlash.c **** *
  85:.\Generated_Source\PSoC5/CyFlash.c **** *  Note:
  86:.\Generated_Source\PSoC5/CyFlash.c **** *  PSoC5 ES1:        disable both Flash and EEPROM.
  87:.\Generated_Source\PSoC5/CyFlash.c **** *  PSoC3 ES3/PSOC5A: disable only Flash.
  88:.\Generated_Source\PSoC5/CyFlash.c **** *
  89:.\Generated_Source\PSoC5/CyFlash.c **** * Parameters:
  90:.\Generated_Source\PSoC5/CyFlash.c **** *  None
  91:.\Generated_Source\PSoC5/CyFlash.c **** *
  92:.\Generated_Source\PSoC5/CyFlash.c **** * Return:
  93:.\Generated_Source\PSoC5/CyFlash.c **** *  None
  94:.\Generated_Source\PSoC5/CyFlash.c **** *
  95:.\Generated_Source\PSoC5/CyFlash.c **** * Side Effects:
  96:.\Generated_Source\PSoC5/CyFlash.c **** *  This setting is ignored as long as the CPU is currently running.  This will
  97:.\Generated_Source\PSoC5/CyFlash.c **** *  only take effect when the CPU is later disabled.
  98:.\Generated_Source\PSoC5/CyFlash.c **** *
  99:.\Generated_Source\PSoC5/CyFlash.c **** *******************************************************************************/
 100:.\Generated_Source\PSoC5/CyFlash.c **** void CyFlash_Stop(void) 
 101:.\Generated_Source\PSoC5/CyFlash.c **** {
  64              		.loc 1 101 0
  65              		.cfi_startproc
  66              		@ args = 0, pretend = 0, frame = 0
ARM GAS  C:\Users\SUZUKI~1\AppData\Local\Temp\ccpR06Mr.s 			page 4


  67              		@ frame_needed = 0, uses_anonymous_args = 0
  68              		@ link register save eliminated.
 102:.\Generated_Source\PSoC5/CyFlash.c ****     #if (CY_PSOC5A)
 103:.\Generated_Source\PSoC5/CyFlash.c **** 
 104:.\Generated_Source\PSoC5/CyFlash.c ****         /* Active Power Mode */
 105:.\Generated_Source\PSoC5/CyFlash.c ****         *PM_ACT_EEFLASH &= ~PM_FLASH_EE_MASK;
  69              		.loc 1 105 0
  70 0000 054B     		ldr	r3, .L7
  71 0002 1A78     		ldrb	r2, [r3, #0]	@ zero_extendqisi2
  72 0004 02F07F02 		and	r2, r2, #127
  73 0008 1A70     		strb	r2, [r3, #0]
 106:.\Generated_Source\PSoC5/CyFlash.c **** 
 107:.\Generated_Source\PSoC5/CyFlash.c ****         /* Standby Power Mode */
 108:.\Generated_Source\PSoC5/CyFlash.c ****         *PM_STBY_EEFLASH &= ~PM_FLASH_EE_MASK;
  74              		.loc 1 108 0
  75 000a 1033     		adds	r3, r3, #16
  76 000c 1A78     		ldrb	r2, [r3, #0]	@ zero_extendqisi2
  77 000e 02F07F02 		and	r2, r2, #127
  78 0012 1A70     		strb	r2, [r3, #0]
 109:.\Generated_Source\PSoC5/CyFlash.c **** 
 110:.\Generated_Source\PSoC5/CyFlash.c ****     #endif  /* (CY_PSOC5A) */
 111:.\Generated_Source\PSoC5/CyFlash.c **** 
 112:.\Generated_Source\PSoC5/CyFlash.c ****     #if (CY_PSOC3 || CY_PSOC5LP)
 113:.\Generated_Source\PSoC5/CyFlash.c **** 
 114:.\Generated_Source\PSoC5/CyFlash.c ****         /* Active Power Mode */
 115:.\Generated_Source\PSoC5/CyFlash.c ****         *PM_ACT_FLASH_PTR &= ~PM_FLASH_MASK;
 116:.\Generated_Source\PSoC5/CyFlash.c **** 
 117:.\Generated_Source\PSoC5/CyFlash.c ****         /* Standby Power Mode */
 118:.\Generated_Source\PSoC5/CyFlash.c ****         *PM_STBY_FLASH_PTR &= ~PM_FLASH_MASK;
 119:.\Generated_Source\PSoC5/CyFlash.c **** 
 120:.\Generated_Source\PSoC5/CyFlash.c ****     #endif  /* (CY_PSOC3 || CY_PSOC5LP) */
 121:.\Generated_Source\PSoC5/CyFlash.c **** }
  79              		.loc 1 121 0
  80 0014 7047     		bx	lr
  81              	.L8:
  82 0016 00BF     		.align	2
  83              	.L7:
  84 0018 A0430040 		.word	1073759136
  85              		.cfi_endproc
  86              	.LFE1:
  87              		.size	CyFlash_Stop, .-CyFlash_Stop
  88              		.section	.text.CyFlash_SetWaitCycles,"ax",%progbits
  89              		.align	1
  90              		.global	CyFlash_SetWaitCycles
  91              		.thumb
  92              		.thumb_func
  93              		.type	CyFlash_SetWaitCycles, %function
  94              	CyFlash_SetWaitCycles:
  95              	.LFB7:
 122:.\Generated_Source\PSoC5/CyFlash.c **** 
 123:.\Generated_Source\PSoC5/CyFlash.c **** 
 124:.\Generated_Source\PSoC5/CyFlash.c **** /*******************************************************************************
 125:.\Generated_Source\PSoC5/CyFlash.c **** * Function Name: CySetTempInt
 126:.\Generated_Source\PSoC5/CyFlash.c **** ********************************************************************************
 127:.\Generated_Source\PSoC5/CyFlash.c **** *
 128:.\Generated_Source\PSoC5/CyFlash.c **** * Summary:
 129:.\Generated_Source\PSoC5/CyFlash.c **** *  Sends a command to the SPC to read the die temperature. Sets a global value
ARM GAS  C:\Users\SUZUKI~1\AppData\Local\Temp\ccpR06Mr.s 			page 5


 130:.\Generated_Source\PSoC5/CyFlash.c **** *  used by the Write functions. This function must be called once before
 131:.\Generated_Source\PSoC5/CyFlash.c **** *  executing a series of Flash writing functions.
 132:.\Generated_Source\PSoC5/CyFlash.c **** *
 133:.\Generated_Source\PSoC5/CyFlash.c **** * Parameters:
 134:.\Generated_Source\PSoC5/CyFlash.c **** *  None
 135:.\Generated_Source\PSoC5/CyFlash.c **** *
 136:.\Generated_Source\PSoC5/CyFlash.c **** * Return:
 137:.\Generated_Source\PSoC5/CyFlash.c **** *  status:
 138:.\Generated_Source\PSoC5/CyFlash.c **** *   CYRET_SUCCESS - if successful
 139:.\Generated_Source\PSoC5/CyFlash.c **** *   CYRET_LOCKED  - if Flash writing already in use
 140:.\Generated_Source\PSoC5/CyFlash.c **** *   CYRET_UNKNOWN - if there was an SPC error
 141:.\Generated_Source\PSoC5/CyFlash.c **** *
 142:.\Generated_Source\PSoC5/CyFlash.c **** *******************************************************************************/
 143:.\Generated_Source\PSoC5/CyFlash.c **** cystatus CySetTempInt(void) 
 144:.\Generated_Source\PSoC5/CyFlash.c **** {
 145:.\Generated_Source\PSoC5/CyFlash.c ****     cystatus status;
 146:.\Generated_Source\PSoC5/CyFlash.c **** 
 147:.\Generated_Source\PSoC5/CyFlash.c ****     /* Make sure SPC is powered */
 148:.\Generated_Source\PSoC5/CyFlash.c ****     CySpcStart();
 149:.\Generated_Source\PSoC5/CyFlash.c **** 
 150:.\Generated_Source\PSoC5/CyFlash.c ****     /* Plan for failure. */
 151:.\Generated_Source\PSoC5/CyFlash.c ****     status = CYRET_UNKNOWN;
 152:.\Generated_Source\PSoC5/CyFlash.c **** 
 153:.\Generated_Source\PSoC5/CyFlash.c ****     if(CySpcLock() == CYRET_SUCCESS)
 154:.\Generated_Source\PSoC5/CyFlash.c ****     {
 155:.\Generated_Source\PSoC5/CyFlash.c ****         /* Write the command. */
 156:.\Generated_Source\PSoC5/CyFlash.c ****         #if(CY_PSOC5A)
 157:.\Generated_Source\PSoC5/CyFlash.c ****             if(CYRET_STARTED == CySpcGetTemp(TEMP_NUMBER_OF_SAMPLES, TEMP_TIMER_PERIOD, TEMP_CLK_DI
 158:.\Generated_Source\PSoC5/CyFlash.c ****         #else
 159:.\Generated_Source\PSoC5/CyFlash.c ****             if(CYRET_STARTED == CySpcGetTemp(TEMP_NUMBER_OF_SAMPLES))
 160:.\Generated_Source\PSoC5/CyFlash.c ****         #endif  /* (CY_PSOC5A) */
 161:.\Generated_Source\PSoC5/CyFlash.c ****             {
 162:.\Generated_Source\PSoC5/CyFlash.c ****                 do
 163:.\Generated_Source\PSoC5/CyFlash.c ****                 {
 164:.\Generated_Source\PSoC5/CyFlash.c ****                     if(CySpcReadData(dieTemperature, CY_FLASH_DIE_TEMP_DATA_SIZE) == CY_FLASH_DIE_T
 165:.\Generated_Source\PSoC5/CyFlash.c ****                     {
 166:.\Generated_Source\PSoC5/CyFlash.c ****                         status = CYRET_SUCCESS;
 167:.\Generated_Source\PSoC5/CyFlash.c **** 
 168:.\Generated_Source\PSoC5/CyFlash.c ****                         while(CY_SPC_BUSY)
 169:.\Generated_Source\PSoC5/CyFlash.c ****                         {
 170:.\Generated_Source\PSoC5/CyFlash.c ****                             /* Spin until idle. */
 171:.\Generated_Source\PSoC5/CyFlash.c ****                             CyDelayUs(1u);
 172:.\Generated_Source\PSoC5/CyFlash.c ****                         }
 173:.\Generated_Source\PSoC5/CyFlash.c ****                         break;
 174:.\Generated_Source\PSoC5/CyFlash.c ****                     }
 175:.\Generated_Source\PSoC5/CyFlash.c **** 
 176:.\Generated_Source\PSoC5/CyFlash.c ****                 } while(CY_SPC_BUSY);
 177:.\Generated_Source\PSoC5/CyFlash.c ****             }
 178:.\Generated_Source\PSoC5/CyFlash.c **** 
 179:.\Generated_Source\PSoC5/CyFlash.c ****             CySpcUnlock();
 180:.\Generated_Source\PSoC5/CyFlash.c ****     }
 181:.\Generated_Source\PSoC5/CyFlash.c ****     else
 182:.\Generated_Source\PSoC5/CyFlash.c ****     {
 183:.\Generated_Source\PSoC5/CyFlash.c ****         status = CYRET_LOCKED;
 184:.\Generated_Source\PSoC5/CyFlash.c ****     }
 185:.\Generated_Source\PSoC5/CyFlash.c **** 
 186:.\Generated_Source\PSoC5/CyFlash.c ****     return (status);
ARM GAS  C:\Users\SUZUKI~1\AppData\Local\Temp\ccpR06Mr.s 			page 6


 187:.\Generated_Source\PSoC5/CyFlash.c **** }
 188:.\Generated_Source\PSoC5/CyFlash.c **** 
 189:.\Generated_Source\PSoC5/CyFlash.c **** 
 190:.\Generated_Source\PSoC5/CyFlash.c **** /*******************************************************************************
 191:.\Generated_Source\PSoC5/CyFlash.c **** * Function Name: CySetTemp
 192:.\Generated_Source\PSoC5/CyFlash.c **** ********************************************************************************
 193:.\Generated_Source\PSoC5/CyFlash.c **** *
 194:.\Generated_Source\PSoC5/CyFlash.c **** * Summary:
 195:.\Generated_Source\PSoC5/CyFlash.c **** *  This is a wraparound for CySetTempInt(). It is used to return second
 196:.\Generated_Source\PSoC5/CyFlash.c **** *  successful read of temperature value.
 197:.\Generated_Source\PSoC5/CyFlash.c **** *
 198:.\Generated_Source\PSoC5/CyFlash.c **** * Parameters:
 199:.\Generated_Source\PSoC5/CyFlash.c **** *  None
 200:.\Generated_Source\PSoC5/CyFlash.c **** *
 201:.\Generated_Source\PSoC5/CyFlash.c **** * Return:
 202:.\Generated_Source\PSoC5/CyFlash.c **** *  status:
 203:.\Generated_Source\PSoC5/CyFlash.c **** *   CYRET_SUCCESS if successful.
 204:.\Generated_Source\PSoC5/CyFlash.c **** *   CYRET_LOCKED  if Flash writing already in use
 205:.\Generated_Source\PSoC5/CyFlash.c **** *   CYRET_UNKNOWN if there was an SPC error.
 206:.\Generated_Source\PSoC5/CyFlash.c **** *
 207:.\Generated_Source\PSoC5/CyFlash.c **** *  uint8 dieTemperature[2]:
 208:.\Generated_Source\PSoC5/CyFlash.c **** *   Holds die temperature for the flash writting algorithm. The first byte is
 209:.\Generated_Source\PSoC5/CyFlash.c **** *   the sign of the temperature (0 = negative, 1 = positive). The second byte is
 210:.\Generated_Source\PSoC5/CyFlash.c **** *   the magnitude.
 211:.\Generated_Source\PSoC5/CyFlash.c **** *
 212:.\Generated_Source\PSoC5/CyFlash.c **** *******************************************************************************/
 213:.\Generated_Source\PSoC5/CyFlash.c **** cystatus CySetTemp(void) 
 214:.\Generated_Source\PSoC5/CyFlash.c **** {
 215:.\Generated_Source\PSoC5/CyFlash.c ****     cystatus status = CySetTempInt();
 216:.\Generated_Source\PSoC5/CyFlash.c **** 
 217:.\Generated_Source\PSoC5/CyFlash.c ****     if(status == CYRET_SUCCESS)
 218:.\Generated_Source\PSoC5/CyFlash.c ****     {
 219:.\Generated_Source\PSoC5/CyFlash.c ****         status = CySetTempInt();
 220:.\Generated_Source\PSoC5/CyFlash.c ****     }
 221:.\Generated_Source\PSoC5/CyFlash.c **** 
 222:.\Generated_Source\PSoC5/CyFlash.c ****     return (status);
 223:.\Generated_Source\PSoC5/CyFlash.c **** }
 224:.\Generated_Source\PSoC5/CyFlash.c **** 
 225:.\Generated_Source\PSoC5/CyFlash.c **** 
 226:.\Generated_Source\PSoC5/CyFlash.c **** /*******************************************************************************
 227:.\Generated_Source\PSoC5/CyFlash.c **** * Function Name: CySetFlashEEBuffer
 228:.\Generated_Source\PSoC5/CyFlash.c **** ********************************************************************************
 229:.\Generated_Source\PSoC5/CyFlash.c **** *
 230:.\Generated_Source\PSoC5/CyFlash.c **** * Summary:
 231:.\Generated_Source\PSoC5/CyFlash.c **** *  Sets the user supplied temporary buffer to store SPC data while performing
 232:.\Generated_Source\PSoC5/CyFlash.c **** *  flash and EEPROM commands. This buffer is only necessary when Flash ECC is
 233:.\Generated_Source\PSoC5/CyFlash.c **** *  disabled.
 234:.\Generated_Source\PSoC5/CyFlash.c **** *
 235:.\Generated_Source\PSoC5/CyFlash.c **** * Parameters:
 236:.\Generated_Source\PSoC5/CyFlash.c **** *  buffer:
 237:.\Generated_Source\PSoC5/CyFlash.c **** *   Address of block of memory to store temporary memory. The size of the block
 238:.\Generated_Source\PSoC5/CyFlash.c **** *   of memory is CYDEV_FLS_ROW_SIZE + CYDEV_ECC_ROW_SIZE.
 239:.\Generated_Source\PSoC5/CyFlash.c **** *
 240:.\Generated_Source\PSoC5/CyFlash.c **** * Return:
 241:.\Generated_Source\PSoC5/CyFlash.c **** *  status:
 242:.\Generated_Source\PSoC5/CyFlash.c **** *   CYRET_SUCCESS if successful.
 243:.\Generated_Source\PSoC5/CyFlash.c **** *   CYRET_BAD_PARAM if the buffer is NULL
ARM GAS  C:\Users\SUZUKI~1\AppData\Local\Temp\ccpR06Mr.s 			page 7


 244:.\Generated_Source\PSoC5/CyFlash.c **** *
 245:.\Generated_Source\PSoC5/CyFlash.c **** *******************************************************************************/
 246:.\Generated_Source\PSoC5/CyFlash.c **** cystatus CySetFlashEEBuffer(uint8 * buffer) 
 247:.\Generated_Source\PSoC5/CyFlash.c **** {
 248:.\Generated_Source\PSoC5/CyFlash.c ****     cystatus status = CYRET_SUCCESS;
 249:.\Generated_Source\PSoC5/CyFlash.c **** 
 250:.\Generated_Source\PSoC5/CyFlash.c ****     CySpcStart();
 251:.\Generated_Source\PSoC5/CyFlash.c **** 
 252:.\Generated_Source\PSoC5/CyFlash.c ****     #if(CYDEV_ECC_ENABLE == 0)
 253:.\Generated_Source\PSoC5/CyFlash.c **** 
 254:.\Generated_Source\PSoC5/CyFlash.c ****         if(NULL == buffer)
 255:.\Generated_Source\PSoC5/CyFlash.c ****         {
 256:.\Generated_Source\PSoC5/CyFlash.c ****             status = CYRET_BAD_PARAM;
 257:.\Generated_Source\PSoC5/CyFlash.c ****         }
 258:.\Generated_Source\PSoC5/CyFlash.c ****         else if(CySpcLock() != CYRET_SUCCESS)
 259:.\Generated_Source\PSoC5/CyFlash.c ****         {
 260:.\Generated_Source\PSoC5/CyFlash.c ****             status = CYRET_LOCKED;
 261:.\Generated_Source\PSoC5/CyFlash.c ****         }
 262:.\Generated_Source\PSoC5/CyFlash.c ****         else
 263:.\Generated_Source\PSoC5/CyFlash.c ****         {
 264:.\Generated_Source\PSoC5/CyFlash.c ****             rowBuffer = buffer;
 265:.\Generated_Source\PSoC5/CyFlash.c ****             CySpcUnlock();
 266:.\Generated_Source\PSoC5/CyFlash.c ****         }
 267:.\Generated_Source\PSoC5/CyFlash.c **** 
 268:.\Generated_Source\PSoC5/CyFlash.c ****     #else
 269:.\Generated_Source\PSoC5/CyFlash.c **** 
 270:.\Generated_Source\PSoC5/CyFlash.c ****         /* To supress the warning */
 271:.\Generated_Source\PSoC5/CyFlash.c ****         buffer = buffer;
 272:.\Generated_Source\PSoC5/CyFlash.c **** 
 273:.\Generated_Source\PSoC5/CyFlash.c ****     #endif  /* (CYDEV_ECC_ENABLE == 0u) */
 274:.\Generated_Source\PSoC5/CyFlash.c **** 
 275:.\Generated_Source\PSoC5/CyFlash.c ****     return(status);
 276:.\Generated_Source\PSoC5/CyFlash.c **** }
 277:.\Generated_Source\PSoC5/CyFlash.c **** 
 278:.\Generated_Source\PSoC5/CyFlash.c **** 
 279:.\Generated_Source\PSoC5/CyFlash.c **** #if(CYDEV_ECC_ENABLE == 1)
 280:.\Generated_Source\PSoC5/CyFlash.c **** 
 281:.\Generated_Source\PSoC5/CyFlash.c ****     /*******************************************************************************
 282:.\Generated_Source\PSoC5/CyFlash.c ****     * Function Name: CyWriteRowData
 283:.\Generated_Source\PSoC5/CyFlash.c ****     ********************************************************************************
 284:.\Generated_Source\PSoC5/CyFlash.c ****     *
 285:.\Generated_Source\PSoC5/CyFlash.c ****     * Summary:
 286:.\Generated_Source\PSoC5/CyFlash.c ****     *   Sends a command to the SPC to load and program a row of data in flash.
 287:.\Generated_Source\PSoC5/CyFlash.c ****     *
 288:.\Generated_Source\PSoC5/CyFlash.c ****     * Parameters:
 289:.\Generated_Source\PSoC5/CyFlash.c ****     *  arrayID:
 290:.\Generated_Source\PSoC5/CyFlash.c ****     *   ID of the array to write.
 291:.\Generated_Source\PSoC5/CyFlash.c ****     *  rowAddress:
 292:.\Generated_Source\PSoC5/CyFlash.c ****     *   rowAddress of flash row to program.
 293:.\Generated_Source\PSoC5/CyFlash.c ****     *  rowData:
 294:.\Generated_Source\PSoC5/CyFlash.c ****     *   Array of bytes to write.
 295:.\Generated_Source\PSoC5/CyFlash.c ****     *
 296:.\Generated_Source\PSoC5/CyFlash.c ****     * Return:
 297:.\Generated_Source\PSoC5/CyFlash.c ****     *  status:
 298:.\Generated_Source\PSoC5/CyFlash.c ****     *   CYRET_SUCCESS if successful.
 299:.\Generated_Source\PSoC5/CyFlash.c ****     *   CYRET_LOCKED if the SPC is already in use.
 300:.\Generated_Source\PSoC5/CyFlash.c ****     *   CYRET_CANCELED if command not accepted
ARM GAS  C:\Users\SUZUKI~1\AppData\Local\Temp\ccpR06Mr.s 			page 8


 301:.\Generated_Source\PSoC5/CyFlash.c ****     *   CYRET_UNKNOWN if there was an SPC error.
 302:.\Generated_Source\PSoC5/CyFlash.c ****     *
 303:.\Generated_Source\PSoC5/CyFlash.c ****     *******************************************************************************/
 304:.\Generated_Source\PSoC5/CyFlash.c ****     cystatus CyWriteRowData(uint8 arrayId, uint16 rowAddress, uint8 * rowData) 
 305:.\Generated_Source\PSoC5/CyFlash.c ****     {
 306:.\Generated_Source\PSoC5/CyFlash.c ****         uint16 rowSize;
 307:.\Generated_Source\PSoC5/CyFlash.c ****         cystatus status;
 308:.\Generated_Source\PSoC5/CyFlash.c **** 
 309:.\Generated_Source\PSoC5/CyFlash.c ****         rowSize = (arrayId > CY_SPC_LAST_FLASH_ARRAYID) ? CYDEV_EEPROM_ROW_SIZE : CYDEV_FLS_ROW_SIZ
 310:.\Generated_Source\PSoC5/CyFlash.c ****         status = CyWriteRowFull(arrayId, rowAddress, rowData, rowSize);
 311:.\Generated_Source\PSoC5/CyFlash.c **** 
 312:.\Generated_Source\PSoC5/CyFlash.c ****         return(status);
 313:.\Generated_Source\PSoC5/CyFlash.c ****     }
 314:.\Generated_Source\PSoC5/CyFlash.c **** 
 315:.\Generated_Source\PSoC5/CyFlash.c **** #else
 316:.\Generated_Source\PSoC5/CyFlash.c **** 
 317:.\Generated_Source\PSoC5/CyFlash.c ****     /*******************************************************************************
 318:.\Generated_Source\PSoC5/CyFlash.c ****     * Function Name: CyWriteRowData
 319:.\Generated_Source\PSoC5/CyFlash.c ****     ********************************************************************************
 320:.\Generated_Source\PSoC5/CyFlash.c ****     *
 321:.\Generated_Source\PSoC5/CyFlash.c ****     * Summary:
 322:.\Generated_Source\PSoC5/CyFlash.c ****     *   Sends a command to the SPC to load and program a row of data in flash.
 323:.\Generated_Source\PSoC5/CyFlash.c ****     *
 324:.\Generated_Source\PSoC5/CyFlash.c ****     * Parameters:
 325:.\Generated_Source\PSoC5/CyFlash.c ****     *  arrayID      : ID of the array to write.
 326:.\Generated_Source\PSoC5/CyFlash.c ****     *  rowAddress   : rowAddress of flash row to program.
 327:.\Generated_Source\PSoC5/CyFlash.c ****     *  rowData      : Array of bytes to write.
 328:.\Generated_Source\PSoC5/CyFlash.c ****     *
 329:.\Generated_Source\PSoC5/CyFlash.c ****     * Return:
 330:.\Generated_Source\PSoC5/CyFlash.c ****     *  status:
 331:.\Generated_Source\PSoC5/CyFlash.c ****     *   CYRET_SUCCESS if successful.
 332:.\Generated_Source\PSoC5/CyFlash.c ****     *   CYRET_LOCKED if the SPC is already in use.
 333:.\Generated_Source\PSoC5/CyFlash.c ****     *   CYRET_CANCELED if command not accepted
 334:.\Generated_Source\PSoC5/CyFlash.c ****     *   CYRET_UNKNOWN if there was an SPC error.
 335:.\Generated_Source\PSoC5/CyFlash.c ****     *
 336:.\Generated_Source\PSoC5/CyFlash.c ****     *******************************************************************************/
 337:.\Generated_Source\PSoC5/CyFlash.c ****     cystatus CyWriteRowData(uint8 arrayId, uint16 rowAddress, uint8 * rowData) 
 338:.\Generated_Source\PSoC5/CyFlash.c ****     {
 339:.\Generated_Source\PSoC5/CyFlash.c ****         uint8 index;
 340:.\Generated_Source\PSoC5/CyFlash.c ****         uint32 offset;
 341:.\Generated_Source\PSoC5/CyFlash.c ****         uint16 rowSize;
 342:.\Generated_Source\PSoC5/CyFlash.c ****         cystatus status;
 343:.\Generated_Source\PSoC5/CyFlash.c **** 
 344:.\Generated_Source\PSoC5/CyFlash.c ****         rowSize = (arrayId > CY_SPC_LAST_FLASH_ARRAYID) ? \
 345:.\Generated_Source\PSoC5/CyFlash.c ****                     CYDEV_EEPROM_ROW_SIZE : \
 346:.\Generated_Source\PSoC5/CyFlash.c ****                     (CYDEV_FLS_ROW_SIZE + CYDEV_ECC_ROW_SIZE);
 347:.\Generated_Source\PSoC5/CyFlash.c **** 
 348:.\Generated_Source\PSoC5/CyFlash.c ****         if(rowSize != CYDEV_EEPROM_ROW_SIZE)
 349:.\Generated_Source\PSoC5/CyFlash.c ****         {
 350:.\Generated_Source\PSoC5/CyFlash.c ****             /* Save the ECC area. */
 351:.\Generated_Source\PSoC5/CyFlash.c ****             offset = CYDEV_ECC_BASE + ((uint32) arrayId * CYDEV_ECC_SECTOR_SIZE) +
 352:.\Generated_Source\PSoC5/CyFlash.c ****                     ((uint32) rowAddress * CYDEV_ECC_ROW_SIZE);
 353:.\Generated_Source\PSoC5/CyFlash.c **** 
 354:.\Generated_Source\PSoC5/CyFlash.c ****             for (index = 0; index < CYDEV_ECC_ROW_SIZE; index++)
 355:.\Generated_Source\PSoC5/CyFlash.c ****             {
 356:.\Generated_Source\PSoC5/CyFlash.c ****                 rowBuffer[CYDEV_FLS_ROW_SIZE + index] = CY_GET_XTND_REG8((void CYFAR *)(offset + in
 357:.\Generated_Source\PSoC5/CyFlash.c ****             }
ARM GAS  C:\Users\SUZUKI~1\AppData\Local\Temp\ccpR06Mr.s 			page 9


 358:.\Generated_Source\PSoC5/CyFlash.c ****         }
 359:.\Generated_Source\PSoC5/CyFlash.c **** 
 360:.\Generated_Source\PSoC5/CyFlash.c ****         /* Copy the rowdata to the temporary buffer. */
 361:.\Generated_Source\PSoC5/CyFlash.c ****         memcpy(rowBuffer, rowData, CYDEV_FLS_ROW_SIZE);
 362:.\Generated_Source\PSoC5/CyFlash.c **** 
 363:.\Generated_Source\PSoC5/CyFlash.c ****         status = CyWriteRowFull(arrayId, rowAddress, rowBuffer, rowSize);
 364:.\Generated_Source\PSoC5/CyFlash.c **** 
 365:.\Generated_Source\PSoC5/CyFlash.c ****         return(status);
 366:.\Generated_Source\PSoC5/CyFlash.c ****     }
 367:.\Generated_Source\PSoC5/CyFlash.c **** 
 368:.\Generated_Source\PSoC5/CyFlash.c **** #endif /* (CYDEV_ECC_ENABLE == 0u) */
 369:.\Generated_Source\PSoC5/CyFlash.c **** 
 370:.\Generated_Source\PSoC5/CyFlash.c **** 
 371:.\Generated_Source\PSoC5/CyFlash.c **** #if ((CYDEV_ECC_ENABLE == 0u) && (CYDEV_CONFIGURATION_ECC == 0u))
 372:.\Generated_Source\PSoC5/CyFlash.c **** 
 373:.\Generated_Source\PSoC5/CyFlash.c ****     /*******************************************************************************
 374:.\Generated_Source\PSoC5/CyFlash.c ****     * Function Name: CyWriteRowConfig
 375:.\Generated_Source\PSoC5/CyFlash.c ****     ********************************************************************************
 376:.\Generated_Source\PSoC5/CyFlash.c ****     *
 377:.\Generated_Source\PSoC5/CyFlash.c ****     * Summary:
 378:.\Generated_Source\PSoC5/CyFlash.c ****     *  Sends a command to the SPC to load and program a row of config data in flash.
 379:.\Generated_Source\PSoC5/CyFlash.c ****     *  This function is only valid for Flash array IDs (not for EEPROM).
 380:.\Generated_Source\PSoC5/CyFlash.c ****     *
 381:.\Generated_Source\PSoC5/CyFlash.c ****     * Parameters:
 382:.\Generated_Source\PSoC5/CyFlash.c ****     *  arrayId:
 383:.\Generated_Source\PSoC5/CyFlash.c ****     *   ID of the array to write
 384:.\Generated_Source\PSoC5/CyFlash.c ****     *  rowAddress:
 385:.\Generated_Source\PSoC5/CyFlash.c ****     *   Address of the sector to erase.
 386:.\Generated_Source\PSoC5/CyFlash.c ****     *  rowData:
 387:.\Generated_Source\PSoC5/CyFlash.c ****     *   Array of bytes to write.
 388:.\Generated_Source\PSoC5/CyFlash.c ****     *
 389:.\Generated_Source\PSoC5/CyFlash.c ****     * Return:
 390:.\Generated_Source\PSoC5/CyFlash.c ****     *  status:
 391:.\Generated_Source\PSoC5/CyFlash.c ****     *   CYRET_SUCCESS if successful.
 392:.\Generated_Source\PSoC5/CyFlash.c ****     *   CYRET_LOCKED if the SPC is already in use.
 393:.\Generated_Source\PSoC5/CyFlash.c ****     *   CYRET_CANCELED if command not accepted
 394:.\Generated_Source\PSoC5/CyFlash.c ****     *   CYRET_UNKNOWN if there was an SPC error.
 395:.\Generated_Source\PSoC5/CyFlash.c ****     *
 396:.\Generated_Source\PSoC5/CyFlash.c ****     *******************************************************************************/
 397:.\Generated_Source\PSoC5/CyFlash.c ****     cystatus CyWriteRowConfig(uint8 arrayId, uint16 rowAddress, uint8 * rowData) 
 398:.\Generated_Source\PSoC5/CyFlash.c ****     {
 399:.\Generated_Source\PSoC5/CyFlash.c ****         uint32 offset;
 400:.\Generated_Source\PSoC5/CyFlash.c ****         uint16 index;
 401:.\Generated_Source\PSoC5/CyFlash.c ****         cystatus status;
 402:.\Generated_Source\PSoC5/CyFlash.c **** 
 403:.\Generated_Source\PSoC5/CyFlash.c ****         /* Read the existing flash data. */
 404:.\Generated_Source\PSoC5/CyFlash.c ****         offset = CYDEV_FLS_BASE + ((uint32) arrayId * CYDEV_FLS_SECTOR_SIZE) +
 405:.\Generated_Source\PSoC5/CyFlash.c ****             ((uint32) rowAddress * CYDEV_FLS_ROW_SIZE);
 406:.\Generated_Source\PSoC5/CyFlash.c **** 
 407:.\Generated_Source\PSoC5/CyFlash.c ****         for (index = 0; index < CYDEV_FLS_ROW_SIZE; index++)
 408:.\Generated_Source\PSoC5/CyFlash.c ****         {
 409:.\Generated_Source\PSoC5/CyFlash.c ****             rowBuffer[index] = CY_GET_XTND_REG8((void CYFAR *)(offset + index));
 410:.\Generated_Source\PSoC5/CyFlash.c ****         }
 411:.\Generated_Source\PSoC5/CyFlash.c **** 
 412:.\Generated_Source\PSoC5/CyFlash.c ****         /* Copy the rowData to the temporary buffer. */
 413:.\Generated_Source\PSoC5/CyFlash.c ****         memcpy(&rowBuffer[CYDEV_FLS_ROW_SIZE], rowData, CYDEV_ECC_ROW_SIZE);
 414:.\Generated_Source\PSoC5/CyFlash.c **** 
ARM GAS  C:\Users\SUZUKI~1\AppData\Local\Temp\ccpR06Mr.s 			page 10


 415:.\Generated_Source\PSoC5/CyFlash.c ****         status = CyWriteRowFull(arrayId, rowAddress, rowBuffer, CYDEV_FLS_ROW_SIZE + CYDEV_ECC_ROW_
 416:.\Generated_Source\PSoC5/CyFlash.c **** 
 417:.\Generated_Source\PSoC5/CyFlash.c ****         return (status);
 418:.\Generated_Source\PSoC5/CyFlash.c ****     }
 419:.\Generated_Source\PSoC5/CyFlash.c **** 
 420:.\Generated_Source\PSoC5/CyFlash.c **** #endif  /* ((CYDEV_ECC_ENABLE == 0u) && (CYDEV_CONFIGURATION_ECC == 0u)) */
 421:.\Generated_Source\PSoC5/CyFlash.c **** 
 422:.\Generated_Source\PSoC5/CyFlash.c **** 
 423:.\Generated_Source\PSoC5/CyFlash.c **** 
 424:.\Generated_Source\PSoC5/CyFlash.c **** /*******************************************************************************
 425:.\Generated_Source\PSoC5/CyFlash.c **** * Function Name: CyWriteRowFull
 426:.\Generated_Source\PSoC5/CyFlash.c **** ********************************************************************************
 427:.\Generated_Source\PSoC5/CyFlash.c **** * Summary:
 428:.\Generated_Source\PSoC5/CyFlash.c **** *   Sends a command to the SPC to load and program a row of data in flash.
 429:.\Generated_Source\PSoC5/CyFlash.c **** *   rowData array is expected to contain Flash and ECC data if needed.
 430:.\Generated_Source\PSoC5/CyFlash.c **** *
 431:.\Generated_Source\PSoC5/CyFlash.c **** * Parameters:
 432:.\Generated_Source\PSoC5/CyFlash.c **** *       arrayId: FLASH or EEPROM array id.
 433:.\Generated_Source\PSoC5/CyFlash.c **** *       rowData: pointer to a row of data to write.
 434:.\Generated_Source\PSoC5/CyFlash.c **** *       rowNumber: Zero based number of the row.
 435:.\Generated_Source\PSoC5/CyFlash.c **** *       rowSize: Size of the row.
 436:.\Generated_Source\PSoC5/CyFlash.c **** *
 437:.\Generated_Source\PSoC5/CyFlash.c **** * Return:
 438:.\Generated_Source\PSoC5/CyFlash.c **** *   CYRET_SUCCESS if successful.
 439:.\Generated_Source\PSoC5/CyFlash.c **** *   CYRET_LOCKED if the SPC is already in use.
 440:.\Generated_Source\PSoC5/CyFlash.c **** *   CYRET_CANCELED if command not accepted
 441:.\Generated_Source\PSoC5/CyFlash.c **** *   CYRET_UNKNOWN if there was an SPC error.
 442:.\Generated_Source\PSoC5/CyFlash.c **** *
 443:.\Generated_Source\PSoC5/CyFlash.c **** *******************************************************************************/
 444:.\Generated_Source\PSoC5/CyFlash.c **** cystatus CyWriteRowFull(uint8 arrayId, uint16 rowNumber, uint8* rowData, uint16 rowSize) \
 445:.\Generated_Source\PSoC5/CyFlash.c ****         
 446:.\Generated_Source\PSoC5/CyFlash.c **** {
 447:.\Generated_Source\PSoC5/CyFlash.c ****     cystatus status;
 448:.\Generated_Source\PSoC5/CyFlash.c **** 
 449:.\Generated_Source\PSoC5/CyFlash.c ****     if(CySpcLock() == CYRET_SUCCESS)
 450:.\Generated_Source\PSoC5/CyFlash.c ****     {
 451:.\Generated_Source\PSoC5/CyFlash.c ****         /* Load row data into SPC internal latch */
 452:.\Generated_Source\PSoC5/CyFlash.c ****         status = CySpcLoadRow(arrayId, rowData, rowSize);
 453:.\Generated_Source\PSoC5/CyFlash.c **** 
 454:.\Generated_Source\PSoC5/CyFlash.c ****         if(CYRET_STARTED == status)
 455:.\Generated_Source\PSoC5/CyFlash.c ****         {
 456:.\Generated_Source\PSoC5/CyFlash.c ****             while(CY_SPC_BUSY)
 457:.\Generated_Source\PSoC5/CyFlash.c ****             {
 458:.\Generated_Source\PSoC5/CyFlash.c ****                 /* Wait for SPC to finish and get SPC status */
 459:.\Generated_Source\PSoC5/CyFlash.c ****                 CyDelayUs(1u);
 460:.\Generated_Source\PSoC5/CyFlash.c ****             }
 461:.\Generated_Source\PSoC5/CyFlash.c **** 
 462:.\Generated_Source\PSoC5/CyFlash.c ****             /* Hide SPC status */
 463:.\Generated_Source\PSoC5/CyFlash.c ****             if(CY_SPC_STATUS_SUCCESS == CY_SPC_READ_STATUS)
 464:.\Generated_Source\PSoC5/CyFlash.c ****             {
 465:.\Generated_Source\PSoC5/CyFlash.c ****                 status = CYRET_SUCCESS;
 466:.\Generated_Source\PSoC5/CyFlash.c ****             }
 467:.\Generated_Source\PSoC5/CyFlash.c ****             else
 468:.\Generated_Source\PSoC5/CyFlash.c ****             {
 469:.\Generated_Source\PSoC5/CyFlash.c ****                 status = CYRET_UNKNOWN;
 470:.\Generated_Source\PSoC5/CyFlash.c ****             }
 471:.\Generated_Source\PSoC5/CyFlash.c **** 
ARM GAS  C:\Users\SUZUKI~1\AppData\Local\Temp\ccpR06Mr.s 			page 11


 472:.\Generated_Source\PSoC5/CyFlash.c ****             if(CYRET_SUCCESS == status)
 473:.\Generated_Source\PSoC5/CyFlash.c ****             {
 474:.\Generated_Source\PSoC5/CyFlash.c ****                 /* Erase and program flash with the data from SPC interval latch */
 475:.\Generated_Source\PSoC5/CyFlash.c ****                 status = CySpcWriteRow(arrayId, rowNumber, dieTemperature[0u], dieTemperature[1u]);
 476:.\Generated_Source\PSoC5/CyFlash.c **** 
 477:.\Generated_Source\PSoC5/CyFlash.c ****                 if(CYRET_STARTED == status)
 478:.\Generated_Source\PSoC5/CyFlash.c ****                 {
 479:.\Generated_Source\PSoC5/CyFlash.c ****                     while(CY_SPC_BUSY)
 480:.\Generated_Source\PSoC5/CyFlash.c ****                     {
 481:.\Generated_Source\PSoC5/CyFlash.c ****                         /* Wait for SPC to finish and get SPC status */
 482:.\Generated_Source\PSoC5/CyFlash.c ****                         CyDelayUs(1u);
 483:.\Generated_Source\PSoC5/CyFlash.c ****                     }
 484:.\Generated_Source\PSoC5/CyFlash.c **** 
 485:.\Generated_Source\PSoC5/CyFlash.c ****                     /* Hide SPC status */
 486:.\Generated_Source\PSoC5/CyFlash.c ****                     if(CY_SPC_STATUS_SUCCESS == CY_SPC_READ_STATUS)
 487:.\Generated_Source\PSoC5/CyFlash.c ****                     {
 488:.\Generated_Source\PSoC5/CyFlash.c ****                         status = CYRET_SUCCESS;
 489:.\Generated_Source\PSoC5/CyFlash.c ****                     }
 490:.\Generated_Source\PSoC5/CyFlash.c ****                     else
 491:.\Generated_Source\PSoC5/CyFlash.c ****                     {
 492:.\Generated_Source\PSoC5/CyFlash.c ****                         status = CYRET_UNKNOWN;
 493:.\Generated_Source\PSoC5/CyFlash.c ****                     }
 494:.\Generated_Source\PSoC5/CyFlash.c ****                 }
 495:.\Generated_Source\PSoC5/CyFlash.c ****             }
 496:.\Generated_Source\PSoC5/CyFlash.c **** 
 497:.\Generated_Source\PSoC5/CyFlash.c ****         }
 498:.\Generated_Source\PSoC5/CyFlash.c **** 
 499:.\Generated_Source\PSoC5/CyFlash.c ****         CySpcUnlock();
 500:.\Generated_Source\PSoC5/CyFlash.c ****     }
 501:.\Generated_Source\PSoC5/CyFlash.c ****     else
 502:.\Generated_Source\PSoC5/CyFlash.c ****     {
 503:.\Generated_Source\PSoC5/CyFlash.c ****         status = CYRET_LOCKED;
 504:.\Generated_Source\PSoC5/CyFlash.c ****     }
 505:.\Generated_Source\PSoC5/CyFlash.c **** 
 506:.\Generated_Source\PSoC5/CyFlash.c ****     return(status);
 507:.\Generated_Source\PSoC5/CyFlash.c **** }
 508:.\Generated_Source\PSoC5/CyFlash.c **** 
 509:.\Generated_Source\PSoC5/CyFlash.c **** 
 510:.\Generated_Source\PSoC5/CyFlash.c **** /*******************************************************************************
 511:.\Generated_Source\PSoC5/CyFlash.c **** * Function Name: CyFlash_SetWaitCycles
 512:.\Generated_Source\PSoC5/CyFlash.c **** ********************************************************************************
 513:.\Generated_Source\PSoC5/CyFlash.c **** *
 514:.\Generated_Source\PSoC5/CyFlash.c **** * Summary:
 515:.\Generated_Source\PSoC5/CyFlash.c **** *  Sets the number of clock cycles the cache will wait before it samples data
 516:.\Generated_Source\PSoC5/CyFlash.c **** *  coming back from Flash. This function must be called before increasing CPU
 517:.\Generated_Source\PSoC5/CyFlash.c **** *  clock frequency. It can optionally be called after lowering CPU clock
 518:.\Generated_Source\PSoC5/CyFlash.c **** *  frequency in order to improve CPU performance.
 519:.\Generated_Source\PSoC5/CyFlash.c **** *
 520:.\Generated_Source\PSoC5/CyFlash.c **** * Parameters:
 521:.\Generated_Source\PSoC5/CyFlash.c **** *  freq:
 522:.\Generated_Source\PSoC5/CyFlash.c **** *   Frequency of operation in Megahertz.
 523:.\Generated_Source\PSoC5/CyFlash.c **** *
 524:.\Generated_Source\PSoC5/CyFlash.c **** * Return:
 525:.\Generated_Source\PSoC5/CyFlash.c **** *  None
 526:.\Generated_Source\PSoC5/CyFlash.c **** *
 527:.\Generated_Source\PSoC5/CyFlash.c **** *******************************************************************************/
 528:.\Generated_Source\PSoC5/CyFlash.c **** void CyFlash_SetWaitCycles(uint8 freq) 
ARM GAS  C:\Users\SUZUKI~1\AppData\Local\Temp\ccpR06Mr.s 			page 12


 529:.\Generated_Source\PSoC5/CyFlash.c **** {
  96              		.loc 1 529 0
  97              		.cfi_startproc
  98              		@ args = 0, pretend = 0, frame = 0
  99              		@ frame_needed = 0, uses_anonymous_args = 0
 100              		@ link register save eliminated.
 101              	.LVL0:
 530:.\Generated_Source\PSoC5/CyFlash.c ****     /* Set Flash Cycles bit fields with frequency value */
 531:.\Generated_Source\PSoC5/CyFlash.c **** 
 532:.\Generated_Source\PSoC5/CyFlash.c ****     #if (CY_PSOC3)
 533:.\Generated_Source\PSoC5/CyFlash.c **** 
 534:.\Generated_Source\PSoC5/CyFlash.c ****         if (freq <= 22u)
 535:.\Generated_Source\PSoC5/CyFlash.c ****         {
 536:.\Generated_Source\PSoC5/CyFlash.c ****             *FLASH_CYCLES_PTR = ((*FLASH_CYCLES_PTR & ~FLASH_CYCLES_MASK) |
 537:.\Generated_Source\PSoC5/CyFlash.c ****                 (LESSER_OR_EQUAL_22MHz << FLASH_CYCLES_MASK_SHIFT));
 538:.\Generated_Source\PSoC5/CyFlash.c ****         }
 539:.\Generated_Source\PSoC5/CyFlash.c ****         else if (freq <= 44u)
 540:.\Generated_Source\PSoC5/CyFlash.c ****         {
 541:.\Generated_Source\PSoC5/CyFlash.c ****             *FLASH_CYCLES_PTR = ((*FLASH_CYCLES_PTR & ~FLASH_CYCLES_MASK) |
 542:.\Generated_Source\PSoC5/CyFlash.c ****                 (LESSER_OR_EQUAL_44MHz << FLASH_CYCLES_MASK_SHIFT));
 543:.\Generated_Source\PSoC5/CyFlash.c ****         }
 544:.\Generated_Source\PSoC5/CyFlash.c ****         else
 545:.\Generated_Source\PSoC5/CyFlash.c ****         {
 546:.\Generated_Source\PSoC5/CyFlash.c ****             *FLASH_CYCLES_PTR = ((*FLASH_CYCLES_PTR & ~FLASH_CYCLES_MASK) |
 547:.\Generated_Source\PSoC5/CyFlash.c ****                 (GREATER_44MHz << FLASH_CYCLES_MASK_SHIFT));
 548:.\Generated_Source\PSoC5/CyFlash.c ****         }
 549:.\Generated_Source\PSoC5/CyFlash.c **** 
 550:.\Generated_Source\PSoC5/CyFlash.c ****     #endif  /* (CY_PSOC3) */
 551:.\Generated_Source\PSoC5/CyFlash.c **** 
 552:.\Generated_Source\PSoC5/CyFlash.c **** 
 553:.\Generated_Source\PSoC5/CyFlash.c ****     #if (CY_PSOC5A)
 554:.\Generated_Source\PSoC5/CyFlash.c **** 
 555:.\Generated_Source\PSoC5/CyFlash.c ****         if (freq <= 16u)
 102              		.loc 1 555 0
 103 0000 1028     		cmp	r0, #16
 104 0002 06D8     		bhi	.L10
 556:.\Generated_Source\PSoC5/CyFlash.c ****         {
 557:.\Generated_Source\PSoC5/CyFlash.c ****             *FLASH_CYCLES_PTR = ((*FLASH_CYCLES_PTR & ~FLASH_CYCLES_MASK) |
 105              		.loc 1 557 0
 106 0004 0C4B     		ldr	r3, .L17
 107 0006 1A78     		ldrb	r2, [r3, #0]	@ zero_extendqisi2
 108 0008 02F03F02 		and	r2, r2, #63
 109 000c 42F04002 		orr	r2, r2, #64
 110 0010 10E0     		b	.L15
 111              	.L10:
 558:.\Generated_Source\PSoC5/CyFlash.c ****                 (LESSER_OR_EQUAL_16MHz << FLASH_CYCLES_MASK_SHIFT));
 559:.\Generated_Source\PSoC5/CyFlash.c ****         }
 560:.\Generated_Source\PSoC5/CyFlash.c ****         else if (freq <= 33u)
 112              		.loc 1 560 0
 113 0012 2128     		cmp	r0, #33
 114 0014 06D8     		bhi	.L12
 561:.\Generated_Source\PSoC5/CyFlash.c ****         {
 562:.\Generated_Source\PSoC5/CyFlash.c ****             *FLASH_CYCLES_PTR = ((*FLASH_CYCLES_PTR & ~FLASH_CYCLES_MASK) |
 115              		.loc 1 562 0
 116 0016 084B     		ldr	r3, .L17
 117 0018 1A78     		ldrb	r2, [r3, #0]	@ zero_extendqisi2
 118 001a 02F03F02 		and	r2, r2, #63
ARM GAS  C:\Users\SUZUKI~1\AppData\Local\Temp\ccpR06Mr.s 			page 13


 119 001e 42F08002 		orr	r2, r2, #128
 120 0022 07E0     		b	.L15
 121              	.L12:
 563:.\Generated_Source\PSoC5/CyFlash.c ****                 (LESSER_OR_EQUAL_33MHz << FLASH_CYCLES_MASK_SHIFT));
 564:.\Generated_Source\PSoC5/CyFlash.c ****         }
 565:.\Generated_Source\PSoC5/CyFlash.c ****         else if (freq <= 50u)
 566:.\Generated_Source\PSoC5/CyFlash.c ****         {
 567:.\Generated_Source\PSoC5/CyFlash.c ****             *FLASH_CYCLES_PTR = ((*FLASH_CYCLES_PTR & ~FLASH_CYCLES_MASK) |
 122              		.loc 1 567 0
 123 0024 044B     		ldr	r3, .L17
 124              		.loc 1 565 0
 125 0026 3228     		cmp	r0, #50
 126              		.loc 1 567 0
 127 0028 1A78     		ldrb	r2, [r3, #0]	@ zero_extendqisi2
 128 002a 94BF     		ite	ls
 129 002c 42F0C002 		orrls	r2, r2, #192
 568:.\Generated_Source\PSoC5/CyFlash.c ****                 (LESSER_OR_EQUAL_50MHz << FLASH_CYCLES_MASK_SHIFT));
 569:.\Generated_Source\PSoC5/CyFlash.c ****         }
 570:.\Generated_Source\PSoC5/CyFlash.c ****         else
 571:.\Generated_Source\PSoC5/CyFlash.c ****         {
 572:.\Generated_Source\PSoC5/CyFlash.c ****             *FLASH_CYCLES_PTR = ((*FLASH_CYCLES_PTR & ~FLASH_CYCLES_MASK) |
 130              		.loc 1 572 0
 131 0030 02F03F02 		andhi	r2, r2, #63
 132              	.L15:
 133 0034 1A70     		strb	r2, [r3, #0]
 134 0036 7047     		bx	lr
 135              	.L18:
 136              		.align	2
 137              	.L17:
 138 0038 00480040 		.word	1073760256
 139              		.cfi_endproc
 140              	.LFE7:
 141              		.size	CyFlash_SetWaitCycles, .-CyFlash_SetWaitCycles
 142              		.section	.text.CyEEPROM_ReadReserve,"ax",%progbits
 143              		.align	1
 144              		.global	CyEEPROM_ReadReserve
 145              		.thumb
 146              		.thumb_func
 147              		.type	CyEEPROM_ReadReserve, %function
 148              	CyEEPROM_ReadReserve:
 149              	.LFB8:
 573:.\Generated_Source\PSoC5/CyFlash.c ****                 (GREATER_51MHz << FLASH_CYCLES_MASK_SHIFT));
 574:.\Generated_Source\PSoC5/CyFlash.c ****         }
 575:.\Generated_Source\PSoC5/CyFlash.c **** 
 576:.\Generated_Source\PSoC5/CyFlash.c ****     #endif  /* (CY_PSOC5A) */
 577:.\Generated_Source\PSoC5/CyFlash.c **** 
 578:.\Generated_Source\PSoC5/CyFlash.c **** 
 579:.\Generated_Source\PSoC5/CyFlash.c ****     #if (CY_PSOC5LP)
 580:.\Generated_Source\PSoC5/CyFlash.c **** 
 581:.\Generated_Source\PSoC5/CyFlash.c ****         if (freq <= 16u)
 582:.\Generated_Source\PSoC5/CyFlash.c ****         {
 583:.\Generated_Source\PSoC5/CyFlash.c ****             *FLASH_CYCLES_PTR = ((*FLASH_CYCLES_PTR & ~FLASH_CYCLES_MASK) |
 584:.\Generated_Source\PSoC5/CyFlash.c ****                 (LESSER_OR_EQUAL_16MHz << FLASH_CYCLES_MASK_SHIFT));
 585:.\Generated_Source\PSoC5/CyFlash.c ****         }
 586:.\Generated_Source\PSoC5/CyFlash.c ****         else if (freq <= 33u)
 587:.\Generated_Source\PSoC5/CyFlash.c ****         {
 588:.\Generated_Source\PSoC5/CyFlash.c ****             *FLASH_CYCLES_PTR = ((*FLASH_CYCLES_PTR & ~FLASH_CYCLES_MASK) |
ARM GAS  C:\Users\SUZUKI~1\AppData\Local\Temp\ccpR06Mr.s 			page 14


 589:.\Generated_Source\PSoC5/CyFlash.c ****                 (LESSER_OR_EQUAL_33MHz << FLASH_CYCLES_MASK_SHIFT));
 590:.\Generated_Source\PSoC5/CyFlash.c ****         }
 591:.\Generated_Source\PSoC5/CyFlash.c ****         else if (freq <= 50u)
 592:.\Generated_Source\PSoC5/CyFlash.c ****         {
 593:.\Generated_Source\PSoC5/CyFlash.c ****             *FLASH_CYCLES_PTR = ((*FLASH_CYCLES_PTR & ~FLASH_CYCLES_MASK) |
 594:.\Generated_Source\PSoC5/CyFlash.c ****                 (LESSER_OR_EQUAL_50MHz << FLASH_CYCLES_MASK_SHIFT));
 595:.\Generated_Source\PSoC5/CyFlash.c ****         }
 596:.\Generated_Source\PSoC5/CyFlash.c ****         else
 597:.\Generated_Source\PSoC5/CyFlash.c ****         {
 598:.\Generated_Source\PSoC5/CyFlash.c ****             *FLASH_CYCLES_PTR = ((*FLASH_CYCLES_PTR & ~FLASH_CYCLES_MASK) |
 599:.\Generated_Source\PSoC5/CyFlash.c ****                 (GREATER_51MHz << FLASH_CYCLES_MASK_SHIFT));
 600:.\Generated_Source\PSoC5/CyFlash.c ****         }
 601:.\Generated_Source\PSoC5/CyFlash.c **** 
 602:.\Generated_Source\PSoC5/CyFlash.c ****     #endif  /* (CY_PSOC5LP) */
 603:.\Generated_Source\PSoC5/CyFlash.c **** }
 604:.\Generated_Source\PSoC5/CyFlash.c **** 
 605:.\Generated_Source\PSoC5/CyFlash.c **** 
 606:.\Generated_Source\PSoC5/CyFlash.c **** #if (CY_PSOC3 || CY_PSOC5LP)
 607:.\Generated_Source\PSoC5/CyFlash.c **** 
 608:.\Generated_Source\PSoC5/CyFlash.c ****     /*******************************************************************************
 609:.\Generated_Source\PSoC5/CyFlash.c ****     * Function Name: CyEEPROM_Start
 610:.\Generated_Source\PSoC5/CyFlash.c ****     ********************************************************************************
 611:.\Generated_Source\PSoC5/CyFlash.c ****     *
 612:.\Generated_Source\PSoC5/CyFlash.c ****     * Summary:
 613:.\Generated_Source\PSoC5/CyFlash.c ****     *  Enable the EEPROM.
 614:.\Generated_Source\PSoC5/CyFlash.c ****     *
 615:.\Generated_Source\PSoC5/CyFlash.c ****     * Parameters:
 616:.\Generated_Source\PSoC5/CyFlash.c ****     *  None
 617:.\Generated_Source\PSoC5/CyFlash.c ****     *
 618:.\Generated_Source\PSoC5/CyFlash.c ****     * Return:
 619:.\Generated_Source\PSoC5/CyFlash.c ****     *  None
 620:.\Generated_Source\PSoC5/CyFlash.c ****     *
 621:.\Generated_Source\PSoC5/CyFlash.c ****     *******************************************************************************/
 622:.\Generated_Source\PSoC5/CyFlash.c ****     void CyEEPROM_Start(void) 
 623:.\Generated_Source\PSoC5/CyFlash.c ****     {
 624:.\Generated_Source\PSoC5/CyFlash.c ****         /* Active Power Mode */
 625:.\Generated_Source\PSoC5/CyFlash.c ****         *PM_ACT_EE_PTR |= PM_EE_MASK;
 626:.\Generated_Source\PSoC5/CyFlash.c **** 
 627:.\Generated_Source\PSoC5/CyFlash.c ****         /* Standby Power Mode */
 628:.\Generated_Source\PSoC5/CyFlash.c ****         *PM_STBY_EE_PTR |= PM_EE_MASK;
 629:.\Generated_Source\PSoC5/CyFlash.c ****     }
 630:.\Generated_Source\PSoC5/CyFlash.c **** 
 631:.\Generated_Source\PSoC5/CyFlash.c **** 
 632:.\Generated_Source\PSoC5/CyFlash.c ****     /*******************************************************************************
 633:.\Generated_Source\PSoC5/CyFlash.c ****     * Function Name: CyEEPROM_Stop
 634:.\Generated_Source\PSoC5/CyFlash.c ****     ********************************************************************************
 635:.\Generated_Source\PSoC5/CyFlash.c ****     *
 636:.\Generated_Source\PSoC5/CyFlash.c ****     * Summary:
 637:.\Generated_Source\PSoC5/CyFlash.c ****     *  Disable the EEPROM.
 638:.\Generated_Source\PSoC5/CyFlash.c ****     *
 639:.\Generated_Source\PSoC5/CyFlash.c ****     * Parameters:
 640:.\Generated_Source\PSoC5/CyFlash.c ****     *  None
 641:.\Generated_Source\PSoC5/CyFlash.c ****     *
 642:.\Generated_Source\PSoC5/CyFlash.c ****     * Return:
 643:.\Generated_Source\PSoC5/CyFlash.c ****     *  None
 644:.\Generated_Source\PSoC5/CyFlash.c ****     *
 645:.\Generated_Source\PSoC5/CyFlash.c ****     *******************************************************************************/
ARM GAS  C:\Users\SUZUKI~1\AppData\Local\Temp\ccpR06Mr.s 			page 15


 646:.\Generated_Source\PSoC5/CyFlash.c ****     void CyEEPROM_Stop (void) 
 647:.\Generated_Source\PSoC5/CyFlash.c ****     {
 648:.\Generated_Source\PSoC5/CyFlash.c ****         /* Active Power Mode */
 649:.\Generated_Source\PSoC5/CyFlash.c ****         *PM_ACT_EE_PTR &= ~PM_EE_MASK;
 650:.\Generated_Source\PSoC5/CyFlash.c **** 
 651:.\Generated_Source\PSoC5/CyFlash.c ****         /* Standby Power Mode */
 652:.\Generated_Source\PSoC5/CyFlash.c ****         *PM_STBY_EE_PTR &= ~PM_EE_MASK;
 653:.\Generated_Source\PSoC5/CyFlash.c ****     }
 654:.\Generated_Source\PSoC5/CyFlash.c **** 
 655:.\Generated_Source\PSoC5/CyFlash.c **** #endif /* (CY_PSOC3 || CY_PSOC5LP) */
 656:.\Generated_Source\PSoC5/CyFlash.c **** 
 657:.\Generated_Source\PSoC5/CyFlash.c **** 
 658:.\Generated_Source\PSoC5/CyFlash.c **** /*******************************************************************************
 659:.\Generated_Source\PSoC5/CyFlash.c **** * Function Name: CyEEPROM_ReadReserve
 660:.\Generated_Source\PSoC5/CyFlash.c **** ********************************************************************************
 661:.\Generated_Source\PSoC5/CyFlash.c **** *
 662:.\Generated_Source\PSoC5/CyFlash.c **** * Summary:
 663:.\Generated_Source\PSoC5/CyFlash.c **** *  Request access to the EEPROM for reading and wait until access is available.
 664:.\Generated_Source\PSoC5/CyFlash.c **** *
 665:.\Generated_Source\PSoC5/CyFlash.c **** * Parameters:
 666:.\Generated_Source\PSoC5/CyFlash.c **** *  None
 667:.\Generated_Source\PSoC5/CyFlash.c **** *
 668:.\Generated_Source\PSoC5/CyFlash.c **** * Return:
 669:.\Generated_Source\PSoC5/CyFlash.c **** *  None
 670:.\Generated_Source\PSoC5/CyFlash.c **** *
 671:.\Generated_Source\PSoC5/CyFlash.c **** *******************************************************************************/
 672:.\Generated_Source\PSoC5/CyFlash.c **** void CyEEPROM_ReadReserve(void) 
 673:.\Generated_Source\PSoC5/CyFlash.c **** {
 150              		.loc 1 673 0
 151              		.cfi_startproc
 152              		@ args = 0, pretend = 0, frame = 0
 153              		@ frame_needed = 0, uses_anonymous_args = 0
 154              		@ link register save eliminated.
 674:.\Generated_Source\PSoC5/CyFlash.c ****     /* Make a request for PHUB to have access */
 675:.\Generated_Source\PSoC5/CyFlash.c ****     *AHUB_EE_REQ_ACK_PTR |= 0x01u;
 155              		.loc 1 675 0
 156 0000 054B     		ldr	r3, .L22
 157 0002 1A78     		ldrb	r2, [r3, #0]	@ zero_extendqisi2
 158 0004 42F00102 		orr	r2, r2, #1
 159 0008 1A70     		strb	r2, [r3, #0]
 160              	.L20:
 676:.\Generated_Source\PSoC5/CyFlash.c **** 
 677:.\Generated_Source\PSoC5/CyFlash.c ****     /* Wait for acknowledgement from PHUB */
 678:.\Generated_Source\PSoC5/CyFlash.c ****     while (!(*AHUB_EE_REQ_ACK_PTR & 0x02u));
 161              		.loc 1 678 0
 162 000a 034B     		ldr	r3, .L22
 163 000c 1B78     		ldrb	r3, [r3, #0]	@ zero_extendqisi2
 164 000e 13F0020F 		tst	r3, #2
 165 0012 FAD0     		beq	.L20
 679:.\Generated_Source\PSoC5/CyFlash.c **** }
 166              		.loc 1 679 0
 167 0014 7047     		bx	lr
 168              	.L23:
 169 0016 00BF     		.align	2
 170              	.L22:
 171 0018 02470040 		.word	1073760002
 172              		.cfi_endproc
ARM GAS  C:\Users\SUZUKI~1\AppData\Local\Temp\ccpR06Mr.s 			page 16


 173              	.LFE8:
 174              		.size	CyEEPROM_ReadReserve, .-CyEEPROM_ReadReserve
 175              		.section	.text.CyEEPROM_ReadRelease,"ax",%progbits
 176              		.align	1
 177              		.global	CyEEPROM_ReadRelease
 178              		.thumb
 179              		.thumb_func
 180              		.type	CyEEPROM_ReadRelease, %function
 181              	CyEEPROM_ReadRelease:
 182              	.LFB9:
 680:.\Generated_Source\PSoC5/CyFlash.c **** 
 681:.\Generated_Source\PSoC5/CyFlash.c **** 
 682:.\Generated_Source\PSoC5/CyFlash.c **** /*******************************************************************************
 683:.\Generated_Source\PSoC5/CyFlash.c **** * Function Name: CyEEPROM_ReadRelease
 684:.\Generated_Source\PSoC5/CyFlash.c **** ********************************************************************************
 685:.\Generated_Source\PSoC5/CyFlash.c **** *
 686:.\Generated_Source\PSoC5/CyFlash.c **** * Summary:
 687:.\Generated_Source\PSoC5/CyFlash.c **** *  Release the read reservation of the EEPROM.
 688:.\Generated_Source\PSoC5/CyFlash.c **** *
 689:.\Generated_Source\PSoC5/CyFlash.c **** * Parameters:
 690:.\Generated_Source\PSoC5/CyFlash.c **** *  None
 691:.\Generated_Source\PSoC5/CyFlash.c **** *
 692:.\Generated_Source\PSoC5/CyFlash.c **** * Return:
 693:.\Generated_Source\PSoC5/CyFlash.c **** *  None
 694:.\Generated_Source\PSoC5/CyFlash.c **** *
 695:.\Generated_Source\PSoC5/CyFlash.c **** *******************************************************************************/
 696:.\Generated_Source\PSoC5/CyFlash.c **** void CyEEPROM_ReadRelease(void) 
 697:.\Generated_Source\PSoC5/CyFlash.c **** {
 183              		.loc 1 697 0
 184              		.cfi_startproc
 185              		@ args = 0, pretend = 0, frame = 0
 186              		@ frame_needed = 0, uses_anonymous_args = 0
 187              		@ link register save eliminated.
 698:.\Generated_Source\PSoC5/CyFlash.c ****     *AHUB_EE_REQ_ACK_PTR |= 0x00u;
 188              		.loc 1 698 0
 189 0000 014B     		ldr	r3, .L26
 190 0002 1A78     		ldrb	r2, [r3, #0]	@ zero_extendqisi2
 191 0004 1A70     		strb	r2, [r3, #0]
 699:.\Generated_Source\PSoC5/CyFlash.c **** }
 192              		.loc 1 699 0
 193 0006 7047     		bx	lr
 194              	.L27:
 195              		.align	2
 196              	.L26:
 197 0008 02470040 		.word	1073760002
 198              		.cfi_endproc
 199              	.LFE9:
 200              		.size	CyEEPROM_ReadRelease, .-CyEEPROM_ReadRelease
 201              		.section	.text.CyWriteRowFull,"ax",%progbits
 202              		.align	1
 203              		.global	CyWriteRowFull
 204              		.thumb
 205              		.thumb_func
 206              		.type	CyWriteRowFull, %function
 207              	CyWriteRowFull:
 208              	.LFB6:
 209              		.loc 1 446 0
ARM GAS  C:\Users\SUZUKI~1\AppData\Local\Temp\ccpR06Mr.s 			page 17


 210              		.cfi_startproc
 211              		@ args = 0, pretend = 0, frame = 0
 212              		@ frame_needed = 0, uses_anonymous_args = 0
 213              	.LVL1:
 214 0000 F8B5     		push	{r3, r4, r5, r6, r7, lr}
 215              	.LCFI0:
 216              		.cfi_def_cfa_offset 24
 217              	.LVL2:
 218              		.loc 1 446 0
 219 0002 0446     		mov	r4, r0
 220              		.cfi_offset 14, -4
 221              		.cfi_offset 7, -8
 222              		.cfi_offset 6, -12
 223              		.cfi_offset 5, -16
 224              		.cfi_offset 4, -20
 225              		.cfi_offset 3, -24
 226 0004 0D46     		mov	r5, r1
 227 0006 1746     		mov	r7, r2
 228 0008 1E46     		mov	r6, r3
 229              	.LVL3:
 230              		.loc 1 449 0
 231 000a FFF7FEFF 		bl	CySpcLock
 232              	.LVL4:
 233 000e 08B1     		cbz	r0, .L29
 234 0010 0426     		movs	r6, #4
 235              	.LVL5:
 236 0012 35E0     		b	.L30
 237              	.LVL6:
 238              	.L29:
 239              		.loc 1 452 0
 240 0014 3246     		mov	r2, r6
 241 0016 2046     		mov	r0, r4
 242 0018 3946     		mov	r1, r7
 243 001a FFF7FEFF 		bl	CySpcLoadRow
 244              		.loc 1 454 0
 245 001e 0728     		cmp	r0, #7
 246              	.LVL7:
 247              		.loc 1 452 0
 248 0020 0646     		mov	r6, r0
 249              	.LVL8:
 250              		.loc 1 454 0
 251 0022 2BD1     		bne	.L32
 252 0024 02E0     		b	.L31
 253              	.L33:
 254              		.loc 1 459 0
 255 0026 0120     		movs	r0, #1
 256 0028 FFF7FEFF 		bl	CyDelayUs
 257              	.L31:
 258              		.loc 1 456 0
 259 002c 154B     		ldr	r3, .L38
 260 002e 1A78     		ldrb	r2, [r3, #0]	@ zero_extendqisi2
 261 0030 12F0020F 		tst	r2, #2
 262 0034 F7D0     		beq	.L33
 263              		.loc 1 463 0
 264 0036 1A78     		ldrb	r2, [r3, #0]	@ zero_extendqisi2
 265 0038 12F0020F 		tst	r2, #2
 266 003c 1CD0     		beq	.L34
ARM GAS  C:\Users\SUZUKI~1\AppData\Local\Temp\ccpR06Mr.s 			page 18


 267 003e 1B78     		ldrb	r3, [r3, #0]	@ zero_extendqisi2
 268 0040 9B08     		lsrs	r3, r3, #2
 269 0042 19D1     		bne	.L34
 270              		.loc 1 475 0
 271 0044 104B     		ldr	r3, .L38+4
 272 0046 2046     		mov	r0, r4
 273 0048 1A78     		ldrb	r2, [r3, #0]	@ zero_extendqisi2
 274 004a 2946     		mov	r1, r5
 275 004c 5B78     		ldrb	r3, [r3, #1]	@ zero_extendqisi2
 276 004e FFF7FEFF 		bl	CySpcWriteRow
 277              		.loc 1 477 0
 278 0052 0728     		cmp	r0, #7
 279              		.loc 1 475 0
 280 0054 0646     		mov	r6, r0
 281              		.loc 1 477 0
 282 0056 11D1     		bne	.L32
 283 0058 02E0     		b	.L35
 284              	.L36:
 285              		.loc 1 482 0
 286 005a 0120     		movs	r0, #1
 287 005c FFF7FEFF 		bl	CyDelayUs
 288              	.L35:
 289              		.loc 1 479 0
 290 0060 084B     		ldr	r3, .L38
 291 0062 1A78     		ldrb	r2, [r3, #0]	@ zero_extendqisi2
 292 0064 12F0020F 		tst	r2, #2
 293 0068 F7D0     		beq	.L36
 294              		.loc 1 486 0
 295 006a 1A78     		ldrb	r2, [r3, #0]	@ zero_extendqisi2
 296 006c 12F0020F 		tst	r2, #2
 297 0070 02D0     		beq	.L34
 298 0072 1E78     		ldrb	r6, [r3, #0]	@ zero_extendqisi2
 299              	.LVL9:
 300 0074 B608     		lsrs	r6, r6, #2
 301 0076 01D0     		beq	.L32
 302              	.LVL10:
 303              	.L34:
 304 0078 4FF0FF36 		mov	r6, #-1
 305              	.L32:
 306              		.loc 1 499 0
 307 007c FFF7FEFF 		bl	CySpcUnlock
 308              	.L30:
 309              		.loc 1 507 0
 310 0080 3046     		mov	r0, r6
 311 0082 F8BD     		pop	{r3, r4, r5, r6, r7, pc}
 312              	.L39:
 313              		.align	2
 314              	.L38:
 315 0084 22470040 		.word	1073760034
 316 0088 00000000 		.word	dieTemperature
 317              		.cfi_endproc
 318              	.LFE6:
 319              		.size	CyWriteRowFull, .-CyWriteRowFull
 320              		.section	.text.CyWriteRowData,"ax",%progbits
 321              		.align	1
 322              		.global	CyWriteRowData
 323              		.thumb
ARM GAS  C:\Users\SUZUKI~1\AppData\Local\Temp\ccpR06Mr.s 			page 19


 324              		.thumb_func
 325              		.type	CyWriteRowData, %function
 326              	CyWriteRowData:
 327              	.LFB5:
 328              		.loc 1 338 0
 329              		.cfi_startproc
 330              		@ args = 0, pretend = 0, frame = 0
 331              		@ frame_needed = 0, uses_anonymous_args = 0
 332              	.LVL11:
 333              		.loc 1 344 0
 334 0000 3F28     		cmp	r0, #63
 335              		.loc 1 338 0
 336 0002 2DE9F041 		push	{r4, r5, r6, r7, r8, lr}
 337              	.LCFI1:
 338              		.cfi_def_cfa_offset 24
 339              		.loc 1 338 0
 340 0006 0446     		mov	r4, r0
 341              		.cfi_offset 14, -4
 342              		.cfi_offset 8, -8
 343              		.cfi_offset 7, -12
 344              		.cfi_offset 6, -16
 345              		.cfi_offset 5, -20
 346              		.cfi_offset 4, -24
 347 0008 0D46     		mov	r5, r1
 348              		.loc 1 344 0
 349 000a 1AD9     		bls	.L41
 350              	.LVL12:
 351 000c 1026     		movs	r6, #16
 352              	.LVL13:
 353 000e 09E0     		b	.L42
 354              	.LVL14:
 355              	.L43:
 356              		.loc 1 356 0
 357 0010 CE18     		adds	r6, r1, r3
 358 0012 13F800C0 		ldrb	ip, [r3, r0]	@ zero_extendqisi2
 359 0016 0133     		adds	r3, r3, #1
 360              		.loc 1 354 0
 361 0018 202B     		cmp	r3, #32
 362              		.loc 1 356 0
 363 001a 86F800C1 		strb	ip, [r6, #256]
 364              		.loc 1 354 0
 365 001e F7D1     		bne	.L43
 366 0020 4FF49076 		mov	r6, #288
 367              	.LVL15:
 368              	.L42:
 369              		.loc 1 361 0
 370 0024 0B4F     		ldr	r7, .L45
 371 0026 1146     		mov	r1, r2
 372 0028 3868     		ldr	r0, [r7, #0]
 373              	.LVL16:
 374 002a 4FF48072 		mov	r2, #256
 375              	.LVL17:
 376 002e FFF7FEFF 		bl	memcpy
 377              		.loc 1 363 0
 378 0032 3A68     		ldr	r2, [r7, #0]
 379 0034 2046     		mov	r0, r4
 380 0036 2946     		mov	r1, r5
ARM GAS  C:\Users\SUZUKI~1\AppData\Local\Temp\ccpR06Mr.s 			page 20


 381 0038 3346     		mov	r3, r6
 382              		.loc 1 366 0
 383 003a BDE8F041 		pop	{r4, r5, r6, r7, r8, lr}
 384              		.loc 1 363 0
 385 003e FFF7FEBF 		b	CyWriteRowFull
 386              	.LVL18:
 387              	.L41:
 388              		.loc 1 356 0
 389 0042 044B     		ldr	r3, .L45
 390              		.loc 1 351 0
 391 0044 00F51030 		add	r0, r0, #147456
 392 0048 01EB0020 		add	r0, r1, r0, lsl #8
 393 004c 4001     		lsls	r0, r0, #5
 394              	.LVL19:
 395              		.loc 1 356 0
 396 004e 1968     		ldr	r1, [r3, #0]
 397 0050 0023     		movs	r3, #0
 398 0052 DDE7     		b	.L43
 399              	.L46:
 400              		.align	2
 401              	.L45:
 402 0054 00000000 		.word	.LANCHOR0
 403              		.cfi_endproc
 404              	.LFE5:
 405              		.size	CyWriteRowData, .-CyWriteRowData
 406              		.section	.text.CySetFlashEEBuffer,"ax",%progbits
 407              		.align	1
 408              		.global	CySetFlashEEBuffer
 409              		.thumb
 410              		.thumb_func
 411              		.type	CySetFlashEEBuffer, %function
 412              	CySetFlashEEBuffer:
 413              	.LFB4:
 414              		.loc 1 247 0
 415              		.cfi_startproc
 416              		@ args = 0, pretend = 0, frame = 0
 417              		@ frame_needed = 0, uses_anonymous_args = 0
 418              	.LVL20:
 419 0000 38B5     		push	{r3, r4, r5, lr}
 420              	.LCFI2:
 421              		.cfi_def_cfa_offset 16
 422              		.loc 1 247 0
 423 0002 0446     		mov	r4, r0
 424              		.cfi_offset 14, -4
 425              		.cfi_offset 5, -8
 426              		.cfi_offset 4, -12
 427              		.cfi_offset 3, -16
 428              		.loc 1 250 0
 429 0004 FFF7FEFF 		bl	CySpcStart
 430              	.LVL21:
 431              		.loc 1 254 0
 432 0008 0CB9     		cbnz	r4, .L48
 433 000a 0120     		movs	r0, #1
 434              	.LVL22:
 435 000c 38BD     		pop	{r3, r4, r5, pc}
 436              	.LVL23:
 437              	.L48:
ARM GAS  C:\Users\SUZUKI~1\AppData\Local\Temp\ccpR06Mr.s 			page 21


 438              		.loc 1 258 0
 439 000e FFF7FEFF 		bl	CySpcLock
 440 0012 0546     		mov	r5, r0
 441 0014 08B1     		cbz	r0, .L50
 442 0016 0420     		movs	r0, #4
 443              	.LVL24:
 444 0018 38BD     		pop	{r3, r4, r5, pc}
 445              	.LVL25:
 446              	.L50:
 447              		.loc 1 264 0
 448 001a 034B     		ldr	r3, .L52
 449 001c 1C60     		str	r4, [r3, #0]
 450              		.loc 1 265 0
 451 001e FFF7FEFF 		bl	CySpcUnlock
 452 0022 2846     		mov	r0, r5
 453              	.LVL26:
 454              	.LVL27:
 455              		.loc 1 276 0
 456 0024 38BD     		pop	{r3, r4, r5, pc}
 457              	.L53:
 458 0026 00BF     		.align	2
 459              	.L52:
 460 0028 00000000 		.word	.LANCHOR0
 461              		.cfi_endproc
 462              	.LFE4:
 463              		.size	CySetFlashEEBuffer, .-CySetFlashEEBuffer
 464              		.section	.text.CySetTempInt,"ax",%progbits
 465              		.align	1
 466              		.global	CySetTempInt
 467              		.thumb
 468              		.thumb_func
 469              		.type	CySetTempInt, %function
 470              	CySetTempInt:
 471              	.LFB2:
 472              		.loc 1 144 0
 473              		.cfi_startproc
 474              		@ args = 0, pretend = 0, frame = 0
 475              		@ frame_needed = 0, uses_anonymous_args = 0
 476 0000 10B5     		push	{r4, lr}
 477              	.LCFI3:
 478              		.cfi_def_cfa_offset 8
 479              		.loc 1 148 0
 480              		.cfi_offset 14, -4
 481              		.cfi_offset 4, -8
 482 0002 FFF7FEFF 		bl	CySpcStart
 483              		.loc 1 153 0
 484 0006 FFF7FEFF 		bl	CySpcLock
 485 000a 08B1     		cbz	r0, .L55
 486 000c 0424     		movs	r4, #4
 487              	.LVL28:
 488 000e 21E0     		b	.L56
 489              	.LVL29:
 490              	.L55:
 491              		.loc 1 157 0
 492 0010 0120     		movs	r0, #1
 493 0012 0422     		movs	r2, #4
 494 0014 40F6FF71 		movw	r1, #4095
ARM GAS  C:\Users\SUZUKI~1\AppData\Local\Temp\ccpR06Mr.s 			page 22


 495 0018 FFF7FEFF 		bl	CySpcGetTemp
 496 001c 0728     		cmp	r0, #7
 497 001e 15D1     		bne	.L57
 498              	.L62:
 499              		.loc 1 164 0
 500 0020 0221     		movs	r1, #2
 501 0022 0D48     		ldr	r0, .L65
 502 0024 FFF7FEFF 		bl	CySpcReadData
 503 0028 0228     		cmp	r0, #2
 504 002a 0AD1     		bne	.L64
 505 002c 02E0     		b	.L58
 506              	.L60:
 507              		.loc 1 171 0
 508 002e 0120     		movs	r0, #1
 509 0030 FFF7FEFF 		bl	CyDelayUs
 510              	.L58:
 511              		.loc 1 168 0
 512 0034 094B     		ldr	r3, .L65+4
 513 0036 1B78     		ldrb	r3, [r3, #0]	@ zero_extendqisi2
 514 0038 13F0020F 		tst	r3, #2
 515 003c F7D0     		beq	.L60
 516 003e 0024     		movs	r4, #0
 517              	.LVL30:
 518 0040 06E0     		b	.L61
 519              	.LVL31:
 520              	.L64:
 521              		.loc 1 176 0
 522 0042 064B     		ldr	r3, .L65+4
 523 0044 1B78     		ldrb	r3, [r3, #0]	@ zero_extendqisi2
 524 0046 13F0020F 		tst	r3, #2
 525 004a E9D0     		beq	.L62
 526              	.L57:
 527 004c 4FF0FF34 		mov	r4, #-1
 528              	.LVL32:
 529              	.L61:
 530              		.loc 1 179 0
 531 0050 FFF7FEFF 		bl	CySpcUnlock
 532              	.L56:
 533              		.loc 1 187 0
 534 0054 2046     		mov	r0, r4
 535 0056 10BD     		pop	{r4, pc}
 536              	.L66:
 537              		.align	2
 538              	.L65:
 539 0058 00000000 		.word	dieTemperature
 540 005c 22470040 		.word	1073760034
 541              		.cfi_endproc
 542              	.LFE2:
 543              		.size	CySetTempInt, .-CySetTempInt
 544              		.section	.text.CySetTemp,"ax",%progbits
 545              		.align	1
 546              		.global	CySetTemp
 547              		.thumb
 548              		.thumb_func
 549              		.type	CySetTemp, %function
 550              	CySetTemp:
 551              	.LFB3:
ARM GAS  C:\Users\SUZUKI~1\AppData\Local\Temp\ccpR06Mr.s 			page 23


 552              		.loc 1 214 0
 553              		.cfi_startproc
 554              		@ args = 0, pretend = 0, frame = 0
 555              		@ frame_needed = 0, uses_anonymous_args = 0
 556 0000 10B5     		push	{r4, lr}
 557              	.LCFI4:
 558              		.cfi_def_cfa_offset 8
 559              		.loc 1 215 0
 560              		.cfi_offset 14, -4
 561              		.cfi_offset 4, -8
 562 0002 FFF7FEFF 		bl	CySetTempInt
 563              		.loc 1 217 0
 564 0006 18B9     		cbnz	r0, .L68
 565              		.loc 1 223 0
 566 0008 BDE81040 		pop	{r4, lr}
 567              		.loc 1 219 0
 568 000c FFF7FEBF 		b	CySetTempInt
 569              	.L68:
 570              		.loc 1 223 0
 571 0010 10BD     		pop	{r4, pc}
 572              		.cfi_endproc
 573              	.LFE3:
 574              		.size	CySetTemp, .-CySetTemp
 575              		.comm	dieTemperature,2,4
 576              		.bss
 577              		.align	2
 578              		.set	.LANCHOR0,. + 0
 579              		.type	rowBuffer, %object
 580              		.size	rowBuffer, 4
 581              	rowBuffer:
 582 0000 00000000 		.space	4
 583              		.text
 584              	.Letext0:
