ARM GAS  C:\Users\SUZUKI~1\AppData\Local\Temp\ccqvA6Qn.s 			page 1


   1              		.syntax unified
   2              		.cpu cortex-m3
   3              		.fpu softvfp
   4              		.eabi_attribute 20, 1
   5              		.eabi_attribute 21, 1
   6              		.eabi_attribute 23, 3
   7              		.eabi_attribute 24, 1
   8              		.eabi_attribute 25, 1
   9              		.eabi_attribute 26, 1
  10              		.eabi_attribute 30, 4
  11              		.eabi_attribute 18, 4
  12              		.thumb
  13              		.file	"CyLib.c"
  14              		.section	.debug_abbrev,"",%progbits
  15              	.Ldebug_abbrev0:
  16              		.section	.debug_info,"",%progbits
  17              	.Ldebug_info0:
  18              		.section	.debug_line,"",%progbits
  19              	.Ldebug_line0:
  20 0000 DC050000 		.text
  20      02005E00 
  20      00000201 
  20      FB0E0D00 
  20      01010101 
  21              	.Ltext0:
  22              		.cfi_sections	.debug_frame
  23              		.section	.text.CyPLL_OUT_Stop,"ax",%progbits
  24              		.align	1
  25              		.global	CyPLL_OUT_Stop
  26              		.thumb
  27              		.thumb_func
  28              		.type	CyPLL_OUT_Stop, %function
  29              	CyPLL_OUT_Stop:
  30              	.LFB1:
  31              		.file 1 ".\\Generated_Source\\PSoC5\\CyLib.c"
   1:.\Generated_Source\PSoC5/CyLib.c **** /*******************************************************************************
   2:.\Generated_Source\PSoC5/CyLib.c **** * File Name: CyLib.c
   3:.\Generated_Source\PSoC5/CyLib.c **** * Version 3.10
   4:.\Generated_Source\PSoC5/CyLib.c **** *
   5:.\Generated_Source\PSoC5/CyLib.c **** *  Description:
   6:.\Generated_Source\PSoC5/CyLib.c **** *   Provides system API for the clocking, interrupts and watchdog timer.
   7:.\Generated_Source\PSoC5/CyLib.c **** *
   8:.\Generated_Source\PSoC5/CyLib.c **** *  Note:
   9:.\Generated_Source\PSoC5/CyLib.c **** *   Documentation of the API's in this file is located in the
  10:.\Generated_Source\PSoC5/CyLib.c **** *   System Reference Guide provided with PSoC Creator.
  11:.\Generated_Source\PSoC5/CyLib.c **** *
  12:.\Generated_Source\PSoC5/CyLib.c **** ********************************************************************************
  13:.\Generated_Source\PSoC5/CyLib.c **** * Copyright 2008-2012, Cypress Semiconductor Corporation.  All rights reserved.
  14:.\Generated_Source\PSoC5/CyLib.c **** * You may use this file only in accordance with the license, terms, conditions,
  15:.\Generated_Source\PSoC5/CyLib.c **** * disclaimers, and limitations in the end user license agreement accompanying
  16:.\Generated_Source\PSoC5/CyLib.c **** * the software package with which this file was provided.
  17:.\Generated_Source\PSoC5/CyLib.c **** *******************************************************************************/
  18:.\Generated_Source\PSoC5/CyLib.c **** 
  19:.\Generated_Source\PSoC5/CyLib.c **** #include "CyLib.h"
  20:.\Generated_Source\PSoC5/CyLib.c **** 
  21:.\Generated_Source\PSoC5/CyLib.c **** uint8 CYXDATA CyResetStatus;
  22:.\Generated_Source\PSoC5/CyLib.c **** 
ARM GAS  C:\Users\SUZUKI~1\AppData\Local\Temp\ccqvA6Qn.s 			page 2


  23:.\Generated_Source\PSoC5/CyLib.c **** uint32 cydelay_freq_hz  = BCLK__BUS_CLK__HZ;
  24:.\Generated_Source\PSoC5/CyLib.c **** uint32 cydelay_freq_khz = (BCLK__BUS_CLK__HZ + 999u) / 1000u;
  25:.\Generated_Source\PSoC5/CyLib.c **** uint8  cydelay_freq_mhz = (uint8)((BCLK__BUS_CLK__HZ + 999999u) / 1000000u);
  26:.\Generated_Source\PSoC5/CyLib.c **** uint32 cydelay_32k_ms   = 32768 * ((BCLK__BUS_CLK__HZ + 999u) / 1000u);
  27:.\Generated_Source\PSoC5/CyLib.c **** 
  28:.\Generated_Source\PSoC5/CyLib.c **** /* Function Prototypes */
  29:.\Generated_Source\PSoC5/CyLib.c **** uint8 CyUSB_PowerOnCheck(void)  ;
  30:.\Generated_Source\PSoC5/CyLib.c **** void CyIMO_SetTrimValue(uint8 freq) ;
  31:.\Generated_Source\PSoC5/CyLib.c **** void CyBusClk_Internal_SetDivider(uint16 divider);
  32:.\Generated_Source\PSoC5/CyLib.c **** 
  33:.\Generated_Source\PSoC5/CyLib.c **** 
  34:.\Generated_Source\PSoC5/CyLib.c **** /*******************************************************************************
  35:.\Generated_Source\PSoC5/CyLib.c **** * Function Name: CyPLL_OUT_Start
  36:.\Generated_Source\PSoC5/CyLib.c **** ********************************************************************************
  37:.\Generated_Source\PSoC5/CyLib.c **** *
  38:.\Generated_Source\PSoC5/CyLib.c **** * Summary:
  39:.\Generated_Source\PSoC5/CyLib.c **** *   Enables the PLL.  Optionally waits for it to become stable.
  40:.\Generated_Source\PSoC5/CyLib.c **** *   Waits at least 250 us or until it is detected that the PLL is stable.
  41:.\Generated_Source\PSoC5/CyLib.c **** *
  42:.\Generated_Source\PSoC5/CyLib.c **** * Parameters:
  43:.\Generated_Source\PSoC5/CyLib.c **** *   wait:
  44:.\Generated_Source\PSoC5/CyLib.c **** *    0: Return immediately after configuration
  45:.\Generated_Source\PSoC5/CyLib.c **** *    1: Wait for PLL lock or timeout.
  46:.\Generated_Source\PSoC5/CyLib.c **** *
  47:.\Generated_Source\PSoC5/CyLib.c **** * Return:
  48:.\Generated_Source\PSoC5/CyLib.c **** *   Status
  49:.\Generated_Source\PSoC5/CyLib.c **** *    CYRET_SUCCESS - Completed successfully
  50:.\Generated_Source\PSoC5/CyLib.c **** *    CYRET_TIMEOUT - Timeout occurred without detecting a stable clock.
  51:.\Generated_Source\PSoC5/CyLib.c **** *     If the input source of the clock is jittery, then the lock indication
  52:.\Generated_Source\PSoC5/CyLib.c **** *     may not occur.  However, after the timeout has expired the generated PLL
  53:.\Generated_Source\PSoC5/CyLib.c **** *     clock can still be used.
  54:.\Generated_Source\PSoC5/CyLib.c **** *
  55:.\Generated_Source\PSoC5/CyLib.c **** * Side Effects:
  56:.\Generated_Source\PSoC5/CyLib.c **** *  If wait is enabled: This function wses the Fast Time Wheel to time the wait.
  57:.\Generated_Source\PSoC5/CyLib.c **** *  Any other use of the Fast Time Wheel will be stopped during the period of
  58:.\Generated_Source\PSoC5/CyLib.c **** *  this function and then restored. This function also uses the 100 KHz ILO.
  59:.\Generated_Source\PSoC5/CyLib.c **** *  If not enabled, this function will enable the 100 KHz ILO for the period of
  60:.\Generated_Source\PSoC5/CyLib.c **** *  this function.
  61:.\Generated_Source\PSoC5/CyLib.c **** *
  62:.\Generated_Source\PSoC5/CyLib.c **** *  No changes to the setup of the ILO, Fast Time Wheel, Central Time Wheel or
  63:.\Generated_Source\PSoC5/CyLib.c **** *  Once Per Second interrupt may be made by interrupt routines during the period
  64:.\Generated_Source\PSoC5/CyLib.c **** *  of this function execution. The current operation of the ILO, Central Time
  65:.\Generated_Source\PSoC5/CyLib.c **** *  Wheel and Once Per Second interrupt are maintained during the operation of
  66:.\Generated_Source\PSoC5/CyLib.c **** *  this function provided the reading of the Power Manager Interrupt Status
  67:.\Generated_Source\PSoC5/CyLib.c **** *  Register is only done using the CyPmReadStatus() function.
  68:.\Generated_Source\PSoC5/CyLib.c **** *
  69:.\Generated_Source\PSoC5/CyLib.c **** *******************************************************************************/
  70:.\Generated_Source\PSoC5/CyLib.c **** cystatus CyPLL_OUT_Start(uint8 wait) 
  71:.\Generated_Source\PSoC5/CyLib.c **** {
  72:.\Generated_Source\PSoC5/CyLib.c ****     cystatus status = CYRET_SUCCESS;
  73:.\Generated_Source\PSoC5/CyLib.c **** 
  74:.\Generated_Source\PSoC5/CyLib.c ****     uint8 iloEnableState;
  75:.\Generated_Source\PSoC5/CyLib.c ****     uint8 pmTwCfg0;
  76:.\Generated_Source\PSoC5/CyLib.c ****     uint8 pmTwCfg2;
  77:.\Generated_Source\PSoC5/CyLib.c **** 
  78:.\Generated_Source\PSoC5/CyLib.c **** 
  79:.\Generated_Source\PSoC5/CyLib.c ****     /* Enables the PLL circuit  */
ARM GAS  C:\Users\SUZUKI~1\AppData\Local\Temp\ccqvA6Qn.s 			page 3


  80:.\Generated_Source\PSoC5/CyLib.c ****     CY_CLK_PLL_CFG0_REG |= CY_CLK_PLL_ENABLE;
  81:.\Generated_Source\PSoC5/CyLib.c **** 
  82:.\Generated_Source\PSoC5/CyLib.c ****     if(wait != 0)
  83:.\Generated_Source\PSoC5/CyLib.c ****     {
  84:.\Generated_Source\PSoC5/CyLib.c ****         /* Save 100 KHz ILO, FTW interval, enable and interrupt enable */
  85:.\Generated_Source\PSoC5/CyLib.c ****         iloEnableState = SLOWCLK_ILO_CR0;
  86:.\Generated_Source\PSoC5/CyLib.c ****         pmTwCfg0 = CY_PM_TW_CFG0_REG;
  87:.\Generated_Source\PSoC5/CyLib.c ****         pmTwCfg2 = CY_PM_TW_CFG2_REG;
  88:.\Generated_Source\PSoC5/CyLib.c **** 
  89:.\Generated_Source\PSoC5/CyLib.c ****         CyPmFtwSetInterval(CY_CLK_PLL_FTW_INTERVAL);
  90:.\Generated_Source\PSoC5/CyLib.c **** 
  91:.\Generated_Source\PSoC5/CyLib.c ****         status = CYRET_TIMEOUT;
  92:.\Generated_Source\PSoC5/CyLib.c **** 
  93:.\Generated_Source\PSoC5/CyLib.c **** 
  94:.\Generated_Source\PSoC5/CyLib.c ****         while(CyPmReadStatus(CY_PM_FTW_INT) != CY_PM_FTW_INT)
  95:.\Generated_Source\PSoC5/CyLib.c ****         {
  96:.\Generated_Source\PSoC5/CyLib.c ****             /* Wait for the interrupt status */
  97:.\Generated_Source\PSoC5/CyLib.c ****             if(0u != (CY_CLK_PLL_SR_REG & CY_CLK_PLL_LOCK_STATUS))
  98:.\Generated_Source\PSoC5/CyLib.c ****             {
  99:.\Generated_Source\PSoC5/CyLib.c ****                 if(0u != (CY_CLK_PLL_SR_REG & CY_CLK_PLL_LOCK_STATUS))
 100:.\Generated_Source\PSoC5/CyLib.c ****                 {
 101:.\Generated_Source\PSoC5/CyLib.c ****                     status = CYRET_SUCCESS;
 102:.\Generated_Source\PSoC5/CyLib.c ****                     break;
 103:.\Generated_Source\PSoC5/CyLib.c ****                 }
 104:.\Generated_Source\PSoC5/CyLib.c ****             }
 105:.\Generated_Source\PSoC5/CyLib.c ****         }
 106:.\Generated_Source\PSoC5/CyLib.c **** 
 107:.\Generated_Source\PSoC5/CyLib.c **** 
 108:.\Generated_Source\PSoC5/CyLib.c ****         /* Restore 100 KHz ILO, FTW interval, enable and interrupt enable */
 109:.\Generated_Source\PSoC5/CyLib.c ****         if(0u == (iloEnableState & ILO_CONTROL_100KHZ_ON))
 110:.\Generated_Source\PSoC5/CyLib.c ****         {
 111:.\Generated_Source\PSoC5/CyLib.c ****             CyILO_Stop100K();
 112:.\Generated_Source\PSoC5/CyLib.c ****         }
 113:.\Generated_Source\PSoC5/CyLib.c ****         CY_PM_TW_CFG0_REG = pmTwCfg0;
 114:.\Generated_Source\PSoC5/CyLib.c ****         CY_PM_TW_CFG2_REG = pmTwCfg2;
 115:.\Generated_Source\PSoC5/CyLib.c ****     }
 116:.\Generated_Source\PSoC5/CyLib.c **** 
 117:.\Generated_Source\PSoC5/CyLib.c ****     return(status);
 118:.\Generated_Source\PSoC5/CyLib.c **** }
 119:.\Generated_Source\PSoC5/CyLib.c **** 
 120:.\Generated_Source\PSoC5/CyLib.c **** 
 121:.\Generated_Source\PSoC5/CyLib.c **** /*******************************************************************************
 122:.\Generated_Source\PSoC5/CyLib.c **** * Function Name: CyPLL_OUT_Stop
 123:.\Generated_Source\PSoC5/CyLib.c **** ********************************************************************************
 124:.\Generated_Source\PSoC5/CyLib.c **** *
 125:.\Generated_Source\PSoC5/CyLib.c **** * Summary:
 126:.\Generated_Source\PSoC5/CyLib.c **** *  Disables the PLL.
 127:.\Generated_Source\PSoC5/CyLib.c **** *
 128:.\Generated_Source\PSoC5/CyLib.c **** * Parameters:
 129:.\Generated_Source\PSoC5/CyLib.c **** *  None
 130:.\Generated_Source\PSoC5/CyLib.c **** *
 131:.\Generated_Source\PSoC5/CyLib.c **** * Return:
 132:.\Generated_Source\PSoC5/CyLib.c **** *  None
 133:.\Generated_Source\PSoC5/CyLib.c **** *
 134:.\Generated_Source\PSoC5/CyLib.c **** *******************************************************************************/
 135:.\Generated_Source\PSoC5/CyLib.c **** void CyPLL_OUT_Stop(void) 
 136:.\Generated_Source\PSoC5/CyLib.c **** {
ARM GAS  C:\Users\SUZUKI~1\AppData\Local\Temp\ccqvA6Qn.s 			page 4


  32              		.loc 1 136 0
  33              		.cfi_startproc
  34              		@ args = 0, pretend = 0, frame = 0
  35              		@ frame_needed = 0, uses_anonymous_args = 0
  36              		@ link register save eliminated.
 137:.\Generated_Source\PSoC5/CyLib.c ****     CY_CLK_PLL_CFG0_REG &= ~CY_CLK_PLL_ENABLE;
  37              		.loc 1 137 0
  38 0000 024B     		ldr	r3, .L3
  39 0002 1A78     		ldrb	r2, [r3, #0]	@ zero_extendqisi2
  40 0004 02F0FE02 		and	r2, r2, #254
  41 0008 1A70     		strb	r2, [r3, #0]
 138:.\Generated_Source\PSoC5/CyLib.c **** }
  42              		.loc 1 138 0
  43 000a 7047     		bx	lr
  44              	.L4:
  45              		.align	2
  46              	.L3:
  47 000c 20420040 		.word	1073758752
  48              		.cfi_endproc
  49              	.LFE1:
  50              		.size	CyPLL_OUT_Stop, .-CyPLL_OUT_Stop
  51              		.section	.text.CyPLL_OUT_SetPQ,"ax",%progbits
  52              		.align	1
  53              		.global	CyPLL_OUT_SetPQ
  54              		.thumb
  55              		.thumb_func
  56              		.type	CyPLL_OUT_SetPQ, %function
  57              	CyPLL_OUT_SetPQ:
  58              	.LFB2:
 139:.\Generated_Source\PSoC5/CyLib.c **** 
 140:.\Generated_Source\PSoC5/CyLib.c **** 
 141:.\Generated_Source\PSoC5/CyLib.c **** /*******************************************************************************
 142:.\Generated_Source\PSoC5/CyLib.c **** * Function Name: CyPLL_OUT_SetPQ
 143:.\Generated_Source\PSoC5/CyLib.c **** ********************************************************************************
 144:.\Generated_Source\PSoC5/CyLib.c **** *
 145:.\Generated_Source\PSoC5/CyLib.c **** * Summary:
 146:.\Generated_Source\PSoC5/CyLib.c **** *  Sets the P and Q dividers and the charge pump current.
 147:.\Generated_Source\PSoC5/CyLib.c **** *  The Frequency Out will be P/Q * Frequency In.
 148:.\Generated_Source\PSoC5/CyLib.c **** *  The PLL must be disabled before calling this function.
 149:.\Generated_Source\PSoC5/CyLib.c **** *
 150:.\Generated_Source\PSoC5/CyLib.c **** * Parameters:
 151:.\Generated_Source\PSoC5/CyLib.c **** *  uint8 P:
 152:.\Generated_Source\PSoC5/CyLib.c **** *   Valid range [8 - 255].
 153:.\Generated_Source\PSoC5/CyLib.c **** *
 154:.\Generated_Source\PSoC5/CyLib.c **** *  uint8 Q:
 155:.\Generated_Source\PSoC5/CyLib.c **** *   Valid range [1 - 16]. Input Frequency / Q must be in range of 1 to 3 MHz.
 156:.\Generated_Source\PSoC5/CyLib.c **** 
 157:.\Generated_Source\PSoC5/CyLib.c **** *  uint8 current:
 158:.\Generated_Source\PSoC5/CyLib.c **** *   Valid range [1 - 7]. Charge pump current in uA. Refer to the device TRM and
 159:.\Generated_Source\PSoC5/CyLib.c **** *   datasheet for more information.
 160:.\Generated_Source\PSoC5/CyLib.c **** *
 161:.\Generated_Source\PSoC5/CyLib.c **** * Return:
 162:.\Generated_Source\PSoC5/CyLib.c **** *  None
 163:.\Generated_Source\PSoC5/CyLib.c **** *
 164:.\Generated_Source\PSoC5/CyLib.c **** * Side Effects:
 165:.\Generated_Source\PSoC5/CyLib.c **** *  If as result of this function execution the CPU clock frequency is increased
 166:.\Generated_Source\PSoC5/CyLib.c **** *  then the number of clock cycles the cache will wait before it samples data
ARM GAS  C:\Users\SUZUKI~1\AppData\Local\Temp\ccqvA6Qn.s 			page 5


 167:.\Generated_Source\PSoC5/CyLib.c **** *  coming back from Flash must be adjusted by calling CyFlash_SetWaitCycles()
 168:.\Generated_Source\PSoC5/CyLib.c **** *  with appropriate parameter. It can be optionally called if CPU clock
 169:.\Generated_Source\PSoC5/CyLib.c **** *  frequency is lowered in order to improve CPU performance.
 170:.\Generated_Source\PSoC5/CyLib.c **** *  See CyFlash_SetWaitCycles() description for more information.
 171:.\Generated_Source\PSoC5/CyLib.c **** *
 172:.\Generated_Source\PSoC5/CyLib.c **** *******************************************************************************/
 173:.\Generated_Source\PSoC5/CyLib.c **** void CyPLL_OUT_SetPQ(uint8 P, uint8 Q, uint8 current) 
 174:.\Generated_Source\PSoC5/CyLib.c **** {
  59              		.loc 1 174 0
  60              		.cfi_startproc
  61              		@ args = 0, pretend = 0, frame = 0
  62              		@ frame_needed = 0, uses_anonymous_args = 0
  63              		@ link register save eliminated.
  64              	.LVL0:
 175:.\Generated_Source\PSoC5/CyLib.c ****     /* Halt CPU in debug mode if PLL is enabled */
 176:.\Generated_Source\PSoC5/CyLib.c ****     CYASSERT(0u == (CY_CLK_PLL_CFG0_REG & CY_CLK_PLL_ENABLE));
 177:.\Generated_Source\PSoC5/CyLib.c **** 
 178:.\Generated_Source\PSoC5/CyLib.c ****     /* Halt CPU in debug mode if P divider is less than required */
 179:.\Generated_Source\PSoC5/CyLib.c ****     CYASSERT(P >= CY_CLK_PLL_MIN_P_VALUE);
 180:.\Generated_Source\PSoC5/CyLib.c **** 
 181:.\Generated_Source\PSoC5/CyLib.c ****     /* Halt CPU in debug mode if Q divider is out of range */
 182:.\Generated_Source\PSoC5/CyLib.c ****     CYASSERT((Q <= CY_CLK_PLL_MAX_Q_VALUE) && (Q >= CY_CLK_PLL_MIN_Q_VALUE));
 183:.\Generated_Source\PSoC5/CyLib.c **** 
 184:.\Generated_Source\PSoC5/CyLib.c ****     /* Halt CPU in debug mode if pump current is out of range */
 185:.\Generated_Source\PSoC5/CyLib.c ****     CYASSERT((current >= CY_CLK_PLL_MIN_CUR_VALUE) && (current <= CY_CLK_PLL_MAX_CUR_VALUE));
 186:.\Generated_Source\PSoC5/CyLib.c **** 
 187:.\Generated_Source\PSoC5/CyLib.c **** 
 188:.\Generated_Source\PSoC5/CyLib.c ****     /* Set new values */
 189:.\Generated_Source\PSoC5/CyLib.c ****     CY_CLK_PLL_P_REG = P;
  65              		.loc 1 189 0
  66 0000 074B     		ldr	r3, .L7
 190:.\Generated_Source\PSoC5/CyLib.c ****     CY_CLK_PLL_Q_REG = Q - 1;
  67              		.loc 1 190 0
  68 0002 0139     		subs	r1, r1, #1
  69              	.LVL1:
  70              		.loc 1 189 0
  71 0004 1870     		strb	r0, [r3, #0]
  72              		.loc 1 190 0
  73 0006 C9B2     		uxtb	r1, r1
  74 0008 0133     		adds	r3, r3, #1
  75 000a 1970     		strb	r1, [r3, #0]
 191:.\Generated_Source\PSoC5/CyLib.c ****     CY_CLK_PLL_CFG1_REG = (CY_CLK_PLL_CFG1_REG & CY_CLK_PLL_CURRENT_MASK) |
  76              		.loc 1 191 0
  77 000c 023B     		subs	r3, r3, #2
  78 000e 1978     		ldrb	r1, [r3, #0]	@ zero_extendqisi2
  79 0010 013A     		subs	r2, r2, #1
  80              	.LVL2:
  81 0012 01F08F01 		and	r1, r1, #143
  82 0016 41EA0211 		orr	r1, r1, r2, lsl #4
  83 001a C9B2     		uxtb	r1, r1
  84 001c 1970     		strb	r1, [r3, #0]
 192:.\Generated_Source\PSoC5/CyLib.c ****                             ((current - 1) << CY_CLK_PLL_CURRENT_POSITION);
 193:.\Generated_Source\PSoC5/CyLib.c **** }
  85              		.loc 1 193 0
  86 001e 7047     		bx	lr
  87              	.L8:
  88              		.align	2
ARM GAS  C:\Users\SUZUKI~1\AppData\Local\Temp\ccqvA6Qn.s 			page 6


  89              	.L7:
  90 0020 22420040 		.word	1073758754
  91              		.cfi_endproc
  92              	.LFE2:
  93              		.size	CyPLL_OUT_SetPQ, .-CyPLL_OUT_SetPQ
  94              		.section	.text.CyPLL_OUT_SetSource,"ax",%progbits
  95              		.align	1
  96              		.global	CyPLL_OUT_SetSource
  97              		.thumb
  98              		.thumb_func
  99              		.type	CyPLL_OUT_SetSource, %function
 100              	CyPLL_OUT_SetSource:
 101              	.LFB3:
 194:.\Generated_Source\PSoC5/CyLib.c **** 
 195:.\Generated_Source\PSoC5/CyLib.c **** 
 196:.\Generated_Source\PSoC5/CyLib.c **** /*******************************************************************************
 197:.\Generated_Source\PSoC5/CyLib.c **** * Function Name: CyPLL_OUT_SetSource
 198:.\Generated_Source\PSoC5/CyLib.c **** ********************************************************************************
 199:.\Generated_Source\PSoC5/CyLib.c **** *
 200:.\Generated_Source\PSoC5/CyLib.c **** * Summary:
 201:.\Generated_Source\PSoC5/CyLib.c **** *  Sets the input clock source to the PLL. The PLL must be disabled before
 202:.\Generated_Source\PSoC5/CyLib.c **** *  calling this function.
 203:.\Generated_Source\PSoC5/CyLib.c **** *
 204:.\Generated_Source\PSoC5/CyLib.c **** * Parameters:
 205:.\Generated_Source\PSoC5/CyLib.c **** *   source: One of the three available PLL clock sources
 206:.\Generated_Source\PSoC5/CyLib.c **** *            0 :        IMO
 207:.\Generated_Source\PSoC5/CyLib.c **** *            1 :        MHz Crystal
 208:.\Generated_Source\PSoC5/CyLib.c **** *            2 :        DSI
 209:.\Generated_Source\PSoC5/CyLib.c **** *
 210:.\Generated_Source\PSoC5/CyLib.c **** * Return:
 211:.\Generated_Source\PSoC5/CyLib.c **** *  None
 212:.\Generated_Source\PSoC5/CyLib.c **** *
 213:.\Generated_Source\PSoC5/CyLib.c **** * Side Effects:
 214:.\Generated_Source\PSoC5/CyLib.c **** *  If as result of this function execution the CPU clock frequency is increased
 215:.\Generated_Source\PSoC5/CyLib.c **** *  then the number of clock cycles the cache will wait before it samples data
 216:.\Generated_Source\PSoC5/CyLib.c **** *  coming back from Flash must be adjusted by calling CyFlash_SetWaitCycles()
 217:.\Generated_Source\PSoC5/CyLib.c **** *  with appropriate parameter. It can be optionally called if CPU clock
 218:.\Generated_Source\PSoC5/CyLib.c **** *  frequency is lowered in order to improve CPU performance.
 219:.\Generated_Source\PSoC5/CyLib.c **** *  See CyFlash_SetWaitCycles() description for more information.
 220:.\Generated_Source\PSoC5/CyLib.c **** *
 221:.\Generated_Source\PSoC5/CyLib.c **** *******************************************************************************/
 222:.\Generated_Source\PSoC5/CyLib.c **** void CyPLL_OUT_SetSource(uint8 source) 
 223:.\Generated_Source\PSoC5/CyLib.c **** {
 102              		.loc 1 223 0
 103              		.cfi_startproc
 104              		@ args = 0, pretend = 0, frame = 0
 105              		@ frame_needed = 0, uses_anonymous_args = 0
 106              		@ link register save eliminated.
 107              	.LVL3:
 224:.\Generated_Source\PSoC5/CyLib.c ****     /* Halt CPU in debug mode if PLL is enabled */
 225:.\Generated_Source\PSoC5/CyLib.c ****     CYASSERT(0u == (CY_CLK_PLL_CFG0_REG & CY_CLK_PLL_ENABLE));
 226:.\Generated_Source\PSoC5/CyLib.c **** 
 227:.\Generated_Source\PSoC5/CyLib.c ****     switch(source)
 108              		.loc 1 227 0
 109 0000 0228     		cmp	r0, #2
 110 0002 05D8     		bhi	.L12
 228:.\Generated_Source\PSoC5/CyLib.c ****     {
ARM GAS  C:\Users\SUZUKI~1\AppData\Local\Temp\ccqvA6Qn.s 			page 7


 229:.\Generated_Source\PSoC5/CyLib.c ****         case CY_PLL_SOURCE_IMO:
 230:.\Generated_Source\PSoC5/CyLib.c ****         case CY_PLL_SOURCE_XTAL:
 231:.\Generated_Source\PSoC5/CyLib.c ****         case CY_PLL_SOURCE_DSI:
 232:.\Generated_Source\PSoC5/CyLib.c ****             CLKDIST_CR = ((CLKDIST_CR & CLOCK_CONTROL_DIST_MASK) | source);
 111              		.loc 1 232 0
 112 0004 034B     		ldr	r3, .L14
 113 0006 1A78     		ldrb	r2, [r3, #0]	@ zero_extendqisi2
 114 0008 02F0FC02 		and	r2, r2, #252
 115 000c 1043     		orrs	r0, r0, r2
 116              	.LVL4:
 117 000e 1870     		strb	r0, [r3, #0]
 118              	.LVL5:
 119              	.L12:
 120 0010 7047     		bx	lr
 121              	.L15:
 122 0012 00BF     		.align	2
 123              	.L14:
 124 0014 00400040 		.word	1073758208
 125              		.cfi_endproc
 126              	.LFE3:
 127              		.size	CyPLL_OUT_SetSource, .-CyPLL_OUT_SetSource
 128              		.section	.text.CyIMO_Stop,"ax",%progbits
 129              		.align	1
 130              		.global	CyIMO_Stop
 131              		.thumb
 132              		.thumb_func
 133              		.type	CyIMO_Stop, %function
 134              	CyIMO_Stop:
 135              	.LFB5:
 233:.\Generated_Source\PSoC5/CyLib.c ****         break;
 234:.\Generated_Source\PSoC5/CyLib.c **** 
 235:.\Generated_Source\PSoC5/CyLib.c ****         default:
 236:.\Generated_Source\PSoC5/CyLib.c ****             CYASSERT(0);
 237:.\Generated_Source\PSoC5/CyLib.c ****         break;
 238:.\Generated_Source\PSoC5/CyLib.c ****     }
 239:.\Generated_Source\PSoC5/CyLib.c **** }
 240:.\Generated_Source\PSoC5/CyLib.c **** 
 241:.\Generated_Source\PSoC5/CyLib.c **** 
 242:.\Generated_Source\PSoC5/CyLib.c **** /*******************************************************************************
 243:.\Generated_Source\PSoC5/CyLib.c **** * Function Name: CyIMO_Start
 244:.\Generated_Source\PSoC5/CyLib.c **** ********************************************************************************
 245:.\Generated_Source\PSoC5/CyLib.c **** *
 246:.\Generated_Source\PSoC5/CyLib.c **** * Summary:
 247:.\Generated_Source\PSoC5/CyLib.c **** *  Enables the IMO. Optionally waits at least 6 us for it to settle.
 248:.\Generated_Source\PSoC5/CyLib.c **** *
 249:.\Generated_Source\PSoC5/CyLib.c **** * Parameters:
 250:.\Generated_Source\PSoC5/CyLib.c **** *  uint8 wait:
 251:.\Generated_Source\PSoC5/CyLib.c **** *   0: Return immediately after configuration
 252:.\Generated_Source\PSoC5/CyLib.c **** *   1: Wait for at least 6us for the IMO to settle.
 253:.\Generated_Source\PSoC5/CyLib.c **** *
 254:.\Generated_Source\PSoC5/CyLib.c **** * Return:
 255:.\Generated_Source\PSoC5/CyLib.c **** *  None
 256:.\Generated_Source\PSoC5/CyLib.c **** *
 257:.\Generated_Source\PSoC5/CyLib.c **** * Side Effects:
 258:.\Generated_Source\PSoC5/CyLib.c **** *  If wait is enabled: This function wses the Fast Time Wheel to time the wait.
 259:.\Generated_Source\PSoC5/CyLib.c **** *  Any other use of the Fast Time Wheel will be stopped during the period of
 260:.\Generated_Source\PSoC5/CyLib.c **** *  this function and then restored. This function also uses the 100 KHz ILO.
ARM GAS  C:\Users\SUZUKI~1\AppData\Local\Temp\ccqvA6Qn.s 			page 8


 261:.\Generated_Source\PSoC5/CyLib.c **** *  If not enabled, this function will enable the 100 KHz ILO for the period of
 262:.\Generated_Source\PSoC5/CyLib.c **** *  this function.
 263:.\Generated_Source\PSoC5/CyLib.c **** *
 264:.\Generated_Source\PSoC5/CyLib.c **** *  No changes to the setup of the ILO, Fast Time Wheel, Central Time Wheel or
 265:.\Generated_Source\PSoC5/CyLib.c **** *  Once Per Second interrupt may be made by interrupt routines during the period
 266:.\Generated_Source\PSoC5/CyLib.c **** *  of this function execution. The current operation of the ILO, Central Time
 267:.\Generated_Source\PSoC5/CyLib.c **** *  Wheel and Once Per Second interrupt are maintained during the operation of
 268:.\Generated_Source\PSoC5/CyLib.c **** *  this function provided the reading of the Power Manager Interrupt Status
 269:.\Generated_Source\PSoC5/CyLib.c **** *  Register is only done using the CyPmReadStatus() function.
 270:.\Generated_Source\PSoC5/CyLib.c **** *
 271:.\Generated_Source\PSoC5/CyLib.c **** *******************************************************************************/
 272:.\Generated_Source\PSoC5/CyLib.c **** void CyIMO_Start(uint8 wait) 
 273:.\Generated_Source\PSoC5/CyLib.c **** {
 274:.\Generated_Source\PSoC5/CyLib.c ****     uint8 pm_tw_cfg2_state;
 275:.\Generated_Source\PSoC5/CyLib.c ****     uint8 pm_tw_cfg0_state;
 276:.\Generated_Source\PSoC5/CyLib.c ****     uint8 ilo_clock_state;
 277:.\Generated_Source\PSoC5/CyLib.c **** 
 278:.\Generated_Source\PSoC5/CyLib.c ****     /* Set the bit to enable the clock. */
 279:.\Generated_Source\PSoC5/CyLib.c ****     PM_ACT_CFG0 |= IMO_PM_ENABLE;
 280:.\Generated_Source\PSoC5/CyLib.c **** 
 281:.\Generated_Source\PSoC5/CyLib.c ****     /* Wait for 6 us */
 282:.\Generated_Source\PSoC5/CyLib.c ****     if(wait)
 283:.\Generated_Source\PSoC5/CyLib.c ****     {
 284:.\Generated_Source\PSoC5/CyLib.c ****         /* Need to turn on the 100KHz ILO if it happens to not already be running.*/
 285:.\Generated_Source\PSoC5/CyLib.c ****         ilo_clock_state = SLOWCLK_ILO_CR0;
 286:.\Generated_Source\PSoC5/CyLib.c ****         if(!(ilo_clock_state & ILO_CONTROL_100KHZ_ON))
 287:.\Generated_Source\PSoC5/CyLib.c ****         {
 288:.\Generated_Source\PSoC5/CyLib.c ****             CyILO_Start100K();
 289:.\Generated_Source\PSoC5/CyLib.c ****         }
 290:.\Generated_Source\PSoC5/CyLib.c **** 
 291:.\Generated_Source\PSoC5/CyLib.c ****         /* Use ILO 100 KHz */
 292:.\Generated_Source\PSoC5/CyLib.c ****         pm_tw_cfg2_state = PM_TW_CFG2;
 293:.\Generated_Source\PSoC5/CyLib.c ****         pm_tw_cfg0_state = PM_TW_CFG0;
 294:.\Generated_Source\PSoC5/CyLib.c **** 
 295:.\Generated_Source\PSoC5/CyLib.c ****         /* FTW_EN (bit 0) must be clear to change the period*/
 296:.\Generated_Source\PSoC5/CyLib.c ****         PM_TW_CFG2 &= FTW_CLEAR_FTW_BITS;
 297:.\Generated_Source\PSoC5/CyLib.c **** 
 298:.\Generated_Source\PSoC5/CyLib.c ****         /* Set the FTW interval of 1 100KHz ILO clocks
 299:.\Generated_Source\PSoC5/CyLib.c ****         Should result in status getting set at a (100/1)KHz rate*/
 300:.\Generated_Source\PSoC5/CyLib.c ****         PM_TW_CFG0 = 1-1;
 301:.\Generated_Source\PSoC5/CyLib.c ****         /* Enable FTW, but not the interrupt*/
 302:.\Generated_Source\PSoC5/CyLib.c ****         PM_TW_CFG2 = FTW_ENABLE;
 303:.\Generated_Source\PSoC5/CyLib.c **** 
 304:.\Generated_Source\PSoC5/CyLib.c ****         /* Read FTW value */
 305:.\Generated_Source\PSoC5/CyLib.c ****         while (CyPmReadStatus(1) == 0)
 306:.\Generated_Source\PSoC5/CyLib.c ****         {
 307:.\Generated_Source\PSoC5/CyLib.c ****             /* Wait for the interrupt status*/
 308:.\Generated_Source\PSoC5/CyLib.c ****         }
 309:.\Generated_Source\PSoC5/CyLib.c **** 
 310:.\Generated_Source\PSoC5/CyLib.c ****         /* Reset the clock */
 311:.\Generated_Source\PSoC5/CyLib.c ****         if(!(ilo_clock_state & ILO_CONTROL_100KHZ_ON))
 312:.\Generated_Source\PSoC5/CyLib.c ****         {
 313:.\Generated_Source\PSoC5/CyLib.c ****             CyILO_Stop100K();
 314:.\Generated_Source\PSoC5/CyLib.c ****         }
 315:.\Generated_Source\PSoC5/CyLib.c **** 
 316:.\Generated_Source\PSoC5/CyLib.c ****         /* Restore the FTW */
 317:.\Generated_Source\PSoC5/CyLib.c ****         PM_TW_CFG0 = pm_tw_cfg0_state;
ARM GAS  C:\Users\SUZUKI~1\AppData\Local\Temp\ccqvA6Qn.s 			page 9


 318:.\Generated_Source\PSoC5/CyLib.c ****         PM_TW_CFG2 = pm_tw_cfg2_state;
 319:.\Generated_Source\PSoC5/CyLib.c ****     }
 320:.\Generated_Source\PSoC5/CyLib.c **** }
 321:.\Generated_Source\PSoC5/CyLib.c **** 
 322:.\Generated_Source\PSoC5/CyLib.c **** 
 323:.\Generated_Source\PSoC5/CyLib.c **** /*******************************************************************************
 324:.\Generated_Source\PSoC5/CyLib.c **** * Function Name: CyIMO_Stop
 325:.\Generated_Source\PSoC5/CyLib.c **** ********************************************************************************
 326:.\Generated_Source\PSoC5/CyLib.c **** *
 327:.\Generated_Source\PSoC5/CyLib.c **** * Summary:
 328:.\Generated_Source\PSoC5/CyLib.c **** *   Disables the IMO.
 329:.\Generated_Source\PSoC5/CyLib.c **** *
 330:.\Generated_Source\PSoC5/CyLib.c **** * Parameters:
 331:.\Generated_Source\PSoC5/CyLib.c **** *  None
 332:.\Generated_Source\PSoC5/CyLib.c **** *
 333:.\Generated_Source\PSoC5/CyLib.c **** * Return:
 334:.\Generated_Source\PSoC5/CyLib.c **** *  None
 335:.\Generated_Source\PSoC5/CyLib.c **** *
 336:.\Generated_Source\PSoC5/CyLib.c **** *******************************************************************************/
 337:.\Generated_Source\PSoC5/CyLib.c **** void CyIMO_Stop(void) 
 338:.\Generated_Source\PSoC5/CyLib.c **** {
 136              		.loc 1 338 0
 137              		.cfi_startproc
 138              		@ args = 0, pretend = 0, frame = 0
 139              		@ frame_needed = 0, uses_anonymous_args = 0
 140              		@ link register save eliminated.
 339:.\Generated_Source\PSoC5/CyLib.c ****     /* Clear the bit to disable the clock. */
 340:.\Generated_Source\PSoC5/CyLib.c ****     PM_ACT_CFG0 &= ~IMO_PM_ENABLE;
 141              		.loc 1 340 0
 142 0000 024B     		ldr	r3, .L18
 143 0002 1A78     		ldrb	r2, [r3, #0]	@ zero_extendqisi2
 144 0004 02F0EF02 		and	r2, r2, #239
 145 0008 1A70     		strb	r2, [r3, #0]
 341:.\Generated_Source\PSoC5/CyLib.c **** }
 146              		.loc 1 341 0
 147 000a 7047     		bx	lr
 148              	.L19:
 149              		.align	2
 150              	.L18:
 151 000c A0430040 		.word	1073759136
 152              		.cfi_endproc
 153              	.LFE5:
 154              		.size	CyIMO_Stop, .-CyIMO_Stop
 155              		.section	.text.CyUSB_PowerOnCheck,"ax",%progbits
 156              		.align	1
 157              		.global	CyUSB_PowerOnCheck
 158              		.thumb
 159              		.thumb_func
 160              		.type	CyUSB_PowerOnCheck, %function
 161              	CyUSB_PowerOnCheck:
 162              	.LFB6:
 342:.\Generated_Source\PSoC5/CyLib.c **** 
 343:.\Generated_Source\PSoC5/CyLib.c **** 
 344:.\Generated_Source\PSoC5/CyLib.c **** /*******************************************************************************
 345:.\Generated_Source\PSoC5/CyLib.c **** * Function Name: CyUSB_PowerOnCheck
 346:.\Generated_Source\PSoC5/CyLib.c **** ********************************************************************************
 347:.\Generated_Source\PSoC5/CyLib.c **** *
ARM GAS  C:\Users\SUZUKI~1\AppData\Local\Temp\ccqvA6Qn.s 			page 10


 348:.\Generated_Source\PSoC5/CyLib.c **** * Summary:
 349:.\Generated_Source\PSoC5/CyLib.c **** *  Returns the USB power status value. A private function to cy_boot.
 350:.\Generated_Source\PSoC5/CyLib.c **** *
 351:.\Generated_Source\PSoC5/CyLib.c **** * Parameters:
 352:.\Generated_Source\PSoC5/CyLib.c **** *   None
 353:.\Generated_Source\PSoC5/CyLib.c **** *
 354:.\Generated_Source\PSoC5/CyLib.c **** * Return:
 355:.\Generated_Source\PSoC5/CyLib.c **** *   uint8: one if the USB is enabled, 0 if not enabled.
 356:.\Generated_Source\PSoC5/CyLib.c **** *
 357:.\Generated_Source\PSoC5/CyLib.c **** *******************************************************************************/
 358:.\Generated_Source\PSoC5/CyLib.c **** uint8 CyUSB_PowerOnCheck(void)  
 359:.\Generated_Source\PSoC5/CyLib.c **** {
 163              		.loc 1 359 0
 164              		.cfi_startproc
 165              		@ args = 0, pretend = 0, frame = 0
 166              		@ frame_needed = 0, uses_anonymous_args = 0
 167              		@ link register save eliminated.
 360:.\Generated_Source\PSoC5/CyLib.c ****     uint8 powered_on = 0u;
 361:.\Generated_Source\PSoC5/CyLib.c **** 
 362:.\Generated_Source\PSoC5/CyLib.c ****     /* Check whether device is in Active or AltActiv and if USB is powered on */
 363:.\Generated_Source\PSoC5/CyLib.c ****     if((((CY_PM_MODE_CSR_REG & CY_PM_MODE_CSR_MASK) == CY_PM_MODE_CSR_ACTIVE) &&
 168              		.loc 1 363 0
 169 0000 0C4B     		ldr	r3, .L25
 170 0002 1B78     		ldrb	r3, [r3, #0]	@ zero_extendqisi2
 171 0004 13F0070F 		tst	r3, #7
 172 0008 06D1     		bne	.L21
 364:.\Generated_Source\PSoC5/CyLib.c ****          (CY_PM_ACT_CFG5_REG & CY_ACT_USB_ENABLED)) ||
 173              		.loc 1 364 0
 174 000a 0B4B     		ldr	r3, .L25+4
 175 000c 1B78     		ldrb	r3, [r3, #0]	@ zero_extendqisi2
 176              		.loc 1 363 0
 177 000e 13F0010F 		tst	r3, #1
 178 0012 01D0     		beq	.L21
 179 0014 0120     		movs	r0, #1
 180              	.LVL6:
 181 0016 7047     		bx	lr
 182              	.LVL7:
 183              	.L21:
 365:.\Generated_Source\PSoC5/CyLib.c ****       (((CY_PM_MODE_CSR_REG & CY_PM_MODE_CSR_MASK) == CY_PM_MODE_CSR_ALT_ACT) &&
 184              		.loc 1 365 0
 185 0018 064B     		ldr	r3, .L25
 186 001a 1B78     		ldrb	r3, [r3, #0]	@ zero_extendqisi2
 187              		.loc 1 363 0
 188 001c 03F00703 		and	r3, r3, #7
 189 0020 012B     		cmp	r3, #1
 190 0022 01D0     		beq	.L23
 191 0024 0020     		movs	r0, #0
 192              	.LVL8:
 193 0026 7047     		bx	lr
 194              	.LVL9:
 195              	.L23:
 366:.\Generated_Source\PSoC5/CyLib.c ****         (CY_PM_STBY_CFG5_REG & CY_ALT_ACT_USB_ENABLED)))
 196              		.loc 1 366 0
 197 0028 044B     		ldr	r3, .L25+8
 198 002a 1878     		ldrb	r0, [r3, #0]	@ zero_extendqisi2
 199 002c 00F00100 		and	r0, r0, #1
 200              	.LVL10:
ARM GAS  C:\Users\SUZUKI~1\AppData\Local\Temp\ccqvA6Qn.s 			page 11


 201              	.LVL11:
 367:.\Generated_Source\PSoC5/CyLib.c ****     {
 368:.\Generated_Source\PSoC5/CyLib.c ****         powered_on = 1;
 369:.\Generated_Source\PSoC5/CyLib.c ****     }
 370:.\Generated_Source\PSoC5/CyLib.c **** 
 371:.\Generated_Source\PSoC5/CyLib.c ****     return (powered_on);
 372:.\Generated_Source\PSoC5/CyLib.c **** }
 202              		.loc 1 372 0
 203 0030 7047     		bx	lr
 204              	.L26:
 205 0032 00BF     		.align	2
 206              	.L25:
 207 0034 93430040 		.word	1073759123
 208 0038 A5430040 		.word	1073759141
 209 003c B5430040 		.word	1073759157
 210              		.cfi_endproc
 211              	.LFE6:
 212              		.size	CyUSB_PowerOnCheck, .-CyUSB_PowerOnCheck
 213              		.section	.text.CyIMO_SetTrimValue,"ax",%progbits
 214              		.align	1
 215              		.global	CyIMO_SetTrimValue
 216              		.thumb
 217              		.thumb_func
 218              		.type	CyIMO_SetTrimValue, %function
 219              	CyIMO_SetTrimValue:
 220              	.LFB7:
 373:.\Generated_Source\PSoC5/CyLib.c **** 
 374:.\Generated_Source\PSoC5/CyLib.c **** 
 375:.\Generated_Source\PSoC5/CyLib.c **** /*******************************************************************************
 376:.\Generated_Source\PSoC5/CyLib.c **** * Function Name: CyIMO_SetTrimValue
 377:.\Generated_Source\PSoC5/CyLib.c **** ********************************************************************************
 378:.\Generated_Source\PSoC5/CyLib.c **** *
 379:.\Generated_Source\PSoC5/CyLib.c **** * Summary:
 380:.\Generated_Source\PSoC5/CyLib.c **** *  Sets the IMO factory trim values.
 381:.\Generated_Source\PSoC5/CyLib.c **** *
 382:.\Generated_Source\PSoC5/CyLib.c **** * Parameters:
 383:.\Generated_Source\PSoC5/CyLib.c **** *  uint8 freq - frequency for which trims must be set
 384:.\Generated_Source\PSoC5/CyLib.c **** *
 385:.\Generated_Source\PSoC5/CyLib.c **** * Return:
 386:.\Generated_Source\PSoC5/CyLib.c **** *  None
 387:.\Generated_Source\PSoC5/CyLib.c **** *
 388:.\Generated_Source\PSoC5/CyLib.c **** *******************************************************************************/
 389:.\Generated_Source\PSoC5/CyLib.c **** void CyIMO_SetTrimValue(uint8 freq) 
 390:.\Generated_Source\PSoC5/CyLib.c **** {
 221              		.loc 1 390 0
 222              		.cfi_startproc
 223              		@ args = 0, pretend = 0, frame = 0
 224              		@ frame_needed = 0, uses_anonymous_args = 0
 225              	.LVL12:
 226 0000 10B5     		push	{r4, lr}
 227              	.LCFI0:
 228              		.cfi_def_cfa_offset 8
 229              		.loc 1 390 0
 230 0002 0446     		mov	r4, r0
 231              		.cfi_offset 14, -4
 232              		.cfi_offset 4, -8
 391:.\Generated_Source\PSoC5/CyLib.c ****     uint8 usb_power_on = CyUSB_PowerOnCheck();
ARM GAS  C:\Users\SUZUKI~1\AppData\Local\Temp\ccqvA6Qn.s 			page 12


 233              		.loc 1 391 0
 234 0004 FFF7FEFF 		bl	CyUSB_PowerOnCheck
 235              	.LVL13:
 392:.\Generated_Source\PSoC5/CyLib.c **** 
 393:.\Generated_Source\PSoC5/CyLib.c ****     /* If USB is powered */
 394:.\Generated_Source\PSoC5/CyLib.c ****     if(usb_power_on == 1)
 236              		.loc 1 394 0
 237 0008 0128     		cmp	r0, #1
 238              	.LVL14:
 239 000a 04D1     		bne	.L28
 395:.\Generated_Source\PSoC5/CyLib.c ****     {
 396:.\Generated_Source\PSoC5/CyLib.c ****         /* Unlock USB write */
 397:.\Generated_Source\PSoC5/CyLib.c ****         CY_USB_CR1 &= ~CLOCK_USB_ENABLE;
 240              		.loc 1 397 0
 241 000c 134B     		ldr	r3, .L39
 242 000e 1A78     		ldrb	r2, [r3, #0]	@ zero_extendqisi2
 243 0010 02F0FD02 		and	r2, r2, #253
 244 0014 1A70     		strb	r2, [r3, #0]
 245              	.L28:
 398:.\Generated_Source\PSoC5/CyLib.c ****     }
 399:.\Generated_Source\PSoC5/CyLib.c ****     switch(freq)
 246              		.loc 1 399 0
 247 0016 082C     		cmp	r4, #8
 248 0018 1ED8     		bhi	.L37
 249 001a DFE804F0 		tbb	[pc, r4]
 250              	.L36:
 251 001e 05       		.byte	(.L30-.L36)/2
 252 001f 07       		.byte	(.L31-.L36)/2
 253 0020 09       		.byte	(.L32-.L36)/2
 254 0021 0B       		.byte	(.L33-.L36)/2
 255 0022 0D       		.byte	(.L34-.L36)/2
 256 0023 1D       		.byte	(.L37-.L36)/2
 257 0024 1D       		.byte	(.L37-.L36)/2
 258 0025 1D       		.byte	(.L37-.L36)/2
 259 0026 12       		.byte	(.L35-.L36)/2
 260 0027 00       		.align	1
 261              	.L30:
 400:.\Generated_Source\PSoC5/CyLib.c ****     {
 401:.\Generated_Source\PSoC5/CyLib.c ****     case CY_IMO_FREQ_3MHZ:
 402:.\Generated_Source\PSoC5/CyLib.c ****         IMO_TR1 = CY_GET_XTND_REG8(FLSHID_CUST_TABLES_IMO_3MHZ_PTR);
 262              		.loc 1 402 0
 263 0028 0D4B     		ldr	r3, .L39+4
 264 002a 06E0     		b	.L38
 265              	.L31:
 403:.\Generated_Source\PSoC5/CyLib.c ****         break;
 404:.\Generated_Source\PSoC5/CyLib.c **** 
 405:.\Generated_Source\PSoC5/CyLib.c ****     case CY_IMO_FREQ_6MHZ:
 406:.\Generated_Source\PSoC5/CyLib.c ****         IMO_TR1 = CY_GET_XTND_REG8(FLSHID_CUST_TABLES_IMO_6MHZ_PTR);
 266              		.loc 1 406 0
 267 002c 0D4B     		ldr	r3, .L39+8
 268 002e 04E0     		b	.L38
 269              	.L32:
 407:.\Generated_Source\PSoC5/CyLib.c ****         break;
 408:.\Generated_Source\PSoC5/CyLib.c **** 
 409:.\Generated_Source\PSoC5/CyLib.c ****     case CY_IMO_FREQ_12MHZ:
 410:.\Generated_Source\PSoC5/CyLib.c ****         IMO_TR1 = CY_GET_XTND_REG8(FLSHID_CUST_TABLES_IMO_12MHZ_PTR);
 270              		.loc 1 410 0
ARM GAS  C:\Users\SUZUKI~1\AppData\Local\Temp\ccqvA6Qn.s 			page 13


 271 0030 0D4B     		ldr	r3, .L39+12
 272 0032 02E0     		b	.L38
 273              	.L33:
 411:.\Generated_Source\PSoC5/CyLib.c ****         break;
 412:.\Generated_Source\PSoC5/CyLib.c **** 
 413:.\Generated_Source\PSoC5/CyLib.c ****     case CY_IMO_FREQ_24MHZ:
 414:.\Generated_Source\PSoC5/CyLib.c ****         IMO_TR1 = CY_GET_XTND_REG8(FLSHID_CUST_TABLES_IMO_24MHZ_PTR);
 274              		.loc 1 414 0
 275 0034 0D4B     		ldr	r3, .L39+16
 276 0036 00E0     		b	.L38
 277              	.L34:
 415:.\Generated_Source\PSoC5/CyLib.c ****         break;
 416:.\Generated_Source\PSoC5/CyLib.c **** 
 417:.\Generated_Source\PSoC5/CyLib.c ****     case CY_IMO_FREQ_48MHZ:
 418:.\Generated_Source\PSoC5/CyLib.c ****         IMO_TR1 = CY_GET_XTND_REG8(FLSHID_MFG_CFG_IMO_TR1_PTR);
 278              		.loc 1 418 0
 279 0038 0D4B     		ldr	r3, .L39+20
 280              	.L38:
 281 003a 1A78     		ldrb	r2, [r3, #0]	@ zero_extendqisi2
 282 003c 0D4B     		ldr	r3, .L39+24
 283 003e 1A70     		strb	r2, [r3, #0]
 419:.\Generated_Source\PSoC5/CyLib.c ****         break;
 284              		.loc 1 419 0
 285 0040 10BD     		pop	{r4, pc}
 286              	.L35:
 420:.\Generated_Source\PSoC5/CyLib.c **** 
 421:.\Generated_Source\PSoC5/CyLib.c ****     /* The IMO frequencies above 48 MHz are not supported by PSoC5 */
 422:.\Generated_Source\PSoC5/CyLib.c ****     #if(!CY_PSOC5A)
 423:.\Generated_Source\PSoC5/CyLib.c **** 
 424:.\Generated_Source\PSoC5/CyLib.c ****         case CY_IMO_FREQ_62MHZ:
 425:.\Generated_Source\PSoC5/CyLib.c ****             IMO_TR1 = CY_GET_XTND_REG8(FLSHID_CUST_TABLES_IMO_67MHZ_PTR);
 426:.\Generated_Source\PSoC5/CyLib.c ****             break;
 427:.\Generated_Source\PSoC5/CyLib.c **** 
 428:.\Generated_Source\PSoC5/CyLib.c ****     #endif  /* (!CY_PSOC5A) */
 429:.\Generated_Source\PSoC5/CyLib.c **** 
 430:.\Generated_Source\PSoC5/CyLib.c ****     case CY_IMO_FREQ_USB:
 431:.\Generated_Source\PSoC5/CyLib.c ****         IMO_TR1 = CY_GET_XTND_REG8(FLSHID_CUST_TABLES_IMO_USB_PTR);
 287              		.loc 1 431 0
 288 0042 0D4B     		ldr	r3, .L39+28
 432:.\Generated_Source\PSoC5/CyLib.c **** 
 433:.\Generated_Source\PSoC5/CyLib.c ****         /* If USB is powered */
 434:.\Generated_Source\PSoC5/CyLib.c ****         if(usb_power_on == 1)
 289              		.loc 1 434 0
 290 0044 0128     		cmp	r0, #1
 291              		.loc 1 431 0
 292 0046 1A78     		ldrb	r2, [r3, #0]	@ zero_extendqisi2
 293 0048 0A4B     		ldr	r3, .L39+24
 294 004a 1A70     		strb	r2, [r3, #0]
 295              		.loc 1 434 0
 296 004c 04D1     		bne	.L37
 435:.\Generated_Source\PSoC5/CyLib.c ****         {
 436:.\Generated_Source\PSoC5/CyLib.c ****             /* Lock the USB Oscillator */
 437:.\Generated_Source\PSoC5/CyLib.c ****             CY_USB_CR1 |= CLOCK_USB_ENABLE;
 297              		.loc 1 437 0
 298 004e 034B     		ldr	r3, .L39
 299 0050 1A78     		ldrb	r2, [r3, #0]	@ zero_extendqisi2
 300 0052 42F00202 		orr	r2, r2, #2
ARM GAS  C:\Users\SUZUKI~1\AppData\Local\Temp\ccqvA6Qn.s 			page 14


 301 0056 1A70     		strb	r2, [r3, #0]
 302              	.L37:
 303 0058 10BD     		pop	{r4, pc}
 304              	.L40:
 305 005a 00BF     		.align	2
 306              	.L39:
 307 005c 09600040 		.word	1073766409
 308 0060 08010049 		.word	1224737032
 309 0064 09010049 		.word	1224737033
 310 0068 0A010049 		.word	1224737034
 311 006c 0B010049 		.word	1224737035
 312 0070 83010049 		.word	1224737155
 313 0074 A1460040 		.word	1073759905
 314 0078 0F010049 		.word	1224737039
 315              		.cfi_endproc
 316              	.LFE7:
 317              		.size	CyIMO_SetTrimValue, .-CyIMO_SetTrimValue
 318              		.section	.text.CyIMO_SetSource,"ax",%progbits
 319              		.align	1
 320              		.global	CyIMO_SetSource
 321              		.thumb
 322              		.thumb_func
 323              		.type	CyIMO_SetSource, %function
 324              	CyIMO_SetSource:
 325              	.LFB9:
 438:.\Generated_Source\PSoC5/CyLib.c ****         }
 439:.\Generated_Source\PSoC5/CyLib.c ****         break;
 440:.\Generated_Source\PSoC5/CyLib.c **** 
 441:.\Generated_Source\PSoC5/CyLib.c ****     default:
 442:.\Generated_Source\PSoC5/CyLib.c ****             CYASSERT(0);
 443:.\Generated_Source\PSoC5/CyLib.c ****         break;
 444:.\Generated_Source\PSoC5/CyLib.c ****     }
 445:.\Generated_Source\PSoC5/CyLib.c **** 
 446:.\Generated_Source\PSoC5/CyLib.c **** }
 447:.\Generated_Source\PSoC5/CyLib.c **** 
 448:.\Generated_Source\PSoC5/CyLib.c **** 
 449:.\Generated_Source\PSoC5/CyLib.c **** /*******************************************************************************
 450:.\Generated_Source\PSoC5/CyLib.c **** * Function Name: CyIMO_SetFreq
 451:.\Generated_Source\PSoC5/CyLib.c **** ********************************************************************************
 452:.\Generated_Source\PSoC5/CyLib.c **** *
 453:.\Generated_Source\PSoC5/CyLib.c **** * Summary:
 454:.\Generated_Source\PSoC5/CyLib.c **** *  Sets the frequency of the IMO. Changes may be made while the IMO is running.
 455:.\Generated_Source\PSoC5/CyLib.c **** *
 456:.\Generated_Source\PSoC5/CyLib.c **** * Parameters:
 457:.\Generated_Source\PSoC5/CyLib.c **** *  freq: Frequency of IMO operation
 458:.\Generated_Source\PSoC5/CyLib.c **** *       CY_IMO_FREQ_3MHZ  to set  3   MHz
 459:.\Generated_Source\PSoC5/CyLib.c **** *       CY_IMO_FREQ_6MHZ  to set  6   MHz
 460:.\Generated_Source\PSoC5/CyLib.c **** *       CY_IMO_FREQ_12MHZ to set 12   MHz
 461:.\Generated_Source\PSoC5/CyLib.c **** *       CY_IMO_FREQ_24MHZ to set 24   MHz
 462:.\Generated_Source\PSoC5/CyLib.c **** *       CY_IMO_FREQ_48MHZ to set 48   MHz
 463:.\Generated_Source\PSoC5/CyLib.c **** *       CY_IMO_FREQ_62MHZ to set 62.6 MHz (unsupported by PSoC 5)
 464:.\Generated_Source\PSoC5/CyLib.c **** *       CY_IMO_FREQ_USB   to set 24   MHz (Trimmed for USB operation)
 465:.\Generated_Source\PSoC5/CyLib.c **** *
 466:.\Generated_Source\PSoC5/CyLib.c **** * Return:
 467:.\Generated_Source\PSoC5/CyLib.c **** *  None
 468:.\Generated_Source\PSoC5/CyLib.c **** *
 469:.\Generated_Source\PSoC5/CyLib.c **** * Side Effects:
ARM GAS  C:\Users\SUZUKI~1\AppData\Local\Temp\ccqvA6Qn.s 			page 15


 470:.\Generated_Source\PSoC5/CyLib.c **** *  If as result of this function execution the CPU clock frequency is increased
 471:.\Generated_Source\PSoC5/CyLib.c **** *  then the number of clock cycles the cache will wait before it samples data
 472:.\Generated_Source\PSoC5/CyLib.c **** *  coming back from Flash must be adjusted by calling CyFlash_SetWaitCycles()
 473:.\Generated_Source\PSoC5/CyLib.c **** *  with appropriate parameter. It can be optionally called if CPU clock
 474:.\Generated_Source\PSoC5/CyLib.c **** *  frequency is lowered in order to improve CPU performance.
 475:.\Generated_Source\PSoC5/CyLib.c **** *  See CyFlash_SetWaitCycles() description for more information.
 476:.\Generated_Source\PSoC5/CyLib.c **** *
 477:.\Generated_Source\PSoC5/CyLib.c **** *  When the USB setting is chosen, the USB clock locking circuit is enabled.
 478:.\Generated_Source\PSoC5/CyLib.c **** *  Otherwise this circuit is disabled. The USB block must be powered before
 479:.\Generated_Source\PSoC5/CyLib.c **** *  selecting the USB setting.
 480:.\Generated_Source\PSoC5/CyLib.c **** *
 481:.\Generated_Source\PSoC5/CyLib.c **** *******************************************************************************/
 482:.\Generated_Source\PSoC5/CyLib.c **** void CyIMO_SetFreq(uint8 freq) 
 483:.\Generated_Source\PSoC5/CyLib.c **** {
 484:.\Generated_Source\PSoC5/CyLib.c ****     uint8 current_freq;
 485:.\Generated_Source\PSoC5/CyLib.c ****     uint8 next_freq;
 486:.\Generated_Source\PSoC5/CyLib.c **** 
 487:.\Generated_Source\PSoC5/CyLib.c ****     /***************************************************************************
 488:.\Generated_Source\PSoC5/CyLib.c ****     * When changing the IMO frequency the Trim values must also be set
 489:.\Generated_Source\PSoC5/CyLib.c ****     * accordingly.This requires reading the current frequency. If the new
 490:.\Generated_Source\PSoC5/CyLib.c ****     * frequency is faster, then set the new trim and then change the frequency,
 491:.\Generated_Source\PSoC5/CyLib.c ****     * otherwise change the frequency and then set the new trim values.
 492:.\Generated_Source\PSoC5/CyLib.c ****     ***************************************************************************/
 493:.\Generated_Source\PSoC5/CyLib.c **** 
 494:.\Generated_Source\PSoC5/CyLib.c ****     current_freq = FASTCLK_IMO_CR & ~CLOCK_IMO_RANGE_CLEAR;
 495:.\Generated_Source\PSoC5/CyLib.c **** 
 496:.\Generated_Source\PSoC5/CyLib.c ****     /* Check if the requested frequency is USB. */
 497:.\Generated_Source\PSoC5/CyLib.c ****     next_freq = (freq == CY_IMO_FREQ_USB) ? CY_IMO_FREQ_24MHZ : freq;
 498:.\Generated_Source\PSoC5/CyLib.c **** 
 499:.\Generated_Source\PSoC5/CyLib.c ****     switch (current_freq)
 500:.\Generated_Source\PSoC5/CyLib.c ****     {
 501:.\Generated_Source\PSoC5/CyLib.c ****     case 0:
 502:.\Generated_Source\PSoC5/CyLib.c ****         current_freq = CY_IMO_FREQ_12MHZ;
 503:.\Generated_Source\PSoC5/CyLib.c ****         break;
 504:.\Generated_Source\PSoC5/CyLib.c **** 
 505:.\Generated_Source\PSoC5/CyLib.c ****     case 1:
 506:.\Generated_Source\PSoC5/CyLib.c ****         current_freq = CY_IMO_FREQ_6MHZ;
 507:.\Generated_Source\PSoC5/CyLib.c ****         break;
 508:.\Generated_Source\PSoC5/CyLib.c **** 
 509:.\Generated_Source\PSoC5/CyLib.c ****     case 2:
 510:.\Generated_Source\PSoC5/CyLib.c ****         current_freq = CY_IMO_FREQ_24MHZ;
 511:.\Generated_Source\PSoC5/CyLib.c ****         break;
 512:.\Generated_Source\PSoC5/CyLib.c **** 
 513:.\Generated_Source\PSoC5/CyLib.c ****     case 3:
 514:.\Generated_Source\PSoC5/CyLib.c ****         current_freq = CY_IMO_FREQ_3MHZ;
 515:.\Generated_Source\PSoC5/CyLib.c ****         break;
 516:.\Generated_Source\PSoC5/CyLib.c **** 
 517:.\Generated_Source\PSoC5/CyLib.c ****     case 4:
 518:.\Generated_Source\PSoC5/CyLib.c ****         current_freq = CY_IMO_FREQ_48MHZ;
 519:.\Generated_Source\PSoC5/CyLib.c ****         break;
 520:.\Generated_Source\PSoC5/CyLib.c **** 
 521:.\Generated_Source\PSoC5/CyLib.c ****     /* The IMO frequencies above 48 MHz are not supported by PSoC5 */
 522:.\Generated_Source\PSoC5/CyLib.c ****     #if(!CY_PSOC5A)
 523:.\Generated_Source\PSoC5/CyLib.c **** 
 524:.\Generated_Source\PSoC5/CyLib.c ****         case 5:
 525:.\Generated_Source\PSoC5/CyLib.c ****             current_freq = CY_IMO_FREQ_62MHZ;
 526:.\Generated_Source\PSoC5/CyLib.c ****             break;
ARM GAS  C:\Users\SUZUKI~1\AppData\Local\Temp\ccqvA6Qn.s 			page 16


 527:.\Generated_Source\PSoC5/CyLib.c **** 
 528:.\Generated_Source\PSoC5/CyLib.c ****     #endif  /* (!CY_PSOC5A) */
 529:.\Generated_Source\PSoC5/CyLib.c **** 
 530:.\Generated_Source\PSoC5/CyLib.c ****     default:
 531:.\Generated_Source\PSoC5/CyLib.c ****         CYASSERT((uint32) 0);
 532:.\Generated_Source\PSoC5/CyLib.c ****         break;
 533:.\Generated_Source\PSoC5/CyLib.c ****     }
 534:.\Generated_Source\PSoC5/CyLib.c **** 
 535:.\Generated_Source\PSoC5/CyLib.c ****     if (next_freq >= current_freq)
 536:.\Generated_Source\PSoC5/CyLib.c ****     {
 537:.\Generated_Source\PSoC5/CyLib.c ****         /* Set the new trim first */
 538:.\Generated_Source\PSoC5/CyLib.c ****         CyIMO_SetTrimValue(freq);
 539:.\Generated_Source\PSoC5/CyLib.c ****     }
 540:.\Generated_Source\PSoC5/CyLib.c **** 
 541:.\Generated_Source\PSoC5/CyLib.c ****     /* Set the usbclk_on bit when using CY_IMO_FREQ_USB, if not clear it */
 542:.\Generated_Source\PSoC5/CyLib.c ****     switch(freq)
 543:.\Generated_Source\PSoC5/CyLib.c ****     {
 544:.\Generated_Source\PSoC5/CyLib.c ****     case CY_IMO_FREQ_3MHZ:
 545:.\Generated_Source\PSoC5/CyLib.c ****         FASTCLK_IMO_CR = ((FASTCLK_IMO_CR & CLOCK_IMO_RANGE_CLEAR) |
 546:.\Generated_Source\PSoC5/CyLib.c ****             CLOCK_IMO_3MHZ_VALUE) & ~FASTCLK_IMO_USBCLK_ON_SET;
 547:.\Generated_Source\PSoC5/CyLib.c ****         break;
 548:.\Generated_Source\PSoC5/CyLib.c **** 
 549:.\Generated_Source\PSoC5/CyLib.c ****     case CY_IMO_FREQ_6MHZ:
 550:.\Generated_Source\PSoC5/CyLib.c ****         FASTCLK_IMO_CR = ((FASTCLK_IMO_CR & CLOCK_IMO_RANGE_CLEAR) |
 551:.\Generated_Source\PSoC5/CyLib.c ****             CLOCK_IMO_6MHZ_VALUE) & ~FASTCLK_IMO_USBCLK_ON_SET;
 552:.\Generated_Source\PSoC5/CyLib.c ****         break;
 553:.\Generated_Source\PSoC5/CyLib.c **** 
 554:.\Generated_Source\PSoC5/CyLib.c ****     case CY_IMO_FREQ_12MHZ:
 555:.\Generated_Source\PSoC5/CyLib.c ****         FASTCLK_IMO_CR = ((FASTCLK_IMO_CR & CLOCK_IMO_RANGE_CLEAR) |
 556:.\Generated_Source\PSoC5/CyLib.c ****             CLOCK_IMO_12MHZ_VALUE) & ~FASTCLK_IMO_USBCLK_ON_SET;
 557:.\Generated_Source\PSoC5/CyLib.c ****         break;
 558:.\Generated_Source\PSoC5/CyLib.c **** 
 559:.\Generated_Source\PSoC5/CyLib.c ****     case CY_IMO_FREQ_24MHZ:
 560:.\Generated_Source\PSoC5/CyLib.c ****         FASTCLK_IMO_CR = ((FASTCLK_IMO_CR & CLOCK_IMO_RANGE_CLEAR) |
 561:.\Generated_Source\PSoC5/CyLib.c ****             CLOCK_IMO_24MHZ_VALUE) & ~FASTCLK_IMO_USBCLK_ON_SET;
 562:.\Generated_Source\PSoC5/CyLib.c ****         break;
 563:.\Generated_Source\PSoC5/CyLib.c **** 
 564:.\Generated_Source\PSoC5/CyLib.c ****     case CY_IMO_FREQ_48MHZ:
 565:.\Generated_Source\PSoC5/CyLib.c ****         FASTCLK_IMO_CR = ((FASTCLK_IMO_CR & CLOCK_IMO_RANGE_CLEAR) |
 566:.\Generated_Source\PSoC5/CyLib.c ****             CLOCK_IMO_48MHZ_VALUE) & ~FASTCLK_IMO_USBCLK_ON_SET;
 567:.\Generated_Source\PSoC5/CyLib.c ****         break;
 568:.\Generated_Source\PSoC5/CyLib.c **** 
 569:.\Generated_Source\PSoC5/CyLib.c ****     /* The IMO frequencies above 48 MHz are not supported by PSoC5 */
 570:.\Generated_Source\PSoC5/CyLib.c ****     #if(!CY_PSOC5A)
 571:.\Generated_Source\PSoC5/CyLib.c **** 
 572:.\Generated_Source\PSoC5/CyLib.c ****     case CY_IMO_FREQ_62MHZ:
 573:.\Generated_Source\PSoC5/CyLib.c ****         FASTCLK_IMO_CR = ((FASTCLK_IMO_CR & CLOCK_IMO_RANGE_CLEAR) |
 574:.\Generated_Source\PSoC5/CyLib.c ****             CLOCK_IMO_62MHZ_VALUE) & ~FASTCLK_IMO_USBCLK_ON_SET;
 575:.\Generated_Source\PSoC5/CyLib.c ****         break;
 576:.\Generated_Source\PSoC5/CyLib.c **** 
 577:.\Generated_Source\PSoC5/CyLib.c ****     #endif  /* (!CY_PSOC5A) */
 578:.\Generated_Source\PSoC5/CyLib.c **** 
 579:.\Generated_Source\PSoC5/CyLib.c ****     case CY_IMO_FREQ_USB:
 580:.\Generated_Source\PSoC5/CyLib.c ****         FASTCLK_IMO_CR = ((FASTCLK_IMO_CR & CLOCK_IMO_RANGE_CLEAR) |
 581:.\Generated_Source\PSoC5/CyLib.c ****             CLOCK_IMO_24MHZ_VALUE) | FASTCLK_IMO_USBCLK_ON_SET;
 582:.\Generated_Source\PSoC5/CyLib.c ****         break;
 583:.\Generated_Source\PSoC5/CyLib.c **** 
ARM GAS  C:\Users\SUZUKI~1\AppData\Local\Temp\ccqvA6Qn.s 			page 17


 584:.\Generated_Source\PSoC5/CyLib.c ****     default:
 585:.\Generated_Source\PSoC5/CyLib.c ****         CYASSERT((uint32) 0);
 586:.\Generated_Source\PSoC5/CyLib.c ****         break;
 587:.\Generated_Source\PSoC5/CyLib.c ****     }
 588:.\Generated_Source\PSoC5/CyLib.c **** 
 589:.\Generated_Source\PSoC5/CyLib.c ****     /* Turn on the IMO Doubler, if switching to CY_IMO_FREQ_USB */
 590:.\Generated_Source\PSoC5/CyLib.c ****     if (freq == CY_IMO_FREQ_USB)
 591:.\Generated_Source\PSoC5/CyLib.c ****     {
 592:.\Generated_Source\PSoC5/CyLib.c ****         CyIMO_EnableDoubler();
 593:.\Generated_Source\PSoC5/CyLib.c ****     }
 594:.\Generated_Source\PSoC5/CyLib.c ****     else
 595:.\Generated_Source\PSoC5/CyLib.c ****     {
 596:.\Generated_Source\PSoC5/CyLib.c ****         CyIMO_DisableDoubler();
 597:.\Generated_Source\PSoC5/CyLib.c ****     }
 598:.\Generated_Source\PSoC5/CyLib.c **** 
 599:.\Generated_Source\PSoC5/CyLib.c ****     if (next_freq < current_freq)
 600:.\Generated_Source\PSoC5/CyLib.c ****     {
 601:.\Generated_Source\PSoC5/CyLib.c ****         /* Set the new trim after setting the frequency */
 602:.\Generated_Source\PSoC5/CyLib.c ****         CyIMO_SetTrimValue(freq);
 603:.\Generated_Source\PSoC5/CyLib.c ****     }
 604:.\Generated_Source\PSoC5/CyLib.c **** }
 605:.\Generated_Source\PSoC5/CyLib.c **** 
 606:.\Generated_Source\PSoC5/CyLib.c **** 
 607:.\Generated_Source\PSoC5/CyLib.c **** /*******************************************************************************
 608:.\Generated_Source\PSoC5/CyLib.c **** * Function Name: CyIMO_SetSource
 609:.\Generated_Source\PSoC5/CyLib.c **** ********************************************************************************
 610:.\Generated_Source\PSoC5/CyLib.c **** *
 611:.\Generated_Source\PSoC5/CyLib.c **** * Summary:
 612:.\Generated_Source\PSoC5/CyLib.c **** *  Sets the source of the clock output from the IMO block.
 613:.\Generated_Source\PSoC5/CyLib.c **** *
 614:.\Generated_Source\PSoC5/CyLib.c **** *  The output from the IMO is by default the IMO itself. Optionally the MHz
 615:.\Generated_Source\PSoC5/CyLib.c **** *  Crystal or a DSI input can be the source of the IMO output instead.
 616:.\Generated_Source\PSoC5/CyLib.c **** *
 617:.\Generated_Source\PSoC5/CyLib.c **** * Parameters:
 618:.\Generated_Source\PSoC5/CyLib.c **** *   source, CY_IMO_SOURCE_DSI to set the DSI as source.
 619:.\Generated_Source\PSoC5/CyLib.c **** *           CY_IMO_SOURCE_XTAL to set the MHz as source.
 620:.\Generated_Source\PSoC5/CyLib.c **** *           CY_IMO_SOURCE_IMO to set the IMO itself.
 621:.\Generated_Source\PSoC5/CyLib.c **** *
 622:.\Generated_Source\PSoC5/CyLib.c **** * Return:
 623:.\Generated_Source\PSoC5/CyLib.c **** *  None
 624:.\Generated_Source\PSoC5/CyLib.c **** *
 625:.\Generated_Source\PSoC5/CyLib.c **** * Side Effects:
 626:.\Generated_Source\PSoC5/CyLib.c **** *  If as result of this function execution the CPU clock frequency is increased
 627:.\Generated_Source\PSoC5/CyLib.c **** *  then the number of clock cycles the cache will wait before it samples data
 628:.\Generated_Source\PSoC5/CyLib.c **** *  coming back from Flash must be adjusted by calling CyFlash_SetWaitCycles()
 629:.\Generated_Source\PSoC5/CyLib.c **** *  with appropriate parameter. It can be optionally called if CPU clock
 630:.\Generated_Source\PSoC5/CyLib.c **** *  frequency is lowered in order to improve CPU performance.
 631:.\Generated_Source\PSoC5/CyLib.c **** *  See CyFlash_SetWaitCycles() description for more information.
 632:.\Generated_Source\PSoC5/CyLib.c **** *
 633:.\Generated_Source\PSoC5/CyLib.c **** *******************************************************************************/
 634:.\Generated_Source\PSoC5/CyLib.c **** void CyIMO_SetSource(uint8 source) 
 635:.\Generated_Source\PSoC5/CyLib.c **** {
 326              		.loc 1 635 0
 327              		.cfi_startproc
 328              		@ args = 0, pretend = 0, frame = 0
 329              		@ frame_needed = 0, uses_anonymous_args = 0
 330              		@ link register save eliminated.
ARM GAS  C:\Users\SUZUKI~1\AppData\Local\Temp\ccqvA6Qn.s 			page 18


 331              	.LVL15:
 636:.\Generated_Source\PSoC5/CyLib.c ****     /* Set the xclken bit of FASTCLK_IMO_CR regigster */
 637:.\Generated_Source\PSoC5/CyLib.c ****     switch(source)
 332              		.loc 1 637 0
 333 0000 0128     		cmp	r0, #1
 334 0002 07D0     		beq	.L44
 335 0004 11D3     		bcc	.L43
 336 0006 0228     		cmp	r0, #2
 337 0008 14D1     		bne	.L46
 638:.\Generated_Source\PSoC5/CyLib.c ****     {
 639:.\Generated_Source\PSoC5/CyLib.c ****     case CY_IMO_SOURCE_DSI:
 640:.\Generated_Source\PSoC5/CyLib.c ****         CLKDIST_CR &= ~CLOCK_IMO2X_XTAL;
 338              		.loc 1 640 0
 339 000a 0B4B     		ldr	r3, .L48
 340 000c 1A78     		ldrb	r2, [r3, #0]	@ zero_extendqisi2
 341 000e 02F0BF02 		and	r2, r2, #191
 342 0012 03E0     		b	.L47
 343              	.L44:
 641:.\Generated_Source\PSoC5/CyLib.c ****         FASTCLK_IMO_CR |= CLOCK_IMO_IMO;
 642:.\Generated_Source\PSoC5/CyLib.c ****         break;
 643:.\Generated_Source\PSoC5/CyLib.c **** 
 644:.\Generated_Source\PSoC5/CyLib.c ****     case CY_IMO_SOURCE_XTAL:
 645:.\Generated_Source\PSoC5/CyLib.c ****         CLKDIST_CR |= CLOCK_IMO2X_XTAL;
 344              		.loc 1 645 0
 345 0014 084B     		ldr	r3, .L48
 346 0016 1A78     		ldrb	r2, [r3, #0]	@ zero_extendqisi2
 347 0018 42F04002 		orr	r2, r2, #64
 348              	.L47:
 349 001c 1A70     		strb	r2, [r3, #0]
 646:.\Generated_Source\PSoC5/CyLib.c ****         FASTCLK_IMO_CR |= CLOCK_IMO_IMO;
 350              		.loc 1 646 0
 351 001e 074B     		ldr	r3, .L48+4
 352 0020 1A78     		ldrb	r2, [r3, #0]	@ zero_extendqisi2
 353 0022 42F02002 		orr	r2, r2, #32
 354 0026 1A70     		strb	r2, [r3, #0]
 647:.\Generated_Source\PSoC5/CyLib.c ****         break;
 355              		.loc 1 647 0
 356 0028 7047     		bx	lr
 357              	.L43:
 648:.\Generated_Source\PSoC5/CyLib.c **** 
 649:.\Generated_Source\PSoC5/CyLib.c ****     case CY_IMO_SOURCE_IMO:
 650:.\Generated_Source\PSoC5/CyLib.c ****         FASTCLK_IMO_CR &= ~CLOCK_IMO_IMO;
 358              		.loc 1 650 0
 359 002a 044B     		ldr	r3, .L48+4
 360 002c 1A78     		ldrb	r2, [r3, #0]	@ zero_extendqisi2
 361 002e 02F0DF02 		and	r2, r2, #223
 362 0032 1A70     		strb	r2, [r3, #0]
 363              	.L46:
 364 0034 7047     		bx	lr
 365              	.L49:
 366 0036 00BF     		.align	2
 367              	.L48:
 368 0038 00400040 		.word	1073758208
 369 003c 00420040 		.word	1073758720
 370              		.cfi_endproc
 371              	.LFE9:
 372              		.size	CyIMO_SetSource, .-CyIMO_SetSource
ARM GAS  C:\Users\SUZUKI~1\AppData\Local\Temp\ccqvA6Qn.s 			page 19


 373              		.section	.text.CyIMO_EnableDoubler,"ax",%progbits
 374              		.align	1
 375              		.global	CyIMO_EnableDoubler
 376              		.thumb
 377              		.thumb_func
 378              		.type	CyIMO_EnableDoubler, %function
 379              	CyIMO_EnableDoubler:
 380              	.LFB10:
 651:.\Generated_Source\PSoC5/CyLib.c ****         break;
 652:.\Generated_Source\PSoC5/CyLib.c **** 
 653:.\Generated_Source\PSoC5/CyLib.c ****     default:
 654:.\Generated_Source\PSoC5/CyLib.c ****         /* Incorrect source value */
 655:.\Generated_Source\PSoC5/CyLib.c ****         CYASSERT((uint32) 0);
 656:.\Generated_Source\PSoC5/CyLib.c ****         break;
 657:.\Generated_Source\PSoC5/CyLib.c ****     }
 658:.\Generated_Source\PSoC5/CyLib.c **** }
 659:.\Generated_Source\PSoC5/CyLib.c **** 
 660:.\Generated_Source\PSoC5/CyLib.c **** 
 661:.\Generated_Source\PSoC5/CyLib.c **** /*******************************************************************************
 662:.\Generated_Source\PSoC5/CyLib.c **** * Function Name: CyIMO_EnableDoubler
 663:.\Generated_Source\PSoC5/CyLib.c **** ********************************************************************************
 664:.\Generated_Source\PSoC5/CyLib.c **** *
 665:.\Generated_Source\PSoC5/CyLib.c **** * Summary:
 666:.\Generated_Source\PSoC5/CyLib.c **** *  Enables the IMO doubler.  The 2x frequency clock is used to convert a 24 MHz
 667:.\Generated_Source\PSoC5/CyLib.c **** *  input to a 48 MHz output for use by the USB block.
 668:.\Generated_Source\PSoC5/CyLib.c **** *
 669:.\Generated_Source\PSoC5/CyLib.c **** * Parameters:
 670:.\Generated_Source\PSoC5/CyLib.c **** *  None
 671:.\Generated_Source\PSoC5/CyLib.c **** *
 672:.\Generated_Source\PSoC5/CyLib.c **** * Return:
 673:.\Generated_Source\PSoC5/CyLib.c **** *  None
 674:.\Generated_Source\PSoC5/CyLib.c **** *
 675:.\Generated_Source\PSoC5/CyLib.c **** *******************************************************************************/
 676:.\Generated_Source\PSoC5/CyLib.c **** void CyIMO_EnableDoubler(void) 
 677:.\Generated_Source\PSoC5/CyLib.c **** {
 381              		.loc 1 677 0
 382              		.cfi_startproc
 383              		@ args = 0, pretend = 0, frame = 0
 384              		@ frame_needed = 0, uses_anonymous_args = 0
 385              		@ link register save eliminated.
 678:.\Generated_Source\PSoC5/CyLib.c ****     /* Set the FASTCLK_IMO_CR_PTR regigster's 4th bit */
 679:.\Generated_Source\PSoC5/CyLib.c ****     FASTCLK_IMO_CR |= IMO_DOUBLER_ENABLE;
 386              		.loc 1 679 0
 387 0000 024B     		ldr	r3, .L52
 388 0002 1A78     		ldrb	r2, [r3, #0]	@ zero_extendqisi2
 389 0004 42F01002 		orr	r2, r2, #16
 390 0008 1A70     		strb	r2, [r3, #0]
 680:.\Generated_Source\PSoC5/CyLib.c **** }
 391              		.loc 1 680 0
 392 000a 7047     		bx	lr
 393              	.L53:
 394              		.align	2
 395              	.L52:
 396 000c 00420040 		.word	1073758720
 397              		.cfi_endproc
 398              	.LFE10:
 399              		.size	CyIMO_EnableDoubler, .-CyIMO_EnableDoubler
ARM GAS  C:\Users\SUZUKI~1\AppData\Local\Temp\ccqvA6Qn.s 			page 20


 400              		.section	.text.CyIMO_DisableDoubler,"ax",%progbits
 401              		.align	1
 402              		.global	CyIMO_DisableDoubler
 403              		.thumb
 404              		.thumb_func
 405              		.type	CyIMO_DisableDoubler, %function
 406              	CyIMO_DisableDoubler:
 407              	.LFB11:
 681:.\Generated_Source\PSoC5/CyLib.c **** 
 682:.\Generated_Source\PSoC5/CyLib.c **** 
 683:.\Generated_Source\PSoC5/CyLib.c **** /*******************************************************************************
 684:.\Generated_Source\PSoC5/CyLib.c **** * Function Name: CyIMO_DisableDoubler
 685:.\Generated_Source\PSoC5/CyLib.c **** ********************************************************************************
 686:.\Generated_Source\PSoC5/CyLib.c **** *
 687:.\Generated_Source\PSoC5/CyLib.c **** * Summary:
 688:.\Generated_Source\PSoC5/CyLib.c **** *   Disables the IMO doubler.
 689:.\Generated_Source\PSoC5/CyLib.c **** *
 690:.\Generated_Source\PSoC5/CyLib.c **** * Parameters:
 691:.\Generated_Source\PSoC5/CyLib.c **** *  None
 692:.\Generated_Source\PSoC5/CyLib.c **** *
 693:.\Generated_Source\PSoC5/CyLib.c **** * Return:
 694:.\Generated_Source\PSoC5/CyLib.c **** *  None
 695:.\Generated_Source\PSoC5/CyLib.c **** *
 696:.\Generated_Source\PSoC5/CyLib.c **** *******************************************************************************/
 697:.\Generated_Source\PSoC5/CyLib.c **** void CyIMO_DisableDoubler(void) 
 698:.\Generated_Source\PSoC5/CyLib.c **** {
 408              		.loc 1 698 0
 409              		.cfi_startproc
 410              		@ args = 0, pretend = 0, frame = 0
 411              		@ frame_needed = 0, uses_anonymous_args = 0
 412              		@ link register save eliminated.
 699:.\Generated_Source\PSoC5/CyLib.c ****     FASTCLK_IMO_CR &= ~IMO_DOUBLER_ENABLE;
 413              		.loc 1 699 0
 414 0000 024B     		ldr	r3, .L56
 415 0002 1A78     		ldrb	r2, [r3, #0]	@ zero_extendqisi2
 416 0004 02F0EF02 		and	r2, r2, #239
 417 0008 1A70     		strb	r2, [r3, #0]
 700:.\Generated_Source\PSoC5/CyLib.c **** }
 418              		.loc 1 700 0
 419 000a 7047     		bx	lr
 420              	.L57:
 421              		.align	2
 422              	.L56:
 423 000c 00420040 		.word	1073758720
 424              		.cfi_endproc
 425              	.LFE11:
 426              		.size	CyIMO_DisableDoubler, .-CyIMO_DisableDoubler
 427              		.section	.text.CyIMO_SetFreq,"ax",%progbits
 428              		.align	1
 429              		.global	CyIMO_SetFreq
 430              		.thumb
 431              		.thumb_func
 432              		.type	CyIMO_SetFreq, %function
 433              	CyIMO_SetFreq:
 434              	.LFB8:
 435              		.loc 1 483 0
 436              		.cfi_startproc
ARM GAS  C:\Users\SUZUKI~1\AppData\Local\Temp\ccqvA6Qn.s 			page 21


 437              		@ args = 0, pretend = 0, frame = 0
 438              		@ frame_needed = 0, uses_anonymous_args = 0
 439              	.LVL16:
 440 0000 70B5     		push	{r4, r5, r6, lr}
 441              	.LCFI1:
 442              		.cfi_def_cfa_offset 16
 443              		.loc 1 494 0
 444 0002 2D4B     		ldr	r3, .L81
 445              		.loc 1 497 0
 446 0004 0828     		cmp	r0, #8
 447 0006 14BF     		ite	ne
 448 0008 0646     		movne	r6, r0
 449 000a 0326     		moveq	r6, #3
 450              		.cfi_offset 14, -4
 451              		.cfi_offset 6, -8
 452              		.cfi_offset 5, -12
 453              		.cfi_offset 4, -16
 454              	.LVL17:
 455              		.loc 1 494 0
 456 000c 1C78     		ldrb	r4, [r3, #0]	@ zero_extendqisi2
 457              		.loc 1 483 0
 458 000e 0546     		mov	r5, r0
 459              		.loc 1 494 0
 460 0010 04F00704 		and	r4, r4, #7
 461              	.LVL18:
 462              		.loc 1 499 0
 463 0014 022C     		cmp	r4, #2
 464 0016 07D0     		beq	.L63
 465              	.LVL19:
 466 0018 032C     		cmp	r4, #3
 467 001a 03D0     		beq	.L64
 468 001c 002C     		cmp	r4, #0
 469 001e 08BF     		it	eq
 470 0020 0224     		moveq	r4, #2
 471              	.LVL20:
 472 0022 02E0     		b	.L61
 473              	.L64:
 474 0024 0024     		movs	r4, #0
 475              	.LVL21:
 476 0026 02E0     		b	.L65
 477              	.L63:
 478 0028 0324     		movs	r4, #3
 479              	.LVL22:
 480              	.L61:
 481              		.loc 1 535 0
 482 002a A642     		cmp	r6, r4
 483 002c 02D3     		bcc	.L66
 484              	.L65:
 485              		.loc 1 538 0
 486 002e 2846     		mov	r0, r5
 487 0030 FFF7FEFF 		bl	CyIMO_SetTrimValue
 488              	.LVL23:
 489              	.L66:
 490              		.loc 1 542 0
 491 0034 082D     		cmp	r5, #8
 492 0036 30D8     		bhi	.L67
 493 0038 DFE805F0 		tbb	[pc, r5]
ARM GAS  C:\Users\SUZUKI~1\AppData\Local\Temp\ccqvA6Qn.s 			page 22


 494              	.L74:
 495 003c 05       		.byte	(.L68-.L74)/2
 496 003d 0C       		.byte	(.L69-.L74)/2
 497 003e 13       		.byte	(.L70-.L74)/2
 498 003f 18       		.byte	(.L71-.L74)/2
 499 0040 20       		.byte	(.L72-.L74)/2
 500 0041 2F       		.byte	(.L67-.L74)/2
 501 0042 2F       		.byte	(.L67-.L74)/2
 502 0043 2F       		.byte	(.L67-.L74)/2
 503 0044 27       		.byte	(.L73-.L74)/2
 504 0045 00       		.align	1
 505              	.L68:
 506              		.loc 1 545 0
 507 0046 1C4B     		ldr	r3, .L81
 508 0048 1A78     		ldrb	r2, [r3, #0]	@ zero_extendqisi2
 509 004a 02F0B802 		and	r2, r2, #184
 510 004e 42F00302 		orr	r2, r2, #3
 511 0052 11E0     		b	.L80
 512              	.L69:
 513              		.loc 1 550 0
 514 0054 184B     		ldr	r3, .L81
 515 0056 1A78     		ldrb	r2, [r3, #0]	@ zero_extendqisi2
 516 0058 02F0B802 		and	r2, r2, #184
 517 005c 42F00102 		orr	r2, r2, #1
 518 0060 0AE0     		b	.L80
 519              	.L70:
 520              		.loc 1 555 0
 521 0062 154B     		ldr	r3, .L81
 522 0064 1A78     		ldrb	r2, [r3, #0]	@ zero_extendqisi2
 523 0066 02F0B802 		and	r2, r2, #184
 524 006a 05E0     		b	.L80
 525              	.L71:
 526              		.loc 1 560 0
 527 006c 124B     		ldr	r3, .L81
 528 006e 1A78     		ldrb	r2, [r3, #0]	@ zero_extendqisi2
 529 0070 02F0B802 		and	r2, r2, #184
 530 0074 42F00202 		orr	r2, r2, #2
 531              	.L80:
 532 0078 1A70     		strb	r2, [r3, #0]
 533              		.loc 1 562 0
 534 007a 13E0     		b	.L75
 535              	.L72:
 536              		.loc 1 565 0
 537 007c 0E4B     		ldr	r3, .L81
 538 007e 1A78     		ldrb	r2, [r3, #0]	@ zero_extendqisi2
 539 0080 02F0B802 		and	r2, r2, #184
 540 0084 42F00402 		orr	r2, r2, #4
 541 0088 F6E7     		b	.L80
 542              	.L73:
 543              		.loc 1 580 0
 544 008a 0B4B     		ldr	r3, .L81
 545 008c 1A78     		ldrb	r2, [r3, #0]	@ zero_extendqisi2
 546 008e 02F0B802 		and	r2, r2, #184
 547 0092 42F04202 		orr	r2, r2, #66
 548 0096 1A70     		strb	r2, [r3, #0]
 549 0098 01E0     		b	.L76
 550              	.L67:
ARM GAS  C:\Users\SUZUKI~1\AppData\Local\Temp\ccqvA6Qn.s 			page 23


 551              		.loc 1 590 0
 552 009a 082D     		cmp	r5, #8
 553 009c 02D1     		bne	.L75
 554              	.L76:
 555              		.loc 1 592 0
 556 009e FFF7FEFF 		bl	CyIMO_EnableDoubler
 557 00a2 01E0     		b	.L77
 558              	.LVL24:
 559              	.L75:
 560              		.loc 1 596 0
 561 00a4 FFF7FEFF 		bl	CyIMO_DisableDoubler
 562              	.L77:
 563              		.loc 1 599 0
 564 00a8 A642     		cmp	r6, r4
 565 00aa 04D2     		bcs	.L79
 566              		.loc 1 602 0
 567 00ac 2846     		mov	r0, r5
 568              		.loc 1 604 0
 569 00ae BDE87040 		pop	{r4, r5, r6, lr}
 570              		.loc 1 602 0
 571 00b2 FFF7FEBF 		b	CyIMO_SetTrimValue
 572              	.L79:
 573 00b6 70BD     		pop	{r4, r5, r6, pc}
 574              	.L82:
 575              		.align	2
 576              	.L81:
 577 00b8 00420040 		.word	1073758720
 578              		.cfi_endproc
 579              	.LFE8:
 580              		.size	CyIMO_SetFreq, .-CyIMO_SetFreq
 581              		.section	.text.CyMasterClk_SetSource,"ax",%progbits
 582              		.align	1
 583              		.global	CyMasterClk_SetSource
 584              		.thumb
 585              		.thumb_func
 586              		.type	CyMasterClk_SetSource, %function
 587              	CyMasterClk_SetSource:
 588              	.LFB12:
 701:.\Generated_Source\PSoC5/CyLib.c **** 
 702:.\Generated_Source\PSoC5/CyLib.c **** 
 703:.\Generated_Source\PSoC5/CyLib.c **** /*******************************************************************************
 704:.\Generated_Source\PSoC5/CyLib.c **** * Function Name: CyMasterClk_SetSource
 705:.\Generated_Source\PSoC5/CyLib.c **** ********************************************************************************
 706:.\Generated_Source\PSoC5/CyLib.c **** *
 707:.\Generated_Source\PSoC5/CyLib.c **** * Summary:
 708:.\Generated_Source\PSoC5/CyLib.c **** *  Sets the source of the master clock.
 709:.\Generated_Source\PSoC5/CyLib.c **** *
 710:.\Generated_Source\PSoC5/CyLib.c **** * Parameters:
 711:.\Generated_Source\PSoC5/CyLib.c **** *   source: One of the four available Master clock sources.
 712:.\Generated_Source\PSoC5/CyLib.c **** *     CY_MASTER_SOURCE_IMO
 713:.\Generated_Source\PSoC5/CyLib.c **** *     CY_MASTER_SOURCE_PLL
 714:.\Generated_Source\PSoC5/CyLib.c **** *     CY_MASTER_SOURCE_XTAL
 715:.\Generated_Source\PSoC5/CyLib.c **** *     CY_MASTER_SOURCE_DSI
 716:.\Generated_Source\PSoC5/CyLib.c **** *
 717:.\Generated_Source\PSoC5/CyLib.c **** * Return:
 718:.\Generated_Source\PSoC5/CyLib.c **** *  None
 719:.\Generated_Source\PSoC5/CyLib.c **** *
ARM GAS  C:\Users\SUZUKI~1\AppData\Local\Temp\ccqvA6Qn.s 			page 24


 720:.\Generated_Source\PSoC5/CyLib.c **** * Side Effects:
 721:.\Generated_Source\PSoC5/CyLib.c **** *  The current source and the new source must both be running and stable before
 722:.\Generated_Source\PSoC5/CyLib.c **** *  calling this function.
 723:.\Generated_Source\PSoC5/CyLib.c **** *
 724:.\Generated_Source\PSoC5/CyLib.c **** *  If as result of this function execution the CPU clock frequency is increased
 725:.\Generated_Source\PSoC5/CyLib.c **** *  then the number of clock cycles the cache will wait before it samples data
 726:.\Generated_Source\PSoC5/CyLib.c **** *  coming back from Flash must be adjusted by calling CyFlash_SetWaitCycles()
 727:.\Generated_Source\PSoC5/CyLib.c **** *  with appropriate parameter. It can be optionally called if CPU clock
 728:.\Generated_Source\PSoC5/CyLib.c **** *  frequency is lowered in order to improve CPU performance.
 729:.\Generated_Source\PSoC5/CyLib.c **** *  See CyFlash_SetWaitCycles() description for more information.
 730:.\Generated_Source\PSoC5/CyLib.c **** *
 731:.\Generated_Source\PSoC5/CyLib.c **** *******************************************************************************/
 732:.\Generated_Source\PSoC5/CyLib.c **** void CyMasterClk_SetSource(uint8 source) 
 733:.\Generated_Source\PSoC5/CyLib.c **** {
 589              		.loc 1 733 0
 590              		.cfi_startproc
 591              		@ args = 0, pretend = 0, frame = 0
 592              		@ frame_needed = 0, uses_anonymous_args = 0
 593              		@ link register save eliminated.
 594              	.LVL25:
 734:.\Generated_Source\PSoC5/CyLib.c ****     uint8 master_reg_1;
 735:.\Generated_Source\PSoC5/CyLib.c **** 
 736:.\Generated_Source\PSoC5/CyLib.c ****     #if(CY_PSOC5A)
 737:.\Generated_Source\PSoC5/CyLib.c **** 
 738:.\Generated_Source\PSoC5/CyLib.c ****         uint8 master_reg_0;
 739:.\Generated_Source\PSoC5/CyLib.c **** 
 740:.\Generated_Source\PSoC5/CyLib.c ****         /* Read the current setting */
 741:.\Generated_Source\PSoC5/CyLib.c ****         master_reg_0 = CLKDIST_MSTR0;
 595              		.loc 1 741 0
 596 0000 084A     		ldr	r2, .L87
 597 0002 1178     		ldrb	r1, [r2, #0]	@ zero_extendqisi2
 742:.\Generated_Source\PSoC5/CyLib.c **** 
 743:.\Generated_Source\PSoC5/CyLib.c ****         /* Write a non-zero period to the master mux clock divider */
 744:.\Generated_Source\PSoC5/CyLib.c ****         if (master_reg_0 == 0x00u)
 598              		.loc 1 744 0
 599 0004 0B46     		mov	r3, r1
 600              	.LVL26:
 601 0006 09B9     		cbnz	r1, .L84
 745:.\Generated_Source\PSoC5/CyLib.c ****         {
 746:.\Generated_Source\PSoC5/CyLib.c ****             CLKDIST_MSTR0 = 3;
 602              		.loc 1 746 0
 603 0008 0331     		adds	r1, r1, #3
 604 000a 1170     		strb	r1, [r2, #0]
 605              	.L84:
 747:.\Generated_Source\PSoC5/CyLib.c ****         }
 748:.\Generated_Source\PSoC5/CyLib.c **** 
 749:.\Generated_Source\PSoC5/CyLib.c ****     #endif  /* (CY_PSOC5A) */
 750:.\Generated_Source\PSoC5/CyLib.c **** 
 751:.\Generated_Source\PSoC5/CyLib.c ****     /* Read the current setting */
 752:.\Generated_Source\PSoC5/CyLib.c ****     master_reg_1 = CLKDIST_MSTR1;
 606              		.loc 1 752 0
 607 000c 064A     		ldr	r2, .L87+4
 753:.\Generated_Source\PSoC5/CyLib.c ****     CLKDIST_MSTR1 = (master_reg_1 & MASTER_CLK_SRC_CLEAR) | (source & ~MASTER_CLK_SRC_CLEAR);
 608              		.loc 1 753 0
 609 000e 00F00300 		and	r0, r0, #3
 610              	.LVL27:
 611              		.loc 1 752 0
ARM GAS  C:\Users\SUZUKI~1\AppData\Local\Temp\ccqvA6Qn.s 			page 25


 612 0012 1178     		ldrb	r1, [r2, #0]	@ zero_extendqisi2
 613              		.loc 1 753 0
 614 0014 01F0FC01 		and	r1, r1, #252
 615 0018 0843     		orrs	r0, r0, r1
 616 001a 1070     		strb	r0, [r2, #0]
 754:.\Generated_Source\PSoC5/CyLib.c **** 
 755:.\Generated_Source\PSoC5/CyLib.c ****     #if(CY_PSOC5A)
 756:.\Generated_Source\PSoC5/CyLib.c **** 
 757:.\Generated_Source\PSoC5/CyLib.c ****         /* Restore zero period (if desired) to the master mux clock divider */
 758:.\Generated_Source\PSoC5/CyLib.c ****         if (master_reg_0 == 0x00u)
 617              		.loc 1 758 0
 618 001c 0BB9     		cbnz	r3, .L86
 759:.\Generated_Source\PSoC5/CyLib.c ****         {
 760:.\Generated_Source\PSoC5/CyLib.c ****             CLKDIST_MSTR0 = 0;
 619              		.loc 1 760 0
 620 001e 013A     		subs	r2, r2, #1
 621 0020 1370     		strb	r3, [r2, #0]
 622              	.L86:
 623 0022 7047     		bx	lr
 624              	.L88:
 625              		.align	2
 626              	.L87:
 627 0024 04400040 		.word	1073758212
 628 0028 05400040 		.word	1073758213
 629              		.cfi_endproc
 630              	.LFE12:
 631              		.size	CyMasterClk_SetSource, .-CyMasterClk_SetSource
 632              		.section	.text.CyMasterClk_SetDivider,"ax",%progbits
 633              		.align	1
 634              		.global	CyMasterClk_SetDivider
 635              		.thumb
 636              		.thumb_func
 637              		.type	CyMasterClk_SetDivider, %function
 638              	CyMasterClk_SetDivider:
 639              	.LFB13:
 761:.\Generated_Source\PSoC5/CyLib.c ****         }
 762:.\Generated_Source\PSoC5/CyLib.c **** 
 763:.\Generated_Source\PSoC5/CyLib.c ****     #endif  /* (CY_PSOC5A) */
 764:.\Generated_Source\PSoC5/CyLib.c **** }
 765:.\Generated_Source\PSoC5/CyLib.c **** 
 766:.\Generated_Source\PSoC5/CyLib.c **** 
 767:.\Generated_Source\PSoC5/CyLib.c **** /*******************************************************************************
 768:.\Generated_Source\PSoC5/CyLib.c **** * Function Name: CyMasterClk_SetDivider
 769:.\Generated_Source\PSoC5/CyLib.c **** ********************************************************************************
 770:.\Generated_Source\PSoC5/CyLib.c **** *
 771:.\Generated_Source\PSoC5/CyLib.c **** * Summary:
 772:.\Generated_Source\PSoC5/CyLib.c **** *  Sets the divider value used to generate Master Clock.
 773:.\Generated_Source\PSoC5/CyLib.c **** *
 774:.\Generated_Source\PSoC5/CyLib.c **** * Parameters:
 775:.\Generated_Source\PSoC5/CyLib.c **** *  uint8 divider:
 776:.\Generated_Source\PSoC5/CyLib.c **** *   Valid range [0-255]. The clock will be divided by this value + 1.
 777:.\Generated_Source\PSoC5/CyLib.c **** *   For example to divide by 2 this parameter should be set to 1.
 778:.\Generated_Source\PSoC5/CyLib.c **** *
 779:.\Generated_Source\PSoC5/CyLib.c **** * Return:
 780:.\Generated_Source\PSoC5/CyLib.c **** *  None
 781:.\Generated_Source\PSoC5/CyLib.c **** *
 782:.\Generated_Source\PSoC5/CyLib.c **** * Side Effects:
ARM GAS  C:\Users\SUZUKI~1\AppData\Local\Temp\ccqvA6Qn.s 			page 26


 783:.\Generated_Source\PSoC5/CyLib.c **** *  If as result of this function execution the CPU clock frequency is increased
 784:.\Generated_Source\PSoC5/CyLib.c **** *  then the number of clock cycles the cache will wait before it samples data
 785:.\Generated_Source\PSoC5/CyLib.c **** *  coming back from Flash must be adjusted by calling CyFlash_SetWaitCycles()
 786:.\Generated_Source\PSoC5/CyLib.c **** *  with appropriate parameter. It can be optionally called if CPU clock
 787:.\Generated_Source\PSoC5/CyLib.c **** *  frequency is lowered in order to improve CPU performance.
 788:.\Generated_Source\PSoC5/CyLib.c **** *  See CyFlash_SetWaitCycles() description for more information.
 789:.\Generated_Source\PSoC5/CyLib.c **** *
 790:.\Generated_Source\PSoC5/CyLib.c **** *  When changing the Master or Bus clock divider value from div-by-n to div-by-1
 791:.\Generated_Source\PSoC5/CyLib.c **** *  the first clock cycle output after the div-by-1 can be up to 4 ns shorter
 792:.\Generated_Source\PSoC5/CyLib.c **** *  than the final/expected div-by-1 period.
 793:.\Generated_Source\PSoC5/CyLib.c **** *
 794:.\Generated_Source\PSoC5/CyLib.c **** *******************************************************************************/
 795:.\Generated_Source\PSoC5/CyLib.c **** void CyMasterClk_SetDivider(uint8 divider) 
 796:.\Generated_Source\PSoC5/CyLib.c **** {
 640              		.loc 1 796 0
 641              		.cfi_startproc
 642              		@ args = 0, pretend = 0, frame = 0
 643              		@ frame_needed = 0, uses_anonymous_args = 0
 644              		@ link register save eliminated.
 645              	.LVL28:
 797:.\Generated_Source\PSoC5/CyLib.c ****     CLKDIST_MSTR0 = divider;
 646              		.loc 1 797 0
 647 0000 014B     		ldr	r3, .L91
 648 0002 1870     		strb	r0, [r3, #0]
 798:.\Generated_Source\PSoC5/CyLib.c **** }
 649              		.loc 1 798 0
 650 0004 7047     		bx	lr
 651              	.L92:
 652 0006 00BF     		.align	2
 653              	.L91:
 654 0008 04400040 		.word	1073758212
 655              		.cfi_endproc
 656              	.LFE13:
 657              		.size	CyMasterClk_SetDivider, .-CyMasterClk_SetDivider
 658              		.section	.text.CyBusClk_Internal_SetDivider,"ax",%progbits
 659              		.align	1
 660              		.global	CyBusClk_Internal_SetDivider
 661              		.thumb
 662              		.thumb_func
 663              		.type	CyBusClk_Internal_SetDivider, %function
 664              	CyBusClk_Internal_SetDivider:
 665              	.LFB14:
 799:.\Generated_Source\PSoC5/CyLib.c **** 
 800:.\Generated_Source\PSoC5/CyLib.c **** 
 801:.\Generated_Source\PSoC5/CyLib.c **** /*******************************************************************************
 802:.\Generated_Source\PSoC5/CyLib.c **** * Function Name: CyBusClk_Internal_SetDivider
 803:.\Generated_Source\PSoC5/CyLib.c **** ********************************************************************************
 804:.\Generated_Source\PSoC5/CyLib.c **** *
 805:.\Generated_Source\PSoC5/CyLib.c **** * Summary:
 806:.\Generated_Source\PSoC5/CyLib.c **** *  Function used by CyBusClk_SetDivider(). For internal use only.
 807:.\Generated_Source\PSoC5/CyLib.c **** *
 808:.\Generated_Source\PSoC5/CyLib.c **** * Parameters:
 809:.\Generated_Source\PSoC5/CyLib.c **** *   divider: Valid range [0-65535].
 810:.\Generated_Source\PSoC5/CyLib.c **** *   The clock will be divided by this value + 1.
 811:.\Generated_Source\PSoC5/CyLib.c **** *   For example to divide by 2 this parameter should be set to 1.
 812:.\Generated_Source\PSoC5/CyLib.c **** *
 813:.\Generated_Source\PSoC5/CyLib.c **** * Return:
ARM GAS  C:\Users\SUZUKI~1\AppData\Local\Temp\ccqvA6Qn.s 			page 27


 814:.\Generated_Source\PSoC5/CyLib.c **** *  None
 815:.\Generated_Source\PSoC5/CyLib.c **** *
 816:.\Generated_Source\PSoC5/CyLib.c **** *******************************************************************************/
 817:.\Generated_Source\PSoC5/CyLib.c **** void CyBusClk_Internal_SetDivider(uint16 divider)
 818:.\Generated_Source\PSoC5/CyLib.c **** {
 666              		.loc 1 818 0
 667              		.cfi_startproc
 668              		@ args = 0, pretend = 0, frame = 0
 669              		@ frame_needed = 0, uses_anonymous_args = 0
 670              		@ link register save eliminated.
 671              	.LVL29:
 819:.\Generated_Source\PSoC5/CyLib.c ****     /* Clear all the masks (CLKDIST_AMASK, CLKDIST_DMASK) */
 820:.\Generated_Source\PSoC5/CyLib.c ****     CLKDIST_AMASK &= BUS_AMASK_CLEAR;
 672              		.loc 1 820 0
 673 0000 0A4B     		ldr	r3, .L95
 674 0002 1A78     		ldrb	r2, [r3, #0]	@ zero_extendqisi2
 675 0004 02F0F002 		and	r2, r2, #240
 676 0008 1A70     		strb	r2, [r3, #0]
 821:.\Generated_Source\PSoC5/CyLib.c ****     CLKDIST_DMASK = BUS_DMASK_CLEAR;
 677              		.loc 1 821 0
 678 000a 0022     		movs	r2, #0
 679 000c 043B     		subs	r3, r3, #4
 680 000e 1A70     		strb	r2, [r3, #0]
 822:.\Generated_Source\PSoC5/CyLib.c **** 
 823:.\Generated_Source\PSoC5/CyLib.c ****     CLKDIST_BCFG2 |= CLKDIST_WRK0_MASK_SET;
 681              		.loc 1 823 0
 682 0010 083B     		subs	r3, r3, #8
 683 0012 1A78     		ldrb	r2, [r3, #0]	@ zero_extendqisi2
 684 0014 42F08002 		orr	r2, r2, #128
 685 0018 1A70     		strb	r2, [r3, #0]
 824:.\Generated_Source\PSoC5/CyLib.c **** 
 825:.\Generated_Source\PSoC5/CyLib.c ****     /* Change both bytes before we enable/start the clock. */
 826:.\Generated_Source\PSoC5/CyLib.c ****     CY_SET_REG16(CLKDIST_WRK0_PTR, divider);
 686              		.loc 1 826 0
 687 001a 063B     		subs	r3, r3, #6
 688 001c 1880     		strh	r0, [r3, #0]	@ movhi
 827:.\Generated_Source\PSoC5/CyLib.c **** 
 828:.\Generated_Source\PSoC5/CyLib.c ****     /* Load the value, set the CLKDIST_LD LOAD bit*/
 829:.\Generated_Source\PSoC5/CyLib.c ****     CLKDIST_LD |= CLKDIST_LD_LOAD_SET;
 689              		.loc 1 829 0
 690 001e 013B     		subs	r3, r3, #1
 691 0020 1A78     		ldrb	r2, [r3, #0]	@ zero_extendqisi2
 692 0022 42F00102 		orr	r2, r2, #1
 693 0026 1A70     		strb	r2, [r3, #0]
 830:.\Generated_Source\PSoC5/CyLib.c **** }
 694              		.loc 1 830 0
 695 0028 7047     		bx	lr
 696              	.L96:
 697 002a 00BF     		.align	2
 698              	.L95:
 699 002c 14400040 		.word	1073758228
 700              		.cfi_endproc
 701              	.LFE14:
 702              		.size	CyBusClk_Internal_SetDivider, .-CyBusClk_Internal_SetDivider
 703              		.section	.text.CyBusClk_SetDivider,"ax",%progbits
 704              		.align	1
 705              		.global	CyBusClk_SetDivider
ARM GAS  C:\Users\SUZUKI~1\AppData\Local\Temp\ccqvA6Qn.s 			page 28


 706              		.thumb
 707              		.thumb_func
 708              		.type	CyBusClk_SetDivider, %function
 709              	CyBusClk_SetDivider:
 710              	.LFB15:
 831:.\Generated_Source\PSoC5/CyLib.c **** 
 832:.\Generated_Source\PSoC5/CyLib.c **** 
 833:.\Generated_Source\PSoC5/CyLib.c **** /*******************************************************************************
 834:.\Generated_Source\PSoC5/CyLib.c **** * Function Name: CyBusClk_SetDivider
 835:.\Generated_Source\PSoC5/CyLib.c **** ********************************************************************************
 836:.\Generated_Source\PSoC5/CyLib.c **** *
 837:.\Generated_Source\PSoC5/CyLib.c **** * Summary:
 838:.\Generated_Source\PSoC5/CyLib.c **** *  Sets the divider value used to generate Bus Clock.
 839:.\Generated_Source\PSoC5/CyLib.c **** *
 840:.\Generated_Source\PSoC5/CyLib.c **** * Parameters:
 841:.\Generated_Source\PSoC5/CyLib.c **** *  divider: Valid range [0-65535]. The clock will be divided by this value + 1.
 842:.\Generated_Source\PSoC5/CyLib.c **** *  For example to divide by 2 this parameter should be set to 1.
 843:.\Generated_Source\PSoC5/CyLib.c **** *
 844:.\Generated_Source\PSoC5/CyLib.c **** * Return:
 845:.\Generated_Source\PSoC5/CyLib.c **** *  None
 846:.\Generated_Source\PSoC5/CyLib.c **** *
 847:.\Generated_Source\PSoC5/CyLib.c **** * Side Effects:
 848:.\Generated_Source\PSoC5/CyLib.c **** *  If as result of this function execution the CPU clock frequency is increased
 849:.\Generated_Source\PSoC5/CyLib.c **** *  then the number of clock cycles the cache will wait before it samples data
 850:.\Generated_Source\PSoC5/CyLib.c **** *  coming back from Flash must be adjusted by calling CyFlash_SetWaitCycles()
 851:.\Generated_Source\PSoC5/CyLib.c **** *  with appropriate parameter. It can be optionally called if CPU clock
 852:.\Generated_Source\PSoC5/CyLib.c **** *  frequency is lowered in order to improve CPU performance.
 853:.\Generated_Source\PSoC5/CyLib.c **** *  See CyFlash_SetWaitCycles() description for more information.
 854:.\Generated_Source\PSoC5/CyLib.c **** *
 855:.\Generated_Source\PSoC5/CyLib.c **** *******************************************************************************/
 856:.\Generated_Source\PSoC5/CyLib.c **** void CyBusClk_SetDivider(uint16 divider) 
 857:.\Generated_Source\PSoC5/CyLib.c **** {
 711              		.loc 1 857 0
 712              		.cfi_startproc
 713              		@ args = 0, pretend = 0, frame = 0
 714              		@ frame_needed = 0, uses_anonymous_args = 0
 715              	.LVL30:
 858:.\Generated_Source\PSoC5/CyLib.c ****     uint16 current_busclk_divider;
 859:.\Generated_Source\PSoC5/CyLib.c ****     uint8 current_masterclk_divider;
 860:.\Generated_Source\PSoC5/CyLib.c **** 
 861:.\Generated_Source\PSoC5/CyLib.c ****     /* Bus clock divider value */
 862:.\Generated_Source\PSoC5/CyLib.c ****     current_busclk_divider = CY_GET_REG16(CLKDIST_BCFG0_PTR);
 716              		.loc 1 862 0
 717 0000 144B     		ldr	r3, .L104
 718              		.loc 1 857 0
 719 0002 70B5     		push	{r4, r5, r6, lr}
 720              	.LCFI2:
 721              		.cfi_def_cfa_offset 16
 722              		.loc 1 862 0
 723 0004 1B88     		ldrh	r3, [r3, #0]
 863:.\Generated_Source\PSoC5/CyLib.c **** 
 864:.\Generated_Source\PSoC5/CyLib.c ****     /* Work around to set the bus clock divider value */
 865:.\Generated_Source\PSoC5/CyLib.c ****     if ((divider == 0) || (current_busclk_divider == 0))
 724              		.loc 1 865 0
 725 0006 0446     		mov	r4, r0
 726              		.cfi_offset 14, -4
 727              		.cfi_offset 6, -8
ARM GAS  C:\Users\SUZUKI~1\AppData\Local\Temp\ccqvA6Qn.s 			page 29


 728              		.cfi_offset 5, -12
 729              		.cfi_offset 4, -16
 730              		.loc 1 862 0
 731 0008 9BB2     		uxth	r3, r3
 732              	.LVL31:
 733              		.loc 1 865 0
 734 000a 00B1     		cbz	r0, .L98
 735 000c EBB9     		cbnz	r3, .L99
 736              	.L98:
 866:.\Generated_Source\PSoC5/CyLib.c ****     {
 867:.\Generated_Source\PSoC5/CyLib.c ****         /* Save away the master clock divider value */
 868:.\Generated_Source\PSoC5/CyLib.c ****         current_masterclk_divider = CY_GET_REG8(CLKDIST_MSTR0_PTR);
 737              		.loc 1 868 0
 738 000e 124B     		ldr	r3, .L104+4
 739              	.LVL32:
 740 0010 1D78     		ldrb	r5, [r3, #0]	@ zero_extendqisi2
 869:.\Generated_Source\PSoC5/CyLib.c ****         if (current_masterclk_divider < MASTERCLK_DIVIDER_VALUE)
 741              		.loc 1 869 0
 742 0012 062D     		cmp	r5, #6
 743              	.LVL33:
 744 0014 02D8     		bhi	.L100
 870:.\Generated_Source\PSoC5/CyLib.c ****         {
 871:.\Generated_Source\PSoC5/CyLib.c ****             /* Set master clock divider to 7 */
 872:.\Generated_Source\PSoC5/CyLib.c ****             CyMasterClk_SetDivider(MASTERCLK_DIVIDER_VALUE);
 745              		.loc 1 872 0
 746 0016 0720     		movs	r0, #7
 747              	.LVL34:
 748 0018 FFF7FEFF 		bl	CyMasterClk_SetDivider
 749              	.LVL35:
 750              	.L100:
 873:.\Generated_Source\PSoC5/CyLib.c ****         }
 874:.\Generated_Source\PSoC5/CyLib.c **** 
 875:.\Generated_Source\PSoC5/CyLib.c ****         if (divider == 0)
 751              		.loc 1 875 0
 752 001c 44B9     		cbnz	r4, .L101
 876:.\Generated_Source\PSoC5/CyLib.c ****         {
 877:.\Generated_Source\PSoC5/CyLib.c ****             /* Set the SSS bit and the divider register desired value */
 878:.\Generated_Source\PSoC5/CyLib.c ****             CLKDIST_BCFG2 |= CLKDIST_BCFG2_SSS_SET;
 753              		.loc 1 878 0
 754 001e 0F4B     		ldr	r3, .L104+8
 879:.\Generated_Source\PSoC5/CyLib.c ****             CyBusClk_Internal_SetDivider(divider);
 755              		.loc 1 879 0
 756 0020 2046     		mov	r0, r4
 757              		.loc 1 878 0
 758 0022 1A78     		ldrb	r2, [r3, #0]	@ zero_extendqisi2
 759 0024 42F04002 		orr	r2, r2, #64
 760 0028 1A70     		strb	r2, [r3, #0]
 761              		.loc 1 879 0
 762 002a FFF7FEFF 		bl	CyBusClk_Internal_SetDivider
 763 002e 07E0     		b	.L102
 764              	.LVL36:
 765              	.L101:
 880:.\Generated_Source\PSoC5/CyLib.c ****         }
 881:.\Generated_Source\PSoC5/CyLib.c ****         else
 882:.\Generated_Source\PSoC5/CyLib.c ****         {
 883:.\Generated_Source\PSoC5/CyLib.c ****             CyBusClk_Internal_SetDivider(divider);
 766              		.loc 1 883 0
ARM GAS  C:\Users\SUZUKI~1\AppData\Local\Temp\ccqvA6Qn.s 			page 30


 767 0030 2046     		mov	r0, r4
 768 0032 FFF7FEFF 		bl	CyBusClk_Internal_SetDivider
 884:.\Generated_Source\PSoC5/CyLib.c ****             CLKDIST_BCFG2 &= ~CLKDIST_BCFG2_SSS_SET;
 769              		.loc 1 884 0
 770 0036 094B     		ldr	r3, .L104+8
 771 0038 1A78     		ldrb	r2, [r3, #0]	@ zero_extendqisi2
 772 003a 02F0BF02 		and	r2, r2, #191
 773 003e 1A70     		strb	r2, [r3, #0]
 774              	.L102:
 885:.\Generated_Source\PSoC5/CyLib.c ****         }
 886:.\Generated_Source\PSoC5/CyLib.c **** 
 887:.\Generated_Source\PSoC5/CyLib.c ****         /* Restore the master clock */
 888:.\Generated_Source\PSoC5/CyLib.c ****         CyMasterClk_SetDivider(current_masterclk_divider);
 775              		.loc 1 888 0
 776 0040 2846     		mov	r0, r5
 889:.\Generated_Source\PSoC5/CyLib.c ****     }
 890:.\Generated_Source\PSoC5/CyLib.c ****     else
 891:.\Generated_Source\PSoC5/CyLib.c ****     {
 892:.\Generated_Source\PSoC5/CyLib.c ****         CyBusClk_Internal_SetDivider(divider);
 893:.\Generated_Source\PSoC5/CyLib.c ****     }
 894:.\Generated_Source\PSoC5/CyLib.c **** }
 777              		.loc 1 894 0
 778 0042 BDE87040 		pop	{r4, r5, r6, lr}
 779              		.loc 1 888 0
 780 0046 FFF7FEBF 		b	CyMasterClk_SetDivider
 781              	.LVL37:
 782              	.L99:
 783              		.loc 1 894 0
 784 004a BDE87040 		pop	{r4, r5, r6, lr}
 785              		.loc 1 892 0
 786 004e FFF7FEBF 		b	CyBusClk_Internal_SetDivider
 787              	.LVL38:
 788              	.L105:
 789 0052 00BF     		.align	2
 790              	.L104:
 791 0054 06400040 		.word	1073758214
 792 0058 04400040 		.word	1073758212
 793 005c 08400040 		.word	1073758216
 794              		.cfi_endproc
 795              	.LFE15:
 796              		.size	CyBusClk_SetDivider, .-CyBusClk_SetDivider
 797              		.section	.text.CyUsbClk_SetSource,"ax",%progbits
 798              		.align	1
 799              		.global	CyUsbClk_SetSource
 800              		.thumb
 801              		.thumb_func
 802              		.type	CyUsbClk_SetSource, %function
 803              	CyUsbClk_SetSource:
 804              	.LFB16:
 895:.\Generated_Source\PSoC5/CyLib.c **** 
 896:.\Generated_Source\PSoC5/CyLib.c **** 
 897:.\Generated_Source\PSoC5/CyLib.c **** #if(CY_PSOC3)
 898:.\Generated_Source\PSoC5/CyLib.c **** 
 899:.\Generated_Source\PSoC5/CyLib.c ****     /*******************************************************************************
 900:.\Generated_Source\PSoC5/CyLib.c ****     * Function Name: CyCpuClk_SetDivider
 901:.\Generated_Source\PSoC5/CyLib.c ****     ********************************************************************************
 902:.\Generated_Source\PSoC5/CyLib.c ****     *
ARM GAS  C:\Users\SUZUKI~1\AppData\Local\Temp\ccqvA6Qn.s 			page 31


 903:.\Generated_Source\PSoC5/CyLib.c ****     * Summary:
 904:.\Generated_Source\PSoC5/CyLib.c ****     *  Sets the divider value used to generate the CPU Clock. Only applicable for
 905:.\Generated_Source\PSoC5/CyLib.c ****     *  PSoC 3 parts.
 906:.\Generated_Source\PSoC5/CyLib.c ****     *
 907:.\Generated_Source\PSoC5/CyLib.c ****     * Parameters:
 908:.\Generated_Source\PSoC5/CyLib.c ****     *  divider: Valid range [0-15]. The clock will be divided by this value + 1.
 909:.\Generated_Source\PSoC5/CyLib.c ****     *  For example to divide by 2 this parameter should be set to 1.
 910:.\Generated_Source\PSoC5/CyLib.c ****     *
 911:.\Generated_Source\PSoC5/CyLib.c ****     * Return:
 912:.\Generated_Source\PSoC5/CyLib.c ****     *  None
 913:.\Generated_Source\PSoC5/CyLib.c ****     *
 914:.\Generated_Source\PSoC5/CyLib.c ****     * Side Effects:
 915:.\Generated_Source\PSoC5/CyLib.c ****     *  If as result of this function execution the CPU clock frequency is increased
 916:.\Generated_Source\PSoC5/CyLib.c ****     *  then the number of clock cycles the cache will wait before it samples data
 917:.\Generated_Source\PSoC5/CyLib.c ****     *  coming back from Flash must be adjusted by calling CyFlash_SetWaitCycles()
 918:.\Generated_Source\PSoC5/CyLib.c ****     *  with appropriate parameter. It can be optionally called if CPU clock
 919:.\Generated_Source\PSoC5/CyLib.c ****     *  frequency is lowered in order to improve CPU performance.
 920:.\Generated_Source\PSoC5/CyLib.c ****     *  See CyFlash_SetWaitCycles() description for more information.
 921:.\Generated_Source\PSoC5/CyLib.c ****     *
 922:.\Generated_Source\PSoC5/CyLib.c ****     *******************************************************************************/
 923:.\Generated_Source\PSoC5/CyLib.c ****     void CyCpuClk_SetDivider(uint8 divider) 
 924:.\Generated_Source\PSoC5/CyLib.c ****     {
 925:.\Generated_Source\PSoC5/CyLib.c ****             CLKDIST_MSTR1 = (CLKDIST_MSTR1 & CLKDIST_MSTR1_DIV_CLEAR) |
 926:.\Generated_Source\PSoC5/CyLib.c ****                                 (divider << CLKDIST_DIV_POSITION);
 927:.\Generated_Source\PSoC5/CyLib.c ****     }
 928:.\Generated_Source\PSoC5/CyLib.c **** 
 929:.\Generated_Source\PSoC5/CyLib.c **** #endif /* (CY_PSOC3) */
 930:.\Generated_Source\PSoC5/CyLib.c **** 
 931:.\Generated_Source\PSoC5/CyLib.c **** 
 932:.\Generated_Source\PSoC5/CyLib.c **** /*******************************************************************************
 933:.\Generated_Source\PSoC5/CyLib.c **** * Function Name: CyUsbClk_SetSource
 934:.\Generated_Source\PSoC5/CyLib.c **** ********************************************************************************
 935:.\Generated_Source\PSoC5/CyLib.c **** *
 936:.\Generated_Source\PSoC5/CyLib.c **** * Summary:
 937:.\Generated_Source\PSoC5/CyLib.c **** *  Sets the source of the USB clock.
 938:.\Generated_Source\PSoC5/CyLib.c **** *
 939:.\Generated_Source\PSoC5/CyLib.c **** * Parameters:
 940:.\Generated_Source\PSoC5/CyLib.c **** *  source: One of the four available USB clock sources
 941:.\Generated_Source\PSoC5/CyLib.c **** *             USB_CLK_IMO2X     - IMO 2x
 942:.\Generated_Source\PSoC5/CyLib.c **** *             USB_CLK_IMO       - IMO
 943:.\Generated_Source\PSoC5/CyLib.c **** *             USB_CLK_PLL       - PLL
 944:.\Generated_Source\PSoC5/CyLib.c **** *             USB_CLK_DSI       - DSI
 945:.\Generated_Source\PSoC5/CyLib.c **** *
 946:.\Generated_Source\PSoC5/CyLib.c **** * Return:
 947:.\Generated_Source\PSoC5/CyLib.c **** *  None
 948:.\Generated_Source\PSoC5/CyLib.c **** *
 949:.\Generated_Source\PSoC5/CyLib.c **** *******************************************************************************/
 950:.\Generated_Source\PSoC5/CyLib.c **** void CyUsbClk_SetSource(uint8 source) 
 951:.\Generated_Source\PSoC5/CyLib.c **** {
 805              		.loc 1 951 0
 806              		.cfi_startproc
 807              		@ args = 0, pretend = 0, frame = 0
 808              		@ frame_needed = 0, uses_anonymous_args = 0
 809              		@ link register save eliminated.
 810              	.LVL39:
 952:.\Generated_Source\PSoC5/CyLib.c ****     CLKDIST_UCFG = (CLKDIST_UCFG & ~USB_CLKDIST_CONFIG_MASK) |
 811              		.loc 1 952 0
ARM GAS  C:\Users\SUZUKI~1\AppData\Local\Temp\ccqvA6Qn.s 			page 32


 812 0000 044B     		ldr	r3, .L108
 813 0002 00F00300 		and	r0, r0, #3
 814              	.LVL40:
 815 0006 1A78     		ldrb	r2, [r3, #0]	@ zero_extendqisi2
 816 0008 02F0FC02 		and	r2, r2, #252
 817 000c 40EA0202 		orr	r2, r0, r2
 818 0010 1A70     		strb	r2, [r3, #0]
 953:.\Generated_Source\PSoC5/CyLib.c ****                         (USB_CLKDIST_CONFIG_MASK & source);
 954:.\Generated_Source\PSoC5/CyLib.c **** }
 819              		.loc 1 954 0
 820 0012 7047     		bx	lr
 821              	.L109:
 822              		.align	2
 823              	.L108:
 824 0014 09400040 		.word	1073758217
 825              		.cfi_endproc
 826              	.LFE16:
 827              		.size	CyUsbClk_SetSource, .-CyUsbClk_SetSource
 828              		.section	.text.CyILO_Start1K,"ax",%progbits
 829              		.align	1
 830              		.global	CyILO_Start1K
 831              		.thumb
 832              		.thumb_func
 833              		.type	CyILO_Start1K, %function
 834              	CyILO_Start1K:
 835              	.LFB17:
 955:.\Generated_Source\PSoC5/CyLib.c **** 
 956:.\Generated_Source\PSoC5/CyLib.c **** 
 957:.\Generated_Source\PSoC5/CyLib.c **** /*******************************************************************************
 958:.\Generated_Source\PSoC5/CyLib.c **** * Function Name: CyILO_Start1K
 959:.\Generated_Source\PSoC5/CyLib.c **** ********************************************************************************
 960:.\Generated_Source\PSoC5/CyLib.c **** *
 961:.\Generated_Source\PSoC5/CyLib.c **** * Summary:
 962:.\Generated_Source\PSoC5/CyLib.c **** *  Enables the ILO 1 KHz oscillator.
 963:.\Generated_Source\PSoC5/CyLib.c **** *
 964:.\Generated_Source\PSoC5/CyLib.c **** *  Note The ILO 1 KHz oscillator is always enabled by default, regardless of the
 965:.\Generated_Source\PSoC5/CyLib.c **** *  selection in the Clock Editor. Therefore, this API is only needed if the
 966:.\Generated_Source\PSoC5/CyLib.c **** *  oscillator was turned off manually.
 967:.\Generated_Source\PSoC5/CyLib.c **** *
 968:.\Generated_Source\PSoC5/CyLib.c **** * Parameters:
 969:.\Generated_Source\PSoC5/CyLib.c **** *  None
 970:.\Generated_Source\PSoC5/CyLib.c **** *
 971:.\Generated_Source\PSoC5/CyLib.c **** * Return:
 972:.\Generated_Source\PSoC5/CyLib.c **** *  None
 973:.\Generated_Source\PSoC5/CyLib.c **** *
 974:.\Generated_Source\PSoC5/CyLib.c **** *******************************************************************************/
 975:.\Generated_Source\PSoC5/CyLib.c **** void CyILO_Start1K(void) 
 976:.\Generated_Source\PSoC5/CyLib.c **** {
 836              		.loc 1 976 0
 837              		.cfi_startproc
 838              		@ args = 0, pretend = 0, frame = 0
 839              		@ frame_needed = 0, uses_anonymous_args = 0
 840              		@ link register save eliminated.
 977:.\Generated_Source\PSoC5/CyLib.c ****     /* Set the bit 1 of ILO RS */
 978:.\Generated_Source\PSoC5/CyLib.c ****     SLOWCLK_ILO_CR0 |= ILO_CONTROL_1KHZ_ON;
 841              		.loc 1 978 0
 842 0000 024B     		ldr	r3, .L112
ARM GAS  C:\Users\SUZUKI~1\AppData\Local\Temp\ccqvA6Qn.s 			page 33


 843 0002 1A78     		ldrb	r2, [r3, #0]	@ zero_extendqisi2
 844 0004 42F00202 		orr	r2, r2, #2
 845 0008 1A70     		strb	r2, [r3, #0]
 979:.\Generated_Source\PSoC5/CyLib.c **** }
 846              		.loc 1 979 0
 847 000a 7047     		bx	lr
 848              	.L113:
 849              		.align	2
 850              	.L112:
 851 000c 00430040 		.word	1073758976
 852              		.cfi_endproc
 853              	.LFE17:
 854              		.size	CyILO_Start1K, .-CyILO_Start1K
 855              		.section	.text.CyILO_Stop1K,"ax",%progbits
 856              		.align	1
 857              		.global	CyILO_Stop1K
 858              		.thumb
 859              		.thumb_func
 860              		.type	CyILO_Stop1K, %function
 861              	CyILO_Stop1K:
 862              	.LFB18:
 980:.\Generated_Source\PSoC5/CyLib.c **** 
 981:.\Generated_Source\PSoC5/CyLib.c **** 
 982:.\Generated_Source\PSoC5/CyLib.c **** /*******************************************************************************
 983:.\Generated_Source\PSoC5/CyLib.c **** * Function Name: CyILO_Stop1K
 984:.\Generated_Source\PSoC5/CyLib.c **** ********************************************************************************
 985:.\Generated_Source\PSoC5/CyLib.c **** *
 986:.\Generated_Source\PSoC5/CyLib.c **** * Summary:
 987:.\Generated_Source\PSoC5/CyLib.c **** *  Disables the ILO 1 KHz oscillator.
 988:.\Generated_Source\PSoC5/CyLib.c **** *
 989:.\Generated_Source\PSoC5/CyLib.c **** *  Note The ILO 1 KHz oscillator must be enabled if Sleep or Hibernate low power
 990:.\Generated_Source\PSoC5/CyLib.c **** *  mode APIs are expected to be used. For more information, refer to the Power
 991:.\Generated_Source\PSoC5/CyLib.c **** *  Management section of this document.
 992:.\Generated_Source\PSoC5/CyLib.c **** *
 993:.\Generated_Source\PSoC5/CyLib.c **** * Parameters:
 994:.\Generated_Source\PSoC5/CyLib.c **** *  None
 995:.\Generated_Source\PSoC5/CyLib.c **** *
 996:.\Generated_Source\PSoC5/CyLib.c **** * Return:
 997:.\Generated_Source\PSoC5/CyLib.c **** *  None
 998:.\Generated_Source\PSoC5/CyLib.c **** *
 999:.\Generated_Source\PSoC5/CyLib.c **** * Side Effects:
1000:.\Generated_Source\PSoC5/CyLib.c **** *  PSoC5: Stopping the ILO 1 kHz could break the active WDT functionality.
1001:.\Generated_Source\PSoC5/CyLib.c **** *
1002:.\Generated_Source\PSoC5/CyLib.c **** *******************************************************************************/
1003:.\Generated_Source\PSoC5/CyLib.c **** void CyILO_Stop1K(void) 
1004:.\Generated_Source\PSoC5/CyLib.c **** {
 863              		.loc 1 1004 0
 864              		.cfi_startproc
 865              		@ args = 0, pretend = 0, frame = 0
 866              		@ frame_needed = 0, uses_anonymous_args = 0
 867              		@ link register save eliminated.
1005:.\Generated_Source\PSoC5/CyLib.c ****     /* Clear the bit 1 of ILO RS */
1006:.\Generated_Source\PSoC5/CyLib.c ****     SLOWCLK_ILO_CR0 &= ~ILO_CONTROL_1KHZ_ON;
 868              		.loc 1 1006 0
 869 0000 024B     		ldr	r3, .L116
 870 0002 1A78     		ldrb	r2, [r3, #0]	@ zero_extendqisi2
 871 0004 02F0FD02 		and	r2, r2, #253
ARM GAS  C:\Users\SUZUKI~1\AppData\Local\Temp\ccqvA6Qn.s 			page 34


 872 0008 1A70     		strb	r2, [r3, #0]
1007:.\Generated_Source\PSoC5/CyLib.c **** }
 873              		.loc 1 1007 0
 874 000a 7047     		bx	lr
 875              	.L117:
 876              		.align	2
 877              	.L116:
 878 000c 00430040 		.word	1073758976
 879              		.cfi_endproc
 880              	.LFE18:
 881              		.size	CyILO_Stop1K, .-CyILO_Stop1K
 882              		.section	.text.CyILO_Start100K,"ax",%progbits
 883              		.align	1
 884              		.global	CyILO_Start100K
 885              		.thumb
 886              		.thumb_func
 887              		.type	CyILO_Start100K, %function
 888              	CyILO_Start100K:
 889              	.LFB19:
1008:.\Generated_Source\PSoC5/CyLib.c **** 
1009:.\Generated_Source\PSoC5/CyLib.c **** 
1010:.\Generated_Source\PSoC5/CyLib.c **** /*******************************************************************************
1011:.\Generated_Source\PSoC5/CyLib.c **** * Function Name: CyILO_Start100K
1012:.\Generated_Source\PSoC5/CyLib.c **** ********************************************************************************
1013:.\Generated_Source\PSoC5/CyLib.c **** *
1014:.\Generated_Source\PSoC5/CyLib.c **** * Summary:
1015:.\Generated_Source\PSoC5/CyLib.c **** *  Enables the ILO 100 KHz oscillator.
1016:.\Generated_Source\PSoC5/CyLib.c **** *
1017:.\Generated_Source\PSoC5/CyLib.c **** * Parameters:
1018:.\Generated_Source\PSoC5/CyLib.c **** *  None
1019:.\Generated_Source\PSoC5/CyLib.c **** *
1020:.\Generated_Source\PSoC5/CyLib.c **** * Return:
1021:.\Generated_Source\PSoC5/CyLib.c **** *  None
1022:.\Generated_Source\PSoC5/CyLib.c **** *
1023:.\Generated_Source\PSoC5/CyLib.c **** *******************************************************************************/
1024:.\Generated_Source\PSoC5/CyLib.c **** void CyILO_Start100K(void) 
1025:.\Generated_Source\PSoC5/CyLib.c **** {
 890              		.loc 1 1025 0
 891              		.cfi_startproc
 892              		@ args = 0, pretend = 0, frame = 0
 893              		@ frame_needed = 0, uses_anonymous_args = 0
 894              		@ link register save eliminated.
1026:.\Generated_Source\PSoC5/CyLib.c ****     /* Set the bit 2 of ILO RS */
1027:.\Generated_Source\PSoC5/CyLib.c ****     SLOWCLK_ILO_CR0 |= ILO_CONTROL_100KHZ_ON;
 895              		.loc 1 1027 0
 896 0000 024B     		ldr	r3, .L120
 897 0002 1A78     		ldrb	r2, [r3, #0]	@ zero_extendqisi2
 898 0004 42F00402 		orr	r2, r2, #4
 899 0008 1A70     		strb	r2, [r3, #0]
1028:.\Generated_Source\PSoC5/CyLib.c **** }
 900              		.loc 1 1028 0
 901 000a 7047     		bx	lr
 902              	.L121:
 903              		.align	2
 904              	.L120:
 905 000c 00430040 		.word	1073758976
 906              		.cfi_endproc
ARM GAS  C:\Users\SUZUKI~1\AppData\Local\Temp\ccqvA6Qn.s 			page 35


 907              	.LFE19:
 908              		.size	CyILO_Start100K, .-CyILO_Start100K
 909              		.section	.text.CyILO_Stop100K,"ax",%progbits
 910              		.align	1
 911              		.global	CyILO_Stop100K
 912              		.thumb
 913              		.thumb_func
 914              		.type	CyILO_Stop100K, %function
 915              	CyILO_Stop100K:
 916              	.LFB20:
1029:.\Generated_Source\PSoC5/CyLib.c **** 
1030:.\Generated_Source\PSoC5/CyLib.c **** 
1031:.\Generated_Source\PSoC5/CyLib.c **** /*******************************************************************************
1032:.\Generated_Source\PSoC5/CyLib.c **** * Function Name: CyILO_Stop100K
1033:.\Generated_Source\PSoC5/CyLib.c **** ********************************************************************************
1034:.\Generated_Source\PSoC5/CyLib.c **** *
1035:.\Generated_Source\PSoC5/CyLib.c **** * Summary:
1036:.\Generated_Source\PSoC5/CyLib.c **** *  Disables the ILO 100 KHz oscillator.
1037:.\Generated_Source\PSoC5/CyLib.c **** *
1038:.\Generated_Source\PSoC5/CyLib.c **** * Parameters:
1039:.\Generated_Source\PSoC5/CyLib.c **** *  None
1040:.\Generated_Source\PSoC5/CyLib.c **** *
1041:.\Generated_Source\PSoC5/CyLib.c **** * Return:
1042:.\Generated_Source\PSoC5/CyLib.c **** *  None
1043:.\Generated_Source\PSoC5/CyLib.c **** *
1044:.\Generated_Source\PSoC5/CyLib.c **** *******************************************************************************/
1045:.\Generated_Source\PSoC5/CyLib.c **** void CyILO_Stop100K(void) 
1046:.\Generated_Source\PSoC5/CyLib.c **** {
 917              		.loc 1 1046 0
 918              		.cfi_startproc
 919              		@ args = 0, pretend = 0, frame = 0
 920              		@ frame_needed = 0, uses_anonymous_args = 0
 921              		@ link register save eliminated.
1047:.\Generated_Source\PSoC5/CyLib.c ****     /* Clear the bit 2 of ILO RS */
1048:.\Generated_Source\PSoC5/CyLib.c ****     SLOWCLK_ILO_CR0 &= ~ILO_CONTROL_100KHZ_ON;
 922              		.loc 1 1048 0
 923 0000 024B     		ldr	r3, .L124
 924 0002 1A78     		ldrb	r2, [r3, #0]	@ zero_extendqisi2
 925 0004 02F0FB02 		and	r2, r2, #251
 926 0008 1A70     		strb	r2, [r3, #0]
1049:.\Generated_Source\PSoC5/CyLib.c **** }
 927              		.loc 1 1049 0
 928 000a 7047     		bx	lr
 929              	.L125:
 930              		.align	2
 931              	.L124:
 932 000c 00430040 		.word	1073758976
 933              		.cfi_endproc
 934              	.LFE20:
 935              		.size	CyILO_Stop100K, .-CyILO_Stop100K
 936              		.section	.text.CyILO_Enable33K,"ax",%progbits
 937              		.align	1
 938              		.global	CyILO_Enable33K
 939              		.thumb
 940              		.thumb_func
 941              		.type	CyILO_Enable33K, %function
 942              	CyILO_Enable33K:
ARM GAS  C:\Users\SUZUKI~1\AppData\Local\Temp\ccqvA6Qn.s 			page 36


 943              	.LFB21:
1050:.\Generated_Source\PSoC5/CyLib.c **** 
1051:.\Generated_Source\PSoC5/CyLib.c **** 
1052:.\Generated_Source\PSoC5/CyLib.c **** /*******************************************************************************
1053:.\Generated_Source\PSoC5/CyLib.c **** * Function Name: CyILO_Enable33K
1054:.\Generated_Source\PSoC5/CyLib.c **** ********************************************************************************
1055:.\Generated_Source\PSoC5/CyLib.c **** *
1056:.\Generated_Source\PSoC5/CyLib.c **** * Summary:
1057:.\Generated_Source\PSoC5/CyLib.c **** *  Enables the ILO 33 KHz divider.
1058:.\Generated_Source\PSoC5/CyLib.c **** *
1059:.\Generated_Source\PSoC5/CyLib.c **** *  Note that the 33 KHz clock is generated from the 100 KHz oscillator,
1060:.\Generated_Source\PSoC5/CyLib.c **** *  so it must also be running in order to generate the 33 KHz output.
1061:.\Generated_Source\PSoC5/CyLib.c **** *
1062:.\Generated_Source\PSoC5/CyLib.c **** * Parameters:
1063:.\Generated_Source\PSoC5/CyLib.c **** *  None
1064:.\Generated_Source\PSoC5/CyLib.c **** *
1065:.\Generated_Source\PSoC5/CyLib.c **** * Return:
1066:.\Generated_Source\PSoC5/CyLib.c **** *  None
1067:.\Generated_Source\PSoC5/CyLib.c **** *
1068:.\Generated_Source\PSoC5/CyLib.c **** *******************************************************************************/
1069:.\Generated_Source\PSoC5/CyLib.c **** void CyILO_Enable33K(void) 
1070:.\Generated_Source\PSoC5/CyLib.c **** {
 944              		.loc 1 1070 0
 945              		.cfi_startproc
 946              		@ args = 0, pretend = 0, frame = 0
 947              		@ frame_needed = 0, uses_anonymous_args = 0
 948              		@ link register save eliminated.
1071:.\Generated_Source\PSoC5/CyLib.c ****     /* Set the bit 5 of ILO RS */
1072:.\Generated_Source\PSoC5/CyLib.c ****     SLOWCLK_ILO_CR0 |= ILO_CONTROL_33KHZ_ON;
 949              		.loc 1 1072 0
 950 0000 024B     		ldr	r3, .L128
 951 0002 1A78     		ldrb	r2, [r3, #0]	@ zero_extendqisi2
 952 0004 42F02002 		orr	r2, r2, #32
 953 0008 1A70     		strb	r2, [r3, #0]
1073:.\Generated_Source\PSoC5/CyLib.c **** }
 954              		.loc 1 1073 0
 955 000a 7047     		bx	lr
 956              	.L129:
 957              		.align	2
 958              	.L128:
 959 000c 00430040 		.word	1073758976
 960              		.cfi_endproc
 961              	.LFE21:
 962              		.size	CyILO_Enable33K, .-CyILO_Enable33K
 963              		.section	.text.CyILO_Disable33K,"ax",%progbits
 964              		.align	1
 965              		.global	CyILO_Disable33K
 966              		.thumb
 967              		.thumb_func
 968              		.type	CyILO_Disable33K, %function
 969              	CyILO_Disable33K:
 970              	.LFB22:
1074:.\Generated_Source\PSoC5/CyLib.c **** 
1075:.\Generated_Source\PSoC5/CyLib.c **** 
1076:.\Generated_Source\PSoC5/CyLib.c **** /*******************************************************************************
1077:.\Generated_Source\PSoC5/CyLib.c **** * Function Name: CyILO_Disable33K
1078:.\Generated_Source\PSoC5/CyLib.c **** ********************************************************************************
ARM GAS  C:\Users\SUZUKI~1\AppData\Local\Temp\ccqvA6Qn.s 			page 37


1079:.\Generated_Source\PSoC5/CyLib.c **** *
1080:.\Generated_Source\PSoC5/CyLib.c **** * Summary:
1081:.\Generated_Source\PSoC5/CyLib.c **** *  Disables the ILO 33 KHz divider.
1082:.\Generated_Source\PSoC5/CyLib.c **** *
1083:.\Generated_Source\PSoC5/CyLib.c **** *  Note that the 33 KHz clock is generated from the 100 KHz oscillator, but this
1084:.\Generated_Source\PSoC5/CyLib.c **** *  API does not disable the 100 KHz clock.
1085:.\Generated_Source\PSoC5/CyLib.c **** *
1086:.\Generated_Source\PSoC5/CyLib.c **** * Parameters:
1087:.\Generated_Source\PSoC5/CyLib.c **** *  None
1088:.\Generated_Source\PSoC5/CyLib.c **** *
1089:.\Generated_Source\PSoC5/CyLib.c **** * Return:
1090:.\Generated_Source\PSoC5/CyLib.c **** *  None
1091:.\Generated_Source\PSoC5/CyLib.c **** *
1092:.\Generated_Source\PSoC5/CyLib.c **** *******************************************************************************/
1093:.\Generated_Source\PSoC5/CyLib.c **** void CyILO_Disable33K(void) 
1094:.\Generated_Source\PSoC5/CyLib.c **** {
 971              		.loc 1 1094 0
 972              		.cfi_startproc
 973              		@ args = 0, pretend = 0, frame = 0
 974              		@ frame_needed = 0, uses_anonymous_args = 0
 975              		@ link register save eliminated.
1095:.\Generated_Source\PSoC5/CyLib.c ****     /* Clear the bit 5 of ILO RS */
1096:.\Generated_Source\PSoC5/CyLib.c ****     SLOWCLK_ILO_CR0 &= ~ILO_CONTROL_33KHZ_ON;
 976              		.loc 1 1096 0
 977 0000 024B     		ldr	r3, .L132
 978 0002 1A78     		ldrb	r2, [r3, #0]	@ zero_extendqisi2
 979 0004 02F0DF02 		and	r2, r2, #223
 980 0008 1A70     		strb	r2, [r3, #0]
1097:.\Generated_Source\PSoC5/CyLib.c **** }
 981              		.loc 1 1097 0
 982 000a 7047     		bx	lr
 983              	.L133:
 984              		.align	2
 985              	.L132:
 986 000c 00430040 		.word	1073758976
 987              		.cfi_endproc
 988              	.LFE22:
 989              		.size	CyILO_Disable33K, .-CyILO_Disable33K
 990              		.section	.text.CyILO_SetSource,"ax",%progbits
 991              		.align	1
 992              		.global	CyILO_SetSource
 993              		.thumb
 994              		.thumb_func
 995              		.type	CyILO_SetSource, %function
 996              	CyILO_SetSource:
 997              	.LFB23:
1098:.\Generated_Source\PSoC5/CyLib.c **** 
1099:.\Generated_Source\PSoC5/CyLib.c **** 
1100:.\Generated_Source\PSoC5/CyLib.c **** /*******************************************************************************
1101:.\Generated_Source\PSoC5/CyLib.c **** * Function Name: CyILO_SetSource
1102:.\Generated_Source\PSoC5/CyLib.c **** ********************************************************************************
1103:.\Generated_Source\PSoC5/CyLib.c **** *
1104:.\Generated_Source\PSoC5/CyLib.c **** * Summary:
1105:.\Generated_Source\PSoC5/CyLib.c **** *  Sets the source of the clock output from the ILO block.
1106:.\Generated_Source\PSoC5/CyLib.c **** *
1107:.\Generated_Source\PSoC5/CyLib.c **** * Parameters:
1108:.\Generated_Source\PSoC5/CyLib.c **** *  source: One of the three available ILO output sources
ARM GAS  C:\Users\SUZUKI~1\AppData\Local\Temp\ccqvA6Qn.s 			page 38


1109:.\Generated_Source\PSoC5/CyLib.c **** *       Value        Define                Source
1110:.\Generated_Source\PSoC5/CyLib.c **** *       0            CY_ILO_SOURCE_100K    ILO 100 KHz
1111:.\Generated_Source\PSoC5/CyLib.c **** *       1            CY_ILO_SOURCE_33K     ILO 33 KHz
1112:.\Generated_Source\PSoC5/CyLib.c **** *       2            CY_ILO_SOURCE_1K      ILO 1 KHz
1113:.\Generated_Source\PSoC5/CyLib.c **** *
1114:.\Generated_Source\PSoC5/CyLib.c **** * Return:
1115:.\Generated_Source\PSoC5/CyLib.c **** *  None
1116:.\Generated_Source\PSoC5/CyLib.c **** *
1117:.\Generated_Source\PSoC5/CyLib.c **** *******************************************************************************/
1118:.\Generated_Source\PSoC5/CyLib.c **** void CyILO_SetSource(uint8 source) 
1119:.\Generated_Source\PSoC5/CyLib.c **** {
 998              		.loc 1 1119 0
 999              		.cfi_startproc
 1000              		@ args = 0, pretend = 0, frame = 0
 1001              		@ frame_needed = 0, uses_anonymous_args = 0
 1002              		@ link register save eliminated.
 1003              	.LVL41:
1120:.\Generated_Source\PSoC5/CyLib.c ****     CLKDIST_CR = (CLKDIST_CR & CY_ILO_SOURCE_BITS_CLEAR) |
 1004              		.loc 1 1120 0
 1005 0000 054B     		ldr	r3, .L136
 1006 0002 8000     		lsls	r0, r0, #2
 1007              	.LVL42:
 1008 0004 1A78     		ldrb	r2, [r3, #0]	@ zero_extendqisi2
 1009 0006 00F00C00 		and	r0, r0, #12
 1010 000a 02F0F302 		and	r2, r2, #243
 1011 000e 40EA0202 		orr	r2, r0, r2
 1012 0012 1A70     		strb	r2, [r3, #0]
1121:.\Generated_Source\PSoC5/CyLib.c ****                     ((source << 2) & ~CY_ILO_SOURCE_BITS_CLEAR);
1122:.\Generated_Source\PSoC5/CyLib.c **** }
 1013              		.loc 1 1122 0
 1014 0014 7047     		bx	lr
 1015              	.L137:
 1016 0016 00BF     		.align	2
 1017              	.L136:
 1018 0018 00400040 		.word	1073758208
 1019              		.cfi_endproc
 1020              	.LFE23:
 1021              		.size	CyILO_SetSource, .-CyILO_SetSource
 1022              		.section	.text.CyILO_SetPowerMode,"ax",%progbits
 1023              		.align	1
 1024              		.global	CyILO_SetPowerMode
 1025              		.thumb
 1026              		.thumb_func
 1027              		.type	CyILO_SetPowerMode, %function
 1028              	CyILO_SetPowerMode:
 1029              	.LFB24:
1123:.\Generated_Source\PSoC5/CyLib.c **** 
1124:.\Generated_Source\PSoC5/CyLib.c **** 
1125:.\Generated_Source\PSoC5/CyLib.c **** /*******************************************************************************
1126:.\Generated_Source\PSoC5/CyLib.c **** * Function Name: CyILO_SetPowerMode
1127:.\Generated_Source\PSoC5/CyLib.c **** ********************************************************************************
1128:.\Generated_Source\PSoC5/CyLib.c **** *
1129:.\Generated_Source\PSoC5/CyLib.c **** * Summary:
1130:.\Generated_Source\PSoC5/CyLib.c **** *  Sets the power mode used by the ILO during power down. Allows for lower power
1131:.\Generated_Source\PSoC5/CyLib.c **** *  down power usage resulting in a slower startup time.
1132:.\Generated_Source\PSoC5/CyLib.c **** *
1133:.\Generated_Source\PSoC5/CyLib.c **** * Parameters:
ARM GAS  C:\Users\SUZUKI~1\AppData\Local\Temp\ccqvA6Qn.s 			page 39


1134:.\Generated_Source\PSoC5/CyLib.c **** *  uint8 mode
1135:.\Generated_Source\PSoC5/CyLib.c **** *   CY_ILO_FAST_START - Faster start-up, internal bias left on when powered down
1136:.\Generated_Source\PSoC5/CyLib.c **** *   CY_ILO_SLOW_START - Slower start-up, internal bias off when powered down
1137:.\Generated_Source\PSoC5/CyLib.c **** *
1138:.\Generated_Source\PSoC5/CyLib.c **** * Return:
1139:.\Generated_Source\PSoC5/CyLib.c **** *   Prevous power mode state.
1140:.\Generated_Source\PSoC5/CyLib.c **** *
1141:.\Generated_Source\PSoC5/CyLib.c **** *******************************************************************************/
1142:.\Generated_Source\PSoC5/CyLib.c **** uint8 CyILO_SetPowerMode(uint8 mode) 
1143:.\Generated_Source\PSoC5/CyLib.c **** {
 1030              		.loc 1 1143 0
 1031              		.cfi_startproc
 1032              		@ args = 0, pretend = 0, frame = 0
 1033              		@ frame_needed = 0, uses_anonymous_args = 0
 1034              		@ link register save eliminated.
 1035              	.LVL43:
1144:.\Generated_Source\PSoC5/CyLib.c ****     uint8 state;
1145:.\Generated_Source\PSoC5/CyLib.c **** 
1146:.\Generated_Source\PSoC5/CyLib.c ****     /* Get current state. */
1147:.\Generated_Source\PSoC5/CyLib.c ****     state = SLOWCLK_ILO_CR0;
 1036              		.loc 1 1147 0
 1037 0000 054A     		ldr	r2, .L143
 1038 0002 1378     		ldrb	r3, [r2, #0]	@ zero_extendqisi2
1148:.\Generated_Source\PSoC5/CyLib.c **** 
1149:.\Generated_Source\PSoC5/CyLib.c ****     /* Set the the oscillator power mode. */
1150:.\Generated_Source\PSoC5/CyLib.c ****     if(mode != CY_ILO_FAST_START)
 1039              		.loc 1 1150 0
 1040 0004 10B1     		cbz	r0, .L139
1151:.\Generated_Source\PSoC5/CyLib.c ****     {
1152:.\Generated_Source\PSoC5/CyLib.c ****         SLOWCLK_ILO_CR0 = (state | ILO_CONTROL_PD_MODE);
 1041              		.loc 1 1152 0
 1042 0006 43F01001 		orr	r1, r3, #16
 1043              	.LVL44:
 1044 000a 01E0     		b	.L142
 1045              	.LVL45:
 1046              	.L139:
1153:.\Generated_Source\PSoC5/CyLib.c ****     }
1154:.\Generated_Source\PSoC5/CyLib.c ****     else
1155:.\Generated_Source\PSoC5/CyLib.c ****     {
1156:.\Generated_Source\PSoC5/CyLib.c ****         SLOWCLK_ILO_CR0 = (state & ~ILO_CONTROL_PD_MODE);
 1047              		.loc 1 1156 0
 1048 000c 03F0EF01 		and	r1, r3, #239
 1049              	.LVL46:
 1050              	.L142:
 1051 0010 1170     		strb	r1, [r2, #0]
1157:.\Generated_Source\PSoC5/CyLib.c ****     }
1158:.\Generated_Source\PSoC5/CyLib.c **** 
1159:.\Generated_Source\PSoC5/CyLib.c ****     /* Return the old mode. */
1160:.\Generated_Source\PSoC5/CyLib.c ****     return ((state & ILO_CONTROL_PD_MODE) >> ILO_CONTROL_PD_POSITION);
1161:.\Generated_Source\PSoC5/CyLib.c **** }
 1052              		.loc 1 1161 0
 1053 0012 C3F30010 		ubfx	r0, r3, #4, #1
 1054              	.LVL47:
 1055 0016 7047     		bx	lr
 1056              	.L144:
 1057              		.align	2
 1058              	.L143:
ARM GAS  C:\Users\SUZUKI~1\AppData\Local\Temp\ccqvA6Qn.s 			page 40


 1059 0018 00430040 		.word	1073758976
 1060              		.cfi_endproc
 1061              	.LFE24:
 1062              		.size	CyILO_SetPowerMode, .-CyILO_SetPowerMode
 1063              		.section	.text.CyXTAL_32KHZ_Stop,"ax",%progbits
 1064              		.align	1
 1065              		.global	CyXTAL_32KHZ_Stop
 1066              		.thumb
 1067              		.thumb_func
 1068              		.type	CyXTAL_32KHZ_Stop, %function
 1069              	CyXTAL_32KHZ_Stop:
 1070              	.LFB26:
1162:.\Generated_Source\PSoC5/CyLib.c **** 
1163:.\Generated_Source\PSoC5/CyLib.c **** 
1164:.\Generated_Source\PSoC5/CyLib.c **** /*******************************************************************************
1165:.\Generated_Source\PSoC5/CyLib.c **** * Function Name: CyXTAL_32KHZ_Start
1166:.\Generated_Source\PSoC5/CyLib.c **** ********************************************************************************
1167:.\Generated_Source\PSoC5/CyLib.c **** *
1168:.\Generated_Source\PSoC5/CyLib.c **** * Summary:
1169:.\Generated_Source\PSoC5/CyLib.c **** *  Enables the 32 KHz Crystal Oscillator.
1170:.\Generated_Source\PSoC5/CyLib.c **** *
1171:.\Generated_Source\PSoC5/CyLib.c **** * Parameters:
1172:.\Generated_Source\PSoC5/CyLib.c **** *  None
1173:.\Generated_Source\PSoC5/CyLib.c **** *
1174:.\Generated_Source\PSoC5/CyLib.c **** * Return:
1175:.\Generated_Source\PSoC5/CyLib.c **** *  None
1176:.\Generated_Source\PSoC5/CyLib.c **** *
1177:.\Generated_Source\PSoC5/CyLib.c **** *******************************************************************************/
1178:.\Generated_Source\PSoC5/CyLib.c **** void CyXTAL_32KHZ_Start(void) 
1179:.\Generated_Source\PSoC5/CyLib.c **** {
1180:.\Generated_Source\PSoC5/CyLib.c ****     volatile uint32 i;
1181:.\Generated_Source\PSoC5/CyLib.c **** 
1182:.\Generated_Source\PSoC5/CyLib.c ****     CY_CLK_XTAL32_TST_REG = CY_CLK_XTAL32_TST_DEFAULT;
1183:.\Generated_Source\PSoC5/CyLib.c ****     CY_CLK_XTAL32_TR_REG  = CY_CLK_XTAL32_TR_STARTUP;
1184:.\Generated_Source\PSoC5/CyLib.c ****     CY_CLK_XTAL32_CFG_REG = (CY_CLK_XTAL32_CFG_REG & ~CY_CLK_XTAL32_CFG_LP_MASK) | CY_CLK_XTAL32_CF
1185:.\Generated_Source\PSoC5/CyLib.c **** 
1186:.\Generated_Source\PSoC5/CyLib.c ****     #if(CY_PSOC3)
1187:.\Generated_Source\PSoC5/CyLib.c ****         CY_CLK_XTAL32_CR_REG |= CY_CLK_XTAL32_CR_PDBEN;
1188:.\Generated_Source\PSoC5/CyLib.c ****     #endif  /* (CY_PSOC3) */
1189:.\Generated_Source\PSoC5/CyLib.c **** 
1190:.\Generated_Source\PSoC5/CyLib.c ****     /* Enable operation of the 32K Crystal Oscillator */
1191:.\Generated_Source\PSoC5/CyLib.c ****     CY_CLK_XTAL32_CR_REG |= CY_CLK_XTAL32_CR_EN;
1192:.\Generated_Source\PSoC5/CyLib.c **** 
1193:.\Generated_Source\PSoC5/CyLib.c ****     for (i = 1000u; i > 0u; i--)
1194:.\Generated_Source\PSoC5/CyLib.c ****     {
1195:.\Generated_Source\PSoC5/CyLib.c ****         if(0u != (CyXTAL_32KHZ_ReadStatus() & CY_XTAL32K_ANA_STAT))
1196:.\Generated_Source\PSoC5/CyLib.c ****         {
1197:.\Generated_Source\PSoC5/CyLib.c ****             /* Ready - switch to the hign power mode */
1198:.\Generated_Source\PSoC5/CyLib.c ****             (void) CyXTAL_32KHZ_SetPowerMode(0u);
1199:.\Generated_Source\PSoC5/CyLib.c **** 
1200:.\Generated_Source\PSoC5/CyLib.c ****             break;
1201:.\Generated_Source\PSoC5/CyLib.c ****         }
1202:.\Generated_Source\PSoC5/CyLib.c ****         CyDelayUs(1u);
1203:.\Generated_Source\PSoC5/CyLib.c ****     }
1204:.\Generated_Source\PSoC5/CyLib.c **** }
1205:.\Generated_Source\PSoC5/CyLib.c **** 
1206:.\Generated_Source\PSoC5/CyLib.c **** 
ARM GAS  C:\Users\SUZUKI~1\AppData\Local\Temp\ccqvA6Qn.s 			page 41


1207:.\Generated_Source\PSoC5/CyLib.c **** /*******************************************************************************
1208:.\Generated_Source\PSoC5/CyLib.c **** * Function Name: CyXTAL_32KHZ_Stop
1209:.\Generated_Source\PSoC5/CyLib.c **** ********************************************************************************
1210:.\Generated_Source\PSoC5/CyLib.c **** *
1211:.\Generated_Source\PSoC5/CyLib.c **** * Summary:
1212:.\Generated_Source\PSoC5/CyLib.c **** *  Disables the 32KHz Crystal Oscillator.
1213:.\Generated_Source\PSoC5/CyLib.c **** *
1214:.\Generated_Source\PSoC5/CyLib.c **** * Parameters:
1215:.\Generated_Source\PSoC5/CyLib.c **** *  None
1216:.\Generated_Source\PSoC5/CyLib.c **** *
1217:.\Generated_Source\PSoC5/CyLib.c **** * Return:
1218:.\Generated_Source\PSoC5/CyLib.c **** *  None
1219:.\Generated_Source\PSoC5/CyLib.c **** *
1220:.\Generated_Source\PSoC5/CyLib.c **** *******************************************************************************/
1221:.\Generated_Source\PSoC5/CyLib.c **** void CyXTAL_32KHZ_Stop(void) 
1222:.\Generated_Source\PSoC5/CyLib.c **** {
 1071              		.loc 1 1222 0
 1072              		.cfi_startproc
 1073              		@ args = 0, pretend = 0, frame = 0
 1074              		@ frame_needed = 0, uses_anonymous_args = 0
 1075              		@ link register save eliminated.
1223:.\Generated_Source\PSoC5/CyLib.c ****     CY_CLK_XTAL32_TST_REG  = CY_CLK_XTAL32_TST_DEFAULT;
 1076              		.loc 1 1223 0
 1077 0000 094B     		ldr	r3, .L147
 1078 0002 6FF00C02 		mvn	r2, #12
 1079 0006 1A70     		strb	r2, [r3, #0]
1224:.\Generated_Source\PSoC5/CyLib.c ****     CY_CLK_XTAL32_TR_REG   = CY_CLK_XTAL32_TR_POWERDOWN;
 1080              		.loc 1 1224 0
 1081 0008 084B     		ldr	r3, .L147+4
 1082 000a 0D32     		adds	r2, r2, #13
 1083 000c 1A70     		strb	r2, [r3, #0]
1225:.\Generated_Source\PSoC5/CyLib.c ****     CY_CLK_XTAL32_CFG_REG = (CY_CLK_XTAL32_CFG_REG & ~CY_CLK_XTAL32_CFG_LP_MASK) | CY_CLK_XTAL32_CF
 1084              		.loc 1 1225 0
 1085 000e 084B     		ldr	r3, .L147+8
 1086 0010 1A78     		ldrb	r2, [r3, #0]	@ zero_extendqisi2
 1087 0012 02F0F302 		and	r2, r2, #243
 1088 0016 42F00402 		orr	r2, r2, #4
 1089 001a 1A70     		strb	r2, [r3, #0]
1226:.\Generated_Source\PSoC5/CyLib.c ****     CY_CLK_XTAL32_CR_REG &= ~(CY_CLK_XTAL32_CR_EN | CY_CLK_XTAL32_CR_LPM);
 1090              		.loc 1 1226 0
 1091 001c 013B     		subs	r3, r3, #1
 1092 001e 1A78     		ldrb	r2, [r3, #0]	@ zero_extendqisi2
 1093 0020 02F0FC02 		and	r2, r2, #252
 1094 0024 1A70     		strb	r2, [r3, #0]
1227:.\Generated_Source\PSoC5/CyLib.c **** 
1228:.\Generated_Source\PSoC5/CyLib.c ****     #if(CY_PSOC3)
1229:.\Generated_Source\PSoC5/CyLib.c ****         CY_CLK_XTAL32_CR_REG &= ~CY_CLK_XTAL32_CR_PDBEN;
1230:.\Generated_Source\PSoC5/CyLib.c ****     #endif  /* (CY_PSOC3) */
1231:.\Generated_Source\PSoC5/CyLib.c **** }
 1095              		.loc 1 1231 0
 1096 0026 7047     		bx	lr
 1097              	.L148:
 1098              		.align	2
 1099              	.L147:
 1100 0028 0A430040 		.word	1073758986
 1101 002c 98460040 		.word	1073759896
 1102 0030 09430040 		.word	1073758985
ARM GAS  C:\Users\SUZUKI~1\AppData\Local\Temp\ccqvA6Qn.s 			page 42


 1103              		.cfi_endproc
 1104              	.LFE26:
 1105              		.size	CyXTAL_32KHZ_Stop, .-CyXTAL_32KHZ_Stop
 1106              		.section	.text.CyXTAL_32KHZ_ReadStatus,"ax",%progbits
 1107              		.align	1
 1108              		.global	CyXTAL_32KHZ_ReadStatus
 1109              		.thumb
 1110              		.thumb_func
 1111              		.type	CyXTAL_32KHZ_ReadStatus, %function
 1112              	CyXTAL_32KHZ_ReadStatus:
 1113              	.LFB27:
1232:.\Generated_Source\PSoC5/CyLib.c **** 
1233:.\Generated_Source\PSoC5/CyLib.c **** 
1234:.\Generated_Source\PSoC5/CyLib.c **** /*******************************************************************************
1235:.\Generated_Source\PSoC5/CyLib.c **** * Function Name: CyXTAL_32KHZ_ReadStatus
1236:.\Generated_Source\PSoC5/CyLib.c **** ********************************************************************************
1237:.\Generated_Source\PSoC5/CyLib.c **** *
1238:.\Generated_Source\PSoC5/CyLib.c **** * Summary:
1239:.\Generated_Source\PSoC5/CyLib.c **** *  Returns status of the 32 KHz oscillator.
1240:.\Generated_Source\PSoC5/CyLib.c **** *
1241:.\Generated_Source\PSoC5/CyLib.c **** * Parameters:
1242:.\Generated_Source\PSoC5/CyLib.c **** *  None
1243:.\Generated_Source\PSoC5/CyLib.c **** *
1244:.\Generated_Source\PSoC5/CyLib.c **** * Return:
1245:.\Generated_Source\PSoC5/CyLib.c **** *  Value     Define                    Source
1246:.\Generated_Source\PSoC5/CyLib.c **** *  20        CY_XTAL32K_ANA_STAT       Analog measurement
1247:.\Generated_Source\PSoC5/CyLib.c **** *                                       1: Stable
1248:.\Generated_Source\PSoC5/CyLib.c **** *                                       0: Not stable
1249:.\Generated_Source\PSoC5/CyLib.c **** *
1250:.\Generated_Source\PSoC5/CyLib.c **** *******************************************************************************/
1251:.\Generated_Source\PSoC5/CyLib.c **** uint8 CyXTAL_32KHZ_ReadStatus(void) 
1252:.\Generated_Source\PSoC5/CyLib.c **** {
 1114              		.loc 1 1252 0
 1115              		.cfi_startproc
 1116              		@ args = 0, pretend = 0, frame = 0
 1117              		@ frame_needed = 0, uses_anonymous_args = 0
 1118              		@ link register save eliminated.
1253:.\Generated_Source\PSoC5/CyLib.c ****     return(CY_CLK_XTAL32_CR_REG & CY_XTAL32K_ANA_STAT);
 1119              		.loc 1 1253 0
 1120 0000 024B     		ldr	r3, .L151
 1121 0002 1878     		ldrb	r0, [r3, #0]	@ zero_extendqisi2
1254:.\Generated_Source\PSoC5/CyLib.c **** }
 1122              		.loc 1 1254 0
 1123 0004 00F02000 		and	r0, r0, #32
 1124 0008 7047     		bx	lr
 1125              	.L152:
 1126 000a 00BF     		.align	2
 1127              	.L151:
 1128 000c 08430040 		.word	1073758984
 1129              		.cfi_endproc
 1130              	.LFE27:
 1131              		.size	CyXTAL_32KHZ_ReadStatus, .-CyXTAL_32KHZ_ReadStatus
 1132              		.section	.text.CyXTAL_Stop,"ax",%progbits
 1133              		.align	1
 1134              		.global	CyXTAL_Stop
 1135              		.thumb
 1136              		.thumb_func
ARM GAS  C:\Users\SUZUKI~1\AppData\Local\Temp\ccqvA6Qn.s 			page 43


 1137              		.type	CyXTAL_Stop, %function
 1138              	CyXTAL_Stop:
 1139              	.LFB30:
1255:.\Generated_Source\PSoC5/CyLib.c **** 
1256:.\Generated_Source\PSoC5/CyLib.c **** 
1257:.\Generated_Source\PSoC5/CyLib.c **** /*******************************************************************************
1258:.\Generated_Source\PSoC5/CyLib.c **** * Function Name: CyXTAL_32KHZ_SetPowerMode
1259:.\Generated_Source\PSoC5/CyLib.c **** ********************************************************************************
1260:.\Generated_Source\PSoC5/CyLib.c **** *
1261:.\Generated_Source\PSoC5/CyLib.c **** * Summary:
1262:.\Generated_Source\PSoC5/CyLib.c **** *  Sets the power mode for the 32 KHz oscillator used during sleep mode.
1263:.\Generated_Source\PSoC5/CyLib.c **** *  Allows for lower power during sleep when there are fewer sources of noise.
1264:.\Generated_Source\PSoC5/CyLib.c **** *  During active mode the oscillator is always run in high power mode.
1265:.\Generated_Source\PSoC5/CyLib.c **** *
1266:.\Generated_Source\PSoC5/CyLib.c **** * Parameters:
1267:.\Generated_Source\PSoC5/CyLib.c **** *  uint8 mode
1268:.\Generated_Source\PSoC5/CyLib.c **** *       0: High power mode
1269:.\Generated_Source\PSoC5/CyLib.c **** *       1: Low power mode during sleep
1270:.\Generated_Source\PSoC5/CyLib.c **** *
1271:.\Generated_Source\PSoC5/CyLib.c **** * Return:
1272:.\Generated_Source\PSoC5/CyLib.c **** *  Previous power mode.
1273:.\Generated_Source\PSoC5/CyLib.c **** *
1274:.\Generated_Source\PSoC5/CyLib.c **** *******************************************************************************/
1275:.\Generated_Source\PSoC5/CyLib.c **** uint8 CyXTAL_32KHZ_SetPowerMode(uint8 mode) 
1276:.\Generated_Source\PSoC5/CyLib.c **** {
1277:.\Generated_Source\PSoC5/CyLib.c ****     uint8 state = (0u != (CY_CLK_XTAL32_CR_REG & CY_CLK_XTAL32_CR_LPM)) ? 1u : 0u;
1278:.\Generated_Source\PSoC5/CyLib.c **** 
1279:.\Generated_Source\PSoC5/CyLib.c ****     CY_CLK_XTAL32_TST_REG = CY_CLK_XTAL32_TST_DEFAULT;
1280:.\Generated_Source\PSoC5/CyLib.c **** 
1281:.\Generated_Source\PSoC5/CyLib.c ****     if(1u == mode)
1282:.\Generated_Source\PSoC5/CyLib.c ****     {
1283:.\Generated_Source\PSoC5/CyLib.c ****         /* Low power mode during Sleep */
1284:.\Generated_Source\PSoC5/CyLib.c ****         CY_CLK_XTAL32_TR_REG  = CY_CLK_XTAL32_TR_LOW_POWER;
1285:.\Generated_Source\PSoC5/CyLib.c ****         CyDelayUs(10u);
1286:.\Generated_Source\PSoC5/CyLib.c ****         CY_CLK_XTAL32_CFG_REG = (CY_CLK_XTAL32_CFG_REG & ~CY_CLK_XTAL32_CFG_LP_MASK) | CY_CLK_XTAL3
1287:.\Generated_Source\PSoC5/CyLib.c ****         CyDelayUs(20u);
1288:.\Generated_Source\PSoC5/CyLib.c ****         CY_CLK_XTAL32_CR_REG |= CY_CLK_XTAL32_CR_LPM;
1289:.\Generated_Source\PSoC5/CyLib.c ****     }
1290:.\Generated_Source\PSoC5/CyLib.c ****     else
1291:.\Generated_Source\PSoC5/CyLib.c ****     {
1292:.\Generated_Source\PSoC5/CyLib.c ****         /* High power mode */
1293:.\Generated_Source\PSoC5/CyLib.c ****         CY_CLK_XTAL32_TR_REG  = CY_CLK_XTAL32_TR_HIGH_POWER;
1294:.\Generated_Source\PSoC5/CyLib.c ****         CyDelayUs(10u);
1295:.\Generated_Source\PSoC5/CyLib.c ****         CY_CLK_XTAL32_CFG_REG = (CY_CLK_XTAL32_CFG_REG & ~CY_CLK_XTAL32_CFG_LP_MASK) | CY_CLK_XTAL3
1296:.\Generated_Source\PSoC5/CyLib.c ****         CY_CLK_XTAL32_CR_REG &= ~CY_CLK_XTAL32_CR_LPM;
1297:.\Generated_Source\PSoC5/CyLib.c ****     }
1298:.\Generated_Source\PSoC5/CyLib.c **** 
1299:.\Generated_Source\PSoC5/CyLib.c ****     return(state);
1300:.\Generated_Source\PSoC5/CyLib.c **** }
1301:.\Generated_Source\PSoC5/CyLib.c **** 
1302:.\Generated_Source\PSoC5/CyLib.c **** 
1303:.\Generated_Source\PSoC5/CyLib.c **** /*******************************************************************************
1304:.\Generated_Source\PSoC5/CyLib.c **** * Function Name: CyXTAL_Start
1305:.\Generated_Source\PSoC5/CyLib.c **** ********************************************************************************
1306:.\Generated_Source\PSoC5/CyLib.c **** *
1307:.\Generated_Source\PSoC5/CyLib.c **** * Summary:
1308:.\Generated_Source\PSoC5/CyLib.c **** *  Enables the megahertz crystal.
ARM GAS  C:\Users\SUZUKI~1\AppData\Local\Temp\ccqvA6Qn.s 			page 44


1309:.\Generated_Source\PSoC5/CyLib.c **** *
1310:.\Generated_Source\PSoC5/CyLib.c **** *  PSoC3:
1311:.\Generated_Source\PSoC5/CyLib.c **** *  Waits until the XERR bit is low (no error) for a millisecond or until the
1312:.\Generated_Source\PSoC5/CyLib.c **** *  number of milliseconds specified by the wait parameter has expired.
1313:.\Generated_Source\PSoC5/CyLib.c **** *
1314:.\Generated_Source\PSoC5/CyLib.c **** *  PSoC5:
1315:.\Generated_Source\PSoC5/CyLib.c **** *  Waits for CY_CLK_XMHZ_MIN_TIMEOUT milliseconds (or number of milliseconds
1316:.\Generated_Source\PSoC5/CyLib.c **** *  specified by parameter if it is greater than CY_CLK_XMHZ_MIN_TIMEOUT. The
1317:.\Generated_Source\PSoC5/CyLib.c **** *  XERR bit status is not checked.
1318:.\Generated_Source\PSoC5/CyLib.c **** *
1319:.\Generated_Source\PSoC5/CyLib.c **** * Parameters:
1320:.\Generated_Source\PSoC5/CyLib.c **** *   wait: Valid range [0-255].
1321:.\Generated_Source\PSoC5/CyLib.c **** *   This is the timeout value in milliseconds.
1322:.\Generated_Source\PSoC5/CyLib.c **** *   The appropriate value is crystal specific.
1323:.\Generated_Source\PSoC5/CyLib.c **** *
1324:.\Generated_Source\PSoC5/CyLib.c **** * Return:
1325:.\Generated_Source\PSoC5/CyLib.c **** *   CYRET_SUCCESS - Completed successfully
1326:.\Generated_Source\PSoC5/CyLib.c **** *   CYRET_TIMEOUT - Timeout occurred without detecting a low value on XERR.
1327:.\Generated_Source\PSoC5/CyLib.c **** *
1328:.\Generated_Source\PSoC5/CyLib.c **** * Side Effects and Restrictions:
1329:.\Generated_Source\PSoC5/CyLib.c **** *  If wait is enabled (non-zero wait). Uses the Fast Timewheel to time the wait.
1330:.\Generated_Source\PSoC5/CyLib.c **** *  Any other use of the Fast Timewheel (FTW) will be stopped during the period
1331:.\Generated_Source\PSoC5/CyLib.c **** *  of this function and then restored.
1332:.\Generated_Source\PSoC5/CyLib.c **** *
1333:.\Generated_Source\PSoC5/CyLib.c **** *  Uses the 100KHz ILO.  If not enabled, this function will enable the 100KHz
1334:.\Generated_Source\PSoC5/CyLib.c **** *  ILO for the period of this function. No changes to the setup of the ILO,
1335:.\Generated_Source\PSoC5/CyLib.c **** *  Fast Timewheel, Central Timewheel or Once Per Second interrupt may be made
1336:.\Generated_Source\PSoC5/CyLib.c **** *  by interrupt routines during the period of this function.
1337:.\Generated_Source\PSoC5/CyLib.c **** *
1338:.\Generated_Source\PSoC5/CyLib.c **** *  The current operation of the ILO, Central Timewheel and Once Per Second
1339:.\Generated_Source\PSoC5/CyLib.c **** *  interrupt are maintained during the operation of this function provided the
1340:.\Generated_Source\PSoC5/CyLib.c **** *  reading of the Power Manager Interrupt Status Register is only done using the
1341:.\Generated_Source\PSoC5/CyLib.c **** *  CyPmReadStatus() function.
1342:.\Generated_Source\PSoC5/CyLib.c **** *
1343:.\Generated_Source\PSoC5/CyLib.c **** *******************************************************************************/
1344:.\Generated_Source\PSoC5/CyLib.c **** cystatus CyXTAL_Start(uint8 wait) 
1345:.\Generated_Source\PSoC5/CyLib.c **** {
1346:.\Generated_Source\PSoC5/CyLib.c ****     cystatus status = CYRET_SUCCESS;
1347:.\Generated_Source\PSoC5/CyLib.c **** 
1348:.\Generated_Source\PSoC5/CyLib.c ****     #if(CY_PSOC5A)
1349:.\Generated_Source\PSoC5/CyLib.c ****         volatile uint8  timeout = (wait < CY_CLK_XMHZ_MIN_TIMEOUT) ? CY_CLK_XMHZ_MIN_TIMEOUT : wait
1350:.\Generated_Source\PSoC5/CyLib.c ****     #else
1351:.\Generated_Source\PSoC5/CyLib.c ****         volatile uint8  timeout = wait;
1352:.\Generated_Source\PSoC5/CyLib.c ****     #endif  /* (CY_PSOC5A) */
1353:.\Generated_Source\PSoC5/CyLib.c **** 
1354:.\Generated_Source\PSoC5/CyLib.c ****     volatile uint8 count;
1355:.\Generated_Source\PSoC5/CyLib.c ****     uint8 iloEnableState;
1356:.\Generated_Source\PSoC5/CyLib.c ****     uint8 pmTwCfg0;
1357:.\Generated_Source\PSoC5/CyLib.c ****     uint8 pmTwCfg2;
1358:.\Generated_Source\PSoC5/CyLib.c **** 
1359:.\Generated_Source\PSoC5/CyLib.c **** 
1360:.\Generated_Source\PSoC5/CyLib.c ****     /* Enables the MHz crystal oscillator circuit  */
1361:.\Generated_Source\PSoC5/CyLib.c ****     CY_CLK_XMHZ_CSR_REG |= CY_CLK_XMHZ_CSR_ENABLE;
1362:.\Generated_Source\PSoC5/CyLib.c **** 
1363:.\Generated_Source\PSoC5/CyLib.c **** 
1364:.\Generated_Source\PSoC5/CyLib.c ****     if(wait > 0)
1365:.\Generated_Source\PSoC5/CyLib.c ****     {
ARM GAS  C:\Users\SUZUKI~1\AppData\Local\Temp\ccqvA6Qn.s 			page 45


1366:.\Generated_Source\PSoC5/CyLib.c ****         /* Save 100 KHz ILO, FTW interval, enable and interrupt enable */
1367:.\Generated_Source\PSoC5/CyLib.c ****         iloEnableState = SLOWCLK_ILO_CR0;
1368:.\Generated_Source\PSoC5/CyLib.c ****         pmTwCfg0 = CY_PM_TW_CFG0_REG;
1369:.\Generated_Source\PSoC5/CyLib.c ****         pmTwCfg2 = CY_PM_TW_CFG2_REG;
1370:.\Generated_Source\PSoC5/CyLib.c **** 
1371:.\Generated_Source\PSoC5/CyLib.c ****         /* Set 250 us interval */
1372:.\Generated_Source\PSoC5/CyLib.c ****         CyPmFtwSetInterval(CY_CLK_XMHZ_FTW_INTERVAL);
1373:.\Generated_Source\PSoC5/CyLib.c ****         status = CYRET_TIMEOUT;
1374:.\Generated_Source\PSoC5/CyLib.c **** 
1375:.\Generated_Source\PSoC5/CyLib.c **** 
1376:.\Generated_Source\PSoC5/CyLib.c ****         for( ; timeout > 0; timeout--)
1377:.\Generated_Source\PSoC5/CyLib.c ****         {
1378:.\Generated_Source\PSoC5/CyLib.c ****             #if(!CY_PSOC5A)
1379:.\Generated_Source\PSoC5/CyLib.c **** 
1380:.\Generated_Source\PSoC5/CyLib.c ****                 /* Read XERR bit to clear it */
1381:.\Generated_Source\PSoC5/CyLib.c ****                 (void) CY_CLK_XMHZ_CSR_REG;
1382:.\Generated_Source\PSoC5/CyLib.c **** 
1383:.\Generated_Source\PSoC5/CyLib.c ****             #endif  /* (!CY_PSOC5A) */
1384:.\Generated_Source\PSoC5/CyLib.c **** 
1385:.\Generated_Source\PSoC5/CyLib.c **** 
1386:.\Generated_Source\PSoC5/CyLib.c ****             /* Wait for a millisecond - 4 x 250 us */
1387:.\Generated_Source\PSoC5/CyLib.c ****             for(count = 4u; count > 0u; count--)
1388:.\Generated_Source\PSoC5/CyLib.c ****             {
1389:.\Generated_Source\PSoC5/CyLib.c ****                 while(!(CY_PM_FTW_INT == CyPmReadStatus(CY_PM_FTW_INT)))
1390:.\Generated_Source\PSoC5/CyLib.c ****                 {
1391:.\Generated_Source\PSoC5/CyLib.c ****                     /* Wait for the FTW interrupt event */
1392:.\Generated_Source\PSoC5/CyLib.c ****                 }
1393:.\Generated_Source\PSoC5/CyLib.c ****             }
1394:.\Generated_Source\PSoC5/CyLib.c **** 
1395:.\Generated_Source\PSoC5/CyLib.c **** 
1396:.\Generated_Source\PSoC5/CyLib.c ****             #if(!CY_PSOC5A)
1397:.\Generated_Source\PSoC5/CyLib.c **** 
1398:.\Generated_Source\PSoC5/CyLib.c ****                 /*******************************************************************
1399:.\Generated_Source\PSoC5/CyLib.c ****                 * High output indicates oscillator failure.
1400:.\Generated_Source\PSoC5/CyLib.c ****                 * Only can be used after start-up interval (1 ms) is completed.
1401:.\Generated_Source\PSoC5/CyLib.c ****                 *******************************************************************/
1402:.\Generated_Source\PSoC5/CyLib.c ****                 if(0u == (CY_CLK_XMHZ_CSR_REG & CY_CLK_XMHZ_CSR_XERR))
1403:.\Generated_Source\PSoC5/CyLib.c ****                 {
1404:.\Generated_Source\PSoC5/CyLib.c ****                     status = CYRET_SUCCESS;
1405:.\Generated_Source\PSoC5/CyLib.c ****                     break;
1406:.\Generated_Source\PSoC5/CyLib.c ****                 }
1407:.\Generated_Source\PSoC5/CyLib.c **** 
1408:.\Generated_Source\PSoC5/CyLib.c ****             #endif  /* (!CY_PSOC5A) */
1409:.\Generated_Source\PSoC5/CyLib.c ****         }
1410:.\Generated_Source\PSoC5/CyLib.c **** 
1411:.\Generated_Source\PSoC5/CyLib.c **** 
1412:.\Generated_Source\PSoC5/CyLib.c ****         /* Restore 100 KHz ILO, FTW interval, enable and interrupt enable */
1413:.\Generated_Source\PSoC5/CyLib.c ****         if(0u == (iloEnableState & ILO_CONTROL_100KHZ_ON))
1414:.\Generated_Source\PSoC5/CyLib.c ****         {
1415:.\Generated_Source\PSoC5/CyLib.c ****             CyILO_Stop100K();
1416:.\Generated_Source\PSoC5/CyLib.c ****         }
1417:.\Generated_Source\PSoC5/CyLib.c ****         CY_PM_TW_CFG0_REG = pmTwCfg0;
1418:.\Generated_Source\PSoC5/CyLib.c ****         CY_PM_TW_CFG2_REG = pmTwCfg2;
1419:.\Generated_Source\PSoC5/CyLib.c ****     }
1420:.\Generated_Source\PSoC5/CyLib.c **** 
1421:.\Generated_Source\PSoC5/CyLib.c ****     return(status);
1422:.\Generated_Source\PSoC5/CyLib.c **** }
ARM GAS  C:\Users\SUZUKI~1\AppData\Local\Temp\ccqvA6Qn.s 			page 46


1423:.\Generated_Source\PSoC5/CyLib.c **** 
1424:.\Generated_Source\PSoC5/CyLib.c **** 
1425:.\Generated_Source\PSoC5/CyLib.c **** /*******************************************************************************
1426:.\Generated_Source\PSoC5/CyLib.c **** * Function Name: CyXTAL_Stop
1427:.\Generated_Source\PSoC5/CyLib.c **** ********************************************************************************
1428:.\Generated_Source\PSoC5/CyLib.c **** *
1429:.\Generated_Source\PSoC5/CyLib.c **** * Summary:
1430:.\Generated_Source\PSoC5/CyLib.c **** *  Disables the megahertz crystal oscillator.
1431:.\Generated_Source\PSoC5/CyLib.c **** *
1432:.\Generated_Source\PSoC5/CyLib.c **** * Parameters:
1433:.\Generated_Source\PSoC5/CyLib.c **** *  None
1434:.\Generated_Source\PSoC5/CyLib.c **** *
1435:.\Generated_Source\PSoC5/CyLib.c **** * Return:
1436:.\Generated_Source\PSoC5/CyLib.c **** *  None
1437:.\Generated_Source\PSoC5/CyLib.c **** *
1438:.\Generated_Source\PSoC5/CyLib.c **** *******************************************************************************/
1439:.\Generated_Source\PSoC5/CyLib.c **** void CyXTAL_Stop(void) 
1440:.\Generated_Source\PSoC5/CyLib.c **** {
 1140              		.loc 1 1440 0
 1141              		.cfi_startproc
 1142              		@ args = 0, pretend = 0, frame = 0
 1143              		@ frame_needed = 0, uses_anonymous_args = 0
 1144              		@ link register save eliminated.
1441:.\Generated_Source\PSoC5/CyLib.c ****     /* Disable the the oscillator. */
1442:.\Generated_Source\PSoC5/CyLib.c ****     FASTCLK_XMHZ_CSR &= ~XMHZ_CONTROL_ENABLE;
 1145              		.loc 1 1442 0
 1146 0000 024B     		ldr	r3, .L155
 1147 0002 1A78     		ldrb	r2, [r3, #0]	@ zero_extendqisi2
 1148 0004 02F0FE02 		and	r2, r2, #254
 1149 0008 1A70     		strb	r2, [r3, #0]
1443:.\Generated_Source\PSoC5/CyLib.c **** }
 1150              		.loc 1 1443 0
 1151 000a 7047     		bx	lr
 1152              	.L156:
 1153              		.align	2
 1154              	.L155:
 1155 000c 10420040 		.word	1073758736
 1156              		.cfi_endproc
 1157              	.LFE30:
 1158              		.size	CyXTAL_Stop, .-CyXTAL_Stop
 1159              		.section	.text.CyXTAL_SetStartup,"ax",%progbits
 1160              		.align	1
 1161              		.global	CyXTAL_SetStartup
 1162              		.thumb
 1163              		.thumb_func
 1164              		.type	CyXTAL_SetStartup, %function
 1165              	CyXTAL_SetStartup:
 1166              	.LFB31:
1444:.\Generated_Source\PSoC5/CyLib.c **** 
1445:.\Generated_Source\PSoC5/CyLib.c **** 
1446:.\Generated_Source\PSoC5/CyLib.c **** #if(!CY_PSOC5A)
1447:.\Generated_Source\PSoC5/CyLib.c **** 
1448:.\Generated_Source\PSoC5/CyLib.c ****     /*******************************************************************************
1449:.\Generated_Source\PSoC5/CyLib.c ****     * Function Name: CyXTAL_EnableErrStatus
1450:.\Generated_Source\PSoC5/CyLib.c ****     ********************************************************************************
1451:.\Generated_Source\PSoC5/CyLib.c ****     *
1452:.\Generated_Source\PSoC5/CyLib.c ****     * Summary:
ARM GAS  C:\Users\SUZUKI~1\AppData\Local\Temp\ccqvA6Qn.s 			page 47


1453:.\Generated_Source\PSoC5/CyLib.c ****     *  Enables the generation of the XERR status bit for the megahertz crystal.
1454:.\Generated_Source\PSoC5/CyLib.c ****     *  This function is not available for PSoC5.
1455:.\Generated_Source\PSoC5/CyLib.c ****     *
1456:.\Generated_Source\PSoC5/CyLib.c ****     * Parameters:
1457:.\Generated_Source\PSoC5/CyLib.c ****     *  None
1458:.\Generated_Source\PSoC5/CyLib.c ****     *
1459:.\Generated_Source\PSoC5/CyLib.c ****     * Return:
1460:.\Generated_Source\PSoC5/CyLib.c ****     *  None
1461:.\Generated_Source\PSoC5/CyLib.c ****     *
1462:.\Generated_Source\PSoC5/CyLib.c ****     *******************************************************************************/
1463:.\Generated_Source\PSoC5/CyLib.c ****     void CyXTAL_EnableErrStatus(void) 
1464:.\Generated_Source\PSoC5/CyLib.c ****     {
1465:.\Generated_Source\PSoC5/CyLib.c ****         /* If oscillator has insufficient amplitude, XERR bit will be high. */
1466:.\Generated_Source\PSoC5/CyLib.c ****         CY_CLK_XMHZ_CSR_REG &= ~CY_CLK_XMHZ_CSR_XFB;
1467:.\Generated_Source\PSoC5/CyLib.c ****     }
1468:.\Generated_Source\PSoC5/CyLib.c **** 
1469:.\Generated_Source\PSoC5/CyLib.c **** 
1470:.\Generated_Source\PSoC5/CyLib.c ****     /*******************************************************************************
1471:.\Generated_Source\PSoC5/CyLib.c ****     * Function Name: CyXTAL_DisableErrStatus
1472:.\Generated_Source\PSoC5/CyLib.c ****     ********************************************************************************
1473:.\Generated_Source\PSoC5/CyLib.c ****     *
1474:.\Generated_Source\PSoC5/CyLib.c ****     * Summary:
1475:.\Generated_Source\PSoC5/CyLib.c ****     *  Disables the generation of the XERR status bit for the megahertz crystal.
1476:.\Generated_Source\PSoC5/CyLib.c ****     *  This function is not available for PSoC5.
1477:.\Generated_Source\PSoC5/CyLib.c ****     *
1478:.\Generated_Source\PSoC5/CyLib.c ****     * Parameters:
1479:.\Generated_Source\PSoC5/CyLib.c ****     *  None
1480:.\Generated_Source\PSoC5/CyLib.c ****     *
1481:.\Generated_Source\PSoC5/CyLib.c ****     * Return:
1482:.\Generated_Source\PSoC5/CyLib.c ****     *  None
1483:.\Generated_Source\PSoC5/CyLib.c ****     *
1484:.\Generated_Source\PSoC5/CyLib.c ****     *******************************************************************************/
1485:.\Generated_Source\PSoC5/CyLib.c ****     void CyXTAL_DisableErrStatus(void) 
1486:.\Generated_Source\PSoC5/CyLib.c ****     {
1487:.\Generated_Source\PSoC5/CyLib.c ****         /* If oscillator has insufficient amplitude, XERR bit will be high. */
1488:.\Generated_Source\PSoC5/CyLib.c ****         CY_CLK_XMHZ_CSR_REG |= CY_CLK_XMHZ_CSR_XFB;
1489:.\Generated_Source\PSoC5/CyLib.c ****     }
1490:.\Generated_Source\PSoC5/CyLib.c **** 
1491:.\Generated_Source\PSoC5/CyLib.c **** 
1492:.\Generated_Source\PSoC5/CyLib.c ****     /*******************************************************************************
1493:.\Generated_Source\PSoC5/CyLib.c ****     * Function Name: CyXTAL_ReadStatus
1494:.\Generated_Source\PSoC5/CyLib.c ****     ********************************************************************************
1495:.\Generated_Source\PSoC5/CyLib.c ****     *
1496:.\Generated_Source\PSoC5/CyLib.c ****     * Summary:
1497:.\Generated_Source\PSoC5/CyLib.c ****     *  Reads the XERR status bit for the megahertz crystal. This status bit is a
1498:.\Generated_Source\PSoC5/CyLib.c ****     *  sticky clear on read value. This function is not available for PSoC5.
1499:.\Generated_Source\PSoC5/CyLib.c ****     *
1500:.\Generated_Source\PSoC5/CyLib.c ****     * Parameters:
1501:.\Generated_Source\PSoC5/CyLib.c ****     *  None
1502:.\Generated_Source\PSoC5/CyLib.c ****     *
1503:.\Generated_Source\PSoC5/CyLib.c ****     * Return:
1504:.\Generated_Source\PSoC5/CyLib.c ****     *   Status
1505:.\Generated_Source\PSoC5/CyLib.c ****     *    0: No error
1506:.\Generated_Source\PSoC5/CyLib.c ****     *    1: Error
1507:.\Generated_Source\PSoC5/CyLib.c ****     *
1508:.\Generated_Source\PSoC5/CyLib.c ****     *******************************************************************************/
1509:.\Generated_Source\PSoC5/CyLib.c ****     uint8 CyXTAL_ReadStatus(void) 
ARM GAS  C:\Users\SUZUKI~1\AppData\Local\Temp\ccqvA6Qn.s 			page 48


1510:.\Generated_Source\PSoC5/CyLib.c ****     {
1511:.\Generated_Source\PSoC5/CyLib.c ****         /***************************************************************************
1512:.\Generated_Source\PSoC5/CyLib.c ****         * High output indicates oscillator failure. Only use this after start-up
1513:.\Generated_Source\PSoC5/CyLib.c ****         * interval is completed. This can be used for status and failure recovery.
1514:.\Generated_Source\PSoC5/CyLib.c ****         ***************************************************************************/
1515:.\Generated_Source\PSoC5/CyLib.c ****         return((0u != (CY_CLK_XMHZ_CSR_REG & CY_CLK_XMHZ_CSR_XERR)) ? 1u : 0u);
1516:.\Generated_Source\PSoC5/CyLib.c ****     }
1517:.\Generated_Source\PSoC5/CyLib.c **** 
1518:.\Generated_Source\PSoC5/CyLib.c **** 
1519:.\Generated_Source\PSoC5/CyLib.c ****     /*******************************************************************************
1520:.\Generated_Source\PSoC5/CyLib.c ****     * Function Name: CyXTAL_EnableFaultRecovery
1521:.\Generated_Source\PSoC5/CyLib.c ****     ********************************************************************************
1522:.\Generated_Source\PSoC5/CyLib.c ****     *
1523:.\Generated_Source\PSoC5/CyLib.c ****     * Summary:
1524:.\Generated_Source\PSoC5/CyLib.c ****     *  Enables the fault recovery circuit which will switch to the IMO in the case
1525:.\Generated_Source\PSoC5/CyLib.c ****     *  of a fault in the megahertz crystal circuit. The crystal must be up and
1526:.\Generated_Source\PSoC5/CyLib.c ****     *  running with the XERR bit at 0, before calling this function to prevent
1527:.\Generated_Source\PSoC5/CyLib.c ****     *  immediate fault switchover. This function is not available for PSoC5.
1528:.\Generated_Source\PSoC5/CyLib.c ****     *
1529:.\Generated_Source\PSoC5/CyLib.c ****     * Parameters:
1530:.\Generated_Source\PSoC5/CyLib.c ****     *  None
1531:.\Generated_Source\PSoC5/CyLib.c ****     *
1532:.\Generated_Source\PSoC5/CyLib.c ****     * Return:
1533:.\Generated_Source\PSoC5/CyLib.c ****     *  None
1534:.\Generated_Source\PSoC5/CyLib.c ****     *
1535:.\Generated_Source\PSoC5/CyLib.c ****     *******************************************************************************/
1536:.\Generated_Source\PSoC5/CyLib.c ****     void CyXTAL_EnableFaultRecovery(void) 
1537:.\Generated_Source\PSoC5/CyLib.c ****     {
1538:.\Generated_Source\PSoC5/CyLib.c ****         CY_CLK_XMHZ_CSR_REG |= CY_CLK_XMHZ_CSR_XPROT;
1539:.\Generated_Source\PSoC5/CyLib.c ****     }
1540:.\Generated_Source\PSoC5/CyLib.c **** 
1541:.\Generated_Source\PSoC5/CyLib.c **** 
1542:.\Generated_Source\PSoC5/CyLib.c ****     /*******************************************************************************
1543:.\Generated_Source\PSoC5/CyLib.c ****     * Function Name: CyXTAL_DisableFaultRecovery
1544:.\Generated_Source\PSoC5/CyLib.c ****     ********************************************************************************
1545:.\Generated_Source\PSoC5/CyLib.c ****     *
1546:.\Generated_Source\PSoC5/CyLib.c ****     * Summary:
1547:.\Generated_Source\PSoC5/CyLib.c ****     *  Disables the fault recovery circuit which will switch to the IMO in the case
1548:.\Generated_Source\PSoC5/CyLib.c ****     *  of a fault in the megahertz crystal circuit. This function is not available
1549:.\Generated_Source\PSoC5/CyLib.c ****     *  for PSoC5.
1550:.\Generated_Source\PSoC5/CyLib.c ****     *
1551:.\Generated_Source\PSoC5/CyLib.c ****     * Parameters:
1552:.\Generated_Source\PSoC5/CyLib.c ****     *  None
1553:.\Generated_Source\PSoC5/CyLib.c ****     *
1554:.\Generated_Source\PSoC5/CyLib.c ****     * Return:
1555:.\Generated_Source\PSoC5/CyLib.c ****     *  None
1556:.\Generated_Source\PSoC5/CyLib.c ****     *
1557:.\Generated_Source\PSoC5/CyLib.c ****     *******************************************************************************/
1558:.\Generated_Source\PSoC5/CyLib.c ****     void CyXTAL_DisableFaultRecovery(void) 
1559:.\Generated_Source\PSoC5/CyLib.c ****     {
1560:.\Generated_Source\PSoC5/CyLib.c ****         CY_CLK_XMHZ_CSR_REG &= ~CY_CLK_XMHZ_CSR_XPROT;
1561:.\Generated_Source\PSoC5/CyLib.c ****     }
1562:.\Generated_Source\PSoC5/CyLib.c **** 
1563:.\Generated_Source\PSoC5/CyLib.c **** #endif  /* (!CY_PSOC5A) */
1564:.\Generated_Source\PSoC5/CyLib.c **** 
1565:.\Generated_Source\PSoC5/CyLib.c **** /*******************************************************************************
1566:.\Generated_Source\PSoC5/CyLib.c **** * Function Name: CyXTAL_SetStartup
ARM GAS  C:\Users\SUZUKI~1\AppData\Local\Temp\ccqvA6Qn.s 			page 49


1567:.\Generated_Source\PSoC5/CyLib.c **** ********************************************************************************
1568:.\Generated_Source\PSoC5/CyLib.c **** *
1569:.\Generated_Source\PSoC5/CyLib.c **** * Summary:
1570:.\Generated_Source\PSoC5/CyLib.c **** *  Sets the startup settings for the crystal. Logic model outputs a frequency
1571:.\Generated_Source\PSoC5/CyLib.c **** *  (setting + 4) MHz when enabled.
1572:.\Generated_Source\PSoC5/CyLib.c **** *
1573:.\Generated_Source\PSoC5/CyLib.c **** *  This is artificial as the actual frequency is determined by an attached
1574:.\Generated_Source\PSoC5/CyLib.c **** *  external crystal.
1575:.\Generated_Source\PSoC5/CyLib.c **** *
1576:.\Generated_Source\PSoC5/CyLib.c **** * Parameters:
1577:.\Generated_Source\PSoC5/CyLib.c **** *  setting: Valid range [0-31].
1578:.\Generated_Source\PSoC5/CyLib.c **** *   Value is dependent on the frequency and quality of the crystal being used.
1579:.\Generated_Source\PSoC5/CyLib.c **** *   Refer to the device TRM and datasheet for more information.
1580:.\Generated_Source\PSoC5/CyLib.c **** *
1581:.\Generated_Source\PSoC5/CyLib.c **** * Return:
1582:.\Generated_Source\PSoC5/CyLib.c **** *  None
1583:.\Generated_Source\PSoC5/CyLib.c **** *
1584:.\Generated_Source\PSoC5/CyLib.c **** *******************************************************************************/
1585:.\Generated_Source\PSoC5/CyLib.c **** void CyXTAL_SetStartup(uint8 setting) 
1586:.\Generated_Source\PSoC5/CyLib.c **** {
 1167              		.loc 1 1586 0
 1168              		.cfi_startproc
 1169              		@ args = 0, pretend = 0, frame = 0
 1170              		@ frame_needed = 0, uses_anonymous_args = 0
 1171              		@ link register save eliminated.
 1172              	.LVL48:
1587:.\Generated_Source\PSoC5/CyLib.c ****     CY_CLK_XMHZ_CFG0_REG = (CY_CLK_XMHZ_CFG0_REG & ~CY_CLK_XMHZ_CFG0_XCFG_MASK) |
 1173              		.loc 1 1587 0
 1174 0000 044B     		ldr	r3, .L159
 1175 0002 00F01F00 		and	r0, r0, #31
 1176              	.LVL49:
 1177 0006 1A78     		ldrb	r2, [r3, #0]	@ zero_extendqisi2
 1178 0008 02F0E002 		and	r2, r2, #224
 1179 000c 40EA0202 		orr	r2, r0, r2
 1180 0010 1A70     		strb	r2, [r3, #0]
1588:.\Generated_Source\PSoC5/CyLib.c ****                            (setting & CY_CLK_XMHZ_CFG0_XCFG_MASK);
1589:.\Generated_Source\PSoC5/CyLib.c **** }
 1181              		.loc 1 1589 0
 1182 0012 7047     		bx	lr
 1183              	.L160:
 1184              		.align	2
 1185              	.L159:
 1186 0014 12420040 		.word	1073758738
 1187              		.cfi_endproc
 1188              	.LFE31:
 1189              		.size	CyXTAL_SetStartup, .-CyXTAL_SetStartup
 1190              		.section	.text.CyHalt,"ax",%progbits
 1191              		.align	1
 1192              		.global	CyHalt
 1193              		.thumb
 1194              		.thumb_func
 1195              		.type	CyHalt, %function
 1196              	CyHalt:
 1197              	.LFB32:
1590:.\Generated_Source\PSoC5/CyLib.c **** 
1591:.\Generated_Source\PSoC5/CyLib.c **** 
1592:.\Generated_Source\PSoC5/CyLib.c **** #if(CY_PSOC3 || CY_PSOC5LP)
ARM GAS  C:\Users\SUZUKI~1\AppData\Local\Temp\ccqvA6Qn.s 			page 50


1593:.\Generated_Source\PSoC5/CyLib.c ****     /*******************************************************************************
1594:.\Generated_Source\PSoC5/CyLib.c ****     * Function Name: CyXTAL_SetFbVoltage
1595:.\Generated_Source\PSoC5/CyLib.c ****     ********************************************************************************
1596:.\Generated_Source\PSoC5/CyLib.c ****     *
1597:.\Generated_Source\PSoC5/CyLib.c ****     * Summary:
1598:.\Generated_Source\PSoC5/CyLib.c ****     *  Sets the feedback reference voltage to use for the crystal circuit.
1599:.\Generated_Source\PSoC5/CyLib.c ****     *  This function is only available for PSoC3 and PSoC 5LP.
1600:.\Generated_Source\PSoC5/CyLib.c ****     *
1601:.\Generated_Source\PSoC5/CyLib.c ****     * Parameters:
1602:.\Generated_Source\PSoC5/CyLib.c ****     *  setting: Valid range [0-15].
1603:.\Generated_Source\PSoC5/CyLib.c ****     *  Refer to the device TRM and datasheet for more information.
1604:.\Generated_Source\PSoC5/CyLib.c ****     *
1605:.\Generated_Source\PSoC5/CyLib.c ****     * Return:
1606:.\Generated_Source\PSoC5/CyLib.c ****     *  None
1607:.\Generated_Source\PSoC5/CyLib.c ****     *
1608:.\Generated_Source\PSoC5/CyLib.c ****     *******************************************************************************/
1609:.\Generated_Source\PSoC5/CyLib.c ****     void CyXTAL_SetFbVoltage(uint8 setting) 
1610:.\Generated_Source\PSoC5/CyLib.c ****     {
1611:.\Generated_Source\PSoC5/CyLib.c ****         CY_CLK_XMHZ_CFG1_REG = ((CY_CLK_XMHZ_CFG1_REG & ~CY_CLK_XMHZ_CFG1_VREF_FB_MASK) |
1612:.\Generated_Source\PSoC5/CyLib.c ****                                 (setting & CY_CLK_XMHZ_CFG1_VREF_FB_MASK));
1613:.\Generated_Source\PSoC5/CyLib.c ****     }
1614:.\Generated_Source\PSoC5/CyLib.c **** 
1615:.\Generated_Source\PSoC5/CyLib.c **** 
1616:.\Generated_Source\PSoC5/CyLib.c ****     /*******************************************************************************
1617:.\Generated_Source\PSoC5/CyLib.c ****     * Function Name: CyXTAL_SetWdVoltage
1618:.\Generated_Source\PSoC5/CyLib.c ****     ********************************************************************************
1619:.\Generated_Source\PSoC5/CyLib.c ****     *
1620:.\Generated_Source\PSoC5/CyLib.c ****     * Summary:
1621:.\Generated_Source\PSoC5/CyLib.c ****     *  Sets the reference voltage used by the watchdog to detect a failure in the
1622:.\Generated_Source\PSoC5/CyLib.c ****     *  crystal circuit. This function is only available for PSoC3 and PSoC 5LP.
1623:.\Generated_Source\PSoC5/CyLib.c ****     *
1624:.\Generated_Source\PSoC5/CyLib.c ****     * Parameters:
1625:.\Generated_Source\PSoC5/CyLib.c ****     *  setting: Valid range [0-7].
1626:.\Generated_Source\PSoC5/CyLib.c ****     *  Refer to the device TRM and datasheet for more information.
1627:.\Generated_Source\PSoC5/CyLib.c ****     *
1628:.\Generated_Source\PSoC5/CyLib.c ****     * Return:
1629:.\Generated_Source\PSoC5/CyLib.c ****     *  None
1630:.\Generated_Source\PSoC5/CyLib.c ****     *
1631:.\Generated_Source\PSoC5/CyLib.c ****     *******************************************************************************/
1632:.\Generated_Source\PSoC5/CyLib.c ****     void CyXTAL_SetWdVoltage(uint8 setting) 
1633:.\Generated_Source\PSoC5/CyLib.c ****     {
1634:.\Generated_Source\PSoC5/CyLib.c ****         CY_CLK_XMHZ_CFG1_REG = ((CY_CLK_XMHZ_CFG1_REG & ~CY_CLK_XMHZ_CFG1_VREF_WD_MASK) |
1635:.\Generated_Source\PSoC5/CyLib.c ****                                 ((setting << 4) & CY_CLK_XMHZ_CFG1_VREF_WD_MASK));
1636:.\Generated_Source\PSoC5/CyLib.c ****     }
1637:.\Generated_Source\PSoC5/CyLib.c **** 
1638:.\Generated_Source\PSoC5/CyLib.c **** #endif /* (CY_PSOC3 || CY_PSOC5LP) */
1639:.\Generated_Source\PSoC5/CyLib.c **** 
1640:.\Generated_Source\PSoC5/CyLib.c **** 
1641:.\Generated_Source\PSoC5/CyLib.c **** /*******************************************************************************
1642:.\Generated_Source\PSoC5/CyLib.c **** * Function Name: CyHalt
1643:.\Generated_Source\PSoC5/CyLib.c **** ********************************************************************************
1644:.\Generated_Source\PSoC5/CyLib.c **** *
1645:.\Generated_Source\PSoC5/CyLib.c **** * Summary:
1646:.\Generated_Source\PSoC5/CyLib.c **** *  Halts the CPU.
1647:.\Generated_Source\PSoC5/CyLib.c **** *
1648:.\Generated_Source\PSoC5/CyLib.c **** * Parameters:
1649:.\Generated_Source\PSoC5/CyLib.c **** *  uint8 reason: Value to be used during debugging.
ARM GAS  C:\Users\SUZUKI~1\AppData\Local\Temp\ccqvA6Qn.s 			page 51


1650:.\Generated_Source\PSoC5/CyLib.c **** *
1651:.\Generated_Source\PSoC5/CyLib.c **** * Return:
1652:.\Generated_Source\PSoC5/CyLib.c **** *  None
1653:.\Generated_Source\PSoC5/CyLib.c **** *
1654:.\Generated_Source\PSoC5/CyLib.c **** *******************************************************************************/
1655:.\Generated_Source\PSoC5/CyLib.c **** void CyHalt(uint8 reason) CYREENTRANT
1656:.\Generated_Source\PSoC5/CyLib.c **** {
 1198              		.loc 1 1656 0
 1199              		.cfi_startproc
 1200              		@ args = 0, pretend = 0, frame = 0
 1201              		@ frame_needed = 0, uses_anonymous_args = 0
 1202              		@ link register save eliminated.
 1203              	.LVL50:
1657:.\Generated_Source\PSoC5/CyLib.c ****     reason = reason;
1658:.\Generated_Source\PSoC5/CyLib.c **** 
1659:.\Generated_Source\PSoC5/CyLib.c ****     #if defined (__ARMCC_VERSION)
1660:.\Generated_Source\PSoC5/CyLib.c ****         __breakpoint(0x0);
1661:.\Generated_Source\PSoC5/CyLib.c ****     #elif defined(__GNUC__)
1662:.\Generated_Source\PSoC5/CyLib.c ****         __asm("    bkpt    1");
 1204              		.loc 1 1662 0
 1205              	@ 1662 ".\Generated_Source\PSoC5\CyLib.c" 1
 1206 0000 01BE     		    bkpt    1
 1207              	@ 0 "" 2
1663:.\Generated_Source\PSoC5/CyLib.c ****     #elif defined(__C51__)
1664:.\Generated_Source\PSoC5/CyLib.c ****         CYDEV_HALT_CPU;
1665:.\Generated_Source\PSoC5/CyLib.c ****     #endif  /* (__ARMCC_VERSION) */
1666:.\Generated_Source\PSoC5/CyLib.c **** }
 1208              		.loc 1 1666 0
 1209              		.thumb
 1210 0002 7047     		bx	lr
 1211              		.cfi_endproc
 1212              	.LFE32:
 1213              		.size	CyHalt, .-CyHalt
 1214              		.section	.text.CySoftwareReset,"ax",%progbits
 1215              		.align	1
 1216              		.global	CySoftwareReset
 1217              		.thumb
 1218              		.thumb_func
 1219              		.type	CySoftwareReset, %function
 1220              	CySoftwareReset:
 1221              	.LFB33:
1667:.\Generated_Source\PSoC5/CyLib.c **** 
1668:.\Generated_Source\PSoC5/CyLib.c **** 
1669:.\Generated_Source\PSoC5/CyLib.c **** /*******************************************************************************
1670:.\Generated_Source\PSoC5/CyLib.c **** * Function Name: CySoftwareReset
1671:.\Generated_Source\PSoC5/CyLib.c **** ********************************************************************************
1672:.\Generated_Source\PSoC5/CyLib.c **** *
1673:.\Generated_Source\PSoC5/CyLib.c **** * Summary:
1674:.\Generated_Source\PSoC5/CyLib.c **** *  Forces a software reset of the device.
1675:.\Generated_Source\PSoC5/CyLib.c **** *
1676:.\Generated_Source\PSoC5/CyLib.c **** * Parameters:
1677:.\Generated_Source\PSoC5/CyLib.c **** *  None
1678:.\Generated_Source\PSoC5/CyLib.c **** *
1679:.\Generated_Source\PSoC5/CyLib.c **** * Return:
1680:.\Generated_Source\PSoC5/CyLib.c **** *  None
1681:.\Generated_Source\PSoC5/CyLib.c **** *
1682:.\Generated_Source\PSoC5/CyLib.c **** *******************************************************************************/
ARM GAS  C:\Users\SUZUKI~1\AppData\Local\Temp\ccqvA6Qn.s 			page 52


1683:.\Generated_Source\PSoC5/CyLib.c **** void CySoftwareReset(void) 
1684:.\Generated_Source\PSoC5/CyLib.c **** {
 1222              		.loc 1 1684 0
 1223              		.cfi_startproc
 1224              		@ args = 0, pretend = 0, frame = 0
 1225              		@ frame_needed = 0, uses_anonymous_args = 0
 1226              		@ link register save eliminated.
1685:.\Generated_Source\PSoC5/CyLib.c ****     /* Perform software reset */
1686:.\Generated_Source\PSoC5/CyLib.c ****     *RESET_CR2 = 0x1;
 1227              		.loc 1 1686 0
 1228 0000 014B     		ldr	r3, .L165
 1229 0002 0122     		movs	r2, #1
 1230 0004 1A70     		strb	r2, [r3, #0]
1687:.\Generated_Source\PSoC5/CyLib.c **** }
 1231              		.loc 1 1687 0
 1232 0006 7047     		bx	lr
 1233              	.L166:
 1234              		.align	2
 1235              	.L165:
 1236 0008 F6460040 		.word	1073759990
 1237              		.cfi_endproc
 1238              	.LFE33:
 1239              		.size	CySoftwareReset, .-CySoftwareReset
 1240              		.section	.text.CyDelayFreq,"ax",%progbits
 1241              		.align	1
 1242              		.global	CyDelayFreq
 1243              		.thumb
 1244              		.thumb_func
 1245              		.type	CyDelayFreq, %function
 1246              	CyDelayFreq:
 1247              	.LFB36:
1688:.\Generated_Source\PSoC5/CyLib.c **** 
1689:.\Generated_Source\PSoC5/CyLib.c **** 
1690:.\Generated_Source\PSoC5/CyLib.c **** /*******************************************************************************
1691:.\Generated_Source\PSoC5/CyLib.c **** * Function Name: CyDelay
1692:.\Generated_Source\PSoC5/CyLib.c **** ********************************************************************************
1693:.\Generated_Source\PSoC5/CyLib.c **** *
1694:.\Generated_Source\PSoC5/CyLib.c **** * Summary:
1695:.\Generated_Source\PSoC5/CyLib.c **** *  Blocks for milliseconds.
1696:.\Generated_Source\PSoC5/CyLib.c **** *
1697:.\Generated_Source\PSoC5/CyLib.c **** *  Note:
1698:.\Generated_Source\PSoC5/CyLib.c **** *  CyDelay has been implemented with the instruction cache assumed enabled. When
1699:.\Generated_Source\PSoC5/CyLib.c **** *  instruction cache is disabled on PSoC5, CyDelay will be two times larger. For
1700:.\Generated_Source\PSoC5/CyLib.c **** *  example, with instruction cache disabled CyDelay(100) would result in about
1701:.\Generated_Source\PSoC5/CyLib.c **** *  200 ms delay instead of 100 ms.
1702:.\Generated_Source\PSoC5/CyLib.c **** *
1703:.\Generated_Source\PSoC5/CyLib.c **** * Parameters:
1704:.\Generated_Source\PSoC5/CyLib.c **** *  milliseconds: number of milliseconds to delay.
1705:.\Generated_Source\PSoC5/CyLib.c **** *
1706:.\Generated_Source\PSoC5/CyLib.c **** * Return:
1707:.\Generated_Source\PSoC5/CyLib.c **** *   None
1708:.\Generated_Source\PSoC5/CyLib.c **** *
1709:.\Generated_Source\PSoC5/CyLib.c **** *******************************************************************************/
1710:.\Generated_Source\PSoC5/CyLib.c **** void CyDelay(uint32 milliseconds) CYREENTRANT
1711:.\Generated_Source\PSoC5/CyLib.c **** {
1712:.\Generated_Source\PSoC5/CyLib.c ****     while (milliseconds > 32768)
1713:.\Generated_Source\PSoC5/CyLib.c ****     {
ARM GAS  C:\Users\SUZUKI~1\AppData\Local\Temp\ccqvA6Qn.s 			page 53


1714:.\Generated_Source\PSoC5/CyLib.c ****         /***********************************************************************
1715:.\Generated_Source\PSoC5/CyLib.c ****         * This loop prevents overflow.At 100MHz, milliseconds * delay_freq_khz
1716:.\Generated_Source\PSoC5/CyLib.c ****         * overflows at about 42 seconds.
1717:.\Generated_Source\PSoC5/CyLib.c ****         ***********************************************************************/
1718:.\Generated_Source\PSoC5/CyLib.c ****         CyDelayCycles(cydelay_32k_ms);
1719:.\Generated_Source\PSoC5/CyLib.c ****         milliseconds -= 32768;
1720:.\Generated_Source\PSoC5/CyLib.c ****     }
1721:.\Generated_Source\PSoC5/CyLib.c **** 
1722:.\Generated_Source\PSoC5/CyLib.c ****     CyDelayCycles(milliseconds * cydelay_freq_khz);
1723:.\Generated_Source\PSoC5/CyLib.c **** }
1724:.\Generated_Source\PSoC5/CyLib.c **** 
1725:.\Generated_Source\PSoC5/CyLib.c **** 
1726:.\Generated_Source\PSoC5/CyLib.c **** #if(!CY_PSOC3)
1727:.\Generated_Source\PSoC5/CyLib.c **** 
1728:.\Generated_Source\PSoC5/CyLib.c ****     /* For PSoC3 devices function is defined in CyBootAsmKeil.a51 file */
1729:.\Generated_Source\PSoC5/CyLib.c **** 
1730:.\Generated_Source\PSoC5/CyLib.c ****     /*******************************************************************************
1731:.\Generated_Source\PSoC5/CyLib.c ****     * Function Name: CyDelayUs
1732:.\Generated_Source\PSoC5/CyLib.c ****     ********************************************************************************
1733:.\Generated_Source\PSoC5/CyLib.c ****     *
1734:.\Generated_Source\PSoC5/CyLib.c ****     * Summary:
1735:.\Generated_Source\PSoC5/CyLib.c ****     *  Blocks for microseconds.
1736:.\Generated_Source\PSoC5/CyLib.c ****     *
1737:.\Generated_Source\PSoC5/CyLib.c ****     *  Note:
1738:.\Generated_Source\PSoC5/CyLib.c ****     *   CyDelay has been implemented with the instruction cache assumed enabled.
1739:.\Generated_Source\PSoC5/CyLib.c ****     *   When instruction cache is disabled on PSoC5, CyDelayUs will be two times
1740:.\Generated_Source\PSoC5/CyLib.c ****     *   larger. Ex: With instruction cache disabled CyDelayUs(100) would result
1741:.\Generated_Source\PSoC5/CyLib.c ****     *   in about 200us delay instead of 100us.
1742:.\Generated_Source\PSoC5/CyLib.c ****     *
1743:.\Generated_Source\PSoC5/CyLib.c ****     * Parameters:
1744:.\Generated_Source\PSoC5/CyLib.c ****     *  uint16 microseconds: number of microseconds to delay.
1745:.\Generated_Source\PSoC5/CyLib.c ****     *
1746:.\Generated_Source\PSoC5/CyLib.c ****     * Return:
1747:.\Generated_Source\PSoC5/CyLib.c ****     *  None
1748:.\Generated_Source\PSoC5/CyLib.c ****     *
1749:.\Generated_Source\PSoC5/CyLib.c ****     * Side Effects:
1750:.\Generated_Source\PSoC5/CyLib.c ****     *  CyDelayUS has been implemented with the instruction cache assumed enabled.
1751:.\Generated_Source\PSoC5/CyLib.c ****     *  When instruction cache is disabled on PSoC 5, CyDelayUs will be two times
1752:.\Generated_Source\PSoC5/CyLib.c ****     *  larger. For example, with instruction cache disabled CyDelayUs(100) would
1753:.\Generated_Source\PSoC5/CyLib.c ****     *  result in about 200 us delay instead of 100 us.
1754:.\Generated_Source\PSoC5/CyLib.c ****     *
1755:.\Generated_Source\PSoC5/CyLib.c ****     *  If the bus clock frequency is a small non-integer number, the actual delay
1756:.\Generated_Source\PSoC5/CyLib.c ****     *  can be up to twice as long as the nominal value. The actual delay cannot be
1757:.\Generated_Source\PSoC5/CyLib.c ****     *  shorter than the nominal one.
1758:.\Generated_Source\PSoC5/CyLib.c ****     *******************************************************************************/
1759:.\Generated_Source\PSoC5/CyLib.c ****     void CyDelayUs(uint16 microseconds) CYREENTRANT
1760:.\Generated_Source\PSoC5/CyLib.c ****     {
1761:.\Generated_Source\PSoC5/CyLib.c ****         CyDelayCycles((uint32)microseconds * cydelay_freq_mhz);
1762:.\Generated_Source\PSoC5/CyLib.c ****     }
1763:.\Generated_Source\PSoC5/CyLib.c **** 
1764:.\Generated_Source\PSoC5/CyLib.c **** #endif  /* (!CY_PSOC3) */
1765:.\Generated_Source\PSoC5/CyLib.c **** 
1766:.\Generated_Source\PSoC5/CyLib.c **** 
1767:.\Generated_Source\PSoC5/CyLib.c **** /*******************************************************************************
1768:.\Generated_Source\PSoC5/CyLib.c **** * Function Name: CyDelayFreq
1769:.\Generated_Source\PSoC5/CyLib.c **** ********************************************************************************
1770:.\Generated_Source\PSoC5/CyLib.c **** *
ARM GAS  C:\Users\SUZUKI~1\AppData\Local\Temp\ccqvA6Qn.s 			page 54


1771:.\Generated_Source\PSoC5/CyLib.c **** * Summary:
1772:.\Generated_Source\PSoC5/CyLib.c **** *  Sets clock frequency for CyDelay.
1773:.\Generated_Source\PSoC5/CyLib.c **** *
1774:.\Generated_Source\PSoC5/CyLib.c **** * Parameters:
1775:.\Generated_Source\PSoC5/CyLib.c **** *  freq: Frequency of bus clock in Hertz.
1776:.\Generated_Source\PSoC5/CyLib.c **** *
1777:.\Generated_Source\PSoC5/CyLib.c **** * Return:
1778:.\Generated_Source\PSoC5/CyLib.c **** *  None
1779:.\Generated_Source\PSoC5/CyLib.c **** *
1780:.\Generated_Source\PSoC5/CyLib.c **** *******************************************************************************/
1781:.\Generated_Source\PSoC5/CyLib.c **** void CyDelayFreq(uint32 freq) CYREENTRANT
1782:.\Generated_Source\PSoC5/CyLib.c **** {
 1248              		.loc 1 1782 0
 1249              		.cfi_startproc
 1250              		@ args = 0, pretend = 0, frame = 0
 1251              		@ frame_needed = 0, uses_anonymous_args = 0
 1252              		@ link register save eliminated.
 1253              	.LVL51:
1783:.\Generated_Source\PSoC5/CyLib.c ****     if (freq != 0u)
 1254              		.loc 1 1783 0
 1255 0000 0246     		mov	r2, r0
 1256 0002 0B4B     		ldr	r3, .L172
 1257 0004 00B9     		cbnz	r0, .L171
1784:.\Generated_Source\PSoC5/CyLib.c ****     {
1785:.\Generated_Source\PSoC5/CyLib.c ****         cydelay_freq_hz = freq;
1786:.\Generated_Source\PSoC5/CyLib.c ****     }
1787:.\Generated_Source\PSoC5/CyLib.c ****     else
1788:.\Generated_Source\PSoC5/CyLib.c ****     {
1789:.\Generated_Source\PSoC5/CyLib.c ****         cydelay_freq_hz = BCLK__BUS_CLK__HZ;
 1258              		.loc 1 1789 0
 1259 0006 0B4A     		ldr	r2, .L172+4
 1260              	.LVL52:
 1261              	.L171:
 1262 0008 1A60     		str	r2, [r3, #0]
1790:.\Generated_Source\PSoC5/CyLib.c ****     }
1791:.\Generated_Source\PSoC5/CyLib.c **** 
1792:.\Generated_Source\PSoC5/CyLib.c ****     cydelay_freq_mhz = (uint8)((cydelay_freq_hz + 999999u) / 1000000u);
 1263              		.loc 1 1792 0
 1264 000a 094B     		ldr	r3, .L172
 1265 000c 0A49     		ldr	r1, .L172+8
 1266 000e 1A68     		ldr	r2, [r3, #0]
 1267 0010 0A48     		ldr	r0, .L172+12
 1268              	.LVL53:
 1269 0012 5118     		adds	r1, r2, r1
 1270 0014 B1FBF0F1 		udiv	r1, r1, r0
1793:.\Generated_Source\PSoC5/CyLib.c ****     cydelay_freq_khz = (cydelay_freq_hz + 999u) / 1000u;
 1271              		.loc 1 1793 0
 1272 0018 02F57872 		add	r2, r2, #992
 1273              		.loc 1 1792 0
 1274 001c 1971     		strb	r1, [r3, #4]
 1275              		.loc 1 1793 0
 1276 001e 0732     		adds	r2, r2, #7
 1277 0020 4FF47A71 		mov	r1, #1000
 1278 0024 B2FBF1F2 		udiv	r2, r2, r1
 1279 0028 9A60     		str	r2, [r3, #8]
1794:.\Generated_Source\PSoC5/CyLib.c ****     cydelay_32k_ms   = 32768 * cydelay_freq_khz;
 1280              		.loc 1 1794 0
ARM GAS  C:\Users\SUZUKI~1\AppData\Local\Temp\ccqvA6Qn.s 			page 55


 1281 002a D203     		lsls	r2, r2, #15
 1282 002c DA60     		str	r2, [r3, #12]
1795:.\Generated_Source\PSoC5/CyLib.c **** }
 1283              		.loc 1 1795 0
 1284 002e 7047     		bx	lr
 1285              	.L173:
 1286              		.align	2
 1287              	.L172:
 1288 0030 00000000 		.word	.LANCHOR0
 1289 0034 00366E01 		.word	24000000
 1290 0038 3F420F00 		.word	999999
 1291 003c 40420F00 		.word	1000000
 1292              		.cfi_endproc
 1293              	.LFE36:
 1294              		.size	CyDelayFreq, .-CyDelayFreq
 1295              		.section	.text.CyWdtStart,"ax",%progbits
 1296              		.align	1
 1297              		.global	CyWdtStart
 1298              		.thumb
 1299              		.thumb_func
 1300              		.type	CyWdtStart, %function
 1301              	CyWdtStart:
 1302              	.LFB37:
1796:.\Generated_Source\PSoC5/CyLib.c **** 
1797:.\Generated_Source\PSoC5/CyLib.c **** 
1798:.\Generated_Source\PSoC5/CyLib.c **** /*******************************************************************************
1799:.\Generated_Source\PSoC5/CyLib.c **** * Function Name: CyWdtStart
1800:.\Generated_Source\PSoC5/CyLib.c **** ********************************************************************************
1801:.\Generated_Source\PSoC5/CyLib.c **** *
1802:.\Generated_Source\PSoC5/CyLib.c **** * Summary:
1803:.\Generated_Source\PSoC5/CyLib.c **** *  Enables the watchdog timer.
1804:.\Generated_Source\PSoC5/CyLib.c **** *
1805:.\Generated_Source\PSoC5/CyLib.c **** *  The timer is configured for the specified count interval, the central
1806:.\Generated_Source\PSoC5/CyLib.c **** *  timewheel is cleared, the setting for low power mode is configured and the
1807:.\Generated_Source\PSoC5/CyLib.c **** *  watchdog timer is enabled.
1808:.\Generated_Source\PSoC5/CyLib.c **** *
1809:.\Generated_Source\PSoC5/CyLib.c **** *  Once enabled the watchdog cannot be disabled. The watchdog counts each time
1810:.\Generated_Source\PSoC5/CyLib.c **** *  the Central Time Wheel (CTW) reaches the period specified. The watchdog must
1811:.\Generated_Source\PSoC5/CyLib.c **** *  be cleared using the CyWdtClear() function before three ticks of the watchdog
1812:.\Generated_Source\PSoC5/CyLib.c **** *  timer occur. The CTW is free running, so this will occur after between 2 and
1813:.\Generated_Source\PSoC5/CyLib.c **** *  3 timer periods elapse.
1814:.\Generated_Source\PSoC5/CyLib.c **** *
1815:.\Generated_Source\PSoC5/CyLib.c **** *  PSoC5: The watchdog timer should not be used during sleep modes. Since the
1816:.\Generated_Source\PSoC5/CyLib.c **** *  WDT cannot be disabled after it is enabled, the WDT timeout period can be
1817:.\Generated_Source\PSoC5/CyLib.c **** *  set to be greater than the sleep wakeup period, then feed the dog on each
1818:.\Generated_Source\PSoC5/CyLib.c **** *  wakeup from Sleep.
1819:.\Generated_Source\PSoC5/CyLib.c **** *
1820:.\Generated_Source\PSoC5/CyLib.c **** * Parameters:
1821:.\Generated_Source\PSoC5/CyLib.c **** *  ticks: One of the four available timer periods. Once WDT enabled, the
1822:.\Generated_Source\PSoC5/CyLib.c ****    interval cannot be changed.
1823:.\Generated_Source\PSoC5/CyLib.c **** *         CYWDT_2_TICKS     -     4 - 6     ms
1824:.\Generated_Source\PSoC5/CyLib.c **** *         CYWDT_16_TICKS    -    32 - 48    ms
1825:.\Generated_Source\PSoC5/CyLib.c **** *         CYWDT_128_TICKS   -   256 - 384   ms
1826:.\Generated_Source\PSoC5/CyLib.c **** *         CYWDT_1024_TICKS  - 2.048 - 3.072 s
1827:.\Generated_Source\PSoC5/CyLib.c **** *
1828:.\Generated_Source\PSoC5/CyLib.c **** *  lpMode: Low power mode configuration. This parameter is ignored for PSoC 5.
1829:.\Generated_Source\PSoC5/CyLib.c **** *          The WDT always acts as if CYWDT_LPMODE_NOCHANGE is passed.
ARM GAS  C:\Users\SUZUKI~1\AppData\Local\Temp\ccqvA6Qn.s 			page 56


1830:.\Generated_Source\PSoC5/CyLib.c **** *
1831:.\Generated_Source\PSoC5/CyLib.c **** *          CYWDT_LPMODE_NOCHANGE - No Change
1832:.\Generated_Source\PSoC5/CyLib.c **** *          CYWDT_LPMODE_MAXINTER - Switch to longest timer mode during low power
1833:.\Generated_Source\PSoC5/CyLib.c **** *                                 mode
1834:.\Generated_Source\PSoC5/CyLib.c **** *          CYWDT_LPMODE_DISABLED - Disable WDT during low power mode
1835:.\Generated_Source\PSoC5/CyLib.c **** *
1836:.\Generated_Source\PSoC5/CyLib.c **** * Return:
1837:.\Generated_Source\PSoC5/CyLib.c **** *  None
1838:.\Generated_Source\PSoC5/CyLib.c **** *
1839:.\Generated_Source\PSoC5/CyLib.c **** * Side Effects:
1840:.\Generated_Source\PSoC5/CyLib.c **** *  PSoC5: The ILO 1 KHz must be enabled for proper WDT operation. Stopping the
1841:.\Generated_Source\PSoC5/CyLib.c **** *  ILO 1 kHz could break the active WDT functionality.
1842:.\Generated_Source\PSoC5/CyLib.c **** *
1843:.\Generated_Source\PSoC5/CyLib.c **** *******************************************************************************/
1844:.\Generated_Source\PSoC5/CyLib.c **** void CyWdtStart(uint8 ticks, uint8 lpMode) 
1845:.\Generated_Source\PSoC5/CyLib.c **** {
 1303              		.loc 1 1845 0
 1304              		.cfi_startproc
 1305              		@ args = 0, pretend = 0, frame = 0
 1306              		@ frame_needed = 0, uses_anonymous_args = 0
 1307              	.LVL54:
 1308 0000 10B5     		push	{r4, lr}
 1309              	.LCFI3:
 1310              		.cfi_def_cfa_offset 8
 1311              		.loc 1 1845 0
 1312 0002 0446     		mov	r4, r0
 1313              		.cfi_offset 14, -4
 1314              		.cfi_offset 4, -8
1846:.\Generated_Source\PSoC5/CyLib.c ****     #if(CY_PSOC5A)
1847:.\Generated_Source\PSoC5/CyLib.c ****         CyILO_Start1K();
 1315              		.loc 1 1847 0
 1316 0004 FFF7FEFF 		bl	CyILO_Start1K
 1317              	.LVL55:
1848:.\Generated_Source\PSoC5/CyLib.c ****     #endif  /* (CY_PSOC5A) */
1849:.\Generated_Source\PSoC5/CyLib.c **** 
1850:.\Generated_Source\PSoC5/CyLib.c ****     /* Set WDT interval */
1851:.\Generated_Source\PSoC5/CyLib.c ****     CY_WDT_CFG_REG = (CY_WDT_CFG_REG & ~CY_WDT_CFG_INTERVAL_MASK) | (ticks & CY_WDT_CFG_INTERVAL_MA
 1318              		.loc 1 1851 0
 1319 0008 0A4B     		ldr	r3, .L176
 1320 000a 04F00300 		and	r0, r4, #3
 1321 000e 1A78     		ldrb	r2, [r3, #0]	@ zero_extendqisi2
 1322 0010 02F0FC02 		and	r2, r2, #252
 1323 0014 1043     		orrs	r0, r0, r2
 1324 0016 1870     		strb	r0, [r3, #0]
1852:.\Generated_Source\PSoC5/CyLib.c **** 
1853:.\Generated_Source\PSoC5/CyLib.c ****     /* Reset CTW to ensure that first watchdog period is full */
1854:.\Generated_Source\PSoC5/CyLib.c ****     CY_WDT_CFG_REG |= CY_WDT_CFG_CTW_RESET;
 1325              		.loc 1 1854 0
 1326 0018 1A78     		ldrb	r2, [r3, #0]	@ zero_extendqisi2
 1327 001a 42F08002 		orr	r2, r2, #128
 1328 001e 1A70     		strb	r2, [r3, #0]
1855:.\Generated_Source\PSoC5/CyLib.c ****     CY_WDT_CFG_REG &= ~CY_WDT_CFG_CTW_RESET;
 1329              		.loc 1 1855 0
 1330 0020 1A78     		ldrb	r2, [r3, #0]	@ zero_extendqisi2
 1331 0022 02F07F02 		and	r2, r2, #127
 1332 0026 1A70     		strb	r2, [r3, #0]
1856:.\Generated_Source\PSoC5/CyLib.c **** 
ARM GAS  C:\Users\SUZUKI~1\AppData\Local\Temp\ccqvA6Qn.s 			page 57


1857:.\Generated_Source\PSoC5/CyLib.c ****     #if(!CY_PSOC5A)
1858:.\Generated_Source\PSoC5/CyLib.c **** 
1859:.\Generated_Source\PSoC5/CyLib.c ****         /* Setting the low power mode */
1860:.\Generated_Source\PSoC5/CyLib.c ****         CY_WDT_CFG_REG = ((lpMode << CY_WDT_CFG_LPMODE_SHIFT) & CY_WDT_CFG_LPMODE_MASK) |
1861:.\Generated_Source\PSoC5/CyLib.c ****                           (CY_WDT_CFG_REG & ~CY_WDT_CFG_LPMODE_MASK);
1862:.\Generated_Source\PSoC5/CyLib.c ****     #else
1863:.\Generated_Source\PSoC5/CyLib.c **** 
1864:.\Generated_Source\PSoC5/CyLib.c ****         /* To avoid warning of lpmode being unreferenced. */
1865:.\Generated_Source\PSoC5/CyLib.c ****         lpMode = lpMode;
1866:.\Generated_Source\PSoC5/CyLib.c **** 
1867:.\Generated_Source\PSoC5/CyLib.c ****     #endif  /* (!CY_PSOC5A) */
1868:.\Generated_Source\PSoC5/CyLib.c **** 
1869:.\Generated_Source\PSoC5/CyLib.c ****     /* Enables the watchdog reset */
1870:.\Generated_Source\PSoC5/CyLib.c ****     CY_WDT_CFG_REG |= CY_WDT_CFG_WDR_EN;
 1333              		.loc 1 1870 0
 1334 0028 1A78     		ldrb	r2, [r3, #0]	@ zero_extendqisi2
 1335 002a 42F01002 		orr	r2, r2, #16
 1336 002e 1A70     		strb	r2, [r3, #0]
1871:.\Generated_Source\PSoC5/CyLib.c **** }
 1337              		.loc 1 1871 0
 1338 0030 10BD     		pop	{r4, pc}
 1339              	.L177:
 1340 0032 00BF     		.align	2
 1341              	.L176:
 1342 0034 83430040 		.word	1073759107
 1343              		.cfi_endproc
 1344              	.LFE37:
 1345              		.size	CyWdtStart, .-CyWdtStart
 1346              		.section	.text.CyWdtClear,"ax",%progbits
 1347              		.align	1
 1348              		.global	CyWdtClear
 1349              		.thumb
 1350              		.thumb_func
 1351              		.type	CyWdtClear, %function
 1352              	CyWdtClear:
 1353              	.LFB38:
1872:.\Generated_Source\PSoC5/CyLib.c **** 
1873:.\Generated_Source\PSoC5/CyLib.c **** 
1874:.\Generated_Source\PSoC5/CyLib.c **** /*******************************************************************************
1875:.\Generated_Source\PSoC5/CyLib.c **** * Function Name: CyWdtClear
1876:.\Generated_Source\PSoC5/CyLib.c **** ********************************************************************************
1877:.\Generated_Source\PSoC5/CyLib.c **** *
1878:.\Generated_Source\PSoC5/CyLib.c **** * Summary:
1879:.\Generated_Source\PSoC5/CyLib.c **** *  Clears (feeds) the watchdog timer.
1880:.\Generated_Source\PSoC5/CyLib.c **** *
1881:.\Generated_Source\PSoC5/CyLib.c **** * Parameters:
1882:.\Generated_Source\PSoC5/CyLib.c **** *  None
1883:.\Generated_Source\PSoC5/CyLib.c **** *
1884:.\Generated_Source\PSoC5/CyLib.c **** * Return:
1885:.\Generated_Source\PSoC5/CyLib.c **** *  None
1886:.\Generated_Source\PSoC5/CyLib.c **** *
1887:.\Generated_Source\PSoC5/CyLib.c **** *******************************************************************************/
1888:.\Generated_Source\PSoC5/CyLib.c **** void CyWdtClear(void) 
1889:.\Generated_Source\PSoC5/CyLib.c **** {
 1354              		.loc 1 1889 0
 1355              		.cfi_startproc
 1356              		@ args = 0, pretend = 0, frame = 0
ARM GAS  C:\Users\SUZUKI~1\AppData\Local\Temp\ccqvA6Qn.s 			page 58


 1357              		@ frame_needed = 0, uses_anonymous_args = 0
 1358              		@ link register save eliminated.
1890:.\Generated_Source\PSoC5/CyLib.c ****     #if(CY_PSOC5A)
1891:.\Generated_Source\PSoC5/CyLib.c **** 
1892:.\Generated_Source\PSoC5/CyLib.c ****         /* PSoC5 ES1 watchdog time clear requires workaround */
1893:.\Generated_Source\PSoC5/CyLib.c ****         uint8 wdtCfg = CY_WDT_CFG_REG;
 1359              		.loc 1 1893 0
 1360 0000 044B     		ldr	r3, .L180
1894:.\Generated_Source\PSoC5/CyLib.c ****         CY_WDT_CR_REG  = CY_WDT_CR_FEED;
 1361              		.loc 1 1894 0
 1362 0002 0549     		ldr	r1, .L180+4
 1363              		.loc 1 1893 0
 1364 0004 1A78     		ldrb	r2, [r3, #0]	@ zero_extendqisi2
 1365              		.loc 1 1894 0
 1366 0006 0120     		movs	r0, #1
 1367 0008 0870     		strb	r0, [r1, #0]
1895:.\Generated_Source\PSoC5/CyLib.c ****         CY_WDT_CFG_REG = CY_WDT_CFG_CLEAR_ALL;
 1368              		.loc 1 1895 0
 1369 000a 0021     		movs	r1, #0
 1370 000c 1970     		strb	r1, [r3, #0]
1896:.\Generated_Source\PSoC5/CyLib.c ****         CY_WDT_CFG_REG = wdtCfg;
 1371              		.loc 1 1896 0
 1372 000e 1A70     		strb	r2, [r3, #0]
 1373              	.LVL56:
